{
  "contractName": "Land",
  "abi": [
    {
      "constant": true,
      "inputs": [
        {
          "internalType": "uint256",
          "name": "",
          "type": "uint256"
        }
      ],
      "name": "Buyerlist",
      "outputs": [
        {
          "internalType": "address",
          "name": "",
          "type": "address"
        }
      ],
      "payable": false,
      "stateMutability": "view",
      "type": "function"
    },
    {
      "constant": true,
      "inputs": [
        {
          "internalType": "uint256",
          "name": "",
          "type": "uint256"
        }
      ],
      "name": "Buyersmapping",
      "outputs": [
        {
          "internalType": "uint256",
          "name": "id",
          "type": "uint256"
        },
        {
          "internalType": "string",
          "name": "nic",
          "type": "string"
        },
        {
          "internalType": "string",
          "name": "name",
          "type": "string"
        },
        {
          "internalType": "uint256",
          "name": "age",
          "type": "uint256"
        },
        {
          "internalType": "string",
          "name": "city",
          "type": "string"
        },
        {
          "internalType": "string",
          "name": "email",
          "type": "string"
        },
        {
          "internalType": "uint256",
          "name": "telephoneNumber",
          "type": "uint256"
        }
      ],
      "payable": false,
      "stateMutability": "view",
      "type": "function"
    },
    {
      "constant": true,
      "inputs": [
        {
          "internalType": "uint256",
          "name": "",
          "type": "uint256"
        }
      ],
      "name": "Lawyersmapping",
      "outputs": [
        {
          "internalType": "uint256",
          "name": "lawyerId",
          "type": "uint256"
        },
        {
          "internalType": "string",
          "name": "lawyerName",
          "type": "string"
        },
        {
          "internalType": "string",
          "name": "lawyernic",
          "type": "string"
        },
        {
          "internalType": "string",
          "name": "lawyerRegNo",
          "type": "string"
        },
        {
          "internalType": "string",
          "name": "lawyerEmail",
          "type": "string"
        }
      ],
      "payable": false,
      "stateMutability": "view",
      "type": "function"
    },
    {
      "constant": true,
      "inputs": [
        {
          "internalType": "uint256",
          "name": "",
          "type": "uint256"
        }
      ],
      "name": "adminMapping",
      "outputs": [
        {
          "internalType": "uint256",
          "name": "id",
          "type": "uint256"
        }
      ],
      "payable": false,
      "stateMutability": "view",
      "type": "function"
    },
    {
      "constant": true,
      "inputs": [
        {
          "internalType": "uint256",
          "name": "",
          "type": "uint256"
        }
      ],
      "name": "deeds",
      "outputs": [
        {
          "internalType": "uint256",
          "name": "deedId",
          "type": "uint256"
        },
        {
          "internalType": "string",
          "name": "no",
          "type": "string"
        },
        {
          "internalType": "string",
          "name": "streetName",
          "type": "string"
        },
        {
          "internalType": "string",
          "name": "city",
          "type": "string"
        },
        {
          "internalType": "string",
          "name": "district",
          "type": "string"
        },
        {
          "internalType": "string",
          "name": "province",
          "type": "string"
        },
        {
          "internalType": "uint256",
          "name": "assignedLawyerId",
          "type": "uint256"
        },
        {
          "internalType": "uint256",
          "name": "assignedSellerId",
          "type": "uint256"
        }
      ],
      "payable": false,
      "stateMutability": "view",
      "type": "function"
    },
    {
      "constant": true,
      "inputs": [
        {
          "internalType": "uint256",
          "name": "",
          "type": "uint256"
        }
      ],
      "name": "lawyerList",
      "outputs": [
        {
          "internalType": "address",
          "name": "",
          "type": "address"
        }
      ],
      "payable": false,
      "stateMutability": "view",
      "type": "function"
    },
    {
      "constant": true,
      "inputs": [
        {
          "internalType": "uint256",
          "name": "",
          "type": "uint256"
        }
      ],
      "name": "sellerList",
      "outputs": [
        {
          "internalType": "address",
          "name": "",
          "type": "address"
        }
      ],
      "payable": false,
      "stateMutability": "view",
      "type": "function"
    },
    {
      "constant": true,
      "inputs": [
        {
          "internalType": "uint256",
          "name": "",
          "type": "uint256"
        }
      ],
      "name": "sellersMapping",
      "outputs": [
        {
          "internalType": "string",
          "name": "name",
          "type": "string"
        },
        {
          "internalType": "uint256",
          "name": "id",
          "type": "uint256"
        },
        {
          "internalType": "string",
          "name": "nic",
          "type": "string"
        },
        {
          "internalType": "uint256",
          "name": "age",
          "type": "uint256"
        },
        {
          "internalType": "string",
          "name": "city",
          "type": "string"
        },
        {
          "internalType": "string",
          "name": "email",
          "type": "string"
        },
        {
          "internalType": "uint256",
          "name": "telephoneNumber",
          "type": "uint256"
        }
      ],
      "payable": false,
      "stateMutability": "view",
      "type": "function"
    },
    {
      "constant": true,
      "inputs": [],
      "name": "getDeedCount",
      "outputs": [
        {
          "internalType": "uint256",
          "name": "",
          "type": "uint256"
        }
      ],
      "payable": false,
      "stateMutability": "view",
      "type": "function"
    },
    {
      "constant": true,
      "inputs": [],
      "name": "getBuyersCount",
      "outputs": [
        {
          "internalType": "uint256",
          "name": "",
          "type": "uint256"
        }
      ],
      "payable": false,
      "stateMutability": "view",
      "type": "function"
    },
    {
      "constant": true,
      "inputs": [],
      "name": "getLawyerCount",
      "outputs": [
        {
          "internalType": "uint256",
          "name": "",
          "type": "uint256"
        }
      ],
      "payable": false,
      "stateMutability": "view",
      "type": "function"
    },
    {
      "constant": true,
      "inputs": [],
      "name": "getSellersCount",
      "outputs": [
        {
          "internalType": "uint256",
          "name": "",
          "type": "uint256"
        }
      ],
      "payable": false,
      "stateMutability": "view",
      "type": "function"
    },
    {
      "constant": true,
      "inputs": [],
      "name": "getAdminCount",
      "outputs": [
        {
          "internalType": "uint256",
          "name": "",
          "type": "uint256"
        }
      ],
      "payable": false,
      "stateMutability": "view",
      "type": "function"
    },
    {
      "constant": true,
      "inputs": [
        {
          "internalType": "uint256",
          "name": "index",
          "type": "uint256"
        }
      ],
      "name": "getDeedId",
      "outputs": [
        {
          "internalType": "uint256",
          "name": "",
          "type": "uint256"
        }
      ],
      "payable": false,
      "stateMutability": "view",
      "type": "function"
    },
    {
      "constant": true,
      "inputs": [
        {
          "internalType": "uint256",
          "name": "index",
          "type": "uint256"
        }
      ],
      "name": "getDeedNo",
      "outputs": [
        {
          "internalType": "string",
          "name": "",
          "type": "string"
        }
      ],
      "payable": false,
      "stateMutability": "view",
      "type": "function"
    },
    {
      "constant": true,
      "inputs": [
        {
          "internalType": "uint256",
          "name": "index",
          "type": "uint256"
        }
      ],
      "name": "getDeedStreetName",
      "outputs": [
        {
          "internalType": "string",
          "name": "",
          "type": "string"
        }
      ],
      "payable": false,
      "stateMutability": "view",
      "type": "function"
    },
    {
      "constant": true,
      "inputs": [
        {
          "internalType": "uint256",
          "name": "index",
          "type": "uint256"
        }
      ],
      "name": "getDeedCity",
      "outputs": [
        {
          "internalType": "string",
          "name": "",
          "type": "string"
        }
      ],
      "payable": false,
      "stateMutability": "view",
      "type": "function"
    },
    {
      "constant": true,
      "inputs": [
        {
          "internalType": "uint256",
          "name": "index",
          "type": "uint256"
        }
      ],
      "name": "getDeedDistrict",
      "outputs": [
        {
          "internalType": "string",
          "name": "",
          "type": "string"
        }
      ],
      "payable": false,
      "stateMutability": "view",
      "type": "function"
    },
    {
      "constant": true,
      "inputs": [
        {
          "internalType": "uint256",
          "name": "index",
          "type": "uint256"
        }
      ],
      "name": "getDeedProvince",
      "outputs": [
        {
          "internalType": "string",
          "name": "",
          "type": "string"
        }
      ],
      "payable": false,
      "stateMutability": "view",
      "type": "function"
    },
    {
      "constant": true,
      "inputs": [
        {
          "internalType": "uint256",
          "name": "index",
          "type": "uint256"
        }
      ],
      "name": "getLawyerIdOfDeed",
      "outputs": [
        {
          "internalType": "uint256",
          "name": "",
          "type": "uint256"
        }
      ],
      "payable": false,
      "stateMutability": "view",
      "type": "function"
    },
    {
      "constant": true,
      "inputs": [
        {
          "internalType": "uint256",
          "name": "index",
          "type": "uint256"
        }
      ],
      "name": "getSellerIdOfDeed",
      "outputs": [
        {
          "internalType": "uint256",
          "name": "",
          "type": "uint256"
        }
      ],
      "payable": false,
      "stateMutability": "view",
      "type": "function"
    },
    {
      "constant": true,
      "inputs": [
        {
          "internalType": "string",
          "name": "_no",
          "type": "string"
        },
        {
          "internalType": "string",
          "name": "_streetName",
          "type": "string"
        },
        {
          "internalType": "string",
          "name": "_city",
          "type": "string"
        },
        {
          "internalType": "string",
          "name": "_district",
          "type": "string"
        },
        {
          "internalType": "string",
          "name": "_province",
          "type": "string"
        }
      ],
      "name": "findDeedByAddress",
      "outputs": [
        {
          "internalType": "uint256",
          "name": "",
          "type": "uint256"
        }
      ],
      "payable": false,
      "stateMutability": "view",
      "type": "function"
    },
    {
      "constant": false,
      "inputs": [
        {
          "internalType": "uint256",
          "name": "_deedId",
          "type": "uint256"
        },
        {
          "internalType": "uint256",
          "name": "_assignedLawyerId",
          "type": "uint256"
        },
        {
          "internalType": "uint256",
          "name": "_assignedSellerId",
          "type": "uint256"
        }
      ],
      "name": "changeDeedBuyerAndSeller",
      "outputs": [],
      "payable": false,
      "stateMutability": "nonpayable",
      "type": "function"
    },
    {
      "constant": true,
      "inputs": [],
      "name": "getBuyer",
      "outputs": [
        {
          "internalType": "address[]",
          "name": "",
          "type": "address[]"
        }
      ],
      "payable": false,
      "stateMutability": "view",
      "type": "function"
    },
    {
      "constant": true,
      "inputs": [],
      "name": "getSeller",
      "outputs": [
        {
          "internalType": "address[]",
          "name": "",
          "type": "address[]"
        }
      ],
      "payable": false,
      "stateMutability": "view",
      "type": "function"
    },
    {
      "constant": true,
      "inputs": [],
      "name": "getLawyer",
      "outputs": [
        {
          "internalType": "address[]",
          "name": "",
          "type": "address[]"
        }
      ],
      "payable": false,
      "stateMutability": "view",
      "type": "function"
    },
    {
      "constant": false,
      "inputs": [
        {
          "internalType": "string",
          "name": "_no",
          "type": "string"
        },
        {
          "internalType": "string",
          "name": "_streetName",
          "type": "string"
        },
        {
          "internalType": "string",
          "name": "_city",
          "type": "string"
        },
        {
          "internalType": "string",
          "name": "_district",
          "type": "string"
        },
        {
          "internalType": "string",
          "name": "_province",
          "type": "string"
        },
        {
          "internalType": "uint256",
          "name": "_assignedLawyerId",
          "type": "uint256"
        },
        {
          "internalType": "uint256",
          "name": "_assignedSellerId",
          "type": "uint256"
        }
      ],
      "name": "addNewDeed",
      "outputs": [],
      "payable": false,
      "stateMutability": "nonpayable",
      "type": "function"
    },
    {
      "constant": false,
      "inputs": [
        {
          "internalType": "uint256",
          "name": "_id",
          "type": "uint256"
        },
        {
          "internalType": "string",
          "name": "_nic",
          "type": "string"
        },
        {
          "internalType": "string",
          "name": "_name",
          "type": "string"
        },
        {
          "internalType": "uint256",
          "name": "_age",
          "type": "uint256"
        },
        {
          "internalType": "string",
          "name": "_city",
          "type": "string"
        },
        {
          "internalType": "string",
          "name": "_email",
          "type": "string"
        },
        {
          "internalType": "uint256",
          "name": "_telephoneNumber",
          "type": "uint256"
        }
      ],
      "name": "registerBuyer",
      "outputs": [],
      "payable": false,
      "stateMutability": "nonpayable",
      "type": "function"
    },
    {
      "constant": false,
      "inputs": [
        {
          "internalType": "string",
          "name": "_name",
          "type": "string"
        },
        {
          "internalType": "uint256",
          "name": "_id",
          "type": "uint256"
        },
        {
          "internalType": "string",
          "name": "_nic",
          "type": "string"
        },
        {
          "internalType": "uint256",
          "name": "_age",
          "type": "uint256"
        },
        {
          "internalType": "string",
          "name": "_city",
          "type": "string"
        },
        {
          "internalType": "string",
          "name": "_email",
          "type": "string"
        },
        {
          "internalType": "uint256",
          "name": "_telephoneNumber",
          "type": "uint256"
        }
      ],
      "name": "registerSeller",
      "outputs": [],
      "payable": false,
      "stateMutability": "nonpayable",
      "type": "function"
    },
    {
      "constant": false,
      "inputs": [
        {
          "internalType": "uint256",
          "name": "_lawyerId",
          "type": "uint256"
        },
        {
          "internalType": "string",
          "name": "_lawyerName",
          "type": "string"
        },
        {
          "internalType": "string",
          "name": "_lawyernic",
          "type": "string"
        },
        {
          "internalType": "string",
          "name": "_lawyerRegNo",
          "type": "string"
        },
        {
          "internalType": "string",
          "name": "_lawyerEmail",
          "type": "string"
        }
      ],
      "name": "registerLawyer",
      "outputs": [],
      "payable": false,
      "stateMutability": "nonpayable",
      "type": "function"
    },
    {
      "constant": true,
      "inputs": [
        {
          "internalType": "uint256",
          "name": "index",
          "type": "uint256"
        }
      ],
      "name": "displayBuyer",
      "outputs": [
        {
          "internalType": "uint256",
          "name": "_id",
          "type": "uint256"
        },
        {
          "internalType": "string",
          "name": "_nic",
          "type": "string"
        },
        {
          "internalType": "string",
          "name": "_name",
          "type": "string"
        },
        {
          "internalType": "uint256",
          "name": "_age",
          "type": "uint256"
        },
        {
          "internalType": "string",
          "name": "_city",
          "type": "string"
        },
        {
          "internalType": "string",
          "name": "_email",
          "type": "string"
        },
        {
          "internalType": "uint256",
          "name": "_telephoneNumber",
          "type": "uint256"
        }
      ],
      "payable": false,
      "stateMutability": "view",
      "type": "function"
    },
    {
      "constant": true,
      "inputs": [
        {
          "internalType": "uint256",
          "name": "index",
          "type": "uint256"
        }
      ],
      "name": "displaySeller",
      "outputs": [
        {
          "internalType": "string",
          "name": "_name",
          "type": "string"
        },
        {
          "internalType": "uint256",
          "name": "_id",
          "type": "uint256"
        },
        {
          "internalType": "string",
          "name": "_nic",
          "type": "string"
        },
        {
          "internalType": "uint256",
          "name": "_age",
          "type": "uint256"
        },
        {
          "internalType": "string",
          "name": "_city",
          "type": "string"
        },
        {
          "internalType": "string",
          "name": "_email",
          "type": "string"
        },
        {
          "internalType": "uint256",
          "name": "_telephoneNumber",
          "type": "uint256"
        }
      ],
      "payable": false,
      "stateMutability": "view",
      "type": "function"
    },
    {
      "constant": true,
      "inputs": [
        {
          "internalType": "uint256",
          "name": "index",
          "type": "uint256"
        }
      ],
      "name": "displayLawyer",
      "outputs": [
        {
          "internalType": "uint256",
          "name": "_lawyerId",
          "type": "uint256"
        },
        {
          "internalType": "string",
          "name": "_lawyerName",
          "type": "string"
        },
        {
          "internalType": "string",
          "name": "_lawyernic",
          "type": "string"
        },
        {
          "internalType": "string",
          "name": "_lawyerRegNo",
          "type": "string"
        },
        {
          "internalType": "string",
          "name": "_lawyerEmail",
          "type": "string"
        }
      ],
      "payable": false,
      "stateMutability": "view",
      "type": "function"
    },
    {
      "constant": true,
      "inputs": [
        {
          "internalType": "uint256",
          "name": "index",
          "type": "uint256"
        }
      ],
      "name": "getLawyerId",
      "outputs": [
        {
          "internalType": "uint256",
          "name": "",
          "type": "uint256"
        }
      ],
      "payable": false,
      "stateMutability": "view",
      "type": "function"
    },
    {
      "constant": true,
      "inputs": [
        {
          "internalType": "uint256",
          "name": "index",
          "type": "uint256"
        }
      ],
      "name": "getLawyerName",
      "outputs": [
        {
          "internalType": "string",
          "name": "",
          "type": "string"
        }
      ],
      "payable": false,
      "stateMutability": "view",
      "type": "function"
    },
    {
      "constant": true,
      "inputs": [
        {
          "internalType": "uint256",
          "name": "index",
          "type": "uint256"
        }
      ],
      "name": "getLawyerNic",
      "outputs": [
        {
          "internalType": "string",
          "name": "",
          "type": "string"
        }
      ],
      "payable": false,
      "stateMutability": "view",
      "type": "function"
    },
    {
      "constant": true,
      "inputs": [
        {
          "internalType": "uint256",
          "name": "index",
          "type": "uint256"
        }
      ],
      "name": "getLawyerRegNo",
      "outputs": [
        {
          "internalType": "string",
          "name": "",
          "type": "string"
        }
      ],
      "payable": false,
      "stateMutability": "view",
      "type": "function"
    },
    {
      "constant": true,
      "inputs": [
        {
          "internalType": "uint256",
          "name": "index",
          "type": "uint256"
        }
      ],
      "name": "getLawyerEmail",
      "outputs": [
        {
          "internalType": "string",
          "name": "",
          "type": "string"
        }
      ],
      "payable": false,
      "stateMutability": "view",
      "type": "function"
    },
    {
      "constant": true,
      "inputs": [
        {
          "internalType": "uint256",
          "name": "index",
          "type": "uint256"
        }
      ],
      "name": "getSellerId",
      "outputs": [
        {
          "internalType": "uint256",
          "name": "",
          "type": "uint256"
        }
      ],
      "payable": false,
      "stateMutability": "view",
      "type": "function"
    },
    {
      "constant": true,
      "inputs": [
        {
          "internalType": "uint256",
          "name": "index",
          "type": "uint256"
        }
      ],
      "name": "getSellerName",
      "outputs": [
        {
          "internalType": "string",
          "name": "",
          "type": "string"
        }
      ],
      "payable": false,
      "stateMutability": "view",
      "type": "function"
    },
    {
      "constant": true,
      "inputs": [
        {
          "internalType": "uint256",
          "name": "index",
          "type": "uint256"
        }
      ],
      "name": "getSellerNic",
      "outputs": [
        {
          "internalType": "string",
          "name": "",
          "type": "string"
        }
      ],
      "payable": false,
      "stateMutability": "view",
      "type": "function"
    },
    {
      "constant": true,
      "inputs": [
        {
          "internalType": "uint256",
          "name": "index",
          "type": "uint256"
        }
      ],
      "name": "getSellerAge",
      "outputs": [
        {
          "internalType": "uint256",
          "name": "",
          "type": "uint256"
        }
      ],
      "payable": false,
      "stateMutability": "view",
      "type": "function"
    },
    {
      "constant": true,
      "inputs": [
        {
          "internalType": "uint256",
          "name": "index",
          "type": "uint256"
        }
      ],
      "name": "getSellerCity",
      "outputs": [
        {
          "internalType": "string",
          "name": "",
          "type": "string"
        }
      ],
      "payable": false,
      "stateMutability": "view",
      "type": "function"
    },
    {
      "constant": true,
      "inputs": [
        {
          "internalType": "uint256",
          "name": "index",
          "type": "uint256"
        }
      ],
      "name": "getSellerEmail",
      "outputs": [
        {
          "internalType": "string",
          "name": "",
          "type": "string"
        }
      ],
      "payable": false,
      "stateMutability": "view",
      "type": "function"
    },
    {
      "constant": true,
      "inputs": [
        {
          "internalType": "uint256",
          "name": "index",
          "type": "uint256"
        }
      ],
      "name": "getSellerTelephoneNo",
      "outputs": [
        {
          "internalType": "uint256",
          "name": "",
          "type": "uint256"
        }
      ],
      "payable": false,
      "stateMutability": "view",
      "type": "function"
    }
  ],
  "bytecode": "0x6080604052600060085560006009556000600a556000600b556000600c5534801561002957600080fd5b5061580b806200003a6000396000f3fe608060405234801561001057600080fd5b506004361061027f5760003560e01c80637e45aa251161015c578063d96b0a55116100ce578063ef38023511610087578063ef38023514612a5c578063f0b93af914612a9e578063f0d3a9df14612b45578063f42a1b3114612b63578063f8a3860514612bd1578063ffb434fb14612c135761027f565b8063d96b0a55146125ea578063dbd0e1b614612691578063dd9d122d146126f0578063df0a1c2a1461270e578063e084ada1146127b5578063e51374591461285c5761027f565b80639614681b116101205780639614681b14611c3a57806397ecb50814611f655780639cd681f514612203578063aca55773146122aa578063b432183214612351578063cff0c7c0146123f85761027f565b80637e45aa25146118a8578063800140291461194f5780638b7bf3eb146119ae578063916a1c70146119cc57806393addc0814611a3a5761027f565b806335a82e72116101f5578063655dc4c2116101b9578063655dc4c2146112345780636c218b171461125257806370ffbdd214611294578063721fa4181461133b57806374cfe475146116665780637c6eb103146116a85761027f565b806335a82e7214610cc15780634fac8ae914610d0357806355bb2bcc14610fa15780635dd5679814611193578063603daf9a146111d55761027f565b806321eb5a7c1161024757806321eb5a7c14610689578063275ea7cf146106cb57806327dc19dd146108cb57806330c9fb4814610b5557806332a6785314610bfc578063334bb74514610ca35761027f565b806305624d35146102845780630cc543b61461032b5780630df7ec241461036d578063119d41f4146103af57806318edf5641461041d575b600080fd5b6102b06004803603602081101561029a57600080fd5b8101908080359060200190929190505050612cba565b6040518080602001828103825283818151815260200191508051906020019080838360005b838110156102f05780820151818401526020810190506102d5565b50505050905090810190601f16801561031d5780820380516001836020036101000a031916815260200191505b509250505060405180910390f35b6103576004803603602081101561034157600080fd5b8101908080359060200190929190505050612d71565b6040518082815260200191505060405180910390f35b6103996004803603602081101561038357600080fd5b8101908080359060200190929190505050612d91565b6040518082815260200191505060405180910390f35b6103db600480360360208110156103c557600080fd5b8101908080359060200190929190505050612db0565b604051808273ffffffffffffffffffffffffffffffffffffffff1673ffffffffffffffffffffffffffffffffffffffff16815260200191505060405180910390f35b6104496004803603602081101561043357600080fd5b8101908080359060200190929190505050612dec565b60405180898152602001806020018060200180602001806020018060200188815260200187815260200186810386528d818151815260200191508051906020019080838360005b838110156104ab578082015181840152602081019050610490565b50505050905090810190601f1680156104d85780820380516001836020036101000a031916815260200191505b5086810385528c818151815260200191508051906020019080838360005b838110156105115780820151818401526020810190506104f6565b50505050905090810190601f16801561053e5780820380516001836020036101000a031916815260200191505b5086810384528b818151815260200191508051906020019080838360005b8381101561057757808201518184015260208101905061055c565b50505050905090810190601f1680156105a45780820380516001836020036101000a031916815260200191505b5086810383528a818151815260200191508051906020019080838360005b838110156105dd5780820151818401526020810190506105c2565b50505050905090810190601f16801561060a5780820380516001836020036101000a031916815260200191505b50868103825289818151815260200191508051906020019080838360005b83811015610643578082015181840152602081019050610628565b50505050905090810190601f1680156106705780820380516001836020036101000a031916815260200191505b509d505050505050505050505050505060405180910390f35b6106b56004803603602081101561069f57600080fd5b810190808035906020019092919050505061312c565b6040518082815260200191505060405180910390f35b6106f7600480360360208110156106e157600080fd5b810190808035906020019092919050505061314a565b604051808881526020018060200180602001878152602001806020018060200186815260200185810385528b818151815260200191508051906020019080838360005b8381101561075557808201518184015260208101905061073a565b50505050905090810190601f1680156107825780820380516001836020036101000a031916815260200191505b5085810384528a818151815260200191508051906020019080838360005b838110156107bb5780820151818401526020810190506107a0565b50505050905090810190601f1680156107e85780820380516001836020036101000a031916815260200191505b50858103835288818151815260200191508051906020019080838360005b83811015610821578082015181840152602081019050610806565b50505050905090810190601f16801561084e5780820380516001836020036101000a031916815260200191505b50858103825287818151815260200191508051906020019080838360005b8381101561088757808201518184015260208101905061086c565b50505050905090810190601f1680156108b45780820380516001836020036101000a031916815260200191505b509b50505050505050505050505060405180910390f35b610b53600480360360a08110156108e157600080fd5b81019080803590602001909291908035906020019064010000000081111561090857600080fd5b82018360208201111561091a57600080fd5b8035906020019184600183028401116401000000008311171561093c57600080fd5b91908080601f016020809104026020016040519081016040528093929190818152602001838380828437600081840152601f19601f8201169050808301925050505050505091929192908035906020019064010000000081111561099f57600080fd5b8201836020820111156109b157600080fd5b803590602001918460018302840111640100000000831117156109d357600080fd5b91908080601f016020809104026020016040519081016040528093929190818152602001838380828437600081840152601f19601f82011690508083019250505050505050919291929080359060200190640100000000811115610a3657600080fd5b820183602082011115610a4857600080fd5b80359060200191846001830284011164010000000083111715610a6a57600080fd5b91908080601f016020809104026020016040519081016040528093929190818152602001838380828437600081840152601f19601f82011690508083019250505050505050919291929080359060200190640100000000811115610acd57600080fd5b820183602082011115610adf57600080fd5b80359060200191846001830284011164010000000083111715610b0157600080fd5b91908080601f016020809104026020016040519081016040528093929190818152602001838380828437600081840152601f19601f82011690508083019250505050505050919291929050505061347c565b005b610b8160048036036020811015610b6b57600080fd5b8101908080359060200190929190505050613552565b6040518080602001828103825283818151815260200191508051906020019080838360005b83811015610bc1578082015181840152602081019050610ba6565b50505050905090810190601f168015610bee5780820380516001836020036101000a031916815260200191505b509250505060405180910390f35b610c2860048036036020811015610c1257600080fd5b810190808035906020019092919050505061360a565b6040518080602001828103825283818151815260200191508051906020019080838360005b83811015610c68578082015181840152602081019050610c4d565b50505050905090810190601f168015610c955780820380516001836020036101000a031916815260200191505b509250505060405180910390f35b610cab6136c1565b6040518082815260200191505060405180910390f35b610ced60048036036020811015610cd757600080fd5b81019080803590602001909291905050506136cb565b6040518082815260200191505060405180910390f35b610f9f600480360360e0811015610d1957600080fd5b810190808035906020019092919080359060200190640100000000811115610d4057600080fd5b820183602082011115610d5257600080fd5b80359060200191846001830284011164010000000083111715610d7457600080fd5b91908080601f016020809104026020016040519081016040528093929190818152602001838380828437600081840152601f19601f82011690508083019250505050505050919291929080359060200190640100000000811115610dd757600080fd5b820183602082011115610de957600080fd5b80359060200191846001830284011164010000000083111715610e0b57600080fd5b91908080601f016020809104026020016040519081016040528093929190818152602001838380828437600081840152601f19601f8201169050808301925050505050505091929192908035906020019092919080359060200190640100000000811115610e7857600080fd5b820183602082011115610e8a57600080fd5b80359060200191846001830284011164010000000083111715610eac57600080fd5b91908080601f016020809104026020016040519081016040528093929190818152602001838380828437600081840152601f19601f82011690508083019250505050505050919291929080359060200190640100000000811115610f0f57600080fd5b820183602082011115610f2157600080fd5b80359060200191846001830284011164010000000083111715610f4357600080fd5b91908080601f016020809104026020016040519081016040528093929190818152602001838380828437600081840152601f19601f820116905080830192505050505050509192919290803590602001909291905050506136ea565b005b610fcd60048036036020811015610fb757600080fd5b81019080803590602001909291905050506137e2565b6040518086815260200180602001806020018060200180602001858103855289818151815260200191508051906020019080838360005b8381101561101f578082015181840152602081019050611004565b50505050905090810190601f16801561104c5780820380516001836020036101000a031916815260200191505b50858103845288818151815260200191508051906020019080838360005b8381101561108557808201518184015260208101905061106a565b50505050905090810190601f1680156110b25780820380516001836020036101000a031916815260200191505b50858103835287818151815260200191508051906020019080838360005b838110156110eb5780820151818401526020810190506110d0565b50505050905090810190601f1680156111185780820380516001836020036101000a031916815260200191505b50858103825286818151815260200191508051906020019080838360005b83811015611151578082015181840152602081019050611136565b50505050905090810190601f16801561117e5780820380516001836020036101000a031916815260200191505b50995050505050505050505060405180910390f35b6111bf600480360360208110156111a957600080fd5b8101908080359060200190929190505050613adc565b6040518082815260200191505060405180910390f35b6111dd613afb565b6040518080602001828103825283818151815260200191508051906020019060200280838360005b83811015611220578082015181840152602081019050611205565b505050509050019250505060405180910390f35b61123c613b89565b6040518082815260200191505060405180910390f35b61127e6004803603602081101561126857600080fd5b8101908080359060200190929190505050613b93565b6040518082815260200191505060405180910390f35b6112c0600480360360208110156112aa57600080fd5b8101908080359060200190929190505050613bb3565b6040518080602001828103825283818151815260200191508051906020019080838360005b838110156113005780820151818401526020810190506112e5565b50505050905090810190601f16801561132d5780820380516001836020036101000a031916815260200191505b509250505060405180910390f35b611664600480360360e081101561135157600080fd5b810190808035906020019064010000000081111561136e57600080fd5b82018360208201111561138057600080fd5b803590602001918460018302840111640100000000831117156113a257600080fd5b91908080601f016020809104026020016040519081016040528093929190818152602001838380828437600081840152601f19601f8201169050808301925050505050505091929192908035906020019064010000000081111561140557600080fd5b82018360208201111561141757600080fd5b8035906020019184600183028401116401000000008311171561143957600080fd5b91908080601f016020809104026020016040519081016040528093929190818152602001838380828437600081840152601f19601f8201169050808301925050505050505091929192908035906020019064010000000081111561149c57600080fd5b8201836020820111156114ae57600080fd5b803590602001918460018302840111640100000000831117156114d057600080fd5b91908080601f016020809104026020016040519081016040528093929190818152602001838380828437600081840152601f19601f8201169050808301925050505050505091929192908035906020019064010000000081111561153357600080fd5b82018360208201111561154557600080fd5b8035906020019184600183028401116401000000008311171561156757600080fd5b91908080601f016020809104026020016040519081016040528093929190818152602001838380828437600081840152601f19601f820116905080830192505050505050509192919290803590602001906401000000008111156115ca57600080fd5b8201836020820111156115dc57600080fd5b803590602001918460018302840111640100000000831117156115fe57600080fd5b91908080601f016020809104026020016040519081016040528093929190818152602001838380828437600081840152601f19601f8201169050808301925050505050505091929192908035906020019092919080359060200190929190505050613c6b565b005b6116926004803603602081101561167c57600080fd5b8101908080359060200190929190505050613d88565b6040518082815260200191505060405180910390f35b6116d4600480360360208110156116be57600080fd5b8101908080359060200190929190505050613da8565b604051808060200188815260200180602001878152602001806020018060200186815260200185810385528c818151815260200191508051906020019080838360005b83811015611732578082015181840152602081019050611717565b50505050905090810190601f16801561175f5780820380516001836020036101000a031916815260200191505b5085810384528a818151815260200191508051906020019080838360005b8381101561179857808201518184015260208101905061177d565b50505050905090810190601f1680156117c55780820380516001836020036101000a031916815260200191505b50858103835288818151815260200191508051906020019080838360005b838110156117fe5780820151818401526020810190506117e3565b50505050905090810190601f16801561182b5780820380516001836020036101000a031916815260200191505b50858103825287818151815260200191508051906020019080838360005b83811015611864578082015181840152602081019050611849565b50505050905090810190601f1680156118915780820380516001836020036101000a031916815260200191505b509b50505050505050505050505060405180910390f35b6118d4600480360360208110156118be57600080fd5b810190808035906020019092919050505061404a565b6040518080602001828103825283818151815260200191508051906020019080838360005b838110156119145780820151818401526020810190506118f9565b50505050905090810190601f1680156119415780820380516001836020036101000a031916815260200191505b509250505060405180910390f35b611957614102565b6040518080602001828103825283818151815260200191508051906020019060200280838360005b8381101561199a57808201518184015260208101905061197f565b505050509050019250505060405180910390f35b6119b6614190565b6040518082815260200191505060405180910390f35b6119f8600480360360208110156119e257600080fd5b810190808035906020019092919050505061419a565b604051808273ffffffffffffffffffffffffffffffffffffffff1673ffffffffffffffffffffffffffffffffffffffff16815260200191505060405180910390f35b611a6660048036036020811015611a5057600080fd5b81019080803590602001909291905050506141d6565b604051808881526020018060200180602001878152602001806020018060200186815260200185810385528b818151815260200191508051906020019080838360005b83811015611ac4578082015181840152602081019050611aa9565b50505050905090810190601f168015611af15780820380516001836020036101000a031916815260200191505b5085810384528a818151815260200191508051906020019080838360005b83811015611b2a578082015181840152602081019050611b0f565b50505050905090810190601f168015611b575780820380516001836020036101000a031916815260200191505b50858103835288818151815260200191508051906020019080838360005b83811015611b90578082015181840152602081019050611b75565b50505050905090810190601f168015611bbd5780820380516001836020036101000a031916815260200191505b50858103825287818151815260200191508051906020019080838360005b83811015611bf6578082015181840152602081019050611bdb565b50505050905090810190601f168015611c235780820380516001836020036101000a031916815260200191505b509b50505050505050505050505060405180910390f35b611f4f600480360360a0811015611c5057600080fd5b8101908080359060200190640100000000811115611c6d57600080fd5b820183602082011115611c7f57600080fd5b80359060200191846001830284011164010000000083111715611ca157600080fd5b91908080601f016020809104026020016040519081016040528093929190818152602001838380828437600081840152601f19601f82011690508083019250505050505050919291929080359060200190640100000000811115611d0457600080fd5b820183602082011115611d1657600080fd5b80359060200191846001830284011164010000000083111715611d3857600080fd5b91908080601f016020809104026020016040519081016040528093929190818152602001838380828437600081840152601f19601f82011690508083019250505050505050919291929080359060200190640100000000811115611d9b57600080fd5b820183602082011115611dad57600080fd5b80359060200191846001830284011164010000000083111715611dcf57600080fd5b91908080601f016020809104026020016040519081016040528093929190818152602001838380828437600081840152601f19601f82011690508083019250505050505050919291929080359060200190640100000000811115611e3257600080fd5b820183602082011115611e4457600080fd5b80359060200191846001830284011164010000000083111715611e6657600080fd5b91908080601f016020809104026020016040519081016040528093929190818152602001838380828437600081840152601f19601f82011690508083019250505050505050919291929080359060200190640100000000811115611ec957600080fd5b820183602082011115611edb57600080fd5b80359060200191846001830284011164010000000083111715611efd57600080fd5b91908080601f016020809104026020016040519081016040528093929190818152602001838380828437600081840152601f19601f820116905080830192505050505050509192919290505050614478565b6040518082815260200191505060405180910390f35b612201600480360360e0811015611f7b57600080fd5b8101908080359060200190640100000000811115611f9857600080fd5b820183602082011115611faa57600080fd5b80359060200191846001830284011164010000000083111715611fcc57600080fd5b91908080601f016020809104026020016040519081016040528093929190818152602001838380828437600081840152601f19601f820116905080830192505050505050509192919290803590602001909291908035906020019064010000000081111561203957600080fd5b82018360208201111561204b57600080fd5b8035906020019184600183028401116401000000008311171561206d57600080fd5b91908080601f016020809104026020016040519081016040528093929190818152602001838380828437600081840152601f19601f82011690508083019250505050505050919291929080359060200190929190803590602001906401000000008111156120da57600080fd5b8201836020820111156120ec57600080fd5b8035906020019184600183028401116401000000008311171561210e57600080fd5b91908080601f016020809104026020016040519081016040528093929190818152602001838380828437600081840152601f19601f8201169050808301925050505050505091929192908035906020019064010000000081111561217157600080fd5b82018360208201111561218357600080fd5b803590602001918460018302840111640100000000831117156121a557600080fd5b91908080601f016020809104026020016040519081016040528093929190818152602001838380828437600081840152601f19601f8201169050808301925050505050505091929192908035906020019092919050505061487c565b005b61222f6004803603602081101561221957600080fd5b8101908080359060200190929190505050614974565b6040518080602001828103825283818151815260200191508051906020019080838360005b8381101561226f578082015181840152602081019050612254565b50505050905090810190601f16801561229c5780820380516001836020036101000a031916815260200191505b509250505060405180910390f35b6122d6600480360360208110156122c057600080fd5b8101908080359060200190929190505050614a2b565b6040518080602001828103825283818151815260200191508051906020019080838360005b838110156123165780820151818401526020810190506122fb565b50505050905090810190601f1680156123435780820380516001836020036101000a031916815260200191505b509250505060405180910390f35b61237d6004803603602081101561236757600080fd5b8101908080359060200190929190505050614ae3565b6040518080602001828103825283818151815260200191508051906020019080838360005b838110156123bd5780820151818401526020810190506123a2565b50505050905090810190601f1680156123ea5780820380516001836020036101000a031916815260200191505b509250505060405180910390f35b6124246004803603602081101561240e57600080fd5b8101908080359060200190929190505050614b9b565b6040518086815260200180602001806020018060200180602001858103855289818151815260200191508051906020019080838360005b8381101561247657808201518184015260208101905061245b565b50505050905090810190601f1680156124a35780820380516001836020036101000a031916815260200191505b50858103845288818151815260200191508051906020019080838360005b838110156124dc5780820151818401526020810190506124c1565b50505050905090810190601f1680156125095780820380516001836020036101000a031916815260200191505b50858103835287818151815260200191508051906020019080838360005b83811015612542578082015181840152602081019050612527565b50505050905090810190601f16801561256f5780820380516001836020036101000a031916815260200191505b50858103825286818151815260200191508051906020019080838360005b838110156125a857808201518184015260208101905061258d565b50505050905090810190601f1680156125d55780820380516001836020036101000a031916815260200191505b50995050505050505050505060405180910390f35b6126166004803603602081101561260057600080fd5b8101908080359060200190929190505050614e31565b6040518080602001828103825283818151815260200191508051906020019080838360005b8381101561265657808201518184015260208101905061263b565b50505050905090810190601f1680156126835780820380516001836020036101000a031916815260200191505b509250505060405180910390f35b612699614ee9565b6040518080602001828103825283818151815260200191508051906020019060200280838360005b838110156126dc5780820151818401526020810190506126c1565b505050509050019250505060405180910390f35b6126f8614f77565b6040518082815260200191505060405180910390f35b61273a6004803603602081101561272457600080fd5b8101908080359060200190929190505050614f81565b6040518080602001828103825283818151815260200191508051906020019080838360005b8381101561277a57808201518184015260208101905061275f565b50505050905090810190601f1680156127a75780820380516001836020036101000a031916815260200191505b509250505060405180910390f35b6127e1600480360360208110156127cb57600080fd5b8101908080359060200190929190505050615039565b6040518080602001828103825283818151815260200191508051906020019080838360005b83811015612821578082015181840152602081019050612806565b50505050905090810190601f16801561284e5780820380516001836020036101000a031916815260200191505b509250505060405180910390f35b6128886004803603602081101561287257600080fd5b81019080803590602001909291905050506150f1565b604051808060200188815260200180602001878152602001806020018060200186815260200185810385528c818151815260200191508051906020019080838360005b838110156128e65780820151818401526020810190506128cb565b50505050905090810190601f1680156129135780820380516001836020036101000a031916815260200191505b5085810384528a818151815260200191508051906020019080838360005b8381101561294c578082015181840152602081019050612931565b50505050905090810190601f1680156129795780820380516001836020036101000a031916815260200191505b50858103835288818151815260200191508051906020019080838360005b838110156129b2578082015181840152602081019050612997565b50505050905090810190601f1680156129df5780820380516001836020036101000a031916815260200191505b50858103825287818151815260200191508051906020019080838360005b83811015612a185780820151818401526020810190506129fd565b50505050905090810190601f168015612a455780820380516001836020036101000a031916815260200191505b509b50505050505050505050505060405180910390f35b612a9c60048036036060811015612a7257600080fd5b81019080803590602001909291908035906020019092919080359060200190929190505050615424565b005b612aca60048036036020811015612ab457600080fd5b810190808035906020019092919050505061545d565b6040518080602001828103825283818151815260200191508051906020019080838360005b83811015612b0a578082015181840152602081019050612aef565b50505050905090810190601f168015612b375780820380516001836020036101000a031916815260200191505b509250505060405180910390f35b612b4d615514565b6040518082815260200191505060405180910390f35b612b8f60048036036020811015612b7957600080fd5b810190808035906020019092919050505061551e565b604051808273ffffffffffffffffffffffffffffffffffffffff1673ffffffffffffffffffffffffffffffffffffffff16815260200191505060405180910390f35b612bfd60048036036020811015612be757600080fd5b810190808035906020019092919050505061555a565b6040518082815260200191505060405180910390f35b612c3f60048036036020811015612c2957600080fd5b810190808035906020019092919050505061557a565b6040518080602001828103825283818151815260200191508051906020019080838360005b83811015612c7f578082015181840152602081019050612c64565b50505050905090810190601f168015612cac5780820380516001836020036101000a031916815260200191505b509250505060405180910390f35b60606000808381526020019081526020016000206004018054600181600116156101000203166002900480601f016020809104026020016040519081016040528092919081815260200182805460018160011615610100020316600290048015612d655780601f10612d3a57610100808354040283529160200191612d65565b820191906000526020600020905b815481529060010190602001808311612d4857829003601f168201915b50505050509050919050565b600060026000838152602001908152602001600020600601549050919050565b6000806000838152602001908152602001600020600001549050919050565b60058181548110612dbd57fe5b906000526020600020016000915054906101000a900473ffffffffffffffffffffffffffffffffffffffff1681565b6000602052806000526040600020600091509050806000015490806001018054600181600116156101000203166002900480601f016020809104026020016040519081016040528092919081815260200182805460018160011615610100020316600290048015612e9e5780601f10612e7357610100808354040283529160200191612e9e565b820191906000526020600020905b815481529060010190602001808311612e8157829003601f168201915b505050505090806002018054600181600116156101000203166002900480601f016020809104026020016040519081016040528092919081815260200182805460018160011615610100020316600290048015612f3c5780601f10612f1157610100808354040283529160200191612f3c565b820191906000526020600020905b815481529060010190602001808311612f1f57829003601f168201915b505050505090806003018054600181600116156101000203166002900480601f016020809104026020016040519081016040528092919081815260200182805460018160011615610100020316600290048015612fda5780601f10612faf57610100808354040283529160200191612fda565b820191906000526020600020905b815481529060010190602001808311612fbd57829003601f168201915b505050505090806004018054600181600116156101000203166002900480601f0160208091040260200160405190810160405280929190818152602001828054600181600116156101000203166002900480156130785780601f1061304d57610100808354040283529160200191613078565b820191906000526020600020905b81548152906001019060200180831161305b57829003601f168201915b505050505090806005018054600181600116156101000203166002900480601f0160208091040260200160405190810160405280929190818152602001828054600181600116156101000203166002900480156131165780601f106130eb57610100808354040283529160200191613116565b820191906000526020600020905b8154815290600101906020018083116130f957829003601f168201915b5050505050908060060154908060070154905088565b60046020528060005260406000206000915090508060000154905081565b6000606080600060608060006001600089815260200190815260200160002060000154600160008a8152602001908152602001600020600101600160008b8152602001908152602001600020600201600160008c815260200190815260200160002060030154600160008d8152602001908152602001600020600401600160008e8152602001908152602001600020600501600160008f815260200190815260200160002060060154858054600181600116156101000203166002900480601f0160208091040260200160405190810160405280929190818152602001828054600181600116156101000203166002900480156132885780601f1061325d57610100808354040283529160200191613288565b820191906000526020600020905b81548152906001019060200180831161326b57829003601f168201915b50505050509550848054600181600116156101000203166002900480601f0160208091040260200160405190810160405280929190818152602001828054600181600116156101000203166002900480156133245780601f106132f957610100808354040283529160200191613324565b820191906000526020600020905b81548152906001019060200180831161330757829003601f168201915b50505050509450828054600181600116156101000203166002900480601f0160208091040260200160405190810160405280929190818152602001828054600181600116156101000203166002900480156133c05780601f10613395576101008083540402835291602001916133c0565b820191906000526020600020905b8154815290600101906020018083116133a357829003601f168201915b50505050509250818054600181600116156101000203166002900480601f01602080910402602001604051908101604052809291908181526020018280546001816001161561010002031660029004801561345c5780601f106134315761010080835404028352916020019161345c565b820191906000526020600020905b81548152906001019060200180831161343f57829003601f168201915b505050505091509650965096509650965096509650919395979092949650565b6040518060a001604052808681526020018581526020018481526020018381526020018281525060036000600b5481526020019081526020016000206000820151816000015560208201518160010190805190602001906134de929190615731565b5060408201518160020190805190602001906134fb929190615731565b506060820151816003019080519060200190613518929190615731565b506080820151816004019080519060200190613535929190615731565b50905050600b600081548092919060010191905055505050505050565b6060600360008381526020019081526020016000206004018054600181600116156101000203166002900480601f0160208091040260200160405190810160405280929190818152602001828054600181600116156101000203166002900480156135fe5780601f106135d3576101008083540402835291602001916135fe565b820191906000526020600020905b8154815290600101906020018083116135e157829003601f168201915b50505050509050919050565b60606000808381526020019081526020016000206001018054600181600116156101000203166002900480601f0160208091040260200160405190810160405280929190818152602001828054600181600116156101000203166002900480156136b55780601f1061368a576101008083540402835291602001916136b5565b820191906000526020600020905b81548152906001019060200180831161369857829003601f168201915b50505050509050919050565b6000600854905090565b6000806000838152602001908152602001600020600601549050919050565b6040518060e0016040528088815260200187815260200186815260200185815260200184815260200183815260200182815250600160006009548152602001908152602001600020600082015181600001556020820151816001019080519060200190613758929190615731565b506040820151816002019080519060200190613775929190615731565b5060608201518160030155608082015181600401908051906020019061379c929190615731565b5060a08201518160050190805190602001906137b9929190615731565b5060c0820151816006015590505060096000815480929190600101919050555050505050505050565b600060608060608060036000878152602001908152602001600020600001546003600088815260200190815260200160002060010160036000898152602001908152602001600020600201600360008a8152602001908152602001600020600301600360008b8152602001908152602001600020600401838054600181600116156101000203166002900480601f0160208091040260200160405190810160405280929190818152602001828054600181600116156101000203166002900480156138ee5780601f106138c3576101008083540402835291602001916138ee565b820191906000526020600020905b8154815290600101906020018083116138d157829003601f168201915b50505050509350828054600181600116156101000203166002900480601f01602080910402602001604051908101604052809291908181526020018280546001816001161561010002031660029004801561398a5780601f1061395f5761010080835404028352916020019161398a565b820191906000526020600020905b81548152906001019060200180831161396d57829003601f168201915b50505050509250818054600181600116156101000203166002900480601f016020809104026020016040519081016040528092919081815260200182805460018160011615610100020316600290048015613a265780601f106139fb57610100808354040283529160200191613a26565b820191906000526020600020905b815481529060010190602001808311613a0957829003601f168201915b50505050509150808054600181600116156101000203166002900480601f016020809104026020016040519081016040528092919081815260200182805460018160011615610100020316600290048015613ac25780601f10613a9757610100808354040283529160200191613ac2565b820191906000526020600020905b815481529060010190602001808311613aa557829003601f168201915b505050505090509450945094509450945091939590929450565b6000806000838152602001908152602001600020600701549050919050565b60606005805480602002602001604051908101604052809291908181526020018280548015613b7f57602002820191906000526020600020905b8160009054906101000a900473ffffffffffffffffffffffffffffffffffffffff1673ffffffffffffffffffffffffffffffffffffffff1681526020019060010190808311613b35575b5050505050905090565b6000600b54905090565b600060036000838152602001908152602001600020600001549050919050565b6060600260008381526020019081526020016000206002018054600181600116156101000203166002900480601f016020809104026020016040519081016040528092919081815260200182805460018160011615610100020316600290048015613c5f5780601f10613c3457610100808354040283529160200191613c5f565b820191906000526020600020905b815481529060010190602001808311613c4257829003601f168201915b50505050509050919050565b6040518061010001604052806008548152602001888152602001878152602001868152602001858152602001848152602001838152602001828152506000806008548152602001908152602001600020600082015181600001556020820151816001019080519060200190613ce1929190615731565b506040820151816002019080519060200190613cfe929190615731565b506060820151816003019080519060200190613d1b929190615731565b506080820151816004019080519060200190613d38929190615731565b5060a0820151816005019080519060200190613d55929190615731565b5060c0820151816006015560e0820151816007015590505060086000815480929190600101919050555050505050505050565b600060026000838152602001908152602001600020600101549050919050565b6002602052806000526040600020600091509050806000018054600181600116156101000203166002900480601f016020809104026020016040519081016040528092919081815260200182805460018160011615610100020316600290048015613e545780601f10613e2957610100808354040283529160200191613e54565b820191906000526020600020905b815481529060010190602001808311613e3757829003601f168201915b505050505090806001015490806002018054600181600116156101000203166002900480601f016020809104026020016040519081016040528092919081815260200182805460018160011615610100020316600290048015613ef85780601f10613ecd57610100808354040283529160200191613ef8565b820191906000526020600020905b815481529060010190602001808311613edb57829003601f168201915b505050505090806003015490806004018054600181600116156101000203166002900480601f016020809104026020016040519081016040528092919081815260200182805460018160011615610100020316600290048015613f9c5780601f10613f7157610100808354040283529160200191613f9c565b820191906000526020600020905b815481529060010190602001808311613f7f57829003601f168201915b505050505090806005018054600181600116156101000203166002900480601f01602080910402602001604051908101604052809291908181526020018280546001816001161561010002031660029004801561403a5780601f1061400f5761010080835404028352916020019161403a565b820191906000526020600020905b81548152906001019060200180831161401d57829003601f168201915b5050505050908060060154905087565b6060600360008381526020019081526020016000206001018054600181600116156101000203166002900480601f0160208091040260200160405190810160405280929190818152602001828054600181600116156101000203166002900480156140f65780601f106140cb576101008083540402835291602001916140f6565b820191906000526020600020905b8154815290600101906020018083116140d957829003601f168201915b50505050509050919050565b6060600780548060200260200160405190810160405280929190818152602001828054801561418657602002820191906000526020600020905b8160009054906101000a900473ffffffffffffffffffffffffffffffffffffffff1673ffffffffffffffffffffffffffffffffffffffff168152602001906001019080831161413c575b5050505050905090565b6000600c54905090565b600781815481106141a757fe5b906000526020600020016000915054906101000a900473ffffffffffffffffffffffffffffffffffffffff1681565b6001602052806000526040600020600091509050806000015490806001018054600181600116156101000203166002900480601f0160208091040260200160405190810160405280929190818152602001828054600181600116156101000203166002900480156142885780601f1061425d57610100808354040283529160200191614288565b820191906000526020600020905b81548152906001019060200180831161426b57829003601f168201915b505050505090806002018054600181600116156101000203166002900480601f0160208091040260200160405190810160405280929190818152602001828054600181600116156101000203166002900480156143265780601f106142fb57610100808354040283529160200191614326565b820191906000526020600020905b81548152906001019060200180831161430957829003601f168201915b505050505090806003015490806004018054600181600116156101000203166002900480601f0160208091040260200160405190810160405280929190818152602001828054600181600116156101000203166002900480156143ca5780601f1061439f576101008083540402835291602001916143ca565b820191906000526020600020905b8154815290600101906020018083116143ad57829003601f168201915b505050505090806005018054600181600116156101000203166002900480601f0160208091040260200160405190810160405280929190818152602001828054600181600116156101000203166002900480156144685780601f1061443d57610100808354040283529160200191614468565b820191906000526020600020905b81548152906001019060200180831161444b57829003601f168201915b5050505050908060060154905087565b6000806000905060005b60085482101561486e57614543886000808581526020019081526020016000206001018054600181600116156101000203166002900480601f0160208091040260200160405190810160405280929190818152602001828054600181600116156101000203166002900480156145395780601f1061450e57610100808354040283529160200191614539565b820191906000526020600020905b81548152906001019060200180831161451c57829003601f168201915b5050505050615631565b80156146025750614601876000808581526020019081526020016000206002018054600181600116156101000203166002900480601f0160208091040260200160405190810160405280929190818152602001828054600181600116156101000203166002900480156145f75780601f106145cc576101008083540402835291602001916145f7565b820191906000526020600020905b8154815290600101906020018083116145da57829003601f168201915b5050505050615631565b5b80156146c157506146c0866000808581526020019081526020016000206003018054600181600116156101000203166002900480601f0160208091040260200160405190810160405280929190818152602001828054600181600116156101000203166002900480156146b65780601f1061468b576101008083540402835291602001916146b6565b820191906000526020600020905b81548152906001019060200180831161469957829003601f168201915b5050505050615631565b5b8015614780575061477f856000808581526020019081526020016000206004018054600181600116156101000203166002900480601f0160208091040260200160405190810160405280929190818152602001828054600181600116156101000203166002900480156147755780601f1061474a57610100808354040283529160200191614775565b820191906000526020600020905b81548152906001019060200180831161475857829003601f168201915b5050505050615631565b5b801561483f575061483e846000808581526020019081526020016000206005018054600181600116156101000203166002900480601f0160208091040260200160405190810160405280929190818152602001828054600181600116156101000203166002900480156148345780601f1061480957610100808354040283529160200191614834565b820191906000526020600020905b81548152906001019060200180831161481757829003601f168201915b5050505050615631565b5b156148615760008083815260200190815260200160002060000154905061486e565b8180600101925050614482565b809250505095945050505050565b6040518060e001604052808881526020018781526020018681526020018581526020018481526020018381526020018281525060026000600a54815260200190815260200160002060008201518160000190805190602001906148e0929190615731565b50602082015181600101556040820151816002019080519060200190614907929190615731565b5060608201518160030155608082015181600401908051906020019061492e929190615731565b5060a082015181600501908051906020019061494b929190615731565b5060c08201518160060155905050600a6000815480929190600101919050555050505050505050565b60606000808381526020019081526020016000206005018054600181600116156101000203166002900480601f016020809104026020016040519081016040528092919081815260200182805460018160011615610100020316600290048015614a1f5780601f106149f457610100808354040283529160200191614a1f565b820191906000526020600020905b815481529060010190602001808311614a0257829003601f168201915b50505050509050919050565b6060600360008381526020019081526020016000206003018054600181600116156101000203166002900480601f016020809104026020016040519081016040528092919081815260200182805460018160011615610100020316600290048015614ad75780601f10614aac57610100808354040283529160200191614ad7565b820191906000526020600020905b815481529060010190602001808311614aba57829003601f168201915b50505050509050919050565b6060600260008381526020019081526020016000206000018054600181600116156101000203166002900480601f016020809104026020016040519081016040528092919081815260200182805460018160011615610100020316600290048015614b8f5780601f10614b6457610100808354040283529160200191614b8f565b820191906000526020600020905b815481529060010190602001808311614b7257829003601f168201915b50505050509050919050565b6003602052806000526040600020600091509050806000015490806001018054600181600116156101000203166002900480601f016020809104026020016040519081016040528092919081815260200182805460018160011615610100020316600290048015614c4d5780601f10614c2257610100808354040283529160200191614c4d565b820191906000526020600020905b815481529060010190602001808311614c3057829003601f168201915b505050505090806002018054600181600116156101000203166002900480601f016020809104026020016040519081016040528092919081815260200182805460018160011615610100020316600290048015614ceb5780601f10614cc057610100808354040283529160200191614ceb565b820191906000526020600020905b815481529060010190602001808311614cce57829003601f168201915b505050505090806003018054600181600116156101000203166002900480601f016020809104026020016040519081016040528092919081815260200182805460018160011615610100020316600290048015614d895780601f10614d5e57610100808354040283529160200191614d89565b820191906000526020600020905b815481529060010190602001808311614d6c57829003601f168201915b505050505090806004018054600181600116156101000203166002900480601f016020809104026020016040519081016040528092919081815260200182805460018160011615610100020316600290048015614e275780601f10614dfc57610100808354040283529160200191614e27565b820191906000526020600020905b815481529060010190602001808311614e0a57829003601f168201915b5050505050905085565b6060600260008381526020019081526020016000206004018054600181600116156101000203166002900480601f016020809104026020016040519081016040528092919081815260200182805460018160011615610100020316600290048015614edd5780601f10614eb257610100808354040283529160200191614edd565b820191906000526020600020905b815481529060010190602001808311614ec057829003601f168201915b50505050509050919050565b60606006805480602002602001604051908101604052809291908181526020018280548015614f6d57602002820191906000526020600020905b8160009054906101000a900473ffffffffffffffffffffffffffffffffffffffff1673ffffffffffffffffffffffffffffffffffffffff1681526020019060010190808311614f23575b5050505050905090565b6000600a54905090565b6060600360008381526020019081526020016000206002018054600181600116156101000203166002900480601f01602080910402602001604051908101604052809291908181526020018280546001816001161561010002031660029004801561502d5780601f106150025761010080835404028352916020019161502d565b820191906000526020600020905b81548152906001019060200180831161501057829003601f168201915b50505050509050919050565b6060600260008381526020019081526020016000206005018054600181600116156101000203166002900480601f0160208091040260200160405190810160405280929190818152602001828054600181600116156101000203166002900480156150e55780601f106150ba576101008083540402835291602001916150e5565b820191906000526020600020905b8154815290600101906020018083116150c857829003601f168201915b50505050509050919050565b6060600060606000606080600060026000898152602001908152602001600020600001600260008a815260200190815260200160002060010154600260008b8152602001908152602001600020600201600260008c815260200190815260200160002060030154600260008d8152602001908152602001600020600401600260008e8152602001908152602001600020600501600260008f815260200190815260200160002060060154868054600181600116156101000203166002900480601f0160208091040260200160405190810160405280929190818152602001828054600181600116156101000203166002900480156152305780601f1061520557610100808354040283529160200191615230565b820191906000526020600020905b81548152906001019060200180831161521357829003601f168201915b50505050509650848054600181600116156101000203166002900480601f0160208091040260200160405190810160405280929190818152602001828054600181600116156101000203166002900480156152cc5780601f106152a1576101008083540402835291602001916152cc565b820191906000526020600020905b8154815290600101906020018083116152af57829003601f168201915b50505050509450828054600181600116156101000203166002900480601f0160208091040260200160405190810160405280929190818152602001828054600181600116156101000203166002900480156153685780601f1061533d57610100808354040283529160200191615368565b820191906000526020600020905b81548152906001019060200180831161534b57829003601f168201915b50505050509250818054600181600116156101000203166002900480601f0160208091040260200160405190810160405280929190818152602001828054600181600116156101000203166002900480156154045780601f106153d957610100808354040283529160200191615404565b820191906000526020600020905b8154815290600101906020018083116153e757829003601f168201915b505050505091509650965096509650965096509650919395979092949650565b81600080858152602001908152602001600020600601819055508060008085815260200190815260200160002060070181905550505050565b60606000808381526020019081526020016000206003018054600181600116156101000203166002900480601f0160208091040260200160405190810160405280929190818152602001828054600181600116156101000203166002900480156155085780601f106154dd57610100808354040283529160200191615508565b820191906000526020600020905b8154815290600101906020018083116154eb57829003601f168201915b50505050509050919050565b6000600954905090565b6006818154811061552b57fe5b906000526020600020016000915054906101000a900473ffffffffffffffffffffffffffffffffffffffff1681565b600060026000838152602001908152602001600020600301549050919050565b60606000808381526020019081526020016000206002018054600181600116156101000203166002900480601f0160208091040260200160405190810160405280929190818152602001828054600181600116156101000203166002900480156156255780601f106155fa57610100808354040283529160200191615625565b820191906000526020600020905b81548152906001019060200180831161560857829003601f168201915b50505050509050919050565b6000816040516020018082805190602001908083835b6020831061566a5780518252602082019150602081019050602083039250615647565b6001836020036101000a03801982511681845116808217855250505050505090500191505060405160208183030381529060405280519060200120836040516020018082805190602001908083835b602083106156dc57805182526020820191506020810190506020830392506156b9565b6001836020036101000a038019825116818451168082178552505050505050905001915050604051602081830303815290604052805190602001201415615726576001905061572b565b600090505b92915050565b828054600181600116156101000203166002900490600052602060002090601f016020900481019282601f1061577257805160ff19168380011785556157a0565b828001600101855582156157a0579182015b8281111561579f578251825591602001919060010190615784565b5b5090506157ad91906157b1565b5090565b6157d391905b808211156157cf5760008160009055506001016157b7565b5090565b9056fea265627a7a723158204a38186a52072ce35871628a503c4827da6362fad549b6483dc3d929a03dcaec64736f6c63430005100032",
  "source": "// SPDX-License-Identifier: MIT\r\npragma solidity >=0.4.22 <0.9.0;\r\n\r\ncontract Land {\r\n    // structs\r\n    struct Deed {\r\n        // deed instance variables\r\n        uint deedId;\r\n        string no;\r\n        string streetName;\r\n        string city;\r\n        string district;\r\n        string province;\r\n        uint assignedLawyerId; // to link the relevant lawyer to the deed\r\n        uint assignedSellerId; // to link the relevant seller to the deed\r\n    }\r\n\r\n    struct Buyer{\r\n        // Buyer instance variables\r\n       uint id;\r\n       string nic;\r\n       string name;\r\n       uint age;\r\n       string city;\r\n       string email; \r\n       uint telephoneNumber;\r\n    }\r\n\r\n    struct Lawyer{\r\n        // Lawyer instance variables\r\n        uint lawyerId;\r\n        string lawyerName;\r\n        string lawyernic;\r\n        string lawyerRegNo;\r\n        string lawyerEmail;\r\n    }\r\n\r\n    struct Seller {\r\n        // Seller instance variables\r\n        string name;\r\n\t\tuint id;\r\n\t\tstring nic;\r\n        uint age;\r\n        string city;\r\n\t\tstring email;\r\n        uint telephoneNumber;\r\n    }\r\n\r\n    struct Admin {\r\n        // Admin instance variables\r\n        uint id;\r\n    }\r\n\r\n    // mappings\r\n    mapping(uint => Deed) public deeds;\r\n    mapping(uint => Buyer) public Buyersmapping;\r\n    mapping(uint => Seller) public sellersMapping;\r\n    mapping(uint => Lawyer) public Lawyersmapping;\r\n    mapping(uint => Admin) public adminMapping;\r\n    \r\n    //arrays\r\n    address[] public Buyerlist;\r\n    address[] public sellerList;\r\n    address[] public lawyerList;\r\n\r\n    // Count tracking variables\r\n    uint private deedCount = 0;\r\n    uint private buyersCount = 0;\r\n    uint private sellersCount = 0;\r\n    uint private lawyerCount=0;\r\n    uint private adminCount = 0;\r\n\r\n    // getter for deed count\r\n    function getDeedCount() public view returns (uint) {\r\n        return deedCount;\r\n    }\r\n\r\n    // getter for buyer count\r\n    function getBuyersCount() public view returns(uint){\r\n        return buyersCount;\r\n    }\r\n\r\n    // getter for lawyer count\r\n    function getLawyerCount() public view returns(uint){\r\n        return lawyerCount;\r\n    }\r\n\r\n    // getter for seller count\r\n    function getSellersCount() public view returns(uint){\r\n        return sellersCount;\r\n    }\r\n\r\n    // getter for admin count\r\n    function getAdminCount() public view returns(uint){\r\n        return adminCount;\r\n    }\r\n\r\n    //getters for Deed struct\r\n    function getDeedId(uint index) public view returns (uint) {\r\n        return deeds[index].deedId;\r\n    }\r\n\r\n    function getDeedNo(uint index) public view returns (string memory) {\r\n        return deeds[index].no;\r\n    }\r\n\r\n    function getDeedStreetName(uint index) public view returns (string memory) {\r\n        return deeds[index].streetName;\r\n    }\r\n\r\n    function getDeedCity(uint index) public view returns (string memory) {\r\n        return deeds[index].city;\r\n    }\r\n\r\n    function getDeedDistrict(uint index) public view returns (string memory) {\r\n        return deeds[index].district;\r\n    }\r\n\r\n    function getDeedProvince(uint index) public view returns (string memory) {\r\n        return deeds[index].province;\r\n    }\r\n\r\n    function getLawyerIdOfDeed(uint index) public view returns (uint) {\r\n        return deeds[index].assignedLawyerId;\r\n    }\r\n\r\n    function getSellerIdOfDeed(uint index) public view returns (uint) {\r\n        return deeds[index].assignedSellerId;\r\n    }\r\n\r\n    // function to compare strings\r\n    function compareStrings(string memory s1, string memory s2) private pure returns (bool) {\r\n        if (keccak256(abi.encodePacked(s1)) == keccak256(abi.encodePacked(s2)))\r\n        {\r\n            return true;\r\n        }\r\n        else \r\n        {\r\n            return false;\r\n        }\r\n    }\r\n\r\n    // function to get the deed by the land address for searching purposes\r\n    function findDeedByAddress(string memory _no, string memory _streetName, string memory _city, string memory _district, string memory _province) public view returns (uint) {\r\n        uint i = 0;\r\n        uint returningDeedId;\r\n        while (i < deedCount)\r\n        {\r\n            if (compareStrings(_no, deeds[i].no) && compareStrings(_streetName, deeds[i].streetName) && compareStrings(_city, deeds[i].city) && compareStrings(_district, deeds[i].district) && compareStrings(_province, deeds[i].province))\r\n            {\r\n                returningDeedId = deeds[i].deedId;\r\n                break;\r\n            }\r\n            i++;\r\n        }\r\n        return returningDeedId;\r\n    }\r\n\r\n    // function to change land deed buyer and seller\r\n    function changeDeedBuyerAndSeller(uint _deedId, uint _assignedLawyerId, uint _assignedSellerId) public {\r\n        \r\n        deeds[_deedId].assignedLawyerId = _assignedLawyerId;\r\n        deeds[_deedId].assignedSellerId = _assignedSellerId;\r\n    }\r\n\r\n    //getter for the Buyerlist array\r\n    function getBuyer() public view returns( address [] memory){\r\n        return(Buyerlist);\r\n    }\r\n\r\n    //getter for the seller list array\r\n    function getSeller() public view returns( address [] memory){\r\n        return(sellerList);\r\n    }\r\n\r\n    //getter for the lawyerList array\r\n    function getLawyer() public view returns( address [] memory){\r\n        return(lawyerList);\r\n    }\r\n\r\n    // function to add a new deed to the deeds mapping\r\n    function addNewDeed(string memory _no, string memory _streetName, string memory _city, string memory _district, string memory _province, uint _assignedLawyerId, uint _assignedSellerId) public {\r\n        deeds[deedCount] = Deed(deedCount, _no, _streetName, _city, _district, _province, _assignedLawyerId, _assignedSellerId);\r\n        deedCount++;\r\n    }\r\n\r\n    //function to register new Buyer\r\n    function registerBuyer(uint _id, string memory _nic, string memory _name, uint _age, string memory _city, string memory _email, uint _telephoneNumber) public {\r\n        Buyersmapping[buyersCount] = Buyer(_id, _nic,  _name, _age, _city, _email, _telephoneNumber);\r\n        buyersCount++;\r\n\r\n    }\r\n\r\n    //function to register a seller\r\n    function registerSeller(string memory _name, uint _id, string memory _nic, uint _age, string memory _city, string memory _email, uint _telephoneNumber) public {\r\n        sellersMapping[sellersCount] = Seller(_name, _id, _nic, _age, _city, _email, _telephoneNumber);\r\n        sellersCount++;\r\n\r\n    }\r\n\r\n    //function to register a new Lawyer\r\n    function registerLawyer(uint _lawyerId, string memory _lawyerName, string memory _lawyernic, string memory _lawyerRegNo, string memory _lawyerEmail) public {\r\n        Lawyersmapping[lawyerCount] = Lawyer(_lawyerId, _lawyerName, _lawyernic, _lawyerRegNo, _lawyerEmail);\r\n        lawyerCount++;\r\n    }\r\n\r\n    //function to display buyer details\r\n    function displayBuyer(uint index) public view returns (uint _id, string memory _nic, string memory _name, uint _age, string memory _city, string memory _email, uint _telephoneNumber){\r\n        return(Buyersmapping[index].id, Buyersmapping[index].nic,Buyersmapping[index].name,Buyersmapping[index].age,Buyersmapping[index].city,Buyersmapping[index].email,Buyersmapping[index].telephoneNumber);\r\n\r\n    } \r\n\r\n    //function to display seller details\r\n    function displaySeller(uint index) public view returns (string memory _name, uint _id, string memory _nic, uint _age, string memory _city, string memory _email, uint _telephoneNumber){\r\n        return(sellersMapping[index].name, sellersMapping[index].id, sellersMapping[index].nic, sellersMapping[index].age, sellersMapping[index].city, sellersMapping[index].email, sellersMapping[index].telephoneNumber);\r\n    }\r\n\r\n    //function to add admin\r\n    function addAdmin() private {\r\n        adminCount++;\r\n        adminMapping[adminCount] = Admin(adminCount);\r\n    }\r\n    \r\n    //function to display lawyer details\r\n    function displayLawyer(uint index) public view returns (uint _lawyerId, string memory _lawyerName, string memory _lawyernic, string memory _lawyerRegNo, string memory _lawyerEmail){\r\n        return(Lawyersmapping[index].lawyerId, Lawyersmapping[index].lawyerName, Lawyersmapping[index].lawyernic, Lawyersmapping[index].lawyerRegNo, Lawyersmapping[index].lawyerEmail);\r\n    }\r\n\r\n    // function to get the lawyer id\r\n    function getLawyerId(uint index) public view returns (uint) {\r\n        return Lawyersmapping[index].lawyerId;\r\n    }\r\n\r\n    // function to get the lawyer name\r\n    function getLawyerName(uint index) public view returns (string memory) {\r\n        return Lawyersmapping[index].lawyerName;\r\n    }\r\n\r\n    // function to get the lawyer nic\r\n    function getLawyerNic(uint index) public view returns (string memory) {\r\n        return Lawyersmapping[index].lawyernic;\r\n    }\r\n\r\n    // function to get the lawyer reg no\r\n    function getLawyerRegNo(uint index) public view returns (string memory) {\r\n        return Lawyersmapping[index].lawyerRegNo;\r\n    }\r\n\r\n    // function to get the lawyer email\r\n    function getLawyerEmail(uint index) public view returns (string memory) {\r\n        return Lawyersmapping[index].lawyerEmail;\r\n    }\r\n\r\n    // function to get the seller id\r\n    function getSellerId(uint index) public view returns (uint) {\r\n        return sellersMapping[index].id;\r\n    }\r\n\r\n    // function to get the seller name\r\n    function getSellerName(uint index) public view returns (string memory) {\r\n        return sellersMapping[index].name;\r\n    }\r\n\r\n    // function to get the seller nic\r\n    function getSellerNic(uint index) public view returns (string memory) {\r\n        return sellersMapping[index].nic;\r\n    }\r\n\r\n    // function to get the seller age\r\n    function getSellerAge(uint index) public view returns (uint) {\r\n        return sellersMapping[index].age;\r\n    }\r\n\r\n    // function to get the seller city\r\n    function getSellerCity(uint index) public view returns (string memory) {\r\n        return sellersMapping[index].city;\r\n    }\r\n\r\n    // function to get the seller email\r\n    function getSellerEmail(uint index) public view returns (string memory) {\r\n        return sellersMapping[index].email;\r\n    }\r\n\r\n    // function to get the seller telephonenumber\r\n    function getSellerTelephoneNo(uint index) public view returns (uint) {\r\n        return sellersMapping[index].telephoneNumber;\r\n    }\r\n}\r\n",
  "sourcePath": "C:\\GitHubRepos\\GitHub\\DBLOCK\\frontEnd\\LandFrontEnd\\contracts\\Land.sol",
  "compiler": {
    "name": "solc",
    "version": "0.5.16+commit.9c3226ce.Emscripten.clang"
  },
  "schemaVersion": "3.4.3",
  "updatedAt": "2022-03-08T08:06:51.753Z",
  "networkType": "ethereum",
  "devdoc": {
    "methods": {}
  },
  "userdoc": {
    "methods": {}
  }
}