{
  "contractName": "Land",
  "abi": [
    {
      "inputs": [],
      "payable": false,
      "stateMutability": "nonpayable",
      "type": "constructor"
    },
    {
      "constant": true,
      "inputs": [
        {
          "internalType": "uint256",
          "name": "",
          "type": "uint256"
        }
      ],
      "name": "Lawyersmapping",
      "outputs": [
        {
          "internalType": "uint256",
          "name": "lawyerId",
          "type": "uint256"
        },
        {
          "internalType": "string",
          "name": "lawyerName",
          "type": "string"
        },
        {
          "internalType": "string",
          "name": "lawyernic",
          "type": "string"
        },
        {
          "internalType": "string",
          "name": "lawyerRegNo",
          "type": "string"
        },
        {
          "internalType": "string",
          "name": "lawyerEmail",
          "type": "string"
        },
        {
          "internalType": "uint256",
          "name": "lawyerTelephoneNumber",
          "type": "uint256"
        }
      ],
      "payable": false,
      "stateMutability": "view",
      "type": "function"
    },
    {
      "constant": true,
      "inputs": [
        {
          "internalType": "uint256",
          "name": "",
          "type": "uint256"
        }
      ],
      "name": "adminMapping",
      "outputs": [
        {
          "internalType": "uint256",
          "name": "id",
          "type": "uint256"
        },
        {
          "internalType": "string",
          "name": "adminPassword",
          "type": "string"
        }
      ],
      "payable": false,
      "stateMutability": "view",
      "type": "function"
    },
    {
      "constant": true,
      "inputs": [
        {
          "internalType": "uint256",
          "name": "",
          "type": "uint256"
        }
      ],
      "name": "deeds",
      "outputs": [
        {
          "internalType": "uint256",
          "name": "deedId",
          "type": "uint256"
        },
        {
          "internalType": "string",
          "name": "ipfsHash",
          "type": "string"
        },
        {
          "internalType": "string",
          "name": "no",
          "type": "string"
        },
        {
          "internalType": "string",
          "name": "streetName",
          "type": "string"
        },
        {
          "internalType": "string",
          "name": "city",
          "type": "string"
        },
        {
          "internalType": "string",
          "name": "district",
          "type": "string"
        },
        {
          "internalType": "string",
          "name": "province",
          "type": "string"
        },
        {
          "internalType": "uint256",
          "name": "assignedLawyerId",
          "type": "uint256"
        },
        {
          "internalType": "uint256",
          "name": "assignedSellerId",
          "type": "uint256"
        }
      ],
      "payable": false,
      "stateMutability": "view",
      "type": "function"
    },
    {
      "constant": true,
      "inputs": [
        {
          "internalType": "uint256",
          "name": "",
          "type": "uint256"
        }
      ],
      "name": "deedsVersionHistory",
      "outputs": [
        {
          "internalType": "uint256",
          "name": "deedIdLink",
          "type": "uint256"
        },
        {
          "internalType": "uint256",
          "name": "oldLawyerId",
          "type": "uint256"
        },
        {
          "internalType": "uint256",
          "name": "oldSellerId",
          "type": "uint256"
        },
        {
          "internalType": "string",
          "name": "dateStamp",
          "type": "string"
        },
        {
          "internalType": "string",
          "name": "timeStamp",
          "type": "string"
        }
      ],
      "payable": false,
      "stateMutability": "view",
      "type": "function"
    },
    {
      "constant": true,
      "inputs": [
        {
          "internalType": "uint256",
          "name": "",
          "type": "uint256"
        }
      ],
      "name": "sellersMapping",
      "outputs": [
        {
          "internalType": "string",
          "name": "name",
          "type": "string"
        },
        {
          "internalType": "uint256",
          "name": "id",
          "type": "uint256"
        },
        {
          "internalType": "string",
          "name": "nic",
          "type": "string"
        },
        {
          "internalType": "uint256",
          "name": "age",
          "type": "uint256"
        },
        {
          "internalType": "string",
          "name": "city",
          "type": "string"
        },
        {
          "internalType": "string",
          "name": "email",
          "type": "string"
        },
        {
          "internalType": "uint256",
          "name": "telephoneNumber",
          "type": "uint256"
        },
        {
          "internalType": "string",
          "name": "password",
          "type": "string"
        }
      ],
      "payable": false,
      "stateMutability": "view",
      "type": "function"
    },
    {
      "constant": true,
      "inputs": [
        {
          "internalType": "uint256",
          "name": "index",
          "type": "uint256"
        }
      ],
      "name": "getHashFromDeed",
      "outputs": [
        {
          "internalType": "string",
          "name": "",
          "type": "string"
        }
      ],
      "payable": false,
      "stateMutability": "view",
      "type": "function"
    },
    {
      "constant": false,
      "inputs": [
        {
          "internalType": "uint256",
          "name": "deedId",
          "type": "uint256"
        },
        {
          "internalType": "string",
          "name": "x",
          "type": "string"
        }
      ],
      "name": "sendHash",
      "outputs": [],
      "payable": false,
      "stateMutability": "nonpayable",
      "type": "function"
    },
    {
      "constant": true,
      "inputs": [],
      "name": "getDeedCount",
      "outputs": [
        {
          "internalType": "uint256",
          "name": "",
          "type": "uint256"
        }
      ],
      "payable": false,
      "stateMutability": "view",
      "type": "function"
    },
    {
      "constant": true,
      "inputs": [],
      "name": "getLawyerCount",
      "outputs": [
        {
          "internalType": "uint256",
          "name": "",
          "type": "uint256"
        }
      ],
      "payable": false,
      "stateMutability": "view",
      "type": "function"
    },
    {
      "constant": true,
      "inputs": [],
      "name": "getSellersCount",
      "outputs": [
        {
          "internalType": "uint256",
          "name": "",
          "type": "uint256"
        }
      ],
      "payable": false,
      "stateMutability": "view",
      "type": "function"
    },
    {
      "constant": true,
      "inputs": [],
      "name": "getAdminCount",
      "outputs": [
        {
          "internalType": "uint256",
          "name": "",
          "type": "uint256"
        }
      ],
      "payable": false,
      "stateMutability": "view",
      "type": "function"
    },
    {
      "constant": true,
      "inputs": [
        {
          "internalType": "uint256",
          "name": "index",
          "type": "uint256"
        }
      ],
      "name": "getDeedId",
      "outputs": [
        {
          "internalType": "uint256",
          "name": "",
          "type": "uint256"
        }
      ],
      "payable": false,
      "stateMutability": "view",
      "type": "function"
    },
    {
      "constant": true,
      "inputs": [
        {
          "internalType": "uint256",
          "name": "index",
          "type": "uint256"
        }
      ],
      "name": "getDeedNo",
      "outputs": [
        {
          "internalType": "string",
          "name": "",
          "type": "string"
        }
      ],
      "payable": false,
      "stateMutability": "view",
      "type": "function"
    },
    {
      "constant": true,
      "inputs": [
        {
          "internalType": "uint256",
          "name": "index",
          "type": "uint256"
        }
      ],
      "name": "getDeedStreetName",
      "outputs": [
        {
          "internalType": "string",
          "name": "",
          "type": "string"
        }
      ],
      "payable": false,
      "stateMutability": "view",
      "type": "function"
    },
    {
      "constant": true,
      "inputs": [
        {
          "internalType": "uint256",
          "name": "index",
          "type": "uint256"
        }
      ],
      "name": "getDeedCity",
      "outputs": [
        {
          "internalType": "string",
          "name": "",
          "type": "string"
        }
      ],
      "payable": false,
      "stateMutability": "view",
      "type": "function"
    },
    {
      "constant": true,
      "inputs": [
        {
          "internalType": "uint256",
          "name": "index",
          "type": "uint256"
        }
      ],
      "name": "getDeedDistrict",
      "outputs": [
        {
          "internalType": "string",
          "name": "",
          "type": "string"
        }
      ],
      "payable": false,
      "stateMutability": "view",
      "type": "function"
    },
    {
      "constant": true,
      "inputs": [
        {
          "internalType": "uint256",
          "name": "index",
          "type": "uint256"
        }
      ],
      "name": "getDeedProvince",
      "outputs": [
        {
          "internalType": "string",
          "name": "",
          "type": "string"
        }
      ],
      "payable": false,
      "stateMutability": "view",
      "type": "function"
    },
    {
      "constant": true,
      "inputs": [
        {
          "internalType": "uint256",
          "name": "index",
          "type": "uint256"
        }
      ],
      "name": "getLawyerIdOfDeed",
      "outputs": [
        {
          "internalType": "uint256",
          "name": "",
          "type": "uint256"
        }
      ],
      "payable": false,
      "stateMutability": "view",
      "type": "function"
    },
    {
      "constant": true,
      "inputs": [
        {
          "internalType": "uint256",
          "name": "index",
          "type": "uint256"
        }
      ],
      "name": "getSellerIdOfDeed",
      "outputs": [
        {
          "internalType": "uint256",
          "name": "",
          "type": "uint256"
        }
      ],
      "payable": false,
      "stateMutability": "view",
      "type": "function"
    },
    {
      "constant": true,
      "inputs": [
        {
          "internalType": "string",
          "name": "_no",
          "type": "string"
        },
        {
          "internalType": "string",
          "name": "_streetName",
          "type": "string"
        },
        {
          "internalType": "string",
          "name": "_city",
          "type": "string"
        },
        {
          "internalType": "string",
          "name": "_district",
          "type": "string"
        },
        {
          "internalType": "string",
          "name": "_province",
          "type": "string"
        }
      ],
      "name": "findDeedByAddress",
      "outputs": [
        {
          "internalType": "int256",
          "name": "",
          "type": "int256"
        }
      ],
      "payable": false,
      "stateMutability": "view",
      "type": "function"
    },
    {
      "constant": true,
      "inputs": [
        {
          "internalType": "string",
          "name": "_email",
          "type": "string"
        }
      ],
      "name": "findLawyerByEmail",
      "outputs": [
        {
          "internalType": "int256",
          "name": "",
          "type": "int256"
        }
      ],
      "payable": false,
      "stateMutability": "view",
      "type": "function"
    },
    {
      "constant": true,
      "inputs": [
        {
          "internalType": "string",
          "name": "_email",
          "type": "string"
        }
      ],
      "name": "findSellerByEmail",
      "outputs": [
        {
          "internalType": "int256",
          "name": "",
          "type": "int256"
        }
      ],
      "payable": false,
      "stateMutability": "view",
      "type": "function"
    },
    {
      "constant": false,
      "inputs": [
        {
          "internalType": "uint256",
          "name": "_deedId",
          "type": "uint256"
        },
        {
          "internalType": "uint256",
          "name": "_assignedLawyerId",
          "type": "uint256"
        },
        {
          "internalType": "uint256",
          "name": "_assignedSellerId",
          "type": "uint256"
        },
        {
          "internalType": "string",
          "name": "_dateStamp",
          "type": "string"
        },
        {
          "internalType": "string",
          "name": "_timeStamp",
          "type": "string"
        }
      ],
      "name": "changeDeedLawyerAndSeller",
      "outputs": [],
      "payable": false,
      "stateMutability": "nonpayable",
      "type": "function"
    },
    {
      "constant": false,
      "inputs": [
        {
          "internalType": "string",
          "name": "_no",
          "type": "string"
        },
        {
          "internalType": "string",
          "name": "_streetName",
          "type": "string"
        },
        {
          "internalType": "string",
          "name": "_city",
          "type": "string"
        },
        {
          "internalType": "string",
          "name": "_district",
          "type": "string"
        },
        {
          "internalType": "string",
          "name": "_province",
          "type": "string"
        },
        {
          "internalType": "uint256",
          "name": "_assignedLawyerId",
          "type": "uint256"
        },
        {
          "internalType": "uint256",
          "name": "_assignedSellerId",
          "type": "uint256"
        }
      ],
      "name": "addNewDeed",
      "outputs": [],
      "payable": false,
      "stateMutability": "nonpayable",
      "type": "function"
    },
    {
      "constant": false,
      "inputs": [
        {
          "internalType": "string",
          "name": "_name",
          "type": "string"
        },
        {
          "internalType": "string",
          "name": "_nic",
          "type": "string"
        },
        {
          "internalType": "uint256",
          "name": "_age",
          "type": "uint256"
        },
        {
          "internalType": "string",
          "name": "_city",
          "type": "string"
        },
        {
          "internalType": "string",
          "name": "_email",
          "type": "string"
        },
        {
          "internalType": "uint256",
          "name": "_telephoneNumber",
          "type": "uint256"
        },
        {
          "internalType": "string",
          "name": "_password",
          "type": "string"
        }
      ],
      "name": "registerSeller",
      "outputs": [],
      "payable": false,
      "stateMutability": "nonpayable",
      "type": "function"
    },
    {
      "constant": false,
      "inputs": [
        {
          "internalType": "string",
          "name": "_lawyerName",
          "type": "string"
        },
        {
          "internalType": "string",
          "name": "_lawyernic",
          "type": "string"
        },
        {
          "internalType": "string",
          "name": "_lawyerRegNo",
          "type": "string"
        },
        {
          "internalType": "string",
          "name": "_lawyerEmail",
          "type": "string"
        },
        {
          "internalType": "uint256",
          "name": "_lawyerTelephoneNumber",
          "type": "uint256"
        }
      ],
      "name": "registerLawyer",
      "outputs": [],
      "payable": false,
      "stateMutability": "nonpayable",
      "type": "function"
    },
    {
      "constant": true,
      "inputs": [
        {
          "internalType": "uint256",
          "name": "index",
          "type": "uint256"
        }
      ],
      "name": "getLawyerId",
      "outputs": [
        {
          "internalType": "uint256",
          "name": "",
          "type": "uint256"
        }
      ],
      "payable": false,
      "stateMutability": "view",
      "type": "function"
    },
    {
      "constant": true,
      "inputs": [
        {
          "internalType": "uint256",
          "name": "index",
          "type": "uint256"
        }
      ],
      "name": "getLawyerName",
      "outputs": [
        {
          "internalType": "string",
          "name": "",
          "type": "string"
        }
      ],
      "payable": false,
      "stateMutability": "view",
      "type": "function"
    },
    {
      "constant": true,
      "inputs": [
        {
          "internalType": "uint256",
          "name": "index",
          "type": "uint256"
        }
      ],
      "name": "getLawyerNic",
      "outputs": [
        {
          "internalType": "string",
          "name": "",
          "type": "string"
        }
      ],
      "payable": false,
      "stateMutability": "view",
      "type": "function"
    },
    {
      "constant": true,
      "inputs": [
        {
          "internalType": "uint256",
          "name": "index",
          "type": "uint256"
        }
      ],
      "name": "getLawyerRegNo",
      "outputs": [
        {
          "internalType": "string",
          "name": "",
          "type": "string"
        }
      ],
      "payable": false,
      "stateMutability": "view",
      "type": "function"
    },
    {
      "constant": true,
      "inputs": [
        {
          "internalType": "uint256",
          "name": "index",
          "type": "uint256"
        }
      ],
      "name": "getLawyerEmail",
      "outputs": [
        {
          "internalType": "string",
          "name": "",
          "type": "string"
        }
      ],
      "payable": false,
      "stateMutability": "view",
      "type": "function"
    },
    {
      "constant": true,
      "inputs": [
        {
          "internalType": "uint256",
          "name": "index",
          "type": "uint256"
        }
      ],
      "name": "getLawyerTelephoneNumber",
      "outputs": [
        {
          "internalType": "uint256",
          "name": "",
          "type": "uint256"
        }
      ],
      "payable": false,
      "stateMutability": "view",
      "type": "function"
    },
    {
      "constant": true,
      "inputs": [
        {
          "internalType": "uint256",
          "name": "index",
          "type": "uint256"
        }
      ],
      "name": "getSellerId",
      "outputs": [
        {
          "internalType": "uint256",
          "name": "",
          "type": "uint256"
        }
      ],
      "payable": false,
      "stateMutability": "view",
      "type": "function"
    },
    {
      "constant": true,
      "inputs": [
        {
          "internalType": "uint256",
          "name": "index",
          "type": "uint256"
        }
      ],
      "name": "getSellerName",
      "outputs": [
        {
          "internalType": "string",
          "name": "",
          "type": "string"
        }
      ],
      "payable": false,
      "stateMutability": "view",
      "type": "function"
    },
    {
      "constant": true,
      "inputs": [
        {
          "internalType": "uint256",
          "name": "index",
          "type": "uint256"
        }
      ],
      "name": "getSellerNic",
      "outputs": [
        {
          "internalType": "string",
          "name": "",
          "type": "string"
        }
      ],
      "payable": false,
      "stateMutability": "view",
      "type": "function"
    },
    {
      "constant": true,
      "inputs": [
        {
          "internalType": "uint256",
          "name": "index",
          "type": "uint256"
        }
      ],
      "name": "getSellerAge",
      "outputs": [
        {
          "internalType": "uint256",
          "name": "",
          "type": "uint256"
        }
      ],
      "payable": false,
      "stateMutability": "view",
      "type": "function"
    },
    {
      "constant": true,
      "inputs": [
        {
          "internalType": "uint256",
          "name": "index",
          "type": "uint256"
        }
      ],
      "name": "getSellerCity",
      "outputs": [
        {
          "internalType": "string",
          "name": "",
          "type": "string"
        }
      ],
      "payable": false,
      "stateMutability": "view",
      "type": "function"
    },
    {
      "constant": true,
      "inputs": [
        {
          "internalType": "uint256",
          "name": "index",
          "type": "uint256"
        }
      ],
      "name": "getSellerEmail",
      "outputs": [
        {
          "internalType": "string",
          "name": "",
          "type": "string"
        }
      ],
      "payable": false,
      "stateMutability": "view",
      "type": "function"
    },
    {
      "constant": true,
      "inputs": [
        {
          "internalType": "uint256",
          "name": "index",
          "type": "uint256"
        }
      ],
      "name": "getSellerTelephoneNo",
      "outputs": [
        {
          "internalType": "uint256",
          "name": "",
          "type": "uint256"
        }
      ],
      "payable": false,
      "stateMutability": "view",
      "type": "function"
    },
    {
      "constant": true,
      "inputs": [],
      "name": "getAdminId",
      "outputs": [
        {
          "internalType": "uint256",
          "name": "",
          "type": "uint256"
        }
      ],
      "payable": false,
      "stateMutability": "view",
      "type": "function"
    },
    {
      "constant": true,
      "inputs": [],
      "name": "getAdminPassword",
      "outputs": [
        {
          "internalType": "string",
          "name": "",
          "type": "string"
        }
      ],
      "payable": false,
      "stateMutability": "view",
      "type": "function"
    },
    {
      "constant": true,
      "inputs": [
        {
          "internalType": "uint256",
          "name": "frontendCounter",
          "type": "uint256"
        }
      ],
      "name": "getDeedIdFromHistory",
      "outputs": [
        {
          "internalType": "uint256",
          "name": "",
          "type": "uint256"
        }
      ],
      "payable": false,
      "stateMutability": "view",
      "type": "function"
    },
    {
      "constant": true,
      "inputs": [
        {
          "internalType": "uint256",
          "name": "frontendCounter",
          "type": "uint256"
        }
      ],
      "name": "getOldLawyerIdFromHistory",
      "outputs": [
        {
          "internalType": "uint256",
          "name": "",
          "type": "uint256"
        }
      ],
      "payable": false,
      "stateMutability": "view",
      "type": "function"
    },
    {
      "constant": true,
      "inputs": [
        {
          "internalType": "uint256",
          "name": "frontendCounter",
          "type": "uint256"
        }
      ],
      "name": "getOldSellerIdFromHistory",
      "outputs": [
        {
          "internalType": "uint256",
          "name": "",
          "type": "uint256"
        }
      ],
      "payable": false,
      "stateMutability": "view",
      "type": "function"
    },
    {
      "constant": true,
      "inputs": [
        {
          "internalType": "uint256",
          "name": "frontendCounter",
          "type": "uint256"
        }
      ],
      "name": "getDateStampFromHistory",
      "outputs": [
        {
          "internalType": "string",
          "name": "",
          "type": "string"
        }
      ],
      "payable": false,
      "stateMutability": "view",
      "type": "function"
    },
    {
      "constant": true,
      "inputs": [
        {
          "internalType": "uint256",
          "name": "frontendCounter",
          "type": "uint256"
        }
      ],
      "name": "getTimeStampFromHistory",
      "outputs": [
        {
          "internalType": "string",
          "name": "",
          "type": "string"
        }
      ],
      "payable": false,
      "stateMutability": "view",
      "type": "function"
    },
    {
      "constant": true,
      "inputs": [],
      "name": "getHistoryCount",
      "outputs": [
        {
          "internalType": "uint256",
          "name": "",
          "type": "uint256"
        }
      ],
      "payable": false,
      "stateMutability": "view",
      "type": "function"
    }
  ],
  "bytecode": "0x6080604052600060055560006006556000600755600060085560006009553480156200002a57600080fd5b50604051806040016040528060095481526020016040518060400160405280600381526020017f3132330000000000000000000000000000000000000000000000000000000000815250815250600460006009548152602001908152602001600020600082015181600001556020820151816001019080519060200190620000b4929190620000d0565b509050506009600081548092919060010191905055506200017f565b828054600181600116156101000203166002900490600052602060002090601f016020900481019282601f106200011357805160ff191683800117855562000144565b8280016001018555821562000144579182015b828111156200014357825182559160200191906001019062000126565b5b50905062000153919062000157565b5090565b6200017c91905b80821115620001785760008160009055506001016200015e565b5090565b90565b615158806200018f6000396000f3fe608060405234801561001057600080fd5b50600436106102955760003560e01c80637e45aa2511610167578063bbdad593116100ce578063dd9d122d11610087578063dd9d122d1461270c578063df0a1c2a1461272a578063e084ada1146127d1578063f0b93af914612878578063f8a386051461291f578063ffb434fb1461296157610295565b8063bbdad59314611fb3578063bc3de01f146120db578063bd7949751461211d578063cff0c7c0146121e2578063d26abb1a146123db578063d96b0a551461266557610295565b8063a18861a311610120578063a18861a314611cb3578063a4cbf3e314611cd1578063a998593814611d13578063aca5577314611d96578063b432183214611e3d578063b998b87c14611ee457610295565b80637e45aa25146114d35780637ea1449f1461157a57806389bed521146115985780638b7bf3eb146118c35780639614681b146118e15780639cd681f514611c0c57610295565b8063334bb7451161020b578063655dc4c2116101c4578063655dc4c214610df35780636c218b1714610e1157806370ffbdd214610e53578063721fa41814610efa57806374cfe475146112255780637c6eb1031461126757610295565b8063334bb74514610a6b57806335a82e7214610a895780634244992f14610acb5780634461383014610b725780634dc971ae14610c415780635dd5679814610db157610295565b806318edf5641161025d57806318edf564146105135780631a084961146107eb57806321eb5a7c1461082d57806328bcb418146108db57806330c9fb481461091d57806332a67853146109c457610295565b806301ed90fb1461029a57806305624d35146103415780630cc543b6146103e85780630df7ec241461042a578063188a93791461046c575b600080fd5b6102c6600480360360208110156102b057600080fd5b8101908080359060200190929190505050612a08565b6040518080602001828103825283818151815260200191508051906020019080838360005b838110156103065780820151818401526020810190506102eb565b50505050905090810190601f1680156103335780820380516001836020036101000a031916815260200191505b509250505060405180910390f35b61036d6004803603602081101561035757600080fd5b8101908080359060200190929190505050612ac0565b6040518080602001828103825283818151815260200191508051906020019080838360005b838110156103ad578082015181840152602081019050610392565b50505050905090810190601f1680156103da5780820380516001836020036101000a031916815260200191505b509250505060405180910390f35b610414600480360360208110156103fe57600080fd5b8101908080359060200190929190505050612b77565b6040518082815260200191505060405180910390f35b6104566004803603602081101561044057600080fd5b8101908080359060200190929190505050612b97565b6040518082815260200191505060405180910390f35b6104986004803603602081101561048257600080fd5b8101908080359060200190929190505050612bb6565b6040518080602001828103825283818151815260200191508051906020019080838360005b838110156104d85780820151818401526020810190506104bd565b50505050905090810190601f1680156105055780820380516001836020036101000a031916815260200191505b509250505060405180910390f35b61053f6004803603602081101561052957600080fd5b8101908080359060200190929190505050612c6d565b604051808a815260200180602001806020018060200180602001806020018060200189815260200188815260200187810387528f818151815260200191508051906020019080838360005b838110156105a557808201518184015260208101905061058a565b50505050905090810190601f1680156105d25780820380516001836020036101000a031916815260200191505b5087810386528e818151815260200191508051906020019080838360005b8381101561060b5780820151818401526020810190506105f0565b50505050905090810190601f1680156106385780820380516001836020036101000a031916815260200191505b5087810385528d818151815260200191508051906020019080838360005b83811015610671578082015181840152602081019050610656565b50505050905090810190601f16801561069e5780820380516001836020036101000a031916815260200191505b5087810384528c818151815260200191508051906020019080838360005b838110156106d75780820151818401526020810190506106bc565b50505050905090810190601f1680156107045780820380516001836020036101000a031916815260200191505b5087810383528b818151815260200191508051906020019080838360005b8381101561073d578082015181840152602081019050610722565b50505050905090810190601f16801561076a5780820380516001836020036101000a031916815260200191505b5087810382528a818151815260200191508051906020019080838360005b838110156107a3578082015181840152602081019050610788565b50505050905090810190601f1680156107d05780820380516001836020036101000a031916815260200191505b509f5050505050505050505050505050505060405180910390f35b6108176004803603602081101561080157600080fd5b810190808035906020019092919050505061304b565b6040518082815260200191505060405180910390f35b6108596004803603602081101561084357600080fd5b810190808035906020019092919050505061306b565b6040518083815260200180602001828103825283818151815260200191508051906020019080838360005b8381101561089f578082015181840152602081019050610884565b50505050905090810190601f1680156108cc5780820380516001836020036101000a031916815260200191505b50935050505060405180910390f35b610907600480360360208110156108f157600080fd5b8101908080359060200190929190505050613127565b6040518082815260200191505060405180910390f35b6109496004803603602081101561093357600080fd5b8101908080359060200190929190505050613147565b6040518080602001828103825283818151815260200191508051906020019080838360005b8381101561098957808201518184015260208101905061096e565b50505050905090810190601f1680156109b65780820380516001836020036101000a031916815260200191505b509250505060405180910390f35b6109f0600480360360208110156109da57600080fd5b81019080803590602001909291905050506131ff565b6040518080602001828103825283818151815260200191508051906020019080838360005b83811015610a30578082015181840152602081019050610a15565b50505050905090810190601f168015610a5d5780820380516001836020036101000a031916815260200191505b509250505060405180910390f35b610a736132b6565b6040518082815260200191505060405180910390f35b610ab560048036036020811015610a9f57600080fd5b81019080803590602001909291905050506132c0565b6040518082815260200191505060405180910390f35b610af760048036036020811015610ae157600080fd5b81019080803590602001909291905050506132df565b6040518080602001828103825283818151815260200191508051906020019080838360005b83811015610b37578082015181840152602081019050610b1c565b50505050905090810190601f168015610b645780820380516001836020036101000a031916815260200191505b509250505060405180910390f35b610c2b60048036036020811015610b8857600080fd5b8101908080359060200190640100000000811115610ba557600080fd5b820183602082011115610bb757600080fd5b80359060200191846001830284011164010000000083111715610bd957600080fd5b91908080601f016020809104026020016040519081016040528093929190818152602001838380828437600081840152601f19601f820116905080830192505050505050509192919290505050613397565b6040518082815260200191505060405180910390f35b610daf600480360360a0811015610c5757600080fd5b8101908080359060200190929190803590602001909291908035906020019092919080359060200190640100000000811115610c9257600080fd5b820183602082011115610ca457600080fd5b80359060200191846001830284011164010000000083111715610cc657600080fd5b91908080601f016020809104026020016040519081016040528093929190818152602001838380828437600081840152601f19601f82011690508083019250505050505050919291929080359060200190640100000000811115610d2957600080fd5b820183602082011115610d3b57600080fd5b80359060200191846001830284011164010000000083111715610d5d57600080fd5b91908080601f016020809104026020016040519081016040528093929190818152602001838380828437600081840152601f19601f8201169050808301925050505050505091929192905050506134c0565b005b610ddd60048036036020811015610dc757600080fd5b81019080803590602001909291905050506135da565b6040518082815260200191505060405180910390f35b610dfb6135f9565b6040518082815260200191505060405180910390f35b610e3d60048036036020811015610e2757600080fd5b8101908080359060200190929190505050613603565b6040518082815260200191505060405180910390f35b610e7f60048036036020811015610e6957600080fd5b8101908080359060200190929190505050613623565b6040518080602001828103825283818151815260200191508051906020019080838360005b83811015610ebf578082015181840152602081019050610ea4565b50505050905090810190601f168015610eec5780820380516001836020036101000a031916815260200191505b509250505060405180910390f35b611223600480360360e0811015610f1057600080fd5b8101908080359060200190640100000000811115610f2d57600080fd5b820183602082011115610f3f57600080fd5b80359060200191846001830284011164010000000083111715610f6157600080fd5b91908080601f016020809104026020016040519081016040528093929190818152602001838380828437600081840152601f19601f82011690508083019250505050505050919291929080359060200190640100000000811115610fc457600080fd5b820183602082011115610fd657600080fd5b80359060200191846001830284011164010000000083111715610ff857600080fd5b91908080601f016020809104026020016040519081016040528093929190818152602001838380828437600081840152601f19601f8201169050808301925050505050505091929192908035906020019064010000000081111561105b57600080fd5b82018360208201111561106d57600080fd5b8035906020019184600183028401116401000000008311171561108f57600080fd5b91908080601f016020809104026020016040519081016040528093929190818152602001838380828437600081840152601f19601f820116905080830192505050505050509192919290803590602001906401000000008111156110f257600080fd5b82018360208201111561110457600080fd5b8035906020019184600183028401116401000000008311171561112657600080fd5b91908080601f016020809104026020016040519081016040528093929190818152602001838380828437600081840152601f19601f8201169050808301925050505050505091929192908035906020019064010000000081111561118957600080fd5b82018360208201111561119b57600080fd5b803590602001918460018302840111640100000000831117156111bd57600080fd5b91908080601f016020809104026020016040519081016040528093929190818152602001838380828437600081840152601f19601f82011690508083019250505050505050919291929080359060200190929190803590602001909291905050506136db565b005b6112516004803603602081101561123b57600080fd5b8101908080359060200190929190505050613851565b6040518082815260200191505060405180910390f35b6112936004803603602081101561127d57600080fd5b8101908080359060200190929190505050613871565b60405180806020018981526020018060200188815260200180602001806020018781526020018060200186810386528e818151815260200191508051906020019080838360005b838110156112f55780820151818401526020810190506112da565b50505050905090810190601f1680156113225780820380516001836020036101000a031916815260200191505b5086810385528c818151815260200191508051906020019080838360005b8381101561135b578082015181840152602081019050611340565b50505050905090810190601f1680156113885780820380516001836020036101000a031916815260200191505b5086810384528a818151815260200191508051906020019080838360005b838110156113c15780820151818401526020810190506113a6565b50505050905090810190601f1680156113ee5780820380516001836020036101000a031916815260200191505b50868103835289818151815260200191508051906020019080838360005b8381101561142757808201518184015260208101905061140c565b50505050905090810190601f1680156114545780820380516001836020036101000a031916815260200191505b50868103825287818151815260200191508051906020019080838360005b8381101561148d578082015181840152602081019050611472565b50505050905090810190601f1680156114ba5780820380516001836020036101000a031916815260200191505b509d505050505050505050505050505060405180910390f35b6114ff600480360360208110156114e957600080fd5b8101908080359060200190929190505050613bb1565b6040518080602001828103825283818151815260200191508051906020019080838360005b8381101561153f578082015181840152602081019050611524565b50505050905090810190601f16801561156c5780820380516001836020036101000a031916815260200191505b509250505060405180910390f35b611582613c69565b6040518082815260200191505060405180910390f35b6118c1600480360360e08110156115ae57600080fd5b81019080803590602001906401000000008111156115cb57600080fd5b8201836020820111156115dd57600080fd5b803590602001918460018302840111640100000000831117156115ff57600080fd5b91908080601f016020809104026020016040519081016040528093929190818152602001838380828437600081840152601f19601f8201169050808301925050505050505091929192908035906020019064010000000081111561166257600080fd5b82018360208201111561167457600080fd5b8035906020019184600183028401116401000000008311171561169657600080fd5b91908080601f016020809104026020016040519081016040528093929190818152602001838380828437600081840152601f19601f820116905080830192505050505050509192919290803590602001909291908035906020019064010000000081111561170357600080fd5b82018360208201111561171557600080fd5b8035906020019184600183028401116401000000008311171561173757600080fd5b91908080601f016020809104026020016040519081016040528093929190818152602001838380828437600081840152601f19601f8201169050808301925050505050505091929192908035906020019064010000000081111561179a57600080fd5b8201836020820111156117ac57600080fd5b803590602001918460018302840111640100000000831117156117ce57600080fd5b91908080601f016020809104026020016040519081016040528093929190818152602001838380828437600081840152601f19601f820116905080830192505050505050509192919290803590602001909291908035906020019064010000000081111561183b57600080fd5b82018360208201111561184d57600080fd5b8035906020019184600183028401116401000000008311171561186f57600080fd5b91908080601f016020809104026020016040519081016040528093929190818152602001838380828437600081840152601f19601f820116905080830192505050505050509192919290505050613c87565b005b6118cb613da5565b6040518082815260200191505060405180910390f35b611bf6600480360360a08110156118f757600080fd5b810190808035906020019064010000000081111561191457600080fd5b82018360208201111561192657600080fd5b8035906020019184600183028401116401000000008311171561194857600080fd5b91908080601f016020809104026020016040519081016040528093929190818152602001838380828437600081840152601f19601f820116905080830192505050505050509192919290803590602001906401000000008111156119ab57600080fd5b8201836020820111156119bd57600080fd5b803590602001918460018302840111640100000000831117156119df57600080fd5b91908080601f016020809104026020016040519081016040528093929190818152602001838380828437600081840152601f19601f82011690508083019250505050505050919291929080359060200190640100000000811115611a4257600080fd5b820183602082011115611a5457600080fd5b80359060200191846001830284011164010000000083111715611a7657600080fd5b91908080601f016020809104026020016040519081016040528093929190818152602001838380828437600081840152601f19601f82011690508083019250505050505050919291929080359060200190640100000000811115611ad957600080fd5b820183602082011115611aeb57600080fd5b80359060200191846001830284011164010000000083111715611b0d57600080fd5b91908080601f016020809104026020016040519081016040528093929190818152602001838380828437600081840152601f19601f82011690508083019250505050505050919291929080359060200190640100000000811115611b7057600080fd5b820183602082011115611b8257600080fd5b80359060200191846001830284011164010000000083111715611ba457600080fd5b91908080601f016020809104026020016040519081016040528093929190818152602001838380828437600081840152601f19601f820116905080830192505050505050509192919290505050613daf565b6040518082815260200191505060405180910390f35b611c3860048036036020811015611c2257600080fd5b81019080803590602001909291905050506141d6565b6040518080602001828103825283818151815260200191508051906020019080838360005b83811015611c78578082015181840152602081019050611c5d565b50505050905090810190601f168015611ca55780820380516001836020036101000a031916815260200191505b509250505060405180910390f35b611cbb61428d565b6040518082815260200191505060405180910390f35b611cfd60048036036020811015611ce757600080fd5b8101908080359060200190929190505050614297565b6040518082815260200191505060405180910390f35b611d1b6142b7565b6040518080602001828103825283818151815260200191508051906020019080838360005b83811015611d5b578082015181840152602081019050611d40565b50505050905090810190601f168015611d885780820380516001836020036101000a031916815260200191505b509250505060405180910390f35b611dc260048036036020811015611dac57600080fd5b810190808035906020019092919050505061436d565b6040518080602001828103825283818151815260200191508051906020019080838360005b83811015611e02578082015181840152602081019050611de7565b50505050905090810190601f168015611e2f5780820380516001836020036101000a031916815260200191505b509250505060405180910390f35b611e6960048036036020811015611e5357600080fd5b8101908080359060200190929190505050614425565b6040518080602001828103825283818151815260200191508051906020019080838360005b83811015611ea9578082015181840152602081019050611e8e565b50505050905090810190601f168015611ed65780820380516001836020036101000a031916815260200191505b509250505060405180910390f35b611f9d60048036036020811015611efa57600080fd5b8101908080359060200190640100000000811115611f1757600080fd5b820183602082011115611f2957600080fd5b80359060200191846001830284011164010000000083111715611f4b57600080fd5b91908080601f016020809104026020016040519081016040528093929190818152602001838380828437600081840152601f19601f8201169050808301925050505050505091929192905050506144dd565b6040518082815260200191505060405180910390f35b611fdf60048036036020811015611fc957600080fd5b8101908080359060200190929190505050614606565b604051808681526020018581526020018481526020018060200180602001838103835285818151815260200191508051906020019080838360005b8381101561203557808201518184015260208101905061201a565b50505050905090810190601f1680156120625780820380516001836020036101000a031916815260200191505b50838103825284818151815260200191508051906020019080838360005b8381101561209b578082015181840152602081019050612080565b50505050905090810190601f1680156120c85780820380516001836020036101000a031916815260200191505b5097505050505050505060405180910390f35b612107600480360360208110156120f157600080fd5b810190808035906020019092919050505061476c565b6040518082815260200191505060405180910390f35b6121e06004803603604081101561213357600080fd5b81019080803590602001909291908035906020019064010000000081111561215a57600080fd5b82018360208201111561216c57600080fd5b8035906020019184600183028401116401000000008311171561218e57600080fd5b91908080601f016020809104026020016040519081016040528093929190818152602001838380828437600081840152601f19601f82011690508083019250505050505050919291929050505061478c565b005b61220e600480360360208110156121f857600080fd5b81019080803590602001909291905050506147ba565b604051808781526020018060200180602001806020018060200186815260200185810385528a818151815260200191508051906020019080838360005b8381101561226657808201518184015260208101905061224b565b50505050905090810190601f1680156122935780820380516001836020036101000a031916815260200191505b50858103845289818151815260200191508051906020019080838360005b838110156122cc5780820151818401526020810190506122b1565b50505050905090810190601f1680156122f95780820380516001836020036101000a031916815260200191505b50858103835288818151815260200191508051906020019080838360005b83811015612332578082015181840152602081019050612317565b50505050905090810190601f16801561235f5780820380516001836020036101000a031916815260200191505b50858103825287818151815260200191508051906020019080838360005b8381101561239857808201518184015260208101905061237d565b50505050905090810190601f1680156123c55780820380516001836020036101000a031916815260200191505b509a505050505050505050505060405180910390f35b612663600480360360a08110156123f157600080fd5b810190808035906020019064010000000081111561240e57600080fd5b82018360208201111561242057600080fd5b8035906020019184600183028401116401000000008311171561244257600080fd5b91908080601f016020809104026020016040519081016040528093929190818152602001838380828437600081840152601f19601f820116905080830192505050505050509192919290803590602001906401000000008111156124a557600080fd5b8201836020820111156124b757600080fd5b803590602001918460018302840111640100000000831117156124d957600080fd5b91908080601f016020809104026020016040519081016040528093929190818152602001838380828437600081840152601f19601f8201169050808301925050505050505091929192908035906020019064010000000081111561253c57600080fd5b82018360208201111561254e57600080fd5b8035906020019184600183028401116401000000008311171561257057600080fd5b91908080601f016020809104026020016040519081016040528093929190818152602001838380828437600081840152601f19601f820116905080830192505050505050509192919290803590602001906401000000008111156125d357600080fd5b8201836020820111156125e557600080fd5b8035906020019184600183028401116401000000008311171561260757600080fd5b91908080601f016020809104026020016040519081016040528093929190818152602001838380828437600081840152601f19601f82011690508083019250505050505050919291929080359060200190929190505050614a56565b005b6126916004803603602081101561267b57600080fd5b8101908080359060200190929190505050614b3e565b6040518080602001828103825283818151815260200191508051906020019080838360005b838110156126d15780820151818401526020810190506126b6565b50505050905090810190601f1680156126fe5780820380516001836020036101000a031916815260200191505b509250505060405180910390f35b612714614bf6565b6040518082815260200191505060405180910390f35b6127566004803603602081101561274057600080fd5b8101908080359060200190929190505050614c00565b6040518080602001828103825283818151815260200191508051906020019080838360005b8381101561279657808201518184015260208101905061277b565b50505050905090810190601f1680156127c35780820380516001836020036101000a031916815260200191505b509250505060405180910390f35b6127fd600480360360208110156127e757600080fd5b8101908080359060200190929190505050614cb8565b6040518080602001828103825283818151815260200191508051906020019080838360005b8381101561283d578082015181840152602081019050612822565b50505050905090810190601f16801561286a5780820380516001836020036101000a031916815260200191505b509250505060405180910390f35b6128a46004803603602081101561288e57600080fd5b8101908080359060200190929190505050614d70565b6040518080602001828103825283818151815260200191508051906020019080838360005b838110156128e45780820151818401526020810190506128c9565b50505050905090810190601f1680156129115780820380516001836020036101000a031916815260200191505b509250505060405180910390f35b61294b6004803603602081101561293557600080fd5b8101908080359060200190929190505050614e27565b6040518082815260200191505060405180910390f35b61298d6004803603602081101561297757600080fd5b8101908080359060200190929190505050614e47565b6040518080602001828103825283818151815260200191508051906020019080838360005b838110156129cd5780820151818401526020810190506129b2565b50505050905090810190601f1680156129fa5780820380516001836020036101000a031916815260200191505b509250505060405180910390f35b6060600160008381526020019081526020016000206003018054600181600116156101000203166002900480601f016020809104026020016040519081016040528092919081815260200182805460018160011615610100020316600290048015612ab45780601f10612a8957610100808354040283529160200191612ab4565b820191906000526020600020905b815481529060010190602001808311612a9757829003601f168201915b50505050509050919050565b60606000808381526020019081526020016000206005018054600181600116156101000203166002900480601f016020809104026020016040519081016040528092919081815260200182805460018160011615610100020316600290048015612b6b5780601f10612b4057610100808354040283529160200191612b6b565b820191906000526020600020905b815481529060010190602001808311612b4e57829003601f168201915b50505050509050919050565b600060026000838152602001908152602001600020600601549050919050565b6000806000838152602001908152602001600020600001549050919050565b60606000808381526020019081526020016000206001018054600181600116156101000203166002900480601f016020809104026020016040519081016040528092919081815260200182805460018160011615610100020316600290048015612c615780601f10612c3657610100808354040283529160200191612c61565b820191906000526020600020905b815481529060010190602001808311612c4457829003601f168201915b50505050509050919050565b6000602052806000526040600020600091509050806000015490806001018054600181600116156101000203166002900480601f016020809104026020016040519081016040528092919081815260200182805460018160011615610100020316600290048015612d1f5780601f10612cf457610100808354040283529160200191612d1f565b820191906000526020600020905b815481529060010190602001808311612d0257829003601f168201915b505050505090806002018054600181600116156101000203166002900480601f016020809104026020016040519081016040528092919081815260200182805460018160011615610100020316600290048015612dbd5780601f10612d9257610100808354040283529160200191612dbd565b820191906000526020600020905b815481529060010190602001808311612da057829003601f168201915b505050505090806003018054600181600116156101000203166002900480601f016020809104026020016040519081016040528092919081815260200182805460018160011615610100020316600290048015612e5b5780601f10612e3057610100808354040283529160200191612e5b565b820191906000526020600020905b815481529060010190602001808311612e3e57829003601f168201915b505050505090806004018054600181600116156101000203166002900480601f016020809104026020016040519081016040528092919081815260200182805460018160011615610100020316600290048015612ef95780601f10612ece57610100808354040283529160200191612ef9565b820191906000526020600020905b815481529060010190602001808311612edc57829003601f168201915b505050505090806005018054600181600116156101000203166002900480601f016020809104026020016040519081016040528092919081815260200182805460018160011615610100020316600290048015612f975780601f10612f6c57610100808354040283529160200191612f97565b820191906000526020600020905b815481529060010190602001808311612f7a57829003601f168201915b505050505090806006018054600181600116156101000203166002900480601f0160208091040260200160405190810160405280929190818152602001828054600181600116156101000203166002900480156130355780601f1061300a57610100808354040283529160200191613035565b820191906000526020600020905b81548152906001019060200180831161301857829003601f168201915b5050505050908060070154908060080154905089565b600060016000838152602001908152602001600020600001549050919050565b6004602052806000526040600020600091509050806000015490806001018054600181600116156101000203166002900480601f01602080910402602001604051908101604052809291908181526020018280546001816001161561010002031660029004801561311d5780601f106130f25761010080835404028352916020019161311d565b820191906000526020600020905b81548152906001019060200180831161310057829003601f168201915b5050505050905082565b600060016000838152602001908152602001600020600201549050919050565b6060600360008381526020019081526020016000206004018054600181600116156101000203166002900480601f0160208091040260200160405190810160405280929190818152602001828054600181600116156101000203166002900480156131f35780601f106131c8576101008083540402835291602001916131f3565b820191906000526020600020905b8154815290600101906020018083116131d657829003601f168201915b50505050509050919050565b60606000808381526020019081526020016000206002018054600181600116156101000203166002900480601f0160208091040260200160405190810160405280929190818152602001828054600181600116156101000203166002900480156132aa5780601f1061327f576101008083540402835291602001916132aa565b820191906000526020600020905b81548152906001019060200180831161328d57829003601f168201915b50505050509050919050565b6000600554905090565b6000806000838152602001908152602001600020600701549050919050565b6060600160008381526020019081526020016000206004018054600181600116156101000203166002900480601f01602080910402602001604051908101604052809291908181526020018280546001816001161561010002031660029004801561338b5780601f106133605761010080835404028352916020019161338b565b820191906000526020600020905b81548152906001019060200180831161336e57829003601f168201915b50505050509050919050565b6000806000905060007fffffffffffffffffffffffffffffffffffffffffffffffffffffffffffffffff90505b6007548210156134b65761348684600260008581526020019081526020016000206005018054600181600116156101000203166002900480601f01602080910402602001604051908101604052809291908181526020018280546001816001161561010002031660029004801561347c5780601f106134515761010080835404028352916020019161347c565b820191906000526020600020905b81548152906001019060200180831161345f57829003601f168201915b5050505050614efe565b156134a957600260008381526020019081526020016000206001015490506134b6565b81806001019250506133c4565b8092505050919050565b600080600087815260200190815260200160002060070154905060008060008881526020019081526020016000206008015490506040518060a0016040528088815260200183815260200182815260200185815260200184815250600160006006548152602001908152602001600020600082015181600001556020820151816001015560408201518160020155606082015181600301908051906020019061356a929190614ffe565b506080820151816004019080519060200190613587929190614ffe565b509050506006600081548092919060010191905055508560008089815260200190815260200160002060070181905550846000808981526020019081526020016000206008018190555050505050505050565b6000806000838152602001908152602001600020600801549050919050565b6000600854905090565b600060036000838152602001908152602001600020600001549050919050565b6060600260008381526020019081526020016000206002018054600181600116156101000203166002900480601f0160208091040260200160405190810160405280929190818152602001828054600181600116156101000203166002900480156136cf5780601f106136a4576101008083540402835291602001916136cf565b820191906000526020600020905b8154815290600101906020018083116136b257829003601f168201915b50505050509050919050565b60405180610120016040528060055481526020016040518060400160405280600781526020017f3c49504653233e00000000000000000000000000000000000000000000000000815250815260200188815260200187815260200186815260200185815260200184815260200183815260200182815250600080600554815260200190815260200160002060008201518160000155602082015181600101908051906020019061378c929190614ffe565b5060408201518160020190805190602001906137a9929190614ffe565b5060608201518160030190805190602001906137c6929190614ffe565b5060808201518160040190805190602001906137e3929190614ffe565b5060a0820151816005019080519060200190613800929190614ffe565b5060c082015181600601908051906020019061381d929190614ffe565b5060e08201518160070155610100820151816008015590505060056000815480929190600101919050555050505050505050565b600060026000838152602001908152602001600020600101549050919050565b6002602052806000526040600020600091509050806000018054600181600116156101000203166002900480601f01602080910402602001604051908101604052809291908181526020018280546001816001161561010002031660029004801561391d5780601f106138f25761010080835404028352916020019161391d565b820191906000526020600020905b81548152906001019060200180831161390057829003601f168201915b505050505090806001015490806002018054600181600116156101000203166002900480601f0160208091040260200160405190810160405280929190818152602001828054600181600116156101000203166002900480156139c15780601f10613996576101008083540402835291602001916139c1565b820191906000526020600020905b8154815290600101906020018083116139a457829003601f168201915b505050505090806003015490806004018054600181600116156101000203166002900480601f016020809104026020016040519081016040528092919081815260200182805460018160011615610100020316600290048015613a655780601f10613a3a57610100808354040283529160200191613a65565b820191906000526020600020905b815481529060010190602001808311613a4857829003601f168201915b505050505090806005018054600181600116156101000203166002900480601f016020809104026020016040519081016040528092919081815260200182805460018160011615610100020316600290048015613b035780601f10613ad857610100808354040283529160200191613b03565b820191906000526020600020905b815481529060010190602001808311613ae657829003601f168201915b505050505090806006015490806007018054600181600116156101000203166002900480601f016020809104026020016040519081016040528092919081815260200182805460018160011615610100020316600290048015613ba75780601f10613b7c57610100808354040283529160200191613ba7565b820191906000526020600020905b815481529060010190602001808311613b8a57829003601f168201915b5050505050905088565b6060600360008381526020019081526020016000206001018054600181600116156101000203166002900480601f016020809104026020016040519081016040528092919081815260200182805460018160011615610100020316600290048015613c5d5780601f10613c3257610100808354040283529160200191613c5d565b820191906000526020600020905b815481529060010190602001808311613c4057829003601f168201915b50505050509050919050565b60006004600080815260200190815260200160002060000154905090565b6040518061010001604052808881526020016007548152602001878152602001868152602001858152602001848152602001838152602001828152506002600060075481526020019081526020016000206000820151816000019080519060200190613cf4929190614ffe565b50602082015181600101556040820151816002019080519060200190613d1b929190614ffe565b50606082015181600301556080820151816004019080519060200190613d42929190614ffe565b5060a0820151816005019080519060200190613d5f929190614ffe565b5060c0820151816006015560e0820151816007019080519060200190613d86929190614ffe565b5090505060076000815480929190600101919050555050505050505050565b6000600954905090565b6000806000905060007fffffffffffffffffffffffffffffffffffffffffffffffffffffffffffffffff90505b6005548210156141c857613e9d886000808581526020019081526020016000206002018054600181600116156101000203166002900480601f016020809104026020016040519081016040528092919081815260200182805460018160011615610100020316600290048015613e935780601f10613e6857610100808354040283529160200191613e93565b820191906000526020600020905b815481529060010190602001808311613e7657829003601f168201915b5050505050614efe565b8015613f5c5750613f5b876000808581526020019081526020016000206003018054600181600116156101000203166002900480601f016020809104026020016040519081016040528092919081815260200182805460018160011615610100020316600290048015613f515780601f10613f2657610100808354040283529160200191613f51565b820191906000526020600020905b815481529060010190602001808311613f3457829003601f168201915b5050505050614efe565b5b801561401b575061401a866000808581526020019081526020016000206004018054600181600116156101000203166002900480601f0160208091040260200160405190810160405280929190818152602001828054600181600116156101000203166002900480156140105780601f10613fe557610100808354040283529160200191614010565b820191906000526020600020905b815481529060010190602001808311613ff357829003601f168201915b5050505050614efe565b5b80156140da57506140d9856000808581526020019081526020016000206005018054600181600116156101000203166002900480601f0160208091040260200160405190810160405280929190818152602001828054600181600116156101000203166002900480156140cf5780601f106140a4576101008083540402835291602001916140cf565b820191906000526020600020905b8154815290600101906020018083116140b257829003601f168201915b5050505050614efe565b5b80156141995750614198846000808581526020019081526020016000206006018054600181600116156101000203166002900480601f01602080910402602001604051908101604052809291908181526020018280546001816001161561010002031660029004801561418e5780601f106141635761010080835404028352916020019161418e565b820191906000526020600020905b81548152906001019060200180831161417157829003601f168201915b5050505050614efe565b5b156141bb576000808381526020019081526020016000206000015490506141c8565b8180600101925050613ddc565b809250505095945050505050565b60606000808381526020019081526020016000206006018054600181600116156101000203166002900480601f0160208091040260200160405190810160405280929190818152602001828054600181600116156101000203166002900480156142815780601f1061425657610100808354040283529160200191614281565b820191906000526020600020905b81548152906001019060200180831161426457829003601f168201915b50505050509050919050565b6000600654905090565b600060016000838152602001908152602001600020600101549050919050565b6060600460008081526020019081526020016000206001018054600181600116156101000203166002900480601f0160208091040260200160405190810160405280929190818152602001828054600181600116156101000203166002900480156143635780601f1061433857610100808354040283529160200191614363565b820191906000526020600020905b81548152906001019060200180831161434657829003601f168201915b5050505050905090565b6060600360008381526020019081526020016000206003018054600181600116156101000203166002900480601f0160208091040260200160405190810160405280929190818152602001828054600181600116156101000203166002900480156144195780601f106143ee57610100808354040283529160200191614419565b820191906000526020600020905b8154815290600101906020018083116143fc57829003601f168201915b50505050509050919050565b6060600260008381526020019081526020016000206000018054600181600116156101000203166002900480601f0160208091040260200160405190810160405280929190818152602001828054600181600116156101000203166002900480156144d15780601f106144a6576101008083540402835291602001916144d1565b820191906000526020600020905b8154815290600101906020018083116144b457829003601f168201915b50505050509050919050565b6000806000905060007fffffffffffffffffffffffffffffffffffffffffffffffffffffffffffffffff90505b6008548210156145fc576145cc84600360008581526020019081526020016000206004018054600181600116156101000203166002900480601f0160208091040260200160405190810160405280929190818152602001828054600181600116156101000203166002900480156145c25780601f10614597576101008083540402835291602001916145c2565b820191906000526020600020905b8154815290600101906020018083116145a557829003601f168201915b5050505050614efe565b156145ef57600360008381526020019081526020016000206000015490506145fc565b818060010192505061450a565b8092505050919050565b6001602052806000526040600020600091509050806000015490806001015490806002015490806003018054600181600116156101000203166002900480601f0160208091040260200160405190810160405280929190818152602001828054600181600116156101000203166002900480156146c45780601f10614699576101008083540402835291602001916146c4565b820191906000526020600020905b8154815290600101906020018083116146a757829003601f168201915b505050505090806004018054600181600116156101000203166002900480601f0160208091040260200160405190810160405280929190818152602001828054600181600116156101000203166002900480156147625780601f1061473757610100808354040283529160200191614762565b820191906000526020600020905b81548152906001019060200180831161474557829003601f168201915b5050505050905085565b600060036000838152602001908152602001600020600501549050919050565b8060008084815260200190815260200160002060010190805190602001906147b592919061507e565b505050565b6003602052806000526040600020600091509050806000015490806001018054600181600116156101000203166002900480601f01602080910402602001604051908101604052809291908181526020018280546001816001161561010002031660029004801561486c5780601f106148415761010080835404028352916020019161486c565b820191906000526020600020905b81548152906001019060200180831161484f57829003601f168201915b505050505090806002018054600181600116156101000203166002900480601f01602080910402602001604051908101604052809291908181526020018280546001816001161561010002031660029004801561490a5780601f106148df5761010080835404028352916020019161490a565b820191906000526020600020905b8154815290600101906020018083116148ed57829003601f168201915b505050505090806003018054600181600116156101000203166002900480601f0160208091040260200160405190810160405280929190818152602001828054600181600116156101000203166002900480156149a85780601f1061497d576101008083540402835291602001916149a8565b820191906000526020600020905b81548152906001019060200180831161498b57829003601f168201915b505050505090806004018054600181600116156101000203166002900480601f016020809104026020016040519081016040528092919081815260200182805460018160011615610100020316600290048015614a465780601f10614a1b57610100808354040283529160200191614a46565b820191906000526020600020905b815481529060010190602001808311614a2957829003601f168201915b5050505050908060050154905086565b6040518060c00160405280600854815260200186815260200185815260200184815260200183815260200182815250600360006008548152602001908152602001600020600082015181600001556020820151816001019080519060200190614ac0929190614ffe565b506040820151816002019080519060200190614add929190614ffe565b506060820151816003019080519060200190614afa929190614ffe565b506080820151816004019080519060200190614b17929190614ffe565b5060a082015181600501559050506008600081548092919060010191905055505050505050565b6060600260008381526020019081526020016000206004018054600181600116156101000203166002900480601f016020809104026020016040519081016040528092919081815260200182805460018160011615610100020316600290048015614bea5780601f10614bbf57610100808354040283529160200191614bea565b820191906000526020600020905b815481529060010190602001808311614bcd57829003601f168201915b50505050509050919050565b6000600754905090565b6060600360008381526020019081526020016000206002018054600181600116156101000203166002900480601f016020809104026020016040519081016040528092919081815260200182805460018160011615610100020316600290048015614cac5780601f10614c8157610100808354040283529160200191614cac565b820191906000526020600020905b815481529060010190602001808311614c8f57829003601f168201915b50505050509050919050565b6060600260008381526020019081526020016000206005018054600181600116156101000203166002900480601f016020809104026020016040519081016040528092919081815260200182805460018160011615610100020316600290048015614d645780601f10614d3957610100808354040283529160200191614d64565b820191906000526020600020905b815481529060010190602001808311614d4757829003601f168201915b50505050509050919050565b60606000808381526020019081526020016000206004018054600181600116156101000203166002900480601f016020809104026020016040519081016040528092919081815260200182805460018160011615610100020316600290048015614e1b5780601f10614df057610100808354040283529160200191614e1b565b820191906000526020600020905b815481529060010190602001808311614dfe57829003601f168201915b50505050509050919050565b600060026000838152602001908152602001600020600301549050919050565b60606000808381526020019081526020016000206003018054600181600116156101000203166002900480601f016020809104026020016040519081016040528092919081815260200182805460018160011615610100020316600290048015614ef25780601f10614ec757610100808354040283529160200191614ef2565b820191906000526020600020905b815481529060010190602001808311614ed557829003601f168201915b50505050509050919050565b6000816040516020018082805190602001908083835b60208310614f375780518252602082019150602081019050602083039250614f14565b6001836020036101000a03801982511681845116808217855250505050505090500191505060405160208183030381529060405280519060200120836040516020018082805190602001908083835b60208310614fa95780518252602082019150602081019050602083039250614f86565b6001836020036101000a038019825116818451168082178552505050505050905001915050604051602081830303815290604052805190602001201415614ff35760019050614ff8565b600090505b92915050565b828054600181600116156101000203166002900490600052602060002090601f016020900481019282601f1061503f57805160ff191683800117855561506d565b8280016001018555821561506d579182015b8281111561506c578251825591602001919060010190615051565b5b50905061507a91906150fe565b5090565b828054600181600116156101000203166002900490600052602060002090601f016020900481019282601f106150bf57805160ff19168380011785556150ed565b828001600101855582156150ed579182015b828111156150ec5782518255916020019190600101906150d1565b5b5090506150fa91906150fe565b5090565b61512091905b8082111561511c576000816000905550600101615104565b5090565b9056fea265627a7a723158206dab3aaadb8c40da11a256d1db2b603c9d646cc85cea76e5d780e029ba8280aa64736f6c63430005100032",
  "source": "// SPDX-License-Identifier: MIT\r\npragma solidity >=0.4.22 <0.9.0;\r\n\r\ncontract Land {\r\n    \r\n    // structs\r\n    struct LawyerIdSellerId {\r\n\r\n        uint deedIdLink; // to link the relevant deed\r\n        uint oldLawyerId;\r\n        uint oldSellerId;\r\n        string dateStamp;\r\n        string timeStamp;\r\n    }\r\n\r\n    struct Deed {\r\n        // deed instance variables\r\n        uint deedId;\r\n        string ipfsHash;\r\n        string no;\r\n        string streetName;\r\n        string city;\r\n        string district;\r\n        string province;\r\n        uint assignedLawyerId; // to link the relevant lawyer to the deed\r\n        uint assignedSellerId; // to link the relevant seller to the deed\r\n    }\r\n\r\n    struct Lawyer{\r\n        // Lawyer instance variables\r\n        uint lawyerId;\r\n        string lawyerName;\r\n        string lawyernic;\r\n        string lawyerRegNo;\r\n        string lawyerEmail;\r\n        uint lawyerTelephoneNumber;\r\n    }\r\n\r\n    struct Seller {\r\n        // Seller instance variables\r\n        string name;\r\n\t\tuint id;\r\n\t\tstring nic;\r\n        uint age;\r\n        string city;\r\n\t\tstring email;\r\n        uint telephoneNumber;\r\n        string password;\r\n    }\r\n\r\n    struct Admin {\r\n        // Admin instance variables\r\n        uint id;\r\n        string adminPassword;\r\n    }\r\n\r\n    // mappings\r\n    mapping(uint => Deed) public deeds;\r\n    mapping(uint => LawyerIdSellerId) public deedsVersionHistory;\r\n    mapping(uint => Seller) public sellersMapping;\r\n    mapping(uint => Lawyer) public Lawyersmapping;\r\n    mapping(uint => Admin) public adminMapping;\r\n    \r\n    // Count tracking variables\r\n    uint private deedCount = 0;\r\n    uint private deedsVersionHistoryCount = 0;\r\n    uint private sellersCount = 0;\r\n    uint private lawyerCount = 0;\r\n    uint private adminCount = 0;\r\n\r\n    constructor() public {\r\n        // initializing the admin\r\n        adminMapping[adminCount] = Admin(adminCount, \"123\");\r\n        adminCount++;\r\n    }    \r\n\r\n    function getHashFromDeed(uint index) public view returns (string memory) {   \r\n        return deeds[index].ipfsHash;\r\n    }\r\n\r\n    function sendHash(uint deedId, string memory x) public {\r\n        deeds[deedId].ipfsHash = x;\r\n    }     \r\n\r\n    // getter for deed count\r\n    function getDeedCount() public view returns (uint) {\r\n        return deedCount;\r\n    }\r\n\r\n    // getter for lawyer count\r\n    function getLawyerCount() public view returns(uint){\r\n        return lawyerCount;\r\n    }\r\n\r\n    // getter for seller count\r\n    function getSellersCount() public view returns(uint){\r\n        return sellersCount;\r\n    }\r\n\r\n    // getter for admin count\r\n    function getAdminCount() public view returns(uint){\r\n        return adminCount;\r\n    }\r\n\r\n    //getters for Deed struct\r\n    function getDeedId(uint index) public view returns (uint) {\r\n        return deeds[index].deedId;\r\n    }\r\n\r\n    function getDeedNo(uint index) public view returns (string memory) {\r\n        return deeds[index].no;\r\n    }\r\n\r\n    function getDeedStreetName(uint index) public view returns (string memory) {\r\n        return deeds[index].streetName;\r\n    }\r\n\r\n    function getDeedCity(uint index) public view returns (string memory) {\r\n        return deeds[index].city;\r\n    }\r\n\r\n    function getDeedDistrict(uint index) public view returns (string memory) {\r\n        return deeds[index].district;\r\n    }\r\n\r\n    function getDeedProvince(uint index) public view returns (string memory) {\r\n        return deeds[index].province;\r\n    }\r\n\r\n    function getLawyerIdOfDeed(uint index) public view returns (uint) {\r\n        return deeds[index].assignedLawyerId;\r\n    }\r\n\r\n    function getSellerIdOfDeed(uint index) public view returns (uint) {\r\n        return deeds[index].assignedSellerId;\r\n    }\r\n\r\n    // function to compare strings\r\n    function compareStrings(string memory s1, string memory s2) private pure returns (bool) {\r\n        if (keccak256(abi.encodePacked(s1)) == keccak256(abi.encodePacked(s2)))\r\n        {\r\n            return true;\r\n        }\r\n        else \r\n        {\r\n            return false;\r\n        }\r\n    }\r\n\r\n    // function to get the deed by the land address for searching purposes\r\n    function findDeedByAddress(string memory _no, string memory _streetName, string memory _city, string memory _district, string memory _province) public view returns (int) {\r\n\r\n        uint i = 0;\r\n        int returningDeedId = -1;\r\n\r\n        while (i < deedCount)\r\n        {\r\n            if (compareStrings(_no, deeds[i].no) && compareStrings(_streetName, deeds[i].streetName) && compareStrings(_city, deeds[i].city) && compareStrings(_district, deeds[i].district) && compareStrings(_province, deeds[i].province))\r\n            {\r\n                returningDeedId = int(deeds[i].deedId);\r\n                break;\r\n            }\r\n\r\n            i++;\r\n        }\r\n\r\n        return returningDeedId;\r\n    }\r\n\r\n    // function to get the lawyer by email\r\n    function findLawyerByEmail(string memory _email) public view returns (int) {\r\n\r\n        uint i = 0;\r\n        int returningLawyerId = -1;\r\n\r\n        while (i < lawyerCount)\r\n        {\r\n            if (compareStrings(_email, Lawyersmapping[i].lawyerEmail))\r\n            {\r\n                returningLawyerId = int(Lawyersmapping[i].lawyerId);\r\n                break;\r\n            }\r\n\r\n            i++;\r\n        }\r\n\r\n        return returningLawyerId;\r\n    }\r\n\r\n    //function to get the seller by email\r\n    function findSellerByEmail(string memory _email) public view returns (int) {\r\n\r\n        uint i = 0;\r\n        int returningSellerId = -1;\r\n\r\n        while (i < sellersCount)\r\n        {\r\n            if (compareStrings(_email, sellersMapping[i].email))\r\n            {\r\n                returningSellerId = int(sellersMapping[i].id);\r\n                break;\r\n            }\r\n\r\n            i++;\r\n        }\r\n\r\n        return returningSellerId;\r\n    }\r\n\r\n    // function to change land deed buyer and seller\r\n    function changeDeedLawyerAndSeller(uint _deedId, uint _assignedLawyerId, uint _assignedSellerId, string memory _dateStamp, string memory _timeStamp) public {\r\n        // saving the previous lawyer and seller in the history\r\n        uint _oldLawyerId = deeds[_deedId].assignedLawyerId;\r\n        uint _oldSellerId = deeds[_deedId].assignedSellerId;\r\n        deedsVersionHistory[deedsVersionHistoryCount] = LawyerIdSellerId(_deedId, _oldLawyerId, _oldSellerId, _dateStamp, _timeStamp);\r\n        deedsVersionHistoryCount++;\r\n\r\n        // assigning the new lawyer and seller\r\n        deeds[_deedId].assignedLawyerId = _assignedLawyerId;\r\n        deeds[_deedId].assignedSellerId = _assignedSellerId;\r\n    }\r\n\r\n    // function to add a new deed to the deeds mapping\r\n    function addNewDeed(string memory _no, string memory _streetName, string memory _city, string memory _district, string memory _province, uint _assignedLawyerId, uint _assignedSellerId) public {\r\n        deeds[deedCount] = Deed(deedCount, \"<IPFS#>\", _no,  _streetName, _city, _district, _province, _assignedLawyerId, _assignedSellerId);\r\n        deedCount++;\r\n    }\r\n\r\n    //function to register a seller\r\n    function registerSeller(string memory _name, string memory _nic, uint _age, string memory _city, string memory _email, uint _telephoneNumber, string memory _password) public {\r\n        sellersMapping[sellersCount] = Seller(_name, sellersCount, _nic, _age, _city, _email, _telephoneNumber, _password);\r\n        sellersCount++;\r\n        \r\n    }\r\n\r\n    //function to register a new Lawyer\r\n    function registerLawyer(string memory _lawyerName, string memory _lawyernic, string memory _lawyerRegNo, string memory _lawyerEmail, uint _lawyerTelephoneNumber) public {\r\n        Lawyersmapping[lawyerCount] = Lawyer(lawyerCount, _lawyerName, _lawyernic, _lawyerRegNo, _lawyerEmail, _lawyerTelephoneNumber);\r\n        lawyerCount++;\r\n    }\r\n\r\n    // function to get the lawyer id\r\n    function getLawyerId(uint index) public view returns (uint) {\r\n        return Lawyersmapping[index].lawyerId;\r\n    }\r\n\r\n    // function to get the lawyer name\r\n    function getLawyerName(uint index) public view returns (string memory) {\r\n        return Lawyersmapping[index].lawyerName;\r\n    }\r\n\r\n    // function to get the lawyer nic\r\n    function getLawyerNic(uint index) public view returns (string memory) {\r\n        return Lawyersmapping[index].lawyernic;\r\n    }\r\n\r\n    // function to get the lawyer reg no\r\n    function getLawyerRegNo(uint index) public view returns (string memory) {\r\n        return Lawyersmapping[index].lawyerRegNo;\r\n    }\r\n\r\n    // function to get the lawyer email\r\n    function getLawyerEmail(uint index) public view returns (string memory) {\r\n        return Lawyersmapping[index].lawyerEmail;\r\n    }\r\n\r\n    // function to get the lawyer email\r\n    function getLawyerTelephoneNumber(uint index) public view returns (uint) {\r\n        return Lawyersmapping[index].lawyerTelephoneNumber;\r\n    }\r\n\r\n    // function to get the seller id\r\n    function getSellerId(uint index) public view returns (uint) {\r\n        return sellersMapping[index].id;\r\n    }\r\n\r\n    // function to get the seller name\r\n    function getSellerName(uint index) public view returns (string memory) {\r\n        return sellersMapping[index].name;\r\n    }\r\n\r\n    // function to get the seller nic\r\n    function getSellerNic(uint index) public view returns (string memory) {\r\n        return sellersMapping[index].nic;\r\n    }\r\n\r\n    // function to get the seller age\r\n    function getSellerAge(uint index) public view returns (uint) {\r\n        return sellersMapping[index].age;\r\n    }\r\n\r\n    // function to get the seller city\r\n    function getSellerCity(uint index) public view returns (string memory) {\r\n        return sellersMapping[index].city;\r\n    }\r\n\r\n    // function to get the seller email\r\n    function getSellerEmail(uint index) public view returns (string memory) {\r\n        return sellersMapping[index].email;\r\n    }\r\n\r\n    // function to get the seller telephonenumber\r\n    function getSellerTelephoneNo(uint index) public view returns (uint) {\r\n        return sellersMapping[index].telephoneNumber;\r\n    }\r\n    \r\n    //function to get admin id\r\n    function getAdminId() public view returns (uint) {\r\n        return adminMapping[0].id;\r\n    }\r\n\r\n    //function to get admin password\r\n    function getAdminPassword() public view returns (string memory) {\r\n        return adminMapping[0].adminPassword;\r\n    }\r\n\r\n    // function to get the deedId from the history\r\n    function getDeedIdFromHistory(uint frontendCounter) public view returns (uint) {\r\n        return deedsVersionHistory[frontendCounter].deedIdLink;\r\n    }\r\n\r\n    // function to get the lawyerId from the history\r\n    function getOldLawyerIdFromHistory(uint frontendCounter) public view returns (uint) {\r\n        return deedsVersionHistory[frontendCounter].oldLawyerId;\r\n    }\r\n\r\n    // function to get the sellerId from the history\r\n    function getOldSellerIdFromHistory(uint frontendCounter) public view returns (uint) {\r\n        return deedsVersionHistory[frontendCounter].oldSellerId;\r\n    }\r\n    \r\n    // function to get the dateStamp from the history\r\n    function getDateStampFromHistory(uint frontendCounter) public view returns (string memory) {\r\n        return deedsVersionHistory[frontendCounter].dateStamp;\r\n    }\r\n\r\n    // function to get the timeStamp from the history\r\n    function getTimeStampFromHistory(uint frontendCounter) public view returns (string memory) {\r\n        return deedsVersionHistory[frontendCounter].timeStamp;\r\n    }\r\n\r\n    // function to get the count of the history\r\n    function getHistoryCount() public view returns (uint) {\r\n        return deedsVersionHistoryCount;\r\n    }\r\n}\r\n",
  "sourcePath": "C:\\Users\\MSI GAMING\\Documents\\GitHub\\DBLOCK\\frontEnd\\LandFrontEnd\\contracts\\Land.sol",
  "compiler": {
    "name": "solc",
    "version": "0.5.16+commit.9c3226ce.Emscripten.clang"
  },
  "schemaVersion": "3.4.3",
  "updatedAt": "2022-04-09T06:04:34.063Z",
  "networkType": "ethereum",
  "devdoc": {
    "methods": {}
  },
  "userdoc": {
    "methods": {}
  }
}