{
  "contractName": "Land",
  "abi": [
    {
      "inputs": [],
      "payable": false,
      "stateMutability": "nonpayable",
      "type": "constructor"
    },
    {
      "constant": true,
      "inputs": [
        {
          "internalType": "uint256",
          "name": "",
          "type": "uint256"
        }
      ],
      "name": "Lawyersmapping",
      "outputs": [
        {
          "internalType": "uint256",
          "name": "lawyerId",
          "type": "uint256"
        },
        {
          "internalType": "string",
          "name": "lawyerName",
          "type": "string"
        },
        {
          "internalType": "string",
          "name": "lawyernic",
          "type": "string"
        },
        {
          "internalType": "string",
          "name": "lawyerRegNo",
          "type": "string"
        },
        {
          "internalType": "string",
          "name": "lawyerEmail",
          "type": "string"
        },
        {
          "internalType": "uint256",
          "name": "lawyerTelephoneNumber",
          "type": "uint256"
        }
      ],
      "payable": false,
      "stateMutability": "view",
      "type": "function"
    },
    {
      "constant": true,
      "inputs": [
        {
          "internalType": "uint256",
          "name": "",
          "type": "uint256"
        }
      ],
      "name": "adminMapping",
      "outputs": [
        {
          "internalType": "uint256",
          "name": "id",
          "type": "uint256"
        },
        {
          "internalType": "string",
          "name": "adminPassword",
          "type": "string"
        }
      ],
      "payable": false,
      "stateMutability": "view",
      "type": "function"
    },
    {
      "constant": true,
      "inputs": [
        {
          "internalType": "uint256",
          "name": "",
          "type": "uint256"
        }
      ],
      "name": "deeds",
      "outputs": [
        {
          "internalType": "uint256",
          "name": "deedId",
          "type": "uint256"
        },
        {
          "internalType": "string",
          "name": "ipfsHash",
          "type": "string"
        },
        {
          "internalType": "string",
          "name": "no",
          "type": "string"
        },
        {
          "internalType": "string",
          "name": "streetName",
          "type": "string"
        },
        {
          "internalType": "string",
          "name": "city",
          "type": "string"
        },
        {
          "internalType": "string",
          "name": "district",
          "type": "string"
        },
        {
          "internalType": "string",
          "name": "province",
          "type": "string"
        },
        {
          "internalType": "uint256",
          "name": "assignedLawyerId",
          "type": "uint256"
        },
        {
          "internalType": "uint256",
          "name": "assignedSellerId",
          "type": "uint256"
        }
      ],
      "payable": false,
      "stateMutability": "view",
      "type": "function"
    },
    {
      "constant": true,
      "inputs": [
        {
          "internalType": "uint256",
          "name": "",
          "type": "uint256"
        }
      ],
      "name": "deedsVersionHistory",
      "outputs": [
        {
          "internalType": "uint256",
          "name": "deedIdLink",
          "type": "uint256"
        },
        {
          "internalType": "uint256",
          "name": "oldLawyerId",
          "type": "uint256"
        },
        {
          "internalType": "uint256",
          "name": "oldSellerId",
          "type": "uint256"
        },
        {
          "internalType": "string",
          "name": "dateStamp",
          "type": "string"
        },
        {
          "internalType": "string",
          "name": "timeStamp",
          "type": "string"
        }
      ],
      "payable": false,
      "stateMutability": "view",
      "type": "function"
    },
    {
      "constant": true,
      "inputs": [
        {
          "internalType": "uint256",
          "name": "",
          "type": "uint256"
        }
      ],
      "name": "sellersMapping",
      "outputs": [
        {
          "internalType": "string",
          "name": "name",
          "type": "string"
        },
        {
          "internalType": "uint256",
          "name": "id",
          "type": "uint256"
        },
        {
          "internalType": "string",
          "name": "nic",
          "type": "string"
        },
        {
          "internalType": "uint256",
          "name": "age",
          "type": "uint256"
        },
        {
          "internalType": "string",
          "name": "city",
          "type": "string"
        },
        {
          "internalType": "string",
          "name": "email",
          "type": "string"
        },
        {
          "internalType": "uint256",
          "name": "telephoneNumber",
          "type": "uint256"
        }
      ],
      "payable": false,
      "stateMutability": "view",
      "type": "function"
    },
    {
      "constant": true,
      "inputs": [
        {
          "internalType": "uint256",
          "name": "index",
          "type": "uint256"
        }
      ],
      "name": "getHashFromDeed",
      "outputs": [
        {
          "internalType": "string",
          "name": "",
          "type": "string"
        }
      ],
      "payable": false,
      "stateMutability": "view",
      "type": "function"
    },
    {
      "constant": false,
      "inputs": [
        {
          "internalType": "uint256",
          "name": "deedId",
          "type": "uint256"
        },
        {
          "internalType": "string",
          "name": "x",
          "type": "string"
        }
      ],
      "name": "sendHash",
      "outputs": [],
      "payable": false,
      "stateMutability": "nonpayable",
      "type": "function"
    },
    {
      "constant": true,
      "inputs": [],
      "name": "getDeedCount",
      "outputs": [
        {
          "internalType": "uint256",
          "name": "",
          "type": "uint256"
        }
      ],
      "payable": false,
      "stateMutability": "view",
      "type": "function"
    },
    {
      "constant": true,
      "inputs": [],
      "name": "getLawyerCount",
      "outputs": [
        {
          "internalType": "uint256",
          "name": "",
          "type": "uint256"
        }
      ],
      "payable": false,
      "stateMutability": "view",
      "type": "function"
    },
    {
      "constant": true,
      "inputs": [],
      "name": "getSellersCount",
      "outputs": [
        {
          "internalType": "uint256",
          "name": "",
          "type": "uint256"
        }
      ],
      "payable": false,
      "stateMutability": "view",
      "type": "function"
    },
    {
      "constant": true,
      "inputs": [],
      "name": "getAdminCount",
      "outputs": [
        {
          "internalType": "uint256",
          "name": "",
          "type": "uint256"
        }
      ],
      "payable": false,
      "stateMutability": "view",
      "type": "function"
    },
    {
      "constant": true,
      "inputs": [
        {
          "internalType": "uint256",
          "name": "index",
          "type": "uint256"
        }
      ],
      "name": "getDeedId",
      "outputs": [
        {
          "internalType": "uint256",
          "name": "",
          "type": "uint256"
        }
      ],
      "payable": false,
      "stateMutability": "view",
      "type": "function"
    },
    {
      "constant": true,
      "inputs": [
        {
          "internalType": "uint256",
          "name": "index",
          "type": "uint256"
        }
      ],
      "name": "getDeedNo",
      "outputs": [
        {
          "internalType": "string",
          "name": "",
          "type": "string"
        }
      ],
      "payable": false,
      "stateMutability": "view",
      "type": "function"
    },
    {
      "constant": true,
      "inputs": [
        {
          "internalType": "uint256",
          "name": "index",
          "type": "uint256"
        }
      ],
      "name": "getDeedStreetName",
      "outputs": [
        {
          "internalType": "string",
          "name": "",
          "type": "string"
        }
      ],
      "payable": false,
      "stateMutability": "view",
      "type": "function"
    },
    {
      "constant": true,
      "inputs": [
        {
          "internalType": "uint256",
          "name": "index",
          "type": "uint256"
        }
      ],
      "name": "getDeedCity",
      "outputs": [
        {
          "internalType": "string",
          "name": "",
          "type": "string"
        }
      ],
      "payable": false,
      "stateMutability": "view",
      "type": "function"
    },
    {
      "constant": true,
      "inputs": [
        {
          "internalType": "uint256",
          "name": "index",
          "type": "uint256"
        }
      ],
      "name": "getDeedDistrict",
      "outputs": [
        {
          "internalType": "string",
          "name": "",
          "type": "string"
        }
      ],
      "payable": false,
      "stateMutability": "view",
      "type": "function"
    },
    {
      "constant": true,
      "inputs": [
        {
          "internalType": "uint256",
          "name": "index",
          "type": "uint256"
        }
      ],
      "name": "getDeedProvince",
      "outputs": [
        {
          "internalType": "string",
          "name": "",
          "type": "string"
        }
      ],
      "payable": false,
      "stateMutability": "view",
      "type": "function"
    },
    {
      "constant": true,
      "inputs": [
        {
          "internalType": "uint256",
          "name": "index",
          "type": "uint256"
        }
      ],
      "name": "getLawyerIdOfDeed",
      "outputs": [
        {
          "internalType": "uint256",
          "name": "",
          "type": "uint256"
        }
      ],
      "payable": false,
      "stateMutability": "view",
      "type": "function"
    },
    {
      "constant": true,
      "inputs": [
        {
          "internalType": "uint256",
          "name": "index",
          "type": "uint256"
        }
      ],
      "name": "getSellerIdOfDeed",
      "outputs": [
        {
          "internalType": "uint256",
          "name": "",
          "type": "uint256"
        }
      ],
      "payable": false,
      "stateMutability": "view",
      "type": "function"
    },
    {
      "constant": true,
      "inputs": [
        {
          "internalType": "string",
          "name": "_no",
          "type": "string"
        },
        {
          "internalType": "string",
          "name": "_streetName",
          "type": "string"
        },
        {
          "internalType": "string",
          "name": "_city",
          "type": "string"
        },
        {
          "internalType": "string",
          "name": "_district",
          "type": "string"
        },
        {
          "internalType": "string",
          "name": "_province",
          "type": "string"
        }
      ],
      "name": "findDeedByAddress",
      "outputs": [
        {
          "internalType": "int256",
          "name": "",
          "type": "int256"
        }
      ],
      "payable": false,
      "stateMutability": "view",
      "type": "function"
    },
    {
      "constant": true,
      "inputs": [
        {
          "internalType": "string",
          "name": "_email",
          "type": "string"
        }
      ],
      "name": "findLawyerByEmail",
      "outputs": [
        {
          "internalType": "int256",
          "name": "",
          "type": "int256"
        }
      ],
      "payable": false,
      "stateMutability": "view",
      "type": "function"
    },
    {
      "constant": true,
      "inputs": [
        {
          "internalType": "string",
          "name": "_email",
          "type": "string"
        }
      ],
      "name": "findSellerByEmail",
      "outputs": [
        {
          "internalType": "int256",
          "name": "",
          "type": "int256"
        }
      ],
      "payable": false,
      "stateMutability": "view",
      "type": "function"
    },
    {
      "constant": false,
      "inputs": [
        {
          "internalType": "uint256",
          "name": "_deedId",
          "type": "uint256"
        },
        {
          "internalType": "uint256",
          "name": "_assignedLawyerId",
          "type": "uint256"
        },
        {
          "internalType": "uint256",
          "name": "_assignedSellerId",
          "type": "uint256"
        },
        {
          "internalType": "string",
          "name": "_dateStamp",
          "type": "string"
        },
        {
          "internalType": "string",
          "name": "_timeStamp",
          "type": "string"
        }
      ],
      "name": "changeDeedLawyerAndSeller",
      "outputs": [],
      "payable": false,
      "stateMutability": "nonpayable",
      "type": "function"
    },
    {
      "constant": false,
      "inputs": [
        {
          "internalType": "string",
          "name": "_no",
          "type": "string"
        },
        {
          "internalType": "string",
          "name": "_streetName",
          "type": "string"
        },
        {
          "internalType": "string",
          "name": "_city",
          "type": "string"
        },
        {
          "internalType": "string",
          "name": "_district",
          "type": "string"
        },
        {
          "internalType": "string",
          "name": "_province",
          "type": "string"
        },
        {
          "internalType": "uint256",
          "name": "_assignedLawyerId",
          "type": "uint256"
        },
        {
          "internalType": "uint256",
          "name": "_assignedSellerId",
          "type": "uint256"
        }
      ],
      "name": "addNewDeed",
      "outputs": [],
      "payable": false,
      "stateMutability": "nonpayable",
      "type": "function"
    },
    {
      "constant": false,
      "inputs": [
        {
          "internalType": "string",
          "name": "_name",
          "type": "string"
        },
        {
          "internalType": "string",
          "name": "_nic",
          "type": "string"
        },
        {
          "internalType": "uint256",
          "name": "_age",
          "type": "uint256"
        },
        {
          "internalType": "string",
          "name": "_city",
          "type": "string"
        },
        {
          "internalType": "string",
          "name": "_email",
          "type": "string"
        },
        {
          "internalType": "uint256",
          "name": "_telephoneNumber",
          "type": "uint256"
        }
      ],
      "name": "registerSeller",
      "outputs": [],
      "payable": false,
      "stateMutability": "nonpayable",
      "type": "function"
    },
    {
      "constant": false,
      "inputs": [
        {
          "internalType": "string",
          "name": "_lawyerName",
          "type": "string"
        },
        {
          "internalType": "string",
          "name": "_lawyernic",
          "type": "string"
        },
        {
          "internalType": "string",
          "name": "_lawyerRegNo",
          "type": "string"
        },
        {
          "internalType": "string",
          "name": "_lawyerEmail",
          "type": "string"
        },
        {
          "internalType": "uint256",
          "name": "_lawyerTelephoneNumber",
          "type": "uint256"
        }
      ],
      "name": "registerLawyer",
      "outputs": [],
      "payable": false,
      "stateMutability": "nonpayable",
      "type": "function"
    },
    {
      "constant": true,
      "inputs": [
        {
          "internalType": "uint256",
          "name": "index",
          "type": "uint256"
        }
      ],
      "name": "getLawyerId",
      "outputs": [
        {
          "internalType": "uint256",
          "name": "",
          "type": "uint256"
        }
      ],
      "payable": false,
      "stateMutability": "view",
      "type": "function"
    },
    {
      "constant": true,
      "inputs": [
        {
          "internalType": "uint256",
          "name": "index",
          "type": "uint256"
        }
      ],
      "name": "getLawyerName",
      "outputs": [
        {
          "internalType": "string",
          "name": "",
          "type": "string"
        }
      ],
      "payable": false,
      "stateMutability": "view",
      "type": "function"
    },
    {
      "constant": true,
      "inputs": [
        {
          "internalType": "uint256",
          "name": "index",
          "type": "uint256"
        }
      ],
      "name": "getLawyerNic",
      "outputs": [
        {
          "internalType": "string",
          "name": "",
          "type": "string"
        }
      ],
      "payable": false,
      "stateMutability": "view",
      "type": "function"
    },
    {
      "constant": true,
      "inputs": [
        {
          "internalType": "uint256",
          "name": "index",
          "type": "uint256"
        }
      ],
      "name": "getLawyerRegNo",
      "outputs": [
        {
          "internalType": "string",
          "name": "",
          "type": "string"
        }
      ],
      "payable": false,
      "stateMutability": "view",
      "type": "function"
    },
    {
      "constant": true,
      "inputs": [
        {
          "internalType": "uint256",
          "name": "index",
          "type": "uint256"
        }
      ],
      "name": "getLawyerEmail",
      "outputs": [
        {
          "internalType": "string",
          "name": "",
          "type": "string"
        }
      ],
      "payable": false,
      "stateMutability": "view",
      "type": "function"
    },
    {
      "constant": true,
      "inputs": [
        {
          "internalType": "uint256",
          "name": "index",
          "type": "uint256"
        }
      ],
      "name": "getLawyerTelephoneNumber",
      "outputs": [
        {
          "internalType": "uint256",
          "name": "",
          "type": "uint256"
        }
      ],
      "payable": false,
      "stateMutability": "view",
      "type": "function"
    },
    {
      "constant": true,
      "inputs": [
        {
          "internalType": "uint256",
          "name": "index",
          "type": "uint256"
        }
      ],
      "name": "getSellerId",
      "outputs": [
        {
          "internalType": "uint256",
          "name": "",
          "type": "uint256"
        }
      ],
      "payable": false,
      "stateMutability": "view",
      "type": "function"
    },
    {
      "constant": true,
      "inputs": [
        {
          "internalType": "uint256",
          "name": "index",
          "type": "uint256"
        }
      ],
      "name": "getSellerName",
      "outputs": [
        {
          "internalType": "string",
          "name": "",
          "type": "string"
        }
      ],
      "payable": false,
      "stateMutability": "view",
      "type": "function"
    },
    {
      "constant": true,
      "inputs": [
        {
          "internalType": "uint256",
          "name": "index",
          "type": "uint256"
        }
      ],
      "name": "getSellerNic",
      "outputs": [
        {
          "internalType": "string",
          "name": "",
          "type": "string"
        }
      ],
      "payable": false,
      "stateMutability": "view",
      "type": "function"
    },
    {
      "constant": true,
      "inputs": [
        {
          "internalType": "uint256",
          "name": "index",
          "type": "uint256"
        }
      ],
      "name": "getSellerAge",
      "outputs": [
        {
          "internalType": "uint256",
          "name": "",
          "type": "uint256"
        }
      ],
      "payable": false,
      "stateMutability": "view",
      "type": "function"
    },
    {
      "constant": true,
      "inputs": [
        {
          "internalType": "uint256",
          "name": "index",
          "type": "uint256"
        }
      ],
      "name": "getSellerCity",
      "outputs": [
        {
          "internalType": "string",
          "name": "",
          "type": "string"
        }
      ],
      "payable": false,
      "stateMutability": "view",
      "type": "function"
    },
    {
      "constant": true,
      "inputs": [
        {
          "internalType": "uint256",
          "name": "index",
          "type": "uint256"
        }
      ],
      "name": "getSellerEmail",
      "outputs": [
        {
          "internalType": "string",
          "name": "",
          "type": "string"
        }
      ],
      "payable": false,
      "stateMutability": "view",
      "type": "function"
    },
    {
      "constant": true,
      "inputs": [
        {
          "internalType": "uint256",
          "name": "index",
          "type": "uint256"
        }
      ],
      "name": "getSellerTelephoneNo",
      "outputs": [
        {
          "internalType": "uint256",
          "name": "",
          "type": "uint256"
        }
      ],
      "payable": false,
      "stateMutability": "view",
      "type": "function"
    },
    {
      "constant": true,
      "inputs": [],
      "name": "getAdminId",
      "outputs": [
        {
          "internalType": "uint256",
          "name": "",
          "type": "uint256"
        }
      ],
      "payable": false,
      "stateMutability": "view",
      "type": "function"
    },
    {
      "constant": true,
      "inputs": [],
      "name": "getAdminPassword",
      "outputs": [
        {
          "internalType": "string",
          "name": "",
          "type": "string"
        }
      ],
      "payable": false,
      "stateMutability": "view",
      "type": "function"
    },
    {
      "constant": true,
      "inputs": [
        {
          "internalType": "uint256",
          "name": "frontendCounter",
          "type": "uint256"
        }
      ],
      "name": "getDeedIdFromHistory",
      "outputs": [
        {
          "internalType": "uint256",
          "name": "",
          "type": "uint256"
        }
      ],
      "payable": false,
      "stateMutability": "view",
      "type": "function"
    },
    {
      "constant": true,
      "inputs": [
        {
          "internalType": "uint256",
          "name": "frontendCounter",
          "type": "uint256"
        }
      ],
      "name": "getOldLawyerIdFromHistory",
      "outputs": [
        {
          "internalType": "uint256",
          "name": "",
          "type": "uint256"
        }
      ],
      "payable": false,
      "stateMutability": "view",
      "type": "function"
    },
    {
      "constant": true,
      "inputs": [
        {
          "internalType": "uint256",
          "name": "frontendCounter",
          "type": "uint256"
        }
      ],
      "name": "getOldSellerIdFromHistory",
      "outputs": [
        {
          "internalType": "uint256",
          "name": "",
          "type": "uint256"
        }
      ],
      "payable": false,
      "stateMutability": "view",
      "type": "function"
    },
    {
      "constant": true,
      "inputs": [
        {
          "internalType": "uint256",
          "name": "frontendCounter",
          "type": "uint256"
        }
      ],
      "name": "getDateStampFromHistory",
      "outputs": [
        {
          "internalType": "string",
          "name": "",
          "type": "string"
        }
      ],
      "payable": false,
      "stateMutability": "view",
      "type": "function"
    },
    {
      "constant": true,
      "inputs": [
        {
          "internalType": "uint256",
          "name": "frontendCounter",
          "type": "uint256"
        }
      ],
      "name": "getTimeStampFromHistory",
      "outputs": [
        {
          "internalType": "string",
          "name": "",
          "type": "string"
        }
      ],
      "payable": false,
      "stateMutability": "view",
      "type": "function"
    },
    {
      "constant": true,
      "inputs": [],
      "name": "getHistoryCount",
      "outputs": [
        {
          "internalType": "uint256",
          "name": "",
          "type": "uint256"
        }
      ],
      "payable": false,
      "stateMutability": "view",
      "type": "function"
    }
  ],
  "bytecode": "0x6080604052600060055560006006556000600755600060085560006009553480156200002a57600080fd5b50604051806040016040528060095481526020016040518060400160405280600381526020017f3132330000000000000000000000000000000000000000000000000000000000815250815250600460006009548152602001908152602001600020600082015181600001556020820151816001019080519060200190620000b4929190620000d0565b509050506009600081548092919060010191905055506200017f565b828054600181600116156101000203166002900490600052602060002090601f016020900481019282601f106200011357805160ff191683800117855562000144565b8280016001018555821562000144579182015b828111156200014357825182559160200191906001019062000126565b5b50905062000153919062000157565b5090565b6200017c91905b80821115620001785760008160009055506001016200015e565b5090565b90565b614f92806200018f6000396000f3fe608060405234801561001057600080fd5b50600436106102955760003560e01c80637c6eb10311610167578063bbdad593116100ce578063dd9d122d11610087578063dd9d122d14612609578063df0a1c2a14612627578063e084ada1146126ce578063f0b93af914612775578063f8a386051461281c578063ffb434fb1461285e57610295565b8063bbdad59314611eb0578063bc3de01f14611fd8578063bd7949751461201a578063cff0c7c0146120df578063d26abb1a146122d8578063d96b0a551461256257610295565b8063a18861a311610120578063a18861a314611bb0578063a4cbf3e314611bce578063a998593814611c10578063aca5577314611c93578063b432183214611d3a578063b998b87c14611de157610295565b80637c6eb103146114fb5780637e45aa25146116fb5780637ea1449f146117a25780638b7bf3eb146117c05780639614681b146117de5780639cd681f514611b0957610295565b806332a678531161020b5780635dd56798116101c45780635dd5679814611045578063655dc4c2146110875780636c218b17146110a557806370ffbdd2146110e7578063721fa4181461118e57806374cfe475146114b957610295565b806332a6785314610c58578063334bb74514610cff57806335a82e7214610d1d5780634244992f14610d5f5780634461383014610e065780634dc971ae14610ed557610295565b8063188a93791161025d578063188a93791461070057806318edf564146107a75780631a08496114610a7f57806321eb5a7c14610ac157806328bcb41814610b6f57806330c9fb4814610bb157610295565b806301ed90fb1461029a57806305624d35146103415780630cc543b6146103e85780630df74d361461042a5780630df7ec24146106be575b600080fd5b6102c6600480360360208110156102b057600080fd5b8101908080359060200190929190505050612905565b6040518080602001828103825283818151815260200191508051906020019080838360005b838110156103065780820151818401526020810190506102eb565b50505050905090810190601f1680156103335780820380516001836020036101000a031916815260200191505b509250505060405180910390f35b61036d6004803603602081101561035757600080fd5b81019080803590602001909291905050506129bd565b6040518080602001828103825283818151815260200191508051906020019080838360005b838110156103ad578082015181840152602081019050610392565b50505050905090810190601f1680156103da5780820380516001836020036101000a031916815260200191505b509250505060405180910390f35b610414600480360360208110156103fe57600080fd5b8101908080359060200190929190505050612a74565b6040518082815260200191505060405180910390f35b6106bc600480360360c081101561044057600080fd5b810190808035906020019064010000000081111561045d57600080fd5b82018360208201111561046f57600080fd5b8035906020019184600183028401116401000000008311171561049157600080fd5b91908080601f016020809104026020016040519081016040528093929190818152602001838380828437600081840152601f19601f820116905080830192505050505050509192919290803590602001906401000000008111156104f457600080fd5b82018360208201111561050657600080fd5b8035906020019184600183028401116401000000008311171561052857600080fd5b91908080601f016020809104026020016040519081016040528093929190818152602001838380828437600081840152601f19601f820116905080830192505050505050509192919290803590602001909291908035906020019064010000000081111561059557600080fd5b8201836020820111156105a757600080fd5b803590602001918460018302840111640100000000831117156105c957600080fd5b91908080601f016020809104026020016040519081016040528093929190818152602001838380828437600081840152601f19601f8201169050808301925050505050505091929192908035906020019064010000000081111561062c57600080fd5b82018360208201111561063e57600080fd5b8035906020019184600183028401116401000000008311171561066057600080fd5b91908080601f016020809104026020016040519081016040528093929190818152602001838380828437600081840152601f19601f82011690508083019250505050505050919291929080359060200190929190505050612a94565b005b6106ea600480360360208110156106d457600080fd5b8101908080359060200190929190505050612b8d565b6040518082815260200191505060405180910390f35b61072c6004803603602081101561071657600080fd5b8101908080359060200190929190505050612bac565b6040518080602001828103825283818151815260200191508051906020019080838360005b8381101561076c578082015181840152602081019050610751565b50505050905090810190601f1680156107995780820380516001836020036101000a031916815260200191505b509250505060405180910390f35b6107d3600480360360208110156107bd57600080fd5b8101908080359060200190929190505050612c63565b604051808a815260200180602001806020018060200180602001806020018060200189815260200188815260200187810387528f818151815260200191508051906020019080838360005b8381101561083957808201518184015260208101905061081e565b50505050905090810190601f1680156108665780820380516001836020036101000a031916815260200191505b5087810386528e818151815260200191508051906020019080838360005b8381101561089f578082015181840152602081019050610884565b50505050905090810190601f1680156108cc5780820380516001836020036101000a031916815260200191505b5087810385528d818151815260200191508051906020019080838360005b838110156109055780820151818401526020810190506108ea565b50505050905090810190601f1680156109325780820380516001836020036101000a031916815260200191505b5087810384528c818151815260200191508051906020019080838360005b8381101561096b578082015181840152602081019050610950565b50505050905090810190601f1680156109985780820380516001836020036101000a031916815260200191505b5087810383528b818151815260200191508051906020019080838360005b838110156109d15780820151818401526020810190506109b6565b50505050905090810190601f1680156109fe5780820380516001836020036101000a031916815260200191505b5087810382528a818151815260200191508051906020019080838360005b83811015610a37578082015181840152602081019050610a1c565b50505050905090810190601f168015610a645780820380516001836020036101000a031916815260200191505b509f5050505050505050505050505050505060405180910390f35b610aab60048036036020811015610a9557600080fd5b8101908080359060200190929190505050613041565b6040518082815260200191505060405180910390f35b610aed60048036036020811015610ad757600080fd5b8101908080359060200190929190505050613061565b6040518083815260200180602001828103825283818151815260200191508051906020019080838360005b83811015610b33578082015181840152602081019050610b18565b50505050905090810190601f168015610b605780820380516001836020036101000a031916815260200191505b50935050505060405180910390f35b610b9b60048036036020811015610b8557600080fd5b810190808035906020019092919050505061311d565b6040518082815260200191505060405180910390f35b610bdd60048036036020811015610bc757600080fd5b810190808035906020019092919050505061313d565b6040518080602001828103825283818151815260200191508051906020019080838360005b83811015610c1d578082015181840152602081019050610c02565b50505050905090810190601f168015610c4a5780820380516001836020036101000a031916815260200191505b509250505060405180910390f35b610c8460048036036020811015610c6e57600080fd5b81019080803590602001909291905050506131f5565b6040518080602001828103825283818151815260200191508051906020019080838360005b83811015610cc4578082015181840152602081019050610ca9565b50505050905090810190601f168015610cf15780820380516001836020036101000a031916815260200191505b509250505060405180910390f35b610d076132ac565b6040518082815260200191505060405180910390f35b610d4960048036036020811015610d3357600080fd5b81019080803590602001909291905050506132b6565b6040518082815260200191505060405180910390f35b610d8b60048036036020811015610d7557600080fd5b81019080803590602001909291905050506132d5565b6040518080602001828103825283818151815260200191508051906020019080838360005b83811015610dcb578082015181840152602081019050610db0565b50505050905090810190601f168015610df85780820380516001836020036101000a031916815260200191505b509250505060405180910390f35b610ebf60048036036020811015610e1c57600080fd5b8101908080359060200190640100000000811115610e3957600080fd5b820183602082011115610e4b57600080fd5b80359060200191846001830284011164010000000083111715610e6d57600080fd5b91908080601f016020809104026020016040519081016040528093929190818152602001838380828437600081840152601f19601f82011690508083019250505050505050919291929050505061338d565b6040518082815260200191505060405180910390f35b611043600480360360a0811015610eeb57600080fd5b8101908080359060200190929190803590602001909291908035906020019092919080359060200190640100000000811115610f2657600080fd5b820183602082011115610f3857600080fd5b80359060200191846001830284011164010000000083111715610f5a57600080fd5b91908080601f016020809104026020016040519081016040528093929190818152602001838380828437600081840152601f19601f82011690508083019250505050505050919291929080359060200190640100000000811115610fbd57600080fd5b820183602082011115610fcf57600080fd5b80359060200191846001830284011164010000000083111715610ff157600080fd5b91908080601f016020809104026020016040519081016040528093929190818152602001838380828437600081840152601f19601f8201169050808301925050505050505091929192905050506134b6565b005b6110716004803603602081101561105b57600080fd5b81019080803590602001909291905050506135d0565b6040518082815260200191505060405180910390f35b61108f6135ef565b6040518082815260200191505060405180910390f35b6110d1600480360360208110156110bb57600080fd5b81019080803590602001909291905050506135f9565b6040518082815260200191505060405180910390f35b611113600480360360208110156110fd57600080fd5b8101908080359060200190929190505050613619565b6040518080602001828103825283818151815260200191508051906020019080838360005b83811015611153578082015181840152602081019050611138565b50505050905090810190601f1680156111805780820380516001836020036101000a031916815260200191505b509250505060405180910390f35b6114b7600480360360e08110156111a457600080fd5b81019080803590602001906401000000008111156111c157600080fd5b8201836020820111156111d357600080fd5b803590602001918460018302840111640100000000831117156111f557600080fd5b91908080601f016020809104026020016040519081016040528093929190818152602001838380828437600081840152601f19601f8201169050808301925050505050505091929192908035906020019064010000000081111561125857600080fd5b82018360208201111561126a57600080fd5b8035906020019184600183028401116401000000008311171561128c57600080fd5b91908080601f016020809104026020016040519081016040528093929190818152602001838380828437600081840152601f19601f820116905080830192505050505050509192919290803590602001906401000000008111156112ef57600080fd5b82018360208201111561130157600080fd5b8035906020019184600183028401116401000000008311171561132357600080fd5b91908080601f016020809104026020016040519081016040528093929190818152602001838380828437600081840152601f19601f8201169050808301925050505050505091929192908035906020019064010000000081111561138657600080fd5b82018360208201111561139857600080fd5b803590602001918460018302840111640100000000831117156113ba57600080fd5b91908080601f016020809104026020016040519081016040528093929190818152602001838380828437600081840152601f19601f8201169050808301925050505050505091929192908035906020019064010000000081111561141d57600080fd5b82018360208201111561142f57600080fd5b8035906020019184600183028401116401000000008311171561145157600080fd5b91908080601f016020809104026020016040519081016040528093929190818152602001838380828437600081840152601f19601f82011690508083019250505050505050919291929080359060200190929190803590602001909291905050506136d1565b005b6114e5600480360360208110156114cf57600080fd5b8101908080359060200190929190505050613847565b6040518082815260200191505060405180910390f35b6115276004803603602081101561151157600080fd5b8101908080359060200190929190505050613867565b604051808060200188815260200180602001878152602001806020018060200186815260200185810385528c818151815260200191508051906020019080838360005b8381101561158557808201518184015260208101905061156a565b50505050905090810190601f1680156115b25780820380516001836020036101000a031916815260200191505b5085810384528a818151815260200191508051906020019080838360005b838110156115eb5780820151818401526020810190506115d0565b50505050905090810190601f1680156116185780820380516001836020036101000a031916815260200191505b50858103835288818151815260200191508051906020019080838360005b83811015611651578082015181840152602081019050611636565b50505050905090810190601f16801561167e5780820380516001836020036101000a031916815260200191505b50858103825287818151815260200191508051906020019080838360005b838110156116b757808201518184015260208101905061169c565b50505050905090810190601f1680156116e45780820380516001836020036101000a031916815260200191505b509b50505050505050505050505060405180910390f35b6117276004803603602081101561171157600080fd5b8101908080359060200190929190505050613b09565b6040518080602001828103825283818151815260200191508051906020019080838360005b8381101561176757808201518184015260208101905061174c565b50505050905090810190601f1680156117945780820380516001836020036101000a031916815260200191505b509250505060405180910390f35b6117aa613bc1565b6040518082815260200191505060405180910390f35b6117c8613bdf565b6040518082815260200191505060405180910390f35b611af3600480360360a08110156117f457600080fd5b810190808035906020019064010000000081111561181157600080fd5b82018360208201111561182357600080fd5b8035906020019184600183028401116401000000008311171561184557600080fd5b91908080601f016020809104026020016040519081016040528093929190818152602001838380828437600081840152601f19601f820116905080830192505050505050509192919290803590602001906401000000008111156118a857600080fd5b8201836020820111156118ba57600080fd5b803590602001918460018302840111640100000000831117156118dc57600080fd5b91908080601f016020809104026020016040519081016040528093929190818152602001838380828437600081840152601f19601f8201169050808301925050505050505091929192908035906020019064010000000081111561193f57600080fd5b82018360208201111561195157600080fd5b8035906020019184600183028401116401000000008311171561197357600080fd5b91908080601f016020809104026020016040519081016040528093929190818152602001838380828437600081840152601f19601f820116905080830192505050505050509192919290803590602001906401000000008111156119d657600080fd5b8201836020820111156119e857600080fd5b80359060200191846001830284011164010000000083111715611a0a57600080fd5b91908080601f016020809104026020016040519081016040528093929190818152602001838380828437600081840152601f19601f82011690508083019250505050505050919291929080359060200190640100000000811115611a6d57600080fd5b820183602082011115611a7f57600080fd5b80359060200191846001830284011164010000000083111715611aa157600080fd5b91908080601f016020809104026020016040519081016040528093929190818152602001838380828437600081840152601f19601f820116905080830192505050505050509192919290505050613be9565b6040518082815260200191505060405180910390f35b611b3560048036036020811015611b1f57600080fd5b8101908080359060200190929190505050614010565b6040518080602001828103825283818151815260200191508051906020019080838360005b83811015611b75578082015181840152602081019050611b5a565b50505050905090810190601f168015611ba25780820380516001836020036101000a031916815260200191505b509250505060405180910390f35b611bb86140c7565b6040518082815260200191505060405180910390f35b611bfa60048036036020811015611be457600080fd5b81019080803590602001909291905050506140d1565b6040518082815260200191505060405180910390f35b611c186140f1565b6040518080602001828103825283818151815260200191508051906020019080838360005b83811015611c58578082015181840152602081019050611c3d565b50505050905090810190601f168015611c855780820380516001836020036101000a031916815260200191505b509250505060405180910390f35b611cbf60048036036020811015611ca957600080fd5b81019080803590602001909291905050506141a7565b6040518080602001828103825283818151815260200191508051906020019080838360005b83811015611cff578082015181840152602081019050611ce4565b50505050905090810190601f168015611d2c5780820380516001836020036101000a031916815260200191505b509250505060405180910390f35b611d6660048036036020811015611d5057600080fd5b810190808035906020019092919050505061425f565b6040518080602001828103825283818151815260200191508051906020019080838360005b83811015611da6578082015181840152602081019050611d8b565b50505050905090810190601f168015611dd35780820380516001836020036101000a031916815260200191505b509250505060405180910390f35b611e9a60048036036020811015611df757600080fd5b8101908080359060200190640100000000811115611e1457600080fd5b820183602082011115611e2657600080fd5b80359060200191846001830284011164010000000083111715611e4857600080fd5b91908080601f016020809104026020016040519081016040528093929190818152602001838380828437600081840152601f19601f820116905080830192505050505050509192919290505050614317565b6040518082815260200191505060405180910390f35b611edc60048036036020811015611ec657600080fd5b8101908080359060200190929190505050614440565b604051808681526020018581526020018481526020018060200180602001838103835285818151815260200191508051906020019080838360005b83811015611f32578082015181840152602081019050611f17565b50505050905090810190601f168015611f5f5780820380516001836020036101000a031916815260200191505b50838103825284818151815260200191508051906020019080838360005b83811015611f98578082015181840152602081019050611f7d565b50505050905090810190601f168015611fc55780820380516001836020036101000a031916815260200191505b5097505050505050505060405180910390f35b61200460048036036020811015611fee57600080fd5b81019080803590602001909291905050506145a6565b6040518082815260200191505060405180910390f35b6120dd6004803603604081101561203057600080fd5b81019080803590602001909291908035906020019064010000000081111561205757600080fd5b82018360208201111561206957600080fd5b8035906020019184600183028401116401000000008311171561208b57600080fd5b91908080601f016020809104026020016040519081016040528093929190818152602001838380828437600081840152601f19601f8201169050808301925050505050505091929192905050506145c6565b005b61210b600480360360208110156120f557600080fd5b81019080803590602001909291905050506145f4565b604051808781526020018060200180602001806020018060200186815260200185810385528a818151815260200191508051906020019080838360005b83811015612163578082015181840152602081019050612148565b50505050905090810190601f1680156121905780820380516001836020036101000a031916815260200191505b50858103845289818151815260200191508051906020019080838360005b838110156121c95780820151818401526020810190506121ae565b50505050905090810190601f1680156121f65780820380516001836020036101000a031916815260200191505b50858103835288818151815260200191508051906020019080838360005b8381101561222f578082015181840152602081019050612214565b50505050905090810190601f16801561225c5780820380516001836020036101000a031916815260200191505b50858103825287818151815260200191508051906020019080838360005b8381101561229557808201518184015260208101905061227a565b50505050905090810190601f1680156122c25780820380516001836020036101000a031916815260200191505b509a505050505050505050505060405180910390f35b612560600480360360a08110156122ee57600080fd5b810190808035906020019064010000000081111561230b57600080fd5b82018360208201111561231d57600080fd5b8035906020019184600183028401116401000000008311171561233f57600080fd5b91908080601f016020809104026020016040519081016040528093929190818152602001838380828437600081840152601f19601f820116905080830192505050505050509192919290803590602001906401000000008111156123a257600080fd5b8201836020820111156123b457600080fd5b803590602001918460018302840111640100000000831117156123d657600080fd5b91908080601f016020809104026020016040519081016040528093929190818152602001838380828437600081840152601f19601f8201169050808301925050505050505091929192908035906020019064010000000081111561243957600080fd5b82018360208201111561244b57600080fd5b8035906020019184600183028401116401000000008311171561246d57600080fd5b91908080601f016020809104026020016040519081016040528093929190818152602001838380828437600081840152601f19601f820116905080830192505050505050509192919290803590602001906401000000008111156124d057600080fd5b8201836020820111156124e257600080fd5b8035906020019184600183028401116401000000008311171561250457600080fd5b91908080601f016020809104026020016040519081016040528093929190818152602001838380828437600081840152601f19601f82011690508083019250505050505050919291929080359060200190929190505050614890565b005b61258e6004803603602081101561257857600080fd5b8101908080359060200190929190505050614978565b6040518080602001828103825283818151815260200191508051906020019080838360005b838110156125ce5780820151818401526020810190506125b3565b50505050905090810190601f1680156125fb5780820380516001836020036101000a031916815260200191505b509250505060405180910390f35b612611614a30565b6040518082815260200191505060405180910390f35b6126536004803603602081101561263d57600080fd5b8101908080359060200190929190505050614a3a565b6040518080602001828103825283818151815260200191508051906020019080838360005b83811015612693578082015181840152602081019050612678565b50505050905090810190601f1680156126c05780820380516001836020036101000a031916815260200191505b509250505060405180910390f35b6126fa600480360360208110156126e457600080fd5b8101908080359060200190929190505050614af2565b6040518080602001828103825283818151815260200191508051906020019080838360005b8381101561273a57808201518184015260208101905061271f565b50505050905090810190601f1680156127675780820380516001836020036101000a031916815260200191505b509250505060405180910390f35b6127a16004803603602081101561278b57600080fd5b8101908080359060200190929190505050614baa565b6040518080602001828103825283818151815260200191508051906020019080838360005b838110156127e15780820151818401526020810190506127c6565b50505050905090810190601f16801561280e5780820380516001836020036101000a031916815260200191505b509250505060405180910390f35b6128486004803603602081101561283257600080fd5b8101908080359060200190929190505050614c61565b6040518082815260200191505060405180910390f35b61288a6004803603602081101561287457600080fd5b8101908080359060200190929190505050614c81565b6040518080602001828103825283818151815260200191508051906020019080838360005b838110156128ca5780820151818401526020810190506128af565b50505050905090810190601f1680156128f75780820380516001836020036101000a031916815260200191505b509250505060405180910390f35b6060600160008381526020019081526020016000206003018054600181600116156101000203166002900480601f0160208091040260200160405190810160405280929190818152602001828054600181600116156101000203166002900480156129b15780601f10612986576101008083540402835291602001916129b1565b820191906000526020600020905b81548152906001019060200180831161299457829003601f168201915b50505050509050919050565b60606000808381526020019081526020016000206005018054600181600116156101000203166002900480601f016020809104026020016040519081016040528092919081815260200182805460018160011615610100020316600290048015612a685780601f10612a3d57610100808354040283529160200191612a68565b820191906000526020600020905b815481529060010190602001808311612a4b57829003601f168201915b50505050509050919050565b600060026000838152602001908152602001600020600601549050919050565b6040518060e001604052808781526020016007548152602001868152602001858152602001848152602001838152602001828152506002600060075481526020019081526020016000206000820151816000019080519060200190612afa929190614e38565b50602082015181600101556040820151816002019080519060200190612b21929190614e38565b50606082015181600301556080820151816004019080519060200190612b48929190614e38565b5060a0820151816005019080519060200190612b65929190614e38565b5060c08201518160060155905050600760008154809291906001019190505550505050505050565b6000806000838152602001908152602001600020600001549050919050565b60606000808381526020019081526020016000206001018054600181600116156101000203166002900480601f016020809104026020016040519081016040528092919081815260200182805460018160011615610100020316600290048015612c575780601f10612c2c57610100808354040283529160200191612c57565b820191906000526020600020905b815481529060010190602001808311612c3a57829003601f168201915b50505050509050919050565b6000602052806000526040600020600091509050806000015490806001018054600181600116156101000203166002900480601f016020809104026020016040519081016040528092919081815260200182805460018160011615610100020316600290048015612d155780601f10612cea57610100808354040283529160200191612d15565b820191906000526020600020905b815481529060010190602001808311612cf857829003601f168201915b505050505090806002018054600181600116156101000203166002900480601f016020809104026020016040519081016040528092919081815260200182805460018160011615610100020316600290048015612db35780601f10612d8857610100808354040283529160200191612db3565b820191906000526020600020905b815481529060010190602001808311612d9657829003601f168201915b505050505090806003018054600181600116156101000203166002900480601f016020809104026020016040519081016040528092919081815260200182805460018160011615610100020316600290048015612e515780601f10612e2657610100808354040283529160200191612e51565b820191906000526020600020905b815481529060010190602001808311612e3457829003601f168201915b505050505090806004018054600181600116156101000203166002900480601f016020809104026020016040519081016040528092919081815260200182805460018160011615610100020316600290048015612eef5780601f10612ec457610100808354040283529160200191612eef565b820191906000526020600020905b815481529060010190602001808311612ed257829003601f168201915b505050505090806005018054600181600116156101000203166002900480601f016020809104026020016040519081016040528092919081815260200182805460018160011615610100020316600290048015612f8d5780601f10612f6257610100808354040283529160200191612f8d565b820191906000526020600020905b815481529060010190602001808311612f7057829003601f168201915b505050505090806006018054600181600116156101000203166002900480601f01602080910402602001604051908101604052809291908181526020018280546001816001161561010002031660029004801561302b5780601f106130005761010080835404028352916020019161302b565b820191906000526020600020905b81548152906001019060200180831161300e57829003601f168201915b5050505050908060070154908060080154905089565b600060016000838152602001908152602001600020600001549050919050565b6004602052806000526040600020600091509050806000015490806001018054600181600116156101000203166002900480601f0160208091040260200160405190810160405280929190818152602001828054600181600116156101000203166002900480156131135780601f106130e857610100808354040283529160200191613113565b820191906000526020600020905b8154815290600101906020018083116130f657829003601f168201915b5050505050905082565b600060016000838152602001908152602001600020600201549050919050565b6060600360008381526020019081526020016000206004018054600181600116156101000203166002900480601f0160208091040260200160405190810160405280929190818152602001828054600181600116156101000203166002900480156131e95780601f106131be576101008083540402835291602001916131e9565b820191906000526020600020905b8154815290600101906020018083116131cc57829003601f168201915b50505050509050919050565b60606000808381526020019081526020016000206002018054600181600116156101000203166002900480601f0160208091040260200160405190810160405280929190818152602001828054600181600116156101000203166002900480156132a05780601f10613275576101008083540402835291602001916132a0565b820191906000526020600020905b81548152906001019060200180831161328357829003601f168201915b50505050509050919050565b6000600554905090565b6000806000838152602001908152602001600020600701549050919050565b6060600160008381526020019081526020016000206004018054600181600116156101000203166002900480601f0160208091040260200160405190810160405280929190818152602001828054600181600116156101000203166002900480156133815780601f1061335657610100808354040283529160200191613381565b820191906000526020600020905b81548152906001019060200180831161336457829003601f168201915b50505050509050919050565b6000806000905060007fffffffffffffffffffffffffffffffffffffffffffffffffffffffffffffffff90505b6007548210156134ac5761347c84600260008581526020019081526020016000206005018054600181600116156101000203166002900480601f0160208091040260200160405190810160405280929190818152602001828054600181600116156101000203166002900480156134725780601f1061344757610100808354040283529160200191613472565b820191906000526020600020905b81548152906001019060200180831161345557829003601f168201915b5050505050614d38565b1561349f57600260008381526020019081526020016000206001015490506134ac565b81806001019250506133ba565b8092505050919050565b600080600087815260200190815260200160002060070154905060008060008881526020019081526020016000206008015490506040518060a00160405280888152602001838152602001828152602001858152602001848152506001600060065481526020019081526020016000206000820151816000015560208201518160010155604082015181600201556060820151816003019080519060200190613560929190614e38565b50608082015181600401908051906020019061357d929190614e38565b509050506006600081548092919060010191905055508560008089815260200190815260200160002060070181905550846000808981526020019081526020016000206008018190555050505050505050565b6000806000838152602001908152602001600020600801549050919050565b6000600854905090565b600060036000838152602001908152602001600020600001549050919050565b6060600260008381526020019081526020016000206002018054600181600116156101000203166002900480601f0160208091040260200160405190810160405280929190818152602001828054600181600116156101000203166002900480156136c55780601f1061369a576101008083540402835291602001916136c5565b820191906000526020600020905b8154815290600101906020018083116136a857829003601f168201915b50505050509050919050565b60405180610120016040528060055481526020016040518060400160405280600781526020017f3c49504653233e000000000000000000000000000000000000000000000000008152508152602001888152602001878152602001868152602001858152602001848152602001838152602001828152506000806005548152602001908152602001600020600082015181600001556020820151816001019080519060200190613782929190614e38565b50604082015181600201908051906020019061379f929190614e38565b5060608201518160030190805190602001906137bc929190614e38565b5060808201518160040190805190602001906137d9929190614e38565b5060a08201518160050190805190602001906137f6929190614e38565b5060c0820151816006019080519060200190613813929190614e38565b5060e08201518160070155610100820151816008015590505060056000815480929190600101919050555050505050505050565b600060026000838152602001908152602001600020600101549050919050565b6002602052806000526040600020600091509050806000018054600181600116156101000203166002900480601f0160208091040260200160405190810160405280929190818152602001828054600181600116156101000203166002900480156139135780601f106138e857610100808354040283529160200191613913565b820191906000526020600020905b8154815290600101906020018083116138f657829003601f168201915b505050505090806001015490806002018054600181600116156101000203166002900480601f0160208091040260200160405190810160405280929190818152602001828054600181600116156101000203166002900480156139b75780601f1061398c576101008083540402835291602001916139b7565b820191906000526020600020905b81548152906001019060200180831161399a57829003601f168201915b505050505090806003015490806004018054600181600116156101000203166002900480601f016020809104026020016040519081016040528092919081815260200182805460018160011615610100020316600290048015613a5b5780601f10613a3057610100808354040283529160200191613a5b565b820191906000526020600020905b815481529060010190602001808311613a3e57829003601f168201915b505050505090806005018054600181600116156101000203166002900480601f016020809104026020016040519081016040528092919081815260200182805460018160011615610100020316600290048015613af95780601f10613ace57610100808354040283529160200191613af9565b820191906000526020600020905b815481529060010190602001808311613adc57829003601f168201915b5050505050908060060154905087565b6060600360008381526020019081526020016000206001018054600181600116156101000203166002900480601f016020809104026020016040519081016040528092919081815260200182805460018160011615610100020316600290048015613bb55780601f10613b8a57610100808354040283529160200191613bb5565b820191906000526020600020905b815481529060010190602001808311613b9857829003601f168201915b50505050509050919050565b60006004600080815260200190815260200160002060000154905090565b6000600954905090565b6000806000905060007fffffffffffffffffffffffffffffffffffffffffffffffffffffffffffffffff90505b60055482101561400257613cd7886000808581526020019081526020016000206002018054600181600116156101000203166002900480601f016020809104026020016040519081016040528092919081815260200182805460018160011615610100020316600290048015613ccd5780601f10613ca257610100808354040283529160200191613ccd565b820191906000526020600020905b815481529060010190602001808311613cb057829003601f168201915b5050505050614d38565b8015613d965750613d95876000808581526020019081526020016000206003018054600181600116156101000203166002900480601f016020809104026020016040519081016040528092919081815260200182805460018160011615610100020316600290048015613d8b5780601f10613d6057610100808354040283529160200191613d8b565b820191906000526020600020905b815481529060010190602001808311613d6e57829003601f168201915b5050505050614d38565b5b8015613e555750613e54866000808581526020019081526020016000206004018054600181600116156101000203166002900480601f016020809104026020016040519081016040528092919081815260200182805460018160011615610100020316600290048015613e4a5780601f10613e1f57610100808354040283529160200191613e4a565b820191906000526020600020905b815481529060010190602001808311613e2d57829003601f168201915b5050505050614d38565b5b8015613f145750613f13856000808581526020019081526020016000206005018054600181600116156101000203166002900480601f016020809104026020016040519081016040528092919081815260200182805460018160011615610100020316600290048015613f095780601f10613ede57610100808354040283529160200191613f09565b820191906000526020600020905b815481529060010190602001808311613eec57829003601f168201915b5050505050614d38565b5b8015613fd35750613fd2846000808581526020019081526020016000206006018054600181600116156101000203166002900480601f016020809104026020016040519081016040528092919081815260200182805460018160011615610100020316600290048015613fc85780601f10613f9d57610100808354040283529160200191613fc8565b820191906000526020600020905b815481529060010190602001808311613fab57829003601f168201915b5050505050614d38565b5b15613ff557600080838152602001908152602001600020600001549050614002565b8180600101925050613c16565b809250505095945050505050565b60606000808381526020019081526020016000206006018054600181600116156101000203166002900480601f0160208091040260200160405190810160405280929190818152602001828054600181600116156101000203166002900480156140bb5780601f10614090576101008083540402835291602001916140bb565b820191906000526020600020905b81548152906001019060200180831161409e57829003601f168201915b50505050509050919050565b6000600654905090565b600060016000838152602001908152602001600020600101549050919050565b6060600460008081526020019081526020016000206001018054600181600116156101000203166002900480601f01602080910402602001604051908101604052809291908181526020018280546001816001161561010002031660029004801561419d5780601f106141725761010080835404028352916020019161419d565b820191906000526020600020905b81548152906001019060200180831161418057829003601f168201915b5050505050905090565b6060600360008381526020019081526020016000206003018054600181600116156101000203166002900480601f0160208091040260200160405190810160405280929190818152602001828054600181600116156101000203166002900480156142535780601f1061422857610100808354040283529160200191614253565b820191906000526020600020905b81548152906001019060200180831161423657829003601f168201915b50505050509050919050565b6060600260008381526020019081526020016000206000018054600181600116156101000203166002900480601f01602080910402602001604051908101604052809291908181526020018280546001816001161561010002031660029004801561430b5780601f106142e05761010080835404028352916020019161430b565b820191906000526020600020905b8154815290600101906020018083116142ee57829003601f168201915b50505050509050919050565b6000806000905060007fffffffffffffffffffffffffffffffffffffffffffffffffffffffffffffffff90505b6008548210156144365761440684600360008581526020019081526020016000206004018054600181600116156101000203166002900480601f0160208091040260200160405190810160405280929190818152602001828054600181600116156101000203166002900480156143fc5780601f106143d1576101008083540402835291602001916143fc565b820191906000526020600020905b8154815290600101906020018083116143df57829003601f168201915b5050505050614d38565b156144295760036000838152602001908152602001600020600001549050614436565b8180600101925050614344565b8092505050919050565b6001602052806000526040600020600091509050806000015490806001015490806002015490806003018054600181600116156101000203166002900480601f0160208091040260200160405190810160405280929190818152602001828054600181600116156101000203166002900480156144fe5780601f106144d3576101008083540402835291602001916144fe565b820191906000526020600020905b8154815290600101906020018083116144e157829003601f168201915b505050505090806004018054600181600116156101000203166002900480601f01602080910402602001604051908101604052809291908181526020018280546001816001161561010002031660029004801561459c5780601f106145715761010080835404028352916020019161459c565b820191906000526020600020905b81548152906001019060200180831161457f57829003601f168201915b5050505050905085565b600060036000838152602001908152602001600020600501549050919050565b8060008084815260200190815260200160002060010190805190602001906145ef929190614eb8565b505050565b6003602052806000526040600020600091509050806000015490806001018054600181600116156101000203166002900480601f0160208091040260200160405190810160405280929190818152602001828054600181600116156101000203166002900480156146a65780601f1061467b576101008083540402835291602001916146a6565b820191906000526020600020905b81548152906001019060200180831161468957829003601f168201915b505050505090806002018054600181600116156101000203166002900480601f0160208091040260200160405190810160405280929190818152602001828054600181600116156101000203166002900480156147445780601f1061471957610100808354040283529160200191614744565b820191906000526020600020905b81548152906001019060200180831161472757829003601f168201915b505050505090806003018054600181600116156101000203166002900480601f0160208091040260200160405190810160405280929190818152602001828054600181600116156101000203166002900480156147e25780601f106147b7576101008083540402835291602001916147e2565b820191906000526020600020905b8154815290600101906020018083116147c557829003601f168201915b505050505090806004018054600181600116156101000203166002900480601f0160208091040260200160405190810160405280929190818152602001828054600181600116156101000203166002900480156148805780601f1061485557610100808354040283529160200191614880565b820191906000526020600020905b81548152906001019060200180831161486357829003601f168201915b5050505050908060050154905086565b6040518060c001604052806008548152602001868152602001858152602001848152602001838152602001828152506003600060085481526020019081526020016000206000820151816000015560208201518160010190805190602001906148fa929190614e38565b506040820151816002019080519060200190614917929190614e38565b506060820151816003019080519060200190614934929190614e38565b506080820151816004019080519060200190614951929190614e38565b5060a082015181600501559050506008600081548092919060010191905055505050505050565b6060600260008381526020019081526020016000206004018054600181600116156101000203166002900480601f016020809104026020016040519081016040528092919081815260200182805460018160011615610100020316600290048015614a245780601f106149f957610100808354040283529160200191614a24565b820191906000526020600020905b815481529060010190602001808311614a0757829003601f168201915b50505050509050919050565b6000600754905090565b6060600360008381526020019081526020016000206002018054600181600116156101000203166002900480601f016020809104026020016040519081016040528092919081815260200182805460018160011615610100020316600290048015614ae65780601f10614abb57610100808354040283529160200191614ae6565b820191906000526020600020905b815481529060010190602001808311614ac957829003601f168201915b50505050509050919050565b6060600260008381526020019081526020016000206005018054600181600116156101000203166002900480601f016020809104026020016040519081016040528092919081815260200182805460018160011615610100020316600290048015614b9e5780601f10614b7357610100808354040283529160200191614b9e565b820191906000526020600020905b815481529060010190602001808311614b8157829003601f168201915b50505050509050919050565b60606000808381526020019081526020016000206004018054600181600116156101000203166002900480601f016020809104026020016040519081016040528092919081815260200182805460018160011615610100020316600290048015614c555780601f10614c2a57610100808354040283529160200191614c55565b820191906000526020600020905b815481529060010190602001808311614c3857829003601f168201915b50505050509050919050565b600060026000838152602001908152602001600020600301549050919050565b60606000808381526020019081526020016000206003018054600181600116156101000203166002900480601f016020809104026020016040519081016040528092919081815260200182805460018160011615610100020316600290048015614d2c5780601f10614d0157610100808354040283529160200191614d2c565b820191906000526020600020905b815481529060010190602001808311614d0f57829003601f168201915b50505050509050919050565b6000816040516020018082805190602001908083835b60208310614d715780518252602082019150602081019050602083039250614d4e565b6001836020036101000a03801982511681845116808217855250505050505090500191505060405160208183030381529060405280519060200120836040516020018082805190602001908083835b60208310614de35780518252602082019150602081019050602083039250614dc0565b6001836020036101000a038019825116818451168082178552505050505050905001915050604051602081830303815290604052805190602001201415614e2d5760019050614e32565b600090505b92915050565b828054600181600116156101000203166002900490600052602060002090601f016020900481019282601f10614e7957805160ff1916838001178555614ea7565b82800160010185558215614ea7579182015b82811115614ea6578251825591602001919060010190614e8b565b5b509050614eb49190614f38565b5090565b828054600181600116156101000203166002900490600052602060002090601f016020900481019282601f10614ef957805160ff1916838001178555614f27565b82800160010185558215614f27579182015b82811115614f26578251825591602001919060010190614f0b565b5b509050614f349190614f38565b5090565b614f5a91905b80821115614f56576000816000905550600101614f3e565b5090565b9056fea265627a7a72315820ffef0648dff53a8e7c43d82ea971fe808e2e51f00aec6d213c4acf79057c621b64736f6c63430005100032",
  "source": "// SPDX-License-Identifier: MIT\r\npragma solidity >=0.4.22 <0.9.0;\r\n\r\ncontract Land {\r\n    \r\n    // structs\r\n    struct LawyerIdSellerId {\r\n\r\n        uint deedIdLink; // to link the relevant deed\r\n        uint oldLawyerId;\r\n        uint oldSellerId;\r\n        string dateStamp;\r\n        string timeStamp;\r\n    }\r\n\r\n    struct Deed {\r\n        // deed instance variables\r\n        uint deedId;\r\n        string ipfsHash;\r\n        string no;\r\n        string streetName;\r\n        string city;\r\n        string district;\r\n        string province;\r\n        uint assignedLawyerId; // to link the relevant lawyer to the deed\r\n        uint assignedSellerId; // to link the relevant seller to the deed\r\n    }\r\n\r\n    struct Lawyer{\r\n        // Lawyer instance variables\r\n        uint lawyerId;\r\n        string lawyerName;\r\n        string lawyernic;\r\n        string lawyerRegNo;\r\n        string lawyerEmail;\r\n        uint lawyerTelephoneNumber;\r\n    }\r\n\r\n    struct Seller {\r\n        // Seller instance variables\r\n        string name;\r\n\t\tuint id;\r\n\t\tstring nic;\r\n        uint age;\r\n        string city;\r\n\t\tstring email;\r\n        uint telephoneNumber;\r\n    }\r\n\r\n    struct Admin {\r\n        // Admin instance variables\r\n        uint id;\r\n        string adminPassword;\r\n    }\r\n\r\n    // mappings\r\n    mapping(uint => Deed) public deeds;\r\n    mapping(uint => LawyerIdSellerId) public deedsVersionHistory;\r\n    mapping(uint => Seller) public sellersMapping;\r\n    mapping(uint => Lawyer) public Lawyersmapping;\r\n    mapping(uint => Admin) public adminMapping;\r\n    \r\n    // Count tracking variables\r\n    uint private deedCount = 0;\r\n    uint private deedsVersionHistoryCount = 0;\r\n    uint private sellersCount = 0;\r\n    uint private lawyerCount = 0;\r\n    uint private adminCount = 0;\r\n\r\n    constructor() public {\r\n        // initializing the admin\r\n        adminMapping[adminCount] = Admin(adminCount, \"123\");\r\n        adminCount++;\r\n    }    \r\n\r\n    function getHashFromDeed(uint index) public view returns (string memory) {   \r\n        return deeds[index].ipfsHash;\r\n    }\r\n\r\n    function sendHash(uint deedId, string memory x) public {\r\n        deeds[deedId].ipfsHash = x;\r\n    }     \r\n\r\n    // getter for deed count\r\n    function getDeedCount() public view returns (uint) {\r\n        return deedCount;\r\n    }\r\n\r\n    // getter for lawyer count\r\n    function getLawyerCount() public view returns(uint){\r\n        return lawyerCount;\r\n    }\r\n\r\n    // getter for seller count\r\n    function getSellersCount() public view returns(uint){\r\n        return sellersCount;\r\n    }\r\n\r\n    // getter for admin count\r\n    function getAdminCount() public view returns(uint){\r\n        return adminCount;\r\n    }\r\n\r\n    //getters for Deed struct\r\n    function getDeedId(uint index) public view returns (uint) {\r\n        return deeds[index].deedId;\r\n    }\r\n\r\n    function getDeedNo(uint index) public view returns (string memory) {\r\n        return deeds[index].no;\r\n    }\r\n\r\n    function getDeedStreetName(uint index) public view returns (string memory) {\r\n        return deeds[index].streetName;\r\n    }\r\n\r\n    function getDeedCity(uint index) public view returns (string memory) {\r\n        return deeds[index].city;\r\n    }\r\n\r\n    function getDeedDistrict(uint index) public view returns (string memory) {\r\n        return deeds[index].district;\r\n    }\r\n\r\n    function getDeedProvince(uint index) public view returns (string memory) {\r\n        return deeds[index].province;\r\n    }\r\n\r\n    function getLawyerIdOfDeed(uint index) public view returns (uint) {\r\n        return deeds[index].assignedLawyerId;\r\n    }\r\n\r\n    function getSellerIdOfDeed(uint index) public view returns (uint) {\r\n        return deeds[index].assignedSellerId;\r\n    }\r\n\r\n    // function to compare strings\r\n    function compareStrings(string memory s1, string memory s2) private pure returns (bool) {\r\n        if (keccak256(abi.encodePacked(s1)) == keccak256(abi.encodePacked(s2)))\r\n        {\r\n            return true;\r\n        }\r\n        else \r\n        {\r\n            return false;\r\n        }\r\n    }\r\n\r\n    // function to get the deed by the land address for searching purposes\r\n    function findDeedByAddress(string memory _no, string memory _streetName, string memory _city, string memory _district, string memory _province) public view returns (int) {\r\n\r\n        uint i = 0;\r\n        int returningDeedId = -1;\r\n\r\n        while (i < deedCount)\r\n        {\r\n            if (compareStrings(_no, deeds[i].no) && compareStrings(_streetName, deeds[i].streetName) && compareStrings(_city, deeds[i].city) && compareStrings(_district, deeds[i].district) && compareStrings(_province, deeds[i].province))\r\n            {\r\n                returningDeedId = int(deeds[i].deedId);\r\n                break;\r\n            }\r\n\r\n            i++;\r\n        }\r\n\r\n        return returningDeedId;\r\n    }\r\n\r\n    // function to get the lawyer by email\r\n    function findLawyerByEmail(string memory _email) public view returns (int) {\r\n\r\n        uint i = 0;\r\n        int returningLawyerId = -1;\r\n\r\n        while (i < lawyerCount)\r\n        {\r\n            if (compareStrings(_email, Lawyersmapping[i].lawyerEmail))\r\n            {\r\n                returningLawyerId = int(Lawyersmapping[i].lawyerId);\r\n                break;\r\n            }\r\n\r\n            i++;\r\n        }\r\n\r\n        return returningLawyerId;\r\n    }\r\n\r\n    //function to get the seller by email\r\n    function findSellerByEmail(string memory _email) public view returns (int) {\r\n\r\n        uint i = 0;\r\n        int returningSellerId = -1;\r\n\r\n        while (i < sellersCount)\r\n        {\r\n            if (compareStrings(_email, sellersMapping[i].email))\r\n            {\r\n                returningSellerId = int(sellersMapping[i].id);\r\n                break;\r\n            }\r\n\r\n            i++;\r\n        }\r\n\r\n        return returningSellerId;\r\n    }\r\n\r\n    // function to change land deed buyer and seller\r\n    function changeDeedLawyerAndSeller(uint _deedId, uint _assignedLawyerId, uint _assignedSellerId, string memory _dateStamp, string memory _timeStamp) public {\r\n        // saving the previous lawyer and seller in the history\r\n        uint _oldLawyerId = deeds[_deedId].assignedLawyerId;\r\n        uint _oldSellerId = deeds[_deedId].assignedSellerId;\r\n        deedsVersionHistory[deedsVersionHistoryCount] = LawyerIdSellerId(_deedId, _oldLawyerId, _oldSellerId, _dateStamp, _timeStamp);\r\n        deedsVersionHistoryCount++;\r\n\r\n        // assigning the new lawyer and seller\r\n        deeds[_deedId].assignedLawyerId = _assignedLawyerId;\r\n        deeds[_deedId].assignedSellerId = _assignedSellerId;\r\n    }\r\n\r\n    // function to add a new deed to the deeds mapping\r\n    function addNewDeed(string memory _no, string memory _streetName, string memory _city, string memory _district, string memory _province, uint _assignedLawyerId, uint _assignedSellerId) public {\r\n        deeds[deedCount] = Deed(deedCount, \"<IPFS#>\", _no,  _streetName, _city, _district, _province, _assignedLawyerId, _assignedSellerId);\r\n        deedCount++;\r\n    }\r\n\r\n    //function to register a seller\r\n    function registerSeller(string memory _name, string memory _nic, uint _age, string memory _city, string memory _email, uint _telephoneNumber) public {\r\n        sellersMapping[sellersCount] = Seller(_name, sellersCount, _nic, _age, _city, _email, _telephoneNumber);\r\n        sellersCount++;\r\n    }\r\n\r\n    //function to register a new Lawyer\r\n    function registerLawyer(string memory _lawyerName, string memory _lawyernic, string memory _lawyerRegNo, string memory _lawyerEmail, uint _lawyerTelephoneNumber) public {\r\n        Lawyersmapping[lawyerCount] = Lawyer(lawyerCount, _lawyerName, _lawyernic, _lawyerRegNo, _lawyerEmail, _lawyerTelephoneNumber);\r\n        lawyerCount++;\r\n    }\r\n\r\n    // function to get the lawyer id\r\n    function getLawyerId(uint index) public view returns (uint) {\r\n        return Lawyersmapping[index].lawyerId;\r\n    }\r\n\r\n    // function to get the lawyer name\r\n    function getLawyerName(uint index) public view returns (string memory) {\r\n        return Lawyersmapping[index].lawyerName;\r\n    }\r\n\r\n    // function to get the lawyer nic\r\n    function getLawyerNic(uint index) public view returns (string memory) {\r\n        return Lawyersmapping[index].lawyernic;\r\n    }\r\n\r\n    // function to get the lawyer reg no\r\n    function getLawyerRegNo(uint index) public view returns (string memory) {\r\n        return Lawyersmapping[index].lawyerRegNo;\r\n    }\r\n\r\n    // function to get the lawyer email\r\n    function getLawyerEmail(uint index) public view returns (string memory) {\r\n        return Lawyersmapping[index].lawyerEmail;\r\n    }\r\n\r\n    // function to get the lawyer email\r\n    function getLawyerTelephoneNumber(uint index) public view returns (uint) {\r\n        return Lawyersmapping[index].lawyerTelephoneNumber;\r\n    }\r\n\r\n    // function to get the seller id\r\n    function getSellerId(uint index) public view returns (uint) {\r\n        return sellersMapping[index].id;\r\n    }\r\n\r\n    // function to get the seller name\r\n    function getSellerName(uint index) public view returns (string memory) {\r\n        return sellersMapping[index].name;\r\n    }\r\n\r\n    // function to get the seller nic\r\n    function getSellerNic(uint index) public view returns (string memory) {\r\n        return sellersMapping[index].nic;\r\n    }\r\n\r\n    // function to get the seller age\r\n    function getSellerAge(uint index) public view returns (uint) {\r\n        return sellersMapping[index].age;\r\n    }\r\n\r\n    // function to get the seller city\r\n    function getSellerCity(uint index) public view returns (string memory) {\r\n        return sellersMapping[index].city;\r\n    }\r\n\r\n    // function to get the seller email\r\n    function getSellerEmail(uint index) public view returns (string memory) {\r\n        return sellersMapping[index].email;\r\n    }\r\n\r\n    // function to get the seller telephonenumber\r\n    function getSellerTelephoneNo(uint index) public view returns (uint) {\r\n        return sellersMapping[index].telephoneNumber;\r\n    }\r\n    \r\n    //function to get admin id\r\n    function getAdminId() public view returns (uint) {\r\n        return adminMapping[0].id;\r\n    }\r\n\r\n    //function to get admin password\r\n    function getAdminPassword() public view returns (string memory) {\r\n        return adminMapping[0].adminPassword;\r\n    }\r\n\r\n    // function to get the deedId from the history\r\n    function getDeedIdFromHistory(uint frontendCounter) public view returns (uint) {\r\n        return deedsVersionHistory[frontendCounter].deedIdLink;\r\n    }\r\n\r\n    // function to get the lawyerId from the history\r\n    function getOldLawyerIdFromHistory(uint frontendCounter) public view returns (uint) {\r\n        return deedsVersionHistory[frontendCounter].oldLawyerId;\r\n    }\r\n\r\n    // function to get the sellerId from the history\r\n    function getOldSellerIdFromHistory(uint frontendCounter) public view returns (uint) {\r\n        return deedsVersionHistory[frontendCounter].oldSellerId;\r\n    }\r\n    \r\n    // function to get the dateStamp from the history\r\n    function getDateStampFromHistory(uint frontendCounter) public view returns (string memory) {\r\n        return deedsVersionHistory[frontendCounter].dateStamp;\r\n    }\r\n\r\n    // function to get the timeStamp from the history\r\n    function getTimeStampFromHistory(uint frontendCounter) public view returns (string memory) {\r\n        return deedsVersionHistory[frontendCounter].timeStamp;\r\n    }\r\n\r\n    // function to get the count of the history\r\n    function getHistoryCount() public view returns (uint) {\r\n        return deedsVersionHistoryCount;\r\n    }\r\n}\r\n",
  "sourcePath": "C:\\Users\\gavin\\Desktop\\DBLOCK\\frontEnd\\LandFrontEnd\\contracts\\Land.sol",
  "compiler": {
    "name": "solc",
    "version": "0.5.16+commit.9c3226ce.Emscripten.clang"
  },
  "schemaVersion": "3.4.4",
  "updatedAt": "2022-04-07T18:58:45.957Z",
  "networkType": "ethereum",
  "devdoc": {
    "methods": {}
  },
  "userdoc": {
    "methods": {}
  }
}