{
  "contractName": "Land",
  "abi": [
    {
      "constant": true,
      "inputs": [
        {
          "internalType": "uint256",
          "name": "",
          "type": "uint256"
        }
      ],
      "name": "Buyerlist",
      "outputs": [
        {
          "internalType": "address",
          "name": "",
          "type": "address"
        }
      ],
      "payable": false,
      "stateMutability": "view",
      "type": "function"
    },
    {
      "constant": true,
      "inputs": [
        {
          "internalType": "uint256",
          "name": "",
          "type": "uint256"
        }
      ],
      "name": "Buyersmapping",
      "outputs": [
        {
          "internalType": "uint256",
          "name": "id",
          "type": "uint256"
        },
        {
          "internalType": "string",
          "name": "nic",
          "type": "string"
        },
        {
          "internalType": "string",
          "name": "name",
          "type": "string"
        },
        {
          "internalType": "uint256",
          "name": "age",
          "type": "uint256"
        },
        {
          "internalType": "string",
          "name": "city",
          "type": "string"
        },
        {
          "internalType": "string",
          "name": "email",
          "type": "string"
        }
      ],
      "payable": false,
      "stateMutability": "view",
      "type": "function"
    },
    {
      "constant": true,
      "inputs": [
        {
          "internalType": "uint256",
          "name": "",
          "type": "uint256"
        }
      ],
      "name": "Lawyersmapping",
      "outputs": [
        {
          "internalType": "uint256",
          "name": "lawyerId",
          "type": "uint256"
        },
        {
          "internalType": "string",
          "name": "lawyerName",
          "type": "string"
        },
        {
          "internalType": "string",
          "name": "lawyernic",
          "type": "string"
        },
        {
          "internalType": "string",
          "name": "lawyerRegNo",
          "type": "string"
        },
        {
          "internalType": "string",
          "name": "lawyerEmail",
          "type": "string"
        }
      ],
      "payable": false,
      "stateMutability": "view",
      "type": "function"
    },
    {
      "constant": true,
      "inputs": [
        {
          "internalType": "uint256",
          "name": "",
          "type": "uint256"
        }
      ],
      "name": "adminMapping",
      "outputs": [
        {
          "internalType": "uint256",
          "name": "id",
          "type": "uint256"
        }
      ],
      "payable": false,
      "stateMutability": "view",
      "type": "function"
    },
    {
      "constant": true,
      "inputs": [
        {
          "internalType": "uint256",
          "name": "",
          "type": "uint256"
        }
      ],
      "name": "deeds",
      "outputs": [
        {
          "internalType": "uint256",
          "name": "deedId",
          "type": "uint256"
        },
        {
          "internalType": "string",
          "name": "no",
          "type": "string"
        },
        {
          "internalType": "string",
          "name": "streetName",
          "type": "string"
        },
        {
          "internalType": "string",
          "name": "city",
          "type": "string"
        },
        {
          "internalType": "string",
          "name": "district",
          "type": "string"
        },
        {
          "internalType": "string",
          "name": "province",
          "type": "string"
        },
        {
          "internalType": "uint256",
          "name": "assignedLawyerId",
          "type": "uint256"
        },
        {
          "internalType": "uint256",
          "name": "assignedSellerId",
          "type": "uint256"
        }
      ],
      "payable": false,
      "stateMutability": "view",
      "type": "function"
    },
    {
      "constant": true,
      "inputs": [
        {
          "internalType": "uint256",
          "name": "",
          "type": "uint256"
        }
      ],
      "name": "lawyerList",
      "outputs": [
        {
          "internalType": "address",
          "name": "",
          "type": "address"
        }
      ],
      "payable": false,
      "stateMutability": "view",
      "type": "function"
    },
    {
      "constant": true,
      "inputs": [
        {
          "internalType": "uint256",
          "name": "",
          "type": "uint256"
        }
      ],
      "name": "sellerList",
      "outputs": [
        {
          "internalType": "address",
          "name": "",
          "type": "address"
        }
      ],
      "payable": false,
      "stateMutability": "view",
      "type": "function"
    },
    {
      "constant": true,
      "inputs": [
        {
          "internalType": "uint256",
          "name": "",
          "type": "uint256"
        }
      ],
      "name": "sellersMapping",
      "outputs": [
        {
          "internalType": "string",
          "name": "name",
          "type": "string"
        },
        {
          "internalType": "uint256",
          "name": "id",
          "type": "uint256"
        },
        {
          "internalType": "string",
          "name": "nic",
          "type": "string"
        },
        {
          "internalType": "uint256",
          "name": "age",
          "type": "uint256"
        },
        {
          "internalType": "string",
          "name": "city",
          "type": "string"
        },
        {
          "internalType": "string",
          "name": "email",
          "type": "string"
        }
      ],
      "payable": false,
      "stateMutability": "view",
      "type": "function"
    },
    {
      "constant": true,
      "inputs": [],
      "name": "getDeedCount",
      "outputs": [
        {
          "internalType": "uint256",
          "name": "",
          "type": "uint256"
        }
      ],
      "payable": false,
      "stateMutability": "view",
      "type": "function"
    },
    {
      "constant": true,
      "inputs": [],
      "name": "getBuyersCount",
      "outputs": [
        {
          "internalType": "uint256",
          "name": "",
          "type": "uint256"
        }
      ],
      "payable": false,
      "stateMutability": "view",
      "type": "function"
    },
    {
      "constant": true,
      "inputs": [],
      "name": "getLawyerCount",
      "outputs": [
        {
          "internalType": "uint256",
          "name": "",
          "type": "uint256"
        }
      ],
      "payable": false,
      "stateMutability": "view",
      "type": "function"
    },
    {
      "constant": true,
      "inputs": [],
      "name": "getSellersCount",
      "outputs": [
        {
          "internalType": "uint256",
          "name": "",
          "type": "uint256"
        }
      ],
      "payable": false,
      "stateMutability": "view",
      "type": "function"
    },
    {
      "constant": true,
      "inputs": [],
      "name": "getAdminCount",
      "outputs": [
        {
          "internalType": "uint256",
          "name": "",
          "type": "uint256"
        }
      ],
      "payable": false,
      "stateMutability": "view",
      "type": "function"
    },
    {
      "constant": true,
      "inputs": [
        {
          "internalType": "uint256",
          "name": "index",
          "type": "uint256"
        }
      ],
      "name": "getDeedId",
      "outputs": [
        {
          "internalType": "uint256",
          "name": "",
          "type": "uint256"
        }
      ],
      "payable": false,
      "stateMutability": "view",
      "type": "function"
    },
    {
      "constant": true,
      "inputs": [
        {
          "internalType": "uint256",
          "name": "index",
          "type": "uint256"
        }
      ],
      "name": "getDeedNo",
      "outputs": [
        {
          "internalType": "string",
          "name": "",
          "type": "string"
        }
      ],
      "payable": false,
      "stateMutability": "view",
      "type": "function"
    },
    {
      "constant": true,
      "inputs": [
        {
          "internalType": "uint256",
          "name": "index",
          "type": "uint256"
        }
      ],
      "name": "getDeedStreetName",
      "outputs": [
        {
          "internalType": "string",
          "name": "",
          "type": "string"
        }
      ],
      "payable": false,
      "stateMutability": "view",
      "type": "function"
    },
    {
      "constant": true,
      "inputs": [
        {
          "internalType": "uint256",
          "name": "index",
          "type": "uint256"
        }
      ],
      "name": "getDeedCity",
      "outputs": [
        {
          "internalType": "string",
          "name": "",
          "type": "string"
        }
      ],
      "payable": false,
      "stateMutability": "view",
      "type": "function"
    },
    {
      "constant": true,
      "inputs": [
        {
          "internalType": "uint256",
          "name": "index",
          "type": "uint256"
        }
      ],
      "name": "getDeedDistrict",
      "outputs": [
        {
          "internalType": "string",
          "name": "",
          "type": "string"
        }
      ],
      "payable": false,
      "stateMutability": "view",
      "type": "function"
    },
    {
      "constant": true,
      "inputs": [
        {
          "internalType": "uint256",
          "name": "index",
          "type": "uint256"
        }
      ],
      "name": "getDeedProvince",
      "outputs": [
        {
          "internalType": "string",
          "name": "",
          "type": "string"
        }
      ],
      "payable": false,
      "stateMutability": "view",
      "type": "function"
    },
    {
      "constant": true,
      "inputs": [
        {
          "internalType": "uint256",
          "name": "index",
          "type": "uint256"
        }
      ],
      "name": "getLawyerIdOfDeed",
      "outputs": [
        {
          "internalType": "uint256",
          "name": "",
          "type": "uint256"
        }
      ],
      "payable": false,
      "stateMutability": "view",
      "type": "function"
    },
    {
      "constant": true,
      "inputs": [
        {
          "internalType": "uint256",
          "name": "index",
          "type": "uint256"
        }
      ],
      "name": "getSellerIdOfDeed",
      "outputs": [
        {
          "internalType": "uint256",
          "name": "",
          "type": "uint256"
        }
      ],
      "payable": false,
      "stateMutability": "view",
      "type": "function"
    },
    {
      "constant": true,
      "inputs": [
        {
          "internalType": "string",
          "name": "_no",
          "type": "string"
        },
        {
          "internalType": "string",
          "name": "_streetName",
          "type": "string"
        },
        {
          "internalType": "string",
          "name": "_city",
          "type": "string"
        },
        {
          "internalType": "string",
          "name": "_district",
          "type": "string"
        },
        {
          "internalType": "string",
          "name": "_province",
          "type": "string"
        }
      ],
      "name": "findDeedByAddress",
      "outputs": [
        {
          "internalType": "uint256",
          "name": "",
          "type": "uint256"
        }
      ],
      "payable": false,
      "stateMutability": "view",
      "type": "function"
    },
    {
      "constant": true,
      "inputs": [],
      "name": "getBuyer",
      "outputs": [
        {
          "internalType": "address[]",
          "name": "",
          "type": "address[]"
        }
      ],
      "payable": false,
      "stateMutability": "view",
      "type": "function"
    },
    {
      "constant": true,
      "inputs": [],
      "name": "getSeller",
      "outputs": [
        {
          "internalType": "address[]",
          "name": "",
          "type": "address[]"
        }
      ],
      "payable": false,
      "stateMutability": "view",
      "type": "function"
    },
    {
      "constant": true,
      "inputs": [],
      "name": "getLawyer",
      "outputs": [
        {
          "internalType": "address[]",
          "name": "",
          "type": "address[]"
        }
      ],
      "payable": false,
      "stateMutability": "view",
      "type": "function"
    },
    {
      "constant": false,
      "inputs": [
        {
          "internalType": "string",
          "name": "_no",
          "type": "string"
        },
        {
          "internalType": "string",
          "name": "_streetName",
          "type": "string"
        },
        {
          "internalType": "string",
          "name": "_city",
          "type": "string"
        },
        {
          "internalType": "string",
          "name": "_district",
          "type": "string"
        },
        {
          "internalType": "string",
          "name": "_province",
          "type": "string"
        },
        {
          "internalType": "uint256",
          "name": "_assignedLawyerId",
          "type": "uint256"
        },
        {
          "internalType": "uint256",
          "name": "_assignedSellerId",
          "type": "uint256"
        }
      ],
      "name": "addNewDeed",
      "outputs": [],
      "payable": false,
      "stateMutability": "nonpayable",
      "type": "function"
    },
    {
      "constant": false,
      "inputs": [
        {
          "internalType": "uint256",
          "name": "_id",
          "type": "uint256"
        },
        {
          "internalType": "string",
          "name": "_nic",
          "type": "string"
        },
        {
          "internalType": "string",
          "name": "_name",
          "type": "string"
        },
        {
          "internalType": "uint256",
          "name": "_age",
          "type": "uint256"
        },
        {
          "internalType": "string",
          "name": "_city",
          "type": "string"
        },
        {
          "internalType": "string",
          "name": "_email",
          "type": "string"
        }
      ],
      "name": "registerBuyer",
      "outputs": [],
      "payable": false,
      "stateMutability": "nonpayable",
      "type": "function"
    },
    {
      "constant": false,
      "inputs": [
        {
          "internalType": "string",
          "name": "_name",
          "type": "string"
        },
        {
          "internalType": "uint256",
          "name": "_id",
          "type": "uint256"
        },
        {
          "internalType": "string",
          "name": "_nic",
          "type": "string"
        },
        {
          "internalType": "uint256",
          "name": "_age",
          "type": "uint256"
        },
        {
          "internalType": "string",
          "name": "_city",
          "type": "string"
        },
        {
          "internalType": "string",
          "name": "_email",
          "type": "string"
        }
      ],
      "name": "registerSeller",
      "outputs": [],
      "payable": false,
      "stateMutability": "nonpayable",
      "type": "function"
    },
    {
      "constant": false,
      "inputs": [
        {
          "internalType": "uint256",
          "name": "_lawyerId",
          "type": "uint256"
        },
        {
          "internalType": "string",
          "name": "_lawyerName",
          "type": "string"
        },
        {
          "internalType": "string",
          "name": "_lawyernic",
          "type": "string"
        },
        {
          "internalType": "string",
          "name": "_lawyerRegNo",
          "type": "string"
        },
        {
          "internalType": "string",
          "name": "_lawyerEmail",
          "type": "string"
        }
      ],
      "name": "registerLawyer",
      "outputs": [],
      "payable": false,
      "stateMutability": "nonpayable",
      "type": "function"
    },
    {
      "constant": true,
      "inputs": [
        {
          "internalType": "uint256",
          "name": "index",
          "type": "uint256"
        }
      ],
      "name": "displayBuyer",
      "outputs": [
        {
          "internalType": "uint256",
          "name": "_id",
          "type": "uint256"
        },
        {
          "internalType": "string",
          "name": "_nic",
          "type": "string"
        },
        {
          "internalType": "string",
          "name": "_name",
          "type": "string"
        },
        {
          "internalType": "uint256",
          "name": "_age",
          "type": "uint256"
        },
        {
          "internalType": "string",
          "name": "_city",
          "type": "string"
        },
        {
          "internalType": "string",
          "name": "_email",
          "type": "string"
        }
      ],
      "payable": false,
      "stateMutability": "view",
      "type": "function"
    },
    {
      "constant": true,
      "inputs": [
        {
          "internalType": "uint256",
          "name": "index",
          "type": "uint256"
        }
      ],
      "name": "displaySeller",
      "outputs": [
        {
          "internalType": "string",
          "name": "_name",
          "type": "string"
        },
        {
          "internalType": "uint256",
          "name": "_id",
          "type": "uint256"
        },
        {
          "internalType": "string",
          "name": "_nic",
          "type": "string"
        },
        {
          "internalType": "uint256",
          "name": "_age",
          "type": "uint256"
        },
        {
          "internalType": "string",
          "name": "_city",
          "type": "string"
        },
        {
          "internalType": "string",
          "name": "_email",
          "type": "string"
        }
      ],
      "payable": false,
      "stateMutability": "view",
      "type": "function"
    },
    {
      "constant": true,
      "inputs": [
        {
          "internalType": "uint256",
          "name": "index",
          "type": "uint256"
        }
      ],
      "name": "displayLawyer",
      "outputs": [
        {
          "internalType": "uint256",
          "name": "_lawyerId",
          "type": "uint256"
        },
        {
          "internalType": "string",
          "name": "_lawyerName",
          "type": "string"
        },
        {
          "internalType": "string",
          "name": "_lawyernic",
          "type": "string"
        },
        {
          "internalType": "string",
          "name": "_lawyerRegNo",
          "type": "string"
        },
        {
          "internalType": "string",
          "name": "_lawyerEmail",
          "type": "string"
        }
      ],
      "payable": false,
      "stateMutability": "view",
      "type": "function"
    }
  ],
  "bytecode": "0x6080604052600060085560006009556000600a556000600b556000600c5534801561002957600080fd5b506149e9806100396000396000f3fe608060405234801561001057600080fd5b50600436106101f05760003560e01c80637c6eb1031161010f578063cff0c7c0116100a2578063f0b93af911610071578063f0b93af91461239f578063f0d3a9df14612446578063f42a1b3114612464578063ffb434fb146124d2576101f0565b8063cff0c7c014611f37578063dbd0e1b614612129578063dd9d122d14612188578063e5137459146121a6576101f0565b8063916a1c70116100de578063916a1c70146118fe57806393addc081461196c5780639614681b14611b655780639cd681f514611e90576101f0565b80637c6eb103146113f457806380014029146115ed5780638b7bf3eb1461164c5780638d0968551461166a576101f0565b8063334bb745116101875780635dd56798116101565780635dd567981461100a578063603daf9a1461104c578063655dc4c2146110ab578063721fa418146110c9576101f0565b8063334bb74514610b2457806335a82e7214610b4257806342da3b1a14610b8457806355bb2bcc14610e18576101f0565b806321eb5a7c116101c357806321eb5a7c146105b8578063275ea7cf146105fa57806327dc19dd146107f357806332a6785314610a7d576101f0565b806305624d35146101f55780630df7ec241461029c578063119d41f4146102de57806318edf5641461034c575b600080fd5b6102216004803603602081101561020b57600080fd5b8101908080359060200190929190505050612579565b6040518080602001828103825283818151815260200191508051906020019080838360005b83811015610261578082015181840152602081019050610246565b50505050905090810190601f16801561028e5780820380516001836020036101000a031916815260200191505b509250505060405180910390f35b6102c8600480360360208110156102b257600080fd5b8101908080359060200190929190505050612630565b6040518082815260200191505060405180910390f35b61030a600480360360208110156102f457600080fd5b810190808035906020019092919050505061264f565b604051808273ffffffffffffffffffffffffffffffffffffffff1673ffffffffffffffffffffffffffffffffffffffff16815260200191505060405180910390f35b6103786004803603602081101561036257600080fd5b810190808035906020019092919050505061268b565b60405180898152602001806020018060200180602001806020018060200188815260200187815260200186810386528d818151815260200191508051906020019080838360005b838110156103da5780820151818401526020810190506103bf565b50505050905090810190601f1680156104075780820380516001836020036101000a031916815260200191505b5086810385528c818151815260200191508051906020019080838360005b83811015610440578082015181840152602081019050610425565b50505050905090810190601f16801561046d5780820380516001836020036101000a031916815260200191505b5086810384528b818151815260200191508051906020019080838360005b838110156104a657808201518184015260208101905061048b565b50505050905090810190601f1680156104d35780820380516001836020036101000a031916815260200191505b5086810383528a818151815260200191508051906020019080838360005b8381101561050c5780820151818401526020810190506104f1565b50505050905090810190601f1680156105395780820380516001836020036101000a031916815260200191505b50868103825289818151815260200191508051906020019080838360005b83811015610572578082015181840152602081019050610557565b50505050905090810190601f16801561059f5780820380516001836020036101000a031916815260200191505b509d505050505050505050505050505060405180910390f35b6105e4600480360360208110156105ce57600080fd5b81019080803590602001909291905050506129cb565b6040518082815260200191505060405180910390f35b6106266004803603602081101561061057600080fd5b81019080803590602001909291905050506129e9565b604051808781526020018060200180602001868152602001806020018060200185810385528a818151815260200191508051906020019080838360005b8381101561067e578082015181840152602081019050610663565b50505050905090810190601f1680156106ab5780820380516001836020036101000a031916815260200191505b50858103845289818151815260200191508051906020019080838360005b838110156106e45780820151818401526020810190506106c9565b50505050905090810190601f1680156107115780820380516001836020036101000a031916815260200191505b50858103835287818151815260200191508051906020019080838360005b8381101561074a57808201518184015260208101905061072f565b50505050905090810190601f1680156107775780820380516001836020036101000a031916815260200191505b50858103825286818151815260200191508051906020019080838360005b838110156107b0578082015181840152602081019050610795565b50505050905090810190601f1680156107dd5780820380516001836020036101000a031916815260200191505b509a505050505050505050505060405180910390f35b610a7b600480360360a081101561080957600080fd5b81019080803590602001909291908035906020019064010000000081111561083057600080fd5b82018360208201111561084257600080fd5b8035906020019184600183028401116401000000008311171561086457600080fd5b91908080601f016020809104026020016040519081016040528093929190818152602001838380828437600081840152601f19601f820116905080830192505050505050509192919290803590602001906401000000008111156108c757600080fd5b8201836020820111156108d957600080fd5b803590602001918460018302840111640100000000831117156108fb57600080fd5b91908080601f016020809104026020016040519081016040528093929190818152602001838380828437600081840152601f19601f8201169050808301925050505050505091929192908035906020019064010000000081111561095e57600080fd5b82018360208201111561097057600080fd5b8035906020019184600183028401116401000000008311171561099257600080fd5b91908080601f016020809104026020016040519081016040528093929190818152602001838380828437600081840152601f19601f820116905080830192505050505050509192919290803590602001906401000000008111156109f557600080fd5b820183602082011115610a0757600080fd5b80359060200191846001830284011164010000000083111715610a2957600080fd5b91908080601f016020809104026020016040519081016040528093929190818152602001838380828437600081840152601f19601f820116905080830192505050505050509192919290505050612cfe565b005b610aa960048036036020811015610a9357600080fd5b8101908080359060200190929190505050612dd4565b6040518080602001828103825283818151815260200191508051906020019080838360005b83811015610ae9578082015181840152602081019050610ace565b50505050905090810190601f168015610b165780820380516001836020036101000a031916815260200191505b509250505060405180910390f35b610b2c612e8b565b6040518082815260200191505060405180910390f35b610b6e60048036036020811015610b5857600080fd5b8101908080359060200190929190505050612e95565b6040518082815260200191505060405180910390f35b610e16600480360360c0811015610b9a57600080fd5b8101908080359060200190640100000000811115610bb757600080fd5b820183602082011115610bc957600080fd5b80359060200191846001830284011164010000000083111715610beb57600080fd5b91908080601f016020809104026020016040519081016040528093929190818152602001838380828437600081840152601f19601f8201169050808301925050505050505091929192908035906020019092919080359060200190640100000000811115610c5857600080fd5b820183602082011115610c6a57600080fd5b80359060200191846001830284011164010000000083111715610c8c57600080fd5b91908080601f016020809104026020016040519081016040528093929190818152602001838380828437600081840152601f19601f8201169050808301925050505050505091929192908035906020019092919080359060200190640100000000811115610cf957600080fd5b820183602082011115610d0b57600080fd5b80359060200191846001830284011164010000000083111715610d2d57600080fd5b91908080601f016020809104026020016040519081016040528093929190818152602001838380828437600081840152601f19601f82011690508083019250505050505050919291929080359060200190640100000000811115610d9057600080fd5b820183602082011115610da257600080fd5b80359060200191846001830284011164010000000083111715610dc457600080fd5b91908080601f016020809104026020016040519081016040528093929190818152602001838380828437600081840152601f19601f820116905080830192505050505050509192919290505050612eb4565b005b610e4460048036036020811015610e2e57600080fd5b8101908080359060200190929190505050612f9b565b6040518086815260200180602001806020018060200180602001858103855289818151815260200191508051906020019080838360005b83811015610e96578082015181840152602081019050610e7b565b50505050905090810190601f168015610ec35780820380516001836020036101000a031916815260200191505b50858103845288818151815260200191508051906020019080838360005b83811015610efc578082015181840152602081019050610ee1565b50505050905090810190601f168015610f295780820380516001836020036101000a031916815260200191505b50858103835287818151815260200191508051906020019080838360005b83811015610f62578082015181840152602081019050610f47565b50505050905090810190601f168015610f8f5780820380516001836020036101000a031916815260200191505b50858103825286818151815260200191508051906020019080838360005b83811015610fc8578082015181840152602081019050610fad565b50505050905090810190601f168015610ff55780820380516001836020036101000a031916815260200191505b50995050505050505050505060405180910390f35b6110366004803603602081101561102057600080fd5b8101908080359060200190929190505050613295565b6040518082815260200191505060405180910390f35b6110546132b4565b6040518080602001828103825283818151815260200191508051906020019060200280838360005b8381101561109757808201518184015260208101905061107c565b505050509050019250505060405180910390f35b6110b3613342565b6040518082815260200191505060405180910390f35b6113f2600480360360e08110156110df57600080fd5b81019080803590602001906401000000008111156110fc57600080fd5b82018360208201111561110e57600080fd5b8035906020019184600183028401116401000000008311171561113057600080fd5b91908080601f016020809104026020016040519081016040528093929190818152602001838380828437600081840152601f19601f8201169050808301925050505050505091929192908035906020019064010000000081111561119357600080fd5b8201836020820111156111a557600080fd5b803590602001918460018302840111640100000000831117156111c757600080fd5b91908080601f016020809104026020016040519081016040528093929190818152602001838380828437600081840152601f19601f8201169050808301925050505050505091929192908035906020019064010000000081111561122a57600080fd5b82018360208201111561123c57600080fd5b8035906020019184600183028401116401000000008311171561125e57600080fd5b91908080601f016020809104026020016040519081016040528093929190818152602001838380828437600081840152601f19601f820116905080830192505050505050509192919290803590602001906401000000008111156112c157600080fd5b8201836020820111156112d357600080fd5b803590602001918460018302840111640100000000831117156112f557600080fd5b91908080601f016020809104026020016040519081016040528093929190818152602001838380828437600081840152601f19601f8201169050808301925050505050505091929192908035906020019064010000000081111561135857600080fd5b82018360208201111561136a57600080fd5b8035906020019184600183028401116401000000008311171561138c57600080fd5b91908080601f016020809104026020016040519081016040528093929190818152602001838380828437600081840152601f19601f820116905080830192505050505050509192919290803590602001909291908035906020019092919050505061334c565b005b6114206004803603602081101561140a57600080fd5b8101908080359060200190929190505050613469565b604051808060200187815260200180602001868152602001806020018060200185810385528b818151815260200191508051906020019080838360005b8381101561147857808201518184015260208101905061145d565b50505050905090810190601f1680156114a55780820380516001836020036101000a031916815260200191505b50858103845289818151815260200191508051906020019080838360005b838110156114de5780820151818401526020810190506114c3565b50505050905090810190601f16801561150b5780820380516001836020036101000a031916815260200191505b50858103835287818151815260200191508051906020019080838360005b83811015611544578082015181840152602081019050611529565b50505050905090810190601f1680156115715780820380516001836020036101000a031916815260200191505b50858103825286818151815260200191508051906020019080838360005b838110156115aa57808201518184015260208101905061158f565b50505050905090810190601f1680156115d75780820380516001836020036101000a031916815260200191505b509a505050505050505050505060405180910390f35b6115f5613705565b6040518080602001828103825283818151815260200191508051906020019060200280838360005b8381101561163857808201518184015260208101905061161d565b505050509050019250505060405180910390f35b611654613793565b6040518082815260200191505060405180910390f35b6118fc600480360360c081101561168057600080fd5b8101908080359060200190929190803590602001906401000000008111156116a757600080fd5b8201836020820111156116b957600080fd5b803590602001918460018302840111640100000000831117156116db57600080fd5b91908080601f016020809104026020016040519081016040528093929190818152602001838380828437600081840152601f19601f8201169050808301925050505050505091929192908035906020019064010000000081111561173e57600080fd5b82018360208201111561175057600080fd5b8035906020019184600183028401116401000000008311171561177257600080fd5b91908080601f016020809104026020016040519081016040528093929190818152602001838380828437600081840152601f19601f82011690508083019250505050505050919291929080359060200190929190803590602001906401000000008111156117df57600080fd5b8201836020820111156117f157600080fd5b8035906020019184600183028401116401000000008311171561181357600080fd5b91908080601f016020809104026020016040519081016040528093929190818152602001838380828437600081840152601f19601f8201169050808301925050505050505091929192908035906020019064010000000081111561187657600080fd5b82018360208201111561188857600080fd5b803590602001918460018302840111640100000000831117156118aa57600080fd5b91908080601f016020809104026020016040519081016040528093929190818152602001838380828437600081840152601f19601f82011690508083019250505050505050919291929050505061379d565b005b61192a6004803603602081101561191457600080fd5b8101908080359060200190929190505050613884565b604051808273ffffffffffffffffffffffffffffffffffffffff1673ffffffffffffffffffffffffffffffffffffffff16815260200191505060405180910390f35b6119986004803603602081101561198257600080fd5b81019080803590602001909291905050506138c0565b604051808781526020018060200180602001868152602001806020018060200185810385528a818151815260200191508051906020019080838360005b838110156119f05780820151818401526020810190506119d5565b50505050905090810190601f168015611a1d5780820380516001836020036101000a031916815260200191505b50858103845289818151815260200191508051906020019080838360005b83811015611a56578082015181840152602081019050611a3b565b50505050905090810190601f168015611a835780820380516001836020036101000a031916815260200191505b50858103835287818151815260200191508051906020019080838360005b83811015611abc578082015181840152602081019050611aa1565b50505050905090810190601f168015611ae95780820380516001836020036101000a031916815260200191505b50858103825286818151815260200191508051906020019080838360005b83811015611b22578082015181840152602081019050611b07565b50505050905090810190601f168015611b4f5780820380516001836020036101000a031916815260200191505b509a505050505050505050505060405180910390f35b611e7a600480360360a0811015611b7b57600080fd5b8101908080359060200190640100000000811115611b9857600080fd5b820183602082011115611baa57600080fd5b80359060200191846001830284011164010000000083111715611bcc57600080fd5b91908080601f016020809104026020016040519081016040528093929190818152602001838380828437600081840152601f19601f82011690508083019250505050505050919291929080359060200190640100000000811115611c2f57600080fd5b820183602082011115611c4157600080fd5b80359060200191846001830284011164010000000083111715611c6357600080fd5b91908080601f016020809104026020016040519081016040528093929190818152602001838380828437600081840152601f19601f82011690508083019250505050505050919291929080359060200190640100000000811115611cc657600080fd5b820183602082011115611cd857600080fd5b80359060200191846001830284011164010000000083111715611cfa57600080fd5b91908080601f016020809104026020016040519081016040528093929190818152602001838380828437600081840152601f19601f82011690508083019250505050505050919291929080359060200190640100000000811115611d5d57600080fd5b820183602082011115611d6f57600080fd5b80359060200191846001830284011164010000000083111715611d9157600080fd5b91908080601f016020809104026020016040519081016040528093929190818152602001838380828437600081840152601f19601f82011690508083019250505050505050919291929080359060200190640100000000811115611df457600080fd5b820183602082011115611e0657600080fd5b80359060200191846001830284011164010000000083111715611e2857600080fd5b91908080601f016020809104026020016040519081016040528093929190818152602001838380828437600081840152601f19601f820116905080830192505050505050509192919290505050613b5c565b6040518082815260200191505060405180910390f35b611ebc60048036036020811015611ea657600080fd5b8101908080359060200190929190505050613f60565b6040518080602001828103825283818151815260200191508051906020019080838360005b83811015611efc578082015181840152602081019050611ee1565b50505050905090810190601f168015611f295780820380516001836020036101000a031916815260200191505b509250505060405180910390f35b611f6360048036036020811015611f4d57600080fd5b8101908080359060200190929190505050614017565b6040518086815260200180602001806020018060200180602001858103855289818151815260200191508051906020019080838360005b83811015611fb5578082015181840152602081019050611f9a565b50505050905090810190601f168015611fe25780820380516001836020036101000a031916815260200191505b50858103845288818151815260200191508051906020019080838360005b8381101561201b578082015181840152602081019050612000565b50505050905090810190601f1680156120485780820380516001836020036101000a031916815260200191505b50858103835287818151815260200191508051906020019080838360005b83811015612081578082015181840152602081019050612066565b50505050905090810190601f1680156120ae5780820380516001836020036101000a031916815260200191505b50858103825286818151815260200191508051906020019080838360005b838110156120e75780820151818401526020810190506120cc565b50505050905090810190601f1680156121145780820380516001836020036101000a031916815260200191505b50995050505050505050505060405180910390f35b6121316142ad565b6040518080602001828103825283818151815260200191508051906020019060200280838360005b83811015612174578082015181840152602081019050612159565b505050509050019250505060405180910390f35b61219061433b565b6040518082815260200191505060405180910390f35b6121d2600480360360208110156121bc57600080fd5b8101908080359060200190929190505050614345565b604051808060200187815260200180602001868152602001806020018060200185810385528b818151815260200191508051906020019080838360005b8381101561222a57808201518184015260208101905061220f565b50505050905090810190601f1680156122575780820380516001836020036101000a031916815260200191505b50858103845289818151815260200191508051906020019080838360005b83811015612290578082015181840152602081019050612275565b50505050905090810190601f1680156122bd5780820380516001836020036101000a031916815260200191505b50858103835287818151815260200191508051906020019080838360005b838110156122f65780820151818401526020810190506122db565b50505050905090810190601f1680156123235780820380516001836020036101000a031916815260200191505b50858103825286818151815260200191508051906020019080838360005b8381101561235c578082015181840152602081019050612341565b50505050905090810190601f1680156123895780820380516001836020036101000a031916815260200191505b509a505050505050505050505060405180910390f35b6123cb600480360360208110156123b557600080fd5b810190808035906020019092919050505061465b565b6040518080602001828103825283818151815260200191508051906020019080838360005b8381101561240b5780820151818401526020810190506123f0565b50505050905090810190601f1680156124385780820380516001836020036101000a031916815260200191505b509250505060405180910390f35b61244e614712565b6040518082815260200191505060405180910390f35b6124906004803603602081101561247a57600080fd5b810190808035906020019092919050505061471c565b604051808273ffffffffffffffffffffffffffffffffffffffff1673ffffffffffffffffffffffffffffffffffffffff16815260200191505060405180910390f35b6124fe600480360360208110156124e857600080fd5b8101908080359060200190929190505050614758565b6040518080602001828103825283818151815260200191508051906020019080838360005b8381101561253e578082015181840152602081019050612523565b50505050905090810190601f16801561256b5780820380516001836020036101000a031916815260200191505b509250505060405180910390f35b60606000808381526020019081526020016000206004018054600181600116156101000203166002900480601f0160208091040260200160405190810160405280929190818152602001828054600181600116156101000203166002900480156126245780601f106125f957610100808354040283529160200191612624565b820191906000526020600020905b81548152906001019060200180831161260757829003601f168201915b50505050509050919050565b6000806000838152602001908152602001600020600001549050919050565b6005818154811061265c57fe5b906000526020600020016000915054906101000a900473ffffffffffffffffffffffffffffffffffffffff1681565b6000602052806000526040600020600091509050806000015490806001018054600181600116156101000203166002900480601f01602080910402602001604051908101604052809291908181526020018280546001816001161561010002031660029004801561273d5780601f106127125761010080835404028352916020019161273d565b820191906000526020600020905b81548152906001019060200180831161272057829003601f168201915b505050505090806002018054600181600116156101000203166002900480601f0160208091040260200160405190810160405280929190818152602001828054600181600116156101000203166002900480156127db5780601f106127b0576101008083540402835291602001916127db565b820191906000526020600020905b8154815290600101906020018083116127be57829003601f168201915b505050505090806003018054600181600116156101000203166002900480601f0160208091040260200160405190810160405280929190818152602001828054600181600116156101000203166002900480156128795780601f1061284e57610100808354040283529160200191612879565b820191906000526020600020905b81548152906001019060200180831161285c57829003601f168201915b505050505090806004018054600181600116156101000203166002900480601f0160208091040260200160405190810160405280929190818152602001828054600181600116156101000203166002900480156129175780601f106128ec57610100808354040283529160200191612917565b820191906000526020600020905b8154815290600101906020018083116128fa57829003601f168201915b505050505090806005018054600181600116156101000203166002900480601f0160208091040260200160405190810160405280929190818152602001828054600181600116156101000203166002900480156129b55780601f1061298a576101008083540402835291602001916129b5565b820191906000526020600020905b81548152906001019060200180831161299857829003601f168201915b5050505050908060060154908060070154905088565b60046020528060005260406000206000915090508060000154905081565b60006060806000606080600160008881526020019081526020016000206000015460016000898152602001908152602001600020600101600160008a8152602001908152602001600020600201600160008b815260200190815260200160002060030154600160008c8152602001908152602001600020600401600160008d8152602001908152602001600020600501848054600181600116156101000203166002900480601f016020809104026020016040519081016040528092919081815260200182805460018160011615610100020316600290048015612b0e5780601f10612ae357610100808354040283529160200191612b0e565b820191906000526020600020905b815481529060010190602001808311612af157829003601f168201915b50505050509450838054600181600116156101000203166002900480601f016020809104026020016040519081016040528092919081815260200182805460018160011615610100020316600290048015612baa5780601f10612b7f57610100808354040283529160200191612baa565b820191906000526020600020905b815481529060010190602001808311612b8d57829003601f168201915b50505050509350818054600181600116156101000203166002900480601f016020809104026020016040519081016040528092919081815260200182805460018160011615610100020316600290048015612c465780601f10612c1b57610100808354040283529160200191612c46565b820191906000526020600020905b815481529060010190602001808311612c2957829003601f168201915b50505050509150808054600181600116156101000203166002900480601f016020809104026020016040519081016040528092919081815260200182805460018160011615610100020316600290048015612ce25780601f10612cb757610100808354040283529160200191612ce2565b820191906000526020600020905b815481529060010190602001808311612cc557829003601f168201915b5050505050905095509550955095509550955091939550919395565b6040518060a001604052808681526020018581526020018481526020018381526020018281525060036000600b548152602001908152602001600020600082015181600001556020820151816001019080519060200190612d6092919061490f565b506040820151816002019080519060200190612d7d92919061490f565b506060820151816003019080519060200190612d9a92919061490f565b506080820151816004019080519060200190612db792919061490f565b50905050600b600081548092919060010191905055505050505050565b60606000808381526020019081526020016000206001018054600181600116156101000203166002900480601f016020809104026020016040519081016040528092919081815260200182805460018160011615610100020316600290048015612e7f5780601f10612e5457610100808354040283529160200191612e7f565b820191906000526020600020905b815481529060010190602001808311612e6257829003601f168201915b50505050509050919050565b6000600854905090565b6000806000838152602001908152602001600020600601549050919050565b6040518060c001604052808781526020018681526020018581526020018481526020018381526020018281525060026000600a5481526020019081526020016000206000820151816000019080519060200190612f1292919061490f565b50602082015181600101556040820151816002019080519060200190612f3992919061490f565b50606082015181600301556080820151816004019080519060200190612f6092919061490f565b5060a0820151816005019080519060200190612f7d92919061490f565b50905050600a60008154809291906001019190505550505050505050565b600060608060608060036000878152602001908152602001600020600001546003600088815260200190815260200160002060010160036000898152602001908152602001600020600201600360008a8152602001908152602001600020600301600360008b8152602001908152602001600020600401838054600181600116156101000203166002900480601f0160208091040260200160405190810160405280929190818152602001828054600181600116156101000203166002900480156130a75780601f1061307c576101008083540402835291602001916130a7565b820191906000526020600020905b81548152906001019060200180831161308a57829003601f168201915b50505050509350828054600181600116156101000203166002900480601f0160208091040260200160405190810160405280929190818152602001828054600181600116156101000203166002900480156131435780601f1061311857610100808354040283529160200191613143565b820191906000526020600020905b81548152906001019060200180831161312657829003601f168201915b50505050509250818054600181600116156101000203166002900480601f0160208091040260200160405190810160405280929190818152602001828054600181600116156101000203166002900480156131df5780601f106131b4576101008083540402835291602001916131df565b820191906000526020600020905b8154815290600101906020018083116131c257829003601f168201915b50505050509150808054600181600116156101000203166002900480601f01602080910402602001604051908101604052809291908181526020018280546001816001161561010002031660029004801561327b5780601f106132505761010080835404028352916020019161327b565b820191906000526020600020905b81548152906001019060200180831161325e57829003601f168201915b505050505090509450945094509450945091939590929450565b6000806000838152602001908152602001600020600701549050919050565b6060600580548060200260200160405190810160405280929190818152602001828054801561333857602002820191906000526020600020905b8160009054906101000a900473ffffffffffffffffffffffffffffffffffffffff1673ffffffffffffffffffffffffffffffffffffffff16815260200190600101908083116132ee575b5050505050905090565b6000600b54905090565b60405180610100016040528060085481526020018881526020018781526020018681526020018581526020018481526020018381526020018281525060008060085481526020019081526020016000206000820151816000015560208201518160010190805190602001906133c292919061490f565b5060408201518160020190805190602001906133df92919061490f565b5060608201518160030190805190602001906133fc92919061490f565b50608082015181600401908051906020019061341992919061490f565b5060a082015181600501908051906020019061343692919061490f565b5060c0820151816006015560e0820151816007015590505060086000815480929190600101919050555050505050505050565b6002602052806000526040600020600091509050806000018054600181600116156101000203166002900480601f0160208091040260200160405190810160405280929190818152602001828054600181600116156101000203166002900480156135155780601f106134ea57610100808354040283529160200191613515565b820191906000526020600020905b8154815290600101906020018083116134f857829003601f168201915b505050505090806001015490806002018054600181600116156101000203166002900480601f0160208091040260200160405190810160405280929190818152602001828054600181600116156101000203166002900480156135b95780601f1061358e576101008083540402835291602001916135b9565b820191906000526020600020905b81548152906001019060200180831161359c57829003601f168201915b505050505090806003015490806004018054600181600116156101000203166002900480601f01602080910402602001604051908101604052809291908181526020018280546001816001161561010002031660029004801561365d5780601f106136325761010080835404028352916020019161365d565b820191906000526020600020905b81548152906001019060200180831161364057829003601f168201915b505050505090806005018054600181600116156101000203166002900480601f0160208091040260200160405190810160405280929190818152602001828054600181600116156101000203166002900480156136fb5780601f106136d0576101008083540402835291602001916136fb565b820191906000526020600020905b8154815290600101906020018083116136de57829003601f168201915b5050505050905086565b6060600780548060200260200160405190810160405280929190818152602001828054801561378957602002820191906000526020600020905b8160009054906101000a900473ffffffffffffffffffffffffffffffffffffffff1673ffffffffffffffffffffffffffffffffffffffff168152602001906001019080831161373f575b5050505050905090565b6000600c54905090565b6040518060c001604052808781526020018681526020018581526020018481526020018381526020018281525060016000600954815260200190815260200160002060008201518160000155602082015181600101908051906020019061380592919061490f565b50604082015181600201908051906020019061382292919061490f565b5060608201518160030155608082015181600401908051906020019061384992919061490f565b5060a082015181600501908051906020019061386692919061490f565b50905050600960008154809291906001019190505550505050505050565b6007818154811061389157fe5b906000526020600020016000915054906101000a900473ffffffffffffffffffffffffffffffffffffffff1681565b6001602052806000526040600020600091509050806000015490806001018054600181600116156101000203166002900480601f0160208091040260200160405190810160405280929190818152602001828054600181600116156101000203166002900480156139725780601f1061394757610100808354040283529160200191613972565b820191906000526020600020905b81548152906001019060200180831161395557829003601f168201915b505050505090806002018054600181600116156101000203166002900480601f016020809104026020016040519081016040528092919081815260200182805460018160011615610100020316600290048015613a105780601f106139e557610100808354040283529160200191613a10565b820191906000526020600020905b8154815290600101906020018083116139f357829003601f168201915b505050505090806003015490806004018054600181600116156101000203166002900480601f016020809104026020016040519081016040528092919081815260200182805460018160011615610100020316600290048015613ab45780601f10613a8957610100808354040283529160200191613ab4565b820191906000526020600020905b815481529060010190602001808311613a9757829003601f168201915b505050505090806005018054600181600116156101000203166002900480601f016020809104026020016040519081016040528092919081815260200182805460018160011615610100020316600290048015613b525780601f10613b2757610100808354040283529160200191613b52565b820191906000526020600020905b815481529060010190602001808311613b3557829003601f168201915b5050505050905086565b6000806000905060005b600854821015613f5257613c27886000808581526020019081526020016000206001018054600181600116156101000203166002900480601f016020809104026020016040519081016040528092919081815260200182805460018160011615610100020316600290048015613c1d5780601f10613bf257610100808354040283529160200191613c1d565b820191906000526020600020905b815481529060010190602001808311613c0057829003601f168201915b505050505061480f565b8015613ce65750613ce5876000808581526020019081526020016000206002018054600181600116156101000203166002900480601f016020809104026020016040519081016040528092919081815260200182805460018160011615610100020316600290048015613cdb5780601f10613cb057610100808354040283529160200191613cdb565b820191906000526020600020905b815481529060010190602001808311613cbe57829003601f168201915b505050505061480f565b5b8015613da55750613da4866000808581526020019081526020016000206003018054600181600116156101000203166002900480601f016020809104026020016040519081016040528092919081815260200182805460018160011615610100020316600290048015613d9a5780601f10613d6f57610100808354040283529160200191613d9a565b820191906000526020600020905b815481529060010190602001808311613d7d57829003601f168201915b505050505061480f565b5b8015613e645750613e63856000808581526020019081526020016000206004018054600181600116156101000203166002900480601f016020809104026020016040519081016040528092919081815260200182805460018160011615610100020316600290048015613e595780601f10613e2e57610100808354040283529160200191613e59565b820191906000526020600020905b815481529060010190602001808311613e3c57829003601f168201915b505050505061480f565b5b8015613f235750613f22846000808581526020019081526020016000206005018054600181600116156101000203166002900480601f016020809104026020016040519081016040528092919081815260200182805460018160011615610100020316600290048015613f185780601f10613eed57610100808354040283529160200191613f18565b820191906000526020600020905b815481529060010190602001808311613efb57829003601f168201915b505050505061480f565b5b15613f4557600080838152602001908152602001600020600001549050613f52565b8180600101925050613b66565b809250505095945050505050565b60606000808381526020019081526020016000206005018054600181600116156101000203166002900480601f01602080910402602001604051908101604052809291908181526020018280546001816001161561010002031660029004801561400b5780601f10613fe05761010080835404028352916020019161400b565b820191906000526020600020905b815481529060010190602001808311613fee57829003601f168201915b50505050509050919050565b6003602052806000526040600020600091509050806000015490806001018054600181600116156101000203166002900480601f0160208091040260200160405190810160405280929190818152602001828054600181600116156101000203166002900480156140c95780601f1061409e576101008083540402835291602001916140c9565b820191906000526020600020905b8154815290600101906020018083116140ac57829003601f168201915b505050505090806002018054600181600116156101000203166002900480601f0160208091040260200160405190810160405280929190818152602001828054600181600116156101000203166002900480156141675780601f1061413c57610100808354040283529160200191614167565b820191906000526020600020905b81548152906001019060200180831161414a57829003601f168201915b505050505090806003018054600181600116156101000203166002900480601f0160208091040260200160405190810160405280929190818152602001828054600181600116156101000203166002900480156142055780601f106141da57610100808354040283529160200191614205565b820191906000526020600020905b8154815290600101906020018083116141e857829003601f168201915b505050505090806004018054600181600116156101000203166002900480601f0160208091040260200160405190810160405280929190818152602001828054600181600116156101000203166002900480156142a35780601f10614278576101008083540402835291602001916142a3565b820191906000526020600020905b81548152906001019060200180831161428657829003601f168201915b5050505050905085565b6060600680548060200260200160405190810160405280929190818152602001828054801561433157602002820191906000526020600020905b8160009054906101000a900473ffffffffffffffffffffffffffffffffffffffff1673ffffffffffffffffffffffffffffffffffffffff16815260200190600101908083116142e7575b5050505050905090565b6000600a54905090565b6060600060606000606080600260008881526020019081526020016000206000016002600089815260200190815260200160002060010154600260008a8152602001908152602001600020600201600260008b815260200190815260200160002060030154600260008c8152602001908152602001600020600401600260008d8152602001908152602001600020600501858054600181600116156101000203166002900480601f01602080910402602001604051908101604052809291908181526020018280546001816001161561010002031660029004801561446b5780601f106144405761010080835404028352916020019161446b565b820191906000526020600020905b81548152906001019060200180831161444e57829003601f168201915b50505050509550838054600181600116156101000203166002900480601f0160208091040260200160405190810160405280929190818152602001828054600181600116156101000203166002900480156145075780601f106144dc57610100808354040283529160200191614507565b820191906000526020600020905b8154815290600101906020018083116144ea57829003601f168201915b50505050509350818054600181600116156101000203166002900480601f0160208091040260200160405190810160405280929190818152602001828054600181600116156101000203166002900480156145a35780601f10614578576101008083540402835291602001916145a3565b820191906000526020600020905b81548152906001019060200180831161458657829003601f168201915b50505050509150808054600181600116156101000203166002900480601f01602080910402602001604051908101604052809291908181526020018280546001816001161561010002031660029004801561463f5780601f106146145761010080835404028352916020019161463f565b820191906000526020600020905b81548152906001019060200180831161462257829003601f168201915b5050505050905095509550955095509550955091939550919395565b60606000808381526020019081526020016000206003018054600181600116156101000203166002900480601f0160208091040260200160405190810160405280929190818152602001828054600181600116156101000203166002900480156147065780601f106146db57610100808354040283529160200191614706565b820191906000526020600020905b8154815290600101906020018083116146e957829003601f168201915b50505050509050919050565b6000600954905090565b6006818154811061472957fe5b906000526020600020016000915054906101000a900473ffffffffffffffffffffffffffffffffffffffff1681565b60606000808381526020019081526020016000206002018054600181600116156101000203166002900480601f0160208091040260200160405190810160405280929190818152602001828054600181600116156101000203166002900480156148035780601f106147d857610100808354040283529160200191614803565b820191906000526020600020905b8154815290600101906020018083116147e657829003601f168201915b50505050509050919050565b6000816040516020018082805190602001908083835b602083106148485780518252602082019150602081019050602083039250614825565b6001836020036101000a03801982511681845116808217855250505050505090500191505060405160208183030381529060405280519060200120836040516020018082805190602001908083835b602083106148ba5780518252602082019150602081019050602083039250614897565b6001836020036101000a0380198251168184511680821785525050505050509050019150506040516020818303038152906040528051906020012014156149045760019050614909565b600090505b92915050565b828054600181600116156101000203166002900490600052602060002090601f016020900481019282601f1061495057805160ff191683800117855561497e565b8280016001018555821561497e579182015b8281111561497d578251825591602001919060010190614962565b5b50905061498b919061498f565b5090565b6149b191905b808211156149ad576000816000905550600101614995565b5090565b9056fea265627a7a7231582052b49f1f2f025798de6841d42c44db4c0439a548b86f53bd199badfd790009ee64736f6c63430005100032",
  "source": "// SPDX-License-Identifier: MIT\r\npragma solidity >=0.4.22 <0.9.0;\r\n\r\ncontract Land {\r\n    // structs\r\n    struct Deed {\r\n        // deed instance variables\r\n        uint deedId;\r\n        string no;\r\n        string streetName;\r\n        string city;\r\n        string district;\r\n        string province;\r\n        uint assignedLawyerId; // to link the relevant lawyer to the deed\r\n        uint assignedSellerId; // to link the relevant seller to the deed\r\n    }\r\n\r\n    struct Buyer{\r\n        // Buyer instance variables\r\n       uint id;\r\n       string nic;\r\n       string name;\r\n       uint age;\r\n       string city;\r\n       string email; \r\n    }\r\n\r\n    struct Lawyer{\r\n        // Lawyer instance variables\r\n        uint lawyerId;\r\n        string lawyerName;\r\n        string lawyernic;\r\n        string lawyerRegNo;\r\n        string lawyerEmail;\r\n    }\r\n\r\n    struct Seller {\r\n        // Seller instance variables\r\n        string name;\r\n\t\tuint id;\r\n\t\tstring nic;\r\n        uint age;\r\n        string city;\r\n\t\tstring email;\r\n    }\r\n\r\n    struct Admin {\r\n        // Admin instance variables\r\n        uint id;\r\n    }\r\n\r\n    // mappings\r\n    mapping(uint => Deed) public deeds;\r\n    mapping(uint => Buyer) public Buyersmapping;\r\n    mapping(uint => Seller) public sellersMapping;\r\n    mapping(uint => Lawyer) public Lawyersmapping;\r\n    mapping(uint => Admin) public adminMapping;\r\n    \r\n    //arrays\r\n    address[] public Buyerlist;\r\n    address[] public sellerList;\r\n    address[] public lawyerList;\r\n\r\n    // Count tracking variables\r\n    uint private deedCount = 0;\r\n    uint private buyersCount = 0;\r\n    uint private sellersCount = 0;\r\n    uint private lawyerCount=0;\r\n    uint private adminCount = 0;\r\n\r\n    // getter for deed count\r\n    function getDeedCount() public view returns (uint) {\r\n        return deedCount;\r\n    }\r\n\r\n    // getter for buyer count\r\n    function getBuyersCount() public view returns(uint){\r\n        return buyersCount;\r\n    }\r\n\r\n    // getter for lawyer count\r\n    function getLawyerCount() public view returns(uint){\r\n        return lawyerCount;\r\n    }\r\n\r\n    // getter for seller count\r\n    function getSellersCount() public view returns(uint){\r\n        return sellersCount;\r\n    }\r\n\r\n    // getter for admin count\r\n    function getAdminCount() public view returns(uint){\r\n        return adminCount;\r\n    }\r\n\r\n    //getters for Deed struct\r\n    function getDeedId(uint index) public view returns (uint) {\r\n        return deeds[index].deedId;\r\n    }\r\n\r\n    function getDeedNo(uint index) public view returns (string memory) {\r\n        return deeds[index].no;\r\n    }\r\n\r\n    function getDeedStreetName(uint index) public view returns (string memory) {\r\n        return deeds[index].streetName;\r\n    }\r\n\r\n    function getDeedCity(uint index) public view returns (string memory) {\r\n        return deeds[index].city;\r\n    }\r\n\r\n    function getDeedDistrict(uint index) public view returns (string memory) {\r\n        return deeds[index].district;\r\n    }\r\n\r\n    function getDeedProvince(uint index) public view returns (string memory) {\r\n        return deeds[index].province;\r\n    }\r\n\r\n    function getLawyerIdOfDeed(uint index) public view returns (uint) {\r\n        return deeds[index].assignedLawyerId;\r\n    }\r\n\r\n    function getSellerIdOfDeed(uint index) public view returns (uint) {\r\n        return deeds[index].assignedSellerId;\r\n    }\r\n\r\n    // function to compare strings\r\n    function compareStrings(string memory s1, string memory s2) private pure returns (bool) {\r\n        if (keccak256(abi.encodePacked(s1)) == keccak256(abi.encodePacked(s2)))\r\n        {\r\n            return true;\r\n        }\r\n        else \r\n        {\r\n            return false;\r\n        }\r\n    }\r\n\r\n    // function to get the deed by the land address for searching purposes\r\n    function findDeedByAddress(string memory _no, string memory _streetName, string memory _city, string memory _district, string memory _province) public view returns (uint) {\r\n        uint i = 0;\r\n        uint returningDeedId;\r\n        while (i < deedCount)\r\n        {\r\n            if (compareStrings(_no, deeds[i].no) && compareStrings(_streetName, deeds[i].streetName) && compareStrings(_city, deeds[i].city) && compareStrings(_district, deeds[i].district) && compareStrings(_province, deeds[i].province))\r\n            {\r\n                returningDeedId = deeds[i].deedId;\r\n                break;\r\n            }\r\n            i++;\r\n        }\r\n        return returningDeedId;\r\n    }\r\n\r\n    //getter for the Buyerlist array\r\n    function getBuyer() public view returns( address [] memory){\r\n        return(Buyerlist);\r\n    }\r\n\r\n    //getter for the seller list array\r\n    function getSeller() public view returns( address [] memory){\r\n        return(sellerList);\r\n    }\r\n\r\n    //getter for the lawyerList array\r\n    function getLawyer() public view returns( address [] memory){\r\n        return(lawyerList);\r\n    }\r\n\r\n    // function to add a new deed to the deeds mapping\r\n    function addNewDeed(string memory _no, string memory _streetName, string memory _city, string memory _district, string memory _province, uint _assignedLawyerId, uint _assignedSellerId) public {\r\n        deeds[deedCount] = Deed(deedCount, _no, _streetName, _city, _district, _province, _assignedLawyerId, _assignedSellerId);\r\n        deedCount++;\r\n    }\r\n\r\n    //function to register new Buyer\r\n    function registerBuyer(uint _id, string memory _nic, string memory _name, uint _age, string memory _city, string memory _email) public {\r\n        \r\n        Buyersmapping[buyersCount] = Buyer(_id, _nic,  _name, _age, _city, _email);\r\n        buyersCount++;\r\n\r\n    }\r\n\r\n    //function to register a seller\r\n    function registerSeller(string memory _name, uint _id, string memory _nic, uint _age, string memory _city, string memory _email) public {\r\n        sellersMapping[sellersCount] = Seller(_name, _id, _nic, _age, _city, _email);\r\n        sellersCount++;\r\n\r\n    }\r\n\r\n    //function to register a new Lawyer\r\n    function registerLawyer(uint _lawyerId, string memory _lawyerName, string memory _lawyernic, string memory _lawyerRegNo, string memory _lawyerEmail) public {\r\n        Lawyersmapping[lawyerCount] = Lawyer(_lawyerId, _lawyerName, _lawyernic, _lawyerRegNo, _lawyerEmail);\r\n        lawyerCount++;\r\n    }\r\n\r\n    //function to display buyer details\r\n    function displayBuyer(uint index) public view returns (uint _id, string memory _nic, string memory _name, uint _age, string memory _city, string memory _email){\r\n        return(Buyersmapping[index].id, Buyersmapping[index].nic,Buyersmapping[index].name,Buyersmapping[index].age,Buyersmapping[index].city,Buyersmapping[index].email);\r\n\r\n    } \r\n\r\n    //function to display seller details\r\n    function displaySeller(uint index) public view returns (string memory _name, uint _id, string memory _nic, uint _age, string memory _city, string memory _email){\r\n        return(sellersMapping[index].name, sellersMapping[index].id, sellersMapping[index].nic, sellersMapping[index].age, sellersMapping[index].city, sellersMapping[index].email);\r\n    }\r\n\r\n    //function to add admin\r\n    function addAdmin() private {\r\n        adminCount++;\r\n        adminMapping[adminCount] = Admin(adminCount);\r\n    }\r\n    \r\n    //function to display lawyer details\r\n    function displayLawyer(uint index) public view returns (uint _lawyerId, string memory _lawyerName, string memory _lawyernic, string memory _lawyerRegNo, string memory _lawyerEmail){\r\n        return(Lawyersmapping[index].lawyerId, Lawyersmapping[index].lawyerName, Lawyersmapping[index].lawyernic, Lawyersmapping[index].lawyerRegNo, Lawyersmapping[index].lawyerEmail);\r\n    }\r\n}\r\n",
  "sourcePath": "C:\\IIT\\SDGP\\LandFrontEnd\\contracts\\Land.sol",
  "compiler": {
    "name": "solc",
    "version": "0.5.16+commit.9c3226ce.Emscripten.clang"
  },
  "schemaVersion": "3.4.3",
  "updatedAt": "2022-02-17T10:31:54.723Z",
  "networkType": "ethereum",
  "devdoc": {
    "methods": {}
  },
  "userdoc": {
    "methods": {}
  }
}