{
  "contractName": "Land",
  "abi": [
    {
      "inputs": [],
      "payable": false,
      "stateMutability": "nonpayable",
      "type": "constructor"
    },
    {
      "constant": true,
      "inputs": [
        {
          "internalType": "uint256",
          "name": "",
          "type": "uint256"
        }
      ],
      "name": "Buyerlist",
      "outputs": [
        {
          "internalType": "address",
          "name": "",
          "type": "address"
        }
      ],
      "payable": false,
      "stateMutability": "view",
      "type": "function"
    },
    {
      "constant": true,
      "inputs": [
        {
          "internalType": "uint256",
          "name": "",
          "type": "uint256"
        }
      ],
      "name": "Buyersmapping",
      "outputs": [
        {
          "internalType": "uint256",
          "name": "id",
          "type": "uint256"
        },
        {
          "internalType": "string",
          "name": "nic",
          "type": "string"
        },
        {
          "internalType": "string",
          "name": "name",
          "type": "string"
        },
        {
          "internalType": "uint256",
          "name": "age",
          "type": "uint256"
        },
        {
          "internalType": "string",
          "name": "city",
          "type": "string"
        },
        {
          "internalType": "string",
          "name": "email",
          "type": "string"
        },
        {
          "internalType": "uint256",
          "name": "telephoneNumber",
          "type": "uint256"
        }
      ],
      "payable": false,
      "stateMutability": "view",
      "type": "function"
    },
    {
      "constant": true,
      "inputs": [
        {
          "internalType": "uint256",
          "name": "",
          "type": "uint256"
        }
      ],
      "name": "Lawyersmapping",
      "outputs": [
        {
          "internalType": "uint256",
          "name": "lawyerId",
          "type": "uint256"
        },
        {
          "internalType": "string",
          "name": "lawyerName",
          "type": "string"
        },
        {
          "internalType": "string",
          "name": "lawyernic",
          "type": "string"
        },
        {
          "internalType": "string",
          "name": "lawyerRegNo",
          "type": "string"
        },
        {
          "internalType": "string",
          "name": "lawyerEmail",
          "type": "string"
        }
      ],
      "payable": false,
      "stateMutability": "view",
      "type": "function"
    },
    {
      "constant": true,
      "inputs": [
        {
          "internalType": "uint256",
          "name": "",
          "type": "uint256"
        }
      ],
      "name": "adminMapping",
      "outputs": [
        {
          "internalType": "uint256",
          "name": "id",
          "type": "uint256"
        },
        {
          "internalType": "string",
          "name": "adminPassword",
          "type": "string"
        }
      ],
      "payable": false,
      "stateMutability": "view",
      "type": "function"
    },
    {
      "constant": true,
      "inputs": [
        {
          "internalType": "uint256",
          "name": "",
          "type": "uint256"
        }
      ],
      "name": "deeds",
      "outputs": [
        {
          "internalType": "uint256",
          "name": "deedId",
          "type": "uint256"
        },
        {
          "internalType": "string",
          "name": "no",
          "type": "string"
        },
        {
          "internalType": "string",
          "name": "streetName",
          "type": "string"
        },
        {
          "internalType": "string",
          "name": "city",
          "type": "string"
        },
        {
          "internalType": "string",
          "name": "district",
          "type": "string"
        },
        {
          "internalType": "string",
          "name": "province",
          "type": "string"
        },
        {
          "internalType": "uint256",
          "name": "assignedLawyerId",
          "type": "uint256"
        },
        {
          "internalType": "uint256",
          "name": "assignedSellerId",
          "type": "uint256"
        }
      ],
      "payable": false,
      "stateMutability": "view",
      "type": "function"
    },
    {
      "constant": true,
      "inputs": [
        {
          "internalType": "uint256",
          "name": "",
          "type": "uint256"
        }
      ],
      "name": "lawyerList",
      "outputs": [
        {
          "internalType": "address",
          "name": "",
          "type": "address"
        }
      ],
      "payable": false,
      "stateMutability": "view",
      "type": "function"
    },
    {
      "constant": true,
      "inputs": [
        {
          "internalType": "uint256",
          "name": "",
          "type": "uint256"
        }
      ],
      "name": "sellerList",
      "outputs": [
        {
          "internalType": "address",
          "name": "",
          "type": "address"
        }
      ],
      "payable": false,
      "stateMutability": "view",
      "type": "function"
    },
    {
      "constant": true,
      "inputs": [
        {
          "internalType": "uint256",
          "name": "",
          "type": "uint256"
        }
      ],
      "name": "sellersMapping",
      "outputs": [
        {
          "internalType": "string",
          "name": "name",
          "type": "string"
        },
        {
          "internalType": "uint256",
          "name": "id",
          "type": "uint256"
        },
        {
          "internalType": "string",
          "name": "nic",
          "type": "string"
        },
        {
          "internalType": "uint256",
          "name": "age",
          "type": "uint256"
        },
        {
          "internalType": "string",
          "name": "city",
          "type": "string"
        },
        {
          "internalType": "string",
          "name": "email",
          "type": "string"
        },
        {
          "internalType": "uint256",
          "name": "telephoneNumber",
          "type": "uint256"
        }
      ],
      "payable": false,
      "stateMutability": "view",
      "type": "function"
    },
    {
      "constant": true,
      "inputs": [],
      "name": "getDeedCount",
      "outputs": [
        {
          "internalType": "uint256",
          "name": "",
          "type": "uint256"
        }
      ],
      "payable": false,
      "stateMutability": "view",
      "type": "function"
    },
    {
      "constant": true,
      "inputs": [],
      "name": "getBuyersCount",
      "outputs": [
        {
          "internalType": "uint256",
          "name": "",
          "type": "uint256"
        }
      ],
      "payable": false,
      "stateMutability": "view",
      "type": "function"
    },
    {
      "constant": true,
      "inputs": [],
      "name": "getLawyerCount",
      "outputs": [
        {
          "internalType": "uint256",
          "name": "",
          "type": "uint256"
        }
      ],
      "payable": false,
      "stateMutability": "view",
      "type": "function"
    },
    {
      "constant": true,
      "inputs": [],
      "name": "getSellersCount",
      "outputs": [
        {
          "internalType": "uint256",
          "name": "",
          "type": "uint256"
        }
      ],
      "payable": false,
      "stateMutability": "view",
      "type": "function"
    },
    {
      "constant": true,
      "inputs": [],
      "name": "getAdminCount",
      "outputs": [
        {
          "internalType": "uint256",
          "name": "",
          "type": "uint256"
        }
      ],
      "payable": false,
      "stateMutability": "view",
      "type": "function"
    },
    {
      "constant": true,
      "inputs": [
        {
          "internalType": "uint256",
          "name": "index",
          "type": "uint256"
        }
      ],
      "name": "getDeedId",
      "outputs": [
        {
          "internalType": "uint256",
          "name": "",
          "type": "uint256"
        }
      ],
      "payable": false,
      "stateMutability": "view",
      "type": "function"
    },
    {
      "constant": true,
      "inputs": [
        {
          "internalType": "uint256",
          "name": "index",
          "type": "uint256"
        }
      ],
      "name": "getDeedNo",
      "outputs": [
        {
          "internalType": "string",
          "name": "",
          "type": "string"
        }
      ],
      "payable": false,
      "stateMutability": "view",
      "type": "function"
    },
    {
      "constant": true,
      "inputs": [
        {
          "internalType": "uint256",
          "name": "index",
          "type": "uint256"
        }
      ],
      "name": "getDeedStreetName",
      "outputs": [
        {
          "internalType": "string",
          "name": "",
          "type": "string"
        }
      ],
      "payable": false,
      "stateMutability": "view",
      "type": "function"
    },
    {
      "constant": true,
      "inputs": [
        {
          "internalType": "uint256",
          "name": "index",
          "type": "uint256"
        }
      ],
      "name": "getDeedCity",
      "outputs": [
        {
          "internalType": "string",
          "name": "",
          "type": "string"
        }
      ],
      "payable": false,
      "stateMutability": "view",
      "type": "function"
    },
    {
      "constant": true,
      "inputs": [
        {
          "internalType": "uint256",
          "name": "index",
          "type": "uint256"
        }
      ],
      "name": "getDeedDistrict",
      "outputs": [
        {
          "internalType": "string",
          "name": "",
          "type": "string"
        }
      ],
      "payable": false,
      "stateMutability": "view",
      "type": "function"
    },
    {
      "constant": true,
      "inputs": [
        {
          "internalType": "uint256",
          "name": "index",
          "type": "uint256"
        }
      ],
      "name": "getDeedProvince",
      "outputs": [
        {
          "internalType": "string",
          "name": "",
          "type": "string"
        }
      ],
      "payable": false,
      "stateMutability": "view",
      "type": "function"
    },
    {
      "constant": true,
      "inputs": [
        {
          "internalType": "uint256",
          "name": "index",
          "type": "uint256"
        }
      ],
      "name": "getLawyerIdOfDeed",
      "outputs": [
        {
          "internalType": "uint256",
          "name": "",
          "type": "uint256"
        }
      ],
      "payable": false,
      "stateMutability": "view",
      "type": "function"
    },
    {
      "constant": true,
      "inputs": [
        {
          "internalType": "uint256",
          "name": "index",
          "type": "uint256"
        }
      ],
      "name": "getSellerIdOfDeed",
      "outputs": [
        {
          "internalType": "uint256",
          "name": "",
          "type": "uint256"
        }
      ],
      "payable": false,
      "stateMutability": "view",
      "type": "function"
    },
    {
      "constant": true,
      "inputs": [
        {
          "internalType": "string",
          "name": "_no",
          "type": "string"
        },
        {
          "internalType": "string",
          "name": "_streetName",
          "type": "string"
        },
        {
          "internalType": "string",
          "name": "_city",
          "type": "string"
        },
        {
          "internalType": "string",
          "name": "_district",
          "type": "string"
        },
        {
          "internalType": "string",
          "name": "_province",
          "type": "string"
        }
      ],
      "name": "findDeedByAddress",
      "outputs": [
        {
          "internalType": "uint256",
          "name": "",
          "type": "uint256"
        }
      ],
      "payable": false,
      "stateMutability": "view",
      "type": "function"
    },
    {
      "constant": true,
      "inputs": [
        {
          "internalType": "string",
          "name": "_email",
          "type": "string"
        }
      ],
      "name": "findLawyerByEmail",
      "outputs": [
        {
          "internalType": "uint256",
          "name": "",
          "type": "uint256"
        }
      ],
      "payable": false,
      "stateMutability": "view",
      "type": "function"
    },
    {
      "constant": true,
      "inputs": [
        {
          "internalType": "string",
          "name": "_email",
          "type": "string"
        }
      ],
      "name": "findSellerByEmail",
      "outputs": [
        {
          "internalType": "uint256",
          "name": "",
          "type": "uint256"
        }
      ],
      "payable": false,
      "stateMutability": "view",
      "type": "function"
    },
    {
      "constant": false,
      "inputs": [
        {
          "internalType": "uint256",
          "name": "_deedId",
          "type": "uint256"
        },
        {
          "internalType": "uint256",
          "name": "_assignedLawyerId",
          "type": "uint256"
        },
        {
          "internalType": "uint256",
          "name": "_assignedSellerId",
          "type": "uint256"
        }
      ],
      "name": "changeDeedBuyerAndSeller",
      "outputs": [],
      "payable": false,
      "stateMutability": "nonpayable",
      "type": "function"
    },
    {
      "constant": true,
      "inputs": [],
      "name": "getBuyer",
      "outputs": [
        {
          "internalType": "address[]",
          "name": "",
          "type": "address[]"
        }
      ],
      "payable": false,
      "stateMutability": "view",
      "type": "function"
    },
    {
      "constant": true,
      "inputs": [],
      "name": "getSeller",
      "outputs": [
        {
          "internalType": "address[]",
          "name": "",
          "type": "address[]"
        }
      ],
      "payable": false,
      "stateMutability": "view",
      "type": "function"
    },
    {
      "constant": true,
      "inputs": [],
      "name": "getLawyer",
      "outputs": [
        {
          "internalType": "address[]",
          "name": "",
          "type": "address[]"
        }
      ],
      "payable": false,
      "stateMutability": "view",
      "type": "function"
    },
    {
      "constant": false,
      "inputs": [
        {
          "internalType": "string",
          "name": "_no",
          "type": "string"
        },
        {
          "internalType": "string",
          "name": "_streetName",
          "type": "string"
        },
        {
          "internalType": "string",
          "name": "_city",
          "type": "string"
        },
        {
          "internalType": "string",
          "name": "_district",
          "type": "string"
        },
        {
          "internalType": "string",
          "name": "_province",
          "type": "string"
        },
        {
          "internalType": "uint256",
          "name": "_assignedLawyerId",
          "type": "uint256"
        },
        {
          "internalType": "uint256",
          "name": "_assignedSellerId",
          "type": "uint256"
        }
      ],
      "name": "addNewDeed",
      "outputs": [],
      "payable": false,
      "stateMutability": "nonpayable",
      "type": "function"
    },
    {
      "constant": false,
      "inputs": [
        {
          "internalType": "string",
          "name": "_nic",
          "type": "string"
        },
        {
          "internalType": "string",
          "name": "_name",
          "type": "string"
        },
        {
          "internalType": "uint256",
          "name": "_age",
          "type": "uint256"
        },
        {
          "internalType": "string",
          "name": "_city",
          "type": "string"
        },
        {
          "internalType": "string",
          "name": "_email",
          "type": "string"
        },
        {
          "internalType": "uint256",
          "name": "_telephoneNumber",
          "type": "uint256"
        }
      ],
      "name": "registerBuyer",
      "outputs": [],
      "payable": false,
      "stateMutability": "nonpayable",
      "type": "function"
    },
    {
      "constant": false,
      "inputs": [
        {
          "internalType": "string",
          "name": "_name",
          "type": "string"
        },
        {
          "internalType": "string",
          "name": "_nic",
          "type": "string"
        },
        {
          "internalType": "uint256",
          "name": "_age",
          "type": "uint256"
        },
        {
          "internalType": "string",
          "name": "_city",
          "type": "string"
        },
        {
          "internalType": "string",
          "name": "_email",
          "type": "string"
        },
        {
          "internalType": "uint256",
          "name": "_telephoneNumber",
          "type": "uint256"
        }
      ],
      "name": "registerSeller",
      "outputs": [],
      "payable": false,
      "stateMutability": "nonpayable",
      "type": "function"
    },
    {
      "constant": false,
      "inputs": [
        {
          "internalType": "string",
          "name": "_lawyerName",
          "type": "string"
        },
        {
          "internalType": "string",
          "name": "_lawyernic",
          "type": "string"
        },
        {
          "internalType": "string",
          "name": "_lawyerRegNo",
          "type": "string"
        },
        {
          "internalType": "string",
          "name": "_lawyerEmail",
          "type": "string"
        }
      ],
      "name": "registerLawyer",
      "outputs": [],
      "payable": false,
      "stateMutability": "nonpayable",
      "type": "function"
    },
    {
      "constant": true,
      "inputs": [
        {
          "internalType": "uint256",
          "name": "index",
          "type": "uint256"
        }
      ],
      "name": "displayBuyer",
      "outputs": [
        {
          "internalType": "uint256",
          "name": "_id",
          "type": "uint256"
        },
        {
          "internalType": "string",
          "name": "_nic",
          "type": "string"
        },
        {
          "internalType": "string",
          "name": "_name",
          "type": "string"
        },
        {
          "internalType": "uint256",
          "name": "_age",
          "type": "uint256"
        },
        {
          "internalType": "string",
          "name": "_city",
          "type": "string"
        },
        {
          "internalType": "string",
          "name": "_email",
          "type": "string"
        },
        {
          "internalType": "uint256",
          "name": "_telephoneNumber",
          "type": "uint256"
        }
      ],
      "payable": false,
      "stateMutability": "view",
      "type": "function"
    },
    {
      "constant": true,
      "inputs": [
        {
          "internalType": "uint256",
          "name": "index",
          "type": "uint256"
        }
      ],
      "name": "displaySeller",
      "outputs": [
        {
          "internalType": "string",
          "name": "_name",
          "type": "string"
        },
        {
          "internalType": "uint256",
          "name": "_id",
          "type": "uint256"
        },
        {
          "internalType": "string",
          "name": "_nic",
          "type": "string"
        },
        {
          "internalType": "uint256",
          "name": "_age",
          "type": "uint256"
        },
        {
          "internalType": "string",
          "name": "_city",
          "type": "string"
        },
        {
          "internalType": "string",
          "name": "_email",
          "type": "string"
        },
        {
          "internalType": "uint256",
          "name": "_telephoneNumber",
          "type": "uint256"
        }
      ],
      "payable": false,
      "stateMutability": "view",
      "type": "function"
    },
    {
      "constant": true,
      "inputs": [
        {
          "internalType": "uint256",
          "name": "index",
          "type": "uint256"
        }
      ],
      "name": "displayLawyer",
      "outputs": [
        {
          "internalType": "uint256",
          "name": "_lawyerId",
          "type": "uint256"
        },
        {
          "internalType": "string",
          "name": "_lawyerName",
          "type": "string"
        },
        {
          "internalType": "string",
          "name": "_lawyernic",
          "type": "string"
        },
        {
          "internalType": "string",
          "name": "_lawyerRegNo",
          "type": "string"
        },
        {
          "internalType": "string",
          "name": "_lawyerEmail",
          "type": "string"
        }
      ],
      "payable": false,
      "stateMutability": "view",
      "type": "function"
    },
    {
      "constant": true,
      "inputs": [
        {
          "internalType": "uint256",
          "name": "index",
          "type": "uint256"
        }
      ],
      "name": "getLawyerId",
      "outputs": [
        {
          "internalType": "uint256",
          "name": "",
          "type": "uint256"
        }
      ],
      "payable": false,
      "stateMutability": "view",
      "type": "function"
    },
    {
      "constant": true,
      "inputs": [
        {
          "internalType": "uint256",
          "name": "index",
          "type": "uint256"
        }
      ],
      "name": "getLawyerName",
      "outputs": [
        {
          "internalType": "string",
          "name": "",
          "type": "string"
        }
      ],
      "payable": false,
      "stateMutability": "view",
      "type": "function"
    },
    {
      "constant": true,
      "inputs": [
        {
          "internalType": "uint256",
          "name": "index",
          "type": "uint256"
        }
      ],
      "name": "getLawyerNic",
      "outputs": [
        {
          "internalType": "string",
          "name": "",
          "type": "string"
        }
      ],
      "payable": false,
      "stateMutability": "view",
      "type": "function"
    },
    {
      "constant": true,
      "inputs": [
        {
          "internalType": "uint256",
          "name": "index",
          "type": "uint256"
        }
      ],
      "name": "getLawyerRegNo",
      "outputs": [
        {
          "internalType": "string",
          "name": "",
          "type": "string"
        }
      ],
      "payable": false,
      "stateMutability": "view",
      "type": "function"
    },
    {
      "constant": true,
      "inputs": [
        {
          "internalType": "uint256",
          "name": "index",
          "type": "uint256"
        }
      ],
      "name": "getLawyerEmail",
      "outputs": [
        {
          "internalType": "string",
          "name": "",
          "type": "string"
        }
      ],
      "payable": false,
      "stateMutability": "view",
      "type": "function"
    },
    {
      "constant": true,
      "inputs": [
        {
          "internalType": "uint256",
          "name": "index",
          "type": "uint256"
        }
      ],
      "name": "getSellerId",
      "outputs": [
        {
          "internalType": "uint256",
          "name": "",
          "type": "uint256"
        }
      ],
      "payable": false,
      "stateMutability": "view",
      "type": "function"
    },
    {
      "constant": true,
      "inputs": [
        {
          "internalType": "uint256",
          "name": "index",
          "type": "uint256"
        }
      ],
      "name": "getSellerName",
      "outputs": [
        {
          "internalType": "string",
          "name": "",
          "type": "string"
        }
      ],
      "payable": false,
      "stateMutability": "view",
      "type": "function"
    },
    {
      "constant": true,
      "inputs": [
        {
          "internalType": "uint256",
          "name": "index",
          "type": "uint256"
        }
      ],
      "name": "getSellerNic",
      "outputs": [
        {
          "internalType": "string",
          "name": "",
          "type": "string"
        }
      ],
      "payable": false,
      "stateMutability": "view",
      "type": "function"
    },
    {
      "constant": true,
      "inputs": [
        {
          "internalType": "uint256",
          "name": "index",
          "type": "uint256"
        }
      ],
      "name": "getSellerAge",
      "outputs": [
        {
          "internalType": "uint256",
          "name": "",
          "type": "uint256"
        }
      ],
      "payable": false,
      "stateMutability": "view",
      "type": "function"
    },
    {
      "constant": true,
      "inputs": [
        {
          "internalType": "uint256",
          "name": "index",
          "type": "uint256"
        }
      ],
      "name": "getSellerCity",
      "outputs": [
        {
          "internalType": "string",
          "name": "",
          "type": "string"
        }
      ],
      "payable": false,
      "stateMutability": "view",
      "type": "function"
    },
    {
      "constant": true,
      "inputs": [
        {
          "internalType": "uint256",
          "name": "index",
          "type": "uint256"
        }
      ],
      "name": "getSellerEmail",
      "outputs": [
        {
          "internalType": "string",
          "name": "",
          "type": "string"
        }
      ],
      "payable": false,
      "stateMutability": "view",
      "type": "function"
    },
    {
      "constant": true,
      "inputs": [
        {
          "internalType": "uint256",
          "name": "index",
          "type": "uint256"
        }
      ],
      "name": "getSellerTelephoneNo",
      "outputs": [
        {
          "internalType": "uint256",
          "name": "",
          "type": "uint256"
        }
      ],
      "payable": false,
      "stateMutability": "view",
      "type": "function"
    },
    {
      "constant": true,
      "inputs": [],
      "name": "getAdminId",
      "outputs": [
        {
          "internalType": "uint256",
          "name": "",
          "type": "uint256"
        }
      ],
      "payable": false,
      "stateMutability": "view",
      "type": "function"
    },
    {
      "constant": true,
      "inputs": [],
      "name": "getAdminPassword",
      "outputs": [
        {
          "internalType": "string",
          "name": "",
          "type": "string"
        }
      ],
      "payable": false,
      "stateMutability": "view",
      "type": "function"
    }
  ],
  "bytecode": "0x6080604052600060085560006009556000600a556000600b556000600c553480156200002a57600080fd5b506040518060400160405280600c5481526020016040518060400160405280600381526020017f313233000000000000000000000000000000000000000000000000000000000081525081525060046000600c548152602001908152602001600020600082015181600001556020820151816001019080519060200190620000b4929190620000d0565b50905050600c600081548092919060010191905055506200017f565b828054600181600116156101000203166002900490600052602060002090601f016020900481019282601f106200011357805160ff191683800117855562000144565b8280016001018555821562000144579182015b828111156200014357825182559160200191906001019062000126565b5b50905062000153919062000157565b5090565b6200017c91905b80821115620001785760008160009055506001016200015e565b5090565b90565b615e55806200018f6000396000f3fe608060405234801561001057600080fd5b50600436106102bb5760003560e01c80637ea1449f11610182578063d96b0a55116100e9578063ef380235116100a2578063f42a1b311161007c578063f42a1b3114612b98578063f8a3860514612c06578063fa1d7e0014612c48578063ffb434fb14612edc576102bb565b8063ef38023514612a91578063f0b93af914612ad3578063f0d3a9df14612b7a576102bb565b8063d96b0a551461261f578063dbd0e1b6146126c6578063dd9d122d14612725578063df0a1c2a14612743578063e084ada1146127ea578063e513745914612891576102bb565b80639cd681f51161013b5780639cd681f5146120e6578063a99859381461218d578063aca5577314612210578063b4321832146122b7578063b998b87c1461235e578063cff0c7c01461242d576102bb565b80637ea1449f14611ab25780638001402914611ad05780638b7bf3eb14611b2f578063916a1c7014611b4d57806393addc0814611bbb5780639614681b14611dbb576102bb565b806344613830116102265780636c218b17116101df5780636c218b17146113b557806370ffbdd2146113f7578063721fa4181461149e57806374cfe475146117c95780637c6eb1031461180b5780637e45aa2514611a0b576102bb565b80634461383014610db557806355bb2bcc14610e845780635a18e2b2146110765780635dd56798146112f6578063603daf9a14611338578063655dc4c214611397576102bb565b806321eb5a7c1161027857806321eb5a7c14610959578063275ea7cf14610a0757806330c9fb4814610c0757806332a6785314610cae578063334bb74514610d5557806335a82e7214610d73576102bb565b806305624d35146102c05780630cc543b6146103675780630df74d36146103a95780630df7ec241461063d578063119d41f41461067f57806318edf564146106ed575b600080fd5b6102ec600480360360208110156102d657600080fd5b8101908080359060200190929190505050612f83565b6040518080602001828103825283818151815260200191508051906020019080838360005b8381101561032c578082015181840152602081019050610311565b50505050905090810190601f1680156103595780820380516001836020036101000a031916815260200191505b509250505060405180910390f35b6103936004803603602081101561037d57600080fd5b810190808035906020019092919050505061303a565b6040518082815260200191505060405180910390f35b61063b600480360360c08110156103bf57600080fd5b81019080803590602001906401000000008111156103dc57600080fd5b8201836020820111156103ee57600080fd5b8035906020019184600183028401116401000000008311171561041057600080fd5b91908080601f016020809104026020016040519081016040528093929190818152602001838380828437600081840152601f19601f8201169050808301925050505050505091929192908035906020019064010000000081111561047357600080fd5b82018360208201111561048557600080fd5b803590602001918460018302840111640100000000831117156104a757600080fd5b91908080601f016020809104026020016040519081016040528093929190818152602001838380828437600081840152601f19601f820116905080830192505050505050509192919290803590602001909291908035906020019064010000000081111561051457600080fd5b82018360208201111561052657600080fd5b8035906020019184600183028401116401000000008311171561054857600080fd5b91908080601f016020809104026020016040519081016040528093929190818152602001838380828437600081840152601f19601f820116905080830192505050505050509192919290803590602001906401000000008111156105ab57600080fd5b8201836020820111156105bd57600080fd5b803590602001918460018302840111640100000000831117156105df57600080fd5b91908080601f016020809104026020016040519081016040528093929190818152602001838380828437600081840152601f19601f8201169050808301925050505050505091929192908035906020019092919050505061305a565b005b6106696004803603602081101561065357600080fd5b8101908080359060200190929190505050613153565b6040518082815260200191505060405180910390f35b6106ab6004803603602081101561069557600080fd5b8101908080359060200190929190505050613172565b604051808273ffffffffffffffffffffffffffffffffffffffff1673ffffffffffffffffffffffffffffffffffffffff16815260200191505060405180910390f35b6107196004803603602081101561070357600080fd5b81019080803590602001909291905050506131ae565b60405180898152602001806020018060200180602001806020018060200188815260200187815260200186810386528d818151815260200191508051906020019080838360005b8381101561077b578082015181840152602081019050610760565b50505050905090810190601f1680156107a85780820380516001836020036101000a031916815260200191505b5086810385528c818151815260200191508051906020019080838360005b838110156107e15780820151818401526020810190506107c6565b50505050905090810190601f16801561080e5780820380516001836020036101000a031916815260200191505b5086810384528b818151815260200191508051906020019080838360005b8381101561084757808201518184015260208101905061082c565b50505050905090810190601f1680156108745780820380516001836020036101000a031916815260200191505b5086810383528a818151815260200191508051906020019080838360005b838110156108ad578082015181840152602081019050610892565b50505050905090810190601f1680156108da5780820380516001836020036101000a031916815260200191505b50868103825289818151815260200191508051906020019080838360005b838110156109135780820151818401526020810190506108f8565b50505050905090810190601f1680156109405780820380516001836020036101000a031916815260200191505b509d505050505050505050505050505060405180910390f35b6109856004803603602081101561096f57600080fd5b81019080803590602001909291905050506134ee565b6040518083815260200180602001828103825283818151815260200191508051906020019080838360005b838110156109cb5780820151818401526020810190506109b0565b50505050905090810190601f1680156109f85780820380516001836020036101000a031916815260200191505b50935050505060405180910390f35b610a3360048036036020811015610a1d57600080fd5b81019080803590602001909291905050506135aa565b604051808881526020018060200180602001878152602001806020018060200186815260200185810385528b818151815260200191508051906020019080838360005b83811015610a91578082015181840152602081019050610a76565b50505050905090810190601f168015610abe5780820380516001836020036101000a031916815260200191505b5085810384528a818151815260200191508051906020019080838360005b83811015610af7578082015181840152602081019050610adc565b50505050905090810190601f168015610b245780820380516001836020036101000a031916815260200191505b50858103835288818151815260200191508051906020019080838360005b83811015610b5d578082015181840152602081019050610b42565b50505050905090810190601f168015610b8a5780820380516001836020036101000a031916815260200191505b50858103825287818151815260200191508051906020019080838360005b83811015610bc3578082015181840152602081019050610ba8565b50505050905090810190601f168015610bf05780820380516001836020036101000a031916815260200191505b509b50505050505050505050505060405180910390f35b610c3360048036036020811015610c1d57600080fd5b81019080803590602001909291905050506138dc565b6040518080602001828103825283818151815260200191508051906020019080838360005b83811015610c73578082015181840152602081019050610c58565b50505050905090810190601f168015610ca05780820380516001836020036101000a031916815260200191505b509250505060405180910390f35b610cda60048036036020811015610cc457600080fd5b8101908080359060200190929190505050613994565b6040518080602001828103825283818151815260200191508051906020019080838360005b83811015610d1a578082015181840152602081019050610cff565b50505050905090810190601f168015610d475780820380516001836020036101000a031916815260200191505b509250505060405180910390f35b610d5d613a4b565b6040518082815260200191505060405180910390f35b610d9f60048036036020811015610d8957600080fd5b8101908080359060200190929190505050613a55565b6040518082815260200191505060405180910390f35b610e6e60048036036020811015610dcb57600080fd5b8101908080359060200190640100000000811115610de857600080fd5b820183602082011115610dfa57600080fd5b80359060200191846001830284011164010000000083111715610e1c57600080fd5b91908080601f016020809104026020016040519081016040528093929190818152602001838380828437600081840152601f19601f820116905080830192505050505050509192919290505050613a74565b6040518082815260200191505060405180910390f35b610eb060048036036020811015610e9a57600080fd5b8101908080359060200190929190505050613b7a565b6040518086815260200180602001806020018060200180602001858103855289818151815260200191508051906020019080838360005b83811015610f02578082015181840152602081019050610ee7565b50505050905090810190601f168015610f2f5780820380516001836020036101000a031916815260200191505b50858103845288818151815260200191508051906020019080838360005b83811015610f68578082015181840152602081019050610f4d565b50505050905090810190601f168015610f955780820380516001836020036101000a031916815260200191505b50858103835287818151815260200191508051906020019080838360005b83811015610fce578082015181840152602081019050610fb3565b50505050905090810190601f168015610ffb5780820380516001836020036101000a031916815260200191505b50858103825286818151815260200191508051906020019080838360005b83811015611034578082015181840152602081019050611019565b50505050905090810190601f1680156110615780820380516001836020036101000a031916815260200191505b50995050505050505050505060405180910390f35b6112f46004803603608081101561108c57600080fd5b81019080803590602001906401000000008111156110a957600080fd5b8201836020820111156110bb57600080fd5b803590602001918460018302840111640100000000831117156110dd57600080fd5b91908080601f016020809104026020016040519081016040528093929190818152602001838380828437600081840152601f19601f8201169050808301925050505050505091929192908035906020019064010000000081111561114057600080fd5b82018360208201111561115257600080fd5b8035906020019184600183028401116401000000008311171561117457600080fd5b91908080601f016020809104026020016040519081016040528093929190818152602001838380828437600081840152601f19601f820116905080830192505050505050509192919290803590602001906401000000008111156111d757600080fd5b8201836020820111156111e957600080fd5b8035906020019184600183028401116401000000008311171561120b57600080fd5b91908080601f016020809104026020016040519081016040528093929190818152602001838380828437600081840152601f19601f8201169050808301925050505050505091929192908035906020019064010000000081111561126e57600080fd5b82018360208201111561128057600080fd5b803590602001918460018302840111640100000000831117156112a257600080fd5b91908080601f016020809104026020016040519081016040528093929190818152602001838380828437600081840152601f19601f820116905080830192505050505050509192919290505050613e74565b005b6113226004803603602081101561130c57600080fd5b8101908080359060200190929190505050613f4b565b6040518082815260200191505060405180910390f35b611340613f6a565b6040518080602001828103825283818151815260200191508051906020019060200280838360005b83811015611383578082015181840152602081019050611368565b505050509050019250505060405180910390f35b61139f613ff8565b6040518082815260200191505060405180910390f35b6113e1600480360360208110156113cb57600080fd5b8101908080359060200190929190505050614002565b6040518082815260200191505060405180910390f35b6114236004803603602081101561140d57600080fd5b8101908080359060200190929190505050614022565b6040518080602001828103825283818151815260200191508051906020019080838360005b83811015611463578082015181840152602081019050611448565b50505050905090810190601f1680156114905780820380516001836020036101000a031916815260200191505b509250505060405180910390f35b6117c7600480360360e08110156114b457600080fd5b81019080803590602001906401000000008111156114d157600080fd5b8201836020820111156114e357600080fd5b8035906020019184600183028401116401000000008311171561150557600080fd5b91908080601f016020809104026020016040519081016040528093929190818152602001838380828437600081840152601f19601f8201169050808301925050505050505091929192908035906020019064010000000081111561156857600080fd5b82018360208201111561157a57600080fd5b8035906020019184600183028401116401000000008311171561159c57600080fd5b91908080601f016020809104026020016040519081016040528093929190818152602001838380828437600081840152601f19601f820116905080830192505050505050509192919290803590602001906401000000008111156115ff57600080fd5b82018360208201111561161157600080fd5b8035906020019184600183028401116401000000008311171561163357600080fd5b91908080601f016020809104026020016040519081016040528093929190818152602001838380828437600081840152601f19601f8201169050808301925050505050505091929192908035906020019064010000000081111561169657600080fd5b8201836020820111156116a857600080fd5b803590602001918460018302840111640100000000831117156116ca57600080fd5b91908080601f016020809104026020016040519081016040528093929190818152602001838380828437600081840152601f19601f8201169050808301925050505050505091929192908035906020019064010000000081111561172d57600080fd5b82018360208201111561173f57600080fd5b8035906020019184600183028401116401000000008311171561176157600080fd5b91908080601f016020809104026020016040519081016040528093929190818152602001838380828437600081840152601f19601f82011690508083019250505050505050919291929080359060200190929190803590602001909291905050506140da565b005b6117f5600480360360208110156117df57600080fd5b81019080803590602001909291905050506141f7565b6040518082815260200191505060405180910390f35b6118376004803603602081101561182157600080fd5b8101908080359060200190929190505050614217565b604051808060200188815260200180602001878152602001806020018060200186815260200185810385528c818151815260200191508051906020019080838360005b8381101561189557808201518184015260208101905061187a565b50505050905090810190601f1680156118c25780820380516001836020036101000a031916815260200191505b5085810384528a818151815260200191508051906020019080838360005b838110156118fb5780820151818401526020810190506118e0565b50505050905090810190601f1680156119285780820380516001836020036101000a031916815260200191505b50858103835288818151815260200191508051906020019080838360005b83811015611961578082015181840152602081019050611946565b50505050905090810190601f16801561198e5780820380516001836020036101000a031916815260200191505b50858103825287818151815260200191508051906020019080838360005b838110156119c75780820151818401526020810190506119ac565b50505050905090810190601f1680156119f45780820380516001836020036101000a031916815260200191505b509b50505050505050505050505060405180910390f35b611a3760048036036020811015611a2157600080fd5b81019080803590602001909291905050506144b9565b6040518080602001828103825283818151815260200191508051906020019080838360005b83811015611a77578082015181840152602081019050611a5c565b50505050905090810190601f168015611aa45780820380516001836020036101000a031916815260200191505b509250505060405180910390f35b611aba614571565b6040518082815260200191505060405180910390f35b611ad861458f565b6040518080602001828103825283818151815260200191508051906020019060200280838360005b83811015611b1b578082015181840152602081019050611b00565b505050509050019250505060405180910390f35b611b3761461d565b6040518082815260200191505060405180910390f35b611b7960048036036020811015611b6357600080fd5b8101908080359060200190929190505050614627565b604051808273ffffffffffffffffffffffffffffffffffffffff1673ffffffffffffffffffffffffffffffffffffffff16815260200191505060405180910390f35b611be760048036036020811015611bd157600080fd5b8101908080359060200190929190505050614663565b604051808881526020018060200180602001878152602001806020018060200186815260200185810385528b818151815260200191508051906020019080838360005b83811015611c45578082015181840152602081019050611c2a565b50505050905090810190601f168015611c725780820380516001836020036101000a031916815260200191505b5085810384528a818151815260200191508051906020019080838360005b83811015611cab578082015181840152602081019050611c90565b50505050905090810190601f168015611cd85780820380516001836020036101000a031916815260200191505b50858103835288818151815260200191508051906020019080838360005b83811015611d11578082015181840152602081019050611cf6565b50505050905090810190601f168015611d3e5780820380516001836020036101000a031916815260200191505b50858103825287818151815260200191508051906020019080838360005b83811015611d77578082015181840152602081019050611d5c565b50505050905090810190601f168015611da45780820380516001836020036101000a031916815260200191505b509b50505050505050505050505060405180910390f35b6120d0600480360360a0811015611dd157600080fd5b8101908080359060200190640100000000811115611dee57600080fd5b820183602082011115611e0057600080fd5b80359060200191846001830284011164010000000083111715611e2257600080fd5b91908080601f016020809104026020016040519081016040528093929190818152602001838380828437600081840152601f19601f82011690508083019250505050505050919291929080359060200190640100000000811115611e8557600080fd5b820183602082011115611e9757600080fd5b80359060200191846001830284011164010000000083111715611eb957600080fd5b91908080601f016020809104026020016040519081016040528093929190818152602001838380828437600081840152601f19601f82011690508083019250505050505050919291929080359060200190640100000000811115611f1c57600080fd5b820183602082011115611f2e57600080fd5b80359060200191846001830284011164010000000083111715611f5057600080fd5b91908080601f016020809104026020016040519081016040528093929190818152602001838380828437600081840152601f19601f82011690508083019250505050505050919291929080359060200190640100000000811115611fb357600080fd5b820183602082011115611fc557600080fd5b80359060200191846001830284011164010000000083111715611fe757600080fd5b91908080601f016020809104026020016040519081016040528093929190818152602001838380828437600081840152601f19601f8201169050808301925050505050505091929192908035906020019064010000000081111561204a57600080fd5b82018360208201111561205c57600080fd5b8035906020019184600183028401116401000000008311171561207e57600080fd5b91908080601f016020809104026020016040519081016040528093929190818152602001838380828437600081840152601f19601f820116905080830192505050505050509192919290505050614905565b6040518082815260200191505060405180910390f35b612112600480360360208110156120fc57600080fd5b8101908080359060200190929190505050614d09565b6040518080602001828103825283818151815260200191508051906020019080838360005b83811015612152578082015181840152602081019050612137565b50505050905090810190601f16801561217f5780820380516001836020036101000a031916815260200191505b509250505060405180910390f35b612195614dc0565b6040518080602001828103825283818151815260200191508051906020019080838360005b838110156121d55780820151818401526020810190506121ba565b50505050905090810190601f1680156122025780820380516001836020036101000a031916815260200191505b509250505060405180910390f35b61223c6004803603602081101561222657600080fd5b8101908080359060200190929190505050614e76565b6040518080602001828103825283818151815260200191508051906020019080838360005b8381101561227c578082015181840152602081019050612261565b50505050905090810190601f1680156122a95780820380516001836020036101000a031916815260200191505b509250505060405180910390f35b6122e3600480360360208110156122cd57600080fd5b8101908080359060200190929190505050614f2e565b6040518080602001828103825283818151815260200191508051906020019080838360005b83811015612323578082015181840152602081019050612308565b50505050905090810190601f1680156123505780820380516001836020036101000a031916815260200191505b509250505060405180910390f35b6124176004803603602081101561237457600080fd5b810190808035906020019064010000000081111561239157600080fd5b8201836020820111156123a357600080fd5b803590602001918460018302840111640100000000831117156123c557600080fd5b91908080601f016020809104026020016040519081016040528093929190818152602001838380828437600081840152601f19601f820116905080830192505050505050509192919290505050614fe6565b6040518082815260200191505060405180910390f35b6124596004803603602081101561244357600080fd5b81019080803590602001909291905050506150ec565b6040518086815260200180602001806020018060200180602001858103855289818151815260200191508051906020019080838360005b838110156124ab578082015181840152602081019050612490565b50505050905090810190601f1680156124d85780820380516001836020036101000a031916815260200191505b50858103845288818151815260200191508051906020019080838360005b838110156125115780820151818401526020810190506124f6565b50505050905090810190601f16801561253e5780820380516001836020036101000a031916815260200191505b50858103835287818151815260200191508051906020019080838360005b8381101561257757808201518184015260208101905061255c565b50505050905090810190601f1680156125a45780820380516001836020036101000a031916815260200191505b50858103825286818151815260200191508051906020019080838360005b838110156125dd5780820151818401526020810190506125c2565b50505050905090810190601f16801561260a5780820380516001836020036101000a031916815260200191505b50995050505050505050505060405180910390f35b61264b6004803603602081101561263557600080fd5b8101908080359060200190929190505050615382565b6040518080602001828103825283818151815260200191508051906020019080838360005b8381101561268b578082015181840152602081019050612670565b50505050905090810190601f1680156126b85780820380516001836020036101000a031916815260200191505b509250505060405180910390f35b6126ce61543a565b6040518080602001828103825283818151815260200191508051906020019060200280838360005b838110156127115780820151818401526020810190506126f6565b505050509050019250505060405180910390f35b61272d6154c8565b6040518082815260200191505060405180910390f35b61276f6004803603602081101561275957600080fd5b81019080803590602001909291905050506154d2565b6040518080602001828103825283818151815260200191508051906020019080838360005b838110156127af578082015181840152602081019050612794565b50505050905090810190601f1680156127dc5780820380516001836020036101000a031916815260200191505b509250505060405180910390f35b6128166004803603602081101561280057600080fd5b810190808035906020019092919050505061558a565b6040518080602001828103825283818151815260200191508051906020019080838360005b8381101561285657808201518184015260208101905061283b565b50505050905090810190601f1680156128835780820380516001836020036101000a031916815260200191505b509250505060405180910390f35b6128bd600480360360208110156128a757600080fd5b8101908080359060200190929190505050615642565b604051808060200188815260200180602001878152602001806020018060200186815260200185810385528c818151815260200191508051906020019080838360005b8381101561291b578082015181840152602081019050612900565b50505050905090810190601f1680156129485780820380516001836020036101000a031916815260200191505b5085810384528a818151815260200191508051906020019080838360005b83811015612981578082015181840152602081019050612966565b50505050905090810190601f1680156129ae5780820380516001836020036101000a031916815260200191505b50858103835288818151815260200191508051906020019080838360005b838110156129e75780820151818401526020810190506129cc565b50505050905090810190601f168015612a145780820380516001836020036101000a031916815260200191505b50858103825287818151815260200191508051906020019080838360005b83811015612a4d578082015181840152602081019050612a32565b50505050905090810190601f168015612a7a5780820380516001836020036101000a031916815260200191505b509b50505050505050505050505060405180910390f35b612ad160048036036060811015612aa757600080fd5b81019080803590602001909291908035906020019092919080359060200190929190505050615975565b005b612aff60048036036020811015612ae957600080fd5b81019080803590602001909291905050506159ae565b6040518080602001828103825283818151815260200191508051906020019080838360005b83811015612b3f578082015181840152602081019050612b24565b50505050905090810190601f168015612b6c5780820380516001836020036101000a031916815260200191505b509250505060405180910390f35b612b82615a65565b6040518082815260200191505060405180910390f35b612bc460048036036020811015612bae57600080fd5b8101908080359060200190929190505050615a6f565b604051808273ffffffffffffffffffffffffffffffffffffffff1673ffffffffffffffffffffffffffffffffffffffff16815260200191505060405180910390f35b612c3260048036036020811015612c1c57600080fd5b8101908080359060200190929190505050615aab565b6040518082815260200191505060405180910390f35b612eda600480360360c0811015612c5e57600080fd5b8101908080359060200190640100000000811115612c7b57600080fd5b820183602082011115612c8d57600080fd5b80359060200191846001830284011164010000000083111715612caf57600080fd5b91908080601f016020809104026020016040519081016040528093929190818152602001838380828437600081840152601f19601f82011690508083019250505050505050919291929080359060200190640100000000811115612d1257600080fd5b820183602082011115612d2457600080fd5b80359060200191846001830284011164010000000083111715612d4657600080fd5b91908080601f016020809104026020016040519081016040528093929190818152602001838380828437600081840152601f19601f8201169050808301925050505050505091929192908035906020019092919080359060200190640100000000811115612db357600080fd5b820183602082011115612dc557600080fd5b80359060200191846001830284011164010000000083111715612de757600080fd5b91908080601f016020809104026020016040519081016040528093929190818152602001838380828437600081840152601f19601f82011690508083019250505050505050919291929080359060200190640100000000811115612e4a57600080fd5b820183602082011115612e5c57600080fd5b80359060200191846001830284011164010000000083111715612e7e57600080fd5b91908080601f016020809104026020016040519081016040528093929190818152602001838380828437600081840152601f19601f82011690508083019250505050505050919291929080359060200190929190505050615acb565b005b612f0860048036036020811015612ef257600080fd5b8101908080359060200190929190505050615bc4565b6040518080602001828103825283818151815260200191508051906020019080838360005b83811015612f48578082015181840152602081019050612f2d565b50505050905090810190601f168015612f755780820380516001836020036101000a031916815260200191505b509250505060405180910390f35b60606000808381526020019081526020016000206004018054600181600116156101000203166002900480601f01602080910402602001604051908101604052809291908181526020018280546001816001161561010002031660029004801561302e5780601f106130035761010080835404028352916020019161302e565b820191906000526020600020905b81548152906001019060200180831161301157829003601f168201915b50505050509050919050565b600060026000838152602001908152602001600020600601549050919050565b6040518060e00160405280878152602001600a5481526020018681526020018581526020018481526020018381526020018281525060026000600a54815260200190815260200160002060008201518160000190805190602001906130c0929190615d7b565b506020820151816001015560408201518160020190805190602001906130e7929190615d7b565b5060608201518160030155608082015181600401908051906020019061310e929190615d7b565b5060a082015181600501908051906020019061312b929190615d7b565b5060c08201518160060155905050600a60008154809291906001019190505550505050505050565b6000806000838152602001908152602001600020600001549050919050565b6005818154811061317f57fe5b906000526020600020016000915054906101000a900473ffffffffffffffffffffffffffffffffffffffff1681565b6000602052806000526040600020600091509050806000015490806001018054600181600116156101000203166002900480601f0160208091040260200160405190810160405280929190818152602001828054600181600116156101000203166002900480156132605780601f1061323557610100808354040283529160200191613260565b820191906000526020600020905b81548152906001019060200180831161324357829003601f168201915b505050505090806002018054600181600116156101000203166002900480601f0160208091040260200160405190810160405280929190818152602001828054600181600116156101000203166002900480156132fe5780601f106132d3576101008083540402835291602001916132fe565b820191906000526020600020905b8154815290600101906020018083116132e157829003601f168201915b505050505090806003018054600181600116156101000203166002900480601f01602080910402602001604051908101604052809291908181526020018280546001816001161561010002031660029004801561339c5780601f106133715761010080835404028352916020019161339c565b820191906000526020600020905b81548152906001019060200180831161337f57829003601f168201915b505050505090806004018054600181600116156101000203166002900480601f01602080910402602001604051908101604052809291908181526020018280546001816001161561010002031660029004801561343a5780601f1061340f5761010080835404028352916020019161343a565b820191906000526020600020905b81548152906001019060200180831161341d57829003601f168201915b505050505090806005018054600181600116156101000203166002900480601f0160208091040260200160405190810160405280929190818152602001828054600181600116156101000203166002900480156134d85780601f106134ad576101008083540402835291602001916134d8565b820191906000526020600020905b8154815290600101906020018083116134bb57829003601f168201915b5050505050908060060154908060070154905088565b6004602052806000526040600020600091509050806000015490806001018054600181600116156101000203166002900480601f0160208091040260200160405190810160405280929190818152602001828054600181600116156101000203166002900480156135a05780601f10613575576101008083540402835291602001916135a0565b820191906000526020600020905b81548152906001019060200180831161358357829003601f168201915b5050505050905082565b6000606080600060608060006001600089815260200190815260200160002060000154600160008a8152602001908152602001600020600101600160008b8152602001908152602001600020600201600160008c815260200190815260200160002060030154600160008d8152602001908152602001600020600401600160008e8152602001908152602001600020600501600160008f815260200190815260200160002060060154858054600181600116156101000203166002900480601f0160208091040260200160405190810160405280929190818152602001828054600181600116156101000203166002900480156136e85780601f106136bd576101008083540402835291602001916136e8565b820191906000526020600020905b8154815290600101906020018083116136cb57829003601f168201915b50505050509550848054600181600116156101000203166002900480601f0160208091040260200160405190810160405280929190818152602001828054600181600116156101000203166002900480156137845780601f1061375957610100808354040283529160200191613784565b820191906000526020600020905b81548152906001019060200180831161376757829003601f168201915b50505050509450828054600181600116156101000203166002900480601f0160208091040260200160405190810160405280929190818152602001828054600181600116156101000203166002900480156138205780601f106137f557610100808354040283529160200191613820565b820191906000526020600020905b81548152906001019060200180831161380357829003601f168201915b50505050509250818054600181600116156101000203166002900480601f0160208091040260200160405190810160405280929190818152602001828054600181600116156101000203166002900480156138bc5780601f10613891576101008083540402835291602001916138bc565b820191906000526020600020905b81548152906001019060200180831161389f57829003601f168201915b505050505091509650965096509650965096509650919395979092949650565b6060600360008381526020019081526020016000206004018054600181600116156101000203166002900480601f0160208091040260200160405190810160405280929190818152602001828054600181600116156101000203166002900480156139885780601f1061395d57610100808354040283529160200191613988565b820191906000526020600020905b81548152906001019060200180831161396b57829003601f168201915b50505050509050919050565b60606000808381526020019081526020016000206001018054600181600116156101000203166002900480601f016020809104026020016040519081016040528092919081815260200182805460018160011615610100020316600290048015613a3f5780601f10613a1457610100808354040283529160200191613a3f565b820191906000526020600020905b815481529060010190602001808311613a2257829003601f168201915b50505050509050919050565b6000600854905090565b6000806000838152602001908152602001600020600601549050919050565b6000806000905060005b600a54821015613b7057613b4084600260008581526020019081526020016000206005018054600181600116156101000203166002900480601f016020809104026020016040519081016040528092919081815260200182805460018160011615610100020316600290048015613b365780601f10613b0b57610100808354040283529160200191613b36565b820191906000526020600020905b815481529060010190602001808311613b1957829003601f168201915b5050505050615c7b565b15613b635760026000838152602001908152602001600020600101549050613b70565b8180600101925050613a7e565b8092505050919050565b600060608060608060036000878152602001908152602001600020600001546003600088815260200190815260200160002060010160036000898152602001908152602001600020600201600360008a8152602001908152602001600020600301600360008b8152602001908152602001600020600401838054600181600116156101000203166002900480601f016020809104026020016040519081016040528092919081815260200182805460018160011615610100020316600290048015613c865780601f10613c5b57610100808354040283529160200191613c86565b820191906000526020600020905b815481529060010190602001808311613c6957829003601f168201915b50505050509350828054600181600116156101000203166002900480601f016020809104026020016040519081016040528092919081815260200182805460018160011615610100020316600290048015613d225780601f10613cf757610100808354040283529160200191613d22565b820191906000526020600020905b815481529060010190602001808311613d0557829003601f168201915b50505050509250818054600181600116156101000203166002900480601f016020809104026020016040519081016040528092919081815260200182805460018160011615610100020316600290048015613dbe5780601f10613d9357610100808354040283529160200191613dbe565b820191906000526020600020905b815481529060010190602001808311613da157829003601f168201915b50505050509150808054600181600116156101000203166002900480601f016020809104026020016040519081016040528092919081815260200182805460018160011615610100020316600290048015613e5a5780601f10613e2f57610100808354040283529160200191613e5a565b820191906000526020600020905b815481529060010190602001808311613e3d57829003601f168201915b505050505090509450945094509450945091939590929450565b6040518060a00160405280600b5481526020018581526020018481526020018381526020018281525060036000600b548152602001908152602001600020600082015181600001556020820151816001019080519060200190613ed8929190615d7b565b506040820151816002019080519060200190613ef5929190615d7b565b506060820151816003019080519060200190613f12929190615d7b565b506080820151816004019080519060200190613f2f929190615d7b565b50905050600b6000815480929190600101919050555050505050565b6000806000838152602001908152602001600020600701549050919050565b60606005805480602002602001604051908101604052809291908181526020018280548015613fee57602002820191906000526020600020905b8160009054906101000a900473ffffffffffffffffffffffffffffffffffffffff1673ffffffffffffffffffffffffffffffffffffffff1681526020019060010190808311613fa4575b5050505050905090565b6000600b54905090565b600060036000838152602001908152602001600020600001549050919050565b6060600260008381526020019081526020016000206002018054600181600116156101000203166002900480601f0160208091040260200160405190810160405280929190818152602001828054600181600116156101000203166002900480156140ce5780601f106140a3576101008083540402835291602001916140ce565b820191906000526020600020905b8154815290600101906020018083116140b157829003601f168201915b50505050509050919050565b6040518061010001604052806008548152602001888152602001878152602001868152602001858152602001848152602001838152602001828152506000806008548152602001908152602001600020600082015181600001556020820151816001019080519060200190614150929190615d7b565b50604082015181600201908051906020019061416d929190615d7b565b50606082015181600301908051906020019061418a929190615d7b565b5060808201518160040190805190602001906141a7929190615d7b565b5060a08201518160050190805190602001906141c4929190615d7b565b5060c0820151816006015560e0820151816007015590505060086000815480929190600101919050555050505050505050565b600060026000838152602001908152602001600020600101549050919050565b6002602052806000526040600020600091509050806000018054600181600116156101000203166002900480601f0160208091040260200160405190810160405280929190818152602001828054600181600116156101000203166002900480156142c35780601f10614298576101008083540402835291602001916142c3565b820191906000526020600020905b8154815290600101906020018083116142a657829003601f168201915b505050505090806001015490806002018054600181600116156101000203166002900480601f0160208091040260200160405190810160405280929190818152602001828054600181600116156101000203166002900480156143675780601f1061433c57610100808354040283529160200191614367565b820191906000526020600020905b81548152906001019060200180831161434a57829003601f168201915b505050505090806003015490806004018054600181600116156101000203166002900480601f01602080910402602001604051908101604052809291908181526020018280546001816001161561010002031660029004801561440b5780601f106143e05761010080835404028352916020019161440b565b820191906000526020600020905b8154815290600101906020018083116143ee57829003601f168201915b505050505090806005018054600181600116156101000203166002900480601f0160208091040260200160405190810160405280929190818152602001828054600181600116156101000203166002900480156144a95780601f1061447e576101008083540402835291602001916144a9565b820191906000526020600020905b81548152906001019060200180831161448c57829003601f168201915b5050505050908060060154905087565b6060600360008381526020019081526020016000206001018054600181600116156101000203166002900480601f0160208091040260200160405190810160405280929190818152602001828054600181600116156101000203166002900480156145655780601f1061453a57610100808354040283529160200191614565565b820191906000526020600020905b81548152906001019060200180831161454857829003601f168201915b50505050509050919050565b60006004600080815260200190815260200160002060000154905090565b6060600780548060200260200160405190810160405280929190818152602001828054801561461357602002820191906000526020600020905b8160009054906101000a900473ffffffffffffffffffffffffffffffffffffffff1673ffffffffffffffffffffffffffffffffffffffff16815260200190600101908083116145c9575b5050505050905090565b6000600c54905090565b6007818154811061463457fe5b906000526020600020016000915054906101000a900473ffffffffffffffffffffffffffffffffffffffff1681565b6001602052806000526040600020600091509050806000015490806001018054600181600116156101000203166002900480601f0160208091040260200160405190810160405280929190818152602001828054600181600116156101000203166002900480156147155780601f106146ea57610100808354040283529160200191614715565b820191906000526020600020905b8154815290600101906020018083116146f857829003601f168201915b505050505090806002018054600181600116156101000203166002900480601f0160208091040260200160405190810160405280929190818152602001828054600181600116156101000203166002900480156147b35780601f10614788576101008083540402835291602001916147b3565b820191906000526020600020905b81548152906001019060200180831161479657829003601f168201915b505050505090806003015490806004018054600181600116156101000203166002900480601f0160208091040260200160405190810160405280929190818152602001828054600181600116156101000203166002900480156148575780601f1061482c57610100808354040283529160200191614857565b820191906000526020600020905b81548152906001019060200180831161483a57829003601f168201915b505050505090806005018054600181600116156101000203166002900480601f0160208091040260200160405190810160405280929190818152602001828054600181600116156101000203166002900480156148f55780601f106148ca576101008083540402835291602001916148f5565b820191906000526020600020905b8154815290600101906020018083116148d857829003601f168201915b5050505050908060060154905087565b6000806000905060005b600854821015614cfb576149d0886000808581526020019081526020016000206001018054600181600116156101000203166002900480601f0160208091040260200160405190810160405280929190818152602001828054600181600116156101000203166002900480156149c65780601f1061499b576101008083540402835291602001916149c6565b820191906000526020600020905b8154815290600101906020018083116149a957829003601f168201915b5050505050615c7b565b8015614a8f5750614a8e876000808581526020019081526020016000206002018054600181600116156101000203166002900480601f016020809104026020016040519081016040528092919081815260200182805460018160011615610100020316600290048015614a845780601f10614a5957610100808354040283529160200191614a84565b820191906000526020600020905b815481529060010190602001808311614a6757829003601f168201915b5050505050615c7b565b5b8015614b4e5750614b4d866000808581526020019081526020016000206003018054600181600116156101000203166002900480601f016020809104026020016040519081016040528092919081815260200182805460018160011615610100020316600290048015614b435780601f10614b1857610100808354040283529160200191614b43565b820191906000526020600020905b815481529060010190602001808311614b2657829003601f168201915b5050505050615c7b565b5b8015614c0d5750614c0c856000808581526020019081526020016000206004018054600181600116156101000203166002900480601f016020809104026020016040519081016040528092919081815260200182805460018160011615610100020316600290048015614c025780601f10614bd757610100808354040283529160200191614c02565b820191906000526020600020905b815481529060010190602001808311614be557829003601f168201915b5050505050615c7b565b5b8015614ccc5750614ccb846000808581526020019081526020016000206005018054600181600116156101000203166002900480601f016020809104026020016040519081016040528092919081815260200182805460018160011615610100020316600290048015614cc15780601f10614c9657610100808354040283529160200191614cc1565b820191906000526020600020905b815481529060010190602001808311614ca457829003601f168201915b5050505050615c7b565b5b15614cee57600080838152602001908152602001600020600001549050614cfb565b818060010192505061490f565b809250505095945050505050565b60606000808381526020019081526020016000206005018054600181600116156101000203166002900480601f016020809104026020016040519081016040528092919081815260200182805460018160011615610100020316600290048015614db45780601f10614d8957610100808354040283529160200191614db4565b820191906000526020600020905b815481529060010190602001808311614d9757829003601f168201915b50505050509050919050565b6060600460008081526020019081526020016000206001018054600181600116156101000203166002900480601f016020809104026020016040519081016040528092919081815260200182805460018160011615610100020316600290048015614e6c5780601f10614e4157610100808354040283529160200191614e6c565b820191906000526020600020905b815481529060010190602001808311614e4f57829003601f168201915b5050505050905090565b6060600360008381526020019081526020016000206003018054600181600116156101000203166002900480601f016020809104026020016040519081016040528092919081815260200182805460018160011615610100020316600290048015614f225780601f10614ef757610100808354040283529160200191614f22565b820191906000526020600020905b815481529060010190602001808311614f0557829003601f168201915b50505050509050919050565b6060600260008381526020019081526020016000206000018054600181600116156101000203166002900480601f016020809104026020016040519081016040528092919081815260200182805460018160011615610100020316600290048015614fda5780601f10614faf57610100808354040283529160200191614fda565b820191906000526020600020905b815481529060010190602001808311614fbd57829003601f168201915b50505050509050919050565b6000806000905060005b600b548210156150e2576150b284600360008581526020019081526020016000206004018054600181600116156101000203166002900480601f0160208091040260200160405190810160405280929190818152602001828054600181600116156101000203166002900480156150a85780601f1061507d576101008083540402835291602001916150a8565b820191906000526020600020905b81548152906001019060200180831161508b57829003601f168201915b5050505050615c7b565b156150d557600360008381526020019081526020016000206000015490506150e2565b8180600101925050614ff0565b8092505050919050565b6003602052806000526040600020600091509050806000015490806001018054600181600116156101000203166002900480601f01602080910402602001604051908101604052809291908181526020018280546001816001161561010002031660029004801561519e5780601f106151735761010080835404028352916020019161519e565b820191906000526020600020905b81548152906001019060200180831161518157829003601f168201915b505050505090806002018054600181600116156101000203166002900480601f01602080910402602001604051908101604052809291908181526020018280546001816001161561010002031660029004801561523c5780601f106152115761010080835404028352916020019161523c565b820191906000526020600020905b81548152906001019060200180831161521f57829003601f168201915b505050505090806003018054600181600116156101000203166002900480601f0160208091040260200160405190810160405280929190818152602001828054600181600116156101000203166002900480156152da5780601f106152af576101008083540402835291602001916152da565b820191906000526020600020905b8154815290600101906020018083116152bd57829003601f168201915b505050505090806004018054600181600116156101000203166002900480601f0160208091040260200160405190810160405280929190818152602001828054600181600116156101000203166002900480156153785780601f1061534d57610100808354040283529160200191615378565b820191906000526020600020905b81548152906001019060200180831161535b57829003601f168201915b5050505050905085565b6060600260008381526020019081526020016000206004018054600181600116156101000203166002900480601f01602080910402602001604051908101604052809291908181526020018280546001816001161561010002031660029004801561542e5780601f106154035761010080835404028352916020019161542e565b820191906000526020600020905b81548152906001019060200180831161541157829003601f168201915b50505050509050919050565b606060068054806020026020016040519081016040528092919081815260200182805480156154be57602002820191906000526020600020905b8160009054906101000a900473ffffffffffffffffffffffffffffffffffffffff1673ffffffffffffffffffffffffffffffffffffffff1681526020019060010190808311615474575b5050505050905090565b6000600a54905090565b6060600360008381526020019081526020016000206002018054600181600116156101000203166002900480601f01602080910402602001604051908101604052809291908181526020018280546001816001161561010002031660029004801561557e5780601f106155535761010080835404028352916020019161557e565b820191906000526020600020905b81548152906001019060200180831161556157829003601f168201915b50505050509050919050565b6060600260008381526020019081526020016000206005018054600181600116156101000203166002900480601f0160208091040260200160405190810160405280929190818152602001828054600181600116156101000203166002900480156156365780601f1061560b57610100808354040283529160200191615636565b820191906000526020600020905b81548152906001019060200180831161561957829003601f168201915b50505050509050919050565b6060600060606000606080600060026000898152602001908152602001600020600001600260008a815260200190815260200160002060010154600260008b8152602001908152602001600020600201600260008c815260200190815260200160002060030154600260008d8152602001908152602001600020600401600260008e8152602001908152602001600020600501600260008f815260200190815260200160002060060154868054600181600116156101000203166002900480601f0160208091040260200160405190810160405280929190818152602001828054600181600116156101000203166002900480156157815780601f1061575657610100808354040283529160200191615781565b820191906000526020600020905b81548152906001019060200180831161576457829003601f168201915b50505050509650848054600181600116156101000203166002900480601f01602080910402602001604051908101604052809291908181526020018280546001816001161561010002031660029004801561581d5780601f106157f25761010080835404028352916020019161581d565b820191906000526020600020905b81548152906001019060200180831161580057829003601f168201915b50505050509450828054600181600116156101000203166002900480601f0160208091040260200160405190810160405280929190818152602001828054600181600116156101000203166002900480156158b95780601f1061588e576101008083540402835291602001916158b9565b820191906000526020600020905b81548152906001019060200180831161589c57829003601f168201915b50505050509250818054600181600116156101000203166002900480601f0160208091040260200160405190810160405280929190818152602001828054600181600116156101000203166002900480156159555780601f1061592a57610100808354040283529160200191615955565b820191906000526020600020905b81548152906001019060200180831161593857829003601f168201915b505050505091509650965096509650965096509650919395979092949650565b81600080858152602001908152602001600020600601819055508060008085815260200190815260200160002060070181905550505050565b60606000808381526020019081526020016000206003018054600181600116156101000203166002900480601f016020809104026020016040519081016040528092919081815260200182805460018160011615610100020316600290048015615a595780601f10615a2e57610100808354040283529160200191615a59565b820191906000526020600020905b815481529060010190602001808311615a3c57829003601f168201915b50505050509050919050565b6000600954905090565b60068181548110615a7c57fe5b906000526020600020016000915054906101000a900473ffffffffffffffffffffffffffffffffffffffff1681565b600060026000838152602001908152602001600020600301549050919050565b6040518060e00160405280600954815260200187815260200186815260200185815260200184815260200183815260200182815250600160006009548152602001908152602001600020600082015181600001556020820151816001019080519060200190615b3b929190615d7b565b506040820151816002019080519060200190615b58929190615d7b565b50606082015181600301556080820151816004019080519060200190615b7f929190615d7b565b5060a0820151816005019080519060200190615b9c929190615d7b565b5060c08201518160060155905050600960008154809291906001019190505550505050505050565b60606000808381526020019081526020016000206002018054600181600116156101000203166002900480601f016020809104026020016040519081016040528092919081815260200182805460018160011615610100020316600290048015615c6f5780601f10615c4457610100808354040283529160200191615c6f565b820191906000526020600020905b815481529060010190602001808311615c5257829003601f168201915b50505050509050919050565b6000816040516020018082805190602001908083835b60208310615cb45780518252602082019150602081019050602083039250615c91565b6001836020036101000a03801982511681845116808217855250505050505090500191505060405160208183030381529060405280519060200120836040516020018082805190602001908083835b60208310615d265780518252602082019150602081019050602083039250615d03565b6001836020036101000a038019825116818451168082178552505050505050905001915050604051602081830303815290604052805190602001201415615d705760019050615d75565b600090505b92915050565b828054600181600116156101000203166002900490600052602060002090601f016020900481019282601f10615dbc57805160ff1916838001178555615dea565b82800160010185558215615dea579182015b82811115615de9578251825591602001919060010190615dce565b5b509050615df79190615dfb565b5090565b615e1d91905b80821115615e19576000816000905550600101615e01565b5090565b9056fea265627a7a72315820f7077bfec9df695e2cdbad8ad98d2570f60df48e19fd59bed24aba291ea9bf7364736f6c63430005100032",
  "source": "// SPDX-License-Identifier: MIT\r\npragma solidity >=0.4.22 <0.9.0;\r\n\r\ncontract Land {\r\n    // structs\r\n    struct Deed {\r\n        // deed instance variables\r\n        uint deedId;\r\n        string no;\r\n        string streetName;\r\n        string city;\r\n        string district;\r\n        string province;\r\n        uint assignedLawyerId; // to link the relevant lawyer to the deed\r\n        uint assignedSellerId; // to link the relevant seller to the deed\r\n    }\r\n\r\n    struct Buyer{\r\n        // Buyer instance variables\r\n       uint id;\r\n       string nic;\r\n       string name;\r\n       uint age;\r\n       string city;\r\n       string email; \r\n       uint telephoneNumber;\r\n    }\r\n\r\n    struct Lawyer{\r\n        // Lawyer instance variables\r\n        uint lawyerId;\r\n        string lawyerName;\r\n        string lawyernic;\r\n        string lawyerRegNo;\r\n        string lawyerEmail;\r\n    }\r\n\r\n    struct Seller {\r\n        // Seller instance variables\r\n        string name;\r\n\t\tuint id;\r\n\t\tstring nic;\r\n        uint age;\r\n        string city;\r\n\t\tstring email;\r\n        uint telephoneNumber;\r\n    }\r\n\r\n    struct Admin {\r\n        // Admin instance variables\r\n        uint id;\r\n        string adminPassword;\r\n    }\r\n\r\n    // mappings\r\n    mapping(uint => Deed) public deeds;\r\n    mapping(uint => Buyer) public Buyersmapping;\r\n    mapping(uint => Seller) public sellersMapping;\r\n    mapping(uint => Lawyer) public Lawyersmapping;\r\n    mapping(uint => Admin) public adminMapping;\r\n\r\n    \r\n    //arrays\r\n    address[] public Buyerlist;\r\n    address[] public sellerList;\r\n    address[] public lawyerList;\r\n\r\n    // Count tracking variables\r\n    uint private deedCount = 0;\r\n    uint private buyersCount = 0;\r\n    uint private sellersCount = 0;\r\n    uint private lawyerCount=0;\r\n    uint private adminCount = 0;\r\n\r\n    constructor() public {\r\n        // initializing the admin\r\n        adminMapping[adminCount] = Admin(adminCount, \"123\");\r\n        adminCount++;\r\n\r\n    }\r\n\r\n    // getter for deed count\r\n    function getDeedCount() public view returns (uint) {\r\n        return deedCount;\r\n    }\r\n\r\n    // getter for buyer count\r\n    function getBuyersCount() public view returns(uint){\r\n        return buyersCount;\r\n    }\r\n\r\n    // getter for lawyer count\r\n    function getLawyerCount() public view returns(uint){\r\n        return lawyerCount;\r\n    }\r\n\r\n    // getter for seller count\r\n    function getSellersCount() public view returns(uint){\r\n        return sellersCount;\r\n    }\r\n\r\n    // getter for admin count\r\n    function getAdminCount() public view returns(uint){\r\n        return adminCount;\r\n    }\r\n\r\n    //getters for Deed struct\r\n    function getDeedId(uint index) public view returns (uint) {\r\n        return deeds[index].deedId;\r\n    }\r\n\r\n    function getDeedNo(uint index) public view returns (string memory) {\r\n        return deeds[index].no;\r\n    }\r\n\r\n    function getDeedStreetName(uint index) public view returns (string memory) {\r\n        return deeds[index].streetName;\r\n    }\r\n\r\n    function getDeedCity(uint index) public view returns (string memory) {\r\n        return deeds[index].city;\r\n    }\r\n\r\n    function getDeedDistrict(uint index) public view returns (string memory) {\r\n        return deeds[index].district;\r\n    }\r\n\r\n    function getDeedProvince(uint index) public view returns (string memory) {\r\n        return deeds[index].province;\r\n    }\r\n\r\n    function getLawyerIdOfDeed(uint index) public view returns (uint) {\r\n        return deeds[index].assignedLawyerId;\r\n    }\r\n\r\n    function getSellerIdOfDeed(uint index) public view returns (uint) {\r\n        return deeds[index].assignedSellerId;\r\n    }\r\n\r\n    // function to compare strings\r\n    function compareStrings(string memory s1, string memory s2) private pure returns (bool) {\r\n        if (keccak256(abi.encodePacked(s1)) == keccak256(abi.encodePacked(s2)))\r\n        {\r\n            return true;\r\n        }\r\n        else \r\n        {\r\n            return false;\r\n        }\r\n    }\r\n\r\n    // function to get the deed by the land address for searching purposes\r\n    function findDeedByAddress(string memory _no, string memory _streetName, string memory _city, string memory _district, string memory _province) public view returns (uint) {\r\n        uint i = 0;\r\n        uint returningDeedId;\r\n        while (i < deedCount)\r\n        {\r\n            if (compareStrings(_no, deeds[i].no) && compareStrings(_streetName, deeds[i].streetName) && compareStrings(_city, deeds[i].city) && compareStrings(_district, deeds[i].district) && compareStrings(_province, deeds[i].province))\r\n            {\r\n                returningDeedId = deeds[i].deedId;\r\n                break;\r\n            }\r\n            i++;\r\n        }\r\n        return returningDeedId;\r\n    }\r\n\r\n    // function to get the lawyer by email\r\n    function findLawyerByEmail(string memory _email) public view returns (uint) {\r\n        uint i = 0;\r\n        uint returningLawyerId;\r\n        while (i < lawyerCount)\r\n        {\r\n            if (compareStrings(_email, Lawyersmapping[i].lawyerEmail))\r\n            {\r\n                returningLawyerId = Lawyersmapping[i].lawyerId;\r\n                break;\r\n            }\r\n            i++;\r\n        }\r\n        return returningLawyerId;\r\n    }\r\n\r\n    //function to get the seller by email\r\n    function findSellerByEmail(string memory _email) public view returns (uint) {\r\n        uint i = 0;\r\n        uint returningSellerId;\r\n        while (i < sellersCount)\r\n        {\r\n            if (compareStrings(_email, sellersMapping[i].email))\r\n            {\r\n                returningSellerId = sellersMapping[i].id;\r\n                break;\r\n            }\r\n            i++;\r\n        }\r\n        return returningSellerId;\r\n    }\r\n\r\n    // function to change land deed buyer and seller\r\n    function changeDeedBuyerAndSeller(uint _deedId, uint _assignedLawyerId, uint _assignedSellerId) public {\r\n        \r\n        deeds[_deedId].assignedLawyerId = _assignedLawyerId;\r\n        deeds[_deedId].assignedSellerId = _assignedSellerId;\r\n    }\r\n\r\n    //getter for the Buyerlist array\r\n    function getBuyer() public view returns( address [] memory){\r\n        return(Buyerlist);\r\n    }\r\n\r\n    //getter for the seller list array\r\n    function getSeller() public view returns( address [] memory){\r\n        return(sellerList);\r\n    }\r\n\r\n    //getter for the lawyerList array\r\n    function getLawyer() public view returns( address [] memory){\r\n        return(lawyerList);\r\n    }\r\n\r\n    // function to add a new deed to the deeds mapping\r\n    function addNewDeed(string memory _no, string memory _streetName, string memory _city, string memory _district, string memory _province, uint _assignedLawyerId, uint _assignedSellerId) public {\r\n        deeds[deedCount] = Deed(deedCount, _no, _streetName, _city, _district, _province, _assignedLawyerId, _assignedSellerId);\r\n        deedCount++;\r\n    }\r\n\r\n    //function to register new Buyer\r\n    function registerBuyer(string memory _nic, string memory _name, uint _age, string memory _city, string memory _email, uint _telephoneNumber) public {\r\n        Buyersmapping[buyersCount] = Buyer(buyersCount, _nic,  _name, _age, _city, _email, _telephoneNumber);\r\n        buyersCount++;\r\n    }\r\n\r\n    //function to register a seller\r\n    function registerSeller(string memory _name, string memory _nic, uint _age, string memory _city, string memory _email, uint _telephoneNumber) public {\r\n        sellersMapping[sellersCount] = Seller(_name, sellersCount, _nic, _age, _city, _email, _telephoneNumber);\r\n        sellersCount++;\r\n    }\r\n\r\n    //function to register a new Lawyer\r\n    function registerLawyer(string memory _lawyerName, string memory _lawyernic, string memory _lawyerRegNo, string memory _lawyerEmail) public {\r\n        Lawyersmapping[lawyerCount] = Lawyer(lawyerCount, _lawyerName, _lawyernic, _lawyerRegNo, _lawyerEmail);\r\n        lawyerCount++;\r\n    }\r\n\r\n    //function to display buyer details\r\n    function displayBuyer(uint index) public view returns (uint _id, string memory _nic, string memory _name, uint _age, string memory _city, string memory _email, uint _telephoneNumber){\r\n        return(Buyersmapping[index].id, Buyersmapping[index].nic,Buyersmapping[index].name,Buyersmapping[index].age,Buyersmapping[index].city,Buyersmapping[index].email,Buyersmapping[index].telephoneNumber);\r\n\r\n    } \r\n\r\n    //function to display seller details\r\n    function displaySeller(uint index) public view returns (string memory _name, uint _id, string memory _nic, uint _age, string memory _city, string memory _email, uint _telephoneNumber){\r\n        return(sellersMapping[index].name, sellersMapping[index].id, sellersMapping[index].nic, sellersMapping[index].age, sellersMapping[index].city, sellersMapping[index].email, sellersMapping[index].telephoneNumber);\r\n    }\r\n\r\n    //function to add admin\r\n    function addAdmin(string memory _adminPassword) private {\r\n        \r\n        adminMapping[adminCount] = Admin(adminCount, _adminPassword);\r\n        adminCount++;\r\n    }\r\n    \r\n    //function to display lawyer details\r\n    function displayLawyer(uint index) public view returns (uint _lawyerId, string memory _lawyerName, string memory _lawyernic, string memory _lawyerRegNo, string memory _lawyerEmail){\r\n        return(Lawyersmapping[index].lawyerId, Lawyersmapping[index].lawyerName, Lawyersmapping[index].lawyernic, Lawyersmapping[index].lawyerRegNo, Lawyersmapping[index].lawyerEmail);\r\n    }\r\n\r\n    // function to get the lawyer id\r\n    function getLawyerId(uint index) public view returns (uint) {\r\n        return Lawyersmapping[index].lawyerId;\r\n    }\r\n\r\n    // function to get the lawyer name\r\n    function getLawyerName(uint index) public view returns (string memory) {\r\n        return Lawyersmapping[index].lawyerName;\r\n    }\r\n\r\n    // function to get the lawyer nic\r\n    function getLawyerNic(uint index) public view returns (string memory) {\r\n        return Lawyersmapping[index].lawyernic;\r\n    }\r\n\r\n    // function to get the lawyer reg no\r\n    function getLawyerRegNo(uint index) public view returns (string memory) {\r\n        return Lawyersmapping[index].lawyerRegNo;\r\n    }\r\n\r\n    // function to get the lawyer email\r\n    function getLawyerEmail(uint index) public view returns (string memory) {\r\n        return Lawyersmapping[index].lawyerEmail;\r\n    }\r\n\r\n    // function to get the seller id\r\n    function getSellerId(uint index) public view returns (uint) {\r\n        return sellersMapping[index].id;\r\n    }\r\n\r\n    // function to get the seller name\r\n    function getSellerName(uint index) public view returns (string memory) {\r\n        return sellersMapping[index].name;\r\n    }\r\n\r\n    // function to get the seller nic\r\n    function getSellerNic(uint index) public view returns (string memory) {\r\n        return sellersMapping[index].nic;\r\n    }\r\n\r\n    // function to get the seller age\r\n    function getSellerAge(uint index) public view returns (uint) {\r\n        return sellersMapping[index].age;\r\n    }\r\n\r\n    // function to get the seller city\r\n    function getSellerCity(uint index) public view returns (string memory) {\r\n        return sellersMapping[index].city;\r\n    }\r\n\r\n    // function to get the seller email\r\n    function getSellerEmail(uint index) public view returns (string memory) {\r\n        return sellersMapping[index].email;\r\n    }\r\n\r\n    // function to get the seller telephonenumber\r\n    function getSellerTelephoneNo(uint index) public view returns (uint) {\r\n        return sellersMapping[index].telephoneNumber;\r\n    }\r\n\r\n    //function to get admin id\r\n    function getAdminId() public view returns (uint) {\r\n        return adminMapping[0].id;\r\n    }\r\n\r\n    //function to get admin password\r\n    function getAdminPassword() public view returns (string memory) {\r\n        return adminMapping[0].adminPassword;\r\n    }\r\n}",
  "sourcePath": "C:\\Users\\gavin\\Desktop\\DBLOCK\\frontEnd\\LandFrontEnd\\contracts\\Land.sol",
  "compiler": {
    "name": "solc",
    "version": "0.5.16+commit.9c3226ce.Emscripten.clang"
  },
  "schemaVersion": "3.4.4",
  "updatedAt": "2022-03-11T09:05:32.951Z",
  "networkType": "ethereum",
  "devdoc": {
    "methods": {}
  },
  "userdoc": {
    "methods": {}
  }
}