{
  "contractName": "Land",
  "abi": [
    {
      "inputs": [
        {
          "internalType": "uint256",
          "name": "",
          "type": "uint256"
        }
      ],
      "name": "Buyerlist",
      "outputs": [
        {
          "internalType": "address",
          "name": "",
          "type": "address"
        }
      ],
      "stateMutability": "view",
      "type": "function",
      "constant": true
    },
    {
      "inputs": [
        {
          "internalType": "uint256",
          "name": "",
          "type": "uint256"
        }
      ],
      "name": "Buyersmapping",
      "outputs": [
        {
          "internalType": "uint256",
          "name": "id",
          "type": "uint256"
        },
        {
          "internalType": "string",
          "name": "nic",
          "type": "string"
        },
        {
          "internalType": "string",
          "name": "name",
          "type": "string"
        },
        {
          "internalType": "uint256",
          "name": "age",
          "type": "uint256"
        },
        {
          "internalType": "string",
          "name": "city",
          "type": "string"
        },
        {
          "internalType": "string",
          "name": "email",
          "type": "string"
        },
        {
          "internalType": "uint256",
          "name": "telephoneNumber",
          "type": "uint256"
        }
      ],
      "stateMutability": "view",
      "type": "function",
      "constant": true
    },
    {
      "inputs": [
        {
          "internalType": "uint256",
          "name": "",
          "type": "uint256"
        }
      ],
      "name": "Lawyersmapping",
      "outputs": [
        {
          "internalType": "uint256",
          "name": "lawyerId",
          "type": "uint256"
        },
        {
          "internalType": "string",
          "name": "lawyerName",
          "type": "string"
        },
        {
          "internalType": "string",
          "name": "lawyernic",
          "type": "string"
        },
        {
          "internalType": "string",
          "name": "lawyerRegNo",
          "type": "string"
        },
        {
          "internalType": "string",
          "name": "lawyerEmail",
          "type": "string"
        }
      ],
      "stateMutability": "view",
      "type": "function",
      "constant": true
    },
    {
      "inputs": [
        {
          "internalType": "uint256",
          "name": "",
          "type": "uint256"
        }
      ],
      "name": "adminMapping",
      "outputs": [
        {
          "internalType": "uint256",
          "name": "id",
          "type": "uint256"
        }
      ],
      "stateMutability": "view",
      "type": "function",
      "constant": true
    },
    {
      "inputs": [
        {
          "internalType": "uint256",
          "name": "",
          "type": "uint256"
        }
      ],
      "name": "deeds",
      "outputs": [
        {
          "internalType": "uint256",
          "name": "deedId",
          "type": "uint256"
        },
        {
          "internalType": "string",
          "name": "no",
          "type": "string"
        },
        {
          "internalType": "string",
          "name": "streetName",
          "type": "string"
        },
        {
          "internalType": "string",
          "name": "city",
          "type": "string"
        },
        {
          "internalType": "string",
          "name": "district",
          "type": "string"
        },
        {
          "internalType": "string",
          "name": "province",
          "type": "string"
        },
        {
          "internalType": "uint256",
          "name": "assignedLawyerId",
          "type": "uint256"
        },
        {
          "internalType": "uint256",
          "name": "assignedSellerId",
          "type": "uint256"
        }
      ],
      "stateMutability": "view",
      "type": "function",
      "constant": true
    },
    {
      "inputs": [
        {
          "internalType": "uint256",
          "name": "",
          "type": "uint256"
        }
      ],
      "name": "lawyerList",
      "outputs": [
        {
          "internalType": "address",
          "name": "",
          "type": "address"
        }
      ],
      "stateMutability": "view",
      "type": "function",
      "constant": true
    },
    {
      "inputs": [
        {
          "internalType": "uint256",
          "name": "",
          "type": "uint256"
        }
      ],
      "name": "sellerList",
      "outputs": [
        {
          "internalType": "address",
          "name": "",
          "type": "address"
        }
      ],
      "stateMutability": "view",
      "type": "function",
      "constant": true
    },
    {
      "inputs": [
        {
          "internalType": "uint256",
          "name": "",
          "type": "uint256"
        }
      ],
      "name": "sellersMapping",
      "outputs": [
        {
          "internalType": "string",
          "name": "name",
          "type": "string"
        },
        {
          "internalType": "uint256",
          "name": "id",
          "type": "uint256"
        },
        {
          "internalType": "string",
          "name": "nic",
          "type": "string"
        },
        {
          "internalType": "uint256",
          "name": "age",
          "type": "uint256"
        },
        {
          "internalType": "string",
          "name": "city",
          "type": "string"
        },
        {
          "internalType": "string",
          "name": "email",
          "type": "string"
        },
        {
          "internalType": "uint256",
          "name": "telephoneNumber",
          "type": "uint256"
        }
      ],
      "stateMutability": "view",
      "type": "function",
      "constant": true
    },
    {
      "inputs": [],
      "name": "getDeedCount",
      "outputs": [
        {
          "internalType": "uint256",
          "name": "",
          "type": "uint256"
        }
      ],
      "stateMutability": "view",
      "type": "function",
      "constant": true
    },
    {
      "inputs": [],
      "name": "getBuyersCount",
      "outputs": [
        {
          "internalType": "uint256",
          "name": "",
          "type": "uint256"
        }
      ],
      "stateMutability": "view",
      "type": "function",
      "constant": true
    },
    {
      "inputs": [],
      "name": "getLawyerCount",
      "outputs": [
        {
          "internalType": "uint256",
          "name": "",
          "type": "uint256"
        }
      ],
      "stateMutability": "view",
      "type": "function",
      "constant": true
    },
    {
      "inputs": [],
      "name": "getSellersCount",
      "outputs": [
        {
          "internalType": "uint256",
          "name": "",
          "type": "uint256"
        }
      ],
      "stateMutability": "view",
      "type": "function",
      "constant": true
    },
    {
      "inputs": [],
      "name": "getAdminCount",
      "outputs": [
        {
          "internalType": "uint256",
          "name": "",
          "type": "uint256"
        }
      ],
      "stateMutability": "view",
      "type": "function",
      "constant": true
    },
    {
      "inputs": [
        {
          "internalType": "uint256",
          "name": "index",
          "type": "uint256"
        }
      ],
      "name": "getDeedId",
      "outputs": [
        {
          "internalType": "uint256",
          "name": "",
          "type": "uint256"
        }
      ],
      "stateMutability": "view",
      "type": "function",
      "constant": true
    },
    {
      "inputs": [
        {
          "internalType": "uint256",
          "name": "index",
          "type": "uint256"
        }
      ],
      "name": "getDeedNo",
      "outputs": [
        {
          "internalType": "string",
          "name": "",
          "type": "string"
        }
      ],
      "stateMutability": "view",
      "type": "function",
      "constant": true
    },
    {
      "inputs": [
        {
          "internalType": "uint256",
          "name": "index",
          "type": "uint256"
        }
      ],
      "name": "getDeedStreetName",
      "outputs": [
        {
          "internalType": "string",
          "name": "",
          "type": "string"
        }
      ],
      "stateMutability": "view",
      "type": "function",
      "constant": true
    },
    {
      "inputs": [
        {
          "internalType": "uint256",
          "name": "index",
          "type": "uint256"
        }
      ],
      "name": "getDeedCity",
      "outputs": [
        {
          "internalType": "string",
          "name": "",
          "type": "string"
        }
      ],
      "stateMutability": "view",
      "type": "function",
      "constant": true
    },
    {
      "inputs": [
        {
          "internalType": "uint256",
          "name": "index",
          "type": "uint256"
        }
      ],
      "name": "getDeedDistrict",
      "outputs": [
        {
          "internalType": "string",
          "name": "",
          "type": "string"
        }
      ],
      "stateMutability": "view",
      "type": "function",
      "constant": true
    },
    {
      "inputs": [
        {
          "internalType": "uint256",
          "name": "index",
          "type": "uint256"
        }
      ],
      "name": "getDeedProvince",
      "outputs": [
        {
          "internalType": "string",
          "name": "",
          "type": "string"
        }
      ],
      "stateMutability": "view",
      "type": "function",
      "constant": true
    },
    {
      "inputs": [
        {
          "internalType": "uint256",
          "name": "index",
          "type": "uint256"
        }
      ],
      "name": "getLawyerIdOfDeed",
      "outputs": [
        {
          "internalType": "uint256",
          "name": "",
          "type": "uint256"
        }
      ],
      "stateMutability": "view",
      "type": "function",
      "constant": true
    },
    {
      "inputs": [
        {
          "internalType": "uint256",
          "name": "index",
          "type": "uint256"
        }
      ],
      "name": "getSellerIdOfDeed",
      "outputs": [
        {
          "internalType": "uint256",
          "name": "",
          "type": "uint256"
        }
      ],
      "stateMutability": "view",
      "type": "function",
      "constant": true
    },
    {
      "inputs": [
        {
          "internalType": "string",
          "name": "_no",
          "type": "string"
        },
        {
          "internalType": "string",
          "name": "_streetName",
          "type": "string"
        },
        {
          "internalType": "string",
          "name": "_city",
          "type": "string"
        },
        {
          "internalType": "string",
          "name": "_district",
          "type": "string"
        },
        {
          "internalType": "string",
          "name": "_province",
          "type": "string"
        }
      ],
      "name": "findDeedByAddress",
      "outputs": [
        {
          "internalType": "uint256",
          "name": "",
          "type": "uint256"
        }
      ],
      "stateMutability": "view",
      "type": "function",
      "constant": true
    },
    {
      "inputs": [
        {
          "internalType": "uint256",
          "name": "_deedId",
          "type": "uint256"
        },
        {
          "internalType": "uint256",
          "name": "_assignedLawyerId",
          "type": "uint256"
        },
        {
          "internalType": "uint256",
          "name": "_assignedSellerId",
          "type": "uint256"
        }
      ],
      "name": "changeDeedBuyerAndSeller",
      "outputs": [],
      "stateMutability": "nonpayable",
      "type": "function"
    },
    {
      "inputs": [],
      "name": "getBuyer",
      "outputs": [
        {
          "internalType": "address[]",
          "name": "",
          "type": "address[]"
        }
      ],
      "stateMutability": "view",
      "type": "function",
      "constant": true
    },
    {
      "inputs": [],
      "name": "getSeller",
      "outputs": [
        {
          "internalType": "address[]",
          "name": "",
          "type": "address[]"
        }
      ],
      "stateMutability": "view",
      "type": "function",
      "constant": true
    },
    {
      "inputs": [],
      "name": "getLawyer",
      "outputs": [
        {
          "internalType": "address[]",
          "name": "",
          "type": "address[]"
        }
      ],
      "stateMutability": "view",
      "type": "function",
      "constant": true
    },
    {
      "inputs": [
        {
          "internalType": "string",
          "name": "_no",
          "type": "string"
        },
        {
          "internalType": "string",
          "name": "_streetName",
          "type": "string"
        },
        {
          "internalType": "string",
          "name": "_city",
          "type": "string"
        },
        {
          "internalType": "string",
          "name": "_district",
          "type": "string"
        },
        {
          "internalType": "string",
          "name": "_province",
          "type": "string"
        },
        {
          "internalType": "uint256",
          "name": "_assignedLawyerId",
          "type": "uint256"
        },
        {
          "internalType": "uint256",
          "name": "_assignedSellerId",
          "type": "uint256"
        }
      ],
      "name": "addNewDeed",
      "outputs": [],
      "stateMutability": "nonpayable",
      "type": "function"
    },
    {
      "inputs": [
        {
          "internalType": "uint256",
          "name": "_id",
          "type": "uint256"
        },
        {
          "internalType": "string",
          "name": "_nic",
          "type": "string"
        },
        {
          "internalType": "string",
          "name": "_name",
          "type": "string"
        },
        {
          "internalType": "uint256",
          "name": "_age",
          "type": "uint256"
        },
        {
          "internalType": "string",
          "name": "_city",
          "type": "string"
        },
        {
          "internalType": "string",
          "name": "_email",
          "type": "string"
        },
        {
          "internalType": "uint256",
          "name": "_telephoneNumber",
          "type": "uint256"
        }
      ],
      "name": "registerBuyer",
      "outputs": [],
      "stateMutability": "nonpayable",
      "type": "function"
    },
    {
      "inputs": [
        {
          "internalType": "string",
          "name": "_name",
          "type": "string"
        },
        {
          "internalType": "uint256",
          "name": "_id",
          "type": "uint256"
        },
        {
          "internalType": "string",
          "name": "_nic",
          "type": "string"
        },
        {
          "internalType": "uint256",
          "name": "_age",
          "type": "uint256"
        },
        {
          "internalType": "string",
          "name": "_city",
          "type": "string"
        },
        {
          "internalType": "string",
          "name": "_email",
          "type": "string"
        },
        {
          "internalType": "uint256",
          "name": "_telephoneNumber",
          "type": "uint256"
        }
      ],
      "name": "registerSeller",
      "outputs": [],
      "stateMutability": "nonpayable",
      "type": "function"
    },
    {
      "inputs": [
        {
          "internalType": "uint256",
          "name": "_lawyerId",
          "type": "uint256"
        },
        {
          "internalType": "string",
          "name": "_lawyerName",
          "type": "string"
        },
        {
          "internalType": "string",
          "name": "_lawyernic",
          "type": "string"
        },
        {
          "internalType": "string",
          "name": "_lawyerRegNo",
          "type": "string"
        },
        {
          "internalType": "string",
          "name": "_lawyerEmail",
          "type": "string"
        }
      ],
      "name": "registerLawyer",
      "outputs": [],
      "stateMutability": "nonpayable",
      "type": "function"
    },
    {
      "inputs": [
        {
          "internalType": "uint256",
          "name": "index",
          "type": "uint256"
        }
      ],
      "name": "displayBuyer",
      "outputs": [
        {
          "internalType": "uint256",
          "name": "_id",
          "type": "uint256"
        },
        {
          "internalType": "string",
          "name": "_nic",
          "type": "string"
        },
        {
          "internalType": "string",
          "name": "_name",
          "type": "string"
        },
        {
          "internalType": "uint256",
          "name": "_age",
          "type": "uint256"
        },
        {
          "internalType": "string",
          "name": "_city",
          "type": "string"
        },
        {
          "internalType": "string",
          "name": "_email",
          "type": "string"
        },
        {
          "internalType": "uint256",
          "name": "_telephoneNumber",
          "type": "uint256"
        }
      ],
      "stateMutability": "view",
      "type": "function",
      "constant": true
    },
    {
      "inputs": [
        {
          "internalType": "uint256",
          "name": "index",
          "type": "uint256"
        }
      ],
      "name": "displaySeller",
      "outputs": [
        {
          "internalType": "string",
          "name": "_name",
          "type": "string"
        },
        {
          "internalType": "uint256",
          "name": "_id",
          "type": "uint256"
        },
        {
          "internalType": "string",
          "name": "_nic",
          "type": "string"
        },
        {
          "internalType": "uint256",
          "name": "_age",
          "type": "uint256"
        },
        {
          "internalType": "string",
          "name": "_city",
          "type": "string"
        },
        {
          "internalType": "string",
          "name": "_email",
          "type": "string"
        },
        {
          "internalType": "uint256",
          "name": "_telephoneNumber",
          "type": "uint256"
        }
      ],
      "stateMutability": "view",
      "type": "function",
      "constant": true
    },
    {
      "inputs": [
        {
          "internalType": "uint256",
          "name": "index",
          "type": "uint256"
        }
      ],
      "name": "displayLawyer",
      "outputs": [
        {
          "internalType": "uint256",
          "name": "_lawyerId",
          "type": "uint256"
        },
        {
          "internalType": "string",
          "name": "_lawyerName",
          "type": "string"
        },
        {
          "internalType": "string",
          "name": "_lawyernic",
          "type": "string"
        },
        {
          "internalType": "string",
          "name": "_lawyerRegNo",
          "type": "string"
        },
        {
          "internalType": "string",
          "name": "_lawyerEmail",
          "type": "string"
        }
      ],
      "stateMutability": "view",
      "type": "function",
      "constant": true
    }
  ],
  "bytecode": "0x6080604052600060085560006009556000600a556000600b556000600c5534801561002957600080fd5b5061364a806100396000396000f3fe608060405234801561001057600080fd5b50600436106101fb5760003560e01c80637c6eb1031161011a578063cff0c7c0116100ad578063ef3802351161007c578063ef38023514610699578063f0b93af9146106b5578063f0d3a9df146106e5578063f42a1b3114610703578063ffb434fb14610733576101fb565b8063cff0c7c0146105f3578063dbd0e1b614610627578063dd9d122d14610645578063e513745914610663576101fb565b806393addc08116100e957806393addc08146105415780639614681b1461057757806397ecb508146105a75780639cd681f5146105c3576101fb565b80637c6eb1031461049f57806380014029146104d55780638b7bf3eb146104f3578063916a1c7014610511576101fb565b8063334bb745116101925780635dd56798116101615780635dd5679814610417578063603daf9a14610447578063655dc4c214610465578063721fa41814610483576101fb565b8063334bb7451461037957806335a82e72146103975780634fac8ae9146103c757806355bb2bcc146103e3576101fb565b806321eb5a7c116101ce57806321eb5a7c146102c7578063275ea7cf146102f757806327dc19dd1461032d57806332a6785314610349576101fb565b806305624d35146102005780630df7ec2414610230578063119d41f41461026057806318edf56414610290575b600080fd5b61021a600480360381019061021591906129a8565b610763565b6040516102279190612a6e565b60405180910390f35b61024a600480360381019061024591906129a8565b61080a565b6040516102579190612a9f565b60405180910390f35b61027a600480360381019061027591906129a8565b610829565b6040516102879190612afb565b60405180910390f35b6102aa60048036038101906102a591906129a8565b610868565b6040516102be989796959493929190612b16565b60405180910390f35b6102e160048036038101906102dc91906129a8565b610b58565b6040516102ee9190612a9f565b60405180910390f35b610311600480360381019061030c91906129a8565b610b76565b6040516103249796959493929190612bb7565b60405180910390f35b61034760048036038101906103429190612d77565b610e68565b005b610363600480360381019061035e91906129a8565b610f44565b6040516103709190612a6e565b60405180910390f35b610381610feb565b60405161038e9190612a9f565b60405180910390f35b6103b160048036038101906103ac91906129a8565b610ff5565b6040516103be9190612a9f565b60405180910390f35b6103e160048036038101906103dc9190612e62565b611014565b005b6103fd60048036038101906103f891906129a8565b611112565b60405161040e959493929190612f74565b60405180910390f35b610431600480360381019061042c91906129a8565b6113cc565b60405161043e9190612a9f565b60405180910390f35b61044f6113eb565b60405161045c91906130a1565b60405180910390f35b61046d611479565b60405161047a9190612a9f565b60405180910390f35b61049d600480360381019061049891906130c3565b611483565b005b6104b960048036038101906104b491906129a8565b6115a6565b6040516104cc97969594939291906131f1565b60405180910390f35b6104dd611808565b6040516104ea91906130a1565b60405180910390f35b6104fb611896565b6040516105089190612a9f565b60405180910390f35b61052b600480360381019061052691906129a8565b6118a0565b6040516105389190612afb565b60405180910390f35b61055b600480360381019061055691906129a8565b6118df565b60405161056e9796959493929190612bb7565b60405180910390f35b610591600480360381019061058c919061327c565b611b41565b60405161059e9190612a9f565b60405180910390f35b6105c160048036038101906105bc9190613383565b611efb565b005b6105dd60048036038101906105d891906129a8565b611ff9565b6040516105ea9190612a6e565b60405180910390f35b61060d600480360381019061060891906129a8565b6120a0565b60405161061e959493929190612f74565b60405180910390f35b61062f6122f6565b60405161063c91906130a1565b60405180910390f35b61064d612384565b60405161065a9190612a9f565b60405180910390f35b61067d600480360381019061067891906129a8565b61238e565b60405161069097969594939291906131f1565b60405180910390f35b6106b360048036038101906106ae9190613495565b612681565b005b6106cf60048036038101906106ca91906129a8565b6126ba565b6040516106dc9190612a6e565b60405180910390f35b6106ed612761565b6040516106fa9190612a9f565b60405180910390f35b61071d600480360381019061071891906129a8565b61276b565b60405161072a9190612afb565b60405180910390f35b61074d600480360381019061074891906129a8565b6127aa565b60405161075a9190612a6e565b60405180910390f35b6060600080838152602001908152602001600020600401805461078590613517565b80601f01602080910402602001604051908101604052809291908181526020018280546107b190613517565b80156107fe5780601f106107d3576101008083540402835291602001916107fe565b820191906000526020600020905b8154815290600101906020018083116107e157829003601f168201915b50505050509050919050565b6000806000838152602001908152602001600020600001549050919050565b6005818154811061083957600080fd5b906000526020600020016000915054906101000a900473ffffffffffffffffffffffffffffffffffffffff1681565b600060205280600052604060002060009150905080600001549080600101805461089190613517565b80601f01602080910402602001604051908101604052809291908181526020018280546108bd90613517565b801561090a5780601f106108df5761010080835404028352916020019161090a565b820191906000526020600020905b8154815290600101906020018083116108ed57829003601f168201915b50505050509080600201805461091f90613517565b80601f016020809104026020016040519081016040528092919081815260200182805461094b90613517565b80156109985780601f1061096d57610100808354040283529160200191610998565b820191906000526020600020905b81548152906001019060200180831161097b57829003601f168201915b5050505050908060030180546109ad90613517565b80601f01602080910402602001604051908101604052809291908181526020018280546109d990613517565b8015610a265780601f106109fb57610100808354040283529160200191610a26565b820191906000526020600020905b815481529060010190602001808311610a0957829003601f168201915b505050505090806004018054610a3b90613517565b80601f0160208091040260200160405190810160405280929190818152602001828054610a6790613517565b8015610ab45780601f10610a8957610100808354040283529160200191610ab4565b820191906000526020600020905b815481529060010190602001808311610a9757829003601f168201915b505050505090806005018054610ac990613517565b80601f0160208091040260200160405190810160405280929190818152602001828054610af590613517565b8015610b425780601f10610b1757610100808354040283529160200191610b42565b820191906000526020600020905b815481529060010190602001808311610b2557829003601f168201915b5050505050908060060154908060070154905088565b60046020528060005260406000206000915090508060000154905081565b6000606080600060608060006001600089815260200190815260200160002060000154600160008a8152602001908152602001600020600101600160008b8152602001908152602001600020600201600160008c815260200190815260200160002060030154600160008d8152602001908152602001600020600401600160008e8152602001908152602001600020600501600160008f815260200190815260200160002060060154858054610c2b90613517565b80601f0160208091040260200160405190810160405280929190818152602001828054610c5790613517565b8015610ca45780601f10610c7957610100808354040283529160200191610ca4565b820191906000526020600020905b815481529060010190602001808311610c8757829003601f168201915b50505050509550848054610cb790613517565b80601f0160208091040260200160405190810160405280929190818152602001828054610ce390613517565b8015610d305780601f10610d0557610100808354040283529160200191610d30565b820191906000526020600020905b815481529060010190602001808311610d1357829003601f168201915b50505050509450828054610d4390613517565b80601f0160208091040260200160405190810160405280929190818152602001828054610d6f90613517565b8015610dbc5780601f10610d9157610100808354040283529160200191610dbc565b820191906000526020600020905b815481529060010190602001808311610d9f57829003601f168201915b50505050509250818054610dcf90613517565b80601f0160208091040260200160405190810160405280929190818152602001828054610dfb90613517565b8015610e485780601f10610e1d57610100808354040283529160200191610e48565b820191906000526020600020905b815481529060010190602001808311610e2b57829003601f168201915b505050505091509650965096509650965096509650919395979092949650565b6040518060a001604052808681526020018581526020018481526020018381526020018281525060036000600b548152602001908152602001600020600082015181600001556020820151816001019080519060200190610eca9291906128bb565b506040820151816002019080519060200190610ee79291906128bb565b506060820151816003019080519060200190610f049291906128bb565b506080820151816004019080519060200190610f219291906128bb565b50905050600b6000815480929190610f3890613578565b91905055505050505050565b60606000808381526020019081526020016000206001018054610f6690613517565b80601f0160208091040260200160405190810160405280929190818152602001828054610f9290613517565b8015610fdf5780601f10610fb457610100808354040283529160200191610fdf565b820191906000526020600020905b815481529060010190602001808311610fc257829003601f168201915b50505050509050919050565b6000600854905090565b6000806000838152602001908152602001600020600601549050919050565b6040518060e00160405280888152602001878152602001868152602001858152602001848152602001838152602001828152506001600060095481526020019081526020016000206000820151816000015560208201518160010190805190602001906110829291906128bb565b50604082015181600201908051906020019061109f9291906128bb565b506060820151816003015560808201518160040190805190602001906110c69291906128bb565b5060a08201518160050190805190602001906110e39291906128bb565b5060c082015181600601559050506009600081548092919061110490613578565b919050555050505050505050565b600060608060608060036000878152602001908152602001600020600001546003600088815260200190815260200160002060010160036000898152602001908152602001600020600201600360008a8152602001908152602001600020600301600360008b815260200190815260200160002060040183805461119590613517565b80601f01602080910402602001604051908101604052809291908181526020018280546111c190613517565b801561120e5780601f106111e35761010080835404028352916020019161120e565b820191906000526020600020905b8154815290600101906020018083116111f157829003601f168201915b5050505050935082805461122190613517565b80601f016020809104026020016040519081016040528092919081815260200182805461124d90613517565b801561129a5780601f1061126f5761010080835404028352916020019161129a565b820191906000526020600020905b81548152906001019060200180831161127d57829003601f168201915b505050505092508180546112ad90613517565b80601f01602080910402602001604051908101604052809291908181526020018280546112d990613517565b80156113265780601f106112fb57610100808354040283529160200191611326565b820191906000526020600020905b81548152906001019060200180831161130957829003601f168201915b5050505050915080805461133990613517565b80601f016020809104026020016040519081016040528092919081815260200182805461136590613517565b80156113b25780601f10611387576101008083540402835291602001916113b2565b820191906000526020600020905b81548152906001019060200180831161139557829003601f168201915b505050505090509450945094509450945091939590929450565b6000806000838152602001908152602001600020600701549050919050565b6060600580548060200260200160405190810160405280929190818152602001828054801561146f57602002820191906000526020600020905b8160009054906101000a900473ffffffffffffffffffffffffffffffffffffffff1673ffffffffffffffffffffffffffffffffffffffff1681526020019060010190808311611425575b5050505050905090565b6000600b54905090565b60405180610100016040528060085481526020018881526020018781526020018681526020018581526020018481526020018381526020018281525060008060085481526020019081526020016000206000820151816000015560208201518160010190805190602001906114f99291906128bb565b5060408201518160020190805190602001906115169291906128bb565b5060608201518160030190805190602001906115339291906128bb565b5060808201518160040190805190602001906115509291906128bb565b5060a082015181600501908051906020019061156d9291906128bb565b5060c0820151816006015560e082015181600701559050506008600081548092919061159890613578565b919050555050505050505050565b60026020528060005260406000206000915090508060000180546115c990613517565b80601f01602080910402602001604051908101604052809291908181526020018280546115f590613517565b80156116425780601f1061161757610100808354040283529160200191611642565b820191906000526020600020905b81548152906001019060200180831161162557829003601f168201915b50505050509080600101549080600201805461165d90613517565b80601f016020809104026020016040519081016040528092919081815260200182805461168990613517565b80156116d65780601f106116ab576101008083540402835291602001916116d6565b820191906000526020600020905b8154815290600101906020018083116116b957829003601f168201915b5050505050908060030154908060040180546116f190613517565b80601f016020809104026020016040519081016040528092919081815260200182805461171d90613517565b801561176a5780601f1061173f5761010080835404028352916020019161176a565b820191906000526020600020905b81548152906001019060200180831161174d57829003601f168201915b50505050509080600501805461177f90613517565b80601f01602080910402602001604051908101604052809291908181526020018280546117ab90613517565b80156117f85780601f106117cd576101008083540402835291602001916117f8565b820191906000526020600020905b8154815290600101906020018083116117db57829003601f168201915b5050505050908060060154905087565b6060600780548060200260200160405190810160405280929190818152602001828054801561188c57602002820191906000526020600020905b8160009054906101000a900473ffffffffffffffffffffffffffffffffffffffff1673ffffffffffffffffffffffffffffffffffffffff1681526020019060010190808311611842575b5050505050905090565b6000600c54905090565b600781815481106118b057600080fd5b906000526020600020016000915054906101000a900473ffffffffffffffffffffffffffffffffffffffff1681565b600160205280600052604060002060009150905080600001549080600101805461190890613517565b80601f016020809104026020016040519081016040528092919081815260200182805461193490613517565b80156119815780601f1061195657610100808354040283529160200191611981565b820191906000526020600020905b81548152906001019060200180831161196457829003601f168201915b50505050509080600201805461199690613517565b80601f01602080910402602001604051908101604052809291908181526020018280546119c290613517565b8015611a0f5780601f106119e457610100808354040283529160200191611a0f565b820191906000526020600020905b8154815290600101906020018083116119f257829003601f168201915b505050505090806003015490806004018054611a2a90613517565b80601f0160208091040260200160405190810160405280929190818152602001828054611a5690613517565b8015611aa35780601f10611a7857610100808354040283529160200191611aa3565b820191906000526020600020905b815481529060010190602001808311611a8657829003601f168201915b505050505090806005018054611ab890613517565b80601f0160208091040260200160405190810160405280929190818152602001828054611ae490613517565b8015611b315780601f10611b0657610100808354040283529160200191611b31565b820191906000526020600020905b815481529060010190602001808311611b1457829003601f168201915b5050505050908060060154905087565b6000806000905060005b600854821015611eed57611bfc886000808581526020019081526020016000206001018054611b7990613517565b80601f0160208091040260200160405190810160405280929190818152602001828054611ba590613517565b8015611bf25780601f10611bc757610100808354040283529160200191611bf2565b820191906000526020600020905b815481529060010190602001808311611bd557829003601f168201915b5050505050612851565b8015611cab5750611caa876000808581526020019081526020016000206002018054611c2790613517565b80601f0160208091040260200160405190810160405280929190818152602001828054611c5390613517565b8015611ca05780601f10611c7557610100808354040283529160200191611ca0565b820191906000526020600020905b815481529060010190602001808311611c8357829003601f168201915b5050505050612851565b5b8015611d5a5750611d59866000808581526020019081526020016000206003018054611cd690613517565b80601f0160208091040260200160405190810160405280929190818152602001828054611d0290613517565b8015611d4f5780601f10611d2457610100808354040283529160200191611d4f565b820191906000526020600020905b815481529060010190602001808311611d3257829003601f168201915b5050505050612851565b5b8015611e095750611e08856000808581526020019081526020016000206004018054611d8590613517565b80601f0160208091040260200160405190810160405280929190818152602001828054611db190613517565b8015611dfe5780601f10611dd357610100808354040283529160200191611dfe565b820191906000526020600020905b815481529060010190602001808311611de157829003601f168201915b5050505050612851565b5b8015611eb85750611eb7846000808581526020019081526020016000206005018054611e3490613517565b80601f0160208091040260200160405190810160405280929190818152602001828054611e6090613517565b8015611ead5780601f10611e8257610100808354040283529160200191611ead565b820191906000526020600020905b815481529060010190602001808311611e9057829003601f168201915b5050505050612851565b5b15611eda57600080838152602001908152602001600020600001549050611eed565b8180611ee590613578565b925050611b4b565b809250505095945050505050565b6040518060e001604052808881526020018781526020018681526020018581526020018481526020018381526020018281525060026000600a5481526020019081526020016000206000820151816000019080519060200190611f5f9291906128bb565b50602082015181600101556040820151816002019080519060200190611f869291906128bb565b50606082015181600301556080820151816004019080519060200190611fad9291906128bb565b5060a0820151816005019080519060200190611fca9291906128bb565b5060c08201518160060155905050600a6000815480929190611feb90613578565b919050555050505050505050565b6060600080838152602001908152602001600020600501805461201b90613517565b80601f016020809104026020016040519081016040528092919081815260200182805461204790613517565b80156120945780601f1061206957610100808354040283529160200191612094565b820191906000526020600020905b81548152906001019060200180831161207757829003601f168201915b50505050509050919050565b60036020528060005260406000206000915090508060000154908060010180546120c990613517565b80601f01602080910402602001604051908101604052809291908181526020018280546120f590613517565b80156121425780601f1061211757610100808354040283529160200191612142565b820191906000526020600020905b81548152906001019060200180831161212557829003601f168201915b50505050509080600201805461215790613517565b80601f016020809104026020016040519081016040528092919081815260200182805461218390613517565b80156121d05780601f106121a5576101008083540402835291602001916121d0565b820191906000526020600020905b8154815290600101906020018083116121b357829003601f168201915b5050505050908060030180546121e590613517565b80601f016020809104026020016040519081016040528092919081815260200182805461221190613517565b801561225e5780601f106122335761010080835404028352916020019161225e565b820191906000526020600020905b81548152906001019060200180831161224157829003601f168201915b50505050509080600401805461227390613517565b80601f016020809104026020016040519081016040528092919081815260200182805461229f90613517565b80156122ec5780601f106122c1576101008083540402835291602001916122ec565b820191906000526020600020905b8154815290600101906020018083116122cf57829003601f168201915b5050505050905085565b6060600680548060200260200160405190810160405280929190818152602001828054801561237a57602002820191906000526020600020905b8160009054906101000a900473ffffffffffffffffffffffffffffffffffffffff1673ffffffffffffffffffffffffffffffffffffffff1681526020019060010190808311612330575b5050505050905090565b6000600a54905090565b6060600060606000606080600060026000898152602001908152602001600020600001600260008a815260200190815260200160002060010154600260008b8152602001908152602001600020600201600260008c815260200190815260200160002060030154600260008d8152602001908152602001600020600401600260008e8152602001908152602001600020600501600260008f81526020019081526020016000206006015486805461244490613517565b80601f016020809104026020016040519081016040528092919081815260200182805461247090613517565b80156124bd5780601f10612492576101008083540402835291602001916124bd565b820191906000526020600020905b8154815290600101906020018083116124a057829003601f168201915b505050505096508480546124d090613517565b80601f01602080910402602001604051908101604052809291908181526020018280546124fc90613517565b80156125495780601f1061251e57610100808354040283529160200191612549565b820191906000526020600020905b81548152906001019060200180831161252c57829003601f168201915b5050505050945082805461255c90613517565b80601f016020809104026020016040519081016040528092919081815260200182805461258890613517565b80156125d55780601f106125aa576101008083540402835291602001916125d5565b820191906000526020600020905b8154815290600101906020018083116125b857829003601f168201915b505050505092508180546125e890613517565b80601f016020809104026020016040519081016040528092919081815260200182805461261490613517565b80156126615780601f1061263657610100808354040283529160200191612661565b820191906000526020600020905b81548152906001019060200180831161264457829003601f168201915b505050505091509650965096509650965096509650919395979092949650565b81600080858152602001908152602001600020600601819055508060008085815260200190815260200160002060070181905550505050565b606060008083815260200190815260200160002060030180546126dc90613517565b80601f016020809104026020016040519081016040528092919081815260200182805461270890613517565b80156127555780601f1061272a57610100808354040283529160200191612755565b820191906000526020600020905b81548152906001019060200180831161273857829003601f168201915b50505050509050919050565b6000600954905090565b6006818154811061277b57600080fd5b906000526020600020016000915054906101000a900473ffffffffffffffffffffffffffffffffffffffff1681565b606060008083815260200190815260200160002060020180546127cc90613517565b80601f01602080910402602001604051908101604052809291908181526020018280546127f890613517565b80156128455780601f1061281a57610100808354040283529160200191612845565b820191906000526020600020905b81548152906001019060200180831161282857829003601f168201915b50505050509050919050565b60008160405160200161286491906135fd565b604051602081830303815290604052805190602001208360405160200161288b91906135fd565b6040516020818303038152906040528051906020012014156128b057600190506128b5565b600090505b92915050565b8280546128c790613517565b90600052602060002090601f0160209004810192826128e95760008555612930565b82601f1061290257805160ff1916838001178555612930565b82800160010185558215612930579182015b8281111561292f578251825591602001919060010190612914565b5b50905061293d9190612941565b5090565b5b8082111561295a576000816000905550600101612942565b5090565b6000604051905090565b600080fd5b600080fd5b6000819050919050565b61298581612972565b811461299057600080fd5b50565b6000813590506129a28161297c565b92915050565b6000602082840312156129be576129bd612968565b5b60006129cc84828501612993565b91505092915050565b600081519050919050565b600082825260208201905092915050565b60005b83811015612a0f5780820151818401526020810190506129f4565b83811115612a1e576000848401525b50505050565b6000601f19601f8301169050919050565b6000612a40826129d5565b612a4a81856129e0565b9350612a5a8185602086016129f1565b612a6381612a24565b840191505092915050565b60006020820190508181036000830152612a888184612a35565b905092915050565b612a9981612972565b82525050565b6000602082019050612ab46000830184612a90565b92915050565b600073ffffffffffffffffffffffffffffffffffffffff82169050919050565b6000612ae582612aba565b9050919050565b612af581612ada565b82525050565b6000602082019050612b106000830184612aec565b92915050565b600061010082019050612b2c600083018b612a90565b8181036020830152612b3e818a612a35565b90508181036040830152612b528189612a35565b90508181036060830152612b668188612a35565b90508181036080830152612b7a8187612a35565b905081810360a0830152612b8e8186612a35565b9050612b9d60c0830185612a90565b612baa60e0830184612a90565b9998505050505050505050565b600060e082019050612bcc600083018a612a90565b8181036020830152612bde8189612a35565b90508181036040830152612bf28188612a35565b9050612c016060830187612a90565b8181036080830152612c138186612a35565b905081810360a0830152612c278185612a35565b9050612c3660c0830184612a90565b98975050505050505050565b600080fd5b600080fd5b7f4e487b7100000000000000000000000000000000000000000000000000000000600052604160045260246000fd5b612c8482612a24565b810181811067ffffffffffffffff82111715612ca357612ca2612c4c565b5b80604052505050565b6000612cb661295e565b9050612cc28282612c7b565b919050565b600067ffffffffffffffff821115612ce257612ce1612c4c565b5b612ceb82612a24565b9050602081019050919050565b82818337600083830152505050565b6000612d1a612d1584612cc7565b612cac565b905082815260208101848484011115612d3657612d35612c47565b5b612d41848285612cf8565b509392505050565b600082601f830112612d5e57612d5d612c42565b5b8135612d6e848260208601612d07565b91505092915050565b600080600080600060a08688031215612d9357612d92612968565b5b6000612da188828901612993565b955050602086013567ffffffffffffffff811115612dc257612dc161296d565b5b612dce88828901612d49565b945050604086013567ffffffffffffffff811115612def57612dee61296d565b5b612dfb88828901612d49565b935050606086013567ffffffffffffffff811115612e1c57612e1b61296d565b5b612e2888828901612d49565b925050608086013567ffffffffffffffff811115612e4957612e4861296d565b5b612e5588828901612d49565b9150509295509295909350565b600080600080600080600060e0888a031215612e8157612e80612968565b5b6000612e8f8a828b01612993565b975050602088013567ffffffffffffffff811115612eb057612eaf61296d565b5b612ebc8a828b01612d49565b965050604088013567ffffffffffffffff811115612edd57612edc61296d565b5b612ee98a828b01612d49565b9550506060612efa8a828b01612993565b945050608088013567ffffffffffffffff811115612f1b57612f1a61296d565b5b612f278a828b01612d49565b93505060a088013567ffffffffffffffff811115612f4857612f4761296d565b5b612f548a828b01612d49565b92505060c0612f658a828b01612993565b91505092959891949750929550565b600060a082019050612f896000830188612a90565b8181036020830152612f9b8187612a35565b90508181036040830152612faf8186612a35565b90508181036060830152612fc38185612a35565b90508181036080830152612fd78184612a35565b90509695505050505050565b600081519050919050565b600082825260208201905092915050565b6000819050602082019050919050565b61301881612ada565b82525050565b600061302a838361300f565b60208301905092915050565b6000602082019050919050565b600061304e82612fe3565b6130588185612fee565b935061306383612fff565b8060005b8381101561309457815161307b888261301e565b975061308683613036565b925050600181019050613067565b5085935050505092915050565b600060208201905081810360008301526130bb8184613043565b905092915050565b600080600080600080600060e0888a0312156130e2576130e1612968565b5b600088013567ffffffffffffffff811115613100576130ff61296d565b5b61310c8a828b01612d49565b975050602088013567ffffffffffffffff81111561312d5761312c61296d565b5b6131398a828b01612d49565b965050604088013567ffffffffffffffff81111561315a5761315961296d565b5b6131668a828b01612d49565b955050606088013567ffffffffffffffff8111156131875761318661296d565b5b6131938a828b01612d49565b945050608088013567ffffffffffffffff8111156131b4576131b361296d565b5b6131c08a828b01612d49565b93505060a06131d18a828b01612993565b92505060c06131e28a828b01612993565b91505092959891949750929550565b600060e082019050818103600083015261320b818a612a35565b905061321a6020830189612a90565b818103604083015261322c8188612a35565b905061323b6060830187612a90565b818103608083015261324d8186612a35565b905081810360a08301526132618185612a35565b905061327060c0830184612a90565b98975050505050505050565b600080600080600060a0868803121561329857613297612968565b5b600086013567ffffffffffffffff8111156132b6576132b561296d565b5b6132c288828901612d49565b955050602086013567ffffffffffffffff8111156132e3576132e261296d565b5b6132ef88828901612d49565b945050604086013567ffffffffffffffff8111156133105761330f61296d565b5b61331c88828901612d49565b935050606086013567ffffffffffffffff81111561333d5761333c61296d565b5b61334988828901612d49565b925050608086013567ffffffffffffffff81111561336a5761336961296d565b5b61337688828901612d49565b9150509295509295909350565b600080600080600080600060e0888a0312156133a2576133a1612968565b5b600088013567ffffffffffffffff8111156133c0576133bf61296d565b5b6133cc8a828b01612d49565b97505060206133dd8a828b01612993565b965050604088013567ffffffffffffffff8111156133fe576133fd61296d565b5b61340a8a828b01612d49565b955050606061341b8a828b01612993565b945050608088013567ffffffffffffffff81111561343c5761343b61296d565b5b6134488a828b01612d49565b93505060a088013567ffffffffffffffff8111156134695761346861296d565b5b6134758a828b01612d49565b92505060c06134868a828b01612993565b91505092959891949750929550565b6000806000606084860312156134ae576134ad612968565b5b60006134bc86828701612993565b93505060206134cd86828701612993565b92505060406134de86828701612993565b9150509250925092565b7f4e487b7100000000000000000000000000000000000000000000000000000000600052602260045260246000fd5b6000600282049050600182168061352f57607f821691505b60208210811415613543576135426134e8565b5b50919050565b7f4e487b7100000000000000000000000000000000000000000000000000000000600052601160045260246000fd5b600061358382612972565b91507fffffffffffffffffffffffffffffffffffffffffffffffffffffffffffffffff8214156135b6576135b5613549565b5b600182019050919050565b600081905092915050565b60006135d7826129d5565b6135e181856135c1565b93506135f18185602086016129f1565b80840191505092915050565b600061360982846135cc565b91508190509291505056fea26469706673582212200573eaa260d1f61702baeffd1b80e295e2c4fa229daf69c47460fb628b4d20fe64736f6c634300080a0033",
  "immutableReferences": {},
  "source": "// SPDX-License-Identifier: MIT\r\npragma solidity >=0.4.22 <0.9.0;\r\n\r\ncontract Land {\r\n    // structs\r\n    struct Deed {\r\n        // deed instance variables\r\n        uint deedId;\r\n        string no;\r\n        string streetName;\r\n        string city;\r\n        string district;\r\n        string province;\r\n        uint assignedLawyerId; // to link the relevant lawyer to the deed\r\n        uint assignedSellerId; // to link the relevant seller to the deed\r\n    }\r\n\r\n    struct Buyer{\r\n        // Buyer instance variables\r\n       uint id;\r\n       string nic;\r\n       string name;\r\n       uint age;\r\n       string city;\r\n       string email; \r\n       uint telephoneNumber;\r\n    }\r\n\r\n    struct Lawyer{\r\n        // Lawyer instance variables\r\n        uint lawyerId;\r\n        string lawyerName;\r\n        string lawyernic;\r\n        string lawyerRegNo;\r\n        string lawyerEmail;\r\n    }\r\n\r\n    struct Seller {\r\n        // Seller instance variables\r\n        string name;\r\n\t\tuint id;\r\n\t\tstring nic;\r\n        uint age;\r\n        string city;\r\n\t\tstring email;\r\n        uint telephoneNumber;\r\n    }\r\n\r\n    struct Admin {\r\n        // Admin instance variables\r\n        uint id;\r\n    }\r\n\r\n    // mappings\r\n    mapping(uint => Deed) public deeds;\r\n    mapping(uint => Buyer) public Buyersmapping;\r\n    mapping(uint => Seller) public sellersMapping;\r\n    mapping(uint => Lawyer) public Lawyersmapping;\r\n    mapping(uint => Admin) public adminMapping;\r\n    \r\n    //arrays\r\n    address[] public Buyerlist;\r\n    address[] public sellerList;\r\n    address[] public lawyerList;\r\n\r\n    // Count tracking variables\r\n    uint private deedCount = 0;\r\n    uint private buyersCount = 0;\r\n    uint private sellersCount = 0;\r\n    uint private lawyerCount=0;\r\n    uint private adminCount = 0;\r\n\r\n    // getter for deed count\r\n    function getDeedCount() public view returns (uint) {\r\n        return deedCount;\r\n    }\r\n\r\n    // getter for buyer count\r\n    function getBuyersCount() public view returns(uint){\r\n        return buyersCount;\r\n    }\r\n\r\n    // getter for lawyer count\r\n    function getLawyerCount() public view returns(uint){\r\n        return lawyerCount;\r\n    }\r\n\r\n    // getter for seller count\r\n    function getSellersCount() public view returns(uint){\r\n        return sellersCount;\r\n    }\r\n\r\n    // getter for admin count\r\n    function getAdminCount() public view returns(uint){\r\n        return adminCount;\r\n    }\r\n\r\n    //getters for Deed struct\r\n    function getDeedId(uint index) public view returns (uint) {\r\n        return deeds[index].deedId;\r\n    }\r\n\r\n    function getDeedNo(uint index) public view returns (string memory) {\r\n        return deeds[index].no;\r\n    }\r\n\r\n    function getDeedStreetName(uint index) public view returns (string memory) {\r\n        return deeds[index].streetName;\r\n    }\r\n\r\n    function getDeedCity(uint index) public view returns (string memory) {\r\n        return deeds[index].city;\r\n    }\r\n\r\n    function getDeedDistrict(uint index) public view returns (string memory) {\r\n        return deeds[index].district;\r\n    }\r\n\r\n    function getDeedProvince(uint index) public view returns (string memory) {\r\n        return deeds[index].province;\r\n    }\r\n\r\n    function getLawyerIdOfDeed(uint index) public view returns (uint) {\r\n        return deeds[index].assignedLawyerId;\r\n    }\r\n\r\n    function getSellerIdOfDeed(uint index) public view returns (uint) {\r\n        return deeds[index].assignedSellerId;\r\n    }\r\n\r\n    // function to compare strings\r\n    function compareStrings(string memory s1, string memory s2) private pure returns (bool) {\r\n        if (keccak256(abi.encodePacked(s1)) == keccak256(abi.encodePacked(s2)))\r\n        {\r\n            return true;\r\n        }\r\n        else \r\n        {\r\n            return false;\r\n        }\r\n    }\r\n\r\n    // function to get the deed by the land address for searching purposes\r\n    function findDeedByAddress(string memory _no, string memory _streetName, string memory _city, string memory _district, string memory _province) public view returns (uint) {\r\n        uint i = 0;\r\n        uint returningDeedId;\r\n        while (i < deedCount)\r\n        {\r\n            if (compareStrings(_no, deeds[i].no) && compareStrings(_streetName, deeds[i].streetName) && compareStrings(_city, deeds[i].city) && compareStrings(_district, deeds[i].district) && compareStrings(_province, deeds[i].province))\r\n            {\r\n                returningDeedId = deeds[i].deedId;\r\n                break;\r\n            }\r\n            i++;\r\n        }\r\n        return returningDeedId;\r\n    }\r\n\r\n    // function to change land deed buyer and seller\r\n    function changeDeedBuyerAndSeller(uint _deedId, uint _assignedLawyerId, uint _assignedSellerId) public {\r\n        \r\n        deeds[_deedId].assignedLawyerId = _assignedLawyerId;\r\n        deeds[_deedId].assignedSellerId = _assignedSellerId;\r\n    }\r\n\r\n    //getter for the Buyerlist array\r\n    function getBuyer() public view returns( address [] memory){\r\n        return(Buyerlist);\r\n    }\r\n\r\n    //getter for the seller list array\r\n    function getSeller() public view returns( address [] memory){\r\n        return(sellerList);\r\n    }\r\n\r\n    //getter for the lawyerList array\r\n    function getLawyer() public view returns( address [] memory){\r\n        return(lawyerList);\r\n    }\r\n\r\n    // function to add a new deed to the deeds mapping\r\n    function addNewDeed(string memory _no, string memory _streetName, string memory _city, string memory _district, string memory _province, uint _assignedLawyerId, uint _assignedSellerId) public {\r\n        deeds[deedCount] = Deed(deedCount, _no, _streetName, _city, _district, _province, _assignedLawyerId, _assignedSellerId);\r\n        deedCount++;\r\n    }\r\n\r\n    //function to register new Buyer\r\n    function registerBuyer(uint _id, string memory _nic, string memory _name, uint _age, string memory _city, string memory _email, uint _telephoneNumber) public {\r\n        Buyersmapping[buyersCount] = Buyer(_id, _nic,  _name, _age, _city, _email, _telephoneNumber);\r\n        buyersCount++;\r\n\r\n    }\r\n\r\n    //function to register a seller\r\n    function registerSeller(string memory _name, uint _id, string memory _nic, uint _age, string memory _city, string memory _email, uint _telephoneNumber) public {\r\n        sellersMapping[sellersCount] = Seller(_name, _id, _nic, _age, _city, _email, _telephoneNumber);\r\n        sellersCount++;\r\n\r\n    }\r\n\r\n    //function to register a new Lawyer\r\n    function registerLawyer(uint _lawyerId, string memory _lawyerName, string memory _lawyernic, string memory _lawyerRegNo, string memory _lawyerEmail) public {\r\n        Lawyersmapping[lawyerCount] = Lawyer(_lawyerId, _lawyerName, _lawyernic, _lawyerRegNo, _lawyerEmail);\r\n        lawyerCount++;\r\n    }\r\n\r\n    //function to display buyer details\r\n    function displayBuyer(uint index) public view returns (uint _id, string memory _nic, string memory _name, uint _age, string memory _city, string memory _email, uint _telephoneNumber){\r\n        return(Buyersmapping[index].id, Buyersmapping[index].nic,Buyersmapping[index].name,Buyersmapping[index].age,Buyersmapping[index].city,Buyersmapping[index].email,Buyersmapping[index].telephoneNumber);\r\n\r\n    } \r\n\r\n    //function to display seller details\r\n    function displaySeller(uint index) public view returns (string memory _name, uint _id, string memory _nic, uint _age, string memory _city, string memory _email, uint _telephoneNumber){\r\n        return(sellersMapping[index].name, sellersMapping[index].id, sellersMapping[index].nic, sellersMapping[index].age, sellersMapping[index].city, sellersMapping[index].email, sellersMapping[index].telephoneNumber);\r\n    }\r\n\r\n    //function to add admin\r\n    function addAdmin() private {\r\n        adminCount++;\r\n        adminMapping[adminCount] = Admin(adminCount);\r\n    }\r\n    \r\n    //function to display lawyer details\r\n    function displayLawyer(uint index) public view returns (uint _lawyerId, string memory _lawyerName, string memory _lawyernic, string memory _lawyerRegNo, string memory _lawyerEmail){\r\n        return(Lawyersmapping[index].lawyerId, Lawyersmapping[index].lawyerName, Lawyersmapping[index].lawyernic, Lawyersmapping[index].lawyerRegNo, Lawyersmapping[index].lawyerEmail);\r\n    }\r\n}",
  "sourcePath": "C:\\GitHubRepos\\GitHub\\DBLOCK\\backEnd\\contracts\\Land.sol",
  "compiler": {
    "name": "solc",
    "version": "0.8.10+commit.fc410830.Emscripten.clang"
  },
  "schemaVersion": "3.4.3",
  "updatedAt": "2022-03-01T10:13:10.120Z",
  "networkType": "ethereum",
  "devdoc": {
    "kind": "dev",
    "methods": {},
    "version": 1
  },
  "userdoc": {
    "kind": "user",
    "methods": {},
    "version": 1
  }
}