{
  "contractName": "Land",
  "abi": [
    {
      "inputs": [
        {
          "internalType": "uint256",
          "name": "",
          "type": "uint256"
        }
      ],
      "name": "Buyerlist",
      "outputs": [
        {
          "internalType": "address",
          "name": "",
          "type": "address"
        }
      ],
      "stateMutability": "view",
      "type": "function"
    },
    {
      "inputs": [
        {
          "internalType": "uint256",
          "name": "",
          "type": "uint256"
        }
      ],
      "name": "Buyersmapping",
      "outputs": [
        {
          "internalType": "uint256",
          "name": "id",
          "type": "uint256"
        },
        {
          "internalType": "string",
          "name": "nic",
          "type": "string"
        },
        {
          "internalType": "string",
          "name": "name",
          "type": "string"
        },
        {
          "internalType": "uint256",
          "name": "age",
          "type": "uint256"
        },
        {
          "internalType": "string",
          "name": "city",
          "type": "string"
        },
        {
          "internalType": "string",
          "name": "email",
          "type": "string"
        },
        {
          "internalType": "uint256",
          "name": "telephoneNumber",
          "type": "uint256"
        }
      ],
      "stateMutability": "view",
      "type": "function"
    },
    {
      "inputs": [
        {
          "internalType": "uint256",
          "name": "",
          "type": "uint256"
        }
      ],
      "name": "Lawyersmapping",
      "outputs": [
        {
          "internalType": "uint256",
          "name": "lawyerId",
          "type": "uint256"
        },
        {
          "internalType": "string",
          "name": "lawyerName",
          "type": "string"
        },
        {
          "internalType": "string",
          "name": "lawyernic",
          "type": "string"
        },
        {
          "internalType": "string",
          "name": "lawyerRegNo",
          "type": "string"
        },
        {
          "internalType": "string",
          "name": "lawyerEmail",
          "type": "string"
        }
      ],
      "stateMutability": "view",
      "type": "function"
    },
    {
      "inputs": [
        {
          "internalType": "uint256",
          "name": "",
          "type": "uint256"
        }
      ],
      "name": "adminMapping",
      "outputs": [
        {
          "internalType": "uint256",
          "name": "id",
          "type": "uint256"
        }
      ],
      "stateMutability": "view",
      "type": "function"
    },
    {
      "inputs": [
        {
          "internalType": "uint256",
          "name": "",
          "type": "uint256"
        }
      ],
      "name": "deeds",
      "outputs": [
        {
          "internalType": "uint256",
          "name": "deedId",
          "type": "uint256"
        },
        {
          "internalType": "string",
          "name": "no",
          "type": "string"
        },
        {
          "internalType": "string",
          "name": "streetName",
          "type": "string"
        },
        {
          "internalType": "string",
          "name": "city",
          "type": "string"
        },
        {
          "internalType": "string",
          "name": "district",
          "type": "string"
        },
        {
          "internalType": "string",
          "name": "province",
          "type": "string"
        },
        {
          "internalType": "uint256",
          "name": "assignedLawyerId",
          "type": "uint256"
        },
        {
          "internalType": "uint256",
          "name": "assignedSellerId",
          "type": "uint256"
        }
      ],
      "stateMutability": "view",
      "type": "function"
    },
    {
      "inputs": [
        {
          "internalType": "uint256",
          "name": "",
          "type": "uint256"
        }
      ],
      "name": "lawyerList",
      "outputs": [
        {
          "internalType": "address",
          "name": "",
          "type": "address"
        }
      ],
      "stateMutability": "view",
      "type": "function"
    },
    {
      "inputs": [
        {
          "internalType": "uint256",
          "name": "",
          "type": "uint256"
        }
      ],
      "name": "sellerList",
      "outputs": [
        {
          "internalType": "address",
          "name": "",
          "type": "address"
        }
      ],
      "stateMutability": "view",
      "type": "function"
    },
    {
      "inputs": [
        {
          "internalType": "uint256",
          "name": "",
          "type": "uint256"
        }
      ],
      "name": "sellersMapping",
      "outputs": [
        {
          "internalType": "string",
          "name": "name",
          "type": "string"
        },
        {
          "internalType": "uint256",
          "name": "id",
          "type": "uint256"
        },
        {
          "internalType": "string",
          "name": "nic",
          "type": "string"
        },
        {
          "internalType": "uint256",
          "name": "age",
          "type": "uint256"
        },
        {
          "internalType": "string",
          "name": "city",
          "type": "string"
        },
        {
          "internalType": "string",
          "name": "email",
          "type": "string"
        },
        {
          "internalType": "uint256",
          "name": "telephoneNumber",
          "type": "uint256"
        }
      ],
      "stateMutability": "view",
      "type": "function"
    },
    {
      "inputs": [],
      "name": "getDeedCount",
      "outputs": [
        {
          "internalType": "uint256",
          "name": "",
          "type": "uint256"
        }
      ],
      "stateMutability": "view",
      "type": "function"
    },
    {
      "inputs": [],
      "name": "getBuyersCount",
      "outputs": [
        {
          "internalType": "uint256",
          "name": "",
          "type": "uint256"
        }
      ],
      "stateMutability": "view",
      "type": "function"
    },
    {
      "inputs": [],
      "name": "getLawyerCount",
      "outputs": [
        {
          "internalType": "uint256",
          "name": "",
          "type": "uint256"
        }
      ],
      "stateMutability": "view",
      "type": "function"
    },
    {
      "inputs": [],
      "name": "getSellersCount",
      "outputs": [
        {
          "internalType": "uint256",
          "name": "",
          "type": "uint256"
        }
      ],
      "stateMutability": "view",
      "type": "function"
    },
    {
      "inputs": [],
      "name": "getAdminCount",
      "outputs": [
        {
          "internalType": "uint256",
          "name": "",
          "type": "uint256"
        }
      ],
      "stateMutability": "view",
      "type": "function"
    },
    {
      "inputs": [
        {
          "internalType": "uint256",
          "name": "index",
          "type": "uint256"
        }
      ],
      "name": "getDeedId",
      "outputs": [
        {
          "internalType": "uint256",
          "name": "",
          "type": "uint256"
        }
      ],
      "stateMutability": "view",
      "type": "function"
    },
    {
      "inputs": [
        {
          "internalType": "uint256",
          "name": "index",
          "type": "uint256"
        }
      ],
      "name": "getDeedNo",
      "outputs": [
        {
          "internalType": "string",
          "name": "",
          "type": "string"
        }
      ],
      "stateMutability": "view",
      "type": "function"
    },
    {
      "inputs": [
        {
          "internalType": "uint256",
          "name": "index",
          "type": "uint256"
        }
      ],
      "name": "getDeedStreetName",
      "outputs": [
        {
          "internalType": "string",
          "name": "",
          "type": "string"
        }
      ],
      "stateMutability": "view",
      "type": "function"
    },
    {
      "inputs": [
        {
          "internalType": "uint256",
          "name": "index",
          "type": "uint256"
        }
      ],
      "name": "getDeedCity",
      "outputs": [
        {
          "internalType": "string",
          "name": "",
          "type": "string"
        }
      ],
      "stateMutability": "view",
      "type": "function"
    },
    {
      "inputs": [
        {
          "internalType": "uint256",
          "name": "index",
          "type": "uint256"
        }
      ],
      "name": "getDeedDistrict",
      "outputs": [
        {
          "internalType": "string",
          "name": "",
          "type": "string"
        }
      ],
      "stateMutability": "view",
      "type": "function"
    },
    {
      "inputs": [
        {
          "internalType": "uint256",
          "name": "index",
          "type": "uint256"
        }
      ],
      "name": "getDeedProvince",
      "outputs": [
        {
          "internalType": "string",
          "name": "",
          "type": "string"
        }
      ],
      "stateMutability": "view",
      "type": "function"
    },
    {
      "inputs": [
        {
          "internalType": "uint256",
          "name": "index",
          "type": "uint256"
        }
      ],
      "name": "getLawyerIdOfDeed",
      "outputs": [
        {
          "internalType": "uint256",
          "name": "",
          "type": "uint256"
        }
      ],
      "stateMutability": "view",
      "type": "function"
    },
    {
      "inputs": [
        {
          "internalType": "uint256",
          "name": "index",
          "type": "uint256"
        }
      ],
      "name": "getSellerIdOfDeed",
      "outputs": [
        {
          "internalType": "uint256",
          "name": "",
          "type": "uint256"
        }
      ],
      "stateMutability": "view",
      "type": "function"
    },
    {
      "inputs": [
        {
          "internalType": "string",
          "name": "_no",
          "type": "string"
        },
        {
          "internalType": "string",
          "name": "_streetName",
          "type": "string"
        },
        {
          "internalType": "string",
          "name": "_city",
          "type": "string"
        },
        {
          "internalType": "string",
          "name": "_district",
          "type": "string"
        },
        {
          "internalType": "string",
          "name": "_province",
          "type": "string"
        }
      ],
      "name": "findDeedByAddress",
      "outputs": [
        {
          "internalType": "uint256",
          "name": "",
          "type": "uint256"
        }
      ],
      "stateMutability": "view",
      "type": "function"
    },
    {
      "inputs": [
        {
          "internalType": "uint256",
          "name": "_deedId",
          "type": "uint256"
        },
        {
          "internalType": "uint256",
          "name": "_assignedLawyerId",
          "type": "uint256"
        },
        {
          "internalType": "uint256",
          "name": "_assignedSellerId",
          "type": "uint256"
        }
      ],
      "name": "changeDeedBuyerAndSeller",
      "outputs": [],
      "stateMutability": "nonpayable",
      "type": "function"
    },
    {
      "inputs": [],
      "name": "getBuyer",
      "outputs": [
        {
          "internalType": "address[]",
          "name": "",
          "type": "address[]"
        }
      ],
      "stateMutability": "view",
      "type": "function"
    },
    {
      "inputs": [],
      "name": "getSeller",
      "outputs": [
        {
          "internalType": "address[]",
          "name": "",
          "type": "address[]"
        }
      ],
      "stateMutability": "view",
      "type": "function"
    },
    {
      "inputs": [],
      "name": "getLawyer",
      "outputs": [
        {
          "internalType": "address[]",
          "name": "",
          "type": "address[]"
        }
      ],
      "stateMutability": "view",
      "type": "function"
    },
    {
      "inputs": [
        {
          "internalType": "string",
          "name": "_no",
          "type": "string"
        },
        {
          "internalType": "string",
          "name": "_streetName",
          "type": "string"
        },
        {
          "internalType": "string",
          "name": "_city",
          "type": "string"
        },
        {
          "internalType": "string",
          "name": "_district",
          "type": "string"
        },
        {
          "internalType": "string",
          "name": "_province",
          "type": "string"
        },
        {
          "internalType": "uint256",
          "name": "_assignedLawyerId",
          "type": "uint256"
        },
        {
          "internalType": "uint256",
          "name": "_assignedSellerId",
          "type": "uint256"
        }
      ],
      "name": "addNewDeed",
      "outputs": [],
      "stateMutability": "nonpayable",
      "type": "function"
    },
    {
      "inputs": [
        {
          "internalType": "string",
          "name": "_nic",
          "type": "string"
        },
        {
          "internalType": "string",
          "name": "_name",
          "type": "string"
        },
        {
          "internalType": "uint256",
          "name": "_age",
          "type": "uint256"
        },
        {
          "internalType": "string",
          "name": "_city",
          "type": "string"
        },
        {
          "internalType": "string",
          "name": "_email",
          "type": "string"
        },
        {
          "internalType": "uint256",
          "name": "_telephoneNumber",
          "type": "uint256"
        }
      ],
      "name": "registerBuyer",
      "outputs": [],
      "stateMutability": "nonpayable",
      "type": "function"
    },
    {
      "inputs": [
        {
          "internalType": "string",
          "name": "_name",
          "type": "string"
        },
        {
          "internalType": "string",
          "name": "_nic",
          "type": "string"
        },
        {
          "internalType": "uint256",
          "name": "_age",
          "type": "uint256"
        },
        {
          "internalType": "string",
          "name": "_city",
          "type": "string"
        },
        {
          "internalType": "string",
          "name": "_email",
          "type": "string"
        },
        {
          "internalType": "uint256",
          "name": "_telephoneNumber",
          "type": "uint256"
        }
      ],
      "name": "registerSeller",
      "outputs": [],
      "stateMutability": "nonpayable",
      "type": "function"
    },
    {
      "inputs": [
        {
          "internalType": "string",
          "name": "_lawyerName",
          "type": "string"
        },
        {
          "internalType": "string",
          "name": "_lawyernic",
          "type": "string"
        },
        {
          "internalType": "string",
          "name": "_lawyerRegNo",
          "type": "string"
        },
        {
          "internalType": "string",
          "name": "_lawyerEmail",
          "type": "string"
        }
      ],
      "name": "registerLawyer",
      "outputs": [],
      "stateMutability": "nonpayable",
      "type": "function"
    },
    {
      "inputs": [
        {
          "internalType": "uint256",
          "name": "index",
          "type": "uint256"
        }
      ],
      "name": "displayBuyer",
      "outputs": [
        {
          "internalType": "uint256",
          "name": "_id",
          "type": "uint256"
        },
        {
          "internalType": "string",
          "name": "_nic",
          "type": "string"
        },
        {
          "internalType": "string",
          "name": "_name",
          "type": "string"
        },
        {
          "internalType": "uint256",
          "name": "_age",
          "type": "uint256"
        },
        {
          "internalType": "string",
          "name": "_city",
          "type": "string"
        },
        {
          "internalType": "string",
          "name": "_email",
          "type": "string"
        },
        {
          "internalType": "uint256",
          "name": "_telephoneNumber",
          "type": "uint256"
        }
      ],
      "stateMutability": "view",
      "type": "function"
    },
    {
      "inputs": [
        {
          "internalType": "uint256",
          "name": "index",
          "type": "uint256"
        }
      ],
      "name": "displaySeller",
      "outputs": [
        {
          "internalType": "string",
          "name": "_name",
          "type": "string"
        },
        {
          "internalType": "uint256",
          "name": "_id",
          "type": "uint256"
        },
        {
          "internalType": "string",
          "name": "_nic",
          "type": "string"
        },
        {
          "internalType": "uint256",
          "name": "_age",
          "type": "uint256"
        },
        {
          "internalType": "string",
          "name": "_city",
          "type": "string"
        },
        {
          "internalType": "string",
          "name": "_email",
          "type": "string"
        },
        {
          "internalType": "uint256",
          "name": "_telephoneNumber",
          "type": "uint256"
        }
      ],
      "stateMutability": "view",
      "type": "function"
    },
    {
      "inputs": [
        {
          "internalType": "uint256",
          "name": "index",
          "type": "uint256"
        }
      ],
      "name": "displayLawyer",
      "outputs": [
        {
          "internalType": "uint256",
          "name": "_lawyerId",
          "type": "uint256"
        },
        {
          "internalType": "string",
          "name": "_lawyerName",
          "type": "string"
        },
        {
          "internalType": "string",
          "name": "_lawyernic",
          "type": "string"
        },
        {
          "internalType": "string",
          "name": "_lawyerRegNo",
          "type": "string"
        },
        {
          "internalType": "string",
          "name": "_lawyerEmail",
          "type": "string"
        }
      ],
      "stateMutability": "view",
      "type": "function"
    },
    {
      "inputs": [
        {
          "internalType": "uint256",
          "name": "index",
          "type": "uint256"
        }
      ],
      "name": "getLawyerId",
      "outputs": [
        {
          "internalType": "uint256",
          "name": "",
          "type": "uint256"
        }
      ],
      "stateMutability": "view",
      "type": "function"
    },
    {
      "inputs": [
        {
          "internalType": "uint256",
          "name": "index",
          "type": "uint256"
        }
      ],
      "name": "getLawyerName",
      "outputs": [
        {
          "internalType": "string",
          "name": "",
          "type": "string"
        }
      ],
      "stateMutability": "view",
      "type": "function"
    },
    {
      "inputs": [
        {
          "internalType": "uint256",
          "name": "index",
          "type": "uint256"
        }
      ],
      "name": "getLawyerNic",
      "outputs": [
        {
          "internalType": "string",
          "name": "",
          "type": "string"
        }
      ],
      "stateMutability": "view",
      "type": "function"
    },
    {
      "inputs": [
        {
          "internalType": "uint256",
          "name": "index",
          "type": "uint256"
        }
      ],
      "name": "getLawyerRegNo",
      "outputs": [
        {
          "internalType": "string",
          "name": "",
          "type": "string"
        }
      ],
      "stateMutability": "view",
      "type": "function"
    },
    {
      "inputs": [
        {
          "internalType": "uint256",
          "name": "index",
          "type": "uint256"
        }
      ],
      "name": "getLawyerEmail",
      "outputs": [
        {
          "internalType": "string",
          "name": "",
          "type": "string"
        }
      ],
      "stateMutability": "view",
      "type": "function"
    },
    {
      "inputs": [
        {
          "internalType": "uint256",
          "name": "index",
          "type": "uint256"
        }
      ],
      "name": "getSellerId",
      "outputs": [
        {
          "internalType": "uint256",
          "name": "",
          "type": "uint256"
        }
      ],
      "stateMutability": "view",
      "type": "function"
    },
    {
      "inputs": [
        {
          "internalType": "uint256",
          "name": "index",
          "type": "uint256"
        }
      ],
      "name": "getSellerName",
      "outputs": [
        {
          "internalType": "string",
          "name": "",
          "type": "string"
        }
      ],
      "stateMutability": "view",
      "type": "function"
    },
    {
      "inputs": [
        {
          "internalType": "uint256",
          "name": "index",
          "type": "uint256"
        }
      ],
      "name": "getSellerNic",
      "outputs": [
        {
          "internalType": "string",
          "name": "",
          "type": "string"
        }
      ],
      "stateMutability": "view",
      "type": "function"
    },
    {
      "inputs": [
        {
          "internalType": "uint256",
          "name": "index",
          "type": "uint256"
        }
      ],
      "name": "getSellerAge",
      "outputs": [
        {
          "internalType": "uint256",
          "name": "",
          "type": "uint256"
        }
      ],
      "stateMutability": "view",
      "type": "function"
    },
    {
      "inputs": [
        {
          "internalType": "uint256",
          "name": "index",
          "type": "uint256"
        }
      ],
      "name": "getSellerCity",
      "outputs": [
        {
          "internalType": "string",
          "name": "",
          "type": "string"
        }
      ],
      "stateMutability": "view",
      "type": "function"
    },
    {
      "inputs": [
        {
          "internalType": "uint256",
          "name": "index",
          "type": "uint256"
        }
      ],
      "name": "getSellerEmail",
      "outputs": [
        {
          "internalType": "string",
          "name": "",
          "type": "string"
        }
      ],
      "stateMutability": "view",
      "type": "function"
    },
    {
      "inputs": [
        {
          "internalType": "uint256",
          "name": "index",
          "type": "uint256"
        }
      ],
      "name": "getSellerTelephoneNo",
      "outputs": [
        {
          "internalType": "uint256",
          "name": "",
          "type": "uint256"
        }
      ],
      "stateMutability": "view",
      "type": "function"
    }
  ],
  "bytecode": "0x6080604052600060085560006009556000600a556000600b556000600c5534801561002957600080fd5b50613d96806100396000396000f3fe608060405234801561001057600080fd5b506004361061027f5760003560e01c80637e45aa251161015c578063dbd0e1b6116100ce578063f0b93af911610087578063f0b93af91461092d578063f0d3a9df1461095d578063f42a1b311461097b578063f8a38605146109ab578063fa1d7e00146109db578063ffb434fb146109f75761027f565b8063dbd0e1b61461083f578063dd9d122d1461085d578063df0a1c2a1461087b578063e084ada1146108ab578063e5137459146108db578063ef380235146109115761027f565b80639614681b116101205780639614681b1461071b5780639cd681f51461074b578063aca557731461077b578063b4321832146107ab578063cff0c7c0146107db578063d96b0a551461080f5761027f565b80637e45aa251461064957806380014029146106795780638b7bf3eb14610697578063916a1c70146106b557806393addc08146106e55761027f565b806335a82e72116101f5578063655dc4c2116101b9578063655dc4c2146105495780636c218b171461056757806370ffbdd214610597578063721fa418146105c757806374cfe475146105e35780637c6eb103146106135761027f565b806335a82e721461047b57806355bb2bcc146104ab5780635a18e2b2146104df5780635dd56798146104fb578063603daf9a1461052b5761027f565b806318edf5641161024757806318edf5641461036057806321eb5a7c14610397578063275ea7cf146103c757806330c9fb48146103fd57806332a678531461042d578063334bb7451461045d5761027f565b806305624d35146102845780630cc543b6146102b45780630df74d36146102e45780630df7ec2414610300578063119d41f414610330575b600080fd5b61029e6004803603810190610299919061322f565b610a27565b6040516102ab91906132f5565b60405180910390f35b6102ce60048036038101906102c9919061322f565b610ace565b6040516102db9190613326565b60405180910390f35b6102fe60048036038101906102f99190613476565b610aee565b005b61031a6004803603810190610315919061322f565b610bed565b6040516103279190613326565b60405180910390f35b61034a6004803603810190610345919061322f565b610c0c565b60405161035791906135b4565b60405180910390f35b61037a6004803603810190610375919061322f565b610c4b565b60405161038e9897969594939291906135cf565b60405180910390f35b6103b160048036038101906103ac919061322f565b610f3b565b6040516103be9190613326565b60405180910390f35b6103e160048036038101906103dc919061322f565b610f59565b6040516103f49796959493929190613670565b60405180910390f35b6104176004803603810190610412919061322f565b61124b565b60405161042491906132f5565b60405180910390f35b6104476004803603810190610442919061322f565b6112f3565b60405161045491906132f5565b60405180910390f35b61046561139a565b6040516104729190613326565b60405180910390f35b6104956004803603810190610490919061322f565b6113a4565b6040516104a29190613326565b60405180910390f35b6104c560048036038101906104c0919061322f565b6113c3565b6040516104d69594939291906136fb565b60405180910390f35b6104f960048036038101906104f4919061376a565b61167d565b005b6105156004803603810190610510919061322f565b61175a565b6040516105229190613326565b60405180910390f35b610533611779565b60405161054091906138ff565b60405180910390f35b610551611807565b60405161055e9190613326565b60405180910390f35b610581600480360381019061057c919061322f565b611811565b60405161058e9190613326565b60405180910390f35b6105b160048036038101906105ac919061322f565b611831565b6040516105be91906132f5565b60405180910390f35b6105e160048036038101906105dc9190613921565b6118d9565b005b6105fd60048036038101906105f8919061322f565b6119fc565b60405161060a9190613326565b60405180910390f35b61062d6004803603810190610628919061322f565b611a1c565b6040516106409796959493929190613a4f565b60405180910390f35b610663600480360381019061065e919061322f565b611c7e565b60405161067091906132f5565b60405180910390f35b610681611d26565b60405161068e91906138ff565b60405180910390f35b61069f611db4565b6040516106ac9190613326565b60405180910390f35b6106cf60048036038101906106ca919061322f565b611dbe565b6040516106dc91906135b4565b60405180910390f35b6106ff60048036038101906106fa919061322f565b611dfd565b6040516107129796959493929190613670565b60405180910390f35b61073560048036038101906107309190613ada565b61205f565b6040516107429190613326565b60405180910390f35b6107656004803603810190610760919061322f565b612419565b60405161077291906132f5565b60405180910390f35b6107956004803603810190610790919061322f565b6124c0565b6040516107a291906132f5565b60405180910390f35b6107c560048036038101906107c0919061322f565b612568565b6040516107d291906132f5565b60405180910390f35b6107f560048036038101906107f0919061322f565b612610565b6040516108069594939291906136fb565b60405180910390f35b6108296004803603810190610824919061322f565b612866565b60405161083691906132f5565b60405180910390f35b61084761290e565b60405161085491906138ff565b60405180910390f35b61086561299c565b6040516108729190613326565b60405180910390f35b6108956004803603810190610890919061322f565b6129a6565b6040516108a291906132f5565b60405180910390f35b6108c560048036038101906108c0919061322f565b612a4e565b6040516108d291906132f5565b60405180910390f35b6108f560048036038101906108f0919061322f565b612af6565b6040516109089796959493929190613a4f565b60405180910390f35b61092b60048036038101906109269190613be1565b612de9565b005b6109476004803603810190610942919061322f565b612e22565b60405161095491906132f5565b60405180910390f35b610965612ec9565b6040516109729190613326565b60405180910390f35b6109956004803603810190610990919061322f565b612ed3565b6040516109a291906135b4565b60405180910390f35b6109c560048036038101906109c0919061322f565b612f12565b6040516109d29190613326565b60405180910390f35b6109f560048036038101906109f09190613476565b612f32565b005b610a116004803603810190610a0c919061322f565b613031565b604051610a1e91906132f5565b60405180910390f35b60606000808381526020019081526020016000206004018054610a4990613c63565b80601f0160208091040260200160405190810160405280929190818152602001828054610a7590613c63565b8015610ac25780601f10610a9757610100808354040283529160200191610ac2565b820191906000526020600020905b815481529060010190602001808311610aa557829003601f168201915b50505050509050919050565b600060026000838152602001908152602001600020600601549050919050565b6040518060e00160405280878152602001600a5481526020018681526020018581526020018481526020018381526020018281525060026000600a5481526020019081526020016000206000820151816000019080519060200190610b54929190613142565b50602082015181600101556040820151816002019080519060200190610b7b929190613142565b50606082015181600301556080820151816004019080519060200190610ba2929190613142565b5060a0820151816005019080519060200190610bbf929190613142565b5060c08201518160060155905050600a6000815480929190610be090613cc4565b9190505550505050505050565b6000806000838152602001908152602001600020600001549050919050565b60058181548110610c1c57600080fd5b906000526020600020016000915054906101000a900473ffffffffffffffffffffffffffffffffffffffff1681565b6000602052806000526040600020600091509050806000015490806001018054610c7490613c63565b80601f0160208091040260200160405190810160405280929190818152602001828054610ca090613c63565b8015610ced5780601f10610cc257610100808354040283529160200191610ced565b820191906000526020600020905b815481529060010190602001808311610cd057829003601f168201915b505050505090806002018054610d0290613c63565b80601f0160208091040260200160405190810160405280929190818152602001828054610d2e90613c63565b8015610d7b5780601f10610d5057610100808354040283529160200191610d7b565b820191906000526020600020905b815481529060010190602001808311610d5e57829003601f168201915b505050505090806003018054610d9090613c63565b80601f0160208091040260200160405190810160405280929190818152602001828054610dbc90613c63565b8015610e095780601f10610dde57610100808354040283529160200191610e09565b820191906000526020600020905b815481529060010190602001808311610dec57829003601f168201915b505050505090806004018054610e1e90613c63565b80601f0160208091040260200160405190810160405280929190818152602001828054610e4a90613c63565b8015610e975780601f10610e6c57610100808354040283529160200191610e97565b820191906000526020600020905b815481529060010190602001808311610e7a57829003601f168201915b505050505090806005018054610eac90613c63565b80601f0160208091040260200160405190810160405280929190818152602001828054610ed890613c63565b8015610f255780601f10610efa57610100808354040283529160200191610f25565b820191906000526020600020905b815481529060010190602001808311610f0857829003601f168201915b5050505050908060060154908060070154905088565b60046020528060005260406000206000915090508060000154905081565b6000606080600060608060006001600089815260200190815260200160002060000154600160008a8152602001908152602001600020600101600160008b8152602001908152602001600020600201600160008c815260200190815260200160002060030154600160008d8152602001908152602001600020600401600160008e8152602001908152602001600020600501600160008f81526020019081526020016000206006015485805461100e90613c63565b80601f016020809104026020016040519081016040528092919081815260200182805461103a90613c63565b80156110875780601f1061105c57610100808354040283529160200191611087565b820191906000526020600020905b81548152906001019060200180831161106a57829003601f168201915b5050505050955084805461109a90613c63565b80601f01602080910402602001604051908101604052809291908181526020018280546110c690613c63565b80156111135780601f106110e857610100808354040283529160200191611113565b820191906000526020600020905b8154815290600101906020018083116110f657829003601f168201915b5050505050945082805461112690613c63565b80601f016020809104026020016040519081016040528092919081815260200182805461115290613c63565b801561119f5780601f106111745761010080835404028352916020019161119f565b820191906000526020600020905b81548152906001019060200180831161118257829003601f168201915b505050505092508180546111b290613c63565b80601f01602080910402602001604051908101604052809291908181526020018280546111de90613c63565b801561122b5780601f106112005761010080835404028352916020019161122b565b820191906000526020600020905b81548152906001019060200180831161120e57829003601f168201915b505050505091509650965096509650965096509650919395979092949650565b606060036000838152602001908152602001600020600401805461126e90613c63565b80601f016020809104026020016040519081016040528092919081815260200182805461129a90613c63565b80156112e75780601f106112bc576101008083540402835291602001916112e7565b820191906000526020600020905b8154815290600101906020018083116112ca57829003601f168201915b50505050509050919050565b6060600080838152602001908152602001600020600101805461131590613c63565b80601f016020809104026020016040519081016040528092919081815260200182805461134190613c63565b801561138e5780601f106113635761010080835404028352916020019161138e565b820191906000526020600020905b81548152906001019060200180831161137157829003601f168201915b50505050509050919050565b6000600854905090565b6000806000838152602001908152602001600020600601549050919050565b600060608060608060036000878152602001908152602001600020600001546003600088815260200190815260200160002060010160036000898152602001908152602001600020600201600360008a8152602001908152602001600020600301600360008b815260200190815260200160002060040183805461144690613c63565b80601f016020809104026020016040519081016040528092919081815260200182805461147290613c63565b80156114bf5780601f10611494576101008083540402835291602001916114bf565b820191906000526020600020905b8154815290600101906020018083116114a257829003601f168201915b505050505093508280546114d290613c63565b80601f01602080910402602001604051908101604052809291908181526020018280546114fe90613c63565b801561154b5780601f106115205761010080835404028352916020019161154b565b820191906000526020600020905b81548152906001019060200180831161152e57829003601f168201915b5050505050925081805461155e90613c63565b80601f016020809104026020016040519081016040528092919081815260200182805461158a90613c63565b80156115d75780601f106115ac576101008083540402835291602001916115d7565b820191906000526020600020905b8154815290600101906020018083116115ba57829003601f168201915b505050505091508080546115ea90613c63565b80601f016020809104026020016040519081016040528092919081815260200182805461161690613c63565b80156116635780601f1061163857610100808354040283529160200191611663565b820191906000526020600020905b81548152906001019060200180831161164657829003601f168201915b505050505090509450945094509450945091939590929450565b6040518060a00160405280600b5481526020018581526020018481526020018381526020018281525060036000600b5481526020019081526020016000206000820151816000015560208201518160010190805190602001906116e1929190613142565b5060408201518160020190805190602001906116fe929190613142565b50606082015181600301908051906020019061171b929190613142565b506080820151816004019080519060200190611738929190613142565b50905050600b600081548092919061174f90613cc4565b919050555050505050565b6000806000838152602001908152602001600020600701549050919050565b606060058054806020026020016040519081016040528092919081815260200182805480156117fd57602002820191906000526020600020905b8160009054906101000a900473ffffffffffffffffffffffffffffffffffffffff1673ffffffffffffffffffffffffffffffffffffffff16815260200190600101908083116117b3575b5050505050905090565b6000600b54905090565b600060036000838152602001908152602001600020600001549050919050565b606060026000838152602001908152602001600020600201805461185490613c63565b80601f016020809104026020016040519081016040528092919081815260200182805461188090613c63565b80156118cd5780601f106118a2576101008083540402835291602001916118cd565b820191906000526020600020905b8154815290600101906020018083116118b057829003601f168201915b50505050509050919050565b604051806101000160405280600854815260200188815260200187815260200186815260200185815260200184815260200183815260200182815250600080600854815260200190815260200160002060008201518160000155602082015181600101908051906020019061194f929190613142565b50604082015181600201908051906020019061196c929190613142565b506060820151816003019080519060200190611989929190613142565b5060808201518160040190805190602001906119a6929190613142565b5060a08201518160050190805190602001906119c3929190613142565b5060c0820151816006015560e08201518160070155905050600860008154809291906119ee90613cc4565b919050555050505050505050565b600060026000838152602001908152602001600020600101549050919050565b6002602052806000526040600020600091509050806000018054611a3f90613c63565b80601f0160208091040260200160405190810160405280929190818152602001828054611a6b90613c63565b8015611ab85780601f10611a8d57610100808354040283529160200191611ab8565b820191906000526020600020905b815481529060010190602001808311611a9b57829003601f168201915b505050505090806001015490806002018054611ad390613c63565b80601f0160208091040260200160405190810160405280929190818152602001828054611aff90613c63565b8015611b4c5780601f10611b2157610100808354040283529160200191611b4c565b820191906000526020600020905b815481529060010190602001808311611b2f57829003601f168201915b505050505090806003015490806004018054611b6790613c63565b80601f0160208091040260200160405190810160405280929190818152602001828054611b9390613c63565b8015611be05780601f10611bb557610100808354040283529160200191611be0565b820191906000526020600020905b815481529060010190602001808311611bc357829003601f168201915b505050505090806005018054611bf590613c63565b80601f0160208091040260200160405190810160405280929190818152602001828054611c2190613c63565b8015611c6e5780601f10611c4357610100808354040283529160200191611c6e565b820191906000526020600020905b815481529060010190602001808311611c5157829003601f168201915b5050505050908060060154905087565b6060600360008381526020019081526020016000206001018054611ca190613c63565b80601f0160208091040260200160405190810160405280929190818152602001828054611ccd90613c63565b8015611d1a5780601f10611cef57610100808354040283529160200191611d1a565b820191906000526020600020905b815481529060010190602001808311611cfd57829003601f168201915b50505050509050919050565b60606007805480602002602001604051908101604052809291908181526020018280548015611daa57602002820191906000526020600020905b8160009054906101000a900473ffffffffffffffffffffffffffffffffffffffff1673ffffffffffffffffffffffffffffffffffffffff1681526020019060010190808311611d60575b5050505050905090565b6000600c54905090565b60078181548110611dce57600080fd5b906000526020600020016000915054906101000a900473ffffffffffffffffffffffffffffffffffffffff1681565b6001602052806000526040600020600091509050806000015490806001018054611e2690613c63565b80601f0160208091040260200160405190810160405280929190818152602001828054611e5290613c63565b8015611e9f5780601f10611e7457610100808354040283529160200191611e9f565b820191906000526020600020905b815481529060010190602001808311611e8257829003601f168201915b505050505090806002018054611eb490613c63565b80601f0160208091040260200160405190810160405280929190818152602001828054611ee090613c63565b8015611f2d5780601f10611f0257610100808354040283529160200191611f2d565b820191906000526020600020905b815481529060010190602001808311611f1057829003601f168201915b505050505090806003015490806004018054611f4890613c63565b80601f0160208091040260200160405190810160405280929190818152602001828054611f7490613c63565b8015611fc15780601f10611f9657610100808354040283529160200191611fc1565b820191906000526020600020905b815481529060010190602001808311611fa457829003601f168201915b505050505090806005018054611fd690613c63565b80601f016020809104026020016040519081016040528092919081815260200182805461200290613c63565b801561204f5780601f106120245761010080835404028352916020019161204f565b820191906000526020600020905b81548152906001019060200180831161203257829003601f168201915b5050505050908060060154905087565b6000806000905060005b60085482101561240b5761211a88600080858152602001908152602001600020600101805461209790613c63565b80601f01602080910402602001604051908101604052809291908181526020018280546120c390613c63565b80156121105780601f106120e557610100808354040283529160200191612110565b820191906000526020600020905b8154815290600101906020018083116120f357829003601f168201915b50505050506130d8565b80156121c957506121c887600080858152602001908152602001600020600201805461214590613c63565b80601f016020809104026020016040519081016040528092919081815260200182805461217190613c63565b80156121be5780601f10612193576101008083540402835291602001916121be565b820191906000526020600020905b8154815290600101906020018083116121a157829003601f168201915b50505050506130d8565b5b801561227857506122778660008085815260200190815260200160002060030180546121f490613c63565b80601f016020809104026020016040519081016040528092919081815260200182805461222090613c63565b801561226d5780601f106122425761010080835404028352916020019161226d565b820191906000526020600020905b81548152906001019060200180831161225057829003601f168201915b50505050506130d8565b5b801561232757506123268560008085815260200190815260200160002060040180546122a390613c63565b80601f01602080910402602001604051908101604052809291908181526020018280546122cf90613c63565b801561231c5780601f106122f15761010080835404028352916020019161231c565b820191906000526020600020905b8154815290600101906020018083116122ff57829003601f168201915b50505050506130d8565b5b80156123d657506123d584600080858152602001908152602001600020600501805461235290613c63565b80601f016020809104026020016040519081016040528092919081815260200182805461237e90613c63565b80156123cb5780601f106123a0576101008083540402835291602001916123cb565b820191906000526020600020905b8154815290600101906020018083116123ae57829003601f168201915b50505050506130d8565b5b156123f85760008083815260200190815260200160002060000154905061240b565b818061240390613cc4565b925050612069565b809250505095945050505050565b6060600080838152602001908152602001600020600501805461243b90613c63565b80601f016020809104026020016040519081016040528092919081815260200182805461246790613c63565b80156124b45780601f10612489576101008083540402835291602001916124b4565b820191906000526020600020905b81548152906001019060200180831161249757829003601f168201915b50505050509050919050565b60606003600083815260200190815260200160002060030180546124e390613c63565b80601f016020809104026020016040519081016040528092919081815260200182805461250f90613c63565b801561255c5780601f106125315761010080835404028352916020019161255c565b820191906000526020600020905b81548152906001019060200180831161253f57829003601f168201915b50505050509050919050565b606060026000838152602001908152602001600020600001805461258b90613c63565b80601f01602080910402602001604051908101604052809291908181526020018280546125b790613c63565b80156126045780601f106125d957610100808354040283529160200191612604565b820191906000526020600020905b8154815290600101906020018083116125e757829003601f168201915b50505050509050919050565b600360205280600052604060002060009150905080600001549080600101805461263990613c63565b80601f016020809104026020016040519081016040528092919081815260200182805461266590613c63565b80156126b25780601f10612687576101008083540402835291602001916126b2565b820191906000526020600020905b81548152906001019060200180831161269557829003601f168201915b5050505050908060020180546126c790613c63565b80601f01602080910402602001604051908101604052809291908181526020018280546126f390613c63565b80156127405780601f1061271557610100808354040283529160200191612740565b820191906000526020600020905b81548152906001019060200180831161272357829003601f168201915b50505050509080600301805461275590613c63565b80601f016020809104026020016040519081016040528092919081815260200182805461278190613c63565b80156127ce5780601f106127a3576101008083540402835291602001916127ce565b820191906000526020600020905b8154815290600101906020018083116127b157829003601f168201915b5050505050908060040180546127e390613c63565b80601f016020809104026020016040519081016040528092919081815260200182805461280f90613c63565b801561285c5780601f106128315761010080835404028352916020019161285c565b820191906000526020600020905b81548152906001019060200180831161283f57829003601f168201915b5050505050905085565b606060026000838152602001908152602001600020600401805461288990613c63565b80601f01602080910402602001604051908101604052809291908181526020018280546128b590613c63565b80156129025780601f106128d757610100808354040283529160200191612902565b820191906000526020600020905b8154815290600101906020018083116128e557829003601f168201915b50505050509050919050565b6060600680548060200260200160405190810160405280929190818152602001828054801561299257602002820191906000526020600020905b8160009054906101000a900473ffffffffffffffffffffffffffffffffffffffff1673ffffffffffffffffffffffffffffffffffffffff1681526020019060010190808311612948575b5050505050905090565b6000600a54905090565b60606003600083815260200190815260200160002060020180546129c990613c63565b80601f01602080910402602001604051908101604052809291908181526020018280546129f590613c63565b8015612a425780601f10612a1757610100808354040283529160200191612a42565b820191906000526020600020905b815481529060010190602001808311612a2557829003601f168201915b50505050509050919050565b6060600260008381526020019081526020016000206005018054612a7190613c63565b80601f0160208091040260200160405190810160405280929190818152602001828054612a9d90613c63565b8015612aea5780601f10612abf57610100808354040283529160200191612aea565b820191906000526020600020905b815481529060010190602001808311612acd57829003601f168201915b50505050509050919050565b6060600060606000606080600060026000898152602001908152602001600020600001600260008a815260200190815260200160002060010154600260008b8152602001908152602001600020600201600260008c815260200190815260200160002060030154600260008d8152602001908152602001600020600401600260008e8152602001908152602001600020600501600260008f815260200190815260200160002060060154868054612bac90613c63565b80601f0160208091040260200160405190810160405280929190818152602001828054612bd890613c63565b8015612c255780601f10612bfa57610100808354040283529160200191612c25565b820191906000526020600020905b815481529060010190602001808311612c0857829003601f168201915b50505050509650848054612c3890613c63565b80601f0160208091040260200160405190810160405280929190818152602001828054612c6490613c63565b8015612cb15780601f10612c8657610100808354040283529160200191612cb1565b820191906000526020600020905b815481529060010190602001808311612c9457829003601f168201915b50505050509450828054612cc490613c63565b80601f0160208091040260200160405190810160405280929190818152602001828054612cf090613c63565b8015612d3d5780601f10612d1257610100808354040283529160200191612d3d565b820191906000526020600020905b815481529060010190602001808311612d2057829003601f168201915b50505050509250818054612d5090613c63565b80601f0160208091040260200160405190810160405280929190818152602001828054612d7c90613c63565b8015612dc95780601f10612d9e57610100808354040283529160200191612dc9565b820191906000526020600020905b815481529060010190602001808311612dac57829003601f168201915b505050505091509650965096509650965096509650919395979092949650565b81600080858152602001908152602001600020600601819055508060008085815260200190815260200160002060070181905550505050565b60606000808381526020019081526020016000206003018054612e4490613c63565b80601f0160208091040260200160405190810160405280929190818152602001828054612e7090613c63565b8015612ebd5780601f10612e9257610100808354040283529160200191612ebd565b820191906000526020600020905b815481529060010190602001808311612ea057829003601f168201915b50505050509050919050565b6000600954905090565b60068181548110612ee357600080fd5b906000526020600020016000915054906101000a900473ffffffffffffffffffffffffffffffffffffffff1681565b600060026000838152602001908152602001600020600301549050919050565b6040518060e00160405280600954815260200187815260200186815260200185815260200184815260200183815260200182815250600160006009548152602001908152602001600020600082015181600001556020820151816001019080519060200190612fa2929190613142565b506040820151816002019080519060200190612fbf929190613142565b50606082015181600301556080820151816004019080519060200190612fe6929190613142565b5060a0820151816005019080519060200190613003929190613142565b5060c082015181600601559050506009600081548092919061302490613cc4565b9190505550505050505050565b6060600080838152602001908152602001600020600201805461305390613c63565b80601f016020809104026020016040519081016040528092919081815260200182805461307f90613c63565b80156130cc5780601f106130a1576101008083540402835291602001916130cc565b820191906000526020600020905b8154815290600101906020018083116130af57829003601f168201915b50505050509050919050565b6000816040516020016130eb9190613d49565b60405160208183030381529060405280519060200120836040516020016131129190613d49565b604051602081830303815290604052805190602001201415613137576001905061313c565b600090505b92915050565b82805461314e90613c63565b90600052602060002090601f01602090048101928261317057600085556131b7565b82601f1061318957805160ff19168380011785556131b7565b828001600101855582156131b7579182015b828111156131b657825182559160200191906001019061319b565b5b5090506131c491906131c8565b5090565b5b808211156131e15760008160009055506001016131c9565b5090565b6000604051905090565b600080fd5b600080fd5b6000819050919050565b61320c816131f9565b811461321757600080fd5b50565b60008135905061322981613203565b92915050565b600060208284031215613245576132446131ef565b5b60006132538482850161321a565b91505092915050565b600081519050919050565b600082825260208201905092915050565b60005b8381101561329657808201518184015260208101905061327b565b838111156132a5576000848401525b50505050565b6000601f19601f8301169050919050565b60006132c78261325c565b6132d18185613267565b93506132e1818560208601613278565b6132ea816132ab565b840191505092915050565b6000602082019050818103600083015261330f81846132bc565b905092915050565b613320816131f9565b82525050565b600060208201905061333b6000830184613317565b92915050565b600080fd5b600080fd5b7f4e487b7100000000000000000000000000000000000000000000000000000000600052604160045260246000fd5b613383826132ab565b810181811067ffffffffffffffff821117156133a2576133a161334b565b5b80604052505050565b60006133b56131e5565b90506133c1828261337a565b919050565b600067ffffffffffffffff8211156133e1576133e061334b565b5b6133ea826132ab565b9050602081019050919050565b82818337600083830152505050565b6000613419613414846133c6565b6133ab565b90508281526020810184848401111561343557613434613346565b5b6134408482856133f7565b509392505050565b600082601f83011261345d5761345c613341565b5b813561346d848260208601613406565b91505092915050565b60008060008060008060c08789031215613493576134926131ef565b5b600087013567ffffffffffffffff8111156134b1576134b06131f4565b5b6134bd89828a01613448565b965050602087013567ffffffffffffffff8111156134de576134dd6131f4565b5b6134ea89828a01613448565b95505060406134fb89828a0161321a565b945050606087013567ffffffffffffffff81111561351c5761351b6131f4565b5b61352889828a01613448565b935050608087013567ffffffffffffffff811115613549576135486131f4565b5b61355589828a01613448565b92505060a061356689828a0161321a565b9150509295509295509295565b600073ffffffffffffffffffffffffffffffffffffffff82169050919050565b600061359e82613573565b9050919050565b6135ae81613593565b82525050565b60006020820190506135c960008301846135a5565b92915050565b6000610100820190506135e5600083018b613317565b81810360208301526135f7818a6132bc565b9050818103604083015261360b81896132bc565b9050818103606083015261361f81886132bc565b9050818103608083015261363381876132bc565b905081810360a083015261364781866132bc565b905061365660c0830185613317565b61366360e0830184613317565b9998505050505050505050565b600060e082019050613685600083018a613317565b818103602083015261369781896132bc565b905081810360408301526136ab81886132bc565b90506136ba6060830187613317565b81810360808301526136cc81866132bc565b905081810360a08301526136e081856132bc565b90506136ef60c0830184613317565b98975050505050505050565b600060a0820190506137106000830188613317565b818103602083015261372281876132bc565b9050818103604083015261373681866132bc565b9050818103606083015261374a81856132bc565b9050818103608083015261375e81846132bc565b90509695505050505050565b60008060008060808587031215613784576137836131ef565b5b600085013567ffffffffffffffff8111156137a2576137a16131f4565b5b6137ae87828801613448565b945050602085013567ffffffffffffffff8111156137cf576137ce6131f4565b5b6137db87828801613448565b935050604085013567ffffffffffffffff8111156137fc576137fb6131f4565b5b61380887828801613448565b925050606085013567ffffffffffffffff811115613829576138286131f4565b5b61383587828801613448565b91505092959194509250565b600081519050919050565b600082825260208201905092915050565b6000819050602082019050919050565b61387681613593565b82525050565b6000613888838361386d565b60208301905092915050565b6000602082019050919050565b60006138ac82613841565b6138b6818561384c565b93506138c18361385d565b8060005b838110156138f25781516138d9888261387c565b97506138e483613894565b9250506001810190506138c5565b5085935050505092915050565b6000602082019050818103600083015261391981846138a1565b905092915050565b600080600080600080600060e0888a0312156139405761393f6131ef565b5b600088013567ffffffffffffffff81111561395e5761395d6131f4565b5b61396a8a828b01613448565b975050602088013567ffffffffffffffff81111561398b5761398a6131f4565b5b6139978a828b01613448565b965050604088013567ffffffffffffffff8111156139b8576139b76131f4565b5b6139c48a828b01613448565b955050606088013567ffffffffffffffff8111156139e5576139e46131f4565b5b6139f18a828b01613448565b945050608088013567ffffffffffffffff811115613a1257613a116131f4565b5b613a1e8a828b01613448565b93505060a0613a2f8a828b0161321a565b92505060c0613a408a828b0161321a565b91505092959891949750929550565b600060e0820190508181036000830152613a69818a6132bc565b9050613a786020830189613317565b8181036040830152613a8a81886132bc565b9050613a996060830187613317565b8181036080830152613aab81866132bc565b905081810360a0830152613abf81856132bc565b9050613ace60c0830184613317565b98975050505050505050565b600080600080600060a08688031215613af657613af56131ef565b5b600086013567ffffffffffffffff811115613b1457613b136131f4565b5b613b2088828901613448565b955050602086013567ffffffffffffffff811115613b4157613b406131f4565b5b613b4d88828901613448565b945050604086013567ffffffffffffffff811115613b6e57613b6d6131f4565b5b613b7a88828901613448565b935050606086013567ffffffffffffffff811115613b9b57613b9a6131f4565b5b613ba788828901613448565b925050608086013567ffffffffffffffff811115613bc857613bc76131f4565b5b613bd488828901613448565b9150509295509295909350565b600080600060608486031215613bfa57613bf96131ef565b5b6000613c088682870161321a565b9350506020613c198682870161321a565b9250506040613c2a8682870161321a565b9150509250925092565b7f4e487b7100000000000000000000000000000000000000000000000000000000600052602260045260246000fd5b60006002820490506001821680613c7b57607f821691505b60208210811415613c8f57613c8e613c34565b5b50919050565b7f4e487b7100000000000000000000000000000000000000000000000000000000600052601160045260246000fd5b6000613ccf826131f9565b91507fffffffffffffffffffffffffffffffffffffffffffffffffffffffffffffffff821415613d0257613d01613c95565b5b600182019050919050565b600081905092915050565b6000613d238261325c565b613d2d8185613d0d565b9350613d3d818560208601613278565b80840191505092915050565b6000613d558284613d18565b91508190509291505056fea26469706673582212202d13938f9da9fd8772440e19b652d8ba0bc64523e388b410318ed2685596640e64736f6c634300080a0033",
  "immutableReferences": {},
  "source": "// SPDX-License-Identifier: MIT\r\npragma solidity >=0.4.22 <0.9.0;\r\n\r\ncontract Land {\r\n    // structs\r\n    struct Deed {\r\n        // deed instance variables\r\n        uint deedId;\r\n        string no;\r\n        string streetName;\r\n        string city;\r\n        string district;\r\n        string province;\r\n        uint assignedLawyerId; // to link the relevant lawyer to the deed\r\n        uint assignedSellerId; // to link the relevant seller to the deed\r\n    }\r\n\r\n    struct Buyer{\r\n        // Buyer instance variables\r\n       uint id;\r\n       string nic;\r\n       string name;\r\n       uint age;\r\n       string city;\r\n       string email; \r\n       uint telephoneNumber;\r\n    }\r\n\r\n    struct Lawyer{\r\n        // Lawyer instance variables\r\n        uint lawyerId;\r\n        string lawyerName;\r\n        string lawyernic;\r\n        string lawyerRegNo;\r\n        string lawyerEmail;\r\n    }\r\n\r\n    struct Seller {\r\n        // Seller instance variables\r\n        string name;\r\n\t\tuint id;\r\n\t\tstring nic;\r\n        uint age;\r\n        string city;\r\n\t\tstring email;\r\n        uint telephoneNumber;\r\n    }\r\n\r\n    struct Admin {\r\n        // Admin instance variables\r\n        uint id;\r\n    }\r\n\r\n    // mappings\r\n    mapping(uint => Deed) public deeds;\r\n    mapping(uint => Buyer) public Buyersmapping;\r\n    mapping(uint => Seller) public sellersMapping;\r\n    mapping(uint => Lawyer) public Lawyersmapping;\r\n    mapping(uint => Admin) public adminMapping;\r\n    \r\n    //arrays\r\n    address[] public Buyerlist;\r\n    address[] public sellerList;\r\n    address[] public lawyerList;\r\n\r\n    // Count tracking variables\r\n    uint private deedCount = 0;\r\n    uint private buyersCount = 0;\r\n    uint private sellersCount = 0;\r\n    uint private lawyerCount=0;\r\n    uint private adminCount = 0;\r\n\r\n    // getter for deed count\r\n    function getDeedCount() public view returns (uint) {\r\n        return deedCount;\r\n    }\r\n\r\n    // getter for buyer count\r\n    function getBuyersCount() public view returns(uint){\r\n        return buyersCount;\r\n    }\r\n\r\n    // getter for lawyer count\r\n    function getLawyerCount() public view returns(uint){\r\n        return lawyerCount;\r\n    }\r\n\r\n    // getter for seller count\r\n    function getSellersCount() public view returns(uint){\r\n        return sellersCount;\r\n    }\r\n\r\n    // getter for admin count\r\n    function getAdminCount() public view returns(uint){\r\n        return adminCount;\r\n    }\r\n\r\n    //getters for Deed struct\r\n    function getDeedId(uint index) public view returns (uint) {\r\n        return deeds[index].deedId;\r\n    }\r\n\r\n    function getDeedNo(uint index) public view returns (string memory) {\r\n        return deeds[index].no;\r\n    }\r\n\r\n    function getDeedStreetName(uint index) public view returns (string memory) {\r\n        return deeds[index].streetName;\r\n    }\r\n\r\n    function getDeedCity(uint index) public view returns (string memory) {\r\n        return deeds[index].city;\r\n    }\r\n\r\n    function getDeedDistrict(uint index) public view returns (string memory) {\r\n        return deeds[index].district;\r\n    }\r\n\r\n    function getDeedProvince(uint index) public view returns (string memory) {\r\n        return deeds[index].province;\r\n    }\r\n\r\n    function getLawyerIdOfDeed(uint index) public view returns (uint) {\r\n        return deeds[index].assignedLawyerId;\r\n    }\r\n\r\n    function getSellerIdOfDeed(uint index) public view returns (uint) {\r\n        return deeds[index].assignedSellerId;\r\n    }\r\n\r\n    // function to compare strings\r\n    function compareStrings(string memory s1, string memory s2) private pure returns (bool) {\r\n        if (keccak256(abi.encodePacked(s1)) == keccak256(abi.encodePacked(s2)))\r\n        {\r\n            return true;\r\n        }\r\n        else \r\n        {\r\n            return false;\r\n        }\r\n    }\r\n\r\n    // function to get the deed by the land address for searching purposes\r\n    function findDeedByAddress(string memory _no, string memory _streetName, string memory _city, string memory _district, string memory _province) public view returns (uint) {\r\n        uint i = 0;\r\n        uint returningDeedId;\r\n        while (i < deedCount)\r\n        {\r\n            if (compareStrings(_no, deeds[i].no) && compareStrings(_streetName, deeds[i].streetName) && compareStrings(_city, deeds[i].city) && compareStrings(_district, deeds[i].district) && compareStrings(_province, deeds[i].province))\r\n            {\r\n                returningDeedId = deeds[i].deedId;\r\n                break;\r\n            }\r\n            i++;\r\n        }\r\n        return returningDeedId;\r\n    }\r\n\r\n    // function to change land deed buyer and seller\r\n    function changeDeedBuyerAndSeller(uint _deedId, uint _assignedLawyerId, uint _assignedSellerId) public {\r\n        \r\n        deeds[_deedId].assignedLawyerId = _assignedLawyerId;\r\n        deeds[_deedId].assignedSellerId = _assignedSellerId;\r\n    }\r\n\r\n    //getter for the Buyerlist array\r\n    function getBuyer() public view returns( address [] memory){\r\n        return(Buyerlist);\r\n    }\r\n\r\n    //getter for the seller list array\r\n    function getSeller() public view returns( address [] memory){\r\n        return(sellerList);\r\n    }\r\n\r\n    //getter for the lawyerList array\r\n    function getLawyer() public view returns( address [] memory){\r\n        return(lawyerList);\r\n    }\r\n\r\n    // function to add a new deed to the deeds mapping\r\n    function addNewDeed(string memory _no, string memory _streetName, string memory _city, string memory _district, string memory _province, uint _assignedLawyerId, uint _assignedSellerId) public {\r\n        deeds[deedCount] = Deed(deedCount, _no, _streetName, _city, _district, _province, _assignedLawyerId, _assignedSellerId);\r\n        deedCount++;\r\n    }\r\n\r\n    //function to register new Buyer\r\n    function registerBuyer(string memory _nic, string memory _name, uint _age, string memory _city, string memory _email, uint _telephoneNumber) public {\r\n        Buyersmapping[buyersCount] = Buyer(buyersCount, _nic,  _name, _age, _city, _email, _telephoneNumber);\r\n        buyersCount++;\r\n    }\r\n\r\n    //function to register a seller\r\n    function registerSeller(string memory _name, string memory _nic, uint _age, string memory _city, string memory _email, uint _telephoneNumber) public {\r\n        sellersMapping[sellersCount] = Seller(_name, sellersCount, _nic, _age, _city, _email, _telephoneNumber);\r\n        sellersCount++;\r\n    }\r\n\r\n    //function to register a new Lawyer\r\n    function registerLawyer(string memory _lawyerName, string memory _lawyernic, string memory _lawyerRegNo, string memory _lawyerEmail) public {\r\n        Lawyersmapping[lawyerCount] = Lawyer(lawyerCount, _lawyerName, _lawyernic, _lawyerRegNo, _lawyerEmail);\r\n        lawyerCount++;\r\n    }\r\n\r\n    //function to display buyer details\r\n    function displayBuyer(uint index) public view returns (uint _id, string memory _nic, string memory _name, uint _age, string memory _city, string memory _email, uint _telephoneNumber){\r\n        return(Buyersmapping[index].id, Buyersmapping[index].nic,Buyersmapping[index].name,Buyersmapping[index].age,Buyersmapping[index].city,Buyersmapping[index].email,Buyersmapping[index].telephoneNumber);\r\n\r\n    } \r\n\r\n    //function to display seller details\r\n    function displaySeller(uint index) public view returns (string memory _name, uint _id, string memory _nic, uint _age, string memory _city, string memory _email, uint _telephoneNumber){\r\n        return(sellersMapping[index].name, sellersMapping[index].id, sellersMapping[index].nic, sellersMapping[index].age, sellersMapping[index].city, sellersMapping[index].email, sellersMapping[index].telephoneNumber);\r\n    }\r\n\r\n    //function to add admin\r\n    function addAdmin() private {\r\n        adminCount++;\r\n        adminMapping[adminCount] = Admin(adminCount);\r\n    }\r\n    \r\n    //function to display lawyer details\r\n    function displayLawyer(uint index) public view returns (uint _lawyerId, string memory _lawyerName, string memory _lawyernic, string memory _lawyerRegNo, string memory _lawyerEmail){\r\n        return(Lawyersmapping[index].lawyerId, Lawyersmapping[index].lawyerName, Lawyersmapping[index].lawyernic, Lawyersmapping[index].lawyerRegNo, Lawyersmapping[index].lawyerEmail);\r\n    }\r\n\r\n    // function to get the lawyer id\r\n    function getLawyerId(uint index) public view returns (uint) {\r\n        return Lawyersmapping[index].lawyerId;\r\n    }\r\n\r\n    // function to get the lawyer name\r\n    function getLawyerName(uint index) public view returns (string memory) {\r\n        return Lawyersmapping[index].lawyerName;\r\n    }\r\n\r\n    // function to get the lawyer nic\r\n    function getLawyerNic(uint index) public view returns (string memory) {\r\n        return Lawyersmapping[index].lawyernic;\r\n    }\r\n\r\n    // function to get the lawyer reg no\r\n    function getLawyerRegNo(uint index) public view returns (string memory) {\r\n        return Lawyersmapping[index].lawyerRegNo;\r\n    }\r\n\r\n    // function to get the lawyer email\r\n    function getLawyerEmail(uint index) public view returns (string memory) {\r\n        return Lawyersmapping[index].lawyerEmail;\r\n    }\r\n\r\n    // function to get the seller id\r\n    function getSellerId(uint index) public view returns (uint) {\r\n        return sellersMapping[index].id;\r\n    }\r\n\r\n    // function to get the seller name\r\n    function getSellerName(uint index) public view returns (string memory) {\r\n        return sellersMapping[index].name;\r\n    }\r\n\r\n    // function to get the seller nic\r\n    function getSellerNic(uint index) public view returns (string memory) {\r\n        return sellersMapping[index].nic;\r\n    }\r\n\r\n    // function to get the seller age\r\n    function getSellerAge(uint index) public view returns (uint) {\r\n        return sellersMapping[index].age;\r\n    }\r\n\r\n    // function to get the seller city\r\n    function getSellerCity(uint index) public view returns (string memory) {\r\n        return sellersMapping[index].city;\r\n    }\r\n\r\n    // function to get the seller email\r\n    function getSellerEmail(uint index) public view returns (string memory) {\r\n        return sellersMapping[index].email;\r\n    }\r\n\r\n    // function to get the seller telephonenumber\r\n    function getSellerTelephoneNo(uint index) public view returns (uint) {\r\n        return sellersMapping[index].telephoneNumber;\r\n    }\r\n}",
  "sourcePath": "C:\\GitHubRepos\\GitHub\\DBLOCK\\backEnd\\contracts\\Land.sol",
  "compiler": {
    "name": "solc",
    "version": "0.8.10+commit.fc410830.Emscripten.clang"
  },
  "schemaVersion": "3.4.3",
  "updatedAt": "2022-03-08T11:08:00.959Z",
  "devdoc": {
    "kind": "dev",
    "methods": {},
    "version": 1
  },
  "userdoc": {
    "kind": "user",
    "methods": {},
    "version": 1
  }
}