{
  "contractName": "Land",
  "abi": [
    {
      "inputs": [
        {
          "internalType": "uint256",
          "name": "",
          "type": "uint256"
        }
      ],
      "name": "Buyerlist",
      "outputs": [
        {
          "internalType": "address",
          "name": "",
          "type": "address"
        }
      ],
      "stateMutability": "view",
      "type": "function"
    },
    {
      "inputs": [
        {
          "internalType": "uint256",
          "name": "",
          "type": "uint256"
        }
      ],
      "name": "Buyersmapping",
      "outputs": [
        {
          "internalType": "uint256",
          "name": "id",
          "type": "uint256"
        },
        {
          "internalType": "string",
          "name": "nic",
          "type": "string"
        },
        {
          "internalType": "string",
          "name": "name",
          "type": "string"
        },
        {
          "internalType": "uint256",
          "name": "age",
          "type": "uint256"
        },
        {
          "internalType": "string",
          "name": "city",
          "type": "string"
        },
        {
          "internalType": "string",
          "name": "email",
          "type": "string"
        },
        {
          "internalType": "uint256",
          "name": "telephoneNumber",
          "type": "uint256"
        }
      ],
      "stateMutability": "view",
      "type": "function"
    },
    {
      "inputs": [
        {
          "internalType": "uint256",
          "name": "",
          "type": "uint256"
        }
      ],
      "name": "Lawyersmapping",
      "outputs": [
        {
          "internalType": "uint256",
          "name": "lawyerId",
          "type": "uint256"
        },
        {
          "internalType": "string",
          "name": "lawyerName",
          "type": "string"
        },
        {
          "internalType": "string",
          "name": "lawyernic",
          "type": "string"
        },
        {
          "internalType": "string",
          "name": "lawyerRegNo",
          "type": "string"
        },
        {
          "internalType": "string",
          "name": "lawyerEmail",
          "type": "string"
        }
      ],
      "stateMutability": "view",
      "type": "function"
    },
    {
      "inputs": [
        {
          "internalType": "uint256",
          "name": "",
          "type": "uint256"
        }
      ],
      "name": "adminMapping",
      "outputs": [
        {
          "internalType": "uint256",
          "name": "id",
          "type": "uint256"
        }
      ],
      "stateMutability": "view",
      "type": "function"
    },
    {
      "inputs": [
        {
          "internalType": "uint256",
          "name": "",
          "type": "uint256"
        }
      ],
      "name": "deeds",
      "outputs": [
        {
          "internalType": "uint256",
          "name": "deedId",
          "type": "uint256"
        },
        {
          "internalType": "string",
          "name": "no",
          "type": "string"
        },
        {
          "internalType": "string",
          "name": "streetName",
          "type": "string"
        },
        {
          "internalType": "string",
          "name": "city",
          "type": "string"
        },
        {
          "internalType": "string",
          "name": "district",
          "type": "string"
        },
        {
          "internalType": "string",
          "name": "province",
          "type": "string"
        },
        {
          "internalType": "uint256",
          "name": "assignedLawyerId",
          "type": "uint256"
        },
        {
          "internalType": "uint256",
          "name": "assignedSellerId",
          "type": "uint256"
        }
      ],
      "stateMutability": "view",
      "type": "function"
    },
    {
      "inputs": [
        {
          "internalType": "uint256",
          "name": "",
          "type": "uint256"
        }
      ],
      "name": "lawyerList",
      "outputs": [
        {
          "internalType": "address",
          "name": "",
          "type": "address"
        }
      ],
      "stateMutability": "view",
      "type": "function"
    },
    {
      "inputs": [
        {
          "internalType": "uint256",
          "name": "",
          "type": "uint256"
        }
      ],
      "name": "sellerList",
      "outputs": [
        {
          "internalType": "address",
          "name": "",
          "type": "address"
        }
      ],
      "stateMutability": "view",
      "type": "function"
    },
    {
      "inputs": [
        {
          "internalType": "uint256",
          "name": "",
          "type": "uint256"
        }
      ],
      "name": "sellersMapping",
      "outputs": [
        {
          "internalType": "string",
          "name": "name",
          "type": "string"
        },
        {
          "internalType": "uint256",
          "name": "id",
          "type": "uint256"
        },
        {
          "internalType": "string",
          "name": "nic",
          "type": "string"
        },
        {
          "internalType": "uint256",
          "name": "age",
          "type": "uint256"
        },
        {
          "internalType": "string",
          "name": "city",
          "type": "string"
        },
        {
          "internalType": "string",
          "name": "email",
          "type": "string"
        },
        {
          "internalType": "uint256",
          "name": "telephoneNumber",
          "type": "uint256"
        }
      ],
      "stateMutability": "view",
      "type": "function"
    },
    {
      "inputs": [],
      "name": "getDeedCount",
      "outputs": [
        {
          "internalType": "uint256",
          "name": "",
          "type": "uint256"
        }
      ],
      "stateMutability": "view",
      "type": "function"
    },
    {
      "inputs": [],
      "name": "getBuyersCount",
      "outputs": [
        {
          "internalType": "uint256",
          "name": "",
          "type": "uint256"
        }
      ],
      "stateMutability": "view",
      "type": "function"
    },
    {
      "inputs": [],
      "name": "getLawyerCount",
      "outputs": [
        {
          "internalType": "uint256",
          "name": "",
          "type": "uint256"
        }
      ],
      "stateMutability": "view",
      "type": "function"
    },
    {
      "inputs": [],
      "name": "getSellersCount",
      "outputs": [
        {
          "internalType": "uint256",
          "name": "",
          "type": "uint256"
        }
      ],
      "stateMutability": "view",
      "type": "function"
    },
    {
      "inputs": [],
      "name": "getAdminCount",
      "outputs": [
        {
          "internalType": "uint256",
          "name": "",
          "type": "uint256"
        }
      ],
      "stateMutability": "view",
      "type": "function"
    },
    {
      "inputs": [
        {
          "internalType": "uint256",
          "name": "index",
          "type": "uint256"
        }
      ],
      "name": "getDeedId",
      "outputs": [
        {
          "internalType": "uint256",
          "name": "",
          "type": "uint256"
        }
      ],
      "stateMutability": "view",
      "type": "function"
    },
    {
      "inputs": [
        {
          "internalType": "uint256",
          "name": "index",
          "type": "uint256"
        }
      ],
      "name": "getDeedNo",
      "outputs": [
        {
          "internalType": "string",
          "name": "",
          "type": "string"
        }
      ],
      "stateMutability": "view",
      "type": "function"
    },
    {
      "inputs": [
        {
          "internalType": "uint256",
          "name": "index",
          "type": "uint256"
        }
      ],
      "name": "getDeedStreetName",
      "outputs": [
        {
          "internalType": "string",
          "name": "",
          "type": "string"
        }
      ],
      "stateMutability": "view",
      "type": "function"
    },
    {
      "inputs": [
        {
          "internalType": "uint256",
          "name": "index",
          "type": "uint256"
        }
      ],
      "name": "getDeedCity",
      "outputs": [
        {
          "internalType": "string",
          "name": "",
          "type": "string"
        }
      ],
      "stateMutability": "view",
      "type": "function"
    },
    {
      "inputs": [
        {
          "internalType": "uint256",
          "name": "index",
          "type": "uint256"
        }
      ],
      "name": "getDeedDistrict",
      "outputs": [
        {
          "internalType": "string",
          "name": "",
          "type": "string"
        }
      ],
      "stateMutability": "view",
      "type": "function"
    },
    {
      "inputs": [
        {
          "internalType": "uint256",
          "name": "index",
          "type": "uint256"
        }
      ],
      "name": "getDeedProvince",
      "outputs": [
        {
          "internalType": "string",
          "name": "",
          "type": "string"
        }
      ],
      "stateMutability": "view",
      "type": "function"
    },
    {
      "inputs": [
        {
          "internalType": "uint256",
          "name": "index",
          "type": "uint256"
        }
      ],
      "name": "getLawyerIdOfDeed",
      "outputs": [
        {
          "internalType": "uint256",
          "name": "",
          "type": "uint256"
        }
      ],
      "stateMutability": "view",
      "type": "function"
    },
    {
      "inputs": [
        {
          "internalType": "uint256",
          "name": "index",
          "type": "uint256"
        }
      ],
      "name": "getSellerIdOfDeed",
      "outputs": [
        {
          "internalType": "uint256",
          "name": "",
          "type": "uint256"
        }
      ],
      "stateMutability": "view",
      "type": "function"
    },
    {
      "inputs": [
        {
          "internalType": "string",
          "name": "_no",
          "type": "string"
        },
        {
          "internalType": "string",
          "name": "_streetName",
          "type": "string"
        },
        {
          "internalType": "string",
          "name": "_city",
          "type": "string"
        },
        {
          "internalType": "string",
          "name": "_district",
          "type": "string"
        },
        {
          "internalType": "string",
          "name": "_province",
          "type": "string"
        }
      ],
      "name": "findDeedByAddress",
      "outputs": [
        {
          "internalType": "uint256",
          "name": "",
          "type": "uint256"
        }
      ],
      "stateMutability": "view",
      "type": "function"
    },
    {
      "inputs": [
        {
          "internalType": "uint256",
          "name": "_deedId",
          "type": "uint256"
        },
        {
          "internalType": "uint256",
          "name": "_assignedLawyerId",
          "type": "uint256"
        },
        {
          "internalType": "uint256",
          "name": "_assignedSellerId",
          "type": "uint256"
        }
      ],
      "name": "changeDeedBuyerAndSeller",
      "outputs": [],
      "stateMutability": "nonpayable",
      "type": "function"
    },
    {
      "inputs": [],
      "name": "getBuyer",
      "outputs": [
        {
          "internalType": "address[]",
          "name": "",
          "type": "address[]"
        }
      ],
      "stateMutability": "view",
      "type": "function"
    },
    {
      "inputs": [],
      "name": "getSeller",
      "outputs": [
        {
          "internalType": "address[]",
          "name": "",
          "type": "address[]"
        }
      ],
      "stateMutability": "view",
      "type": "function"
    },
    {
      "inputs": [],
      "name": "getLawyer",
      "outputs": [
        {
          "internalType": "address[]",
          "name": "",
          "type": "address[]"
        }
      ],
      "stateMutability": "view",
      "type": "function"
    },
    {
      "inputs": [
        {
          "internalType": "string",
          "name": "_no",
          "type": "string"
        },
        {
          "internalType": "string",
          "name": "_streetName",
          "type": "string"
        },
        {
          "internalType": "string",
          "name": "_city",
          "type": "string"
        },
        {
          "internalType": "string",
          "name": "_district",
          "type": "string"
        },
        {
          "internalType": "string",
          "name": "_province",
          "type": "string"
        },
        {
          "internalType": "uint256",
          "name": "_assignedLawyerId",
          "type": "uint256"
        },
        {
          "internalType": "uint256",
          "name": "_assignedSellerId",
          "type": "uint256"
        }
      ],
      "name": "addNewDeed",
      "outputs": [],
      "stateMutability": "nonpayable",
      "type": "function"
    },
    {
      "inputs": [
        {
          "internalType": "uint256",
          "name": "_id",
          "type": "uint256"
        },
        {
          "internalType": "string",
          "name": "_nic",
          "type": "string"
        },
        {
          "internalType": "string",
          "name": "_name",
          "type": "string"
        },
        {
          "internalType": "uint256",
          "name": "_age",
          "type": "uint256"
        },
        {
          "internalType": "string",
          "name": "_city",
          "type": "string"
        },
        {
          "internalType": "string",
          "name": "_email",
          "type": "string"
        },
        {
          "internalType": "uint256",
          "name": "_telephoneNumber",
          "type": "uint256"
        }
      ],
      "name": "registerBuyer",
      "outputs": [],
      "stateMutability": "nonpayable",
      "type": "function"
    },
    {
      "inputs": [
        {
          "internalType": "string",
          "name": "_name",
          "type": "string"
        },
        {
          "internalType": "uint256",
          "name": "_id",
          "type": "uint256"
        },
        {
          "internalType": "string",
          "name": "_nic",
          "type": "string"
        },
        {
          "internalType": "uint256",
          "name": "_age",
          "type": "uint256"
        },
        {
          "internalType": "string",
          "name": "_city",
          "type": "string"
        },
        {
          "internalType": "string",
          "name": "_email",
          "type": "string"
        },
        {
          "internalType": "uint256",
          "name": "_telephoneNumber",
          "type": "uint256"
        }
      ],
      "name": "registerSeller",
      "outputs": [],
      "stateMutability": "nonpayable",
      "type": "function"
    },
    {
      "inputs": [
        {
          "internalType": "uint256",
          "name": "_lawyerId",
          "type": "uint256"
        },
        {
          "internalType": "string",
          "name": "_lawyerName",
          "type": "string"
        },
        {
          "internalType": "string",
          "name": "_lawyernic",
          "type": "string"
        },
        {
          "internalType": "string",
          "name": "_lawyerRegNo",
          "type": "string"
        },
        {
          "internalType": "string",
          "name": "_lawyerEmail",
          "type": "string"
        }
      ],
      "name": "registerLawyer",
      "outputs": [],
      "stateMutability": "nonpayable",
      "type": "function"
    },
    {
      "inputs": [
        {
          "internalType": "uint256",
          "name": "index",
          "type": "uint256"
        }
      ],
      "name": "displayBuyer",
      "outputs": [
        {
          "internalType": "uint256",
          "name": "_id",
          "type": "uint256"
        },
        {
          "internalType": "string",
          "name": "_nic",
          "type": "string"
        },
        {
          "internalType": "string",
          "name": "_name",
          "type": "string"
        },
        {
          "internalType": "uint256",
          "name": "_age",
          "type": "uint256"
        },
        {
          "internalType": "string",
          "name": "_city",
          "type": "string"
        },
        {
          "internalType": "string",
          "name": "_email",
          "type": "string"
        },
        {
          "internalType": "uint256",
          "name": "_telephoneNumber",
          "type": "uint256"
        }
      ],
      "stateMutability": "view",
      "type": "function"
    },
    {
      "inputs": [
        {
          "internalType": "uint256",
          "name": "index",
          "type": "uint256"
        }
      ],
      "name": "displaySeller",
      "outputs": [
        {
          "internalType": "string",
          "name": "_name",
          "type": "string"
        },
        {
          "internalType": "uint256",
          "name": "_id",
          "type": "uint256"
        },
        {
          "internalType": "string",
          "name": "_nic",
          "type": "string"
        },
        {
          "internalType": "uint256",
          "name": "_age",
          "type": "uint256"
        },
        {
          "internalType": "string",
          "name": "_city",
          "type": "string"
        },
        {
          "internalType": "string",
          "name": "_email",
          "type": "string"
        },
        {
          "internalType": "uint256",
          "name": "_telephoneNumber",
          "type": "uint256"
        }
      ],
      "stateMutability": "view",
      "type": "function"
    },
    {
      "inputs": [
        {
          "internalType": "uint256",
          "name": "index",
          "type": "uint256"
        }
      ],
      "name": "displayLawyer",
      "outputs": [
        {
          "internalType": "uint256",
          "name": "_lawyerId",
          "type": "uint256"
        },
        {
          "internalType": "string",
          "name": "_lawyerName",
          "type": "string"
        },
        {
          "internalType": "string",
          "name": "_lawyernic",
          "type": "string"
        },
        {
          "internalType": "string",
          "name": "_lawyerRegNo",
          "type": "string"
        },
        {
          "internalType": "string",
          "name": "_lawyerEmail",
          "type": "string"
        }
      ],
      "stateMutability": "view",
      "type": "function"
    },
    {
      "inputs": [
        {
          "internalType": "uint256",
          "name": "index",
          "type": "uint256"
        }
      ],
      "name": "getLawyerId",
      "outputs": [
        {
          "internalType": "uint256",
          "name": "",
          "type": "uint256"
        }
      ],
      "stateMutability": "view",
      "type": "function"
    },
    {
      "inputs": [
        {
          "internalType": "uint256",
          "name": "index",
          "type": "uint256"
        }
      ],
      "name": "getLawyerName",
      "outputs": [
        {
          "internalType": "string",
          "name": "",
          "type": "string"
        }
      ],
      "stateMutability": "view",
      "type": "function"
    },
    {
      "inputs": [
        {
          "internalType": "uint256",
          "name": "index",
          "type": "uint256"
        }
      ],
      "name": "getLawyerNic",
      "outputs": [
        {
          "internalType": "string",
          "name": "",
          "type": "string"
        }
      ],
      "stateMutability": "view",
      "type": "function"
    },
    {
      "inputs": [
        {
          "internalType": "uint256",
          "name": "index",
          "type": "uint256"
        }
      ],
      "name": "getLawyerRegNo",
      "outputs": [
        {
          "internalType": "string",
          "name": "",
          "type": "string"
        }
      ],
      "stateMutability": "view",
      "type": "function"
    },
    {
      "inputs": [
        {
          "internalType": "uint256",
          "name": "index",
          "type": "uint256"
        }
      ],
      "name": "getLawyerEmail",
      "outputs": [
        {
          "internalType": "string",
          "name": "",
          "type": "string"
        }
      ],
      "stateMutability": "view",
      "type": "function"
    },
    {
      "inputs": [
        {
          "internalType": "uint256",
          "name": "index",
          "type": "uint256"
        }
      ],
      "name": "getSellerId",
      "outputs": [
        {
          "internalType": "uint256",
          "name": "",
          "type": "uint256"
        }
      ],
      "stateMutability": "view",
      "type": "function"
    },
    {
      "inputs": [
        {
          "internalType": "uint256",
          "name": "index",
          "type": "uint256"
        }
      ],
      "name": "getSellerName",
      "outputs": [
        {
          "internalType": "string",
          "name": "",
          "type": "string"
        }
      ],
      "stateMutability": "view",
      "type": "function"
    },
    {
      "inputs": [
        {
          "internalType": "uint256",
          "name": "index",
          "type": "uint256"
        }
      ],
      "name": "getSellerNic",
      "outputs": [
        {
          "internalType": "string",
          "name": "",
          "type": "string"
        }
      ],
      "stateMutability": "view",
      "type": "function"
    },
    {
      "inputs": [
        {
          "internalType": "uint256",
          "name": "index",
          "type": "uint256"
        }
      ],
      "name": "getSellerAge",
      "outputs": [
        {
          "internalType": "uint256",
          "name": "",
          "type": "uint256"
        }
      ],
      "stateMutability": "view",
      "type": "function"
    },
    {
      "inputs": [
        {
          "internalType": "uint256",
          "name": "index",
          "type": "uint256"
        }
      ],
      "name": "getSellerCity",
      "outputs": [
        {
          "internalType": "string",
          "name": "",
          "type": "string"
        }
      ],
      "stateMutability": "view",
      "type": "function"
    },
    {
      "inputs": [
        {
          "internalType": "uint256",
          "name": "index",
          "type": "uint256"
        }
      ],
      "name": "getSellerEmail",
      "outputs": [
        {
          "internalType": "string",
          "name": "",
          "type": "string"
        }
      ],
      "stateMutability": "view",
      "type": "function"
    },
    {
      "inputs": [
        {
          "internalType": "uint256",
          "name": "index",
          "type": "uint256"
        }
      ],
      "name": "getSellerTelephoneNo",
      "outputs": [
        {
          "internalType": "uint256",
          "name": "",
          "type": "uint256"
        }
      ],
      "stateMutability": "view",
      "type": "function"
    }
  ],
  "bytecode": "0x6080604052600060085560006009556000600a556000600b556000600c5534801561002957600080fd5b50613ece806100396000396000f3fe608060405234801561001057600080fd5b506004361061027f5760003560e01c80637e45aa251161015c578063d96b0a55116100ce578063ef38023511610087578063ef3802351461092d578063f0b93af914610949578063f0d3a9df14610979578063f42a1b3114610997578063f8a38605146109c7578063ffb434fb146109f75761027f565b8063d96b0a551461082b578063dbd0e1b61461085b578063dd9d122d14610879578063df0a1c2a14610897578063e084ada1146108c7578063e5137459146108f75761027f565b80639614681b116101205780639614681b1461071b57806397ecb5081461074b5780639cd681f514610767578063aca5577314610797578063b4321832146107c7578063cff0c7c0146107f75761027f565b80637e45aa251461064957806380014029146106795780638b7bf3eb14610697578063916a1c70146106b557806393addc08146106e55761027f565b806335a82e72116101f5578063655dc4c2116101b9578063655dc4c2146105495780636c218b171461056757806370ffbdd214610597578063721fa418146105c757806374cfe475146105e35780637c6eb103146106135761027f565b806335a82e721461047b5780634fac8ae9146104ab57806355bb2bcc146104c75780635dd56798146104fb578063603daf9a1461052b5761027f565b806321eb5a7c1161024757806321eb5a7c1461037b578063275ea7cf146103ab57806327dc19dd146103e157806330c9fb48146103fd57806332a678531461042d578063334bb7451461045d5761027f565b806305624d35146102845780630cc543b6146102b45780630df7ec24146102e4578063119d41f41461031457806318edf56414610344575b600080fd5b61029e6004803603810190610299919061322c565b610a27565b6040516102ab91906132f2565b60405180910390f35b6102ce60048036038101906102c9919061322c565b610ace565b6040516102db9190613323565b60405180910390f35b6102fe60048036038101906102f9919061322c565b610aee565b60405161030b9190613323565b60405180910390f35b61032e6004803603810190610329919061322c565b610b0d565b60405161033b919061337f565b60405180910390f35b61035e6004803603810190610359919061322c565b610b4c565b60405161037298979695949392919061339a565b60405180910390f35b6103956004803603810190610390919061322c565b610e3c565b6040516103a29190613323565b60405180910390f35b6103c560048036038101906103c0919061322c565b610e5a565b6040516103d8979695949392919061343b565b60405180910390f35b6103fb60048036038101906103f691906135fb565b61114c565b005b6104176004803603810190610412919061322c565b611228565b60405161042491906132f2565b60405180910390f35b6104476004803603810190610442919061322c565b6112d0565b60405161045491906132f2565b60405180910390f35b610465611377565b6040516104729190613323565b60405180910390f35b6104956004803603810190610490919061322c565b611381565b6040516104a29190613323565b60405180910390f35b6104c560048036038101906104c091906136e6565b6113a0565b005b6104e160048036038101906104dc919061322c565b61149e565b6040516104f29594939291906137f8565b60405180910390f35b6105156004803603810190610510919061322c565b611758565b6040516105229190613323565b60405180910390f35b610533611777565b6040516105409190613925565b60405180910390f35b610551611805565b60405161055e9190613323565b60405180910390f35b610581600480360381019061057c919061322c565b61180f565b60405161058e9190613323565b60405180910390f35b6105b160048036038101906105ac919061322c565b61182f565b6040516105be91906132f2565b60405180910390f35b6105e160048036038101906105dc9190613947565b6118d7565b005b6105fd60048036038101906105f8919061322c565b6119fa565b60405161060a9190613323565b60405180910390f35b61062d6004803603810190610628919061322c565b611a1a565b6040516106409796959493929190613a75565b60405180910390f35b610663600480360381019061065e919061322c565b611c7c565b60405161067091906132f2565b60405180910390f35b610681611d24565b60405161068e9190613925565b60405180910390f35b61069f611db2565b6040516106ac9190613323565b60405180910390f35b6106cf60048036038101906106ca919061322c565b611dbc565b6040516106dc919061337f565b60405180910390f35b6106ff60048036038101906106fa919061322c565b611dfb565b604051610712979695949392919061343b565b60405180910390f35b61073560048036038101906107309190613b00565b61205d565b6040516107429190613323565b60405180910390f35b61076560048036038101906107609190613c07565b612417565b005b610781600480360381019061077c919061322c565b612515565b60405161078e91906132f2565b60405180910390f35b6107b160048036038101906107ac919061322c565b6125bc565b6040516107be91906132f2565b60405180910390f35b6107e160048036038101906107dc919061322c565b612664565b6040516107ee91906132f2565b60405180910390f35b610811600480360381019061080c919061322c565b61270c565b6040516108229594939291906137f8565b60405180910390f35b6108456004803603810190610840919061322c565b612962565b60405161085291906132f2565b60405180910390f35b610863612a0a565b6040516108709190613925565b60405180910390f35b610881612a98565b60405161088e9190613323565b60405180910390f35b6108b160048036038101906108ac919061322c565b612aa2565b6040516108be91906132f2565b60405180910390f35b6108e160048036038101906108dc919061322c565b612b4a565b6040516108ee91906132f2565b60405180910390f35b610911600480360381019061090c919061322c565b612bf2565b6040516109249796959493929190613a75565b60405180910390f35b61094760048036038101906109429190613d19565b612ee5565b005b610963600480360381019061095e919061322c565b612f1e565b60405161097091906132f2565b60405180910390f35b610981612fc5565b60405161098e9190613323565b60405180910390f35b6109b160048036038101906109ac919061322c565b612fcf565b6040516109be919061337f565b60405180910390f35b6109e160048036038101906109dc919061322c565b61300e565b6040516109ee9190613323565b60405180910390f35b610a116004803603810190610a0c919061322c565b61302e565b604051610a1e91906132f2565b60405180910390f35b60606000808381526020019081526020016000206004018054610a4990613d9b565b80601f0160208091040260200160405190810160405280929190818152602001828054610a7590613d9b565b8015610ac25780601f10610a9757610100808354040283529160200191610ac2565b820191906000526020600020905b815481529060010190602001808311610aa557829003601f168201915b50505050509050919050565b600060026000838152602001908152602001600020600601549050919050565b6000806000838152602001908152602001600020600001549050919050565b60058181548110610b1d57600080fd5b906000526020600020016000915054906101000a900473ffffffffffffffffffffffffffffffffffffffff1681565b6000602052806000526040600020600091509050806000015490806001018054610b7590613d9b565b80601f0160208091040260200160405190810160405280929190818152602001828054610ba190613d9b565b8015610bee5780601f10610bc357610100808354040283529160200191610bee565b820191906000526020600020905b815481529060010190602001808311610bd157829003601f168201915b505050505090806002018054610c0390613d9b565b80601f0160208091040260200160405190810160405280929190818152602001828054610c2f90613d9b565b8015610c7c5780601f10610c5157610100808354040283529160200191610c7c565b820191906000526020600020905b815481529060010190602001808311610c5f57829003601f168201915b505050505090806003018054610c9190613d9b565b80601f0160208091040260200160405190810160405280929190818152602001828054610cbd90613d9b565b8015610d0a5780601f10610cdf57610100808354040283529160200191610d0a565b820191906000526020600020905b815481529060010190602001808311610ced57829003601f168201915b505050505090806004018054610d1f90613d9b565b80601f0160208091040260200160405190810160405280929190818152602001828054610d4b90613d9b565b8015610d985780601f10610d6d57610100808354040283529160200191610d98565b820191906000526020600020905b815481529060010190602001808311610d7b57829003601f168201915b505050505090806005018054610dad90613d9b565b80601f0160208091040260200160405190810160405280929190818152602001828054610dd990613d9b565b8015610e265780601f10610dfb57610100808354040283529160200191610e26565b820191906000526020600020905b815481529060010190602001808311610e0957829003601f168201915b5050505050908060060154908060070154905088565b60046020528060005260406000206000915090508060000154905081565b6000606080600060608060006001600089815260200190815260200160002060000154600160008a8152602001908152602001600020600101600160008b8152602001908152602001600020600201600160008c815260200190815260200160002060030154600160008d8152602001908152602001600020600401600160008e8152602001908152602001600020600501600160008f815260200190815260200160002060060154858054610f0f90613d9b565b80601f0160208091040260200160405190810160405280929190818152602001828054610f3b90613d9b565b8015610f885780601f10610f5d57610100808354040283529160200191610f88565b820191906000526020600020905b815481529060010190602001808311610f6b57829003601f168201915b50505050509550848054610f9b90613d9b565b80601f0160208091040260200160405190810160405280929190818152602001828054610fc790613d9b565b80156110145780601f10610fe957610100808354040283529160200191611014565b820191906000526020600020905b815481529060010190602001808311610ff757829003601f168201915b5050505050945082805461102790613d9b565b80601f016020809104026020016040519081016040528092919081815260200182805461105390613d9b565b80156110a05780601f10611075576101008083540402835291602001916110a0565b820191906000526020600020905b81548152906001019060200180831161108357829003601f168201915b505050505092508180546110b390613d9b565b80601f01602080910402602001604051908101604052809291908181526020018280546110df90613d9b565b801561112c5780601f106111015761010080835404028352916020019161112c565b820191906000526020600020905b81548152906001019060200180831161110f57829003601f168201915b505050505091509650965096509650965096509650919395979092949650565b6040518060a001604052808681526020018581526020018481526020018381526020018281525060036000600b5481526020019081526020016000206000820151816000015560208201518160010190805190602001906111ae92919061313f565b5060408201518160020190805190602001906111cb92919061313f565b5060608201518160030190805190602001906111e892919061313f565b50608082015181600401908051906020019061120592919061313f565b50905050600b600081548092919061121c90613dfc565b91905055505050505050565b606060036000838152602001908152602001600020600401805461124b90613d9b565b80601f016020809104026020016040519081016040528092919081815260200182805461127790613d9b565b80156112c45780601f10611299576101008083540402835291602001916112c4565b820191906000526020600020905b8154815290600101906020018083116112a757829003601f168201915b50505050509050919050565b606060008083815260200190815260200160002060010180546112f290613d9b565b80601f016020809104026020016040519081016040528092919081815260200182805461131e90613d9b565b801561136b5780601f106113405761010080835404028352916020019161136b565b820191906000526020600020905b81548152906001019060200180831161134e57829003601f168201915b50505050509050919050565b6000600854905090565b6000806000838152602001908152602001600020600601549050919050565b6040518060e001604052808881526020018781526020018681526020018581526020018481526020018381526020018281525060016000600954815260200190815260200160002060008201518160000155602082015181600101908051906020019061140e92919061313f565b50604082015181600201908051906020019061142b92919061313f565b5060608201518160030155608082015181600401908051906020019061145292919061313f565b5060a082015181600501908051906020019061146f92919061313f565b5060c082015181600601559050506009600081548092919061149090613dfc565b919050555050505050505050565b600060608060608060036000878152602001908152602001600020600001546003600088815260200190815260200160002060010160036000898152602001908152602001600020600201600360008a8152602001908152602001600020600301600360008b815260200190815260200160002060040183805461152190613d9b565b80601f016020809104026020016040519081016040528092919081815260200182805461154d90613d9b565b801561159a5780601f1061156f5761010080835404028352916020019161159a565b820191906000526020600020905b81548152906001019060200180831161157d57829003601f168201915b505050505093508280546115ad90613d9b565b80601f01602080910402602001604051908101604052809291908181526020018280546115d990613d9b565b80156116265780601f106115fb57610100808354040283529160200191611626565b820191906000526020600020905b81548152906001019060200180831161160957829003601f168201915b5050505050925081805461163990613d9b565b80601f016020809104026020016040519081016040528092919081815260200182805461166590613d9b565b80156116b25780601f10611687576101008083540402835291602001916116b2565b820191906000526020600020905b81548152906001019060200180831161169557829003601f168201915b505050505091508080546116c590613d9b565b80601f01602080910402602001604051908101604052809291908181526020018280546116f190613d9b565b801561173e5780601f106117135761010080835404028352916020019161173e565b820191906000526020600020905b81548152906001019060200180831161172157829003601f168201915b505050505090509450945094509450945091939590929450565b6000806000838152602001908152602001600020600701549050919050565b606060058054806020026020016040519081016040528092919081815260200182805480156117fb57602002820191906000526020600020905b8160009054906101000a900473ffffffffffffffffffffffffffffffffffffffff1673ffffffffffffffffffffffffffffffffffffffff16815260200190600101908083116117b1575b5050505050905090565b6000600b54905090565b600060036000838152602001908152602001600020600001549050919050565b606060026000838152602001908152602001600020600201805461185290613d9b565b80601f016020809104026020016040519081016040528092919081815260200182805461187e90613d9b565b80156118cb5780601f106118a0576101008083540402835291602001916118cb565b820191906000526020600020905b8154815290600101906020018083116118ae57829003601f168201915b50505050509050919050565b604051806101000160405280600854815260200188815260200187815260200186815260200185815260200184815260200183815260200182815250600080600854815260200190815260200160002060008201518160000155602082015181600101908051906020019061194d92919061313f565b50604082015181600201908051906020019061196a92919061313f565b50606082015181600301908051906020019061198792919061313f565b5060808201518160040190805190602001906119a492919061313f565b5060a08201518160050190805190602001906119c192919061313f565b5060c0820151816006015560e08201518160070155905050600860008154809291906119ec90613dfc565b919050555050505050505050565b600060026000838152602001908152602001600020600101549050919050565b6002602052806000526040600020600091509050806000018054611a3d90613d9b565b80601f0160208091040260200160405190810160405280929190818152602001828054611a6990613d9b565b8015611ab65780601f10611a8b57610100808354040283529160200191611ab6565b820191906000526020600020905b815481529060010190602001808311611a9957829003601f168201915b505050505090806001015490806002018054611ad190613d9b565b80601f0160208091040260200160405190810160405280929190818152602001828054611afd90613d9b565b8015611b4a5780601f10611b1f57610100808354040283529160200191611b4a565b820191906000526020600020905b815481529060010190602001808311611b2d57829003601f168201915b505050505090806003015490806004018054611b6590613d9b565b80601f0160208091040260200160405190810160405280929190818152602001828054611b9190613d9b565b8015611bde5780601f10611bb357610100808354040283529160200191611bde565b820191906000526020600020905b815481529060010190602001808311611bc157829003601f168201915b505050505090806005018054611bf390613d9b565b80601f0160208091040260200160405190810160405280929190818152602001828054611c1f90613d9b565b8015611c6c5780601f10611c4157610100808354040283529160200191611c6c565b820191906000526020600020905b815481529060010190602001808311611c4f57829003601f168201915b5050505050908060060154905087565b6060600360008381526020019081526020016000206001018054611c9f90613d9b565b80601f0160208091040260200160405190810160405280929190818152602001828054611ccb90613d9b565b8015611d185780601f10611ced57610100808354040283529160200191611d18565b820191906000526020600020905b815481529060010190602001808311611cfb57829003601f168201915b50505050509050919050565b60606007805480602002602001604051908101604052809291908181526020018280548015611da857602002820191906000526020600020905b8160009054906101000a900473ffffffffffffffffffffffffffffffffffffffff1673ffffffffffffffffffffffffffffffffffffffff1681526020019060010190808311611d5e575b5050505050905090565b6000600c54905090565b60078181548110611dcc57600080fd5b906000526020600020016000915054906101000a900473ffffffffffffffffffffffffffffffffffffffff1681565b6001602052806000526040600020600091509050806000015490806001018054611e2490613d9b565b80601f0160208091040260200160405190810160405280929190818152602001828054611e5090613d9b565b8015611e9d5780601f10611e7257610100808354040283529160200191611e9d565b820191906000526020600020905b815481529060010190602001808311611e8057829003601f168201915b505050505090806002018054611eb290613d9b565b80601f0160208091040260200160405190810160405280929190818152602001828054611ede90613d9b565b8015611f2b5780601f10611f0057610100808354040283529160200191611f2b565b820191906000526020600020905b815481529060010190602001808311611f0e57829003601f168201915b505050505090806003015490806004018054611f4690613d9b565b80601f0160208091040260200160405190810160405280929190818152602001828054611f7290613d9b565b8015611fbf5780601f10611f9457610100808354040283529160200191611fbf565b820191906000526020600020905b815481529060010190602001808311611fa257829003601f168201915b505050505090806005018054611fd490613d9b565b80601f016020809104026020016040519081016040528092919081815260200182805461200090613d9b565b801561204d5780601f106120225761010080835404028352916020019161204d565b820191906000526020600020905b81548152906001019060200180831161203057829003601f168201915b5050505050908060060154905087565b6000806000905060005b6008548210156124095761211888600080858152602001908152602001600020600101805461209590613d9b565b80601f01602080910402602001604051908101604052809291908181526020018280546120c190613d9b565b801561210e5780601f106120e35761010080835404028352916020019161210e565b820191906000526020600020905b8154815290600101906020018083116120f157829003601f168201915b50505050506130d5565b80156121c757506121c687600080858152602001908152602001600020600201805461214390613d9b565b80601f016020809104026020016040519081016040528092919081815260200182805461216f90613d9b565b80156121bc5780601f10612191576101008083540402835291602001916121bc565b820191906000526020600020905b81548152906001019060200180831161219f57829003601f168201915b50505050506130d5565b5b801561227657506122758660008085815260200190815260200160002060030180546121f290613d9b565b80601f016020809104026020016040519081016040528092919081815260200182805461221e90613d9b565b801561226b5780601f106122405761010080835404028352916020019161226b565b820191906000526020600020905b81548152906001019060200180831161224e57829003601f168201915b50505050506130d5565b5b801561232557506123248560008085815260200190815260200160002060040180546122a190613d9b565b80601f01602080910402602001604051908101604052809291908181526020018280546122cd90613d9b565b801561231a5780601f106122ef5761010080835404028352916020019161231a565b820191906000526020600020905b8154815290600101906020018083116122fd57829003601f168201915b50505050506130d5565b5b80156123d457506123d384600080858152602001908152602001600020600501805461235090613d9b565b80601f016020809104026020016040519081016040528092919081815260200182805461237c90613d9b565b80156123c95780601f1061239e576101008083540402835291602001916123c9565b820191906000526020600020905b8154815290600101906020018083116123ac57829003601f168201915b50505050506130d5565b5b156123f657600080838152602001908152602001600020600001549050612409565b818061240190613dfc565b925050612067565b809250505095945050505050565b6040518060e001604052808881526020018781526020018681526020018581526020018481526020018381526020018281525060026000600a548152602001908152602001600020600082015181600001908051906020019061247b92919061313f565b506020820151816001015560408201518160020190805190602001906124a292919061313f565b506060820151816003015560808201518160040190805190602001906124c992919061313f565b5060a08201518160050190805190602001906124e692919061313f565b5060c08201518160060155905050600a600081548092919061250790613dfc565b919050555050505050505050565b6060600080838152602001908152602001600020600501805461253790613d9b565b80601f016020809104026020016040519081016040528092919081815260200182805461256390613d9b565b80156125b05780601f10612585576101008083540402835291602001916125b0565b820191906000526020600020905b81548152906001019060200180831161259357829003601f168201915b50505050509050919050565b60606003600083815260200190815260200160002060030180546125df90613d9b565b80601f016020809104026020016040519081016040528092919081815260200182805461260b90613d9b565b80156126585780601f1061262d57610100808354040283529160200191612658565b820191906000526020600020905b81548152906001019060200180831161263b57829003601f168201915b50505050509050919050565b606060026000838152602001908152602001600020600001805461268790613d9b565b80601f01602080910402602001604051908101604052809291908181526020018280546126b390613d9b565b80156127005780601f106126d557610100808354040283529160200191612700565b820191906000526020600020905b8154815290600101906020018083116126e357829003601f168201915b50505050509050919050565b600360205280600052604060002060009150905080600001549080600101805461273590613d9b565b80601f016020809104026020016040519081016040528092919081815260200182805461276190613d9b565b80156127ae5780601f10612783576101008083540402835291602001916127ae565b820191906000526020600020905b81548152906001019060200180831161279157829003601f168201915b5050505050908060020180546127c390613d9b565b80601f01602080910402602001604051908101604052809291908181526020018280546127ef90613d9b565b801561283c5780601f106128115761010080835404028352916020019161283c565b820191906000526020600020905b81548152906001019060200180831161281f57829003601f168201915b50505050509080600301805461285190613d9b565b80601f016020809104026020016040519081016040528092919081815260200182805461287d90613d9b565b80156128ca5780601f1061289f576101008083540402835291602001916128ca565b820191906000526020600020905b8154815290600101906020018083116128ad57829003601f168201915b5050505050908060040180546128df90613d9b565b80601f016020809104026020016040519081016040528092919081815260200182805461290b90613d9b565b80156129585780601f1061292d57610100808354040283529160200191612958565b820191906000526020600020905b81548152906001019060200180831161293b57829003601f168201915b5050505050905085565b606060026000838152602001908152602001600020600401805461298590613d9b565b80601f01602080910402602001604051908101604052809291908181526020018280546129b190613d9b565b80156129fe5780601f106129d3576101008083540402835291602001916129fe565b820191906000526020600020905b8154815290600101906020018083116129e157829003601f168201915b50505050509050919050565b60606006805480602002602001604051908101604052809291908181526020018280548015612a8e57602002820191906000526020600020905b8160009054906101000a900473ffffffffffffffffffffffffffffffffffffffff1673ffffffffffffffffffffffffffffffffffffffff1681526020019060010190808311612a44575b5050505050905090565b6000600a54905090565b6060600360008381526020019081526020016000206002018054612ac590613d9b565b80601f0160208091040260200160405190810160405280929190818152602001828054612af190613d9b565b8015612b3e5780601f10612b1357610100808354040283529160200191612b3e565b820191906000526020600020905b815481529060010190602001808311612b2157829003601f168201915b50505050509050919050565b6060600260008381526020019081526020016000206005018054612b6d90613d9b565b80601f0160208091040260200160405190810160405280929190818152602001828054612b9990613d9b565b8015612be65780601f10612bbb57610100808354040283529160200191612be6565b820191906000526020600020905b815481529060010190602001808311612bc957829003601f168201915b50505050509050919050565b6060600060606000606080600060026000898152602001908152602001600020600001600260008a815260200190815260200160002060010154600260008b8152602001908152602001600020600201600260008c815260200190815260200160002060030154600260008d8152602001908152602001600020600401600260008e8152602001908152602001600020600501600260008f815260200190815260200160002060060154868054612ca890613d9b565b80601f0160208091040260200160405190810160405280929190818152602001828054612cd490613d9b565b8015612d215780601f10612cf657610100808354040283529160200191612d21565b820191906000526020600020905b815481529060010190602001808311612d0457829003601f168201915b50505050509650848054612d3490613d9b565b80601f0160208091040260200160405190810160405280929190818152602001828054612d6090613d9b565b8015612dad5780601f10612d8257610100808354040283529160200191612dad565b820191906000526020600020905b815481529060010190602001808311612d9057829003601f168201915b50505050509450828054612dc090613d9b565b80601f0160208091040260200160405190810160405280929190818152602001828054612dec90613d9b565b8015612e395780601f10612e0e57610100808354040283529160200191612e39565b820191906000526020600020905b815481529060010190602001808311612e1c57829003601f168201915b50505050509250818054612e4c90613d9b565b80601f0160208091040260200160405190810160405280929190818152602001828054612e7890613d9b565b8015612ec55780601f10612e9a57610100808354040283529160200191612ec5565b820191906000526020600020905b815481529060010190602001808311612ea857829003601f168201915b505050505091509650965096509650965096509650919395979092949650565b81600080858152602001908152602001600020600601819055508060008085815260200190815260200160002060070181905550505050565b60606000808381526020019081526020016000206003018054612f4090613d9b565b80601f0160208091040260200160405190810160405280929190818152602001828054612f6c90613d9b565b8015612fb95780601f10612f8e57610100808354040283529160200191612fb9565b820191906000526020600020905b815481529060010190602001808311612f9c57829003601f168201915b50505050509050919050565b6000600954905090565b60068181548110612fdf57600080fd5b906000526020600020016000915054906101000a900473ffffffffffffffffffffffffffffffffffffffff1681565b600060026000838152602001908152602001600020600301549050919050565b6060600080838152602001908152602001600020600201805461305090613d9b565b80601f016020809104026020016040519081016040528092919081815260200182805461307c90613d9b565b80156130c95780601f1061309e576101008083540402835291602001916130c9565b820191906000526020600020905b8154815290600101906020018083116130ac57829003601f168201915b50505050509050919050565b6000816040516020016130e89190613e81565b604051602081830303815290604052805190602001208360405160200161310f9190613e81565b6040516020818303038152906040528051906020012014156131345760019050613139565b600090505b92915050565b82805461314b90613d9b565b90600052602060002090601f01602090048101928261316d57600085556131b4565b82601f1061318657805160ff19168380011785556131b4565b828001600101855582156131b4579182015b828111156131b3578251825591602001919060010190613198565b5b5090506131c191906131c5565b5090565b5b808211156131de5760008160009055506001016131c6565b5090565b6000604051905090565b600080fd5b600080fd5b6000819050919050565b613209816131f6565b811461321457600080fd5b50565b60008135905061322681613200565b92915050565b600060208284031215613242576132416131ec565b5b600061325084828501613217565b91505092915050565b600081519050919050565b600082825260208201905092915050565b60005b83811015613293578082015181840152602081019050613278565b838111156132a2576000848401525b50505050565b6000601f19601f8301169050919050565b60006132c482613259565b6132ce8185613264565b93506132de818560208601613275565b6132e7816132a8565b840191505092915050565b6000602082019050818103600083015261330c81846132b9565b905092915050565b61331d816131f6565b82525050565b60006020820190506133386000830184613314565b92915050565b600073ffffffffffffffffffffffffffffffffffffffff82169050919050565b60006133698261333e565b9050919050565b6133798161335e565b82525050565b60006020820190506133946000830184613370565b92915050565b6000610100820190506133b0600083018b613314565b81810360208301526133c2818a6132b9565b905081810360408301526133d681896132b9565b905081810360608301526133ea81886132b9565b905081810360808301526133fe81876132b9565b905081810360a083015261341281866132b9565b905061342160c0830185613314565b61342e60e0830184613314565b9998505050505050505050565b600060e082019050613450600083018a613314565b818103602083015261346281896132b9565b9050818103604083015261347681886132b9565b90506134856060830187613314565b818103608083015261349781866132b9565b905081810360a08301526134ab81856132b9565b90506134ba60c0830184613314565b98975050505050505050565b600080fd5b600080fd5b7f4e487b7100000000000000000000000000000000000000000000000000000000600052604160045260246000fd5b613508826132a8565b810181811067ffffffffffffffff82111715613527576135266134d0565b5b80604052505050565b600061353a6131e2565b905061354682826134ff565b919050565b600067ffffffffffffffff821115613566576135656134d0565b5b61356f826132a8565b9050602081019050919050565b82818337600083830152505050565b600061359e6135998461354b565b613530565b9050828152602081018484840111156135ba576135b96134cb565b5b6135c584828561357c565b509392505050565b600082601f8301126135e2576135e16134c6565b5b81356135f284826020860161358b565b91505092915050565b600080600080600060a08688031215613617576136166131ec565b5b600061362588828901613217565b955050602086013567ffffffffffffffff811115613646576136456131f1565b5b613652888289016135cd565b945050604086013567ffffffffffffffff811115613673576136726131f1565b5b61367f888289016135cd565b935050606086013567ffffffffffffffff8111156136a05761369f6131f1565b5b6136ac888289016135cd565b925050608086013567ffffffffffffffff8111156136cd576136cc6131f1565b5b6136d9888289016135cd565b9150509295509295909350565b600080600080600080600060e0888a031215613705576137046131ec565b5b60006137138a828b01613217565b975050602088013567ffffffffffffffff811115613734576137336131f1565b5b6137408a828b016135cd565b965050604088013567ffffffffffffffff811115613761576137606131f1565b5b61376d8a828b016135cd565b955050606061377e8a828b01613217565b945050608088013567ffffffffffffffff81111561379f5761379e6131f1565b5b6137ab8a828b016135cd565b93505060a088013567ffffffffffffffff8111156137cc576137cb6131f1565b5b6137d88a828b016135cd565b92505060c06137e98a828b01613217565b91505092959891949750929550565b600060a08201905061380d6000830188613314565b818103602083015261381f81876132b9565b9050818103604083015261383381866132b9565b9050818103606083015261384781856132b9565b9050818103608083015261385b81846132b9565b90509695505050505050565b600081519050919050565b600082825260208201905092915050565b6000819050602082019050919050565b61389c8161335e565b82525050565b60006138ae8383613893565b60208301905092915050565b6000602082019050919050565b60006138d282613867565b6138dc8185613872565b93506138e783613883565b8060005b838110156139185781516138ff88826138a2565b975061390a836138ba565b9250506001810190506138eb565b5085935050505092915050565b6000602082019050818103600083015261393f81846138c7565b905092915050565b600080600080600080600060e0888a031215613966576139656131ec565b5b600088013567ffffffffffffffff811115613984576139836131f1565b5b6139908a828b016135cd565b975050602088013567ffffffffffffffff8111156139b1576139b06131f1565b5b6139bd8a828b016135cd565b965050604088013567ffffffffffffffff8111156139de576139dd6131f1565b5b6139ea8a828b016135cd565b955050606088013567ffffffffffffffff811115613a0b57613a0a6131f1565b5b613a178a828b016135cd565b945050608088013567ffffffffffffffff811115613a3857613a376131f1565b5b613a448a828b016135cd565b93505060a0613a558a828b01613217565b92505060c0613a668a828b01613217565b91505092959891949750929550565b600060e0820190508181036000830152613a8f818a6132b9565b9050613a9e6020830189613314565b8181036040830152613ab081886132b9565b9050613abf6060830187613314565b8181036080830152613ad181866132b9565b905081810360a0830152613ae581856132b9565b9050613af460c0830184613314565b98975050505050505050565b600080600080600060a08688031215613b1c57613b1b6131ec565b5b600086013567ffffffffffffffff811115613b3a57613b396131f1565b5b613b46888289016135cd565b955050602086013567ffffffffffffffff811115613b6757613b666131f1565b5b613b73888289016135cd565b945050604086013567ffffffffffffffff811115613b9457613b936131f1565b5b613ba0888289016135cd565b935050606086013567ffffffffffffffff811115613bc157613bc06131f1565b5b613bcd888289016135cd565b925050608086013567ffffffffffffffff811115613bee57613bed6131f1565b5b613bfa888289016135cd565b9150509295509295909350565b600080600080600080600060e0888a031215613c2657613c256131ec565b5b600088013567ffffffffffffffff811115613c4457613c436131f1565b5b613c508a828b016135cd565b9750506020613c618a828b01613217565b965050604088013567ffffffffffffffff811115613c8257613c816131f1565b5b613c8e8a828b016135cd565b9550506060613c9f8a828b01613217565b945050608088013567ffffffffffffffff811115613cc057613cbf6131f1565b5b613ccc8a828b016135cd565b93505060a088013567ffffffffffffffff811115613ced57613cec6131f1565b5b613cf98a828b016135cd565b92505060c0613d0a8a828b01613217565b91505092959891949750929550565b600080600060608486031215613d3257613d316131ec565b5b6000613d4086828701613217565b9350506020613d5186828701613217565b9250506040613d6286828701613217565b9150509250925092565b7f4e487b7100000000000000000000000000000000000000000000000000000000600052602260045260246000fd5b60006002820490506001821680613db357607f821691505b60208210811415613dc757613dc6613d6c565b5b50919050565b7f4e487b7100000000000000000000000000000000000000000000000000000000600052601160045260246000fd5b6000613e07826131f6565b91507fffffffffffffffffffffffffffffffffffffffffffffffffffffffffffffffff821415613e3a57613e39613dcd565b5b600182019050919050565b600081905092915050565b6000613e5b82613259565b613e658185613e45565b9350613e75818560208601613275565b80840191505092915050565b6000613e8d8284613e50565b91508190509291505056fea2646970667358221220edc87e23e2df425cb49495c59a97c479ebda16deb6b58a48d0a1441a65ad037e64736f6c634300080a0033",
  "immutableReferences": {},
  "source": "// SPDX-License-Identifier: MIT\r\npragma solidity >=0.4.22 <0.9.0;\r\n\r\ncontract Land {\r\n    // structs\r\n    struct Deed {\r\n        // deed instance variables\r\n        uint deedId;\r\n        string no;\r\n        string streetName;\r\n        string city;\r\n        string district;\r\n        string province;\r\n        uint assignedLawyerId; // to link the relevant lawyer to the deed\r\n        uint assignedSellerId; // to link the relevant seller to the deed\r\n    }\r\n\r\n    struct Buyer{\r\n        // Buyer instance variables\r\n       uint id;\r\n       string nic;\r\n       string name;\r\n       uint age;\r\n       string city;\r\n       string email; \r\n       uint telephoneNumber;\r\n    }\r\n\r\n    struct Lawyer{\r\n        // Lawyer instance variables\r\n        uint lawyerId;\r\n        string lawyerName;\r\n        string lawyernic;\r\n        string lawyerRegNo;\r\n        string lawyerEmail;\r\n    }\r\n\r\n    struct Seller {\r\n        // Seller instance variables\r\n        string name;\r\n\t\tuint id;\r\n\t\tstring nic;\r\n        uint age;\r\n        string city;\r\n\t\tstring email;\r\n        uint telephoneNumber;\r\n    }\r\n\r\n    struct Admin {\r\n        // Admin instance variables\r\n        uint id;\r\n    }\r\n\r\n    // mappings\r\n    mapping(uint => Deed) public deeds;\r\n    mapping(uint => Buyer) public Buyersmapping;\r\n    mapping(uint => Seller) public sellersMapping;\r\n    mapping(uint => Lawyer) public Lawyersmapping;\r\n    mapping(uint => Admin) public adminMapping;\r\n    \r\n    //arrays\r\n    address[] public Buyerlist;\r\n    address[] public sellerList;\r\n    address[] public lawyerList;\r\n\r\n    // Count tracking variables\r\n    uint private deedCount = 0;\r\n    uint private buyersCount = 0;\r\n    uint private sellersCount = 0;\r\n    uint private lawyerCount=0;\r\n    uint private adminCount = 0;\r\n\r\n    // getter for deed count\r\n    function getDeedCount() public view returns (uint) {\r\n        return deedCount;\r\n    }\r\n\r\n    // getter for buyer count\r\n    function getBuyersCount() public view returns(uint){\r\n        return buyersCount;\r\n    }\r\n\r\n    // getter for lawyer count\r\n    function getLawyerCount() public view returns(uint){\r\n        return lawyerCount;\r\n    }\r\n\r\n    // getter for seller count\r\n    function getSellersCount() public view returns(uint){\r\n        return sellersCount;\r\n    }\r\n\r\n    // getter for admin count\r\n    function getAdminCount() public view returns(uint){\r\n        return adminCount;\r\n    }\r\n\r\n    //getters for Deed struct\r\n    function getDeedId(uint index) public view returns (uint) {\r\n        return deeds[index].deedId;\r\n    }\r\n\r\n    function getDeedNo(uint index) public view returns (string memory) {\r\n        return deeds[index].no;\r\n    }\r\n\r\n    function getDeedStreetName(uint index) public view returns (string memory) {\r\n        return deeds[index].streetName;\r\n    }\r\n\r\n    function getDeedCity(uint index) public view returns (string memory) {\r\n        return deeds[index].city;\r\n    }\r\n\r\n    function getDeedDistrict(uint index) public view returns (string memory) {\r\n        return deeds[index].district;\r\n    }\r\n\r\n    function getDeedProvince(uint index) public view returns (string memory) {\r\n        return deeds[index].province;\r\n    }\r\n\r\n    function getLawyerIdOfDeed(uint index) public view returns (uint) {\r\n        return deeds[index].assignedLawyerId;\r\n    }\r\n\r\n    function getSellerIdOfDeed(uint index) public view returns (uint) {\r\n        return deeds[index].assignedSellerId;\r\n    }\r\n\r\n    // function to compare strings\r\n    function compareStrings(string memory s1, string memory s2) private pure returns (bool) {\r\n        if (keccak256(abi.encodePacked(s1)) == keccak256(abi.encodePacked(s2)))\r\n        {\r\n            return true;\r\n        }\r\n        else \r\n        {\r\n            return false;\r\n        }\r\n    }\r\n\r\n    // function to get the deed by the land address for searching purposes\r\n    function findDeedByAddress(string memory _no, string memory _streetName, string memory _city, string memory _district, string memory _province) public view returns (uint) {\r\n        uint i = 0;\r\n        uint returningDeedId;\r\n        while (i < deedCount)\r\n        {\r\n            if (compareStrings(_no, deeds[i].no) && compareStrings(_streetName, deeds[i].streetName) && compareStrings(_city, deeds[i].city) && compareStrings(_district, deeds[i].district) && compareStrings(_province, deeds[i].province))\r\n            {\r\n                returningDeedId = deeds[i].deedId;\r\n                break;\r\n            }\r\n            i++;\r\n        }\r\n        return returningDeedId;\r\n    }\r\n\r\n    // function to change land deed buyer and seller\r\n    function changeDeedBuyerAndSeller(uint _deedId, uint _assignedLawyerId, uint _assignedSellerId) public {\r\n        \r\n        deeds[_deedId].assignedLawyerId = _assignedLawyerId;\r\n        deeds[_deedId].assignedSellerId = _assignedSellerId;\r\n    }\r\n\r\n    //getter for the Buyerlist array\r\n    function getBuyer() public view returns( address [] memory){\r\n        return(Buyerlist);\r\n    }\r\n\r\n    //getter for the seller list array\r\n    function getSeller() public view returns( address [] memory){\r\n        return(sellerList);\r\n    }\r\n\r\n    //getter for the lawyerList array\r\n    function getLawyer() public view returns( address [] memory){\r\n        return(lawyerList);\r\n    }\r\n\r\n    // function to add a new deed to the deeds mapping\r\n    function addNewDeed(string memory _no, string memory _streetName, string memory _city, string memory _district, string memory _province, uint _assignedLawyerId, uint _assignedSellerId) public {\r\n        deeds[deedCount] = Deed(deedCount, _no, _streetName, _city, _district, _province, _assignedLawyerId, _assignedSellerId);\r\n        deedCount++;\r\n    }\r\n\r\n    //function to register new Buyer\r\n    function registerBuyer(uint _id, string memory _nic, string memory _name, uint _age, string memory _city, string memory _email, uint _telephoneNumber) public {\r\n        Buyersmapping[buyersCount] = Buyer(_id, _nic,  _name, _age, _city, _email, _telephoneNumber);\r\n        buyersCount++;\r\n\r\n    }\r\n\r\n    //function to register a seller\r\n    function registerSeller(string memory _name, uint _id, string memory _nic, uint _age, string memory _city, string memory _email, uint _telephoneNumber) public {\r\n        sellersMapping[sellersCount] = Seller(_name, _id, _nic, _age, _city, _email, _telephoneNumber);\r\n        sellersCount++;\r\n\r\n    }\r\n\r\n    //function to register a new Lawyer\r\n    function registerLawyer(uint _lawyerId, string memory _lawyerName, string memory _lawyernic, string memory _lawyerRegNo, string memory _lawyerEmail) public {\r\n        Lawyersmapping[lawyerCount] = Lawyer(_lawyerId, _lawyerName, _lawyernic, _lawyerRegNo, _lawyerEmail);\r\n        lawyerCount++;\r\n    }\r\n\r\n    //function to display buyer details\r\n    function displayBuyer(uint index) public view returns (uint _id, string memory _nic, string memory _name, uint _age, string memory _city, string memory _email, uint _telephoneNumber){\r\n        return(Buyersmapping[index].id, Buyersmapping[index].nic,Buyersmapping[index].name,Buyersmapping[index].age,Buyersmapping[index].city,Buyersmapping[index].email,Buyersmapping[index].telephoneNumber);\r\n\r\n    } \r\n\r\n    //function to display seller details\r\n    function displaySeller(uint index) public view returns (string memory _name, uint _id, string memory _nic, uint _age, string memory _city, string memory _email, uint _telephoneNumber){\r\n        return(sellersMapping[index].name, sellersMapping[index].id, sellersMapping[index].nic, sellersMapping[index].age, sellersMapping[index].city, sellersMapping[index].email, sellersMapping[index].telephoneNumber);\r\n    }\r\n\r\n    //function to add admin\r\n    function addAdmin() private {\r\n        adminCount++;\r\n        adminMapping[adminCount] = Admin(adminCount);\r\n    }\r\n    \r\n    //function to display lawyer details\r\n    function displayLawyer(uint index) public view returns (uint _lawyerId, string memory _lawyerName, string memory _lawyernic, string memory _lawyerRegNo, string memory _lawyerEmail){\r\n        return(Lawyersmapping[index].lawyerId, Lawyersmapping[index].lawyerName, Lawyersmapping[index].lawyernic, Lawyersmapping[index].lawyerRegNo, Lawyersmapping[index].lawyerEmail);\r\n    }\r\n\r\n    // function to get the lawyer id\r\n    function getLawyerId(uint index) public view returns (uint) {\r\n        return Lawyersmapping[index].lawyerId;\r\n    }\r\n\r\n    // function to get the lawyer name\r\n    function getLawyerName(uint index) public view returns (string memory) {\r\n        return Lawyersmapping[index].lawyerName;\r\n    }\r\n\r\n    // function to get the lawyer nic\r\n    function getLawyerNic(uint index) public view returns (string memory) {\r\n        return Lawyersmapping[index].lawyernic;\r\n    }\r\n\r\n    // function to get the lawyer reg no\r\n    function getLawyerRegNo(uint index) public view returns (string memory) {\r\n        return Lawyersmapping[index].lawyerRegNo;\r\n    }\r\n\r\n    // function to get the lawyer email\r\n    function getLawyerEmail(uint index) public view returns (string memory) {\r\n        return Lawyersmapping[index].lawyerEmail;\r\n    }\r\n\r\n    // function to get the seller id\r\n    function getSellerId(uint index) public view returns (uint) {\r\n        return sellersMapping[index].id;\r\n    }\r\n\r\n    // function to get the seller name\r\n    function getSellerName(uint index) public view returns (string memory) {\r\n        return sellersMapping[index].name;\r\n    }\r\n\r\n    // function to get the seller nic\r\n    function getSellerNic(uint index) public view returns (string memory) {\r\n        return sellersMapping[index].nic;\r\n    }\r\n\r\n    // function to get the seller age\r\n    function getSellerAge(uint index) public view returns (uint) {\r\n        return sellersMapping[index].age;\r\n    }\r\n\r\n    // function to get the seller city\r\n    function getSellerCity(uint index) public view returns (string memory) {\r\n        return sellersMapping[index].city;\r\n    }\r\n\r\n    // function to get the seller email\r\n    function getSellerEmail(uint index) public view returns (string memory) {\r\n        return sellersMapping[index].email;\r\n    }\r\n\r\n    // function to get the seller telephonenumber\r\n    function getSellerTelephoneNo(uint index) public view returns (uint) {\r\n        return sellersMapping[index].telephoneNumber;\r\n    }\r\n}",
  "sourcePath": "C:\\GitHubRepos\\GitHub\\DBLOCK\\backEnd\\contracts\\Land.sol",
  "compiler": {
    "name": "solc",
    "version": "0.8.10+commit.fc410830.Emscripten.clang"
  },
  "schemaVersion": "3.4.3",
  "updatedAt": "2022-03-03T11:46:33.577Z",
  "devdoc": {
    "kind": "dev",
    "methods": {},
    "version": 1
  },
  "userdoc": {
    "kind": "user",
    "methods": {},
    "version": 1
  }
}