{
  "contractName": "Land",
  "abi": [
    {
      "inputs": [],
      "stateMutability": "nonpayable",
      "type": "constructor"
    },
    {
      "inputs": [
        {
          "internalType": "uint256",
          "name": "",
          "type": "uint256"
        }
      ],
      "name": "Lawyersmapping",
      "outputs": [
        {
          "internalType": "uint256",
          "name": "lawyerId",
          "type": "uint256"
        },
        {
          "internalType": "string",
          "name": "lawyerName",
          "type": "string"
        },
        {
          "internalType": "string",
          "name": "lawyernic",
          "type": "string"
        },
        {
          "internalType": "string",
          "name": "lawyerRegNo",
          "type": "string"
        },
        {
          "internalType": "string",
          "name": "lawyerEmail",
          "type": "string"
        },
        {
          "internalType": "uint256",
          "name": "lawyerTelephoneNumber",
          "type": "uint256"
        }
      ],
      "stateMutability": "view",
      "type": "function",
      "constant": true
    },
    {
      "inputs": [
        {
          "internalType": "uint256",
          "name": "",
          "type": "uint256"
        }
      ],
      "name": "adminMapping",
      "outputs": [
        {
          "internalType": "uint256",
          "name": "id",
          "type": "uint256"
        },
        {
          "internalType": "string",
          "name": "adminPassword",
          "type": "string"
        }
      ],
      "stateMutability": "view",
      "type": "function",
      "constant": true
    },
    {
      "inputs": [
        {
          "internalType": "uint256",
          "name": "",
          "type": "uint256"
        }
      ],
      "name": "deeds",
      "outputs": [
        {
          "internalType": "uint256",
          "name": "deedId",
          "type": "uint256"
        },
        {
          "internalType": "string",
          "name": "ipfsHash",
          "type": "string"
        },
        {
          "internalType": "string",
          "name": "no",
          "type": "string"
        },
        {
          "internalType": "string",
          "name": "streetName",
          "type": "string"
        },
        {
          "internalType": "string",
          "name": "city",
          "type": "string"
        },
        {
          "internalType": "string",
          "name": "district",
          "type": "string"
        },
        {
          "internalType": "string",
          "name": "province",
          "type": "string"
        },
        {
          "internalType": "uint256",
          "name": "assignedLawyerId",
          "type": "uint256"
        },
        {
          "internalType": "uint256",
          "name": "assignedSellerId",
          "type": "uint256"
        }
      ],
      "stateMutability": "view",
      "type": "function",
      "constant": true
    },
    {
      "inputs": [
        {
          "internalType": "uint256",
          "name": "",
          "type": "uint256"
        }
      ],
      "name": "sellersMapping",
      "outputs": [
        {
          "internalType": "string",
          "name": "name",
          "type": "string"
        },
        {
          "internalType": "uint256",
          "name": "id",
          "type": "uint256"
        },
        {
          "internalType": "string",
          "name": "nic",
          "type": "string"
        },
        {
          "internalType": "uint256",
          "name": "age",
          "type": "uint256"
        },
        {
          "internalType": "string",
          "name": "city",
          "type": "string"
        },
        {
          "internalType": "string",
          "name": "email",
          "type": "string"
        },
        {
          "internalType": "uint256",
          "name": "telephoneNumber",
          "type": "uint256"
        }
      ],
      "stateMutability": "view",
      "type": "function",
      "constant": true
    },
    {
      "inputs": [
        {
          "internalType": "uint256",
          "name": "index",
          "type": "uint256"
        }
      ],
      "name": "getHashFromDeed",
      "outputs": [
        {
          "internalType": "string",
          "name": "",
          "type": "string"
        }
      ],
      "stateMutability": "view",
      "type": "function",
      "constant": true
    },
    {
      "inputs": [
        {
          "internalType": "uint256",
          "name": "deedId",
          "type": "uint256"
        },
        {
          "internalType": "string",
          "name": "x",
          "type": "string"
        }
      ],
      "name": "sendHash",
      "outputs": [],
      "stateMutability": "nonpayable",
      "type": "function"
    },
    {
      "inputs": [],
      "name": "getDeedCount",
      "outputs": [
        {
          "internalType": "uint256",
          "name": "",
          "type": "uint256"
        }
      ],
      "stateMutability": "view",
      "type": "function",
      "constant": true
    },
    {
      "inputs": [],
      "name": "getLawyerCount",
      "outputs": [
        {
          "internalType": "uint256",
          "name": "",
          "type": "uint256"
        }
      ],
      "stateMutability": "view",
      "type": "function",
      "constant": true
    },
    {
      "inputs": [],
      "name": "getSellersCount",
      "outputs": [
        {
          "internalType": "uint256",
          "name": "",
          "type": "uint256"
        }
      ],
      "stateMutability": "view",
      "type": "function",
      "constant": true
    },
    {
      "inputs": [],
      "name": "getAdminCount",
      "outputs": [
        {
          "internalType": "uint256",
          "name": "",
          "type": "uint256"
        }
      ],
      "stateMutability": "view",
      "type": "function",
      "constant": true
    },
    {
      "inputs": [
        {
          "internalType": "uint256",
          "name": "index",
          "type": "uint256"
        }
      ],
      "name": "getDeedId",
      "outputs": [
        {
          "internalType": "uint256",
          "name": "",
          "type": "uint256"
        }
      ],
      "stateMutability": "view",
      "type": "function",
      "constant": true
    },
    {
      "inputs": [
        {
          "internalType": "uint256",
          "name": "index",
          "type": "uint256"
        }
      ],
      "name": "getDeedNo",
      "outputs": [
        {
          "internalType": "string",
          "name": "",
          "type": "string"
        }
      ],
      "stateMutability": "view",
      "type": "function",
      "constant": true
    },
    {
      "inputs": [
        {
          "internalType": "uint256",
          "name": "index",
          "type": "uint256"
        }
      ],
      "name": "getDeedStreetName",
      "outputs": [
        {
          "internalType": "string",
          "name": "",
          "type": "string"
        }
      ],
      "stateMutability": "view",
      "type": "function",
      "constant": true
    },
    {
      "inputs": [
        {
          "internalType": "uint256",
          "name": "index",
          "type": "uint256"
        }
      ],
      "name": "getDeedCity",
      "outputs": [
        {
          "internalType": "string",
          "name": "",
          "type": "string"
        }
      ],
      "stateMutability": "view",
      "type": "function",
      "constant": true
    },
    {
      "inputs": [
        {
          "internalType": "uint256",
          "name": "index",
          "type": "uint256"
        }
      ],
      "name": "getDeedDistrict",
      "outputs": [
        {
          "internalType": "string",
          "name": "",
          "type": "string"
        }
      ],
      "stateMutability": "view",
      "type": "function",
      "constant": true
    },
    {
      "inputs": [
        {
          "internalType": "uint256",
          "name": "index",
          "type": "uint256"
        }
      ],
      "name": "getDeedProvince",
      "outputs": [
        {
          "internalType": "string",
          "name": "",
          "type": "string"
        }
      ],
      "stateMutability": "view",
      "type": "function",
      "constant": true
    },
    {
      "inputs": [
        {
          "internalType": "uint256",
          "name": "index",
          "type": "uint256"
        }
      ],
      "name": "getLawyerIdOfDeed",
      "outputs": [
        {
          "internalType": "uint256",
          "name": "",
          "type": "uint256"
        }
      ],
      "stateMutability": "view",
      "type": "function",
      "constant": true
    },
    {
      "inputs": [
        {
          "internalType": "uint256",
          "name": "index",
          "type": "uint256"
        }
      ],
      "name": "getSellerIdOfDeed",
      "outputs": [
        {
          "internalType": "uint256",
          "name": "",
          "type": "uint256"
        }
      ],
      "stateMutability": "view",
      "type": "function",
      "constant": true
    },
    {
      "inputs": [
        {
          "internalType": "string",
          "name": "_no",
          "type": "string"
        },
        {
          "internalType": "string",
          "name": "_streetName",
          "type": "string"
        },
        {
          "internalType": "string",
          "name": "_city",
          "type": "string"
        },
        {
          "internalType": "string",
          "name": "_district",
          "type": "string"
        },
        {
          "internalType": "string",
          "name": "_province",
          "type": "string"
        }
      ],
      "name": "findDeedByAddress",
      "outputs": [
        {
          "internalType": "int256",
          "name": "",
          "type": "int256"
        }
      ],
      "stateMutability": "view",
      "type": "function",
      "constant": true
    },
    {
      "inputs": [
        {
          "internalType": "string",
          "name": "_email",
          "type": "string"
        }
      ],
      "name": "findLawyerByEmail",
      "outputs": [
        {
          "internalType": "uint256",
          "name": "",
          "type": "uint256"
        }
      ],
      "stateMutability": "view",
      "type": "function",
      "constant": true
    },
    {
      "inputs": [
        {
          "internalType": "string",
          "name": "_email",
          "type": "string"
        }
      ],
      "name": "findSellerByEmail",
      "outputs": [
        {
          "internalType": "uint256",
          "name": "",
          "type": "uint256"
        }
      ],
      "stateMutability": "view",
      "type": "function",
      "constant": true
    },
    {
      "inputs": [
        {
          "internalType": "uint256",
          "name": "_deedId",
          "type": "uint256"
        },
        {
          "internalType": "uint256",
          "name": "_assignedLawyerId",
          "type": "uint256"
        },
        {
          "internalType": "uint256",
          "name": "_assignedSellerId",
          "type": "uint256"
        }
      ],
      "name": "changeDeedLawyerAndSeller",
      "outputs": [],
      "stateMutability": "nonpayable",
      "type": "function"
    },
    {
      "inputs": [
        {
          "internalType": "string",
          "name": "_no",
          "type": "string"
        },
        {
          "internalType": "string",
          "name": "_streetName",
          "type": "string"
        },
        {
          "internalType": "string",
          "name": "_city",
          "type": "string"
        },
        {
          "internalType": "string",
          "name": "_district",
          "type": "string"
        },
        {
          "internalType": "string",
          "name": "_province",
          "type": "string"
        },
        {
          "internalType": "uint256",
          "name": "_assignedLawyerId",
          "type": "uint256"
        },
        {
          "internalType": "uint256",
          "name": "_assignedSellerId",
          "type": "uint256"
        }
      ],
      "name": "addNewDeed",
      "outputs": [],
      "stateMutability": "nonpayable",
      "type": "function"
    },
    {
      "inputs": [
        {
          "internalType": "string",
          "name": "_name",
          "type": "string"
        },
        {
          "internalType": "string",
          "name": "_nic",
          "type": "string"
        },
        {
          "internalType": "uint256",
          "name": "_age",
          "type": "uint256"
        },
        {
          "internalType": "string",
          "name": "_city",
          "type": "string"
        },
        {
          "internalType": "string",
          "name": "_email",
          "type": "string"
        },
        {
          "internalType": "uint256",
          "name": "_telephoneNumber",
          "type": "uint256"
        }
      ],
      "name": "registerSeller",
      "outputs": [],
      "stateMutability": "nonpayable",
      "type": "function"
    },
    {
      "inputs": [
        {
          "internalType": "string",
          "name": "_lawyerName",
          "type": "string"
        },
        {
          "internalType": "string",
          "name": "_lawyernic",
          "type": "string"
        },
        {
          "internalType": "string",
          "name": "_lawyerRegNo",
          "type": "string"
        },
        {
          "internalType": "string",
          "name": "_lawyerEmail",
          "type": "string"
        },
        {
          "internalType": "uint256",
          "name": "_lawyerTelephoneNumber",
          "type": "uint256"
        }
      ],
      "name": "registerLawyer",
      "outputs": [],
      "stateMutability": "nonpayable",
      "type": "function"
    },
    {
      "inputs": [
        {
          "internalType": "uint256",
          "name": "index",
          "type": "uint256"
        }
      ],
      "name": "getLawyerId",
      "outputs": [
        {
          "internalType": "uint256",
          "name": "",
          "type": "uint256"
        }
      ],
      "stateMutability": "view",
      "type": "function",
      "constant": true
    },
    {
      "inputs": [
        {
          "internalType": "uint256",
          "name": "index",
          "type": "uint256"
        }
      ],
      "name": "getLawyerName",
      "outputs": [
        {
          "internalType": "string",
          "name": "",
          "type": "string"
        }
      ],
      "stateMutability": "view",
      "type": "function",
      "constant": true
    },
    {
      "inputs": [
        {
          "internalType": "uint256",
          "name": "index",
          "type": "uint256"
        }
      ],
      "name": "getLawyerNic",
      "outputs": [
        {
          "internalType": "string",
          "name": "",
          "type": "string"
        }
      ],
      "stateMutability": "view",
      "type": "function",
      "constant": true
    },
    {
      "inputs": [
        {
          "internalType": "uint256",
          "name": "index",
          "type": "uint256"
        }
      ],
      "name": "getLawyerRegNo",
      "outputs": [
        {
          "internalType": "string",
          "name": "",
          "type": "string"
        }
      ],
      "stateMutability": "view",
      "type": "function",
      "constant": true
    },
    {
      "inputs": [
        {
          "internalType": "uint256",
          "name": "index",
          "type": "uint256"
        }
      ],
      "name": "getLawyerEmail",
      "outputs": [
        {
          "internalType": "string",
          "name": "",
          "type": "string"
        }
      ],
      "stateMutability": "view",
      "type": "function",
      "constant": true
    },
    {
      "inputs": [
        {
          "internalType": "uint256",
          "name": "index",
          "type": "uint256"
        }
      ],
      "name": "getLawyerTelephoneNumber",
      "outputs": [
        {
          "internalType": "uint256",
          "name": "",
          "type": "uint256"
        }
      ],
      "stateMutability": "view",
      "type": "function",
      "constant": true
    },
    {
      "inputs": [
        {
          "internalType": "uint256",
          "name": "index",
          "type": "uint256"
        }
      ],
      "name": "getSellerId",
      "outputs": [
        {
          "internalType": "uint256",
          "name": "",
          "type": "uint256"
        }
      ],
      "stateMutability": "view",
      "type": "function",
      "constant": true
    },
    {
      "inputs": [
        {
          "internalType": "uint256",
          "name": "index",
          "type": "uint256"
        }
      ],
      "name": "getSellerName",
      "outputs": [
        {
          "internalType": "string",
          "name": "",
          "type": "string"
        }
      ],
      "stateMutability": "view",
      "type": "function",
      "constant": true
    },
    {
      "inputs": [
        {
          "internalType": "uint256",
          "name": "index",
          "type": "uint256"
        }
      ],
      "name": "getSellerNic",
      "outputs": [
        {
          "internalType": "string",
          "name": "",
          "type": "string"
        }
      ],
      "stateMutability": "view",
      "type": "function",
      "constant": true
    },
    {
      "inputs": [
        {
          "internalType": "uint256",
          "name": "index",
          "type": "uint256"
        }
      ],
      "name": "getSellerAge",
      "outputs": [
        {
          "internalType": "uint256",
          "name": "",
          "type": "uint256"
        }
      ],
      "stateMutability": "view",
      "type": "function",
      "constant": true
    },
    {
      "inputs": [
        {
          "internalType": "uint256",
          "name": "index",
          "type": "uint256"
        }
      ],
      "name": "getSellerCity",
      "outputs": [
        {
          "internalType": "string",
          "name": "",
          "type": "string"
        }
      ],
      "stateMutability": "view",
      "type": "function",
      "constant": true
    },
    {
      "inputs": [
        {
          "internalType": "uint256",
          "name": "index",
          "type": "uint256"
        }
      ],
      "name": "getSellerEmail",
      "outputs": [
        {
          "internalType": "string",
          "name": "",
          "type": "string"
        }
      ],
      "stateMutability": "view",
      "type": "function",
      "constant": true
    },
    {
      "inputs": [
        {
          "internalType": "uint256",
          "name": "index",
          "type": "uint256"
        }
      ],
      "name": "getSellerTelephoneNo",
      "outputs": [
        {
          "internalType": "uint256",
          "name": "",
          "type": "uint256"
        }
      ],
      "stateMutability": "view",
      "type": "function",
      "constant": true
    },
    {
      "inputs": [],
      "name": "getAdminId",
      "outputs": [
        {
          "internalType": "uint256",
          "name": "",
          "type": "uint256"
        }
      ],
      "stateMutability": "view",
      "type": "function",
      "constant": true
    },
    {
      "inputs": [],
      "name": "getAdminPassword",
      "outputs": [
        {
          "internalType": "string",
          "name": "",
          "type": "string"
        }
      ],
      "stateMutability": "view",
      "type": "function",
      "constant": true
    }
  ],
  "bytecode": "0x608060405260006004556000600555600060065560006007553480156200002557600080fd5b50604051806040016040528060075481526020016040518060400160405280600381526020017f3132330000000000000000000000000000000000000000000000000000000000815250815250600360006007548152602001908152602001600020600082015181600001556020820151816001019080519060200190620000af929190620000d3565b5090505060076000815480929190620000c890620001bc565b91905055506200026f565b828054620000e19062000239565b90600052602060002090601f01602090048101928262000105576000855562000151565b82601f106200012057805160ff191683800117855562000151565b8280016001018555821562000151579182015b828111156200015057825182559160200191906001019062000133565b5b50905062000160919062000164565b5090565b5b808211156200017f57600081600090555060010162000165565b5090565b7f4e487b7100000000000000000000000000000000000000000000000000000000600052601160045260246000fd5b6000819050919050565b6000620001c982620001b2565b91507fffffffffffffffffffffffffffffffffffffffffffffffffffffffffffffffff821415620001ff57620001fe62000183565b5b600182019050919050565b7f4e487b7100000000000000000000000000000000000000000000000000000000600052602260045260246000fd5b600060028204905060018216806200025257607f821691505b602082108114156200026957620002686200020a565b5b50919050565b6132e9806200027f6000396000f3fe608060405234801561001057600080fd5b50600436106102485760003560e01c80637e45aa251161013b578063bd794975116100b8578063df0a1c2a1161007c578063df0a1c2a14610821578063e084ada114610851578063f0b93af914610881578063f8a38605146108b1578063ffb434fb146108e157610248565b8063bd79497514610766578063cff0c7c014610782578063d26abb1a146107b7578063d96b0a55146107d3578063dd9d122d1461080357610248565b8063a9985938116100ff578063a998593814610688578063aca55773146106a6578063b4321832146106d6578063b998b87c14610706578063bc3de01f1461073657610248565b80637e45aa25146105bc5780637ea1449f146105ec5780638b7bf3eb1461060a5780639614681b146106285780639cd681f51461065857610248565b806335a82e72116101c95780636c218b171161018d5780636c218b17146104da57806370ffbdd21461050a578063721fa4181461053a57806374cfe475146105565780637c6eb1031461058657610248565b806335a82e7214610410578063446138301461044057806359c73c26146104705780635dd567981461048c578063655dc4c2146104bc57610248565b806318edf5641161021057806318edf5641461032957806321eb5a7c1461036157806330c9fb481461039257806332a67853146103c2578063334bb745146103f257610248565b806305624d351461024d5780630cc543b61461027d5780630df74d36146102ad5780630df7ec24146102c9578063188a9379146102f9575b600080fd5b61026760048036038101906102629190612808565b610911565b60405161027491906128ce565b60405180910390f35b61029760048036038101906102929190612808565b6109b8565b6040516102a491906128ff565b60405180910390f35b6102c760048036038101906102c29190612a4f565b6109d8565b005b6102e360048036038101906102de9190612808565b610ad7565b6040516102f091906128ff565b60405180910390f35b610313600480360381019061030e9190612808565b610af6565b60405161032091906128ce565b60405180910390f35b610343600480360381019061033e9190612808565b610b9d565b60405161035899989796959493929190612b4c565b60405180910390f35b61037b60048036038101906103769190612808565b610f1b565b604051610389929190612c03565b60405180910390f35b6103ac60048036038101906103a79190612808565b610fc7565b6040516103b991906128ce565b60405180910390f35b6103dc60048036038101906103d79190612808565b61106f565b6040516103e991906128ce565b60405180910390f35b6103fa611116565b60405161040791906128ff565b60405180910390f35b61042a60048036038101906104259190612808565b611120565b60405161043791906128ff565b60405180910390f35b61045a60048036038101906104559190612c33565b61113f565b60405161046791906128ff565b60405180910390f35b61048a60048036038101906104859190612c7c565b61123b565b005b6104a660048036038101906104a19190612808565b611274565b6040516104b391906128ff565b60405180910390f35b6104c4611293565b6040516104d191906128ff565b60405180910390f35b6104f460048036038101906104ef9190612808565b61129d565b60405161050191906128ff565b60405180910390f35b610524600480360381019061051f9190612808565b6112bd565b60405161053191906128ce565b60405180910390f35b610554600480360381019061054f9190612ccf565b611365565b005b610570600480360381019061056b9190612808565b6114e1565b60405161057d91906128ff565b60405180910390f35b6105a0600480360381019061059b9190612808565b611501565b6040516105b39796959493929190612dfd565b60405180910390f35b6105d660048036038101906105d19190612808565b611763565b6040516105e391906128ce565b60405180910390f35b6105f461180b565b60405161060191906128ff565b60405180910390f35b610612611829565b60405161061f91906128ff565b60405180910390f35b610642600480360381019061063d9190612e88565b611833565b60405161064f9190612fa8565b60405180910390f35b610672600480360381019061066d9190612808565b611c10565b60405161067f91906128ce565b60405180910390f35b610690611cb7565b60405161069d91906128ce565b60405180910390f35b6106c060048036038101906106bb9190612808565b611d5d565b6040516106cd91906128ce565b60405180910390f35b6106f060048036038101906106eb9190612808565b611e05565b6040516106fd91906128ce565b60405180910390f35b610720600480360381019061071b9190612c33565b611ead565b60405161072d91906128ff565b60405180910390f35b610750600480360381019061074b9190612808565b611fa9565b60405161075d91906128ff565b60405180910390f35b610780600480360381019061077b9190612fc3565b611fc9565b005b61079c60048036038101906107979190612808565b611ff7565b6040516107ae9695949392919061301f565b60405180910390f35b6107d160048036038101906107cc919061309c565b612253565b005b6107ed60048036038101906107e89190612808565b612341565b6040516107fa91906128ce565b60405180910390f35b61080b6123e9565b60405161081891906128ff565b60405180910390f35b61083b60048036038101906108369190612808565b6123f3565b60405161084891906128ce565b60405180910390f35b61086b60048036038101906108669190612808565b61249b565b60405161087891906128ce565b60405180910390f35b61089b60048036038101906108969190612808565b612543565b6040516108a891906128ce565b60405180910390f35b6108cb60048036038101906108c69190612808565b6125ea565b6040516108d891906128ff565b60405180910390f35b6108fb60048036038101906108f69190612808565b61260a565b60405161090891906128ce565b60405180910390f35b60606000808381526020019081526020016000206005018054610933906131b6565b80601f016020809104026020016040519081016040528092919081815260200182805461095f906131b6565b80156109ac5780601f10610981576101008083540402835291602001916109ac565b820191906000526020600020905b81548152906001019060200180831161098f57829003601f168201915b50505050509050919050565b600060016000838152602001908152602001600020600601549050919050565b6040518060e001604052808781526020016005548152602001868152602001858152602001848152602001838152602001828152506001600060055481526020019081526020016000206000820151816000019080519060200190610a3e92919061271b565b50602082015181600101556040820151816002019080519060200190610a6592919061271b565b50606082015181600301556080820151816004019080519060200190610a8c92919061271b565b5060a0820151816005019080519060200190610aa992919061271b565b5060c0820151816006015590505060056000815480929190610aca90613217565b9190505550505050505050565b6000806000838152602001908152602001600020600001549050919050565b60606000808381526020019081526020016000206001018054610b18906131b6565b80601f0160208091040260200160405190810160405280929190818152602001828054610b44906131b6565b8015610b915780601f10610b6657610100808354040283529160200191610b91565b820191906000526020600020905b815481529060010190602001808311610b7457829003601f168201915b50505050509050919050565b6000602052806000526040600020600091509050806000015490806001018054610bc6906131b6565b80601f0160208091040260200160405190810160405280929190818152602001828054610bf2906131b6565b8015610c3f5780601f10610c1457610100808354040283529160200191610c3f565b820191906000526020600020905b815481529060010190602001808311610c2257829003601f168201915b505050505090806002018054610c54906131b6565b80601f0160208091040260200160405190810160405280929190818152602001828054610c80906131b6565b8015610ccd5780601f10610ca257610100808354040283529160200191610ccd565b820191906000526020600020905b815481529060010190602001808311610cb057829003601f168201915b505050505090806003018054610ce2906131b6565b80601f0160208091040260200160405190810160405280929190818152602001828054610d0e906131b6565b8015610d5b5780601f10610d3057610100808354040283529160200191610d5b565b820191906000526020600020905b815481529060010190602001808311610d3e57829003601f168201915b505050505090806004018054610d70906131b6565b80601f0160208091040260200160405190810160405280929190818152602001828054610d9c906131b6565b8015610de95780601f10610dbe57610100808354040283529160200191610de9565b820191906000526020600020905b815481529060010190602001808311610dcc57829003601f168201915b505050505090806005018054610dfe906131b6565b80601f0160208091040260200160405190810160405280929190818152602001828054610e2a906131b6565b8015610e775780601f10610e4c57610100808354040283529160200191610e77565b820191906000526020600020905b815481529060010190602001808311610e5a57829003601f168201915b505050505090806006018054610e8c906131b6565b80601f0160208091040260200160405190810160405280929190818152602001828054610eb8906131b6565b8015610f055780601f10610eda57610100808354040283529160200191610f05565b820191906000526020600020905b815481529060010190602001808311610ee857829003601f168201915b5050505050908060070154908060080154905089565b6003602052806000526040600020600091509050806000015490806001018054610f44906131b6565b80601f0160208091040260200160405190810160405280929190818152602001828054610f70906131b6565b8015610fbd5780601f10610f9257610100808354040283529160200191610fbd565b820191906000526020600020905b815481529060010190602001808311610fa057829003601f168201915b5050505050905082565b6060600260008381526020019081526020016000206004018054610fea906131b6565b80601f0160208091040260200160405190810160405280929190818152602001828054611016906131b6565b80156110635780601f1061103857610100808354040283529160200191611063565b820191906000526020600020905b81548152906001019060200180831161104657829003601f168201915b50505050509050919050565b60606000808381526020019081526020016000206002018054611091906131b6565b80601f01602080910402602001604051908101604052809291908181526020018280546110bd906131b6565b801561110a5780601f106110df5761010080835404028352916020019161110a565b820191906000526020600020905b8154815290600101906020018083116110ed57829003601f168201915b50505050509050919050565b6000600454905090565b6000806000838152602001908152602001600020600701549050919050565b6000806000905060005b600554821015611231576111fb84600160008581526020019081526020016000206005018054611178906131b6565b80601f01602080910402602001604051908101604052809291908181526020018280546111a4906131b6565b80156111f15780601f106111c6576101008083540402835291602001916111f1565b820191906000526020600020905b8154815290600101906020018083116111d457829003601f168201915b50505050506126b1565b1561121e5760016000838152602001908152602001600020600101549050611231565b818061122990613217565b925050611149565b8092505050919050565b81600080858152602001908152602001600020600701819055508060008085815260200190815260200160002060080181905550505050565b6000806000838152602001908152602001600020600801549050919050565b6000600654905090565b600060026000838152602001908152602001600020600001549050919050565b60606001600083815260200190815260200160002060020180546112e0906131b6565b80601f016020809104026020016040519081016040528092919081815260200182805461130c906131b6565b80156113595780601f1061132e57610100808354040283529160200191611359565b820191906000526020600020905b81548152906001019060200180831161133c57829003601f168201915b50505050509050919050565b60405180610120016040528060045481526020016040518060400160405280600781526020017f3c49504653233e00000000000000000000000000000000000000000000000000815250815260200188815260200187815260200186815260200185815260200184815260200183815260200182815250600080600454815260200190815260200160002060008201518160000155602082015181600101908051906020019061141692919061271b565b50604082015181600201908051906020019061143392919061271b565b50606082015181600301908051906020019061145092919061271b565b50608082015181600401908051906020019061146d92919061271b565b5060a082015181600501908051906020019061148a92919061271b565b5060c08201518160060190805190602001906114a792919061271b565b5060e082015181600701556101008201518160080155905050600460008154809291906114d390613217565b919050555050505050505050565b600060016000838152602001908152602001600020600101549050919050565b6001602052806000526040600020600091509050806000018054611524906131b6565b80601f0160208091040260200160405190810160405280929190818152602001828054611550906131b6565b801561159d5780601f106115725761010080835404028352916020019161159d565b820191906000526020600020905b81548152906001019060200180831161158057829003601f168201915b5050505050908060010154908060020180546115b8906131b6565b80601f01602080910402602001604051908101604052809291908181526020018280546115e4906131b6565b80156116315780601f1061160657610100808354040283529160200191611631565b820191906000526020600020905b81548152906001019060200180831161161457829003601f168201915b50505050509080600301549080600401805461164c906131b6565b80601f0160208091040260200160405190810160405280929190818152602001828054611678906131b6565b80156116c55780601f1061169a576101008083540402835291602001916116c5565b820191906000526020600020905b8154815290600101906020018083116116a857829003601f168201915b5050505050908060050180546116da906131b6565b80601f0160208091040260200160405190810160405280929190818152602001828054611706906131b6565b80156117535780601f1061172857610100808354040283529160200191611753565b820191906000526020600020905b81548152906001019060200180831161173657829003601f168201915b5050505050908060060154905087565b6060600260008381526020019081526020016000206001018054611786906131b6565b80601f01602080910402602001604051908101604052809291908181526020018280546117b2906131b6565b80156117ff5780601f106117d4576101008083540402835291602001916117ff565b820191906000526020600020905b8154815290600101906020018083116117e257829003601f168201915b50505050509050919050565b60006003600080815260200190815260200160002060000154905090565b6000600754905090565b6000806000905060007fffffffffffffffffffffffffffffffffffffffffffffffffffffffffffffffff90505b600454821015611c025761191188600080858152602001908152602001600020600201805461188e906131b6565b80601f01602080910402602001604051908101604052809291908181526020018280546118ba906131b6565b80156119075780601f106118dc57610100808354040283529160200191611907565b820191906000526020600020905b8154815290600101906020018083116118ea57829003601f168201915b50505050506126b1565b80156119c057506119bf87600080858152602001908152602001600020600301805461193c906131b6565b80601f0160208091040260200160405190810160405280929190818152602001828054611968906131b6565b80156119b55780601f1061198a576101008083540402835291602001916119b5565b820191906000526020600020905b81548152906001019060200180831161199857829003601f168201915b50505050506126b1565b5b8015611a6f5750611a6e8660008085815260200190815260200160002060040180546119eb906131b6565b80601f0160208091040260200160405190810160405280929190818152602001828054611a17906131b6565b8015611a645780601f10611a3957610100808354040283529160200191611a64565b820191906000526020600020905b815481529060010190602001808311611a4757829003601f168201915b50505050506126b1565b5b8015611b1e5750611b1d856000808581526020019081526020016000206005018054611a9a906131b6565b80601f0160208091040260200160405190810160405280929190818152602001828054611ac6906131b6565b8015611b135780601f10611ae857610100808354040283529160200191611b13565b820191906000526020600020905b815481529060010190602001808311611af657829003601f168201915b50505050506126b1565b5b8015611bcd5750611bcc846000808581526020019081526020016000206006018054611b49906131b6565b80601f0160208091040260200160405190810160405280929190818152602001828054611b75906131b6565b8015611bc25780601f10611b9757610100808354040283529160200191611bc2565b820191906000526020600020905b815481529060010190602001808311611ba557829003601f168201915b50505050506126b1565b5b15611bef57600080838152602001908152602001600020600001549050611c02565b8180611bfa90613217565b925050611860565b809250505095945050505050565b60606000808381526020019081526020016000206006018054611c32906131b6565b80601f0160208091040260200160405190810160405280929190818152602001828054611c5e906131b6565b8015611cab5780601f10611c8057610100808354040283529160200191611cab565b820191906000526020600020905b815481529060010190602001808311611c8e57829003601f168201915b50505050509050919050565b6060600360008081526020019081526020016000206001018054611cda906131b6565b80601f0160208091040260200160405190810160405280929190818152602001828054611d06906131b6565b8015611d535780601f10611d2857610100808354040283529160200191611d53565b820191906000526020600020905b815481529060010190602001808311611d3657829003601f168201915b5050505050905090565b6060600260008381526020019081526020016000206003018054611d80906131b6565b80601f0160208091040260200160405190810160405280929190818152602001828054611dac906131b6565b8015611df95780601f10611dce57610100808354040283529160200191611df9565b820191906000526020600020905b815481529060010190602001808311611ddc57829003601f168201915b50505050509050919050565b6060600160008381526020019081526020016000206000018054611e28906131b6565b80601f0160208091040260200160405190810160405280929190818152602001828054611e54906131b6565b8015611ea15780601f10611e7657610100808354040283529160200191611ea1565b820191906000526020600020905b815481529060010190602001808311611e8457829003601f168201915b50505050509050919050565b6000806000905060005b600654821015611f9f57611f6984600260008581526020019081526020016000206004018054611ee6906131b6565b80601f0160208091040260200160405190810160405280929190818152602001828054611f12906131b6565b8015611f5f5780601f10611f3457610100808354040283529160200191611f5f565b820191906000526020600020905b815481529060010190602001808311611f4257829003601f168201915b50505050506126b1565b15611f8c5760026000838152602001908152602001600020600001549050611f9f565b8180611f9790613217565b925050611eb7565b8092505050919050565b600060026000838152602001908152602001600020600501549050919050565b806000808481526020019081526020016000206001019080519060200190611ff292919061271b565b505050565b6002602052806000526040600020600091509050806000015490806001018054612020906131b6565b80601f016020809104026020016040519081016040528092919081815260200182805461204c906131b6565b80156120995780601f1061206e57610100808354040283529160200191612099565b820191906000526020600020905b81548152906001019060200180831161207c57829003601f168201915b5050505050908060020180546120ae906131b6565b80601f01602080910402602001604051908101604052809291908181526020018280546120da906131b6565b80156121275780601f106120fc57610100808354040283529160200191612127565b820191906000526020600020905b81548152906001019060200180831161210a57829003601f168201915b50505050509080600301805461213c906131b6565b80601f0160208091040260200160405190810160405280929190818152602001828054612168906131b6565b80156121b55780601f1061218a576101008083540402835291602001916121b5565b820191906000526020600020905b81548152906001019060200180831161219857829003601f168201915b5050505050908060040180546121ca906131b6565b80601f01602080910402602001604051908101604052809291908181526020018280546121f6906131b6565b80156122435780601f1061221857610100808354040283529160200191612243565b820191906000526020600020905b81548152906001019060200180831161222657829003601f168201915b5050505050908060050154905086565b6040518060c001604052806006548152602001868152602001858152602001848152602001838152602001828152506002600060065481526020019081526020016000206000820151816000015560208201518160010190805190602001906122bd92919061271b565b5060408201518160020190805190602001906122da92919061271b565b5060608201518160030190805190602001906122f792919061271b565b50608082015181600401908051906020019061231492919061271b565b5060a082015181600501559050506006600081548092919061233590613217565b91905055505050505050565b6060600160008381526020019081526020016000206004018054612364906131b6565b80601f0160208091040260200160405190810160405280929190818152602001828054612390906131b6565b80156123dd5780601f106123b2576101008083540402835291602001916123dd565b820191906000526020600020905b8154815290600101906020018083116123c057829003601f168201915b50505050509050919050565b6000600554905090565b6060600260008381526020019081526020016000206002018054612416906131b6565b80601f0160208091040260200160405190810160405280929190818152602001828054612442906131b6565b801561248f5780601f106124645761010080835404028352916020019161248f565b820191906000526020600020905b81548152906001019060200180831161247257829003601f168201915b50505050509050919050565b60606001600083815260200190815260200160002060050180546124be906131b6565b80601f01602080910402602001604051908101604052809291908181526020018280546124ea906131b6565b80156125375780601f1061250c57610100808354040283529160200191612537565b820191906000526020600020905b81548152906001019060200180831161251a57829003601f168201915b50505050509050919050565b60606000808381526020019081526020016000206004018054612565906131b6565b80601f0160208091040260200160405190810160405280929190818152602001828054612591906131b6565b80156125de5780601f106125b3576101008083540402835291602001916125de565b820191906000526020600020905b8154815290600101906020018083116125c157829003601f168201915b50505050509050919050565b600060016000838152602001908152602001600020600301549050919050565b6060600080838152602001908152602001600020600301805461262c906131b6565b80601f0160208091040260200160405190810160405280929190818152602001828054612658906131b6565b80156126a55780601f1061267a576101008083540402835291602001916126a5565b820191906000526020600020905b81548152906001019060200180831161268857829003601f168201915b50505050509050919050565b6000816040516020016126c4919061329c565b60405160208183030381529060405280519060200120836040516020016126eb919061329c565b6040516020818303038152906040528051906020012014156127105760019050612715565b600090505b92915050565b828054612727906131b6565b90600052602060002090601f0160209004810192826127495760008555612790565b82601f1061276257805160ff1916838001178555612790565b82800160010185558215612790579182015b8281111561278f578251825591602001919060010190612774565b5b50905061279d91906127a1565b5090565b5b808211156127ba5760008160009055506001016127a2565b5090565b6000604051905090565b600080fd5b600080fd5b6000819050919050565b6127e5816127d2565b81146127f057600080fd5b50565b600081359050612802816127dc565b92915050565b60006020828403121561281e5761281d6127c8565b5b600061282c848285016127f3565b91505092915050565b600081519050919050565b600082825260208201905092915050565b60005b8381101561286f578082015181840152602081019050612854565b8381111561287e576000848401525b50505050565b6000601f19601f8301169050919050565b60006128a082612835565b6128aa8185612840565b93506128ba818560208601612851565b6128c381612884565b840191505092915050565b600060208201905081810360008301526128e88184612895565b905092915050565b6128f9816127d2565b82525050565b600060208201905061291460008301846128f0565b92915050565b600080fd5b600080fd5b7f4e487b7100000000000000000000000000000000000000000000000000000000600052604160045260246000fd5b61295c82612884565b810181811067ffffffffffffffff8211171561297b5761297a612924565b5b80604052505050565b600061298e6127be565b905061299a8282612953565b919050565b600067ffffffffffffffff8211156129ba576129b9612924565b5b6129c382612884565b9050602081019050919050565b82818337600083830152505050565b60006129f26129ed8461299f565b612984565b905082815260208101848484011115612a0e57612a0d61291f565b5b612a198482856129d0565b509392505050565b600082601f830112612a3657612a3561291a565b5b8135612a468482602086016129df565b91505092915050565b60008060008060008060c08789031215612a6c57612a6b6127c8565b5b600087013567ffffffffffffffff811115612a8a57612a896127cd565b5b612a9689828a01612a21565b965050602087013567ffffffffffffffff811115612ab757612ab66127cd565b5b612ac389828a01612a21565b9550506040612ad489828a016127f3565b945050606087013567ffffffffffffffff811115612af557612af46127cd565b5b612b0189828a01612a21565b935050608087013567ffffffffffffffff811115612b2257612b216127cd565b5b612b2e89828a01612a21565b92505060a0612b3f89828a016127f3565b9150509295509295509295565b600061012082019050612b62600083018c6128f0565b8181036020830152612b74818b612895565b90508181036040830152612b88818a612895565b90508181036060830152612b9c8189612895565b90508181036080830152612bb08188612895565b905081810360a0830152612bc48187612895565b905081810360c0830152612bd88186612895565b9050612be760e08301856128f0565b612bf56101008301846128f0565b9a9950505050505050505050565b6000604082019050612c1860008301856128f0565b8181036020830152612c2a8184612895565b90509392505050565b600060208284031215612c4957612c486127c8565b5b600082013567ffffffffffffffff811115612c6757612c666127cd565b5b612c7384828501612a21565b91505092915050565b600080600060608486031215612c9557612c946127c8565b5b6000612ca3868287016127f3565b9350506020612cb4868287016127f3565b9250506040612cc5868287016127f3565b9150509250925092565b600080600080600080600060e0888a031215612cee57612ced6127c8565b5b600088013567ffffffffffffffff811115612d0c57612d0b6127cd565b5b612d188a828b01612a21565b975050602088013567ffffffffffffffff811115612d3957612d386127cd565b5b612d458a828b01612a21565b965050604088013567ffffffffffffffff811115612d6657612d656127cd565b5b612d728a828b01612a21565b955050606088013567ffffffffffffffff811115612d9357612d926127cd565b5b612d9f8a828b01612a21565b945050608088013567ffffffffffffffff811115612dc057612dbf6127cd565b5b612dcc8a828b01612a21565b93505060a0612ddd8a828b016127f3565b92505060c0612dee8a828b016127f3565b91505092959891949750929550565b600060e0820190508181036000830152612e17818a612895565b9050612e2660208301896128f0565b8181036040830152612e388188612895565b9050612e4760608301876128f0565b8181036080830152612e598186612895565b905081810360a0830152612e6d8185612895565b9050612e7c60c08301846128f0565b98975050505050505050565b600080600080600060a08688031215612ea457612ea36127c8565b5b600086013567ffffffffffffffff811115612ec257612ec16127cd565b5b612ece88828901612a21565b955050602086013567ffffffffffffffff811115612eef57612eee6127cd565b5b612efb88828901612a21565b945050604086013567ffffffffffffffff811115612f1c57612f1b6127cd565b5b612f2888828901612a21565b935050606086013567ffffffffffffffff811115612f4957612f486127cd565b5b612f5588828901612a21565b925050608086013567ffffffffffffffff811115612f7657612f756127cd565b5b612f8288828901612a21565b9150509295509295909350565b6000819050919050565b612fa281612f8f565b82525050565b6000602082019050612fbd6000830184612f99565b92915050565b60008060408385031215612fda57612fd96127c8565b5b6000612fe8858286016127f3565b925050602083013567ffffffffffffffff811115613009576130086127cd565b5b61301585828601612a21565b9150509250929050565b600060c08201905061303460008301896128f0565b81810360208301526130468188612895565b9050818103604083015261305a8187612895565b9050818103606083015261306e8186612895565b905081810360808301526130828185612895565b905061309160a08301846128f0565b979650505050505050565b600080600080600060a086880312156130b8576130b76127c8565b5b600086013567ffffffffffffffff8111156130d6576130d56127cd565b5b6130e288828901612a21565b955050602086013567ffffffffffffffff811115613103576131026127cd565b5b61310f88828901612a21565b945050604086013567ffffffffffffffff8111156131305761312f6127cd565b5b61313c88828901612a21565b935050606086013567ffffffffffffffff81111561315d5761315c6127cd565b5b61316988828901612a21565b925050608061317a888289016127f3565b9150509295509295909350565b7f4e487b7100000000000000000000000000000000000000000000000000000000600052602260045260246000fd5b600060028204905060018216806131ce57607f821691505b602082108114156131e2576131e1613187565b5b50919050565b7f4e487b7100000000000000000000000000000000000000000000000000000000600052601160045260246000fd5b6000613222826127d2565b91507fffffffffffffffffffffffffffffffffffffffffffffffffffffffffffffffff821415613255576132546131e8565b5b600182019050919050565b600081905092915050565b600061327682612835565b6132808185613260565b9350613290818560208601612851565b80840191505092915050565b60006132a8828461326b565b91508190509291505056fea264697066735822122035bae2a405e521d1a0262fbe9b939ddac77022514f51f570493e86bb4142e41964736f6c634300080a0033",
  "immutableReferences": {},
  "source": "// SPDX-License-Identifier: MIT\r\npragma solidity >=0.4.22 <0.9.0;\r\n\r\ncontract Land {\r\n    \r\n    // structs\r\n    struct Deed {\r\n        // deed instance variables\r\n        uint deedId;\r\n        string ipfsHash;\r\n        string no;\r\n        string streetName;\r\n        string city;\r\n        string district;\r\n        string province;\r\n        uint assignedLawyerId; // to link the relevant lawyer to the deed\r\n        uint assignedSellerId; // to link the relevant seller to the deed\r\n    }\r\n\r\n    struct Lawyer{\r\n        // Lawyer instance variables\r\n        uint lawyerId;\r\n        string lawyerName;\r\n        string lawyernic;\r\n        string lawyerRegNo;\r\n        string lawyerEmail;\r\n        uint lawyerTelephoneNumber;\r\n    }\r\n\r\n    struct Seller {\r\n        // Seller instance variables\r\n        string name;\r\n\t\tuint id;\r\n\t\tstring nic;\r\n        uint age;\r\n        string city;\r\n\t\tstring email;\r\n        uint telephoneNumber;\r\n    }\r\n\r\n    struct Admin {\r\n        // Admin instance variables\r\n        uint id;\r\n        string adminPassword;\r\n    }\r\n\r\n    // mappings\r\n    mapping(uint => Deed) public deeds;\r\n    mapping(uint => Seller) public sellersMapping;\r\n    mapping(uint => Lawyer) public Lawyersmapping;\r\n    mapping(uint => Admin) public adminMapping;\r\n    \r\n    // Count tracking variables\r\n    uint private deedCount = 0;\r\n    uint private sellersCount = 0;\r\n    uint private lawyerCount = 0;\r\n    uint private adminCount = 0;\r\n\r\n    constructor() {\r\n        // initializing the admin\r\n        adminMapping[adminCount] = Admin(adminCount, \"123\");\r\n        adminCount++;\r\n    }    \r\n\r\n    function getHashFromDeed(uint index) public view returns (string memory) {   \r\n        return deeds[index].ipfsHash;\r\n    }\r\n\r\n    function sendHash(uint deedId, string memory x) public {\r\n        deeds[deedId].ipfsHash = x;\r\n    }     \r\n\r\n    // getter for deed count\r\n    function getDeedCount() public view returns (uint) {\r\n        return deedCount;\r\n    }\r\n\r\n    // getter for lawyer count\r\n    function getLawyerCount() public view returns(uint){\r\n        return lawyerCount;\r\n    }\r\n\r\n    // getter for seller count\r\n    function getSellersCount() public view returns(uint){\r\n        return sellersCount;\r\n    }\r\n\r\n    // getter for admin count\r\n    function getAdminCount() public view returns(uint){\r\n        return adminCount;\r\n    }\r\n\r\n    //getters for Deed struct\r\n    function getDeedId(uint index) public view returns (uint) {\r\n        return deeds[index].deedId;\r\n    }\r\n\r\n    function getDeedNo(uint index) public view returns (string memory) {\r\n        return deeds[index].no;\r\n    }\r\n\r\n    function getDeedStreetName(uint index) public view returns (string memory) {\r\n        return deeds[index].streetName;\r\n    }\r\n\r\n    function getDeedCity(uint index) public view returns (string memory) {\r\n        return deeds[index].city;\r\n    }\r\n\r\n    function getDeedDistrict(uint index) public view returns (string memory) {\r\n        return deeds[index].district;\r\n    }\r\n\r\n    function getDeedProvince(uint index) public view returns (string memory) {\r\n        return deeds[index].province;\r\n    }\r\n\r\n    function getLawyerIdOfDeed(uint index) public view returns (uint) {\r\n        return deeds[index].assignedLawyerId;\r\n    }\r\n\r\n    function getSellerIdOfDeed(uint index) public view returns (uint) {\r\n        return deeds[index].assignedSellerId;\r\n    }\r\n\r\n    // function to compare strings\r\n    function compareStrings(string memory s1, string memory s2) private pure returns (bool) {\r\n        if (keccak256(abi.encodePacked(s1)) == keccak256(abi.encodePacked(s2)))\r\n        {\r\n            return true;\r\n        }\r\n        else \r\n        {\r\n            return false;\r\n        }\r\n    }\r\n\r\n    // function to get the deed by the land address for searching purposes\r\n    function findDeedByAddress(string memory _no, string memory _streetName, string memory _city, string memory _district, string memory _province) public view returns (int) {\r\n\r\n        uint i = 0;\r\n        int returningDeedId = -1;\r\n\r\n        while (i < deedCount)\r\n        {\r\n            if (compareStrings(_no, deeds[i].no) && compareStrings(_streetName, deeds[i].streetName) && compareStrings(_city, deeds[i].city) && compareStrings(_district, deeds[i].district) && compareStrings(_province, deeds[i].province))\r\n            {\r\n                returningDeedId = int(deeds[i].deedId);\r\n                break;\r\n            }\r\n\r\n            i++;\r\n        }\r\n\r\n        return returningDeedId;\r\n    }\r\n\r\n    // function to get the lawyer by email\r\n    function findLawyerByEmail(string memory _email) public view returns (uint) {\r\n        uint i = 0;\r\n        uint returningLawyerId;\r\n        while (i < lawyerCount)\r\n        {\r\n            if (compareStrings(_email, Lawyersmapping[i].lawyerEmail))\r\n            {\r\n                returningLawyerId = Lawyersmapping[i].lawyerId;\r\n                break;\r\n            }\r\n            i++;\r\n        }\r\n        return returningLawyerId;\r\n    }\r\n\r\n    //function to get the seller by email\r\n    function findSellerByEmail(string memory _email) public view returns (uint) {\r\n        uint i = 0;\r\n        uint returningSellerId;\r\n        while (i < sellersCount)\r\n        {\r\n            if (compareStrings(_email, sellersMapping[i].email))\r\n            {\r\n                returningSellerId = sellersMapping[i].id;\r\n                break;\r\n            }\r\n            i++;\r\n        }\r\n        return returningSellerId;\r\n    }\r\n\r\n\r\n    // function to change land deed buyer and seller\r\n    function changeDeedLawyerAndSeller(uint _deedId, uint _assignedLawyerId, uint _assignedSellerId) public {\r\n        deeds[_deedId].assignedLawyerId = _assignedLawyerId;\r\n        deeds[_deedId].assignedSellerId = _assignedSellerId;\r\n    }\r\n\r\n    // function to add a new deed to the deeds mapping\r\n    function addNewDeed(string memory _no, string memory _streetName, string memory _city, string memory _district, string memory _province, uint _assignedLawyerId, uint _assignedSellerId) public {\r\n        deeds[deedCount] = Deed(deedCount, \"<IPFS#>\", _no,  _streetName, _city, _district, _province, _assignedLawyerId, _assignedSellerId);\r\n        deedCount++;\r\n    }\r\n\r\n    //function to register a seller\r\n    function registerSeller(string memory _name, string memory _nic, uint _age, string memory _city, string memory _email, uint _telephoneNumber) public {\r\n        sellersMapping[sellersCount] = Seller(_name, sellersCount, _nic, _age, _city, _email, _telephoneNumber);\r\n        sellersCount++;\r\n    }\r\n\r\n    //function to register a new Lawyer\r\n    function registerLawyer(string memory _lawyerName, string memory _lawyernic, string memory _lawyerRegNo, string memory _lawyerEmail, uint _lawyerTelephoneNumber) public {\r\n        Lawyersmapping[lawyerCount] = Lawyer(lawyerCount, _lawyerName, _lawyernic, _lawyerRegNo, _lawyerEmail, _lawyerTelephoneNumber);\r\n        lawyerCount++;\r\n    }\r\n\r\n    // function to get the lawyer id\r\n    function getLawyerId(uint index) public view returns (uint) {\r\n        return Lawyersmapping[index].lawyerId;\r\n    }\r\n\r\n    // function to get the lawyer name\r\n    function getLawyerName(uint index) public view returns (string memory) {\r\n        return Lawyersmapping[index].lawyerName;\r\n    }\r\n\r\n    // function to get the lawyer nic\r\n    function getLawyerNic(uint index) public view returns (string memory) {\r\n        return Lawyersmapping[index].lawyernic;\r\n    }\r\n\r\n    // function to get the lawyer reg no\r\n    function getLawyerRegNo(uint index) public view returns (string memory) {\r\n        return Lawyersmapping[index].lawyerRegNo;\r\n    }\r\n\r\n    // function to get the lawyer email\r\n    function getLawyerEmail(uint index) public view returns (string memory) {\r\n        return Lawyersmapping[index].lawyerEmail;\r\n    }\r\n\r\n    // function to get the lawyer email\r\n    function getLawyerTelephoneNumber(uint index) public view returns (uint) {\r\n        return Lawyersmapping[index].lawyerTelephoneNumber;\r\n    }\r\n\r\n    // function to get the seller id\r\n    function getSellerId(uint index) public view returns (uint) {\r\n        return sellersMapping[index].id;\r\n    }\r\n\r\n    // function to get the seller name\r\n    function getSellerName(uint index) public view returns (string memory) {\r\n        return sellersMapping[index].name;\r\n    }\r\n\r\n    // function to get the seller nic\r\n    function getSellerNic(uint index) public view returns (string memory) {\r\n        return sellersMapping[index].nic;\r\n    }\r\n\r\n    // function to get the seller age\r\n    function getSellerAge(uint index) public view returns (uint) {\r\n        return sellersMapping[index].age;\r\n    }\r\n\r\n    // function to get the seller city\r\n    function getSellerCity(uint index) public view returns (string memory) {\r\n        return sellersMapping[index].city;\r\n    }\r\n\r\n    // function to get the seller email\r\n    function getSellerEmail(uint index) public view returns (string memory) {\r\n        return sellersMapping[index].email;\r\n    }\r\n\r\n    // function to get the seller telephonenumber\r\n    function getSellerTelephoneNo(uint index) public view returns (uint) {\r\n        return sellersMapping[index].telephoneNumber;\r\n    }\r\n    \r\n    //function to get admin id\r\n    function getAdminId() public view returns (uint) {\r\n        return adminMapping[0].id;\r\n    }\r\n\r\n    //function to get admin password\r\n    function getAdminPassword() public view returns (string memory) {\r\n        return adminMapping[0].adminPassword;\r\n    }\r\n}\r\n",
  "sourcePath": "C:\\GitHubRepos\\GitHub\\DBLOCK\\backEnd\\contracts\\Land.sol",
  "compiler": {
    "name": "solc",
    "version": "0.8.10+commit.fc410830.Emscripten.clang"
  },
  "schemaVersion": "3.4.3",
  "updatedAt": "2022-03-20T04:01:36.681Z",
  "networkType": "ethereum",
  "devdoc": {
    "kind": "dev",
    "methods": {},
    "version": 1
  },
  "userdoc": {
    "kind": "user",
    "methods": {},
    "version": 1
  }
}