{
  "contractName": "Land",
  "abi": [
    {
      "inputs": [],
      "stateMutability": "nonpayable",
      "type": "constructor"
    },
    {
      "inputs": [
        {
          "internalType": "uint256",
          "name": "",
          "type": "uint256"
        }
      ],
      "name": "Lawyersmapping",
      "outputs": [
        {
          "internalType": "uint256",
          "name": "lawyerId",
          "type": "uint256"
        },
        {
          "internalType": "string",
          "name": "lawyerName",
          "type": "string"
        },
        {
          "internalType": "string",
          "name": "lawyernic",
          "type": "string"
        },
        {
          "internalType": "string",
          "name": "lawyerRegNo",
          "type": "string"
        },
        {
          "internalType": "string",
          "name": "lawyerEmail",
          "type": "string"
        },
        {
          "internalType": "uint256",
          "name": "lawyerTelephoneNumber",
          "type": "uint256"
        }
      ],
      "stateMutability": "view",
      "type": "function",
      "constant": true
    },
    {
      "inputs": [
        {
          "internalType": "uint256",
          "name": "",
          "type": "uint256"
        }
      ],
      "name": "adminMapping",
      "outputs": [
        {
          "internalType": "uint256",
          "name": "id",
          "type": "uint256"
        },
        {
          "internalType": "string",
          "name": "adminPassword",
          "type": "string"
        }
      ],
      "stateMutability": "view",
      "type": "function",
      "constant": true
    },
    {
      "inputs": [
        {
          "internalType": "uint256",
          "name": "",
          "type": "uint256"
        }
      ],
      "name": "deeds",
      "outputs": [
        {
          "internalType": "uint256",
          "name": "deedId",
          "type": "uint256"
        },
        {
          "internalType": "string",
          "name": "ipfsHash",
          "type": "string"
        },
        {
          "internalType": "string",
          "name": "no",
          "type": "string"
        },
        {
          "internalType": "string",
          "name": "streetName",
          "type": "string"
        },
        {
          "internalType": "string",
          "name": "city",
          "type": "string"
        },
        {
          "internalType": "string",
          "name": "district",
          "type": "string"
        },
        {
          "internalType": "string",
          "name": "province",
          "type": "string"
        },
        {
          "internalType": "uint256",
          "name": "assignedLawyerId",
          "type": "uint256"
        },
        {
          "internalType": "uint256",
          "name": "assignedSellerId",
          "type": "uint256"
        }
      ],
      "stateMutability": "view",
      "type": "function",
      "constant": true
    },
    {
      "inputs": [
        {
          "internalType": "uint256",
          "name": "",
          "type": "uint256"
        }
      ],
      "name": "deedsVersionHistory",
      "outputs": [
        {
          "internalType": "uint256",
          "name": "deedIdLink",
          "type": "uint256"
        },
        {
          "internalType": "uint256",
          "name": "oldLawyerId",
          "type": "uint256"
        },
        {
          "internalType": "uint256",
          "name": "oldSellerId",
          "type": "uint256"
        }
      ],
      "stateMutability": "view",
      "type": "function",
      "constant": true
    },
    {
      "inputs": [
        {
          "internalType": "uint256",
          "name": "",
          "type": "uint256"
        }
      ],
      "name": "sellersMapping",
      "outputs": [
        {
          "internalType": "string",
          "name": "name",
          "type": "string"
        },
        {
          "internalType": "uint256",
          "name": "id",
          "type": "uint256"
        },
        {
          "internalType": "string",
          "name": "nic",
          "type": "string"
        },
        {
          "internalType": "uint256",
          "name": "age",
          "type": "uint256"
        },
        {
          "internalType": "string",
          "name": "city",
          "type": "string"
        },
        {
          "internalType": "string",
          "name": "email",
          "type": "string"
        },
        {
          "internalType": "uint256",
          "name": "telephoneNumber",
          "type": "uint256"
        }
      ],
      "stateMutability": "view",
      "type": "function",
      "constant": true
    },
    {
      "inputs": [
        {
          "internalType": "uint256",
          "name": "index",
          "type": "uint256"
        }
      ],
      "name": "getHashFromDeed",
      "outputs": [
        {
          "internalType": "string",
          "name": "",
          "type": "string"
        }
      ],
      "stateMutability": "view",
      "type": "function",
      "constant": true
    },
    {
      "inputs": [
        {
          "internalType": "uint256",
          "name": "deedId",
          "type": "uint256"
        },
        {
          "internalType": "string",
          "name": "x",
          "type": "string"
        }
      ],
      "name": "sendHash",
      "outputs": [],
      "stateMutability": "nonpayable",
      "type": "function"
    },
    {
      "inputs": [],
      "name": "getDeedCount",
      "outputs": [
        {
          "internalType": "uint256",
          "name": "",
          "type": "uint256"
        }
      ],
      "stateMutability": "view",
      "type": "function",
      "constant": true
    },
    {
      "inputs": [],
      "name": "getLawyerCount",
      "outputs": [
        {
          "internalType": "uint256",
          "name": "",
          "type": "uint256"
        }
      ],
      "stateMutability": "view",
      "type": "function",
      "constant": true
    },
    {
      "inputs": [],
      "name": "getSellersCount",
      "outputs": [
        {
          "internalType": "uint256",
          "name": "",
          "type": "uint256"
        }
      ],
      "stateMutability": "view",
      "type": "function",
      "constant": true
    },
    {
      "inputs": [],
      "name": "getAdminCount",
      "outputs": [
        {
          "internalType": "uint256",
          "name": "",
          "type": "uint256"
        }
      ],
      "stateMutability": "view",
      "type": "function",
      "constant": true
    },
    {
      "inputs": [
        {
          "internalType": "uint256",
          "name": "index",
          "type": "uint256"
        }
      ],
      "name": "getDeedId",
      "outputs": [
        {
          "internalType": "uint256",
          "name": "",
          "type": "uint256"
        }
      ],
      "stateMutability": "view",
      "type": "function",
      "constant": true
    },
    {
      "inputs": [
        {
          "internalType": "uint256",
          "name": "index",
          "type": "uint256"
        }
      ],
      "name": "getDeedNo",
      "outputs": [
        {
          "internalType": "string",
          "name": "",
          "type": "string"
        }
      ],
      "stateMutability": "view",
      "type": "function",
      "constant": true
    },
    {
      "inputs": [
        {
          "internalType": "uint256",
          "name": "index",
          "type": "uint256"
        }
      ],
      "name": "getDeedStreetName",
      "outputs": [
        {
          "internalType": "string",
          "name": "",
          "type": "string"
        }
      ],
      "stateMutability": "view",
      "type": "function",
      "constant": true
    },
    {
      "inputs": [
        {
          "internalType": "uint256",
          "name": "index",
          "type": "uint256"
        }
      ],
      "name": "getDeedCity",
      "outputs": [
        {
          "internalType": "string",
          "name": "",
          "type": "string"
        }
      ],
      "stateMutability": "view",
      "type": "function",
      "constant": true
    },
    {
      "inputs": [
        {
          "internalType": "uint256",
          "name": "index",
          "type": "uint256"
        }
      ],
      "name": "getDeedDistrict",
      "outputs": [
        {
          "internalType": "string",
          "name": "",
          "type": "string"
        }
      ],
      "stateMutability": "view",
      "type": "function",
      "constant": true
    },
    {
      "inputs": [
        {
          "internalType": "uint256",
          "name": "index",
          "type": "uint256"
        }
      ],
      "name": "getDeedProvince",
      "outputs": [
        {
          "internalType": "string",
          "name": "",
          "type": "string"
        }
      ],
      "stateMutability": "view",
      "type": "function",
      "constant": true
    },
    {
      "inputs": [
        {
          "internalType": "uint256",
          "name": "index",
          "type": "uint256"
        }
      ],
      "name": "getLawyerIdOfDeed",
      "outputs": [
        {
          "internalType": "uint256",
          "name": "",
          "type": "uint256"
        }
      ],
      "stateMutability": "view",
      "type": "function",
      "constant": true
    },
    {
      "inputs": [
        {
          "internalType": "uint256",
          "name": "index",
          "type": "uint256"
        }
      ],
      "name": "getSellerIdOfDeed",
      "outputs": [
        {
          "internalType": "uint256",
          "name": "",
          "type": "uint256"
        }
      ],
      "stateMutability": "view",
      "type": "function",
      "constant": true
    },
    {
      "inputs": [
        {
          "internalType": "string",
          "name": "_no",
          "type": "string"
        },
        {
          "internalType": "string",
          "name": "_streetName",
          "type": "string"
        },
        {
          "internalType": "string",
          "name": "_city",
          "type": "string"
        },
        {
          "internalType": "string",
          "name": "_district",
          "type": "string"
        },
        {
          "internalType": "string",
          "name": "_province",
          "type": "string"
        }
      ],
      "name": "findDeedByAddress",
      "outputs": [
        {
          "internalType": "int256",
          "name": "",
          "type": "int256"
        }
      ],
      "stateMutability": "view",
      "type": "function",
      "constant": true
    },
    {
      "inputs": [
        {
          "internalType": "string",
          "name": "_email",
          "type": "string"
        }
      ],
      "name": "findLawyerByEmail",
      "outputs": [
        {
          "internalType": "int256",
          "name": "",
          "type": "int256"
        }
      ],
      "stateMutability": "view",
      "type": "function",
      "constant": true
    },
    {
      "inputs": [
        {
          "internalType": "string",
          "name": "_email",
          "type": "string"
        }
      ],
      "name": "findSellerByEmail",
      "outputs": [
        {
          "internalType": "int256",
          "name": "",
          "type": "int256"
        }
      ],
      "stateMutability": "view",
      "type": "function",
      "constant": true
    },
    {
      "inputs": [
        {
          "internalType": "uint256",
          "name": "_deedId",
          "type": "uint256"
        },
        {
          "internalType": "uint256",
          "name": "_assignedLawyerId",
          "type": "uint256"
        },
        {
          "internalType": "uint256",
          "name": "_assignedSellerId",
          "type": "uint256"
        }
      ],
      "name": "changeDeedLawyerAndSeller",
      "outputs": [],
      "stateMutability": "nonpayable",
      "type": "function"
    },
    {
      "inputs": [
        {
          "internalType": "string",
          "name": "_no",
          "type": "string"
        },
        {
          "internalType": "string",
          "name": "_streetName",
          "type": "string"
        },
        {
          "internalType": "string",
          "name": "_city",
          "type": "string"
        },
        {
          "internalType": "string",
          "name": "_district",
          "type": "string"
        },
        {
          "internalType": "string",
          "name": "_province",
          "type": "string"
        },
        {
          "internalType": "uint256",
          "name": "_assignedLawyerId",
          "type": "uint256"
        },
        {
          "internalType": "uint256",
          "name": "_assignedSellerId",
          "type": "uint256"
        }
      ],
      "name": "addNewDeed",
      "outputs": [],
      "stateMutability": "nonpayable",
      "type": "function"
    },
    {
      "inputs": [
        {
          "internalType": "string",
          "name": "_name",
          "type": "string"
        },
        {
          "internalType": "string",
          "name": "_nic",
          "type": "string"
        },
        {
          "internalType": "uint256",
          "name": "_age",
          "type": "uint256"
        },
        {
          "internalType": "string",
          "name": "_city",
          "type": "string"
        },
        {
          "internalType": "string",
          "name": "_email",
          "type": "string"
        },
        {
          "internalType": "uint256",
          "name": "_telephoneNumber",
          "type": "uint256"
        }
      ],
      "name": "registerSeller",
      "outputs": [],
      "stateMutability": "nonpayable",
      "type": "function"
    },
    {
      "inputs": [
        {
          "internalType": "string",
          "name": "_lawyerName",
          "type": "string"
        },
        {
          "internalType": "string",
          "name": "_lawyernic",
          "type": "string"
        },
        {
          "internalType": "string",
          "name": "_lawyerRegNo",
          "type": "string"
        },
        {
          "internalType": "string",
          "name": "_lawyerEmail",
          "type": "string"
        },
        {
          "internalType": "uint256",
          "name": "_lawyerTelephoneNumber",
          "type": "uint256"
        }
      ],
      "name": "registerLawyer",
      "outputs": [],
      "stateMutability": "nonpayable",
      "type": "function"
    },
    {
      "inputs": [
        {
          "internalType": "uint256",
          "name": "index",
          "type": "uint256"
        }
      ],
      "name": "getLawyerId",
      "outputs": [
        {
          "internalType": "uint256",
          "name": "",
          "type": "uint256"
        }
      ],
      "stateMutability": "view",
      "type": "function",
      "constant": true
    },
    {
      "inputs": [
        {
          "internalType": "uint256",
          "name": "index",
          "type": "uint256"
        }
      ],
      "name": "getLawyerName",
      "outputs": [
        {
          "internalType": "string",
          "name": "",
          "type": "string"
        }
      ],
      "stateMutability": "view",
      "type": "function",
      "constant": true
    },
    {
      "inputs": [
        {
          "internalType": "uint256",
          "name": "index",
          "type": "uint256"
        }
      ],
      "name": "getLawyerNic",
      "outputs": [
        {
          "internalType": "string",
          "name": "",
          "type": "string"
        }
      ],
      "stateMutability": "view",
      "type": "function",
      "constant": true
    },
    {
      "inputs": [
        {
          "internalType": "uint256",
          "name": "index",
          "type": "uint256"
        }
      ],
      "name": "getLawyerRegNo",
      "outputs": [
        {
          "internalType": "string",
          "name": "",
          "type": "string"
        }
      ],
      "stateMutability": "view",
      "type": "function",
      "constant": true
    },
    {
      "inputs": [
        {
          "internalType": "uint256",
          "name": "index",
          "type": "uint256"
        }
      ],
      "name": "getLawyerEmail",
      "outputs": [
        {
          "internalType": "string",
          "name": "",
          "type": "string"
        }
      ],
      "stateMutability": "view",
      "type": "function",
      "constant": true
    },
    {
      "inputs": [
        {
          "internalType": "uint256",
          "name": "index",
          "type": "uint256"
        }
      ],
      "name": "getLawyerTelephoneNumber",
      "outputs": [
        {
          "internalType": "uint256",
          "name": "",
          "type": "uint256"
        }
      ],
      "stateMutability": "view",
      "type": "function",
      "constant": true
    },
    {
      "inputs": [
        {
          "internalType": "uint256",
          "name": "index",
          "type": "uint256"
        }
      ],
      "name": "getSellerId",
      "outputs": [
        {
          "internalType": "uint256",
          "name": "",
          "type": "uint256"
        }
      ],
      "stateMutability": "view",
      "type": "function",
      "constant": true
    },
    {
      "inputs": [
        {
          "internalType": "uint256",
          "name": "index",
          "type": "uint256"
        }
      ],
      "name": "getSellerName",
      "outputs": [
        {
          "internalType": "string",
          "name": "",
          "type": "string"
        }
      ],
      "stateMutability": "view",
      "type": "function",
      "constant": true
    },
    {
      "inputs": [
        {
          "internalType": "uint256",
          "name": "index",
          "type": "uint256"
        }
      ],
      "name": "getSellerNic",
      "outputs": [
        {
          "internalType": "string",
          "name": "",
          "type": "string"
        }
      ],
      "stateMutability": "view",
      "type": "function",
      "constant": true
    },
    {
      "inputs": [
        {
          "internalType": "uint256",
          "name": "index",
          "type": "uint256"
        }
      ],
      "name": "getSellerAge",
      "outputs": [
        {
          "internalType": "uint256",
          "name": "",
          "type": "uint256"
        }
      ],
      "stateMutability": "view",
      "type": "function",
      "constant": true
    },
    {
      "inputs": [
        {
          "internalType": "uint256",
          "name": "index",
          "type": "uint256"
        }
      ],
      "name": "getSellerCity",
      "outputs": [
        {
          "internalType": "string",
          "name": "",
          "type": "string"
        }
      ],
      "stateMutability": "view",
      "type": "function",
      "constant": true
    },
    {
      "inputs": [
        {
          "internalType": "uint256",
          "name": "index",
          "type": "uint256"
        }
      ],
      "name": "getSellerEmail",
      "outputs": [
        {
          "internalType": "string",
          "name": "",
          "type": "string"
        }
      ],
      "stateMutability": "view",
      "type": "function",
      "constant": true
    },
    {
      "inputs": [
        {
          "internalType": "uint256",
          "name": "index",
          "type": "uint256"
        }
      ],
      "name": "getSellerTelephoneNo",
      "outputs": [
        {
          "internalType": "uint256",
          "name": "",
          "type": "uint256"
        }
      ],
      "stateMutability": "view",
      "type": "function",
      "constant": true
    },
    {
      "inputs": [],
      "name": "getAdminId",
      "outputs": [
        {
          "internalType": "uint256",
          "name": "",
          "type": "uint256"
        }
      ],
      "stateMutability": "view",
      "type": "function",
      "constant": true
    },
    {
      "inputs": [],
      "name": "getAdminPassword",
      "outputs": [
        {
          "internalType": "string",
          "name": "",
          "type": "string"
        }
      ],
      "stateMutability": "view",
      "type": "function",
      "constant": true
    },
    {
      "inputs": [
        {
          "internalType": "uint256",
          "name": "frontendCounter",
          "type": "uint256"
        }
      ],
      "name": "getDeedIdFromHistory",
      "outputs": [
        {
          "internalType": "uint256",
          "name": "",
          "type": "uint256"
        }
      ],
      "stateMutability": "view",
      "type": "function",
      "constant": true
    },
    {
      "inputs": [
        {
          "internalType": "uint256",
          "name": "frontendCounter",
          "type": "uint256"
        }
      ],
      "name": "getOldLawyerIdFromHistory",
      "outputs": [
        {
          "internalType": "uint256",
          "name": "",
          "type": "uint256"
        }
      ],
      "stateMutability": "view",
      "type": "function",
      "constant": true
    },
    {
      "inputs": [
        {
          "internalType": "uint256",
          "name": "frontendCounter",
          "type": "uint256"
        }
      ],
      "name": "getOldSellerIdFromHistory",
      "outputs": [
        {
          "internalType": "uint256",
          "name": "",
          "type": "uint256"
        }
      ],
      "stateMutability": "view",
      "type": "function",
      "constant": true
    }
  ],
  "bytecode": "0x6080604052600060055560006006556000600755600060085560006009553480156200002a57600080fd5b50604051806040016040528060095481526020016040518060400160405280600381526020017f3132330000000000000000000000000000000000000000000000000000000000815250815250600460006009548152602001908152602001600020600082015181600001556020820151816001019080519060200190620000b4929190620000d8565b5090505060096000815480929190620000cd90620001c1565b919050555062000274565b828054620000e6906200023e565b90600052602060002090601f0160209004810192826200010a576000855562000156565b82601f106200012557805160ff191683800117855562000156565b8280016001018555821562000156579182015b828111156200015557825182559160200191906001019062000138565b5b50905062000165919062000169565b5090565b5b80821115620001845760008160009055506001016200016a565b5090565b7f4e487b7100000000000000000000000000000000000000000000000000000000600052601160045260246000fd5b6000819050919050565b6000620001ce82620001b7565b91507fffffffffffffffffffffffffffffffffffffffffffffffffffffffffffffffff82141562000204576200020362000188565b5b600182019050919050565b7f4e487b7100000000000000000000000000000000000000000000000000000000600052602260045260246000fd5b600060028204905060018216806200025757607f821691505b602082108114156200026e576200026d6200020f565b5b50919050565b61357d80620002846000396000f3fe608060405234801561001057600080fd5b50600436106102745760003560e01c80637e45aa2511610151578063bc3de01f116100c3578063dd9d122d11610087578063dd9d122d146108f1578063df0a1c2a1461090f578063e084ada11461093f578063f0b93af91461096f578063f8a386051461099f578063ffb434fb146109cf57610274565b8063bc3de01f14610824578063bd79497514610854578063cff0c7c014610870578063d26abb1a146108a5578063d96b0a55146108c157610274565b8063a4cbf3e311610115578063a4cbf3e314610714578063a998593814610744578063aca5577314610762578063b432183214610792578063b998b87c146107c2578063bbdad593146107f257610274565b80637e45aa25146106485780637ea1449f146106785780638b7bf3eb146106965780639614681b146106b45780639cd681f5146106e457610274565b8063334bb745116101ea578063655dc4c2116101ae578063655dc4c2146105485780636c218b171461056657806370ffbdd214610596578063721fa418146105c657806374cfe475146105e25780637c6eb1031461061257610274565b8063334bb7451461047e57806335a82e721461049c57806344613830146104cc57806359c73c26146104fc5780635dd567981461051857610274565b806318edf5641161023c57806318edf564146103555780631a0849611461038d57806321eb5a7c146103bd57806328bcb418146103ee57806330c9fb481461041e57806332a678531461044e57610274565b806305624d35146102795780630cc543b6146102a95780630df74d36146102d95780630df7ec24146102f5578063188a937914610325575b600080fd5b610293600480360381019061028e9190612a65565b6109ff565b6040516102a09190612b2b565b60405180910390f35b6102c360048036038101906102be9190612a65565b610aa6565b6040516102d09190612b5c565b60405180910390f35b6102f360048036038101906102ee9190612cac565b610ac6565b005b61030f600480360381019061030a9190612a65565b610bc5565b60405161031c9190612b5c565b60405180910390f35b61033f600480360381019061033a9190612a65565b610be4565b60405161034c9190612b2b565b60405180910390f35b61036f600480360381019061036a9190612a65565b610c8b565b60405161038499989796959493929190612da9565b60405180910390f35b6103a760048036038101906103a29190612a65565b611009565b6040516103b49190612b5c565b60405180910390f35b6103d760048036038101906103d29190612a65565b611029565b6040516103e5929190612e60565b60405180910390f35b61040860048036038101906104039190612a65565b6110d5565b6040516104159190612b5c565b60405180910390f35b61043860048036038101906104339190612a65565b6110f5565b6040516104459190612b2b565b60405180910390f35b61046860048036038101906104639190612a65565b61119d565b6040516104759190612b2b565b60405180910390f35b610486611244565b6040516104939190612b5c565b60405180910390f35b6104b660048036038101906104b19190612a65565b61124e565b6040516104c39190612b5c565b60405180910390f35b6104e660048036038101906104e19190612e90565b61126d565b6040516104f39190612ef2565b60405180910390f35b61051660048036038101906105119190612f0d565b61138c565b005b610532600480360381019061052d9190612a65565b611464565b60405161053f9190612b5c565b60405180910390f35b610550611483565b60405161055d9190612b5c565b60405180910390f35b610580600480360381019061057b9190612a65565b61148d565b60405161058d9190612b5c565b60405180910390f35b6105b060048036038101906105ab9190612a65565b6114ad565b6040516105bd9190612b2b565b60405180910390f35b6105e060048036038101906105db9190612f60565b611555565b005b6105fc60048036038101906105f79190612a65565b6116d1565b6040516106099190612b5c565b60405180910390f35b61062c60048036038101906106279190612a65565b6116f1565b60405161063f979695949392919061308e565b60405180910390f35b610662600480360381019061065d9190612a65565b611953565b60405161066f9190612b2b565b60405180910390f35b6106806119fb565b60405161068d9190612b5c565b60405180910390f35b61069e611a19565b6040516106ab9190612b5c565b60405180910390f35b6106ce60048036038101906106c99190613119565b611a23565b6040516106db9190612ef2565b60405180910390f35b6106fe60048036038101906106f99190612a65565b611e00565b60405161070b9190612b2b565b60405180910390f35b61072e60048036038101906107299190612a65565b611ea7565b60405161073b9190612b5c565b60405180910390f35b61074c611ec7565b6040516107599190612b2b565b60405180910390f35b61077c60048036038101906107779190612a65565b611f6d565b6040516107899190612b2b565b60405180910390f35b6107ac60048036038101906107a79190612a65565b612015565b6040516107b99190612b2b565b60405180910390f35b6107dc60048036038101906107d79190612e90565b6120bd565b6040516107e99190612ef2565b60405180910390f35b61080c60048036038101906108079190612a65565b6121dc565b60405161081b93929190613220565b60405180910390f35b61083e60048036038101906108399190612a65565b612206565b60405161084b9190612b5c565b60405180910390f35b61086e60048036038101906108699190613257565b612226565b005b61088a60048036038101906108859190612a65565b612254565b60405161089c969594939291906132b3565b60405180910390f35b6108bf60048036038101906108ba9190613330565b6124b0565b005b6108db60048036038101906108d69190612a65565b61259e565b6040516108e89190612b2b565b60405180910390f35b6108f9612646565b6040516109069190612b5c565b60405180910390f35b61092960048036038101906109249190612a65565b612650565b6040516109369190612b2b565b60405180910390f35b61095960048036038101906109549190612a65565b6126f8565b6040516109669190612b2b565b60405180910390f35b61098960048036038101906109849190612a65565b6127a0565b6040516109969190612b2b565b60405180910390f35b6109b960048036038101906109b49190612a65565b612847565b6040516109c69190612b5c565b60405180910390f35b6109e960048036038101906109e49190612a65565b612867565b6040516109f69190612b2b565b60405180910390f35b60606000808381526020019081526020016000206005018054610a219061344a565b80601f0160208091040260200160405190810160405280929190818152602001828054610a4d9061344a565b8015610a9a5780601f10610a6f57610100808354040283529160200191610a9a565b820191906000526020600020905b815481529060010190602001808311610a7d57829003601f168201915b50505050509050919050565b600060026000838152602001908152602001600020600601549050919050565b6040518060e001604052808781526020016007548152602001868152602001858152602001848152602001838152602001828152506002600060075481526020019081526020016000206000820151816000019080519060200190610b2c929190612978565b50602082015181600101556040820151816002019080519060200190610b53929190612978565b50606082015181600301556080820151816004019080519060200190610b7a929190612978565b5060a0820151816005019080519060200190610b97929190612978565b5060c0820151816006015590505060076000815480929190610bb8906134ab565b9190505550505050505050565b6000806000838152602001908152602001600020600001549050919050565b60606000808381526020019081526020016000206001018054610c069061344a565b80601f0160208091040260200160405190810160405280929190818152602001828054610c329061344a565b8015610c7f5780601f10610c5457610100808354040283529160200191610c7f565b820191906000526020600020905b815481529060010190602001808311610c6257829003601f168201915b50505050509050919050565b6000602052806000526040600020600091509050806000015490806001018054610cb49061344a565b80601f0160208091040260200160405190810160405280929190818152602001828054610ce09061344a565b8015610d2d5780601f10610d0257610100808354040283529160200191610d2d565b820191906000526020600020905b815481529060010190602001808311610d1057829003601f168201915b505050505090806002018054610d429061344a565b80601f0160208091040260200160405190810160405280929190818152602001828054610d6e9061344a565b8015610dbb5780601f10610d9057610100808354040283529160200191610dbb565b820191906000526020600020905b815481529060010190602001808311610d9e57829003601f168201915b505050505090806003018054610dd09061344a565b80601f0160208091040260200160405190810160405280929190818152602001828054610dfc9061344a565b8015610e495780601f10610e1e57610100808354040283529160200191610e49565b820191906000526020600020905b815481529060010190602001808311610e2c57829003601f168201915b505050505090806004018054610e5e9061344a565b80601f0160208091040260200160405190810160405280929190818152602001828054610e8a9061344a565b8015610ed75780601f10610eac57610100808354040283529160200191610ed7565b820191906000526020600020905b815481529060010190602001808311610eba57829003601f168201915b505050505090806005018054610eec9061344a565b80601f0160208091040260200160405190810160405280929190818152602001828054610f189061344a565b8015610f655780601f10610f3a57610100808354040283529160200191610f65565b820191906000526020600020905b815481529060010190602001808311610f4857829003601f168201915b505050505090806006018054610f7a9061344a565b80601f0160208091040260200160405190810160405280929190818152602001828054610fa69061344a565b8015610ff35780601f10610fc857610100808354040283529160200191610ff3565b820191906000526020600020905b815481529060010190602001808311610fd657829003601f168201915b5050505050908060070154908060080154905089565b600060016000838152602001908152602001600020600001549050919050565b60046020528060005260406000206000915090508060000154908060010180546110529061344a565b80601f016020809104026020016040519081016040528092919081815260200182805461107e9061344a565b80156110cb5780601f106110a0576101008083540402835291602001916110cb565b820191906000526020600020905b8154815290600101906020018083116110ae57829003601f168201915b5050505050905082565b600060016000838152602001908152602001600020600201549050919050565b60606003600083815260200190815260200160002060040180546111189061344a565b80601f01602080910402602001604051908101604052809291908181526020018280546111449061344a565b80156111915780601f1061116657610100808354040283529160200191611191565b820191906000526020600020905b81548152906001019060200180831161117457829003601f168201915b50505050509050919050565b606060008083815260200190815260200160002060020180546111bf9061344a565b80601f01602080910402602001604051908101604052809291908181526020018280546111eb9061344a565b80156112385780601f1061120d57610100808354040283529160200191611238565b820191906000526020600020905b81548152906001019060200180831161121b57829003601f168201915b50505050509050919050565b6000600554905090565b6000806000838152602001908152602001600020600701549050919050565b6000806000905060007fffffffffffffffffffffffffffffffffffffffffffffffffffffffffffffffff90505b6007548210156113825761134c846002600085815260200190815260200160002060050180546112c99061344a565b80601f01602080910402602001604051908101604052809291908181526020018280546112f59061344a565b80156113425780601f1061131757610100808354040283529160200191611342565b820191906000526020600020905b81548152906001019060200180831161132557829003601f168201915b505050505061290e565b1561136f5760026000838152602001908152602001600020600101549050611382565b818061137a906134ab565b92505061129a565b8092505050919050565b6000806000858152602001908152602001600020600701549050600080600086815260200190815260200160002060080154905060405180606001604052808681526020018381526020018281525060016000600654815260200190815260200160002060008201518160000155602082015181600101556040820151816002015590505060066000815480929190611424906134ab565b9190505550836000808781526020019081526020016000206007018190555082600080878152602001908152602001600020600801819055505050505050565b6000806000838152602001908152602001600020600801549050919050565b6000600854905090565b600060036000838152602001908152602001600020600001549050919050565b60606002600083815260200190815260200160002060020180546114d09061344a565b80601f01602080910402602001604051908101604052809291908181526020018280546114fc9061344a565b80156115495780601f1061151e57610100808354040283529160200191611549565b820191906000526020600020905b81548152906001019060200180831161152c57829003601f168201915b50505050509050919050565b60405180610120016040528060055481526020016040518060400160405280600781526020017f3c49504653233e000000000000000000000000000000000000000000000000008152508152602001888152602001878152602001868152602001858152602001848152602001838152602001828152506000806005548152602001908152602001600020600082015181600001556020820151816001019080519060200190611606929190612978565b506040820151816002019080519060200190611623929190612978565b506060820151816003019080519060200190611640929190612978565b50608082015181600401908051906020019061165d929190612978565b5060a082015181600501908051906020019061167a929190612978565b5060c0820151816006019080519060200190611697929190612978565b5060e082015181600701556101008201518160080155905050600560008154809291906116c3906134ab565b919050555050505050505050565b600060026000838152602001908152602001600020600101549050919050565b60026020528060005260406000206000915090508060000180546117149061344a565b80601f01602080910402602001604051908101604052809291908181526020018280546117409061344a565b801561178d5780601f106117625761010080835404028352916020019161178d565b820191906000526020600020905b81548152906001019060200180831161177057829003601f168201915b5050505050908060010154908060020180546117a89061344a565b80601f01602080910402602001604051908101604052809291908181526020018280546117d49061344a565b80156118215780601f106117f657610100808354040283529160200191611821565b820191906000526020600020905b81548152906001019060200180831161180457829003601f168201915b50505050509080600301549080600401805461183c9061344a565b80601f01602080910402602001604051908101604052809291908181526020018280546118689061344a565b80156118b55780601f1061188a576101008083540402835291602001916118b5565b820191906000526020600020905b81548152906001019060200180831161189857829003601f168201915b5050505050908060050180546118ca9061344a565b80601f01602080910402602001604051908101604052809291908181526020018280546118f69061344a565b80156119435780601f1061191857610100808354040283529160200191611943565b820191906000526020600020905b81548152906001019060200180831161192657829003601f168201915b5050505050908060060154905087565b60606003600083815260200190815260200160002060010180546119769061344a565b80601f01602080910402602001604051908101604052809291908181526020018280546119a29061344a565b80156119ef5780601f106119c4576101008083540402835291602001916119ef565b820191906000526020600020905b8154815290600101906020018083116119d257829003601f168201915b50505050509050919050565b60006004600080815260200190815260200160002060000154905090565b6000600954905090565b6000806000905060007fffffffffffffffffffffffffffffffffffffffffffffffffffffffffffffffff90505b600554821015611df257611b01886000808581526020019081526020016000206002018054611a7e9061344a565b80601f0160208091040260200160405190810160405280929190818152602001828054611aaa9061344a565b8015611af75780601f10611acc57610100808354040283529160200191611af7565b820191906000526020600020905b815481529060010190602001808311611ada57829003601f168201915b505050505061290e565b8015611bb05750611baf876000808581526020019081526020016000206003018054611b2c9061344a565b80601f0160208091040260200160405190810160405280929190818152602001828054611b589061344a565b8015611ba55780601f10611b7a57610100808354040283529160200191611ba5565b820191906000526020600020905b815481529060010190602001808311611b8857829003601f168201915b505050505061290e565b5b8015611c5f5750611c5e866000808581526020019081526020016000206004018054611bdb9061344a565b80601f0160208091040260200160405190810160405280929190818152602001828054611c079061344a565b8015611c545780601f10611c2957610100808354040283529160200191611c54565b820191906000526020600020905b815481529060010190602001808311611c3757829003601f168201915b505050505061290e565b5b8015611d0e5750611d0d856000808581526020019081526020016000206005018054611c8a9061344a565b80601f0160208091040260200160405190810160405280929190818152602001828054611cb69061344a565b8015611d035780601f10611cd857610100808354040283529160200191611d03565b820191906000526020600020905b815481529060010190602001808311611ce657829003601f168201915b505050505061290e565b5b8015611dbd5750611dbc846000808581526020019081526020016000206006018054611d399061344a565b80601f0160208091040260200160405190810160405280929190818152602001828054611d659061344a565b8015611db25780601f10611d8757610100808354040283529160200191611db2565b820191906000526020600020905b815481529060010190602001808311611d9557829003601f168201915b505050505061290e565b5b15611ddf57600080838152602001908152602001600020600001549050611df2565b8180611dea906134ab565b925050611a50565b809250505095945050505050565b60606000808381526020019081526020016000206006018054611e229061344a565b80601f0160208091040260200160405190810160405280929190818152602001828054611e4e9061344a565b8015611e9b5780601f10611e7057610100808354040283529160200191611e9b565b820191906000526020600020905b815481529060010190602001808311611e7e57829003601f168201915b50505050509050919050565b600060016000838152602001908152602001600020600101549050919050565b6060600460008081526020019081526020016000206001018054611eea9061344a565b80601f0160208091040260200160405190810160405280929190818152602001828054611f169061344a565b8015611f635780601f10611f3857610100808354040283529160200191611f63565b820191906000526020600020905b815481529060010190602001808311611f4657829003601f168201915b5050505050905090565b6060600360008381526020019081526020016000206003018054611f909061344a565b80601f0160208091040260200160405190810160405280929190818152602001828054611fbc9061344a565b80156120095780601f10611fde57610100808354040283529160200191612009565b820191906000526020600020905b815481529060010190602001808311611fec57829003601f168201915b50505050509050919050565b60606002600083815260200190815260200160002060000180546120389061344a565b80601f01602080910402602001604051908101604052809291908181526020018280546120649061344a565b80156120b15780601f10612086576101008083540402835291602001916120b1565b820191906000526020600020905b81548152906001019060200180831161209457829003601f168201915b50505050509050919050565b6000806000905060007fffffffffffffffffffffffffffffffffffffffffffffffffffffffffffffffff90505b6008548210156121d25761219c846003600085815260200190815260200160002060040180546121199061344a565b80601f01602080910402602001604051908101604052809291908181526020018280546121459061344a565b80156121925780601f1061216757610100808354040283529160200191612192565b820191906000526020600020905b81548152906001019060200180831161217557829003601f168201915b505050505061290e565b156121bf57600360008381526020019081526020016000206000015490506121d2565b81806121ca906134ab565b9250506120ea565b8092505050919050565b60016020528060005260406000206000915090508060000154908060010154908060020154905083565b600060036000838152602001908152602001600020600501549050919050565b80600080848152602001908152602001600020600101908051906020019061224f929190612978565b505050565b600360205280600052604060002060009150905080600001549080600101805461227d9061344a565b80601f01602080910402602001604051908101604052809291908181526020018280546122a99061344a565b80156122f65780601f106122cb576101008083540402835291602001916122f6565b820191906000526020600020905b8154815290600101906020018083116122d957829003601f168201915b50505050509080600201805461230b9061344a565b80601f01602080910402602001604051908101604052809291908181526020018280546123379061344a565b80156123845780601f1061235957610100808354040283529160200191612384565b820191906000526020600020905b81548152906001019060200180831161236757829003601f168201915b5050505050908060030180546123999061344a565b80601f01602080910402602001604051908101604052809291908181526020018280546123c59061344a565b80156124125780601f106123e757610100808354040283529160200191612412565b820191906000526020600020905b8154815290600101906020018083116123f557829003601f168201915b5050505050908060040180546124279061344a565b80601f01602080910402602001604051908101604052809291908181526020018280546124539061344a565b80156124a05780601f10612475576101008083540402835291602001916124a0565b820191906000526020600020905b81548152906001019060200180831161248357829003601f168201915b5050505050908060050154905086565b6040518060c0016040528060085481526020018681526020018581526020018481526020018381526020018281525060036000600854815260200190815260200160002060008201518160000155602082015181600101908051906020019061251a929190612978565b506040820151816002019080519060200190612537929190612978565b506060820151816003019080519060200190612554929190612978565b506080820151816004019080519060200190612571929190612978565b5060a0820151816005015590505060086000815480929190612592906134ab565b91905055505050505050565b60606002600083815260200190815260200160002060040180546125c19061344a565b80601f01602080910402602001604051908101604052809291908181526020018280546125ed9061344a565b801561263a5780601f1061260f5761010080835404028352916020019161263a565b820191906000526020600020905b81548152906001019060200180831161261d57829003601f168201915b50505050509050919050565b6000600754905090565b60606003600083815260200190815260200160002060020180546126739061344a565b80601f016020809104026020016040519081016040528092919081815260200182805461269f9061344a565b80156126ec5780601f106126c1576101008083540402835291602001916126ec565b820191906000526020600020905b8154815290600101906020018083116126cf57829003601f168201915b50505050509050919050565b606060026000838152602001908152602001600020600501805461271b9061344a565b80601f01602080910402602001604051908101604052809291908181526020018280546127479061344a565b80156127945780601f1061276957610100808354040283529160200191612794565b820191906000526020600020905b81548152906001019060200180831161277757829003601f168201915b50505050509050919050565b606060008083815260200190815260200160002060040180546127c29061344a565b80601f01602080910402602001604051908101604052809291908181526020018280546127ee9061344a565b801561283b5780601f106128105761010080835404028352916020019161283b565b820191906000526020600020905b81548152906001019060200180831161281e57829003601f168201915b50505050509050919050565b600060026000838152602001908152602001600020600301549050919050565b606060008083815260200190815260200160002060030180546128899061344a565b80601f01602080910402602001604051908101604052809291908181526020018280546128b59061344a565b80156129025780601f106128d757610100808354040283529160200191612902565b820191906000526020600020905b8154815290600101906020018083116128e557829003601f168201915b50505050509050919050565b6000816040516020016129219190613530565b60405160208183030381529060405280519060200120836040516020016129489190613530565b60405160208183030381529060405280519060200120141561296d5760019050612972565b600090505b92915050565b8280546129849061344a565b90600052602060002090601f0160209004810192826129a657600085556129ed565b82601f106129bf57805160ff19168380011785556129ed565b828001600101855582156129ed579182015b828111156129ec5782518255916020019190600101906129d1565b5b5090506129fa91906129fe565b5090565b5b80821115612a175760008160009055506001016129ff565b5090565b6000604051905090565b600080fd5b600080fd5b6000819050919050565b612a4281612a2f565b8114612a4d57600080fd5b50565b600081359050612a5f81612a39565b92915050565b600060208284031215612a7b57612a7a612a25565b5b6000612a8984828501612a50565b91505092915050565b600081519050919050565b600082825260208201905092915050565b60005b83811015612acc578082015181840152602081019050612ab1565b83811115612adb576000848401525b50505050565b6000601f19601f8301169050919050565b6000612afd82612a92565b612b078185612a9d565b9350612b17818560208601612aae565b612b2081612ae1565b840191505092915050565b60006020820190508181036000830152612b458184612af2565b905092915050565b612b5681612a2f565b82525050565b6000602082019050612b716000830184612b4d565b92915050565b600080fd5b600080fd5b7f4e487b7100000000000000000000000000000000000000000000000000000000600052604160045260246000fd5b612bb982612ae1565b810181811067ffffffffffffffff82111715612bd857612bd7612b81565b5b80604052505050565b6000612beb612a1b565b9050612bf78282612bb0565b919050565b600067ffffffffffffffff821115612c1757612c16612b81565b5b612c2082612ae1565b9050602081019050919050565b82818337600083830152505050565b6000612c4f612c4a84612bfc565b612be1565b905082815260208101848484011115612c6b57612c6a612b7c565b5b612c76848285612c2d565b509392505050565b600082601f830112612c9357612c92612b77565b5b8135612ca3848260208601612c3c565b91505092915050565b60008060008060008060c08789031215612cc957612cc8612a25565b5b600087013567ffffffffffffffff811115612ce757612ce6612a2a565b5b612cf389828a01612c7e565b965050602087013567ffffffffffffffff811115612d1457612d13612a2a565b5b612d2089828a01612c7e565b9550506040612d3189828a01612a50565b945050606087013567ffffffffffffffff811115612d5257612d51612a2a565b5b612d5e89828a01612c7e565b935050608087013567ffffffffffffffff811115612d7f57612d7e612a2a565b5b612d8b89828a01612c7e565b92505060a0612d9c89828a01612a50565b9150509295509295509295565b600061012082019050612dbf600083018c612b4d565b8181036020830152612dd1818b612af2565b90508181036040830152612de5818a612af2565b90508181036060830152612df98189612af2565b90508181036080830152612e0d8188612af2565b905081810360a0830152612e218187612af2565b905081810360c0830152612e358186612af2565b9050612e4460e0830185612b4d565b612e52610100830184612b4d565b9a9950505050505050505050565b6000604082019050612e756000830185612b4d565b8181036020830152612e878184612af2565b90509392505050565b600060208284031215612ea657612ea5612a25565b5b600082013567ffffffffffffffff811115612ec457612ec3612a2a565b5b612ed084828501612c7e565b91505092915050565b6000819050919050565b612eec81612ed9565b82525050565b6000602082019050612f076000830184612ee3565b92915050565b600080600060608486031215612f2657612f25612a25565b5b6000612f3486828701612a50565b9350506020612f4586828701612a50565b9250506040612f5686828701612a50565b9150509250925092565b600080600080600080600060e0888a031215612f7f57612f7e612a25565b5b600088013567ffffffffffffffff811115612f9d57612f9c612a2a565b5b612fa98a828b01612c7e565b975050602088013567ffffffffffffffff811115612fca57612fc9612a2a565b5b612fd68a828b01612c7e565b965050604088013567ffffffffffffffff811115612ff757612ff6612a2a565b5b6130038a828b01612c7e565b955050606088013567ffffffffffffffff81111561302457613023612a2a565b5b6130308a828b01612c7e565b945050608088013567ffffffffffffffff81111561305157613050612a2a565b5b61305d8a828b01612c7e565b93505060a061306e8a828b01612a50565b92505060c061307f8a828b01612a50565b91505092959891949750929550565b600060e08201905081810360008301526130a8818a612af2565b90506130b76020830189612b4d565b81810360408301526130c98188612af2565b90506130d86060830187612b4d565b81810360808301526130ea8186612af2565b905081810360a08301526130fe8185612af2565b905061310d60c0830184612b4d565b98975050505050505050565b600080600080600060a0868803121561313557613134612a25565b5b600086013567ffffffffffffffff81111561315357613152612a2a565b5b61315f88828901612c7e565b955050602086013567ffffffffffffffff8111156131805761317f612a2a565b5b61318c88828901612c7e565b945050604086013567ffffffffffffffff8111156131ad576131ac612a2a565b5b6131b988828901612c7e565b935050606086013567ffffffffffffffff8111156131da576131d9612a2a565b5b6131e688828901612c7e565b925050608086013567ffffffffffffffff81111561320757613206612a2a565b5b61321388828901612c7e565b9150509295509295909350565b60006060820190506132356000830186612b4d565b6132426020830185612b4d565b61324f6040830184612b4d565b949350505050565b6000806040838503121561326e5761326d612a25565b5b600061327c85828601612a50565b925050602083013567ffffffffffffffff81111561329d5761329c612a2a565b5b6132a985828601612c7e565b9150509250929050565b600060c0820190506132c86000830189612b4d565b81810360208301526132da8188612af2565b905081810360408301526132ee8187612af2565b905081810360608301526133028186612af2565b905081810360808301526133168185612af2565b905061332560a0830184612b4d565b979650505050505050565b600080600080600060a0868803121561334c5761334b612a25565b5b600086013567ffffffffffffffff81111561336a57613369612a2a565b5b61337688828901612c7e565b955050602086013567ffffffffffffffff81111561339757613396612a2a565b5b6133a388828901612c7e565b945050604086013567ffffffffffffffff8111156133c4576133c3612a2a565b5b6133d088828901612c7e565b935050606086013567ffffffffffffffff8111156133f1576133f0612a2a565b5b6133fd88828901612c7e565b925050608061340e88828901612a50565b9150509295509295909350565b7f4e487b7100000000000000000000000000000000000000000000000000000000600052602260045260246000fd5b6000600282049050600182168061346257607f821691505b602082108114156134765761347561341b565b5b50919050565b7f4e487b7100000000000000000000000000000000000000000000000000000000600052601160045260246000fd5b60006134b682612a2f565b91507fffffffffffffffffffffffffffffffffffffffffffffffffffffffffffffffff8214156134e9576134e861347c565b5b600182019050919050565b600081905092915050565b600061350a82612a92565b61351481856134f4565b9350613524818560208601612aae565b80840191505092915050565b600061353c82846134ff565b91508190509291505056fea2646970667358221220595fe9a0f1afd8fc96175182b7c565d58d3a36f1a8a85abdf8ba46edb37cea9e64736f6c634300080a0033",
  "immutableReferences": {},
  "source": "// SPDX-License-Identifier: MIT\r\npragma solidity >=0.4.22 <0.9.0;\r\n\r\ncontract Land {\r\n    \r\n    // structs\r\n    struct LawyerIdSellerId {\r\n\r\n        uint deedIdLink; // to link the relevant deed\r\n        uint oldLawyerId;\r\n        uint oldSellerId;\r\n    }\r\n\r\n    struct Deed {\r\n        // deed instance variables\r\n        uint deedId;\r\n        string ipfsHash;\r\n        string no;\r\n        string streetName;\r\n        string city;\r\n        string district;\r\n        string province;\r\n        uint assignedLawyerId; // to link the relevant lawyer to the deed\r\n        uint assignedSellerId; // to link the relevant seller to the deed\r\n    }\r\n\r\n    struct Lawyer{\r\n        // Lawyer instance variables\r\n        uint lawyerId;\r\n        string lawyerName;\r\n        string lawyernic;\r\n        string lawyerRegNo;\r\n        string lawyerEmail;\r\n        uint lawyerTelephoneNumber;\r\n    }\r\n\r\n    struct Seller {\r\n        // Seller instance variables\r\n        string name;\r\n\t\tuint id;\r\n\t\tstring nic;\r\n        uint age;\r\n        string city;\r\n\t\tstring email;\r\n        uint telephoneNumber;\r\n    }\r\n\r\n    struct Admin {\r\n        // Admin instance variables\r\n        uint id;\r\n        string adminPassword;\r\n    }\r\n\r\n    // mappings\r\n    mapping(uint => Deed) public deeds;\r\n    mapping(uint => LawyerIdSellerId) public deedsVersionHistory;\r\n    mapping(uint => Seller) public sellersMapping;\r\n    mapping(uint => Lawyer) public Lawyersmapping;\r\n    mapping(uint => Admin) public adminMapping;\r\n    \r\n    // Count tracking variables\r\n    uint private deedCount = 0;\r\n    uint private deedsVersionHistoryCount = 0;\r\n    uint private sellersCount = 0;\r\n    uint private lawyerCount = 0;\r\n    uint private adminCount = 0;\r\n\r\n    constructor() public {\r\n        // initializing the admin\r\n        adminMapping[adminCount] = Admin(adminCount, \"123\");\r\n        adminCount++;\r\n    }    \r\n\r\n    function getHashFromDeed(uint index) public view returns (string memory) {   \r\n        return deeds[index].ipfsHash;\r\n    }\r\n\r\n    function sendHash(uint deedId, string memory x) public {\r\n        deeds[deedId].ipfsHash = x;\r\n    }     \r\n\r\n    // getter for deed count\r\n    function getDeedCount() public view returns (uint) {\r\n        return deedCount;\r\n    }\r\n\r\n    // getter for lawyer count\r\n    function getLawyerCount() public view returns(uint){\r\n        return lawyerCount;\r\n    }\r\n\r\n    // getter for seller count\r\n    function getSellersCount() public view returns(uint){\r\n        return sellersCount;\r\n    }\r\n\r\n    // getter for admin count\r\n    function getAdminCount() public view returns(uint){\r\n        return adminCount;\r\n    }\r\n\r\n    //getters for Deed struct\r\n    function getDeedId(uint index) public view returns (uint) {\r\n        return deeds[index].deedId;\r\n    }\r\n\r\n    function getDeedNo(uint index) public view returns (string memory) {\r\n        return deeds[index].no;\r\n    }\r\n\r\n    function getDeedStreetName(uint index) public view returns (string memory) {\r\n        return deeds[index].streetName;\r\n    }\r\n\r\n    function getDeedCity(uint index) public view returns (string memory) {\r\n        return deeds[index].city;\r\n    }\r\n\r\n    function getDeedDistrict(uint index) public view returns (string memory) {\r\n        return deeds[index].district;\r\n    }\r\n\r\n    function getDeedProvince(uint index) public view returns (string memory) {\r\n        return deeds[index].province;\r\n    }\r\n\r\n    function getLawyerIdOfDeed(uint index) public view returns (uint) {\r\n        return deeds[index].assignedLawyerId;\r\n    }\r\n\r\n    function getSellerIdOfDeed(uint index) public view returns (uint) {\r\n        return deeds[index].assignedSellerId;\r\n    }\r\n\r\n    // function to compare strings\r\n    function compareStrings(string memory s1, string memory s2) private pure returns (bool) {\r\n        if (keccak256(abi.encodePacked(s1)) == keccak256(abi.encodePacked(s2)))\r\n        {\r\n            return true;\r\n        }\r\n        else \r\n        {\r\n            return false;\r\n        }\r\n    }\r\n\r\n    // function to get the deed by the land address for searching purposes\r\n    function findDeedByAddress(string memory _no, string memory _streetName, string memory _city, string memory _district, string memory _province) public view returns (int) {\r\n\r\n        uint i = 0;\r\n        int returningDeedId = -1;\r\n\r\n        while (i < deedCount)\r\n        {\r\n            if (compareStrings(_no, deeds[i].no) && compareStrings(_streetName, deeds[i].streetName) && compareStrings(_city, deeds[i].city) && compareStrings(_district, deeds[i].district) && compareStrings(_province, deeds[i].province))\r\n            {\r\n                returningDeedId = int(deeds[i].deedId);\r\n                break;\r\n            }\r\n\r\n            i++;\r\n        }\r\n\r\n        return returningDeedId;\r\n    }\r\n\r\n    // function to get the lawyer by email\r\n    function findLawyerByEmail(string memory _email) public view returns (int) {\r\n\r\n        uint i = 0;\r\n        int returningLawyerId = -1;\r\n\r\n        while (i < lawyerCount)\r\n        {\r\n            if (compareStrings(_email, Lawyersmapping[i].lawyerEmail))\r\n            {\r\n                returningLawyerId = int(Lawyersmapping[i].lawyerId);\r\n                break;\r\n            }\r\n\r\n            i++;\r\n        }\r\n\r\n        return returningLawyerId;\r\n    }\r\n\r\n    //function to get the seller by email\r\n    function findSellerByEmail(string memory _email) public view returns (int) {\r\n\r\n        uint i = 0;\r\n        int returningSellerId = -1;\r\n\r\n        while (i < sellersCount)\r\n        {\r\n            if (compareStrings(_email, sellersMapping[i].email))\r\n            {\r\n                returningSellerId = int(sellersMapping[i].id);\r\n                break;\r\n            }\r\n\r\n            i++;\r\n        }\r\n\r\n        return returningSellerId;\r\n    }\r\n\r\n    // function to change land deed buyer and seller\r\n    function changeDeedLawyerAndSeller(uint _deedId, uint _assignedLawyerId, uint _assignedSellerId) public {\r\n        // saving the previous lawyer and seller in the history\r\n        uint _oldLawyerId = deeds[_deedId].assignedLawyerId;\r\n        uint _oldSellerId = deeds[_deedId].assignedSellerId;\r\n        deedsVersionHistory[deedsVersionHistoryCount] = LawyerIdSellerId(_deedId, _oldLawyerId, _oldSellerId);\r\n        deedsVersionHistoryCount++;\r\n\r\n        // assigning the new lawyer and seller\r\n        deeds[_deedId].assignedLawyerId = _assignedLawyerId;\r\n        deeds[_deedId].assignedSellerId = _assignedSellerId;\r\n    }\r\n\r\n    // function to add a new deed to the deeds mapping\r\n    function addNewDeed(string memory _no, string memory _streetName, string memory _city, string memory _district, string memory _province, uint _assignedLawyerId, uint _assignedSellerId) public {\r\n        deeds[deedCount] = Deed(deedCount, \"<IPFS#>\", _no,  _streetName, _city, _district, _province, _assignedLawyerId, _assignedSellerId);\r\n        deedCount++;\r\n    }\r\n\r\n    //function to register a seller\r\n    function registerSeller(string memory _name, string memory _nic, uint _age, string memory _city, string memory _email, uint _telephoneNumber) public {\r\n        sellersMapping[sellersCount] = Seller(_name, sellersCount, _nic, _age, _city, _email, _telephoneNumber);\r\n        sellersCount++;\r\n    }\r\n\r\n    //function to register a new Lawyer\r\n    function registerLawyer(string memory _lawyerName, string memory _lawyernic, string memory _lawyerRegNo, string memory _lawyerEmail, uint _lawyerTelephoneNumber) public {\r\n        Lawyersmapping[lawyerCount] = Lawyer(lawyerCount, _lawyerName, _lawyernic, _lawyerRegNo, _lawyerEmail, _lawyerTelephoneNumber);\r\n        lawyerCount++;\r\n    }\r\n\r\n    // function to get the lawyer id\r\n    function getLawyerId(uint index) public view returns (uint) {\r\n        return Lawyersmapping[index].lawyerId;\r\n    }\r\n\r\n    // function to get the lawyer name\r\n    function getLawyerName(uint index) public view returns (string memory) {\r\n        return Lawyersmapping[index].lawyerName;\r\n    }\r\n\r\n    // function to get the lawyer nic\r\n    function getLawyerNic(uint index) public view returns (string memory) {\r\n        return Lawyersmapping[index].lawyernic;\r\n    }\r\n\r\n    // function to get the lawyer reg no\r\n    function getLawyerRegNo(uint index) public view returns (string memory) {\r\n        return Lawyersmapping[index].lawyerRegNo;\r\n    }\r\n\r\n    // function to get the lawyer email\r\n    function getLawyerEmail(uint index) public view returns (string memory) {\r\n        return Lawyersmapping[index].lawyerEmail;\r\n    }\r\n\r\n    // function to get the lawyer email\r\n    function getLawyerTelephoneNumber(uint index) public view returns (uint) {\r\n        return Lawyersmapping[index].lawyerTelephoneNumber;\r\n    }\r\n\r\n    // function to get the seller id\r\n    function getSellerId(uint index) public view returns (uint) {\r\n        return sellersMapping[index].id;\r\n    }\r\n\r\n    // function to get the seller name\r\n    function getSellerName(uint index) public view returns (string memory) {\r\n        return sellersMapping[index].name;\r\n    }\r\n\r\n    // function to get the seller nic\r\n    function getSellerNic(uint index) public view returns (string memory) {\r\n        return sellersMapping[index].nic;\r\n    }\r\n\r\n    // function to get the seller age\r\n    function getSellerAge(uint index) public view returns (uint) {\r\n        return sellersMapping[index].age;\r\n    }\r\n\r\n    // function to get the seller city\r\n    function getSellerCity(uint index) public view returns (string memory) {\r\n        return sellersMapping[index].city;\r\n    }\r\n\r\n    // function to get the seller email\r\n    function getSellerEmail(uint index) public view returns (string memory) {\r\n        return sellersMapping[index].email;\r\n    }\r\n\r\n    // function to get the seller telephonenumber\r\n    function getSellerTelephoneNo(uint index) public view returns (uint) {\r\n        return sellersMapping[index].telephoneNumber;\r\n    }\r\n    \r\n    //function to get admin id\r\n    function getAdminId() public view returns (uint) {\r\n        return adminMapping[0].id;\r\n    }\r\n\r\n    //function to get admin password\r\n    function getAdminPassword() public view returns (string memory) {\r\n        return adminMapping[0].adminPassword;\r\n    }\r\n\r\n    // function to get the deedId from the history\r\n    function getDeedIdFromHistory(uint frontendCounter) public view returns (uint) {\r\n        return deedsVersionHistory[frontendCounter].deedIdLink;\r\n    }\r\n\r\n    // function to get the lawyerId from the history\r\n    function getOldLawyerIdFromHistory(uint frontendCounter) public view returns (uint) {\r\n        return deedsVersionHistory[frontendCounter].oldLawyerId;\r\n    }\r\n\r\n    // function to get the sellerId from the history\r\n    function getOldSellerIdFromHistory(uint frontendCounter) public view returns (uint) {\r\n        return deedsVersionHistory[frontendCounter].oldSellerId;\r\n    }\r\n}\r\n",
  "sourcePath": "C:\\GitHubRepos\\GitHub\\DBLOCK\\backEnd\\contracts\\Land.sol",
  "compiler": {
    "name": "solc",
    "version": "0.8.10+commit.fc410830.Emscripten.clang"
  },
  "schemaVersion": "3.4.3",
  "updatedAt": "2022-04-01T11:43:54.426Z",
  "networkType": "ethereum",
  "devdoc": {
    "kind": "dev",
    "methods": {},
    "version": 1
  },
  "userdoc": {
    "kind": "user",
    "methods": {},
    "version": 1
  }
}