{
  "contractName": "Land",
  "abi": [
    {
      "inputs": [
        {
          "internalType": "uint256",
          "name": "",
          "type": "uint256"
        }
      ],
      "name": "Buyerlist",
      "outputs": [
        {
          "internalType": "address",
          "name": "",
          "type": "address"
        }
      ],
      "stateMutability": "view",
      "type": "function"
    },
    {
      "inputs": [
        {
          "internalType": "uint256",
          "name": "",
          "type": "uint256"
        }
      ],
      "name": "Buyersmapping",
      "outputs": [
        {
          "internalType": "uint256",
          "name": "id",
          "type": "uint256"
        },
        {
          "internalType": "string",
          "name": "nic",
          "type": "string"
        },
        {
          "internalType": "string",
          "name": "name",
          "type": "string"
        },
        {
          "internalType": "uint256",
          "name": "age",
          "type": "uint256"
        },
        {
          "internalType": "string",
          "name": "city",
          "type": "string"
        },
        {
          "internalType": "string",
          "name": "email",
          "type": "string"
        },
        {
          "internalType": "uint256",
          "name": "telephoneNumber",
          "type": "uint256"
        }
      ],
      "stateMutability": "view",
      "type": "function"
    },
    {
      "inputs": [
        {
          "internalType": "uint256",
          "name": "",
          "type": "uint256"
        }
      ],
      "name": "Lawyersmapping",
      "outputs": [
        {
          "internalType": "uint256",
          "name": "lawyerId",
          "type": "uint256"
        },
        {
          "internalType": "string",
          "name": "lawyerName",
          "type": "string"
        },
        {
          "internalType": "string",
          "name": "lawyernic",
          "type": "string"
        },
        {
          "internalType": "string",
          "name": "lawyerRegNo",
          "type": "string"
        },
        {
          "internalType": "string",
          "name": "lawyerEmail",
          "type": "string"
        }
      ],
      "stateMutability": "view",
      "type": "function"
    },
    {
      "inputs": [
        {
          "internalType": "uint256",
          "name": "",
          "type": "uint256"
        }
      ],
      "name": "adminMapping",
      "outputs": [
        {
          "internalType": "uint256",
          "name": "id",
          "type": "uint256"
        }
      ],
      "stateMutability": "view",
      "type": "function"
    },
    {
      "inputs": [
        {
          "internalType": "uint256",
          "name": "",
          "type": "uint256"
        }
      ],
      "name": "deeds",
      "outputs": [
        {
          "internalType": "uint256",
          "name": "deedId",
          "type": "uint256"
        },
        {
          "internalType": "string",
          "name": "no",
          "type": "string"
        },
        {
          "internalType": "string",
          "name": "streetName",
          "type": "string"
        },
        {
          "internalType": "string",
          "name": "city",
          "type": "string"
        },
        {
          "internalType": "string",
          "name": "district",
          "type": "string"
        },
        {
          "internalType": "string",
          "name": "province",
          "type": "string"
        },
        {
          "internalType": "uint256",
          "name": "assignedLawyerId",
          "type": "uint256"
        },
        {
          "internalType": "uint256",
          "name": "assignedSellerId",
          "type": "uint256"
        }
      ],
      "stateMutability": "view",
      "type": "function"
    },
    {
      "inputs": [
        {
          "internalType": "uint256",
          "name": "",
          "type": "uint256"
        }
      ],
      "name": "lawyerList",
      "outputs": [
        {
          "internalType": "address",
          "name": "",
          "type": "address"
        }
      ],
      "stateMutability": "view",
      "type": "function"
    },
    {
      "inputs": [
        {
          "internalType": "uint256",
          "name": "",
          "type": "uint256"
        }
      ],
      "name": "sellerList",
      "outputs": [
        {
          "internalType": "address",
          "name": "",
          "type": "address"
        }
      ],
      "stateMutability": "view",
      "type": "function"
    },
    {
      "inputs": [
        {
          "internalType": "uint256",
          "name": "",
          "type": "uint256"
        }
      ],
      "name": "sellersMapping",
      "outputs": [
        {
          "internalType": "string",
          "name": "name",
          "type": "string"
        },
        {
          "internalType": "uint256",
          "name": "id",
          "type": "uint256"
        },
        {
          "internalType": "string",
          "name": "nic",
          "type": "string"
        },
        {
          "internalType": "uint256",
          "name": "age",
          "type": "uint256"
        },
        {
          "internalType": "string",
          "name": "city",
          "type": "string"
        },
        {
          "internalType": "string",
          "name": "email",
          "type": "string"
        },
        {
          "internalType": "uint256",
          "name": "telephoneNumber",
          "type": "uint256"
        }
      ],
      "stateMutability": "view",
      "type": "function"
    },
    {
      "inputs": [],
      "name": "getDeedCount",
      "outputs": [
        {
          "internalType": "uint256",
          "name": "",
          "type": "uint256"
        }
      ],
      "stateMutability": "view",
      "type": "function"
    },
    {
      "inputs": [],
      "name": "getBuyersCount",
      "outputs": [
        {
          "internalType": "uint256",
          "name": "",
          "type": "uint256"
        }
      ],
      "stateMutability": "view",
      "type": "function"
    },
    {
      "inputs": [],
      "name": "getLawyerCount",
      "outputs": [
        {
          "internalType": "uint256",
          "name": "",
          "type": "uint256"
        }
      ],
      "stateMutability": "view",
      "type": "function"
    },
    {
      "inputs": [],
      "name": "getSellersCount",
      "outputs": [
        {
          "internalType": "uint256",
          "name": "",
          "type": "uint256"
        }
      ],
      "stateMutability": "view",
      "type": "function"
    },
    {
      "inputs": [],
      "name": "getAdminCount",
      "outputs": [
        {
          "internalType": "uint256",
          "name": "",
          "type": "uint256"
        }
      ],
      "stateMutability": "view",
      "type": "function"
    },
    {
      "inputs": [
        {
          "internalType": "uint256",
          "name": "index",
          "type": "uint256"
        }
      ],
      "name": "getDeedId",
      "outputs": [
        {
          "internalType": "uint256",
          "name": "",
          "type": "uint256"
        }
      ],
      "stateMutability": "view",
      "type": "function"
    },
    {
      "inputs": [
        {
          "internalType": "uint256",
          "name": "index",
          "type": "uint256"
        }
      ],
      "name": "getDeedNo",
      "outputs": [
        {
          "internalType": "string",
          "name": "",
          "type": "string"
        }
      ],
      "stateMutability": "view",
      "type": "function"
    },
    {
      "inputs": [
        {
          "internalType": "uint256",
          "name": "index",
          "type": "uint256"
        }
      ],
      "name": "getDeedStreetName",
      "outputs": [
        {
          "internalType": "string",
          "name": "",
          "type": "string"
        }
      ],
      "stateMutability": "view",
      "type": "function"
    },
    {
      "inputs": [
        {
          "internalType": "uint256",
          "name": "index",
          "type": "uint256"
        }
      ],
      "name": "getDeedCity",
      "outputs": [
        {
          "internalType": "string",
          "name": "",
          "type": "string"
        }
      ],
      "stateMutability": "view",
      "type": "function"
    },
    {
      "inputs": [
        {
          "internalType": "uint256",
          "name": "index",
          "type": "uint256"
        }
      ],
      "name": "getDeedDistrict",
      "outputs": [
        {
          "internalType": "string",
          "name": "",
          "type": "string"
        }
      ],
      "stateMutability": "view",
      "type": "function"
    },
    {
      "inputs": [
        {
          "internalType": "uint256",
          "name": "index",
          "type": "uint256"
        }
      ],
      "name": "getDeedProvince",
      "outputs": [
        {
          "internalType": "string",
          "name": "",
          "type": "string"
        }
      ],
      "stateMutability": "view",
      "type": "function"
    },
    {
      "inputs": [
        {
          "internalType": "uint256",
          "name": "index",
          "type": "uint256"
        }
      ],
      "name": "getLawyerIdOfDeed",
      "outputs": [
        {
          "internalType": "uint256",
          "name": "",
          "type": "uint256"
        }
      ],
      "stateMutability": "view",
      "type": "function"
    },
    {
      "inputs": [
        {
          "internalType": "uint256",
          "name": "index",
          "type": "uint256"
        }
      ],
      "name": "getSellerIdOfDeed",
      "outputs": [
        {
          "internalType": "uint256",
          "name": "",
          "type": "uint256"
        }
      ],
      "stateMutability": "view",
      "type": "function"
    },
    {
      "inputs": [
        {
          "internalType": "string",
          "name": "_no",
          "type": "string"
        },
        {
          "internalType": "string",
          "name": "_streetName",
          "type": "string"
        },
        {
          "internalType": "string",
          "name": "_city",
          "type": "string"
        },
        {
          "internalType": "string",
          "name": "_district",
          "type": "string"
        },
        {
          "internalType": "string",
          "name": "_province",
          "type": "string"
        }
      ],
      "name": "findDeedByAddress",
      "outputs": [
        {
          "internalType": "uint256",
          "name": "",
          "type": "uint256"
        }
      ],
      "stateMutability": "view",
      "type": "function"
    },
    {
      "inputs": [
        {
          "internalType": "string",
          "name": "_email",
          "type": "string"
        }
      ],
      "name": "findLawyerByEmail",
      "outputs": [
        {
          "internalType": "uint256",
          "name": "",
          "type": "uint256"
        }
      ],
      "stateMutability": "view",
      "type": "function"
    },
    {
      "inputs": [
        {
          "internalType": "string",
          "name": "_email",
          "type": "string"
        }
      ],
      "name": "findSellerByEmail",
      "outputs": [
        {
          "internalType": "uint256",
          "name": "",
          "type": "uint256"
        }
      ],
      "stateMutability": "view",
      "type": "function"
    },
    {
      "inputs": [
        {
          "internalType": "uint256",
          "name": "_deedId",
          "type": "uint256"
        },
        {
          "internalType": "uint256",
          "name": "_assignedLawyerId",
          "type": "uint256"
        },
        {
          "internalType": "uint256",
          "name": "_assignedSellerId",
          "type": "uint256"
        }
      ],
      "name": "changeDeedBuyerAndSeller",
      "outputs": [],
      "stateMutability": "nonpayable",
      "type": "function"
    },
    {
      "inputs": [],
      "name": "getBuyer",
      "outputs": [
        {
          "internalType": "address[]",
          "name": "",
          "type": "address[]"
        }
      ],
      "stateMutability": "view",
      "type": "function"
    },
    {
      "inputs": [],
      "name": "getSeller",
      "outputs": [
        {
          "internalType": "address[]",
          "name": "",
          "type": "address[]"
        }
      ],
      "stateMutability": "view",
      "type": "function"
    },
    {
      "inputs": [],
      "name": "getLawyer",
      "outputs": [
        {
          "internalType": "address[]",
          "name": "",
          "type": "address[]"
        }
      ],
      "stateMutability": "view",
      "type": "function"
    },
    {
      "inputs": [
        {
          "internalType": "string",
          "name": "_no",
          "type": "string"
        },
        {
          "internalType": "string",
          "name": "_streetName",
          "type": "string"
        },
        {
          "internalType": "string",
          "name": "_city",
          "type": "string"
        },
        {
          "internalType": "string",
          "name": "_district",
          "type": "string"
        },
        {
          "internalType": "string",
          "name": "_province",
          "type": "string"
        },
        {
          "internalType": "uint256",
          "name": "_assignedLawyerId",
          "type": "uint256"
        },
        {
          "internalType": "uint256",
          "name": "_assignedSellerId",
          "type": "uint256"
        }
      ],
      "name": "addNewDeed",
      "outputs": [],
      "stateMutability": "nonpayable",
      "type": "function"
    },
    {
      "inputs": [
        {
          "internalType": "string",
          "name": "_nic",
          "type": "string"
        },
        {
          "internalType": "string",
          "name": "_name",
          "type": "string"
        },
        {
          "internalType": "uint256",
          "name": "_age",
          "type": "uint256"
        },
        {
          "internalType": "string",
          "name": "_city",
          "type": "string"
        },
        {
          "internalType": "string",
          "name": "_email",
          "type": "string"
        },
        {
          "internalType": "uint256",
          "name": "_telephoneNumber",
          "type": "uint256"
        }
      ],
      "name": "registerBuyer",
      "outputs": [],
      "stateMutability": "nonpayable",
      "type": "function"
    },
    {
      "inputs": [
        {
          "internalType": "string",
          "name": "_name",
          "type": "string"
        },
        {
          "internalType": "string",
          "name": "_nic",
          "type": "string"
        },
        {
          "internalType": "uint256",
          "name": "_age",
          "type": "uint256"
        },
        {
          "internalType": "string",
          "name": "_city",
          "type": "string"
        },
        {
          "internalType": "string",
          "name": "_email",
          "type": "string"
        },
        {
          "internalType": "uint256",
          "name": "_telephoneNumber",
          "type": "uint256"
        }
      ],
      "name": "registerSeller",
      "outputs": [],
      "stateMutability": "nonpayable",
      "type": "function"
    },
    {
      "inputs": [
        {
          "internalType": "string",
          "name": "_lawyerName",
          "type": "string"
        },
        {
          "internalType": "string",
          "name": "_lawyernic",
          "type": "string"
        },
        {
          "internalType": "string",
          "name": "_lawyerRegNo",
          "type": "string"
        },
        {
          "internalType": "string",
          "name": "_lawyerEmail",
          "type": "string"
        }
      ],
      "name": "registerLawyer",
      "outputs": [],
      "stateMutability": "nonpayable",
      "type": "function"
    },
    {
      "inputs": [
        {
          "internalType": "uint256",
          "name": "index",
          "type": "uint256"
        }
      ],
      "name": "displayBuyer",
      "outputs": [
        {
          "internalType": "uint256",
          "name": "_id",
          "type": "uint256"
        },
        {
          "internalType": "string",
          "name": "_nic",
          "type": "string"
        },
        {
          "internalType": "string",
          "name": "_name",
          "type": "string"
        },
        {
          "internalType": "uint256",
          "name": "_age",
          "type": "uint256"
        },
        {
          "internalType": "string",
          "name": "_city",
          "type": "string"
        },
        {
          "internalType": "string",
          "name": "_email",
          "type": "string"
        },
        {
          "internalType": "uint256",
          "name": "_telephoneNumber",
          "type": "uint256"
        }
      ],
      "stateMutability": "view",
      "type": "function"
    },
    {
      "inputs": [
        {
          "internalType": "uint256",
          "name": "index",
          "type": "uint256"
        }
      ],
      "name": "displaySeller",
      "outputs": [
        {
          "internalType": "string",
          "name": "_name",
          "type": "string"
        },
        {
          "internalType": "uint256",
          "name": "_id",
          "type": "uint256"
        },
        {
          "internalType": "string",
          "name": "_nic",
          "type": "string"
        },
        {
          "internalType": "uint256",
          "name": "_age",
          "type": "uint256"
        },
        {
          "internalType": "string",
          "name": "_city",
          "type": "string"
        },
        {
          "internalType": "string",
          "name": "_email",
          "type": "string"
        },
        {
          "internalType": "uint256",
          "name": "_telephoneNumber",
          "type": "uint256"
        }
      ],
      "stateMutability": "view",
      "type": "function"
    },
    {
      "inputs": [
        {
          "internalType": "uint256",
          "name": "index",
          "type": "uint256"
        }
      ],
      "name": "displayLawyer",
      "outputs": [
        {
          "internalType": "uint256",
          "name": "_lawyerId",
          "type": "uint256"
        },
        {
          "internalType": "string",
          "name": "_lawyerName",
          "type": "string"
        },
        {
          "internalType": "string",
          "name": "_lawyernic",
          "type": "string"
        },
        {
          "internalType": "string",
          "name": "_lawyerRegNo",
          "type": "string"
        },
        {
          "internalType": "string",
          "name": "_lawyerEmail",
          "type": "string"
        }
      ],
      "stateMutability": "view",
      "type": "function"
    },
    {
      "inputs": [
        {
          "internalType": "uint256",
          "name": "index",
          "type": "uint256"
        }
      ],
      "name": "getLawyerId",
      "outputs": [
        {
          "internalType": "uint256",
          "name": "",
          "type": "uint256"
        }
      ],
      "stateMutability": "view",
      "type": "function"
    },
    {
      "inputs": [
        {
          "internalType": "uint256",
          "name": "index",
          "type": "uint256"
        }
      ],
      "name": "getLawyerName",
      "outputs": [
        {
          "internalType": "string",
          "name": "",
          "type": "string"
        }
      ],
      "stateMutability": "view",
      "type": "function"
    },
    {
      "inputs": [
        {
          "internalType": "uint256",
          "name": "index",
          "type": "uint256"
        }
      ],
      "name": "getLawyerNic",
      "outputs": [
        {
          "internalType": "string",
          "name": "",
          "type": "string"
        }
      ],
      "stateMutability": "view",
      "type": "function"
    },
    {
      "inputs": [
        {
          "internalType": "uint256",
          "name": "index",
          "type": "uint256"
        }
      ],
      "name": "getLawyerRegNo",
      "outputs": [
        {
          "internalType": "string",
          "name": "",
          "type": "string"
        }
      ],
      "stateMutability": "view",
      "type": "function"
    },
    {
      "inputs": [
        {
          "internalType": "uint256",
          "name": "index",
          "type": "uint256"
        }
      ],
      "name": "getLawyerEmail",
      "outputs": [
        {
          "internalType": "string",
          "name": "",
          "type": "string"
        }
      ],
      "stateMutability": "view",
      "type": "function"
    },
    {
      "inputs": [
        {
          "internalType": "uint256",
          "name": "index",
          "type": "uint256"
        }
      ],
      "name": "getSellerId",
      "outputs": [
        {
          "internalType": "uint256",
          "name": "",
          "type": "uint256"
        }
      ],
      "stateMutability": "view",
      "type": "function"
    },
    {
      "inputs": [
        {
          "internalType": "uint256",
          "name": "index",
          "type": "uint256"
        }
      ],
      "name": "getSellerName",
      "outputs": [
        {
          "internalType": "string",
          "name": "",
          "type": "string"
        }
      ],
      "stateMutability": "view",
      "type": "function"
    },
    {
      "inputs": [
        {
          "internalType": "uint256",
          "name": "index",
          "type": "uint256"
        }
      ],
      "name": "getSellerNic",
      "outputs": [
        {
          "internalType": "string",
          "name": "",
          "type": "string"
        }
      ],
      "stateMutability": "view",
      "type": "function"
    },
    {
      "inputs": [
        {
          "internalType": "uint256",
          "name": "index",
          "type": "uint256"
        }
      ],
      "name": "getSellerAge",
      "outputs": [
        {
          "internalType": "uint256",
          "name": "",
          "type": "uint256"
        }
      ],
      "stateMutability": "view",
      "type": "function"
    },
    {
      "inputs": [
        {
          "internalType": "uint256",
          "name": "index",
          "type": "uint256"
        }
      ],
      "name": "getSellerCity",
      "outputs": [
        {
          "internalType": "string",
          "name": "",
          "type": "string"
        }
      ],
      "stateMutability": "view",
      "type": "function"
    },
    {
      "inputs": [
        {
          "internalType": "uint256",
          "name": "index",
          "type": "uint256"
        }
      ],
      "name": "getSellerEmail",
      "outputs": [
        {
          "internalType": "string",
          "name": "",
          "type": "string"
        }
      ],
      "stateMutability": "view",
      "type": "function"
    },
    {
      "inputs": [
        {
          "internalType": "uint256",
          "name": "index",
          "type": "uint256"
        }
      ],
      "name": "getSellerTelephoneNo",
      "outputs": [
        {
          "internalType": "uint256",
          "name": "",
          "type": "uint256"
        }
      ],
      "stateMutability": "view",
      "type": "function"
    }
  ],
  "bytecode": "0x6080604052600060085560006009556000600a556000600b556000600c5534801561002957600080fd5b5061404d806100396000396000f3fe608060405234801561001057600080fd5b50600436106102955760003560e01c80637e45aa2511610167578063dbd0e1b6116100ce578063f0b93af911610087578063f0b93af9146109a3578063f0d3a9df146109d3578063f42a1b31146109f1578063f8a3860514610a21578063fa1d7e0014610a51578063ffb434fb14610a6d57610295565b8063dbd0e1b6146108b5578063dd9d122d146108d3578063df0a1c2a146108f1578063e084ada114610921578063e513745914610951578063ef3802351461098757610295565b80639cd681f5116101205780639cd681f514610791578063aca55773146107c1578063b4321832146107f1578063b998b87c14610821578063cff0c7c014610851578063d96b0a551461088557610295565b80637e45aa251461068f57806380014029146106bf5780638b7bf3eb146106dd578063916a1c70146106fb57806393addc081461072b5780639614681b1461076157610295565b806335a82e721161020b578063655dc4c2116101c4578063655dc4c21461058f5780636c218b17146105ad57806370ffbdd2146105dd578063721fa4181461060d57806374cfe475146106295780637c6eb1031461065957610295565b806335a82e721461049157806344613830146104c157806355bb2bcc146104f15780635a18e2b2146105255780635dd5679814610541578063603daf9a1461057157610295565b806318edf5641161025d57806318edf5641461037657806321eb5a7c146103ad578063275ea7cf146103dd57806330c9fb481461041357806332a6785314610443578063334bb7451461047357610295565b806305624d351461029a5780630cc543b6146102ca5780630df74d36146102fa5780630df7ec2414610316578063119d41f414610346575b600080fd5b6102b460048036038101906102af919061349d565b610a9d565b6040516102c19190613563565b60405180910390f35b6102e460048036038101906102df919061349d565b610b44565b6040516102f19190613594565b60405180910390f35b610314600480360381019061030f91906136e4565b610b64565b005b610330600480360381019061032b919061349d565b610c63565b60405161033d9190613594565b60405180910390f35b610360600480360381019061035b919061349d565b610c82565b60405161036d9190613822565b60405180910390f35b610390600480360381019061038b919061349d565b610cc1565b6040516103a498979695949392919061383d565b60405180910390f35b6103c760048036038101906103c2919061349d565b610fb1565b6040516103d49190613594565b60405180910390f35b6103f760048036038101906103f2919061349d565b610fcf565b60405161040a97969594939291906138de565b60405180910390f35b61042d6004803603810190610428919061349d565b6112c1565b60405161043a9190613563565b60405180910390f35b61045d6004803603810190610458919061349d565b611369565b60405161046a9190613563565b60405180910390f35b61047b611410565b6040516104889190613594565b60405180910390f35b6104ab60048036038101906104a6919061349d565b61141a565b6040516104b89190613594565b60405180910390f35b6104db60048036038101906104d69190613969565b611439565b6040516104e89190613594565b60405180910390f35b61050b6004803603810190610506919061349d565b611535565b60405161051c9594939291906139b2565b60405180910390f35b61053f600480360381019061053a9190613a21565b6117ef565b005b61055b6004803603810190610556919061349d565b6118cc565b6040516105689190613594565b60405180910390f35b6105796118eb565b6040516105869190613bb6565b60405180910390f35b610597611979565b6040516105a49190613594565b60405180910390f35b6105c760048036038101906105c2919061349d565b611983565b6040516105d49190613594565b60405180910390f35b6105f760048036038101906105f2919061349d565b6119a3565b6040516106049190613563565b60405180910390f35b61062760048036038101906106229190613bd8565b611a4b565b005b610643600480360381019061063e919061349d565b611b6e565b6040516106509190613594565b60405180910390f35b610673600480360381019061066e919061349d565b611b8e565b6040516106869796959493929190613d06565b60405180910390f35b6106a960048036038101906106a4919061349d565b611df0565b6040516106b69190613563565b60405180910390f35b6106c7611e98565b6040516106d49190613bb6565b60405180910390f35b6106e5611f26565b6040516106f29190613594565b60405180910390f35b6107156004803603810190610710919061349d565b611f30565b6040516107229190613822565b60405180910390f35b6107456004803603810190610740919061349d565b611f6f565b60405161075897969594939291906138de565b60405180910390f35b61077b60048036038101906107769190613d91565b6121d1565b6040516107889190613594565b60405180910390f35b6107ab60048036038101906107a6919061349d565b61258b565b6040516107b89190613563565b60405180910390f35b6107db60048036038101906107d6919061349d565b612632565b6040516107e89190613563565b60405180910390f35b61080b6004803603810190610806919061349d565b6126da565b6040516108189190613563565b60405180910390f35b61083b60048036038101906108369190613969565b612782565b6040516108489190613594565b60405180910390f35b61086b6004803603810190610866919061349d565b61287e565b60405161087c9594939291906139b2565b60405180910390f35b61089f600480360381019061089a919061349d565b612ad4565b6040516108ac9190613563565b60405180910390f35b6108bd612b7c565b6040516108ca9190613bb6565b60405180910390f35b6108db612c0a565b6040516108e89190613594565b60405180910390f35b61090b6004803603810190610906919061349d565b612c14565b6040516109189190613563565b60405180910390f35b61093b6004803603810190610936919061349d565b612cbc565b6040516109489190613563565b60405180910390f35b61096b6004803603810190610966919061349d565b612d64565b60405161097e9796959493929190613d06565b60405180910390f35b6109a1600480360381019061099c9190613e98565b613057565b005b6109bd60048036038101906109b8919061349d565b613090565b6040516109ca9190613563565b60405180910390f35b6109db613137565b6040516109e89190613594565b60405180910390f35b610a0b6004803603810190610a06919061349d565b613141565b604051610a189190613822565b60405180910390f35b610a3b6004803603810190610a36919061349d565b613180565b604051610a489190613594565b60405180910390f35b610a6b6004803603810190610a6691906136e4565b6131a0565b005b610a876004803603810190610a82919061349d565b61329f565b604051610a949190613563565b60405180910390f35b60606000808381526020019081526020016000206004018054610abf90613f1a565b80601f0160208091040260200160405190810160405280929190818152602001828054610aeb90613f1a565b8015610b385780601f10610b0d57610100808354040283529160200191610b38565b820191906000526020600020905b815481529060010190602001808311610b1b57829003601f168201915b50505050509050919050565b600060026000838152602001908152602001600020600601549050919050565b6040518060e00160405280878152602001600a5481526020018681526020018581526020018481526020018381526020018281525060026000600a5481526020019081526020016000206000820151816000019080519060200190610bca9291906133b0565b50602082015181600101556040820151816002019080519060200190610bf19291906133b0565b50606082015181600301556080820151816004019080519060200190610c189291906133b0565b5060a0820151816005019080519060200190610c359291906133b0565b5060c08201518160060155905050600a6000815480929190610c5690613f7b565b9190505550505050505050565b6000806000838152602001908152602001600020600001549050919050565b60058181548110610c9257600080fd5b906000526020600020016000915054906101000a900473ffffffffffffffffffffffffffffffffffffffff1681565b6000602052806000526040600020600091509050806000015490806001018054610cea90613f1a565b80601f0160208091040260200160405190810160405280929190818152602001828054610d1690613f1a565b8015610d635780601f10610d3857610100808354040283529160200191610d63565b820191906000526020600020905b815481529060010190602001808311610d4657829003601f168201915b505050505090806002018054610d7890613f1a565b80601f0160208091040260200160405190810160405280929190818152602001828054610da490613f1a565b8015610df15780601f10610dc657610100808354040283529160200191610df1565b820191906000526020600020905b815481529060010190602001808311610dd457829003601f168201915b505050505090806003018054610e0690613f1a565b80601f0160208091040260200160405190810160405280929190818152602001828054610e3290613f1a565b8015610e7f5780601f10610e5457610100808354040283529160200191610e7f565b820191906000526020600020905b815481529060010190602001808311610e6257829003601f168201915b505050505090806004018054610e9490613f1a565b80601f0160208091040260200160405190810160405280929190818152602001828054610ec090613f1a565b8015610f0d5780601f10610ee257610100808354040283529160200191610f0d565b820191906000526020600020905b815481529060010190602001808311610ef057829003601f168201915b505050505090806005018054610f2290613f1a565b80601f0160208091040260200160405190810160405280929190818152602001828054610f4e90613f1a565b8015610f9b5780601f10610f7057610100808354040283529160200191610f9b565b820191906000526020600020905b815481529060010190602001808311610f7e57829003601f168201915b5050505050908060060154908060070154905088565b60046020528060005260406000206000915090508060000154905081565b6000606080600060608060006001600089815260200190815260200160002060000154600160008a8152602001908152602001600020600101600160008b8152602001908152602001600020600201600160008c815260200190815260200160002060030154600160008d8152602001908152602001600020600401600160008e8152602001908152602001600020600501600160008f81526020019081526020016000206006015485805461108490613f1a565b80601f01602080910402602001604051908101604052809291908181526020018280546110b090613f1a565b80156110fd5780601f106110d2576101008083540402835291602001916110fd565b820191906000526020600020905b8154815290600101906020018083116110e057829003601f168201915b5050505050955084805461111090613f1a565b80601f016020809104026020016040519081016040528092919081815260200182805461113c90613f1a565b80156111895780601f1061115e57610100808354040283529160200191611189565b820191906000526020600020905b81548152906001019060200180831161116c57829003601f168201915b5050505050945082805461119c90613f1a565b80601f01602080910402602001604051908101604052809291908181526020018280546111c890613f1a565b80156112155780601f106111ea57610100808354040283529160200191611215565b820191906000526020600020905b8154815290600101906020018083116111f857829003601f168201915b5050505050925081805461122890613f1a565b80601f016020809104026020016040519081016040528092919081815260200182805461125490613f1a565b80156112a15780601f10611276576101008083540402835291602001916112a1565b820191906000526020600020905b81548152906001019060200180831161128457829003601f168201915b505050505091509650965096509650965096509650919395979092949650565b60606003600083815260200190815260200160002060040180546112e490613f1a565b80601f016020809104026020016040519081016040528092919081815260200182805461131090613f1a565b801561135d5780601f106113325761010080835404028352916020019161135d565b820191906000526020600020905b81548152906001019060200180831161134057829003601f168201915b50505050509050919050565b6060600080838152602001908152602001600020600101805461138b90613f1a565b80601f01602080910402602001604051908101604052809291908181526020018280546113b790613f1a565b80156114045780601f106113d957610100808354040283529160200191611404565b820191906000526020600020905b8154815290600101906020018083116113e757829003601f168201915b50505050509050919050565b6000600854905090565b6000806000838152602001908152602001600020600601549050919050565b6000806000905060005b600a5482101561152b576114f58460026000858152602001908152602001600020600501805461147290613f1a565b80601f016020809104026020016040519081016040528092919081815260200182805461149e90613f1a565b80156114eb5780601f106114c0576101008083540402835291602001916114eb565b820191906000526020600020905b8154815290600101906020018083116114ce57829003601f168201915b5050505050613346565b15611518576002600083815260200190815260200160002060010154905061152b565b818061152390613f7b565b925050611443565b8092505050919050565b600060608060608060036000878152602001908152602001600020600001546003600088815260200190815260200160002060010160036000898152602001908152602001600020600201600360008a8152602001908152602001600020600301600360008b81526020019081526020016000206004018380546115b890613f1a565b80601f01602080910402602001604051908101604052809291908181526020018280546115e490613f1a565b80156116315780601f1061160657610100808354040283529160200191611631565b820191906000526020600020905b81548152906001019060200180831161161457829003601f168201915b5050505050935082805461164490613f1a565b80601f016020809104026020016040519081016040528092919081815260200182805461167090613f1a565b80156116bd5780601f10611692576101008083540402835291602001916116bd565b820191906000526020600020905b8154815290600101906020018083116116a057829003601f168201915b505050505092508180546116d090613f1a565b80601f01602080910402602001604051908101604052809291908181526020018280546116fc90613f1a565b80156117495780601f1061171e57610100808354040283529160200191611749565b820191906000526020600020905b81548152906001019060200180831161172c57829003601f168201915b5050505050915080805461175c90613f1a565b80601f016020809104026020016040519081016040528092919081815260200182805461178890613f1a565b80156117d55780601f106117aa576101008083540402835291602001916117d5565b820191906000526020600020905b8154815290600101906020018083116117b857829003601f168201915b505050505090509450945094509450945091939590929450565b6040518060a00160405280600b5481526020018581526020018481526020018381526020018281525060036000600b5481526020019081526020016000206000820151816000015560208201518160010190805190602001906118539291906133b0565b5060408201518160020190805190602001906118709291906133b0565b50606082015181600301908051906020019061188d9291906133b0565b5060808201518160040190805190602001906118aa9291906133b0565b50905050600b60008154809291906118c190613f7b565b919050555050505050565b6000806000838152602001908152602001600020600701549050919050565b6060600580548060200260200160405190810160405280929190818152602001828054801561196f57602002820191906000526020600020905b8160009054906101000a900473ffffffffffffffffffffffffffffffffffffffff1673ffffffffffffffffffffffffffffffffffffffff1681526020019060010190808311611925575b5050505050905090565b6000600b54905090565b600060036000838152602001908152602001600020600001549050919050565b60606002600083815260200190815260200160002060020180546119c690613f1a565b80601f01602080910402602001604051908101604052809291908181526020018280546119f290613f1a565b8015611a3f5780601f10611a1457610100808354040283529160200191611a3f565b820191906000526020600020905b815481529060010190602001808311611a2257829003601f168201915b50505050509050919050565b6040518061010001604052806008548152602001888152602001878152602001868152602001858152602001848152602001838152602001828152506000806008548152602001908152602001600020600082015181600001556020820151816001019080519060200190611ac19291906133b0565b506040820151816002019080519060200190611ade9291906133b0565b506060820151816003019080519060200190611afb9291906133b0565b506080820151816004019080519060200190611b189291906133b0565b5060a0820151816005019080519060200190611b359291906133b0565b5060c0820151816006015560e0820151816007015590505060086000815480929190611b6090613f7b565b919050555050505050505050565b600060026000838152602001908152602001600020600101549050919050565b6002602052806000526040600020600091509050806000018054611bb190613f1a565b80601f0160208091040260200160405190810160405280929190818152602001828054611bdd90613f1a565b8015611c2a5780601f10611bff57610100808354040283529160200191611c2a565b820191906000526020600020905b815481529060010190602001808311611c0d57829003601f168201915b505050505090806001015490806002018054611c4590613f1a565b80601f0160208091040260200160405190810160405280929190818152602001828054611c7190613f1a565b8015611cbe5780601f10611c9357610100808354040283529160200191611cbe565b820191906000526020600020905b815481529060010190602001808311611ca157829003601f168201915b505050505090806003015490806004018054611cd990613f1a565b80601f0160208091040260200160405190810160405280929190818152602001828054611d0590613f1a565b8015611d525780601f10611d2757610100808354040283529160200191611d52565b820191906000526020600020905b815481529060010190602001808311611d3557829003601f168201915b505050505090806005018054611d6790613f1a565b80601f0160208091040260200160405190810160405280929190818152602001828054611d9390613f1a565b8015611de05780601f10611db557610100808354040283529160200191611de0565b820191906000526020600020905b815481529060010190602001808311611dc357829003601f168201915b5050505050908060060154905087565b6060600360008381526020019081526020016000206001018054611e1390613f1a565b80601f0160208091040260200160405190810160405280929190818152602001828054611e3f90613f1a565b8015611e8c5780601f10611e6157610100808354040283529160200191611e8c565b820191906000526020600020905b815481529060010190602001808311611e6f57829003601f168201915b50505050509050919050565b60606007805480602002602001604051908101604052809291908181526020018280548015611f1c57602002820191906000526020600020905b8160009054906101000a900473ffffffffffffffffffffffffffffffffffffffff1673ffffffffffffffffffffffffffffffffffffffff1681526020019060010190808311611ed2575b5050505050905090565b6000600c54905090565b60078181548110611f4057600080fd5b906000526020600020016000915054906101000a900473ffffffffffffffffffffffffffffffffffffffff1681565b6001602052806000526040600020600091509050806000015490806001018054611f9890613f1a565b80601f0160208091040260200160405190810160405280929190818152602001828054611fc490613f1a565b80156120115780601f10611fe657610100808354040283529160200191612011565b820191906000526020600020905b815481529060010190602001808311611ff457829003601f168201915b50505050509080600201805461202690613f1a565b80601f016020809104026020016040519081016040528092919081815260200182805461205290613f1a565b801561209f5780601f106120745761010080835404028352916020019161209f565b820191906000526020600020905b81548152906001019060200180831161208257829003601f168201915b5050505050908060030154908060040180546120ba90613f1a565b80601f01602080910402602001604051908101604052809291908181526020018280546120e690613f1a565b80156121335780601f1061210857610100808354040283529160200191612133565b820191906000526020600020905b81548152906001019060200180831161211657829003601f168201915b50505050509080600501805461214890613f1a565b80601f016020809104026020016040519081016040528092919081815260200182805461217490613f1a565b80156121c15780601f10612196576101008083540402835291602001916121c1565b820191906000526020600020905b8154815290600101906020018083116121a457829003601f168201915b5050505050908060060154905087565b6000806000905060005b60085482101561257d5761228c88600080858152602001908152602001600020600101805461220990613f1a565b80601f016020809104026020016040519081016040528092919081815260200182805461223590613f1a565b80156122825780601f1061225757610100808354040283529160200191612282565b820191906000526020600020905b81548152906001019060200180831161226557829003601f168201915b5050505050613346565b801561233b575061233a8760008085815260200190815260200160002060020180546122b790613f1a565b80601f01602080910402602001604051908101604052809291908181526020018280546122e390613f1a565b80156123305780601f1061230557610100808354040283529160200191612330565b820191906000526020600020905b81548152906001019060200180831161231357829003601f168201915b5050505050613346565b5b80156123ea57506123e986600080858152602001908152602001600020600301805461236690613f1a565b80601f016020809104026020016040519081016040528092919081815260200182805461239290613f1a565b80156123df5780601f106123b4576101008083540402835291602001916123df565b820191906000526020600020905b8154815290600101906020018083116123c257829003601f168201915b5050505050613346565b5b8015612499575061249885600080858152602001908152602001600020600401805461241590613f1a565b80601f016020809104026020016040519081016040528092919081815260200182805461244190613f1a565b801561248e5780601f106124635761010080835404028352916020019161248e565b820191906000526020600020905b81548152906001019060200180831161247157829003601f168201915b5050505050613346565b5b801561254857506125478460008085815260200190815260200160002060050180546124c490613f1a565b80601f01602080910402602001604051908101604052809291908181526020018280546124f090613f1a565b801561253d5780601f106125125761010080835404028352916020019161253d565b820191906000526020600020905b81548152906001019060200180831161252057829003601f168201915b5050505050613346565b5b1561256a5760008083815260200190815260200160002060000154905061257d565b818061257590613f7b565b9250506121db565b809250505095945050505050565b606060008083815260200190815260200160002060050180546125ad90613f1a565b80601f01602080910402602001604051908101604052809291908181526020018280546125d990613f1a565b80156126265780601f106125fb57610100808354040283529160200191612626565b820191906000526020600020905b81548152906001019060200180831161260957829003601f168201915b50505050509050919050565b606060036000838152602001908152602001600020600301805461265590613f1a565b80601f016020809104026020016040519081016040528092919081815260200182805461268190613f1a565b80156126ce5780601f106126a3576101008083540402835291602001916126ce565b820191906000526020600020905b8154815290600101906020018083116126b157829003601f168201915b50505050509050919050565b60606002600083815260200190815260200160002060000180546126fd90613f1a565b80601f016020809104026020016040519081016040528092919081815260200182805461272990613f1a565b80156127765780601f1061274b57610100808354040283529160200191612776565b820191906000526020600020905b81548152906001019060200180831161275957829003601f168201915b50505050509050919050565b6000806000905060005b600b548210156128745761283e846003600085815260200190815260200160002060040180546127bb90613f1a565b80601f01602080910402602001604051908101604052809291908181526020018280546127e790613f1a565b80156128345780601f1061280957610100808354040283529160200191612834565b820191906000526020600020905b81548152906001019060200180831161281757829003601f168201915b5050505050613346565b156128615760036000838152602001908152602001600020600001549050612874565b818061286c90613f7b565b92505061278c565b8092505050919050565b60036020528060005260406000206000915090508060000154908060010180546128a790613f1a565b80601f01602080910402602001604051908101604052809291908181526020018280546128d390613f1a565b80156129205780601f106128f557610100808354040283529160200191612920565b820191906000526020600020905b81548152906001019060200180831161290357829003601f168201915b50505050509080600201805461293590613f1a565b80601f016020809104026020016040519081016040528092919081815260200182805461296190613f1a565b80156129ae5780601f10612983576101008083540402835291602001916129ae565b820191906000526020600020905b81548152906001019060200180831161299157829003601f168201915b5050505050908060030180546129c390613f1a565b80601f01602080910402602001604051908101604052809291908181526020018280546129ef90613f1a565b8015612a3c5780601f10612a1157610100808354040283529160200191612a3c565b820191906000526020600020905b815481529060010190602001808311612a1f57829003601f168201915b505050505090806004018054612a5190613f1a565b80601f0160208091040260200160405190810160405280929190818152602001828054612a7d90613f1a565b8015612aca5780601f10612a9f57610100808354040283529160200191612aca565b820191906000526020600020905b815481529060010190602001808311612aad57829003601f168201915b5050505050905085565b6060600260008381526020019081526020016000206004018054612af790613f1a565b80601f0160208091040260200160405190810160405280929190818152602001828054612b2390613f1a565b8015612b705780601f10612b4557610100808354040283529160200191612b70565b820191906000526020600020905b815481529060010190602001808311612b5357829003601f168201915b50505050509050919050565b60606006805480602002602001604051908101604052809291908181526020018280548015612c0057602002820191906000526020600020905b8160009054906101000a900473ffffffffffffffffffffffffffffffffffffffff1673ffffffffffffffffffffffffffffffffffffffff1681526020019060010190808311612bb6575b5050505050905090565b6000600a54905090565b6060600360008381526020019081526020016000206002018054612c3790613f1a565b80601f0160208091040260200160405190810160405280929190818152602001828054612c6390613f1a565b8015612cb05780601f10612c8557610100808354040283529160200191612cb0565b820191906000526020600020905b815481529060010190602001808311612c9357829003601f168201915b50505050509050919050565b6060600260008381526020019081526020016000206005018054612cdf90613f1a565b80601f0160208091040260200160405190810160405280929190818152602001828054612d0b90613f1a565b8015612d585780601f10612d2d57610100808354040283529160200191612d58565b820191906000526020600020905b815481529060010190602001808311612d3b57829003601f168201915b50505050509050919050565b6060600060606000606080600060026000898152602001908152602001600020600001600260008a815260200190815260200160002060010154600260008b8152602001908152602001600020600201600260008c815260200190815260200160002060030154600260008d8152602001908152602001600020600401600260008e8152602001908152602001600020600501600260008f815260200190815260200160002060060154868054612e1a90613f1a565b80601f0160208091040260200160405190810160405280929190818152602001828054612e4690613f1a565b8015612e935780601f10612e6857610100808354040283529160200191612e93565b820191906000526020600020905b815481529060010190602001808311612e7657829003601f168201915b50505050509650848054612ea690613f1a565b80601f0160208091040260200160405190810160405280929190818152602001828054612ed290613f1a565b8015612f1f5780601f10612ef457610100808354040283529160200191612f1f565b820191906000526020600020905b815481529060010190602001808311612f0257829003601f168201915b50505050509450828054612f3290613f1a565b80601f0160208091040260200160405190810160405280929190818152602001828054612f5e90613f1a565b8015612fab5780601f10612f8057610100808354040283529160200191612fab565b820191906000526020600020905b815481529060010190602001808311612f8e57829003601f168201915b50505050509250818054612fbe90613f1a565b80601f0160208091040260200160405190810160405280929190818152602001828054612fea90613f1a565b80156130375780601f1061300c57610100808354040283529160200191613037565b820191906000526020600020905b81548152906001019060200180831161301a57829003601f168201915b505050505091509650965096509650965096509650919395979092949650565b81600080858152602001908152602001600020600601819055508060008085815260200190815260200160002060070181905550505050565b606060008083815260200190815260200160002060030180546130b290613f1a565b80601f01602080910402602001604051908101604052809291908181526020018280546130de90613f1a565b801561312b5780601f106131005761010080835404028352916020019161312b565b820191906000526020600020905b81548152906001019060200180831161310e57829003601f168201915b50505050509050919050565b6000600954905090565b6006818154811061315157600080fd5b906000526020600020016000915054906101000a900473ffffffffffffffffffffffffffffffffffffffff1681565b600060026000838152602001908152602001600020600301549050919050565b6040518060e001604052806009548152602001878152602001868152602001858152602001848152602001838152602001828152506001600060095481526020019081526020016000206000820151816000015560208201518160010190805190602001906132109291906133b0565b50604082015181600201908051906020019061322d9291906133b0565b506060820151816003015560808201518160040190805190602001906132549291906133b0565b5060a08201518160050190805190602001906132719291906133b0565b5060c082015181600601559050506009600081548092919061329290613f7b565b9190505550505050505050565b606060008083815260200190815260200160002060020180546132c190613f1a565b80601f01602080910402602001604051908101604052809291908181526020018280546132ed90613f1a565b801561333a5780601f1061330f5761010080835404028352916020019161333a565b820191906000526020600020905b81548152906001019060200180831161331d57829003601f168201915b50505050509050919050565b6000816040516020016133599190614000565b60405160208183030381529060405280519060200120836040516020016133809190614000565b6040516020818303038152906040528051906020012014156133a557600190506133aa565b600090505b92915050565b8280546133bc90613f1a565b90600052602060002090601f0160209004810192826133de5760008555613425565b82601f106133f757805160ff1916838001178555613425565b82800160010185558215613425579182015b82811115613424578251825591602001919060010190613409565b5b5090506134329190613436565b5090565b5b8082111561344f576000816000905550600101613437565b5090565b6000604051905090565b600080fd5b600080fd5b6000819050919050565b61347a81613467565b811461348557600080fd5b50565b60008135905061349781613471565b92915050565b6000602082840312156134b3576134b261345d565b5b60006134c184828501613488565b91505092915050565b600081519050919050565b600082825260208201905092915050565b60005b838110156135045780820151818401526020810190506134e9565b83811115613513576000848401525b50505050565b6000601f19601f8301169050919050565b6000613535826134ca565b61353f81856134d5565b935061354f8185602086016134e6565b61355881613519565b840191505092915050565b6000602082019050818103600083015261357d818461352a565b905092915050565b61358e81613467565b82525050565b60006020820190506135a96000830184613585565b92915050565b600080fd5b600080fd5b7f4e487b7100000000000000000000000000000000000000000000000000000000600052604160045260246000fd5b6135f182613519565b810181811067ffffffffffffffff821117156136105761360f6135b9565b5b80604052505050565b6000613623613453565b905061362f82826135e8565b919050565b600067ffffffffffffffff82111561364f5761364e6135b9565b5b61365882613519565b9050602081019050919050565b82818337600083830152505050565b600061368761368284613634565b613619565b9050828152602081018484840111156136a3576136a26135b4565b5b6136ae848285613665565b509392505050565b600082601f8301126136cb576136ca6135af565b5b81356136db848260208601613674565b91505092915050565b60008060008060008060c087890312156137015761370061345d565b5b600087013567ffffffffffffffff81111561371f5761371e613462565b5b61372b89828a016136b6565b965050602087013567ffffffffffffffff81111561374c5761374b613462565b5b61375889828a016136b6565b955050604061376989828a01613488565b945050606087013567ffffffffffffffff81111561378a57613789613462565b5b61379689828a016136b6565b935050608087013567ffffffffffffffff8111156137b7576137b6613462565b5b6137c389828a016136b6565b92505060a06137d489828a01613488565b9150509295509295509295565b600073ffffffffffffffffffffffffffffffffffffffff82169050919050565b600061380c826137e1565b9050919050565b61381c81613801565b82525050565b60006020820190506138376000830184613813565b92915050565b600061010082019050613853600083018b613585565b8181036020830152613865818a61352a565b90508181036040830152613879818961352a565b9050818103606083015261388d818861352a565b905081810360808301526138a1818761352a565b905081810360a08301526138b5818661352a565b90506138c460c0830185613585565b6138d160e0830184613585565b9998505050505050505050565b600060e0820190506138f3600083018a613585565b8181036020830152613905818961352a565b90508181036040830152613919818861352a565b90506139286060830187613585565b818103608083015261393a818661352a565b905081810360a083015261394e818561352a565b905061395d60c0830184613585565b98975050505050505050565b60006020828403121561397f5761397e61345d565b5b600082013567ffffffffffffffff81111561399d5761399c613462565b5b6139a9848285016136b6565b91505092915050565b600060a0820190506139c76000830188613585565b81810360208301526139d9818761352a565b905081810360408301526139ed818661352a565b90508181036060830152613a01818561352a565b90508181036080830152613a15818461352a565b90509695505050505050565b60008060008060808587031215613a3b57613a3a61345d565b5b600085013567ffffffffffffffff811115613a5957613a58613462565b5b613a65878288016136b6565b945050602085013567ffffffffffffffff811115613a8657613a85613462565b5b613a92878288016136b6565b935050604085013567ffffffffffffffff811115613ab357613ab2613462565b5b613abf878288016136b6565b925050606085013567ffffffffffffffff811115613ae057613adf613462565b5b613aec878288016136b6565b91505092959194509250565b600081519050919050565b600082825260208201905092915050565b6000819050602082019050919050565b613b2d81613801565b82525050565b6000613b3f8383613b24565b60208301905092915050565b6000602082019050919050565b6000613b6382613af8565b613b6d8185613b03565b9350613b7883613b14565b8060005b83811015613ba9578151613b908882613b33565b9750613b9b83613b4b565b925050600181019050613b7c565b5085935050505092915050565b60006020820190508181036000830152613bd08184613b58565b905092915050565b600080600080600080600060e0888a031215613bf757613bf661345d565b5b600088013567ffffffffffffffff811115613c1557613c14613462565b5b613c218a828b016136b6565b975050602088013567ffffffffffffffff811115613c4257613c41613462565b5b613c4e8a828b016136b6565b965050604088013567ffffffffffffffff811115613c6f57613c6e613462565b5b613c7b8a828b016136b6565b955050606088013567ffffffffffffffff811115613c9c57613c9b613462565b5b613ca88a828b016136b6565b945050608088013567ffffffffffffffff811115613cc957613cc8613462565b5b613cd58a828b016136b6565b93505060a0613ce68a828b01613488565b92505060c0613cf78a828b01613488565b91505092959891949750929550565b600060e0820190508181036000830152613d20818a61352a565b9050613d2f6020830189613585565b8181036040830152613d41818861352a565b9050613d506060830187613585565b8181036080830152613d62818661352a565b905081810360a0830152613d76818561352a565b9050613d8560c0830184613585565b98975050505050505050565b600080600080600060a08688031215613dad57613dac61345d565b5b600086013567ffffffffffffffff811115613dcb57613dca613462565b5b613dd7888289016136b6565b955050602086013567ffffffffffffffff811115613df857613df7613462565b5b613e04888289016136b6565b945050604086013567ffffffffffffffff811115613e2557613e24613462565b5b613e31888289016136b6565b935050606086013567ffffffffffffffff811115613e5257613e51613462565b5b613e5e888289016136b6565b925050608086013567ffffffffffffffff811115613e7f57613e7e613462565b5b613e8b888289016136b6565b9150509295509295909350565b600080600060608486031215613eb157613eb061345d565b5b6000613ebf86828701613488565b9350506020613ed086828701613488565b9250506040613ee186828701613488565b9150509250925092565b7f4e487b7100000000000000000000000000000000000000000000000000000000600052602260045260246000fd5b60006002820490506001821680613f3257607f821691505b60208210811415613f4657613f45613eeb565b5b50919050565b7f4e487b7100000000000000000000000000000000000000000000000000000000600052601160045260246000fd5b6000613f8682613467565b91507fffffffffffffffffffffffffffffffffffffffffffffffffffffffffffffffff821415613fb957613fb8613f4c565b5b600182019050919050565b600081905092915050565b6000613fda826134ca565b613fe48185613fc4565b9350613ff48185602086016134e6565b80840191505092915050565b600061400c8284613fcf565b91508190509291505056fea26469706673582212207b7eb63f6a37b4811476c65ca9951a420cf3e4520ba59eeb91bf97fadc80528c64736f6c634300080a0033",
  "immutableReferences": {},
  "source": "// SPDX-License-Identifier: MIT\r\npragma solidity >=0.4.22 <0.9.0;\r\n\r\ncontract Land {\r\n    // structs\r\n    struct Deed {\r\n        // deed instance variables\r\n        uint deedId;\r\n        string no;\r\n        string streetName;\r\n        string city;\r\n        string district;\r\n        string province;\r\n        uint assignedLawyerId; // to link the relevant lawyer to the deed\r\n        uint assignedSellerId; // to link the relevant seller to the deed\r\n    }\r\n\r\n    struct Buyer{\r\n        // Buyer instance variables\r\n       uint id;\r\n       string nic;\r\n       string name;\r\n       uint age;\r\n       string city;\r\n       string email; \r\n       uint telephoneNumber;\r\n    }\r\n\r\n    struct Lawyer{\r\n        // Lawyer instance variables\r\n        uint lawyerId;\r\n        string lawyerName;\r\n        string lawyernic;\r\n        string lawyerRegNo;\r\n        string lawyerEmail;\r\n    }\r\n\r\n    struct Seller {\r\n        // Seller instance variables\r\n        string name;\r\n\t\tuint id;\r\n\t\tstring nic;\r\n        uint age;\r\n        string city;\r\n\t\tstring email;\r\n        uint telephoneNumber;\r\n    }\r\n\r\n    struct Admin {\r\n        // Admin instance variables\r\n        uint id;\r\n    }\r\n\r\n    // mappings\r\n    mapping(uint => Deed) public deeds;\r\n    mapping(uint => Buyer) public Buyersmapping;\r\n    mapping(uint => Seller) public sellersMapping;\r\n    mapping(uint => Lawyer) public Lawyersmapping;\r\n    mapping(uint => Admin) public adminMapping;\r\n    \r\n    //arrays\r\n    address[] public Buyerlist;\r\n    address[] public sellerList;\r\n    address[] public lawyerList;\r\n\r\n    // Count tracking variables\r\n    uint private deedCount = 0;\r\n    uint private buyersCount = 0;\r\n    uint private sellersCount = 0;\r\n    uint private lawyerCount=0;\r\n    uint private adminCount = 0;\r\n\r\n    // getter for deed count\r\n    function getDeedCount() public view returns (uint) {\r\n        return deedCount;\r\n    }\r\n\r\n    // getter for buyer count\r\n    function getBuyersCount() public view returns(uint){\r\n        return buyersCount;\r\n    }\r\n\r\n    // getter for lawyer count\r\n    function getLawyerCount() public view returns(uint){\r\n        return lawyerCount;\r\n    }\r\n\r\n    // getter for seller count\r\n    function getSellersCount() public view returns(uint){\r\n        return sellersCount;\r\n    }\r\n\r\n    // getter for admin count\r\n    function getAdminCount() public view returns(uint){\r\n        return adminCount;\r\n    }\r\n\r\n    //getters for Deed struct\r\n    function getDeedId(uint index) public view returns (uint) {\r\n        return deeds[index].deedId;\r\n    }\r\n\r\n    function getDeedNo(uint index) public view returns (string memory) {\r\n        return deeds[index].no;\r\n    }\r\n\r\n    function getDeedStreetName(uint index) public view returns (string memory) {\r\n        return deeds[index].streetName;\r\n    }\r\n\r\n    function getDeedCity(uint index) public view returns (string memory) {\r\n        return deeds[index].city;\r\n    }\r\n\r\n    function getDeedDistrict(uint index) public view returns (string memory) {\r\n        return deeds[index].district;\r\n    }\r\n\r\n    function getDeedProvince(uint index) public view returns (string memory) {\r\n        return deeds[index].province;\r\n    }\r\n\r\n    function getLawyerIdOfDeed(uint index) public view returns (uint) {\r\n        return deeds[index].assignedLawyerId;\r\n    }\r\n\r\n    function getSellerIdOfDeed(uint index) public view returns (uint) {\r\n        return deeds[index].assignedSellerId;\r\n    }\r\n\r\n    // function to compare strings\r\n    function compareStrings(string memory s1, string memory s2) private pure returns (bool) {\r\n        if (keccak256(abi.encodePacked(s1)) == keccak256(abi.encodePacked(s2)))\r\n        {\r\n            return true;\r\n        }\r\n        else \r\n        {\r\n            return false;\r\n        }\r\n    }\r\n\r\n    // function to get the deed by the land address for searching purposes\r\n    function findDeedByAddress(string memory _no, string memory _streetName, string memory _city, string memory _district, string memory _province) public view returns (uint) {\r\n        uint i = 0;\r\n        uint returningDeedId;\r\n        while (i < deedCount)\r\n        {\r\n            if (compareStrings(_no, deeds[i].no) && compareStrings(_streetName, deeds[i].streetName) && compareStrings(_city, deeds[i].city) && compareStrings(_district, deeds[i].district) && compareStrings(_province, deeds[i].province))\r\n            {\r\n                returningDeedId = deeds[i].deedId;\r\n                break;\r\n            }\r\n            i++;\r\n        }\r\n        return returningDeedId;\r\n    }\r\n\r\n    // function to get the lawyer by email\r\n    function findLawyerByEmail(string memory _email) public view returns (uint) {\r\n        uint i = 0;\r\n        uint returningLawyerId;\r\n        while (i < lawyerCount)\r\n        {\r\n            if (compareStrings(_email, Lawyersmapping[i].lawyerEmail))\r\n            {\r\n                returningLawyerId = Lawyersmapping[i].lawyerId;\r\n                break;\r\n            }\r\n            i++;\r\n        }\r\n        return returningLawyerId;\r\n    }\r\n\r\n    //function to get the seller by email\r\n    function findSellerByEmail(string memory _email) public view returns (uint) {\r\n        uint i = 0;\r\n        uint returningSellerId;\r\n        while (i < sellersCount)\r\n        {\r\n            if (compareStrings(_email, sellersMapping[i].email))\r\n            {\r\n                returningSellerId = sellersMapping[i].id;\r\n                break;\r\n            }\r\n            i++;\r\n        }\r\n        return returningSellerId;\r\n    }\r\n\r\n    // function to change land deed buyer and seller\r\n    function changeDeedBuyerAndSeller(uint _deedId, uint _assignedLawyerId, uint _assignedSellerId) public {\r\n        \r\n        deeds[_deedId].assignedLawyerId = _assignedLawyerId;\r\n        deeds[_deedId].assignedSellerId = _assignedSellerId;\r\n    }\r\n\r\n    //getter for the Buyerlist array\r\n    function getBuyer() public view returns( address [] memory){\r\n        return(Buyerlist);\r\n    }\r\n\r\n    //getter for the seller list array\r\n    function getSeller() public view returns( address [] memory){\r\n        return(sellerList);\r\n    }\r\n\r\n    //getter for the lawyerList array\r\n    function getLawyer() public view returns( address [] memory){\r\n        return(lawyerList);\r\n    }\r\n\r\n    // function to add a new deed to the deeds mapping\r\n    function addNewDeed(string memory _no, string memory _streetName, string memory _city, string memory _district, string memory _province, uint _assignedLawyerId, uint _assignedSellerId) public {\r\n        deeds[deedCount] = Deed(deedCount, _no, _streetName, _city, _district, _province, _assignedLawyerId, _assignedSellerId);\r\n        deedCount++;\r\n    }\r\n\r\n    //function to register new Buyer\r\n    function registerBuyer(string memory _nic, string memory _name, uint _age, string memory _city, string memory _email, uint _telephoneNumber) public {\r\n        Buyersmapping[buyersCount] = Buyer(buyersCount, _nic,  _name, _age, _city, _email, _telephoneNumber);\r\n        buyersCount++;\r\n    }\r\n\r\n    //function to register a seller\r\n    function registerSeller(string memory _name, string memory _nic, uint _age, string memory _city, string memory _email, uint _telephoneNumber) public {\r\n        sellersMapping[sellersCount] = Seller(_name, sellersCount, _nic, _age, _city, _email, _telephoneNumber);\r\n        sellersCount++;\r\n    }\r\n\r\n    //function to register a new Lawyer\r\n    function registerLawyer(string memory _lawyerName, string memory _lawyernic, string memory _lawyerRegNo, string memory _lawyerEmail) public {\r\n        Lawyersmapping[lawyerCount] = Lawyer(lawyerCount, _lawyerName, _lawyernic, _lawyerRegNo, _lawyerEmail);\r\n        lawyerCount++;\r\n    }\r\n\r\n    //function to display buyer details\r\n    function displayBuyer(uint index) public view returns (uint _id, string memory _nic, string memory _name, uint _age, string memory _city, string memory _email, uint _telephoneNumber){\r\n        return(Buyersmapping[index].id, Buyersmapping[index].nic,Buyersmapping[index].name,Buyersmapping[index].age,Buyersmapping[index].city,Buyersmapping[index].email,Buyersmapping[index].telephoneNumber);\r\n\r\n    } \r\n\r\n    //function to display seller details\r\n    function displaySeller(uint index) public view returns (string memory _name, uint _id, string memory _nic, uint _age, string memory _city, string memory _email, uint _telephoneNumber){\r\n        return(sellersMapping[index].name, sellersMapping[index].id, sellersMapping[index].nic, sellersMapping[index].age, sellersMapping[index].city, sellersMapping[index].email, sellersMapping[index].telephoneNumber);\r\n    }\r\n\r\n    //function to add admin\r\n    function addAdmin() private {\r\n        adminCount++;\r\n        adminMapping[adminCount] = Admin(adminCount);\r\n    }\r\n    \r\n    //function to display lawyer details\r\n    function displayLawyer(uint index) public view returns (uint _lawyerId, string memory _lawyerName, string memory _lawyernic, string memory _lawyerRegNo, string memory _lawyerEmail){\r\n        return(Lawyersmapping[index].lawyerId, Lawyersmapping[index].lawyerName, Lawyersmapping[index].lawyernic, Lawyersmapping[index].lawyerRegNo, Lawyersmapping[index].lawyerEmail);\r\n    }\r\n\r\n    // function to get the lawyer id\r\n    function getLawyerId(uint index) public view returns (uint) {\r\n        return Lawyersmapping[index].lawyerId;\r\n    }\r\n\r\n    // function to get the lawyer name\r\n    function getLawyerName(uint index) public view returns (string memory) {\r\n        return Lawyersmapping[index].lawyerName;\r\n    }\r\n\r\n    // function to get the lawyer nic\r\n    function getLawyerNic(uint index) public view returns (string memory) {\r\n        return Lawyersmapping[index].lawyernic;\r\n    }\r\n\r\n    // function to get the lawyer reg no\r\n    function getLawyerRegNo(uint index) public view returns (string memory) {\r\n        return Lawyersmapping[index].lawyerRegNo;\r\n    }\r\n\r\n    // function to get the lawyer email\r\n    function getLawyerEmail(uint index) public view returns (string memory) {\r\n        return Lawyersmapping[index].lawyerEmail;\r\n    }\r\n\r\n    // function to get the seller id\r\n    function getSellerId(uint index) public view returns (uint) {\r\n        return sellersMapping[index].id;\r\n    }\r\n\r\n    // function to get the seller name\r\n    function getSellerName(uint index) public view returns (string memory) {\r\n        return sellersMapping[index].name;\r\n    }\r\n\r\n    // function to get the seller nic\r\n    function getSellerNic(uint index) public view returns (string memory) {\r\n        return sellersMapping[index].nic;\r\n    }\r\n\r\n    // function to get the seller age\r\n    function getSellerAge(uint index) public view returns (uint) {\r\n        return sellersMapping[index].age;\r\n    }\r\n\r\n    // function to get the seller city\r\n    function getSellerCity(uint index) public view returns (string memory) {\r\n        return sellersMapping[index].city;\r\n    }\r\n\r\n    // function to get the seller email\r\n    function getSellerEmail(uint index) public view returns (string memory) {\r\n        return sellersMapping[index].email;\r\n    }\r\n\r\n    // function to get the seller telephonenumber\r\n    function getSellerTelephoneNo(uint index) public view returns (uint) {\r\n        return sellersMapping[index].telephoneNumber;\r\n    }\r\n}",
  "sourcePath": "C:\\GitHubRepos\\GitHub\\DBLOCK\\backEnd\\contracts\\Land.sol",
  "compiler": {
    "name": "solc",
    "version": "0.8.10+commit.fc410830.Emscripten.clang"
  },
  "schemaVersion": "3.4.3",
  "updatedAt": "2022-03-08T11:38:07.883Z",
  "devdoc": {
    "kind": "dev",
    "methods": {},
    "version": 1
  },
  "userdoc": {
    "kind": "user",
    "methods": {},
    "version": 1
  }
}