{
  "contractName": "Land",
  "abi": [
    {
      "inputs": [],
      "stateMutability": "nonpayable",
      "type": "constructor"
    },
    {
      "inputs": [
        {
          "internalType": "uint256",
          "name": "",
          "type": "uint256"
        }
      ],
      "name": "Lawyersmapping",
      "outputs": [
        {
          "internalType": "uint256",
          "name": "lawyerId",
          "type": "uint256"
        },
        {
          "internalType": "string",
          "name": "lawyerName",
          "type": "string"
        },
        {
          "internalType": "string",
          "name": "lawyernic",
          "type": "string"
        },
        {
          "internalType": "string",
          "name": "lawyerRegNo",
          "type": "string"
        },
        {
          "internalType": "string",
          "name": "lawyerEmail",
          "type": "string"
        }
      ],
      "stateMutability": "view",
      "type": "function"
    },
    {
      "inputs": [
        {
          "internalType": "uint256",
          "name": "",
          "type": "uint256"
        }
      ],
      "name": "adminMapping",
      "outputs": [
        {
          "internalType": "uint256",
          "name": "id",
          "type": "uint256"
        },
        {
          "internalType": "string",
          "name": "adminPassword",
          "type": "string"
        }
      ],
      "stateMutability": "view",
      "type": "function"
    },
    {
      "inputs": [
        {
          "internalType": "uint256",
          "name": "",
          "type": "uint256"
        }
      ],
      "name": "deeds",
      "outputs": [
        {
          "internalType": "uint256",
          "name": "deedId",
          "type": "uint256"
        },
        {
          "internalType": "string",
          "name": "ipfsHash",
          "type": "string"
        },
        {
          "internalType": "string",
          "name": "no",
          "type": "string"
        },
        {
          "internalType": "string",
          "name": "streetName",
          "type": "string"
        },
        {
          "internalType": "string",
          "name": "city",
          "type": "string"
        },
        {
          "internalType": "string",
          "name": "district",
          "type": "string"
        },
        {
          "internalType": "string",
          "name": "province",
          "type": "string"
        },
        {
          "internalType": "uint256",
          "name": "assignedLawyerId",
          "type": "uint256"
        },
        {
          "internalType": "uint256",
          "name": "assignedSellerId",
          "type": "uint256"
        }
      ],
      "stateMutability": "view",
      "type": "function"
    },
    {
      "inputs": [
        {
          "internalType": "uint256",
          "name": "",
          "type": "uint256"
        }
      ],
      "name": "sellersMapping",
      "outputs": [
        {
          "internalType": "string",
          "name": "name",
          "type": "string"
        },
        {
          "internalType": "uint256",
          "name": "id",
          "type": "uint256"
        },
        {
          "internalType": "string",
          "name": "nic",
          "type": "string"
        },
        {
          "internalType": "uint256",
          "name": "age",
          "type": "uint256"
        },
        {
          "internalType": "string",
          "name": "city",
          "type": "string"
        },
        {
          "internalType": "string",
          "name": "email",
          "type": "string"
        },
        {
          "internalType": "uint256",
          "name": "telephoneNumber",
          "type": "uint256"
        }
      ],
      "stateMutability": "view",
      "type": "function"
    },
    {
      "inputs": [
        {
          "internalType": "uint256",
          "name": "index",
          "type": "uint256"
        }
      ],
      "name": "getHashFromDeed",
      "outputs": [
        {
          "internalType": "string",
          "name": "",
          "type": "string"
        }
      ],
      "stateMutability": "view",
      "type": "function"
    },
    {
      "inputs": [
        {
          "internalType": "uint256",
          "name": "deedId",
          "type": "uint256"
        },
        {
          "internalType": "string",
          "name": "x",
          "type": "string"
        }
      ],
      "name": "sendHash",
      "outputs": [],
      "stateMutability": "nonpayable",
      "type": "function"
    },
    {
      "inputs": [],
      "name": "getDeedCount",
      "outputs": [
        {
          "internalType": "uint256",
          "name": "",
          "type": "uint256"
        }
      ],
      "stateMutability": "view",
      "type": "function"
    },
    {
      "inputs": [],
      "name": "getLawyerCount",
      "outputs": [
        {
          "internalType": "uint256",
          "name": "",
          "type": "uint256"
        }
      ],
      "stateMutability": "view",
      "type": "function"
    },
    {
      "inputs": [],
      "name": "getSellersCount",
      "outputs": [
        {
          "internalType": "uint256",
          "name": "",
          "type": "uint256"
        }
      ],
      "stateMutability": "view",
      "type": "function"
    },
    {
      "inputs": [],
      "name": "getAdminCount",
      "outputs": [
        {
          "internalType": "uint256",
          "name": "",
          "type": "uint256"
        }
      ],
      "stateMutability": "view",
      "type": "function"
    },
    {
      "inputs": [
        {
          "internalType": "uint256",
          "name": "index",
          "type": "uint256"
        }
      ],
      "name": "getDeedId",
      "outputs": [
        {
          "internalType": "uint256",
          "name": "",
          "type": "uint256"
        }
      ],
      "stateMutability": "view",
      "type": "function"
    },
    {
      "inputs": [
        {
          "internalType": "uint256",
          "name": "index",
          "type": "uint256"
        }
      ],
      "name": "getDeedNo",
      "outputs": [
        {
          "internalType": "string",
          "name": "",
          "type": "string"
        }
      ],
      "stateMutability": "view",
      "type": "function"
    },
    {
      "inputs": [
        {
          "internalType": "uint256",
          "name": "index",
          "type": "uint256"
        }
      ],
      "name": "getDeedStreetName",
      "outputs": [
        {
          "internalType": "string",
          "name": "",
          "type": "string"
        }
      ],
      "stateMutability": "view",
      "type": "function"
    },
    {
      "inputs": [
        {
          "internalType": "uint256",
          "name": "index",
          "type": "uint256"
        }
      ],
      "name": "getDeedCity",
      "outputs": [
        {
          "internalType": "string",
          "name": "",
          "type": "string"
        }
      ],
      "stateMutability": "view",
      "type": "function"
    },
    {
      "inputs": [
        {
          "internalType": "uint256",
          "name": "index",
          "type": "uint256"
        }
      ],
      "name": "getDeedDistrict",
      "outputs": [
        {
          "internalType": "string",
          "name": "",
          "type": "string"
        }
      ],
      "stateMutability": "view",
      "type": "function"
    },
    {
      "inputs": [
        {
          "internalType": "uint256",
          "name": "index",
          "type": "uint256"
        }
      ],
      "name": "getDeedProvince",
      "outputs": [
        {
          "internalType": "string",
          "name": "",
          "type": "string"
        }
      ],
      "stateMutability": "view",
      "type": "function"
    },
    {
      "inputs": [
        {
          "internalType": "uint256",
          "name": "index",
          "type": "uint256"
        }
      ],
      "name": "getLawyerIdOfDeed",
      "outputs": [
        {
          "internalType": "uint256",
          "name": "",
          "type": "uint256"
        }
      ],
      "stateMutability": "view",
      "type": "function"
    },
    {
      "inputs": [
        {
          "internalType": "uint256",
          "name": "index",
          "type": "uint256"
        }
      ],
      "name": "getSellerIdOfDeed",
      "outputs": [
        {
          "internalType": "uint256",
          "name": "",
          "type": "uint256"
        }
      ],
      "stateMutability": "view",
      "type": "function"
    },
    {
      "inputs": [
        {
          "internalType": "string",
          "name": "_no",
          "type": "string"
        },
        {
          "internalType": "string",
          "name": "_streetName",
          "type": "string"
        },
        {
          "internalType": "string",
          "name": "_city",
          "type": "string"
        },
        {
          "internalType": "string",
          "name": "_district",
          "type": "string"
        },
        {
          "internalType": "string",
          "name": "_province",
          "type": "string"
        }
      ],
      "name": "findDeedByAddress",
      "outputs": [
        {
          "internalType": "uint256",
          "name": "",
          "type": "uint256"
        }
      ],
      "stateMutability": "view",
      "type": "function"
    },
    {
      "inputs": [
        {
          "internalType": "string",
          "name": "_email",
          "type": "string"
        }
      ],
      "name": "findLawyerByEmail",
      "outputs": [
        {
          "internalType": "uint256",
          "name": "",
          "type": "uint256"
        }
      ],
      "stateMutability": "view",
      "type": "function"
    },
    {
      "inputs": [
        {
          "internalType": "string",
          "name": "_email",
          "type": "string"
        }
      ],
      "name": "findSellerByEmail",
      "outputs": [
        {
          "internalType": "uint256",
          "name": "",
          "type": "uint256"
        }
      ],
      "stateMutability": "view",
      "type": "function"
    },
    {
      "inputs": [
        {
          "internalType": "uint256",
          "name": "_deedId",
          "type": "uint256"
        },
        {
          "internalType": "uint256",
          "name": "_assignedLawyerId",
          "type": "uint256"
        },
        {
          "internalType": "uint256",
          "name": "_assignedSellerId",
          "type": "uint256"
        }
      ],
      "name": "changeDeedBuyerAndSeller",
      "outputs": [],
      "stateMutability": "nonpayable",
      "type": "function"
    },
    {
      "inputs": [
        {
          "internalType": "string",
          "name": "_no",
          "type": "string"
        },
        {
          "internalType": "string",
          "name": "_streetName",
          "type": "string"
        },
        {
          "internalType": "string",
          "name": "_city",
          "type": "string"
        },
        {
          "internalType": "string",
          "name": "_district",
          "type": "string"
        },
        {
          "internalType": "string",
          "name": "_province",
          "type": "string"
        },
        {
          "internalType": "uint256",
          "name": "_assignedLawyerId",
          "type": "uint256"
        },
        {
          "internalType": "uint256",
          "name": "_assignedSellerId",
          "type": "uint256"
        }
      ],
      "name": "addNewDeed",
      "outputs": [],
      "stateMutability": "nonpayable",
      "type": "function"
    },
    {
      "inputs": [
        {
          "internalType": "string",
          "name": "_name",
          "type": "string"
        },
        {
          "internalType": "uint256",
          "name": "_id",
          "type": "uint256"
        },
        {
          "internalType": "string",
          "name": "_nic",
          "type": "string"
        },
        {
          "internalType": "uint256",
          "name": "_age",
          "type": "uint256"
        },
        {
          "internalType": "string",
          "name": "_city",
          "type": "string"
        },
        {
          "internalType": "string",
          "name": "_email",
          "type": "string"
        },
        {
          "internalType": "uint256",
          "name": "_telephoneNumber",
          "type": "uint256"
        }
      ],
      "name": "registerSeller",
      "outputs": [],
      "stateMutability": "nonpayable",
      "type": "function"
    },
    {
      "inputs": [
        {
          "internalType": "uint256",
          "name": "_lawyerId",
          "type": "uint256"
        },
        {
          "internalType": "string",
          "name": "_lawyerName",
          "type": "string"
        },
        {
          "internalType": "string",
          "name": "_lawyernic",
          "type": "string"
        },
        {
          "internalType": "string",
          "name": "_lawyerRegNo",
          "type": "string"
        },
        {
          "internalType": "string",
          "name": "_lawyerEmail",
          "type": "string"
        }
      ],
      "name": "registerLawyer",
      "outputs": [],
      "stateMutability": "nonpayable",
      "type": "function"
    },
    {
      "inputs": [
        {
          "internalType": "uint256",
          "name": "index",
          "type": "uint256"
        }
      ],
      "name": "getLawyerId",
      "outputs": [
        {
          "internalType": "uint256",
          "name": "",
          "type": "uint256"
        }
      ],
      "stateMutability": "view",
      "type": "function"
    },
    {
      "inputs": [
        {
          "internalType": "uint256",
          "name": "index",
          "type": "uint256"
        }
      ],
      "name": "getLawyerName",
      "outputs": [
        {
          "internalType": "string",
          "name": "",
          "type": "string"
        }
      ],
      "stateMutability": "view",
      "type": "function"
    },
    {
      "inputs": [
        {
          "internalType": "uint256",
          "name": "index",
          "type": "uint256"
        }
      ],
      "name": "getLawyerNic",
      "outputs": [
        {
          "internalType": "string",
          "name": "",
          "type": "string"
        }
      ],
      "stateMutability": "view",
      "type": "function"
    },
    {
      "inputs": [
        {
          "internalType": "uint256",
          "name": "index",
          "type": "uint256"
        }
      ],
      "name": "getLawyerRegNo",
      "outputs": [
        {
          "internalType": "string",
          "name": "",
          "type": "string"
        }
      ],
      "stateMutability": "view",
      "type": "function"
    },
    {
      "inputs": [
        {
          "internalType": "uint256",
          "name": "index",
          "type": "uint256"
        }
      ],
      "name": "getLawyerEmail",
      "outputs": [
        {
          "internalType": "string",
          "name": "",
          "type": "string"
        }
      ],
      "stateMutability": "view",
      "type": "function"
    },
    {
      "inputs": [
        {
          "internalType": "uint256",
          "name": "index",
          "type": "uint256"
        }
      ],
      "name": "getSellerId",
      "outputs": [
        {
          "internalType": "uint256",
          "name": "",
          "type": "uint256"
        }
      ],
      "stateMutability": "view",
      "type": "function"
    },
    {
      "inputs": [
        {
          "internalType": "uint256",
          "name": "index",
          "type": "uint256"
        }
      ],
      "name": "getSellerName",
      "outputs": [
        {
          "internalType": "string",
          "name": "",
          "type": "string"
        }
      ],
      "stateMutability": "view",
      "type": "function"
    },
    {
      "inputs": [
        {
          "internalType": "uint256",
          "name": "index",
          "type": "uint256"
        }
      ],
      "name": "getSellerNic",
      "outputs": [
        {
          "internalType": "string",
          "name": "",
          "type": "string"
        }
      ],
      "stateMutability": "view",
      "type": "function"
    },
    {
      "inputs": [
        {
          "internalType": "uint256",
          "name": "index",
          "type": "uint256"
        }
      ],
      "name": "getSellerAge",
      "outputs": [
        {
          "internalType": "uint256",
          "name": "",
          "type": "uint256"
        }
      ],
      "stateMutability": "view",
      "type": "function"
    },
    {
      "inputs": [
        {
          "internalType": "uint256",
          "name": "index",
          "type": "uint256"
        }
      ],
      "name": "getSellerCity",
      "outputs": [
        {
          "internalType": "string",
          "name": "",
          "type": "string"
        }
      ],
      "stateMutability": "view",
      "type": "function"
    },
    {
      "inputs": [
        {
          "internalType": "uint256",
          "name": "index",
          "type": "uint256"
        }
      ],
      "name": "getSellerEmail",
      "outputs": [
        {
          "internalType": "string",
          "name": "",
          "type": "string"
        }
      ],
      "stateMutability": "view",
      "type": "function"
    },
    {
      "inputs": [
        {
          "internalType": "uint256",
          "name": "index",
          "type": "uint256"
        }
      ],
      "name": "getSellerTelephoneNo",
      "outputs": [
        {
          "internalType": "uint256",
          "name": "",
          "type": "uint256"
        }
      ],
      "stateMutability": "view",
      "type": "function"
    },
    {
      "inputs": [],
      "name": "getAdminId",
      "outputs": [
        {
          "internalType": "uint256",
          "name": "",
          "type": "uint256"
        }
      ],
      "stateMutability": "view",
      "type": "function"
    },
    {
      "inputs": [],
      "name": "getAdminPassword",
      "outputs": [
        {
          "internalType": "string",
          "name": "",
          "type": "string"
        }
      ],
      "stateMutability": "view",
      "type": "function"
    }
  ],
  "bytecode": "0x608060405260006004556000600555600060065560006007553480156200002557600080fd5b50604051806040016040528060075481526020016040518060400160405280600381526020017f3132330000000000000000000000000000000000000000000000000000000000815250815250600360006007548152602001908152602001600020600082015181600001556020820151816001019080519060200190620000af929190620000d3565b5090505060076000815480929190620000c890620001bc565b91905055506200026f565b828054620000e19062000239565b90600052602060002090601f01602090048101928262000105576000855562000151565b82601f106200012057805160ff191683800117855562000151565b8280016001018555821562000151579182015b828111156200015057825182559160200191906001019062000133565b5b50905062000160919062000164565b5090565b5b808211156200017f57600081600090555060010162000165565b5090565b7f4e487b7100000000000000000000000000000000000000000000000000000000600052601160045260246000fd5b6000819050919050565b6000620001c982620001b2565b91507fffffffffffffffffffffffffffffffffffffffffffffffffffffffffffffffff821415620001ff57620001fe62000183565b5b600182019050919050565b7f4e487b7100000000000000000000000000000000000000000000000000000000600052602260045260246000fd5b600060028204905060018216806200025257607f821691505b602082108114156200026957620002686200020a565b5b50919050565b613224806200027f6000396000f3fe608060405234801561001057600080fd5b506004361061023d5760003560e01c80637e45aa251161013b578063bd794975116100b8578063e084ada11161007c578063e084ada1146107f9578063ef38023514610829578063f0b93af914610845578063f8a3860514610875578063ffb434fb146108a55761023d565b8063bd7949751461072b578063cff0c7c014610747578063d96b0a551461077b578063dd9d122d146107ab578063df0a1c2a146107c95761023d565b80639cd681f5116100ff5780639cd681f51461064d578063a99859381461067d578063aca557731461069b578063b4321832146106cb578063b998b87c146106fb5761023d565b80637e45aa25146105955780637ea1449f146105c55780638b7bf3eb146105e35780639614681b1461060157806397ecb508146106315761023d565b8063334bb745116101c95780636c218b171161018d5780636c218b17146104b357806370ffbdd2146104e3578063721fa4181461051357806374cfe4751461052f5780637c6eb1031461055f5761023d565b8063334bb745146103e757806335a82e721461040557806344613830146104355780635dd5679814610465578063655dc4c2146104955761023d565b806318edf5641161021057806318edf5641461030257806321eb5a7c1461033a57806327dc19dd1461036b57806330c9fb481461038757806332a67853146103b75761023d565b806305624d35146102425780630cc543b6146102725780630df7ec24146102a2578063188a9379146102d2575b600080fd5b61025c60048036038101906102579190612770565b6108d5565b6040516102699190612836565b60405180910390f35b61028c60048036038101906102879190612770565b61097c565b6040516102999190612867565b60405180910390f35b6102bc60048036038101906102b79190612770565b61099c565b6040516102c99190612867565b60405180910390f35b6102ec60048036038101906102e79190612770565b6109bb565b6040516102f99190612836565b60405180910390f35b61031c60048036038101906103179190612770565b610a62565b60405161033199989796959493929190612882565b60405180910390f35b610354600480360381019061034f9190612770565b610de0565b604051610362929190612939565b60405180910390f35b61038560048036038101906103809190612a9e565b610e8c565b005b6103a1600480360381019061039c9190612770565b610f68565b6040516103ae9190612836565b60405180910390f35b6103d160048036038101906103cc9190612770565b611010565b6040516103de9190612836565b60405180910390f35b6103ef6110b7565b6040516103fc9190612867565b60405180910390f35b61041f600480360381019061041a9190612770565b6110c1565b60405161042c9190612867565b60405180910390f35b61044f600480360381019061044a9190612b89565b6110e0565b60405161045c9190612867565b60405180910390f35b61047f600480360381019061047a9190612770565b6111dc565b60405161048c9190612867565b60405180910390f35b61049d6111fb565b6040516104aa9190612867565b60405180910390f35b6104cd60048036038101906104c89190612770565b611205565b6040516104da9190612867565b60405180910390f35b6104fd60048036038101906104f89190612770565b611225565b60405161050a9190612836565b60405180910390f35b61052d60048036038101906105289190612bd2565b6112cd565b005b61054960048036038101906105449190612770565b611449565b6040516105569190612867565b60405180910390f35b61057960048036038101906105749190612770565b611469565b60405161058c9796959493929190612d00565b60405180910390f35b6105af60048036038101906105aa9190612770565b6116cb565b6040516105bc9190612836565b60405180910390f35b6105cd611773565b6040516105da9190612867565b60405180910390f35b6105eb611791565b6040516105f89190612867565b60405180910390f35b61061b60048036038101906106169190612d8b565b61179b565b6040516106289190612867565b60405180910390f35b61064b60048036038101906106469190612e92565b611b55565b005b61066760048036038101906106629190612770565b611c53565b6040516106749190612836565b60405180910390f35b610685611cfa565b6040516106929190612836565b60405180910390f35b6106b560048036038101906106b09190612770565b611da0565b6040516106c29190612836565b60405180910390f35b6106e560048036038101906106e09190612770565b611e48565b6040516106f29190612836565b60405180910390f35b61071560048036038101906107109190612b89565b611ef0565b6040516107229190612867565b60405180910390f35b61074560048036038101906107409190612fa4565b611fec565b005b610761600480360381019061075c9190612770565b61201a565b604051610772959493929190613000565b60405180910390f35b61079560048036038101906107909190612770565b612270565b6040516107a29190612836565b60405180910390f35b6107b3612318565b6040516107c09190612867565b60405180910390f35b6107e360048036038101906107de9190612770565b612322565b6040516107f09190612836565b60405180910390f35b610813600480360381019061080e9190612770565b6123ca565b6040516108209190612836565b60405180910390f35b610843600480360381019061083e919061306f565b612472565b005b61085f600480360381019061085a9190612770565b6124ab565b60405161086c9190612836565b60405180910390f35b61088f600480360381019061088a9190612770565b612552565b60405161089c9190612867565b60405180910390f35b6108bf60048036038101906108ba9190612770565b612572565b6040516108cc9190612836565b60405180910390f35b606060008083815260200190815260200160002060050180546108f7906130f1565b80601f0160208091040260200160405190810160405280929190818152602001828054610923906130f1565b80156109705780601f1061094557610100808354040283529160200191610970565b820191906000526020600020905b81548152906001019060200180831161095357829003601f168201915b50505050509050919050565b600060016000838152602001908152602001600020600601549050919050565b6000806000838152602001908152602001600020600001549050919050565b606060008083815260200190815260200160002060010180546109dd906130f1565b80601f0160208091040260200160405190810160405280929190818152602001828054610a09906130f1565b8015610a565780601f10610a2b57610100808354040283529160200191610a56565b820191906000526020600020905b815481529060010190602001808311610a3957829003601f168201915b50505050509050919050565b6000602052806000526040600020600091509050806000015490806001018054610a8b906130f1565b80601f0160208091040260200160405190810160405280929190818152602001828054610ab7906130f1565b8015610b045780601f10610ad957610100808354040283529160200191610b04565b820191906000526020600020905b815481529060010190602001808311610ae757829003601f168201915b505050505090806002018054610b19906130f1565b80601f0160208091040260200160405190810160405280929190818152602001828054610b45906130f1565b8015610b925780601f10610b6757610100808354040283529160200191610b92565b820191906000526020600020905b815481529060010190602001808311610b7557829003601f168201915b505050505090806003018054610ba7906130f1565b80601f0160208091040260200160405190810160405280929190818152602001828054610bd3906130f1565b8015610c205780601f10610bf557610100808354040283529160200191610c20565b820191906000526020600020905b815481529060010190602001808311610c0357829003601f168201915b505050505090806004018054610c35906130f1565b80601f0160208091040260200160405190810160405280929190818152602001828054610c61906130f1565b8015610cae5780601f10610c8357610100808354040283529160200191610cae565b820191906000526020600020905b815481529060010190602001808311610c9157829003601f168201915b505050505090806005018054610cc3906130f1565b80601f0160208091040260200160405190810160405280929190818152602001828054610cef906130f1565b8015610d3c5780601f10610d1157610100808354040283529160200191610d3c565b820191906000526020600020905b815481529060010190602001808311610d1f57829003601f168201915b505050505090806006018054610d51906130f1565b80601f0160208091040260200160405190810160405280929190818152602001828054610d7d906130f1565b8015610dca5780601f10610d9f57610100808354040283529160200191610dca565b820191906000526020600020905b815481529060010190602001808311610dad57829003601f168201915b5050505050908060070154908060080154905089565b6003602052806000526040600020600091509050806000015490806001018054610e09906130f1565b80601f0160208091040260200160405190810160405280929190818152602001828054610e35906130f1565b8015610e825780601f10610e5757610100808354040283529160200191610e82565b820191906000526020600020905b815481529060010190602001808311610e6557829003601f168201915b5050505050905082565b6040518060a0016040528086815260200185815260200184815260200183815260200182815250600260006006548152602001908152602001600020600082015181600001556020820151816001019080519060200190610eee929190612683565b506040820151816002019080519060200190610f0b929190612683565b506060820151816003019080519060200190610f28929190612683565b506080820151816004019080519060200190610f45929190612683565b5090505060066000815480929190610f5c90613152565b91905055505050505050565b6060600260008381526020019081526020016000206004018054610f8b906130f1565b80601f0160208091040260200160405190810160405280929190818152602001828054610fb7906130f1565b80156110045780601f10610fd957610100808354040283529160200191611004565b820191906000526020600020905b815481529060010190602001808311610fe757829003601f168201915b50505050509050919050565b60606000808381526020019081526020016000206002018054611032906130f1565b80601f016020809104026020016040519081016040528092919081815260200182805461105e906130f1565b80156110ab5780601f10611080576101008083540402835291602001916110ab565b820191906000526020600020905b81548152906001019060200180831161108e57829003601f168201915b50505050509050919050565b6000600454905090565b6000806000838152602001908152602001600020600701549050919050565b6000806000905060005b6005548210156111d25761119c84600160008581526020019081526020016000206005018054611119906130f1565b80601f0160208091040260200160405190810160405280929190818152602001828054611145906130f1565b80156111925780601f1061116757610100808354040283529160200191611192565b820191906000526020600020905b81548152906001019060200180831161117557829003601f168201915b5050505050612619565b156111bf57600160008381526020019081526020016000206001015490506111d2565b81806111ca90613152565b9250506110ea565b8092505050919050565b6000806000838152602001908152602001600020600801549050919050565b6000600654905090565b600060026000838152602001908152602001600020600001549050919050565b6060600160008381526020019081526020016000206002018054611248906130f1565b80601f0160208091040260200160405190810160405280929190818152602001828054611274906130f1565b80156112c15780601f10611296576101008083540402835291602001916112c1565b820191906000526020600020905b8154815290600101906020018083116112a457829003601f168201915b50505050509050919050565b60405180610120016040528060045481526020016040518060400160405280600781526020017f3c49504653233e00000000000000000000000000000000000000000000000000815250815260200188815260200187815260200186815260200185815260200184815260200183815260200182815250600080600454815260200190815260200160002060008201518160000155602082015181600101908051906020019061137e929190612683565b50604082015181600201908051906020019061139b929190612683565b5060608201518160030190805190602001906113b8929190612683565b5060808201518160040190805190602001906113d5929190612683565b5060a08201518160050190805190602001906113f2929190612683565b5060c082015181600601908051906020019061140f929190612683565b5060e0820151816007015561010082015181600801559050506004600081548092919061143b90613152565b919050555050505050505050565b600060016000838152602001908152602001600020600101549050919050565b600160205280600052604060002060009150905080600001805461148c906130f1565b80601f01602080910402602001604051908101604052809291908181526020018280546114b8906130f1565b80156115055780601f106114da57610100808354040283529160200191611505565b820191906000526020600020905b8154815290600101906020018083116114e857829003601f168201915b505050505090806001015490806002018054611520906130f1565b80601f016020809104026020016040519081016040528092919081815260200182805461154c906130f1565b80156115995780601f1061156e57610100808354040283529160200191611599565b820191906000526020600020905b81548152906001019060200180831161157c57829003601f168201915b5050505050908060030154908060040180546115b4906130f1565b80601f01602080910402602001604051908101604052809291908181526020018280546115e0906130f1565b801561162d5780601f106116025761010080835404028352916020019161162d565b820191906000526020600020905b81548152906001019060200180831161161057829003601f168201915b505050505090806005018054611642906130f1565b80601f016020809104026020016040519081016040528092919081815260200182805461166e906130f1565b80156116bb5780601f10611690576101008083540402835291602001916116bb565b820191906000526020600020905b81548152906001019060200180831161169e57829003601f168201915b5050505050908060060154905087565b60606002600083815260200190815260200160002060010180546116ee906130f1565b80601f016020809104026020016040519081016040528092919081815260200182805461171a906130f1565b80156117675780601f1061173c57610100808354040283529160200191611767565b820191906000526020600020905b81548152906001019060200180831161174a57829003601f168201915b50505050509050919050565b60006003600080815260200190815260200160002060000154905090565b6000600754905090565b6000806000905060005b600454821015611b47576118568860008085815260200190815260200160002060020180546117d3906130f1565b80601f01602080910402602001604051908101604052809291908181526020018280546117ff906130f1565b801561184c5780601f106118215761010080835404028352916020019161184c565b820191906000526020600020905b81548152906001019060200180831161182f57829003601f168201915b5050505050612619565b80156119055750611904876000808581526020019081526020016000206003018054611881906130f1565b80601f01602080910402602001604051908101604052809291908181526020018280546118ad906130f1565b80156118fa5780601f106118cf576101008083540402835291602001916118fa565b820191906000526020600020905b8154815290600101906020018083116118dd57829003601f168201915b5050505050612619565b5b80156119b457506119b3866000808581526020019081526020016000206004018054611930906130f1565b80601f016020809104026020016040519081016040528092919081815260200182805461195c906130f1565b80156119a95780601f1061197e576101008083540402835291602001916119a9565b820191906000526020600020905b81548152906001019060200180831161198c57829003601f168201915b5050505050612619565b5b8015611a635750611a628560008085815260200190815260200160002060050180546119df906130f1565b80601f0160208091040260200160405190810160405280929190818152602001828054611a0b906130f1565b8015611a585780601f10611a2d57610100808354040283529160200191611a58565b820191906000526020600020905b815481529060010190602001808311611a3b57829003601f168201915b5050505050612619565b5b8015611b125750611b11846000808581526020019081526020016000206006018054611a8e906130f1565b80601f0160208091040260200160405190810160405280929190818152602001828054611aba906130f1565b8015611b075780601f10611adc57610100808354040283529160200191611b07565b820191906000526020600020905b815481529060010190602001808311611aea57829003601f168201915b5050505050612619565b5b15611b3457600080838152602001908152602001600020600001549050611b47565b8180611b3f90613152565b9250506117a5565b809250505095945050505050565b6040518060e00160405280888152602001878152602001868152602001858152602001848152602001838152602001828152506001600060055481526020019081526020016000206000820151816000019080519060200190611bb9929190612683565b50602082015181600101556040820151816002019080519060200190611be0929190612683565b50606082015181600301556080820151816004019080519060200190611c07929190612683565b5060a0820151816005019080519060200190611c24929190612683565b5060c0820151816006015590505060056000815480929190611c4590613152565b919050555050505050505050565b60606000808381526020019081526020016000206006018054611c75906130f1565b80601f0160208091040260200160405190810160405280929190818152602001828054611ca1906130f1565b8015611cee5780601f10611cc357610100808354040283529160200191611cee565b820191906000526020600020905b815481529060010190602001808311611cd157829003601f168201915b50505050509050919050565b6060600360008081526020019081526020016000206001018054611d1d906130f1565b80601f0160208091040260200160405190810160405280929190818152602001828054611d49906130f1565b8015611d965780601f10611d6b57610100808354040283529160200191611d96565b820191906000526020600020905b815481529060010190602001808311611d7957829003601f168201915b5050505050905090565b6060600260008381526020019081526020016000206003018054611dc3906130f1565b80601f0160208091040260200160405190810160405280929190818152602001828054611def906130f1565b8015611e3c5780601f10611e1157610100808354040283529160200191611e3c565b820191906000526020600020905b815481529060010190602001808311611e1f57829003601f168201915b50505050509050919050565b6060600160008381526020019081526020016000206000018054611e6b906130f1565b80601f0160208091040260200160405190810160405280929190818152602001828054611e97906130f1565b8015611ee45780601f10611eb957610100808354040283529160200191611ee4565b820191906000526020600020905b815481529060010190602001808311611ec757829003601f168201915b50505050509050919050565b6000806000905060005b600654821015611fe257611fac84600260008581526020019081526020016000206004018054611f29906130f1565b80601f0160208091040260200160405190810160405280929190818152602001828054611f55906130f1565b8015611fa25780601f10611f7757610100808354040283529160200191611fa2565b820191906000526020600020905b815481529060010190602001808311611f8557829003601f168201915b5050505050612619565b15611fcf5760026000838152602001908152602001600020600001549050611fe2565b8180611fda90613152565b925050611efa565b8092505050919050565b806000808481526020019081526020016000206001019080519060200190612015929190612683565b505050565b6002602052806000526040600020600091509050806000015490806001018054612043906130f1565b80601f016020809104026020016040519081016040528092919081815260200182805461206f906130f1565b80156120bc5780601f10612091576101008083540402835291602001916120bc565b820191906000526020600020905b81548152906001019060200180831161209f57829003601f168201915b5050505050908060020180546120d1906130f1565b80601f01602080910402602001604051908101604052809291908181526020018280546120fd906130f1565b801561214a5780601f1061211f5761010080835404028352916020019161214a565b820191906000526020600020905b81548152906001019060200180831161212d57829003601f168201915b50505050509080600301805461215f906130f1565b80601f016020809104026020016040519081016040528092919081815260200182805461218b906130f1565b80156121d85780601f106121ad576101008083540402835291602001916121d8565b820191906000526020600020905b8154815290600101906020018083116121bb57829003601f168201915b5050505050908060040180546121ed906130f1565b80601f0160208091040260200160405190810160405280929190818152602001828054612219906130f1565b80156122665780601f1061223b57610100808354040283529160200191612266565b820191906000526020600020905b81548152906001019060200180831161224957829003601f168201915b5050505050905085565b6060600160008381526020019081526020016000206004018054612293906130f1565b80601f01602080910402602001604051908101604052809291908181526020018280546122bf906130f1565b801561230c5780601f106122e15761010080835404028352916020019161230c565b820191906000526020600020905b8154815290600101906020018083116122ef57829003601f168201915b50505050509050919050565b6000600554905090565b6060600260008381526020019081526020016000206002018054612345906130f1565b80601f0160208091040260200160405190810160405280929190818152602001828054612371906130f1565b80156123be5780601f10612393576101008083540402835291602001916123be565b820191906000526020600020905b8154815290600101906020018083116123a157829003601f168201915b50505050509050919050565b60606001600083815260200190815260200160002060050180546123ed906130f1565b80601f0160208091040260200160405190810160405280929190818152602001828054612419906130f1565b80156124665780601f1061243b57610100808354040283529160200191612466565b820191906000526020600020905b81548152906001019060200180831161244957829003601f168201915b50505050509050919050565b81600080858152602001908152602001600020600701819055508060008085815260200190815260200160002060080181905550505050565b606060008083815260200190815260200160002060040180546124cd906130f1565b80601f01602080910402602001604051908101604052809291908181526020018280546124f9906130f1565b80156125465780601f1061251b57610100808354040283529160200191612546565b820191906000526020600020905b81548152906001019060200180831161252957829003601f168201915b50505050509050919050565b600060016000838152602001908152602001600020600301549050919050565b60606000808381526020019081526020016000206003018054612594906130f1565b80601f01602080910402602001604051908101604052809291908181526020018280546125c0906130f1565b801561260d5780601f106125e25761010080835404028352916020019161260d565b820191906000526020600020905b8154815290600101906020018083116125f057829003601f168201915b50505050509050919050565b60008160405160200161262c91906131d7565b604051602081830303815290604052805190602001208360405160200161265391906131d7565b604051602081830303815290604052805190602001201415612678576001905061267d565b600090505b92915050565b82805461268f906130f1565b90600052602060002090601f0160209004810192826126b157600085556126f8565b82601f106126ca57805160ff19168380011785556126f8565b828001600101855582156126f8579182015b828111156126f75782518255916020019190600101906126dc565b5b5090506127059190612709565b5090565b5b8082111561272257600081600090555060010161270a565b5090565b6000604051905090565b600080fd5b600080fd5b6000819050919050565b61274d8161273a565b811461275857600080fd5b50565b60008135905061276a81612744565b92915050565b60006020828403121561278657612785612730565b5b60006127948482850161275b565b91505092915050565b600081519050919050565b600082825260208201905092915050565b60005b838110156127d75780820151818401526020810190506127bc565b838111156127e6576000848401525b50505050565b6000601f19601f8301169050919050565b60006128088261279d565b61281281856127a8565b93506128228185602086016127b9565b61282b816127ec565b840191505092915050565b6000602082019050818103600083015261285081846127fd565b905092915050565b6128618161273a565b82525050565b600060208201905061287c6000830184612858565b92915050565b600061012082019050612898600083018c612858565b81810360208301526128aa818b6127fd565b905081810360408301526128be818a6127fd565b905081810360608301526128d281896127fd565b905081810360808301526128e681886127fd565b905081810360a08301526128fa81876127fd565b905081810360c083015261290e81866127fd565b905061291d60e0830185612858565b61292b610100830184612858565b9a9950505050505050505050565b600060408201905061294e6000830185612858565b818103602083015261296081846127fd565b90509392505050565b600080fd5b600080fd5b7f4e487b7100000000000000000000000000000000000000000000000000000000600052604160045260246000fd5b6129ab826127ec565b810181811067ffffffffffffffff821117156129ca576129c9612973565b5b80604052505050565b60006129dd612726565b90506129e982826129a2565b919050565b600067ffffffffffffffff821115612a0957612a08612973565b5b612a12826127ec565b9050602081019050919050565b82818337600083830152505050565b6000612a41612a3c846129ee565b6129d3565b905082815260208101848484011115612a5d57612a5c61296e565b5b612a68848285612a1f565b509392505050565b600082601f830112612a8557612a84612969565b5b8135612a95848260208601612a2e565b91505092915050565b600080600080600060a08688031215612aba57612ab9612730565b5b6000612ac88882890161275b565b955050602086013567ffffffffffffffff811115612ae957612ae8612735565b5b612af588828901612a70565b945050604086013567ffffffffffffffff811115612b1657612b15612735565b5b612b2288828901612a70565b935050606086013567ffffffffffffffff811115612b4357612b42612735565b5b612b4f88828901612a70565b925050608086013567ffffffffffffffff811115612b7057612b6f612735565b5b612b7c88828901612a70565b9150509295509295909350565b600060208284031215612b9f57612b9e612730565b5b600082013567ffffffffffffffff811115612bbd57612bbc612735565b5b612bc984828501612a70565b91505092915050565b600080600080600080600060e0888a031215612bf157612bf0612730565b5b600088013567ffffffffffffffff811115612c0f57612c0e612735565b5b612c1b8a828b01612a70565b975050602088013567ffffffffffffffff811115612c3c57612c3b612735565b5b612c488a828b01612a70565b965050604088013567ffffffffffffffff811115612c6957612c68612735565b5b612c758a828b01612a70565b955050606088013567ffffffffffffffff811115612c9657612c95612735565b5b612ca28a828b01612a70565b945050608088013567ffffffffffffffff811115612cc357612cc2612735565b5b612ccf8a828b01612a70565b93505060a0612ce08a828b0161275b565b92505060c0612cf18a828b0161275b565b91505092959891949750929550565b600060e0820190508181036000830152612d1a818a6127fd565b9050612d296020830189612858565b8181036040830152612d3b81886127fd565b9050612d4a6060830187612858565b8181036080830152612d5c81866127fd565b905081810360a0830152612d7081856127fd565b9050612d7f60c0830184612858565b98975050505050505050565b600080600080600060a08688031215612da757612da6612730565b5b600086013567ffffffffffffffff811115612dc557612dc4612735565b5b612dd188828901612a70565b955050602086013567ffffffffffffffff811115612df257612df1612735565b5b612dfe88828901612a70565b945050604086013567ffffffffffffffff811115612e1f57612e1e612735565b5b612e2b88828901612a70565b935050606086013567ffffffffffffffff811115612e4c57612e4b612735565b5b612e5888828901612a70565b925050608086013567ffffffffffffffff811115612e7957612e78612735565b5b612e8588828901612a70565b9150509295509295909350565b600080600080600080600060e0888a031215612eb157612eb0612730565b5b600088013567ffffffffffffffff811115612ecf57612ece612735565b5b612edb8a828b01612a70565b9750506020612eec8a828b0161275b565b965050604088013567ffffffffffffffff811115612f0d57612f0c612735565b5b612f198a828b01612a70565b9550506060612f2a8a828b0161275b565b945050608088013567ffffffffffffffff811115612f4b57612f4a612735565b5b612f578a828b01612a70565b93505060a088013567ffffffffffffffff811115612f7857612f77612735565b5b612f848a828b01612a70565b92505060c0612f958a828b0161275b565b91505092959891949750929550565b60008060408385031215612fbb57612fba612730565b5b6000612fc98582860161275b565b925050602083013567ffffffffffffffff811115612fea57612fe9612735565b5b612ff685828601612a70565b9150509250929050565b600060a0820190506130156000830188612858565b818103602083015261302781876127fd565b9050818103604083015261303b81866127fd565b9050818103606083015261304f81856127fd565b9050818103608083015261306381846127fd565b90509695505050505050565b60008060006060848603121561308857613087612730565b5b60006130968682870161275b565b93505060206130a78682870161275b565b92505060406130b88682870161275b565b9150509250925092565b7f4e487b7100000000000000000000000000000000000000000000000000000000600052602260045260246000fd5b6000600282049050600182168061310957607f821691505b6020821081141561311d5761311c6130c2565b5b50919050565b7f4e487b7100000000000000000000000000000000000000000000000000000000600052601160045260246000fd5b600061315d8261273a565b91507fffffffffffffffffffffffffffffffffffffffffffffffffffffffffffffffff8214156131905761318f613123565b5b600182019050919050565b600081905092915050565b60006131b18261279d565b6131bb818561319b565b93506131cb8185602086016127b9565b80840191505092915050565b60006131e382846131a6565b91508190509291505056fea264697066735822122092974e2029c1f4b70d939ce3c5082227ba5d4967c703cd7e360407c450816add64736f6c634300080a0033",
  "immutableReferences": {},
  "source": "// SPDX-License-Identifier: MIT\r\npragma solidity >=0.4.22 <0.9.0;\r\n\r\ncontract Land {\r\n    \r\n    // structs\r\n    struct Deed {\r\n        // deed instance variables\r\n        uint deedId;\r\n        string ipfsHash;\r\n        string no;\r\n        string streetName;\r\n        string city;\r\n        string district;\r\n        string province;\r\n        uint assignedLawyerId; // to link the relevant lawyer to the deed\r\n        uint assignedSellerId; // to link the relevant seller to the deed\r\n    }\r\n\r\n    struct Lawyer{\r\n        // Lawyer instance variables\r\n        uint lawyerId;\r\n        string lawyerName;\r\n        string lawyernic;\r\n        string lawyerRegNo;\r\n        string lawyerEmail;\r\n    }\r\n\r\n    struct Seller {\r\n        // Seller instance variables\r\n        string name;\r\n\t\tuint id;\r\n\t\tstring nic;\r\n        uint age;\r\n        string city;\r\n\t\tstring email;\r\n        uint telephoneNumber;\r\n    }\r\n\r\n    struct Admin {\r\n        // Admin instance variables\r\n        uint id;\r\n        string adminPassword;\r\n    }\r\n    \r\n    // mappings\r\n    mapping(uint => Deed) public deeds;\r\n    mapping(uint => Seller) public sellersMapping;\r\n    mapping(uint => Lawyer) public Lawyersmapping;\r\n    mapping(uint => Admin) public adminMapping;\r\n    \r\n    // Count tracking variables\r\n    uint private deedCount = 0;\r\n    uint private sellersCount = 0;\r\n    uint private lawyerCount = 0;\r\n    uint private adminCount = 0;\r\n\r\n    constructor() public {\r\n        // initializing the admin\r\n        adminMapping[adminCount] = Admin(adminCount, \"123\");\r\n        adminCount++;\r\n    }    \r\n\r\n    function getHashFromDeed(uint index) public view returns (string memory) {   \r\n        return deeds[index].ipfsHash;\r\n    }\r\n\r\n    function sendHash(uint deedId, string memory x) public {\r\n        deeds[deedId].ipfsHash = x;\r\n    }     \r\n\r\n    // getter for deed count\r\n    function getDeedCount() public view returns (uint) {\r\n        return deedCount;\r\n    }\r\n\r\n    // getter for lawyer count\r\n    function getLawyerCount() public view returns(uint){\r\n        return lawyerCount;\r\n    }\r\n\r\n    // getter for seller count\r\n    function getSellersCount() public view returns(uint){\r\n        return sellersCount;\r\n    }\r\n\r\n    // getter for admin count\r\n    function getAdminCount() public view returns(uint){\r\n        return adminCount;\r\n    }\r\n\r\n    //getters for Deed struct\r\n    function getDeedId(uint index) public view returns (uint) {\r\n        return deeds[index].deedId;\r\n    }\r\n\r\n\r\n    function getDeedNo(uint index) public view returns (string memory) {\r\n        return deeds[index].no;\r\n    }\r\n\r\n    function getDeedStreetName(uint index) public view returns (string memory) {\r\n        return deeds[index].streetName;\r\n    }\r\n\r\n    function getDeedCity(uint index) public view returns (string memory) {\r\n        return deeds[index].city;\r\n    }\r\n\r\n    function getDeedDistrict(uint index) public view returns (string memory) {\r\n        return deeds[index].district;\r\n    }\r\n\r\n    function getDeedProvince(uint index) public view returns (string memory) {\r\n        return deeds[index].province;\r\n    }\r\n\r\n    function getLawyerIdOfDeed(uint index) public view returns (uint) {\r\n        return deeds[index].assignedLawyerId;\r\n    }\r\n\r\n    function getSellerIdOfDeed(uint index) public view returns (uint) {\r\n        return deeds[index].assignedSellerId;\r\n    }\r\n\r\n    // function to compare strings\r\n    function compareStrings(string memory s1, string memory s2) private pure returns (bool) {\r\n        if (keccak256(abi.encodePacked(s1)) == keccak256(abi.encodePacked(s2)))\r\n        {\r\n            return true;\r\n        }\r\n        else \r\n        {\r\n            return false;\r\n        }\r\n    }\r\n\r\n    // function to get the deed by the land address for searching purposes\r\n    function findDeedByAddress(string memory _no, string memory _streetName, string memory _city, string memory _district, string memory _province) public view returns (uint) {\r\n        uint i = 0;\r\n        uint returningDeedId;\r\n        while (i < deedCount)\r\n        {\r\n            if (compareStrings(_no, deeds[i].no) && compareStrings(_streetName, deeds[i].streetName) && compareStrings(_city, deeds[i].city) && compareStrings(_district, deeds[i].district) && compareStrings(_province, deeds[i].province))\r\n            {\r\n                returningDeedId = deeds[i].deedId;\r\n                break;\r\n            }\r\n            i++;\r\n        }\r\n        return returningDeedId;\r\n    }\r\n\r\n    // function to get the lawyer by email\r\n    function findLawyerByEmail(string memory _email) public view returns (uint) {\r\n        uint i = 0;\r\n        uint returningLawyerId;\r\n        while (i < lawyerCount)\r\n        {\r\n            if (compareStrings(_email, Lawyersmapping[i].lawyerEmail))\r\n            {\r\n                returningLawyerId = Lawyersmapping[i].lawyerId;\r\n                break;\r\n            }\r\n            i++;\r\n        }\r\n        return returningLawyerId;\r\n    }\r\n\r\n    //function to get the seller by email\r\n    function findSellerByEmail(string memory _email) public view returns (uint) {\r\n        uint i = 0;\r\n        uint returningSellerId;\r\n        while (i < sellersCount)\r\n        {\r\n            if (compareStrings(_email, sellersMapping[i].email))\r\n            {\r\n                returningSellerId = sellersMapping[i].id;\r\n                break;\r\n            }\r\n            i++;\r\n        }\r\n        return returningSellerId;\r\n    }\r\n\r\n\r\n    // function to change land deed buyer and seller\r\n    function changeDeedBuyerAndSeller(uint _deedId, uint _assignedLawyerId, uint _assignedSellerId) public {\r\n        deeds[_deedId].assignedLawyerId = _assignedLawyerId;\r\n        deeds[_deedId].assignedSellerId = _assignedSellerId;\r\n    }\r\n\r\n    // function to add a new deed to the deeds mapping\r\n    function addNewDeed(string memory _no, string memory _streetName, string memory _city, string memory _district, string memory _province, uint _assignedLawyerId, uint _assignedSellerId) public {\r\n        deeds[deedCount] = Deed(deedCount, \"<IPFS#>\", _no,  _streetName, _city, _district, _province, _assignedLawyerId, _assignedSellerId);\r\n        deedCount++;\r\n    }\r\n\r\n    //function to register a seller\r\n    function registerSeller(string memory _name, uint _id, string memory _nic, uint _age, string memory _city, string memory _email, uint _telephoneNumber) public {\r\n        sellersMapping[sellersCount] = Seller(_name, _id, _nic, _age, _city, _email, _telephoneNumber);\r\n        sellersCount++;\r\n    }\r\n\r\n    //function to register a new Lawyer\r\n    function registerLawyer(uint _lawyerId, string memory _lawyerName, string memory _lawyernic, string memory _lawyerRegNo, string memory _lawyerEmail) public {\r\n        Lawyersmapping[lawyerCount] = Lawyer(_lawyerId, _lawyerName, _lawyernic, _lawyerRegNo, _lawyerEmail);\r\n        lawyerCount++;\r\n    }\r\n\r\n    // function to get the lawyer id\r\n    function getLawyerId(uint index) public view returns (uint) {\r\n        return Lawyersmapping[index].lawyerId;\r\n    }\r\n\r\n    // function to get the lawyer name\r\n    function getLawyerName(uint index) public view returns (string memory) {\r\n        return Lawyersmapping[index].lawyerName;\r\n    }\r\n\r\n    // function to get the lawyer nic\r\n    function getLawyerNic(uint index) public view returns (string memory) {\r\n        return Lawyersmapping[index].lawyernic;\r\n    }\r\n\r\n    // function to get the lawyer reg no\r\n    function getLawyerRegNo(uint index) public view returns (string memory) {\r\n        return Lawyersmapping[index].lawyerRegNo;\r\n    }\r\n\r\n    // function to get the lawyer email\r\n    function getLawyerEmail(uint index) public view returns (string memory) {\r\n        return Lawyersmapping[index].lawyerEmail;\r\n    }\r\n\r\n    // function to get the seller id\r\n    function getSellerId(uint index) public view returns (uint) {\r\n        return sellersMapping[index].id;\r\n    }\r\n\r\n    // function to get the seller name\r\n    function getSellerName(uint index) public view returns (string memory) {\r\n        return sellersMapping[index].name;\r\n    }\r\n\r\n    // function to get the seller nic\r\n    function getSellerNic(uint index) public view returns (string memory) {\r\n        return sellersMapping[index].nic;\r\n    }\r\n\r\n    // function to get the seller age\r\n    function getSellerAge(uint index) public view returns (uint) {\r\n        return sellersMapping[index].age;\r\n    }\r\n\r\n    // function to get the seller city\r\n    function getSellerCity(uint index) public view returns (string memory) {\r\n        return sellersMapping[index].city;\r\n    }\r\n\r\n    // function to get the seller email\r\n    function getSellerEmail(uint index) public view returns (string memory) {\r\n        return sellersMapping[index].email;\r\n    }\r\n\r\n    // function to get the seller telephonenumber\r\n    function getSellerTelephoneNo(uint index) public view returns (uint) {\r\n        return sellersMapping[index].telephoneNumber;\r\n    }\r\n        //function to get admin id\r\n    function getAdminId() public view returns (uint) {\r\n        return adminMapping[0].id;\r\n    }\r\n\r\n    //function to get admin password\r\n    function getAdminPassword() public view returns (string memory) {\r\n        return adminMapping[0].adminPassword;\r\n    }\r\n}\r\n",
  "sourcePath": "C:\\GitHubRepos\\GitHub\\DBLOCK\\backEnd\\contracts\\Land.sol",
  "compiler": {
    "name": "solc",
    "version": "0.8.10+commit.fc410830.Emscripten.clang"
  },
  "schemaVersion": "3.4.3",
  "updatedAt": "2022-03-18T16:34:19.238Z",
  "devdoc": {
    "kind": "dev",
    "methods": {},
    "version": 1
  },
  "userdoc": {
    "kind": "user",
    "methods": {},
    "version": 1
  }
}