{
  "contractName": "Land",
  "abi": [
    {
      "inputs": [],
      "stateMutability": "nonpayable",
      "type": "constructor"
    },
    {
      "inputs": [
        {
          "internalType": "uint256",
          "name": "",
          "type": "uint256"
        }
      ],
      "name": "Lawyersmapping",
      "outputs": [
        {
          "internalType": "uint256",
          "name": "lawyerId",
          "type": "uint256"
        },
        {
          "internalType": "string",
          "name": "lawyerName",
          "type": "string"
        },
        {
          "internalType": "string",
          "name": "lawyernic",
          "type": "string"
        },
        {
          "internalType": "string",
          "name": "lawyerRegNo",
          "type": "string"
        },
        {
          "internalType": "string",
          "name": "lawyerEmail",
          "type": "string"
        },
        {
          "internalType": "uint256",
          "name": "lawyerTelephoneNumber",
          "type": "uint256"
        }
      ],
      "stateMutability": "view",
      "type": "function"
    },
    {
      "inputs": [
        {
          "internalType": "uint256",
          "name": "",
          "type": "uint256"
        }
      ],
      "name": "adminMapping",
      "outputs": [
        {
          "internalType": "uint256",
          "name": "id",
          "type": "uint256"
        },
        {
          "internalType": "string",
          "name": "adminPassword",
          "type": "string"
        }
      ],
      "stateMutability": "view",
      "type": "function"
    },
    {
      "inputs": [
        {
          "internalType": "uint256",
          "name": "",
          "type": "uint256"
        }
      ],
      "name": "deeds",
      "outputs": [
        {
          "internalType": "uint256",
          "name": "deedId",
          "type": "uint256"
        },
        {
          "internalType": "string",
          "name": "ipfsHash",
          "type": "string"
        },
        {
          "internalType": "string",
          "name": "no",
          "type": "string"
        },
        {
          "internalType": "string",
          "name": "streetName",
          "type": "string"
        },
        {
          "internalType": "string",
          "name": "city",
          "type": "string"
        },
        {
          "internalType": "string",
          "name": "district",
          "type": "string"
        },
        {
          "internalType": "string",
          "name": "province",
          "type": "string"
        },
        {
          "internalType": "uint256",
          "name": "assignedLawyerId",
          "type": "uint256"
        },
        {
          "internalType": "uint256",
          "name": "assignedSellerId",
          "type": "uint256"
        }
      ],
      "stateMutability": "view",
      "type": "function"
    },
    {
      "inputs": [
        {
          "internalType": "uint256",
          "name": "",
          "type": "uint256"
        }
      ],
      "name": "sellersMapping",
      "outputs": [
        {
          "internalType": "string",
          "name": "name",
          "type": "string"
        },
        {
          "internalType": "uint256",
          "name": "id",
          "type": "uint256"
        },
        {
          "internalType": "string",
          "name": "nic",
          "type": "string"
        },
        {
          "internalType": "uint256",
          "name": "age",
          "type": "uint256"
        },
        {
          "internalType": "string",
          "name": "city",
          "type": "string"
        },
        {
          "internalType": "string",
          "name": "email",
          "type": "string"
        },
        {
          "internalType": "uint256",
          "name": "telephoneNumber",
          "type": "uint256"
        }
      ],
      "stateMutability": "view",
      "type": "function"
    },
    {
      "inputs": [
        {
          "internalType": "uint256",
          "name": "index",
          "type": "uint256"
        }
      ],
      "name": "getHashFromDeed",
      "outputs": [
        {
          "internalType": "string",
          "name": "",
          "type": "string"
        }
      ],
      "stateMutability": "view",
      "type": "function"
    },
    {
      "inputs": [
        {
          "internalType": "uint256",
          "name": "deedId",
          "type": "uint256"
        },
        {
          "internalType": "string",
          "name": "x",
          "type": "string"
        }
      ],
      "name": "sendHash",
      "outputs": [],
      "stateMutability": "nonpayable",
      "type": "function"
    },
    {
      "inputs": [],
      "name": "getDeedCount",
      "outputs": [
        {
          "internalType": "uint256",
          "name": "",
          "type": "uint256"
        }
      ],
      "stateMutability": "view",
      "type": "function"
    },
    {
      "inputs": [],
      "name": "getLawyerCount",
      "outputs": [
        {
          "internalType": "uint256",
          "name": "",
          "type": "uint256"
        }
      ],
      "stateMutability": "view",
      "type": "function"
    },
    {
      "inputs": [],
      "name": "getSellersCount",
      "outputs": [
        {
          "internalType": "uint256",
          "name": "",
          "type": "uint256"
        }
      ],
      "stateMutability": "view",
      "type": "function"
    },
    {
      "inputs": [],
      "name": "getAdminCount",
      "outputs": [
        {
          "internalType": "uint256",
          "name": "",
          "type": "uint256"
        }
      ],
      "stateMutability": "view",
      "type": "function"
    },
    {
      "inputs": [
        {
          "internalType": "uint256",
          "name": "index",
          "type": "uint256"
        }
      ],
      "name": "getDeedId",
      "outputs": [
        {
          "internalType": "uint256",
          "name": "",
          "type": "uint256"
        }
      ],
      "stateMutability": "view",
      "type": "function"
    },
    {
      "inputs": [
        {
          "internalType": "uint256",
          "name": "index",
          "type": "uint256"
        }
      ],
      "name": "getDeedNo",
      "outputs": [
        {
          "internalType": "string",
          "name": "",
          "type": "string"
        }
      ],
      "stateMutability": "view",
      "type": "function"
    },
    {
      "inputs": [
        {
          "internalType": "uint256",
          "name": "index",
          "type": "uint256"
        }
      ],
      "name": "getDeedStreetName",
      "outputs": [
        {
          "internalType": "string",
          "name": "",
          "type": "string"
        }
      ],
      "stateMutability": "view",
      "type": "function"
    },
    {
      "inputs": [
        {
          "internalType": "uint256",
          "name": "index",
          "type": "uint256"
        }
      ],
      "name": "getDeedCity",
      "outputs": [
        {
          "internalType": "string",
          "name": "",
          "type": "string"
        }
      ],
      "stateMutability": "view",
      "type": "function"
    },
    {
      "inputs": [
        {
          "internalType": "uint256",
          "name": "index",
          "type": "uint256"
        }
      ],
      "name": "getDeedDistrict",
      "outputs": [
        {
          "internalType": "string",
          "name": "",
          "type": "string"
        }
      ],
      "stateMutability": "view",
      "type": "function"
    },
    {
      "inputs": [
        {
          "internalType": "uint256",
          "name": "index",
          "type": "uint256"
        }
      ],
      "name": "getDeedProvince",
      "outputs": [
        {
          "internalType": "string",
          "name": "",
          "type": "string"
        }
      ],
      "stateMutability": "view",
      "type": "function"
    },
    {
      "inputs": [
        {
          "internalType": "uint256",
          "name": "index",
          "type": "uint256"
        }
      ],
      "name": "getLawyerIdOfDeed",
      "outputs": [
        {
          "internalType": "uint256",
          "name": "",
          "type": "uint256"
        }
      ],
      "stateMutability": "view",
      "type": "function"
    },
    {
      "inputs": [
        {
          "internalType": "uint256",
          "name": "index",
          "type": "uint256"
        }
      ],
      "name": "getSellerIdOfDeed",
      "outputs": [
        {
          "internalType": "uint256",
          "name": "",
          "type": "uint256"
        }
      ],
      "stateMutability": "view",
      "type": "function"
    },
    {
      "inputs": [
        {
          "internalType": "string",
          "name": "_no",
          "type": "string"
        },
        {
          "internalType": "string",
          "name": "_streetName",
          "type": "string"
        },
        {
          "internalType": "string",
          "name": "_city",
          "type": "string"
        },
        {
          "internalType": "string",
          "name": "_district",
          "type": "string"
        },
        {
          "internalType": "string",
          "name": "_province",
          "type": "string"
        }
      ],
      "name": "findDeedByAddress",
      "outputs": [
        {
          "internalType": "uint256",
          "name": "",
          "type": "uint256"
        }
      ],
      "stateMutability": "view",
      "type": "function"
    },
    {
      "inputs": [
        {
          "internalType": "string",
          "name": "_email",
          "type": "string"
        }
      ],
      "name": "findLawyerByEmail",
      "outputs": [
        {
          "internalType": "uint256",
          "name": "",
          "type": "uint256"
        }
      ],
      "stateMutability": "view",
      "type": "function"
    },
    {
      "inputs": [
        {
          "internalType": "string",
          "name": "_email",
          "type": "string"
        }
      ],
      "name": "findSellerByEmail",
      "outputs": [
        {
          "internalType": "uint256",
          "name": "",
          "type": "uint256"
        }
      ],
      "stateMutability": "view",
      "type": "function"
    },
    {
      "inputs": [
        {
          "internalType": "uint256",
          "name": "_deedId",
          "type": "uint256"
        },
        {
          "internalType": "uint256",
          "name": "_assignedLawyerId",
          "type": "uint256"
        },
        {
          "internalType": "uint256",
          "name": "_assignedSellerId",
          "type": "uint256"
        }
      ],
      "name": "changeDeedLawyerAndSeller",
      "outputs": [],
      "stateMutability": "nonpayable",
      "type": "function"
    },
    {
      "inputs": [
        {
          "internalType": "string",
          "name": "_no",
          "type": "string"
        },
        {
          "internalType": "string",
          "name": "_streetName",
          "type": "string"
        },
        {
          "internalType": "string",
          "name": "_city",
          "type": "string"
        },
        {
          "internalType": "string",
          "name": "_district",
          "type": "string"
        },
        {
          "internalType": "string",
          "name": "_province",
          "type": "string"
        },
        {
          "internalType": "uint256",
          "name": "_assignedLawyerId",
          "type": "uint256"
        },
        {
          "internalType": "uint256",
          "name": "_assignedSellerId",
          "type": "uint256"
        }
      ],
      "name": "addNewDeed",
      "outputs": [],
      "stateMutability": "nonpayable",
      "type": "function"
    },
    {
      "inputs": [
        {
          "internalType": "string",
          "name": "_name",
          "type": "string"
        },
        {
          "internalType": "uint256",
          "name": "_id",
          "type": "uint256"
        },
        {
          "internalType": "string",
          "name": "_nic",
          "type": "string"
        },
        {
          "internalType": "uint256",
          "name": "_age",
          "type": "uint256"
        },
        {
          "internalType": "string",
          "name": "_city",
          "type": "string"
        },
        {
          "internalType": "string",
          "name": "_email",
          "type": "string"
        },
        {
          "internalType": "uint256",
          "name": "_telephoneNumber",
          "type": "uint256"
        }
      ],
      "name": "registerSeller",
      "outputs": [],
      "stateMutability": "nonpayable",
      "type": "function"
    },
    {
      "inputs": [
        {
          "internalType": "uint256",
          "name": "_lawyerId",
          "type": "uint256"
        },
        {
          "internalType": "string",
          "name": "_lawyerName",
          "type": "string"
        },
        {
          "internalType": "string",
          "name": "_lawyernic",
          "type": "string"
        },
        {
          "internalType": "string",
          "name": "_lawyerRegNo",
          "type": "string"
        },
        {
          "internalType": "string",
          "name": "_lawyerEmail",
          "type": "string"
        },
        {
          "internalType": "uint256",
          "name": "_lawyerTelephoneNumber",
          "type": "uint256"
        }
      ],
      "name": "registerLawyer",
      "outputs": [],
      "stateMutability": "nonpayable",
      "type": "function"
    },
    {
      "inputs": [
        {
          "internalType": "uint256",
          "name": "index",
          "type": "uint256"
        }
      ],
      "name": "getLawyerId",
      "outputs": [
        {
          "internalType": "uint256",
          "name": "",
          "type": "uint256"
        }
      ],
      "stateMutability": "view",
      "type": "function"
    },
    {
      "inputs": [
        {
          "internalType": "uint256",
          "name": "index",
          "type": "uint256"
        }
      ],
      "name": "getLawyerName",
      "outputs": [
        {
          "internalType": "string",
          "name": "",
          "type": "string"
        }
      ],
      "stateMutability": "view",
      "type": "function"
    },
    {
      "inputs": [
        {
          "internalType": "uint256",
          "name": "index",
          "type": "uint256"
        }
      ],
      "name": "getLawyerNic",
      "outputs": [
        {
          "internalType": "string",
          "name": "",
          "type": "string"
        }
      ],
      "stateMutability": "view",
      "type": "function"
    },
    {
      "inputs": [
        {
          "internalType": "uint256",
          "name": "index",
          "type": "uint256"
        }
      ],
      "name": "getLawyerRegNo",
      "outputs": [
        {
          "internalType": "string",
          "name": "",
          "type": "string"
        }
      ],
      "stateMutability": "view",
      "type": "function"
    },
    {
      "inputs": [
        {
          "internalType": "uint256",
          "name": "index",
          "type": "uint256"
        }
      ],
      "name": "getLawyerEmail",
      "outputs": [
        {
          "internalType": "string",
          "name": "",
          "type": "string"
        }
      ],
      "stateMutability": "view",
      "type": "function"
    },
    {
      "inputs": [
        {
          "internalType": "uint256",
          "name": "index",
          "type": "uint256"
        }
      ],
      "name": "getSellerId",
      "outputs": [
        {
          "internalType": "uint256",
          "name": "",
          "type": "uint256"
        }
      ],
      "stateMutability": "view",
      "type": "function"
    },
    {
      "inputs": [
        {
          "internalType": "uint256",
          "name": "index",
          "type": "uint256"
        }
      ],
      "name": "getSellerName",
      "outputs": [
        {
          "internalType": "string",
          "name": "",
          "type": "string"
        }
      ],
      "stateMutability": "view",
      "type": "function"
    },
    {
      "inputs": [
        {
          "internalType": "uint256",
          "name": "index",
          "type": "uint256"
        }
      ],
      "name": "getSellerNic",
      "outputs": [
        {
          "internalType": "string",
          "name": "",
          "type": "string"
        }
      ],
      "stateMutability": "view",
      "type": "function"
    },
    {
      "inputs": [
        {
          "internalType": "uint256",
          "name": "index",
          "type": "uint256"
        }
      ],
      "name": "getSellerAge",
      "outputs": [
        {
          "internalType": "uint256",
          "name": "",
          "type": "uint256"
        }
      ],
      "stateMutability": "view",
      "type": "function"
    },
    {
      "inputs": [
        {
          "internalType": "uint256",
          "name": "index",
          "type": "uint256"
        }
      ],
      "name": "getSellerCity",
      "outputs": [
        {
          "internalType": "string",
          "name": "",
          "type": "string"
        }
      ],
      "stateMutability": "view",
      "type": "function"
    },
    {
      "inputs": [
        {
          "internalType": "uint256",
          "name": "index",
          "type": "uint256"
        }
      ],
      "name": "getSellerEmail",
      "outputs": [
        {
          "internalType": "string",
          "name": "",
          "type": "string"
        }
      ],
      "stateMutability": "view",
      "type": "function"
    },
    {
      "inputs": [
        {
          "internalType": "uint256",
          "name": "index",
          "type": "uint256"
        }
      ],
      "name": "getSellerTelephoneNo",
      "outputs": [
        {
          "internalType": "uint256",
          "name": "",
          "type": "uint256"
        }
      ],
      "stateMutability": "view",
      "type": "function"
    },
    {
      "inputs": [],
      "name": "getAdminId",
      "outputs": [
        {
          "internalType": "uint256",
          "name": "",
          "type": "uint256"
        }
      ],
      "stateMutability": "view",
      "type": "function"
    },
    {
      "inputs": [],
      "name": "getAdminPassword",
      "outputs": [
        {
          "internalType": "string",
          "name": "",
          "type": "string"
        }
      ],
      "stateMutability": "view",
      "type": "function"
    }
  ],
  "bytecode": "0x608060405260006004556000600555600060065560006007553480156200002557600080fd5b50604051806040016040528060075481526020016040518060400160405280600381526020017f3132330000000000000000000000000000000000000000000000000000000000815250815250600360006007548152602001908152602001600020600082015181600001556020820151816001019080519060200190620000af929190620000d3565b5090505060076000815480929190620000c890620001bc565b91905055506200026f565b828054620000e19062000239565b90600052602060002090601f01602090048101928262000105576000855562000151565b82601f106200012057805160ff191683800117855562000151565b8280016001018555821562000151579182015b828111156200015057825182559160200191906001019062000133565b5b50905062000160919062000164565b5090565b5b808211156200017f57600081600090555060010162000165565b5090565b7f4e487b7100000000000000000000000000000000000000000000000000000000600052601160045260246000fd5b6000819050919050565b6000620001c982620001b2565b91507fffffffffffffffffffffffffffffffffffffffffffffffffffffffffffffffff821415620001ff57620001fe62000183565b5b600182019050919050565b7f4e487b7100000000000000000000000000000000000000000000000000000000600052602260045260246000fd5b600060028204905060018216806200025257607f821691505b602082108114156200026957620002686200020a565b5b50919050565b61325c806200027f6000396000f3fe608060405234801561001057600080fd5b506004361061023d5760003560e01c80637e45aa251161013b578063b998b87c116100b8578063df0a1c2a1161007c578063df0a1c2a146107e6578063e084ada114610816578063f0b93af914610846578063f8a3860514610876578063ffb434fb146108a65761023d565b8063b998b87c14610717578063bd79497514610747578063cff0c7c014610763578063d96b0a5514610798578063dd9d122d146107c85761023d565b80639bded849116100ff5780639bded8491461064d5780639cd681f514610669578063a998593814610699578063aca55773146106b7578063b4321832146106e75761023d565b80637e45aa25146105955780637ea1449f146105c55780638b7bf3eb146105e35780639614681b1461060157806397ecb508146106315761023d565b806335a82e72116101c95780636c218b171161018d5780636c218b17146104b357806370ffbdd2146104e3578063721fa4181461051357806374cfe4751461052f5780637c6eb1031461055f5761023d565b806335a82e72146103e9578063446138301461041957806359c73c26146104495780635dd5679814610465578063655dc4c2146104955761023d565b806318edf5641161021057806318edf5641461030257806321eb5a7c1461033a57806330c9fb481461036b57806332a678531461039b578063334bb745146103cb5761023d565b806305624d35146102425780630cc543b6146102725780630df7ec24146102a2578063188a9379146102d2575b600080fd5b61025c60048036038101906102579190612788565b6108d6565b604051610269919061284e565b60405180910390f35b61028c60048036038101906102879190612788565b61097d565b604051610299919061287f565b60405180910390f35b6102bc60048036038101906102b79190612788565b61099d565b6040516102c9919061287f565b60405180910390f35b6102ec60048036038101906102e79190612788565b6109bc565b6040516102f9919061284e565b60405180910390f35b61031c60048036038101906103179190612788565b610a63565b6040516103319998979695949392919061289a565b60405180910390f35b610354600480360381019061034f9190612788565b610de1565b604051610362929190612951565b60405180910390f35b61038560048036038101906103809190612788565b610e8d565b604051610392919061284e565b60405180910390f35b6103b560048036038101906103b09190612788565b610f35565b6040516103c2919061284e565b60405180910390f35b6103d3610fdc565b6040516103e0919061287f565b60405180910390f35b61040360048036038101906103fe9190612788565b610fe6565b604051610410919061287f565b60405180910390f35b610433600480360381019061042e9190612ab6565b611005565b604051610440919061287f565b60405180910390f35b610463600480360381019061045e9190612aff565b611101565b005b61047f600480360381019061047a9190612788565b61113a565b60405161048c919061287f565b60405180910390f35b61049d611159565b6040516104aa919061287f565b60405180910390f35b6104cd60048036038101906104c89190612788565b611163565b6040516104da919061287f565b60405180910390f35b6104fd60048036038101906104f89190612788565b611183565b60405161050a919061284e565b60405180910390f35b61052d60048036038101906105289190612b52565b61122b565b005b61054960048036038101906105449190612788565b6113a7565b604051610556919061287f565b60405180910390f35b61057960048036038101906105749190612788565b6113c7565b60405161058c9796959493929190612c80565b60405180910390f35b6105af60048036038101906105aa9190612788565b611629565b6040516105bc919061284e565b60405180910390f35b6105cd6116d1565b6040516105da919061287f565b60405180910390f35b6105eb6116ef565b6040516105f8919061287f565b60405180910390f35b61061b60048036038101906106169190612d0b565b6116f9565b604051610628919061287f565b60405180910390f35b61064b60048036038101906106469190612e12565b611ab3565b005b61066760048036038101906106629190612f24565b611bb1565b005b610683600480360381019061067e9190612788565b611c9e565b604051610690919061284e565b60405180910390f35b6106a1611d45565b6040516106ae919061284e565b60405180910390f35b6106d160048036038101906106cc9190612788565b611deb565b6040516106de919061284e565b60405180910390f35b61070160048036038101906106fc9190612788565b611e93565b60405161070e919061284e565b60405180910390f35b610731600480360381019061072c9190612ab6565b611f3b565b60405161073e919061287f565b60405180910390f35b610761600480360381019061075c9190613021565b612037565b005b61077d60048036038101906107789190612788565b612065565b60405161078f9695949392919061307d565b60405180910390f35b6107b260048036038101906107ad9190612788565b6122c1565b6040516107bf919061284e565b60405180910390f35b6107d0612369565b6040516107dd919061287f565b60405180910390f35b61080060048036038101906107fb9190612788565b612373565b60405161080d919061284e565b60405180910390f35b610830600480360381019061082b9190612788565b61241b565b60405161083d919061284e565b60405180910390f35b610860600480360381019061085b9190612788565b6124c3565b60405161086d919061284e565b60405180910390f35b610890600480360381019061088b9190612788565b61256a565b60405161089d919061287f565b60405180910390f35b6108c060048036038101906108bb9190612788565b61258a565b6040516108cd919061284e565b60405180910390f35b606060008083815260200190815260200160002060050180546108f890613129565b80601f016020809104026020016040519081016040528092919081815260200182805461092490613129565b80156109715780601f1061094657610100808354040283529160200191610971565b820191906000526020600020905b81548152906001019060200180831161095457829003601f168201915b50505050509050919050565b600060016000838152602001908152602001600020600601549050919050565b6000806000838152602001908152602001600020600001549050919050565b606060008083815260200190815260200160002060010180546109de90613129565b80601f0160208091040260200160405190810160405280929190818152602001828054610a0a90613129565b8015610a575780601f10610a2c57610100808354040283529160200191610a57565b820191906000526020600020905b815481529060010190602001808311610a3a57829003601f168201915b50505050509050919050565b6000602052806000526040600020600091509050806000015490806001018054610a8c90613129565b80601f0160208091040260200160405190810160405280929190818152602001828054610ab890613129565b8015610b055780601f10610ada57610100808354040283529160200191610b05565b820191906000526020600020905b815481529060010190602001808311610ae857829003601f168201915b505050505090806002018054610b1a90613129565b80601f0160208091040260200160405190810160405280929190818152602001828054610b4690613129565b8015610b935780601f10610b6857610100808354040283529160200191610b93565b820191906000526020600020905b815481529060010190602001808311610b7657829003601f168201915b505050505090806003018054610ba890613129565b80601f0160208091040260200160405190810160405280929190818152602001828054610bd490613129565b8015610c215780601f10610bf657610100808354040283529160200191610c21565b820191906000526020600020905b815481529060010190602001808311610c0457829003601f168201915b505050505090806004018054610c3690613129565b80601f0160208091040260200160405190810160405280929190818152602001828054610c6290613129565b8015610caf5780601f10610c8457610100808354040283529160200191610caf565b820191906000526020600020905b815481529060010190602001808311610c9257829003601f168201915b505050505090806005018054610cc490613129565b80601f0160208091040260200160405190810160405280929190818152602001828054610cf090613129565b8015610d3d5780601f10610d1257610100808354040283529160200191610d3d565b820191906000526020600020905b815481529060010190602001808311610d2057829003601f168201915b505050505090806006018054610d5290613129565b80601f0160208091040260200160405190810160405280929190818152602001828054610d7e90613129565b8015610dcb5780601f10610da057610100808354040283529160200191610dcb565b820191906000526020600020905b815481529060010190602001808311610dae57829003601f168201915b5050505050908060070154908060080154905089565b6003602052806000526040600020600091509050806000015490806001018054610e0a90613129565b80601f0160208091040260200160405190810160405280929190818152602001828054610e3690613129565b8015610e835780601f10610e5857610100808354040283529160200191610e83565b820191906000526020600020905b815481529060010190602001808311610e6657829003601f168201915b5050505050905082565b6060600260008381526020019081526020016000206004018054610eb090613129565b80601f0160208091040260200160405190810160405280929190818152602001828054610edc90613129565b8015610f295780601f10610efe57610100808354040283529160200191610f29565b820191906000526020600020905b815481529060010190602001808311610f0c57829003601f168201915b50505050509050919050565b60606000808381526020019081526020016000206002018054610f5790613129565b80601f0160208091040260200160405190810160405280929190818152602001828054610f8390613129565b8015610fd05780601f10610fa557610100808354040283529160200191610fd0565b820191906000526020600020905b815481529060010190602001808311610fb357829003601f168201915b50505050509050919050565b6000600454905090565b6000806000838152602001908152602001600020600701549050919050565b6000806000905060005b6005548210156110f7576110c18460016000858152602001908152602001600020600501805461103e90613129565b80601f016020809104026020016040519081016040528092919081815260200182805461106a90613129565b80156110b75780601f1061108c576101008083540402835291602001916110b7565b820191906000526020600020905b81548152906001019060200180831161109a57829003601f168201915b5050505050612631565b156110e457600160008381526020019081526020016000206001015490506110f7565b81806110ef9061318a565b92505061100f565b8092505050919050565b81600080858152602001908152602001600020600701819055508060008085815260200190815260200160002060080181905550505050565b6000806000838152602001908152602001600020600801549050919050565b6000600654905090565b600060026000838152602001908152602001600020600001549050919050565b60606001600083815260200190815260200160002060020180546111a690613129565b80601f01602080910402602001604051908101604052809291908181526020018280546111d290613129565b801561121f5780601f106111f45761010080835404028352916020019161121f565b820191906000526020600020905b81548152906001019060200180831161120257829003601f168201915b50505050509050919050565b60405180610120016040528060045481526020016040518060400160405280600781526020017f3c49504653233e0000000000000000000000000000000000000000000000000081525081526020018881526020018781526020018681526020018581526020018481526020018381526020018281525060008060045481526020019081526020016000206000820151816000015560208201518160010190805190602001906112dc92919061269b565b5060408201518160020190805190602001906112f992919061269b565b50606082015181600301908051906020019061131692919061269b565b50608082015181600401908051906020019061133392919061269b565b5060a082015181600501908051906020019061135092919061269b565b5060c082015181600601908051906020019061136d92919061269b565b5060e082015181600701556101008201518160080155905050600460008154809291906113999061318a565b919050555050505050505050565b600060016000838152602001908152602001600020600101549050919050565b60016020528060005260406000206000915090508060000180546113ea90613129565b80601f016020809104026020016040519081016040528092919081815260200182805461141690613129565b80156114635780601f1061143857610100808354040283529160200191611463565b820191906000526020600020905b81548152906001019060200180831161144657829003601f168201915b50505050509080600101549080600201805461147e90613129565b80601f01602080910402602001604051908101604052809291908181526020018280546114aa90613129565b80156114f75780601f106114cc576101008083540402835291602001916114f7565b820191906000526020600020905b8154815290600101906020018083116114da57829003601f168201915b50505050509080600301549080600401805461151290613129565b80601f016020809104026020016040519081016040528092919081815260200182805461153e90613129565b801561158b5780601f106115605761010080835404028352916020019161158b565b820191906000526020600020905b81548152906001019060200180831161156e57829003601f168201915b5050505050908060050180546115a090613129565b80601f01602080910402602001604051908101604052809291908181526020018280546115cc90613129565b80156116195780601f106115ee57610100808354040283529160200191611619565b820191906000526020600020905b8154815290600101906020018083116115fc57829003601f168201915b5050505050908060060154905087565b606060026000838152602001908152602001600020600101805461164c90613129565b80601f016020809104026020016040519081016040528092919081815260200182805461167890613129565b80156116c55780601f1061169a576101008083540402835291602001916116c5565b820191906000526020600020905b8154815290600101906020018083116116a857829003601f168201915b50505050509050919050565b60006003600080815260200190815260200160002060000154905090565b6000600754905090565b6000806000905060005b600454821015611aa5576117b488600080858152602001908152602001600020600201805461173190613129565b80601f016020809104026020016040519081016040528092919081815260200182805461175d90613129565b80156117aa5780601f1061177f576101008083540402835291602001916117aa565b820191906000526020600020905b81548152906001019060200180831161178d57829003601f168201915b5050505050612631565b801561186357506118628760008085815260200190815260200160002060030180546117df90613129565b80601f016020809104026020016040519081016040528092919081815260200182805461180b90613129565b80156118585780601f1061182d57610100808354040283529160200191611858565b820191906000526020600020905b81548152906001019060200180831161183b57829003601f168201915b5050505050612631565b5b8015611912575061191186600080858152602001908152602001600020600401805461188e90613129565b80601f01602080910402602001604051908101604052809291908181526020018280546118ba90613129565b80156119075780601f106118dc57610100808354040283529160200191611907565b820191906000526020600020905b8154815290600101906020018083116118ea57829003601f168201915b5050505050612631565b5b80156119c157506119c085600080858152602001908152602001600020600501805461193d90613129565b80601f016020809104026020016040519081016040528092919081815260200182805461196990613129565b80156119b65780601f1061198b576101008083540402835291602001916119b6565b820191906000526020600020905b81548152906001019060200180831161199957829003601f168201915b5050505050612631565b5b8015611a705750611a6f8460008085815260200190815260200160002060060180546119ec90613129565b80601f0160208091040260200160405190810160405280929190818152602001828054611a1890613129565b8015611a655780601f10611a3a57610100808354040283529160200191611a65565b820191906000526020600020905b815481529060010190602001808311611a4857829003601f168201915b5050505050612631565b5b15611a9257600080838152602001908152602001600020600001549050611aa5565b8180611a9d9061318a565b925050611703565b809250505095945050505050565b6040518060e00160405280888152602001878152602001868152602001858152602001848152602001838152602001828152506001600060055481526020019081526020016000206000820151816000019080519060200190611b1792919061269b565b50602082015181600101556040820151816002019080519060200190611b3e92919061269b565b50606082015181600301556080820151816004019080519060200190611b6592919061269b565b5060a0820151816005019080519060200190611b8292919061269b565b5060c0820151816006015590505060056000815480929190611ba39061318a565b919050555050505050505050565b6040518060c0016040528087815260200186815260200185815260200184815260200183815260200182815250600260006006548152602001908152602001600020600082015181600001556020820151816001019080519060200190611c1992919061269b565b506040820151816002019080519060200190611c3692919061269b565b506060820151816003019080519060200190611c5392919061269b565b506080820151816004019080519060200190611c7092919061269b565b5060a0820151816005015590505060066000815480929190611c919061318a565b9190505550505050505050565b60606000808381526020019081526020016000206006018054611cc090613129565b80601f0160208091040260200160405190810160405280929190818152602001828054611cec90613129565b8015611d395780601f10611d0e57610100808354040283529160200191611d39565b820191906000526020600020905b815481529060010190602001808311611d1c57829003601f168201915b50505050509050919050565b6060600360008081526020019081526020016000206001018054611d6890613129565b80601f0160208091040260200160405190810160405280929190818152602001828054611d9490613129565b8015611de15780601f10611db657610100808354040283529160200191611de1565b820191906000526020600020905b815481529060010190602001808311611dc457829003601f168201915b5050505050905090565b6060600260008381526020019081526020016000206003018054611e0e90613129565b80601f0160208091040260200160405190810160405280929190818152602001828054611e3a90613129565b8015611e875780601f10611e5c57610100808354040283529160200191611e87565b820191906000526020600020905b815481529060010190602001808311611e6a57829003601f168201915b50505050509050919050565b6060600160008381526020019081526020016000206000018054611eb690613129565b80601f0160208091040260200160405190810160405280929190818152602001828054611ee290613129565b8015611f2f5780601f10611f0457610100808354040283529160200191611f2f565b820191906000526020600020905b815481529060010190602001808311611f1257829003601f168201915b50505050509050919050565b6000806000905060005b60065482101561202d57611ff784600260008581526020019081526020016000206004018054611f7490613129565b80601f0160208091040260200160405190810160405280929190818152602001828054611fa090613129565b8015611fed5780601f10611fc257610100808354040283529160200191611fed565b820191906000526020600020905b815481529060010190602001808311611fd057829003601f168201915b5050505050612631565b1561201a576002600083815260200190815260200160002060000154905061202d565b81806120259061318a565b925050611f45565b8092505050919050565b80600080848152602001908152602001600020600101908051906020019061206092919061269b565b505050565b600260205280600052604060002060009150905080600001549080600101805461208e90613129565b80601f01602080910402602001604051908101604052809291908181526020018280546120ba90613129565b80156121075780601f106120dc57610100808354040283529160200191612107565b820191906000526020600020905b8154815290600101906020018083116120ea57829003601f168201915b50505050509080600201805461211c90613129565b80601f016020809104026020016040519081016040528092919081815260200182805461214890613129565b80156121955780601f1061216a57610100808354040283529160200191612195565b820191906000526020600020905b81548152906001019060200180831161217857829003601f168201915b5050505050908060030180546121aa90613129565b80601f01602080910402602001604051908101604052809291908181526020018280546121d690613129565b80156122235780601f106121f857610100808354040283529160200191612223565b820191906000526020600020905b81548152906001019060200180831161220657829003601f168201915b50505050509080600401805461223890613129565b80601f016020809104026020016040519081016040528092919081815260200182805461226490613129565b80156122b15780601f10612286576101008083540402835291602001916122b1565b820191906000526020600020905b81548152906001019060200180831161229457829003601f168201915b5050505050908060050154905086565b60606001600083815260200190815260200160002060040180546122e490613129565b80601f016020809104026020016040519081016040528092919081815260200182805461231090613129565b801561235d5780601f106123325761010080835404028352916020019161235d565b820191906000526020600020905b81548152906001019060200180831161234057829003601f168201915b50505050509050919050565b6000600554905090565b606060026000838152602001908152602001600020600201805461239690613129565b80601f01602080910402602001604051908101604052809291908181526020018280546123c290613129565b801561240f5780601f106123e45761010080835404028352916020019161240f565b820191906000526020600020905b8154815290600101906020018083116123f257829003601f168201915b50505050509050919050565b606060016000838152602001908152602001600020600501805461243e90613129565b80601f016020809104026020016040519081016040528092919081815260200182805461246a90613129565b80156124b75780601f1061248c576101008083540402835291602001916124b7565b820191906000526020600020905b81548152906001019060200180831161249a57829003601f168201915b50505050509050919050565b606060008083815260200190815260200160002060040180546124e590613129565b80601f016020809104026020016040519081016040528092919081815260200182805461251190613129565b801561255e5780601f106125335761010080835404028352916020019161255e565b820191906000526020600020905b81548152906001019060200180831161254157829003601f168201915b50505050509050919050565b600060016000838152602001908152602001600020600301549050919050565b606060008083815260200190815260200160002060030180546125ac90613129565b80601f01602080910402602001604051908101604052809291908181526020018280546125d890613129565b80156126255780601f106125fa57610100808354040283529160200191612625565b820191906000526020600020905b81548152906001019060200180831161260857829003601f168201915b50505050509050919050565b600081604051602001612644919061320f565b604051602081830303815290604052805190602001208360405160200161266b919061320f565b6040516020818303038152906040528051906020012014156126905760019050612695565b600090505b92915050565b8280546126a790613129565b90600052602060002090601f0160209004810192826126c95760008555612710565b82601f106126e257805160ff1916838001178555612710565b82800160010185558215612710579182015b8281111561270f5782518255916020019190600101906126f4565b5b50905061271d9190612721565b5090565b5b8082111561273a576000816000905550600101612722565b5090565b6000604051905090565b600080fd5b600080fd5b6000819050919050565b61276581612752565b811461277057600080fd5b50565b6000813590506127828161275c565b92915050565b60006020828403121561279e5761279d612748565b5b60006127ac84828501612773565b91505092915050565b600081519050919050565b600082825260208201905092915050565b60005b838110156127ef5780820151818401526020810190506127d4565b838111156127fe576000848401525b50505050565b6000601f19601f8301169050919050565b6000612820826127b5565b61282a81856127c0565b935061283a8185602086016127d1565b61284381612804565b840191505092915050565b600060208201905081810360008301526128688184612815565b905092915050565b61287981612752565b82525050565b60006020820190506128946000830184612870565b92915050565b6000610120820190506128b0600083018c612870565b81810360208301526128c2818b612815565b905081810360408301526128d6818a612815565b905081810360608301526128ea8189612815565b905081810360808301526128fe8188612815565b905081810360a08301526129128187612815565b905081810360c08301526129268186612815565b905061293560e0830185612870565b612943610100830184612870565b9a9950505050505050505050565b60006040820190506129666000830185612870565b81810360208301526129788184612815565b90509392505050565b600080fd5b600080fd5b7f4e487b7100000000000000000000000000000000000000000000000000000000600052604160045260246000fd5b6129c382612804565b810181811067ffffffffffffffff821117156129e2576129e161298b565b5b80604052505050565b60006129f561273e565b9050612a0182826129ba565b919050565b600067ffffffffffffffff821115612a2157612a2061298b565b5b612a2a82612804565b9050602081019050919050565b82818337600083830152505050565b6000612a59612a5484612a06565b6129eb565b905082815260208101848484011115612a7557612a74612986565b5b612a80848285612a37565b509392505050565b600082601f830112612a9d57612a9c612981565b5b8135612aad848260208601612a46565b91505092915050565b600060208284031215612acc57612acb612748565b5b600082013567ffffffffffffffff811115612aea57612ae961274d565b5b612af684828501612a88565b91505092915050565b600080600060608486031215612b1857612b17612748565b5b6000612b2686828701612773565b9350506020612b3786828701612773565b9250506040612b4886828701612773565b9150509250925092565b600080600080600080600060e0888a031215612b7157612b70612748565b5b600088013567ffffffffffffffff811115612b8f57612b8e61274d565b5b612b9b8a828b01612a88565b975050602088013567ffffffffffffffff811115612bbc57612bbb61274d565b5b612bc88a828b01612a88565b965050604088013567ffffffffffffffff811115612be957612be861274d565b5b612bf58a828b01612a88565b955050606088013567ffffffffffffffff811115612c1657612c1561274d565b5b612c228a828b01612a88565b945050608088013567ffffffffffffffff811115612c4357612c4261274d565b5b612c4f8a828b01612a88565b93505060a0612c608a828b01612773565b92505060c0612c718a828b01612773565b91505092959891949750929550565b600060e0820190508181036000830152612c9a818a612815565b9050612ca96020830189612870565b8181036040830152612cbb8188612815565b9050612cca6060830187612870565b8181036080830152612cdc8186612815565b905081810360a0830152612cf08185612815565b9050612cff60c0830184612870565b98975050505050505050565b600080600080600060a08688031215612d2757612d26612748565b5b600086013567ffffffffffffffff811115612d4557612d4461274d565b5b612d5188828901612a88565b955050602086013567ffffffffffffffff811115612d7257612d7161274d565b5b612d7e88828901612a88565b945050604086013567ffffffffffffffff811115612d9f57612d9e61274d565b5b612dab88828901612a88565b935050606086013567ffffffffffffffff811115612dcc57612dcb61274d565b5b612dd888828901612a88565b925050608086013567ffffffffffffffff811115612df957612df861274d565b5b612e0588828901612a88565b9150509295509295909350565b600080600080600080600060e0888a031215612e3157612e30612748565b5b600088013567ffffffffffffffff811115612e4f57612e4e61274d565b5b612e5b8a828b01612a88565b9750506020612e6c8a828b01612773565b965050604088013567ffffffffffffffff811115612e8d57612e8c61274d565b5b612e998a828b01612a88565b9550506060612eaa8a828b01612773565b945050608088013567ffffffffffffffff811115612ecb57612eca61274d565b5b612ed78a828b01612a88565b93505060a088013567ffffffffffffffff811115612ef857612ef761274d565b5b612f048a828b01612a88565b92505060c0612f158a828b01612773565b91505092959891949750929550565b60008060008060008060c08789031215612f4157612f40612748565b5b6000612f4f89828a01612773565b965050602087013567ffffffffffffffff811115612f7057612f6f61274d565b5b612f7c89828a01612a88565b955050604087013567ffffffffffffffff811115612f9d57612f9c61274d565b5b612fa989828a01612a88565b945050606087013567ffffffffffffffff811115612fca57612fc961274d565b5b612fd689828a01612a88565b935050608087013567ffffffffffffffff811115612ff757612ff661274d565b5b61300389828a01612a88565b92505060a061301489828a01612773565b9150509295509295509295565b6000806040838503121561303857613037612748565b5b600061304685828601612773565b925050602083013567ffffffffffffffff8111156130675761306661274d565b5b61307385828601612a88565b9150509250929050565b600060c0820190506130926000830189612870565b81810360208301526130a48188612815565b905081810360408301526130b88187612815565b905081810360608301526130cc8186612815565b905081810360808301526130e08185612815565b90506130ef60a0830184612870565b979650505050505050565b7f4e487b7100000000000000000000000000000000000000000000000000000000600052602260045260246000fd5b6000600282049050600182168061314157607f821691505b60208210811415613155576131546130fa565b5b50919050565b7f4e487b7100000000000000000000000000000000000000000000000000000000600052601160045260246000fd5b600061319582612752565b91507fffffffffffffffffffffffffffffffffffffffffffffffffffffffffffffffff8214156131c8576131c761315b565b5b600182019050919050565b600081905092915050565b60006131e9826127b5565b6131f381856131d3565b93506132038185602086016127d1565b80840191505092915050565b600061321b82846131de565b91508190509291505056fea2646970667358221220463e272ac25a1196a10969983962bd26ce85b310a7ca7fd02f38fc8e14d1178d64736f6c634300080a0033",
  "immutableReferences": {},
  "source": "// SPDX-License-Identifier: MIT\r\npragma solidity >=0.4.22 <0.9.0;\r\n\r\ncontract Land {\r\n    \r\n    // structs\r\n    struct Deed {\r\n        // deed instance variables\r\n        uint deedId;\r\n        string ipfsHash;\r\n        string no;\r\n        string streetName;\r\n        string city;\r\n        string district;\r\n        string province;\r\n        uint assignedLawyerId; // to link the relevant lawyer to the deed\r\n        uint assignedSellerId; // to link the relevant seller to the deed\r\n    }\r\n\r\n    struct Lawyer{\r\n        // Lawyer instance variables\r\n        uint lawyerId;\r\n        string lawyerName;\r\n        string lawyernic;\r\n        string lawyerRegNo;\r\n        string lawyerEmail;\r\n        uint lawyerTelephoneNumber;\r\n    }\r\n\r\n    struct Seller {\r\n        // Seller instance variables\r\n        string name;\r\n\t\tuint id;\r\n\t\tstring nic;\r\n        uint age;\r\n        string city;\r\n\t\tstring email;\r\n        uint telephoneNumber;\r\n    }\r\n\r\n    struct Admin {\r\n        // Admin instance variables\r\n        uint id;\r\n        string adminPassword;\r\n    }\r\n\r\n    // mappings\r\n    mapping(uint => Deed) public deeds;\r\n    mapping(uint => Seller) public sellersMapping;\r\n    mapping(uint => Lawyer) public Lawyersmapping;\r\n    mapping(uint => Admin) public adminMapping;\r\n    \r\n    // Count tracking variables\r\n    uint private deedCount = 0;\r\n    uint private sellersCount = 0;\r\n    uint private lawyerCount = 0;\r\n    uint private adminCount = 0;\r\n\r\n    constructor() {\r\n        // initializing the admin\r\n        adminMapping[adminCount] = Admin(adminCount, \"123\");\r\n        adminCount++;\r\n    }    \r\n\r\n    function getHashFromDeed(uint index) public view returns (string memory) {   \r\n        return deeds[index].ipfsHash;\r\n    }\r\n\r\n    function sendHash(uint deedId, string memory x) public {\r\n        deeds[deedId].ipfsHash = x;\r\n    }     \r\n\r\n    // getter for deed count\r\n    function getDeedCount() public view returns (uint) {\r\n        return deedCount;\r\n    }\r\n\r\n    // getter for lawyer count\r\n    function getLawyerCount() public view returns(uint){\r\n        return lawyerCount;\r\n    }\r\n\r\n    // getter for seller count\r\n    function getSellersCount() public view returns(uint){\r\n        return sellersCount;\r\n    }\r\n\r\n    // getter for admin count\r\n    function getAdminCount() public view returns(uint){\r\n        return adminCount;\r\n    }\r\n\r\n    //getters for Deed struct\r\n    function getDeedId(uint index) public view returns (uint) {\r\n        return deeds[index].deedId;\r\n    }\r\n\r\n    function getDeedNo(uint index) public view returns (string memory) {\r\n        return deeds[index].no;\r\n    }\r\n\r\n    function getDeedStreetName(uint index) public view returns (string memory) {\r\n        return deeds[index].streetName;\r\n    }\r\n\r\n    function getDeedCity(uint index) public view returns (string memory) {\r\n        return deeds[index].city;\r\n    }\r\n\r\n    function getDeedDistrict(uint index) public view returns (string memory) {\r\n        return deeds[index].district;\r\n    }\r\n\r\n    function getDeedProvince(uint index) public view returns (string memory) {\r\n        return deeds[index].province;\r\n    }\r\n\r\n    function getLawyerIdOfDeed(uint index) public view returns (uint) {\r\n        return deeds[index].assignedLawyerId;\r\n    }\r\n\r\n    function getSellerIdOfDeed(uint index) public view returns (uint) {\r\n        return deeds[index].assignedSellerId;\r\n    }\r\n\r\n    // function to compare strings\r\n    function compareStrings(string memory s1, string memory s2) private pure returns (bool) {\r\n        if (keccak256(abi.encodePacked(s1)) == keccak256(abi.encodePacked(s2)))\r\n        {\r\n            return true;\r\n        }\r\n        else \r\n        {\r\n            return false;\r\n        }\r\n    }\r\n\r\n    // function to get the deed by the land address for searching purposes\r\n    function findDeedByAddress(string memory _no, string memory _streetName, string memory _city, string memory _district, string memory _province) public view returns (uint) {\r\n        uint i = 0;\r\n        uint returningDeedId;\r\n        while (i < deedCount)\r\n        {\r\n            if (compareStrings(_no, deeds[i].no) && compareStrings(_streetName, deeds[i].streetName) && compareStrings(_city, deeds[i].city) && compareStrings(_district, deeds[i].district) && compareStrings(_province, deeds[i].province))\r\n            {\r\n                returningDeedId = deeds[i].deedId;\r\n                break;\r\n            }\r\n            i++;\r\n        }\r\n        return returningDeedId;\r\n    }\r\n\r\n    // function to get the lawyer by email\r\n    function findLawyerByEmail(string memory _email) public view returns (uint) {\r\n        uint i = 0;\r\n        uint returningLawyerId;\r\n        while (i < lawyerCount)\r\n        {\r\n            if (compareStrings(_email, Lawyersmapping[i].lawyerEmail))\r\n            {\r\n                returningLawyerId = Lawyersmapping[i].lawyerId;\r\n                break;\r\n            }\r\n            i++;\r\n        }\r\n        return returningLawyerId;\r\n    }\r\n\r\n    //function to get the seller by email\r\n    function findSellerByEmail(string memory _email) public view returns (uint) {\r\n        uint i = 0;\r\n        uint returningSellerId;\r\n        while (i < sellersCount)\r\n        {\r\n            if (compareStrings(_email, sellersMapping[i].email))\r\n            {\r\n                returningSellerId = sellersMapping[i].id;\r\n                break;\r\n            }\r\n            i++;\r\n        }\r\n        return returningSellerId;\r\n    }\r\n\r\n\r\n    // function to change land deed buyer and seller\r\n    function changeDeedLawyerAndSeller(uint _deedId, uint _assignedLawyerId, uint _assignedSellerId) public {\r\n        deeds[_deedId].assignedLawyerId = _assignedLawyerId;\r\n        deeds[_deedId].assignedSellerId = _assignedSellerId;\r\n    }\r\n\r\n    // function to add a new deed to the deeds mapping\r\n    function addNewDeed(string memory _no, string memory _streetName, string memory _city, string memory _district, string memory _province, uint _assignedLawyerId, uint _assignedSellerId) public {\r\n        deeds[deedCount] = Deed(deedCount, \"<IPFS#>\", _no,  _streetName, _city, _district, _province, _assignedLawyerId, _assignedSellerId);\r\n        deedCount++;\r\n    }\r\n\r\n    //function to register a seller\r\n    function registerSeller(string memory _name, uint _id, string memory _nic, uint _age, string memory _city, string memory _email, uint _telephoneNumber) public {\r\n        sellersMapping[sellersCount] = Seller(_name, _id, _nic, _age, _city, _email, _telephoneNumber);\r\n        sellersCount++;\r\n    }\r\n\r\n    //function to register a new Lawyer\r\n    function registerLawyer(uint _lawyerId, string memory _lawyerName, string memory _lawyernic, string memory _lawyerRegNo, string memory _lawyerEmail, uint _lawyerTelephoneNumber) public {\r\n        Lawyersmapping[lawyerCount] = Lawyer(_lawyerId, _lawyerName, _lawyernic, _lawyerRegNo, _lawyerEmail, _lawyerTelephoneNumber);\r\n        lawyerCount++;\r\n    }\r\n\r\n    // function to get the lawyer id\r\n    function getLawyerId(uint index) public view returns (uint) {\r\n        return Lawyersmapping[index].lawyerId;\r\n    }\r\n\r\n    // function to get the lawyer name\r\n    function getLawyerName(uint index) public view returns (string memory) {\r\n        return Lawyersmapping[index].lawyerName;\r\n    }\r\n\r\n    // function to get the lawyer nic\r\n    function getLawyerNic(uint index) public view returns (string memory) {\r\n        return Lawyersmapping[index].lawyernic;\r\n    }\r\n\r\n    // function to get the lawyer reg no\r\n    function getLawyerRegNo(uint index) public view returns (string memory) {\r\n        return Lawyersmapping[index].lawyerRegNo;\r\n    }\r\n\r\n    // function to get the lawyer email\r\n    function getLawyerEmail(uint index) public view returns (string memory) {\r\n        return Lawyersmapping[index].lawyerEmail;\r\n    }\r\n\r\n    // function to get the seller id\r\n    function getSellerId(uint index) public view returns (uint) {\r\n        return sellersMapping[index].id;\r\n    }\r\n\r\n    // function to get the seller name\r\n    function getSellerName(uint index) public view returns (string memory) {\r\n        return sellersMapping[index].name;\r\n    }\r\n\r\n    // function to get the seller nic\r\n    function getSellerNic(uint index) public view returns (string memory) {\r\n        return sellersMapping[index].nic;\r\n    }\r\n\r\n    // function to get the seller age\r\n    function getSellerAge(uint index) public view returns (uint) {\r\n        return sellersMapping[index].age;\r\n    }\r\n\r\n    // function to get the seller city\r\n    function getSellerCity(uint index) public view returns (string memory) {\r\n        return sellersMapping[index].city;\r\n    }\r\n\r\n    // function to get the seller email\r\n    function getSellerEmail(uint index) public view returns (string memory) {\r\n        return sellersMapping[index].email;\r\n    }\r\n\r\n    // function to get the seller telephonenumber\r\n    function getSellerTelephoneNo(uint index) public view returns (uint) {\r\n        return sellersMapping[index].telephoneNumber;\r\n    }\r\n    \r\n    //function to get admin id\r\n    function getAdminId() public view returns (uint) {\r\n        return adminMapping[0].id;\r\n    }\r\n\r\n    //function to get admin password\r\n    function getAdminPassword() public view returns (string memory) {\r\n        return adminMapping[0].adminPassword;\r\n    }\r\n}\r\n",
  "sourcePath": "C:\\GitHubRepos\\GitHub\\DBLOCK\\backEnd\\contracts\\Land.sol",
  "compiler": {
    "name": "solc",
    "version": "0.8.10+commit.fc410830.Emscripten.clang"
  },
  "schemaVersion": "3.4.3",
  "updatedAt": "2022-03-19T10:19:54.641Z",
  "devdoc": {
    "kind": "dev",
    "methods": {},
    "version": 1
  },
  "userdoc": {
    "kind": "user",
    "methods": {},
    "version": 1
  }
}