{
  "contractName": "Land",
  "abi": [
    {
      "inputs": [
        {
          "internalType": "uint256",
          "name": "",
          "type": "uint256"
        }
      ],
      "name": "Buyerlist",
      "outputs": [
        {
          "internalType": "address",
          "name": "",
          "type": "address"
        }
      ],
      "stateMutability": "view",
      "type": "function",
      "constant": true
    },
    {
      "inputs": [
        {
          "internalType": "uint256",
          "name": "",
          "type": "uint256"
        }
      ],
      "name": "Buyersmapping",
      "outputs": [
        {
          "internalType": "uint256",
          "name": "id",
          "type": "uint256"
        },
        {
          "internalType": "string",
          "name": "nic",
          "type": "string"
        },
        {
          "internalType": "string",
          "name": "name",
          "type": "string"
        },
        {
          "internalType": "uint256",
          "name": "age",
          "type": "uint256"
        },
        {
          "internalType": "string",
          "name": "city",
          "type": "string"
        },
        {
          "internalType": "string",
          "name": "email",
          "type": "string"
        }
      ],
      "stateMutability": "view",
      "type": "function",
      "constant": true
    },
    {
      "inputs": [
        {
          "internalType": "uint256",
          "name": "",
          "type": "uint256"
        }
      ],
      "name": "Lawyersmapping",
      "outputs": [
        {
          "internalType": "uint256",
          "name": "lawyerId",
          "type": "uint256"
        },
        {
          "internalType": "string",
          "name": "lawyerName",
          "type": "string"
        },
        {
          "internalType": "string",
          "name": "lawyernic",
          "type": "string"
        },
        {
          "internalType": "string",
          "name": "lawyerRegNo",
          "type": "string"
        },
        {
          "internalType": "string",
          "name": "lawyerEmail",
          "type": "string"
        }
      ],
      "stateMutability": "view",
      "type": "function",
      "constant": true
    },
    {
      "inputs": [
        {
          "internalType": "uint256",
          "name": "",
          "type": "uint256"
        }
      ],
      "name": "adminMapping",
      "outputs": [
        {
          "internalType": "uint256",
          "name": "id",
          "type": "uint256"
        }
      ],
      "stateMutability": "view",
      "type": "function",
      "constant": true
    },
    {
      "inputs": [
        {
          "internalType": "uint256",
          "name": "",
          "type": "uint256"
        }
      ],
      "name": "deeds",
      "outputs": [
        {
          "internalType": "uint256",
          "name": "deedId",
          "type": "uint256"
        },
        {
          "internalType": "string",
          "name": "no",
          "type": "string"
        },
        {
          "internalType": "string",
          "name": "streetName",
          "type": "string"
        },
        {
          "internalType": "string",
          "name": "city",
          "type": "string"
        },
        {
          "internalType": "string",
          "name": "district",
          "type": "string"
        },
        {
          "internalType": "string",
          "name": "province",
          "type": "string"
        },
        {
          "internalType": "uint256",
          "name": "assignedLawyerId",
          "type": "uint256"
        },
        {
          "internalType": "uint256",
          "name": "assignedSellerId",
          "type": "uint256"
        }
      ],
      "stateMutability": "view",
      "type": "function",
      "constant": true
    },
    {
      "inputs": [
        {
          "internalType": "uint256",
          "name": "",
          "type": "uint256"
        }
      ],
      "name": "lawyerList",
      "outputs": [
        {
          "internalType": "address",
          "name": "",
          "type": "address"
        }
      ],
      "stateMutability": "view",
      "type": "function",
      "constant": true
    },
    {
      "inputs": [
        {
          "internalType": "uint256",
          "name": "",
          "type": "uint256"
        }
      ],
      "name": "sellerList",
      "outputs": [
        {
          "internalType": "address",
          "name": "",
          "type": "address"
        }
      ],
      "stateMutability": "view",
      "type": "function",
      "constant": true
    },
    {
      "inputs": [
        {
          "internalType": "uint256",
          "name": "",
          "type": "uint256"
        }
      ],
      "name": "sellersMapping",
      "outputs": [
        {
          "internalType": "string",
          "name": "name",
          "type": "string"
        },
        {
          "internalType": "uint256",
          "name": "id",
          "type": "uint256"
        },
        {
          "internalType": "string",
          "name": "nic",
          "type": "string"
        },
        {
          "internalType": "uint256",
          "name": "age",
          "type": "uint256"
        },
        {
          "internalType": "string",
          "name": "city",
          "type": "string"
        },
        {
          "internalType": "string",
          "name": "email",
          "type": "string"
        }
      ],
      "stateMutability": "view",
      "type": "function",
      "constant": true
    },
    {
      "inputs": [],
      "name": "getDeedCount",
      "outputs": [
        {
          "internalType": "uint256",
          "name": "",
          "type": "uint256"
        }
      ],
      "stateMutability": "view",
      "type": "function",
      "constant": true
    },
    {
      "inputs": [],
      "name": "getBuyersCount",
      "outputs": [
        {
          "internalType": "uint256",
          "name": "",
          "type": "uint256"
        }
      ],
      "stateMutability": "view",
      "type": "function",
      "constant": true
    },
    {
      "inputs": [],
      "name": "getLawyerCount",
      "outputs": [
        {
          "internalType": "uint256",
          "name": "",
          "type": "uint256"
        }
      ],
      "stateMutability": "view",
      "type": "function",
      "constant": true
    },
    {
      "inputs": [],
      "name": "getSellersCount",
      "outputs": [
        {
          "internalType": "uint256",
          "name": "",
          "type": "uint256"
        }
      ],
      "stateMutability": "view",
      "type": "function",
      "constant": true
    },
    {
      "inputs": [],
      "name": "getAdminCount",
      "outputs": [
        {
          "internalType": "uint256",
          "name": "",
          "type": "uint256"
        }
      ],
      "stateMutability": "view",
      "type": "function",
      "constant": true
    },
    {
      "inputs": [
        {
          "internalType": "uint256",
          "name": "index",
          "type": "uint256"
        }
      ],
      "name": "getDeedId",
      "outputs": [
        {
          "internalType": "uint256",
          "name": "",
          "type": "uint256"
        }
      ],
      "stateMutability": "view",
      "type": "function",
      "constant": true
    },
    {
      "inputs": [
        {
          "internalType": "uint256",
          "name": "index",
          "type": "uint256"
        }
      ],
      "name": "getDeedNo",
      "outputs": [
        {
          "internalType": "string",
          "name": "",
          "type": "string"
        }
      ],
      "stateMutability": "view",
      "type": "function",
      "constant": true
    },
    {
      "inputs": [
        {
          "internalType": "uint256",
          "name": "index",
          "type": "uint256"
        }
      ],
      "name": "getDeedStreetName",
      "outputs": [
        {
          "internalType": "string",
          "name": "",
          "type": "string"
        }
      ],
      "stateMutability": "view",
      "type": "function",
      "constant": true
    },
    {
      "inputs": [
        {
          "internalType": "uint256",
          "name": "index",
          "type": "uint256"
        }
      ],
      "name": "getDeedCity",
      "outputs": [
        {
          "internalType": "string",
          "name": "",
          "type": "string"
        }
      ],
      "stateMutability": "view",
      "type": "function",
      "constant": true
    },
    {
      "inputs": [
        {
          "internalType": "uint256",
          "name": "index",
          "type": "uint256"
        }
      ],
      "name": "getDeedDistrict",
      "outputs": [
        {
          "internalType": "string",
          "name": "",
          "type": "string"
        }
      ],
      "stateMutability": "view",
      "type": "function",
      "constant": true
    },
    {
      "inputs": [
        {
          "internalType": "uint256",
          "name": "index",
          "type": "uint256"
        }
      ],
      "name": "getDeedProvince",
      "outputs": [
        {
          "internalType": "string",
          "name": "",
          "type": "string"
        }
      ],
      "stateMutability": "view",
      "type": "function",
      "constant": true
    },
    {
      "inputs": [
        {
          "internalType": "uint256",
          "name": "index",
          "type": "uint256"
        }
      ],
      "name": "getLawyerIdOfDeed",
      "outputs": [
        {
          "internalType": "uint256",
          "name": "",
          "type": "uint256"
        }
      ],
      "stateMutability": "view",
      "type": "function",
      "constant": true
    },
    {
      "inputs": [
        {
          "internalType": "uint256",
          "name": "index",
          "type": "uint256"
        }
      ],
      "name": "getSellerIdOfDeed",
      "outputs": [
        {
          "internalType": "uint256",
          "name": "",
          "type": "uint256"
        }
      ],
      "stateMutability": "view",
      "type": "function",
      "constant": true
    },
    {
      "inputs": [
        {
          "internalType": "string",
          "name": "_no",
          "type": "string"
        },
        {
          "internalType": "string",
          "name": "_streetName",
          "type": "string"
        },
        {
          "internalType": "string",
          "name": "_city",
          "type": "string"
        },
        {
          "internalType": "string",
          "name": "_district",
          "type": "string"
        },
        {
          "internalType": "string",
          "name": "_province",
          "type": "string"
        }
      ],
      "name": "findDeedByAddress",
      "outputs": [
        {
          "internalType": "uint256",
          "name": "",
          "type": "uint256"
        }
      ],
      "stateMutability": "view",
      "type": "function",
      "constant": true
    },
    {
      "inputs": [],
      "name": "getBuyer",
      "outputs": [
        {
          "internalType": "address[]",
          "name": "",
          "type": "address[]"
        }
      ],
      "stateMutability": "view",
      "type": "function",
      "constant": true
    },
    {
      "inputs": [],
      "name": "getSeller",
      "outputs": [
        {
          "internalType": "address[]",
          "name": "",
          "type": "address[]"
        }
      ],
      "stateMutability": "view",
      "type": "function",
      "constant": true
    },
    {
      "inputs": [],
      "name": "getLawyer",
      "outputs": [
        {
          "internalType": "address[]",
          "name": "",
          "type": "address[]"
        }
      ],
      "stateMutability": "view",
      "type": "function",
      "constant": true
    },
    {
      "inputs": [
        {
          "internalType": "string",
          "name": "_no",
          "type": "string"
        },
        {
          "internalType": "string",
          "name": "_streetName",
          "type": "string"
        },
        {
          "internalType": "string",
          "name": "_city",
          "type": "string"
        },
        {
          "internalType": "string",
          "name": "_district",
          "type": "string"
        },
        {
          "internalType": "string",
          "name": "_province",
          "type": "string"
        },
        {
          "internalType": "uint256",
          "name": "_assignedLawyerId",
          "type": "uint256"
        },
        {
          "internalType": "uint256",
          "name": "_assignedSellerId",
          "type": "uint256"
        }
      ],
      "name": "addNewDeed",
      "outputs": [],
      "stateMutability": "nonpayable",
      "type": "function"
    },
    {
      "inputs": [
        {
          "internalType": "uint256",
          "name": "_id",
          "type": "uint256"
        },
        {
          "internalType": "string",
          "name": "_nic",
          "type": "string"
        },
        {
          "internalType": "string",
          "name": "_name",
          "type": "string"
        },
        {
          "internalType": "uint256",
          "name": "_age",
          "type": "uint256"
        },
        {
          "internalType": "string",
          "name": "_city",
          "type": "string"
        },
        {
          "internalType": "string",
          "name": "_email",
          "type": "string"
        }
      ],
      "name": "registerBuyer",
      "outputs": [],
      "stateMutability": "nonpayable",
      "type": "function"
    },
    {
      "inputs": [
        {
          "internalType": "string",
          "name": "_name",
          "type": "string"
        },
        {
          "internalType": "uint256",
          "name": "_id",
          "type": "uint256"
        },
        {
          "internalType": "string",
          "name": "_nic",
          "type": "string"
        },
        {
          "internalType": "uint256",
          "name": "_age",
          "type": "uint256"
        },
        {
          "internalType": "string",
          "name": "_city",
          "type": "string"
        },
        {
          "internalType": "string",
          "name": "_email",
          "type": "string"
        }
      ],
      "name": "registerSeller",
      "outputs": [],
      "stateMutability": "nonpayable",
      "type": "function"
    },
    {
      "inputs": [
        {
          "internalType": "uint256",
          "name": "_lawyerId",
          "type": "uint256"
        },
        {
          "internalType": "string",
          "name": "_lawyerName",
          "type": "string"
        },
        {
          "internalType": "string",
          "name": "_lawyernic",
          "type": "string"
        },
        {
          "internalType": "string",
          "name": "_lawyerRegNo",
          "type": "string"
        },
        {
          "internalType": "string",
          "name": "_lawyerEmail",
          "type": "string"
        }
      ],
      "name": "registerLawyer",
      "outputs": [],
      "stateMutability": "nonpayable",
      "type": "function"
    },
    {
      "inputs": [
        {
          "internalType": "uint256",
          "name": "index",
          "type": "uint256"
        }
      ],
      "name": "displayBuyer",
      "outputs": [
        {
          "internalType": "uint256",
          "name": "_id",
          "type": "uint256"
        },
        {
          "internalType": "string",
          "name": "_nic",
          "type": "string"
        },
        {
          "internalType": "string",
          "name": "_name",
          "type": "string"
        },
        {
          "internalType": "uint256",
          "name": "_age",
          "type": "uint256"
        },
        {
          "internalType": "string",
          "name": "_city",
          "type": "string"
        },
        {
          "internalType": "string",
          "name": "_email",
          "type": "string"
        }
      ],
      "stateMutability": "view",
      "type": "function",
      "constant": true
    },
    {
      "inputs": [
        {
          "internalType": "uint256",
          "name": "index",
          "type": "uint256"
        }
      ],
      "name": "displaySeller",
      "outputs": [
        {
          "internalType": "string",
          "name": "_name",
          "type": "string"
        },
        {
          "internalType": "uint256",
          "name": "_id",
          "type": "uint256"
        },
        {
          "internalType": "string",
          "name": "_nic",
          "type": "string"
        },
        {
          "internalType": "uint256",
          "name": "_age",
          "type": "uint256"
        },
        {
          "internalType": "string",
          "name": "_city",
          "type": "string"
        },
        {
          "internalType": "string",
          "name": "_email",
          "type": "string"
        }
      ],
      "stateMutability": "view",
      "type": "function",
      "constant": true
    },
    {
      "inputs": [
        {
          "internalType": "uint256",
          "name": "index",
          "type": "uint256"
        }
      ],
      "name": "displayLawyer",
      "outputs": [
        {
          "internalType": "uint256",
          "name": "_lawyerId",
          "type": "uint256"
        },
        {
          "internalType": "string",
          "name": "_lawyerName",
          "type": "string"
        },
        {
          "internalType": "string",
          "name": "_lawyernic",
          "type": "string"
        },
        {
          "internalType": "string",
          "name": "_lawyerRegNo",
          "type": "string"
        },
        {
          "internalType": "string",
          "name": "_lawyerEmail",
          "type": "string"
        }
      ],
      "stateMutability": "view",
      "type": "function",
      "constant": true
    }
  ],
  "bytecode": "0x6080604052600060085560006009556000600a556000600b556000600c5534801561002957600080fd5b506134e5806100396000396000f3fe608060405234801561001057600080fd5b50600436106101f05760003560e01c80637c6eb1031161010f578063cff0c7c0116100a2578063f0b93af911610071578063f0b93af91461068a578063f0d3a9df146106ba578063f42a1b31146106d8578063ffb434fb14610708576101f0565b8063cff0c7c0146105e5578063dbd0e1b614610619578063dd9d122d14610637578063e513745914610655576101f0565b8063916a1c70116100de578063916a1c701461052057806393addc08146105505780639614681b146105855780639cd681f5146105b5576101f0565b80637c6eb1031461049357806380014029146104c85780638b7bf3eb146104e65780638d09685514610504576101f0565b8063334bb745116101875780635dd56798116101565780635dd567981461040b578063603daf9a1461043b578063655dc4c214610459578063721fa41814610477576101f0565b8063334bb7451461036d57806335a82e721461038b57806342da3b1a146103bb57806355bb2bcc146103d7576101f0565b806321eb5a7c116101c357806321eb5a7c146102bc578063275ea7cf146102ec57806327dc19dd1461032157806332a678531461033d576101f0565b806305624d35146101f55780630df7ec2414610225578063119d41f41461025557806318edf56414610285575b600080fd5b61020f600480360381019061020a91906128dc565b610738565b60405161021c91906129a2565b60405180910390f35b61023f600480360381019061023a91906128dc565b6107df565b60405161024c91906129d3565b60405180910390f35b61026f600480360381019061026a91906128dc565b6107fe565b60405161027c9190612a2f565b60405180910390f35b61029f600480360381019061029a91906128dc565b61083d565b6040516102b3989796959493929190612a4a565b60405180910390f35b6102d660048036038101906102d191906128dc565b610b2d565b6040516102e391906129d3565b60405180910390f35b610306600480360381019061030191906128dc565b610b4b565b60405161031896959493929190612aeb565b60405180910390f35b61033b60048036038101906103369190612c9d565b610e20565b005b610357600480360381019061035291906128dc565b610efc565b60405161036491906129a2565b60405180910390f35b610375610fa3565b60405161038291906129d3565b60405180910390f35b6103a560048036038101906103a091906128dc565b610fad565b6040516103b291906129d3565b60405180910390f35b6103d560048036038101906103d09190612d88565b610fcc565b005b6103f160048036038101906103ec91906128dc565b6110b9565b604051610402959493929190612e85565b60405180910390f35b610425600480360381019061042091906128dc565b611373565b60405161043291906129d3565b60405180910390f35b610443611392565b6040516104509190612fb2565b60405180910390f35b610461611420565b60405161046e91906129d3565b60405180910390f35b610491600480360381019061048c9190612fd4565b61142a565b005b6104ad60048036038101906104a891906128dc565b61154d565b6040516104bf96959493929190613102565b60405180910390f35b6104d06117a9565b6040516104dd9190612fb2565b60405180910390f35b6104ee611837565b6040516104fb91906129d3565b60405180910390f35b61051e6004803603810190610519919061317f565b611841565b005b61053a600480360381019061053591906128dc565b61192e565b6040516105479190612a2f565b60405180910390f35b61056a600480360381019061056591906128dc565b61196d565b60405161057c96959493929190612aeb565b60405180910390f35b61059f600480360381019061059a919061327c565b611bc9565b6040516105ac91906129d3565b60405180910390f35b6105cf60048036038101906105ca91906128dc565b611f83565b6040516105dc91906129a2565b60405180910390f35b6105ff60048036038101906105fa91906128dc565b61202a565b604051610610959493929190612e85565b60405180910390f35b610621612280565b60405161062e9190612fb2565b60405180910390f35b61063f61230e565b60405161064c91906129d3565b60405180910390f35b61066f600480360381019061066a91906128dc565b612318565b60405161068196959493929190613102565b60405180910390f35b6106a4600480360381019061069f91906128dc565b6125ee565b6040516106b191906129a2565b60405180910390f35b6106c2612695565b6040516106cf91906129d3565b60405180910390f35b6106f260048036038101906106ed91906128dc565b61269f565b6040516106ff9190612a2f565b60405180910390f35b610722600480360381019061071d91906128dc565b6126de565b60405161072f91906129a2565b60405180910390f35b6060600080838152602001908152602001600020600401805461075a906133b2565b80601f0160208091040260200160405190810160405280929190818152602001828054610786906133b2565b80156107d35780601f106107a8576101008083540402835291602001916107d3565b820191906000526020600020905b8154815290600101906020018083116107b657829003601f168201915b50505050509050919050565b6000806000838152602001908152602001600020600001549050919050565b6005818154811061080e57600080fd5b906000526020600020016000915054906101000a900473ffffffffffffffffffffffffffffffffffffffff1681565b6000602052806000526040600020600091509050806000015490806001018054610866906133b2565b80601f0160208091040260200160405190810160405280929190818152602001828054610892906133b2565b80156108df5780601f106108b4576101008083540402835291602001916108df565b820191906000526020600020905b8154815290600101906020018083116108c257829003601f168201915b5050505050908060020180546108f4906133b2565b80601f0160208091040260200160405190810160405280929190818152602001828054610920906133b2565b801561096d5780601f106109425761010080835404028352916020019161096d565b820191906000526020600020905b81548152906001019060200180831161095057829003601f168201915b505050505090806003018054610982906133b2565b80601f01602080910402602001604051908101604052809291908181526020018280546109ae906133b2565b80156109fb5780601f106109d0576101008083540402835291602001916109fb565b820191906000526020600020905b8154815290600101906020018083116109de57829003601f168201915b505050505090806004018054610a10906133b2565b80601f0160208091040260200160405190810160405280929190818152602001828054610a3c906133b2565b8015610a895780601f10610a5e57610100808354040283529160200191610a89565b820191906000526020600020905b815481529060010190602001808311610a6c57829003601f168201915b505050505090806005018054610a9e906133b2565b80601f0160208091040260200160405190810160405280929190818152602001828054610aca906133b2565b8015610b175780601f10610aec57610100808354040283529160200191610b17565b820191906000526020600020905b815481529060010190602001808311610afa57829003601f168201915b5050505050908060060154908060070154905088565b60046020528060005260406000206000915090508060000154905081565b60006060806000606080600160008881526020019081526020016000206000015460016000898152602001908152602001600020600101600160008a8152602001908152602001600020600201600160008b815260200190815260200160002060030154600160008c8152602001908152602001600020600401600160008d8152602001908152602001600020600501848054610be7906133b2565b80601f0160208091040260200160405190810160405280929190818152602001828054610c13906133b2565b8015610c605780601f10610c3557610100808354040283529160200191610c60565b820191906000526020600020905b815481529060010190602001808311610c4357829003601f168201915b50505050509450838054610c73906133b2565b80601f0160208091040260200160405190810160405280929190818152602001828054610c9f906133b2565b8015610cec5780601f10610cc157610100808354040283529160200191610cec565b820191906000526020600020905b815481529060010190602001808311610ccf57829003601f168201915b50505050509350818054610cff906133b2565b80601f0160208091040260200160405190810160405280929190818152602001828054610d2b906133b2565b8015610d785780601f10610d4d57610100808354040283529160200191610d78565b820191906000526020600020905b815481529060010190602001808311610d5b57829003601f168201915b50505050509150808054610d8b906133b2565b80601f0160208091040260200160405190810160405280929190818152602001828054610db7906133b2565b8015610e045780601f10610dd957610100808354040283529160200191610e04565b820191906000526020600020905b815481529060010190602001808311610de757829003601f168201915b5050505050905095509550955095509550955091939550919395565b6040518060a001604052808681526020018581526020018481526020018381526020018281525060036000600b548152602001908152602001600020600082015181600001556020820151816001019080519060200190610e829291906127ef565b506040820151816002019080519060200190610e9f9291906127ef565b506060820151816003019080519060200190610ebc9291906127ef565b506080820151816004019080519060200190610ed99291906127ef565b50905050600b6000815480929190610ef090613413565b91905055505050505050565b60606000808381526020019081526020016000206001018054610f1e906133b2565b80601f0160208091040260200160405190810160405280929190818152602001828054610f4a906133b2565b8015610f975780601f10610f6c57610100808354040283529160200191610f97565b820191906000526020600020905b815481529060010190602001808311610f7a57829003601f168201915b50505050509050919050565b6000600854905090565b6000806000838152602001908152602001600020600601549050919050565b6040518060c001604052808781526020018681526020018581526020018481526020018381526020018281525060026000600a548152602001908152602001600020600082015181600001908051906020019061102a9291906127ef565b506020820151816001015560408201518160020190805190602001906110519291906127ef565b506060820151816003015560808201518160040190805190602001906110789291906127ef565b5060a08201518160050190805190602001906110959291906127ef565b50905050600a60008154809291906110ac90613413565b9190505550505050505050565b600060608060608060036000878152602001908152602001600020600001546003600088815260200190815260200160002060010160036000898152602001908152602001600020600201600360008a8152602001908152602001600020600301600360008b815260200190815260200160002060040183805461113c906133b2565b80601f0160208091040260200160405190810160405280929190818152602001828054611168906133b2565b80156111b55780601f1061118a576101008083540402835291602001916111b5565b820191906000526020600020905b81548152906001019060200180831161119857829003601f168201915b505050505093508280546111c8906133b2565b80601f01602080910402602001604051908101604052809291908181526020018280546111f4906133b2565b80156112415780601f1061121657610100808354040283529160200191611241565b820191906000526020600020905b81548152906001019060200180831161122457829003601f168201915b50505050509250818054611254906133b2565b80601f0160208091040260200160405190810160405280929190818152602001828054611280906133b2565b80156112cd5780601f106112a2576101008083540402835291602001916112cd565b820191906000526020600020905b8154815290600101906020018083116112b057829003601f168201915b505050505091508080546112e0906133b2565b80601f016020809104026020016040519081016040528092919081815260200182805461130c906133b2565b80156113595780601f1061132e57610100808354040283529160200191611359565b820191906000526020600020905b81548152906001019060200180831161133c57829003601f168201915b505050505090509450945094509450945091939590929450565b6000806000838152602001908152602001600020600701549050919050565b6060600580548060200260200160405190810160405280929190818152602001828054801561141657602002820191906000526020600020905b8160009054906101000a900473ffffffffffffffffffffffffffffffffffffffff1673ffffffffffffffffffffffffffffffffffffffff16815260200190600101908083116113cc575b5050505050905090565b6000600b54905090565b60405180610100016040528060085481526020018881526020018781526020018681526020018581526020018481526020018381526020018281525060008060085481526020019081526020016000206000820151816000015560208201518160010190805190602001906114a09291906127ef565b5060408201518160020190805190602001906114bd9291906127ef565b5060608201518160030190805190602001906114da9291906127ef565b5060808201518160040190805190602001906114f79291906127ef565b5060a08201518160050190805190602001906115149291906127ef565b5060c0820151816006015560e082015181600701559050506008600081548092919061153f90613413565b919050555050505050505050565b6002602052806000526040600020600091509050806000018054611570906133b2565b80601f016020809104026020016040519081016040528092919081815260200182805461159c906133b2565b80156115e95780601f106115be576101008083540402835291602001916115e9565b820191906000526020600020905b8154815290600101906020018083116115cc57829003601f168201915b505050505090806001015490806002018054611604906133b2565b80601f0160208091040260200160405190810160405280929190818152602001828054611630906133b2565b801561167d5780601f106116525761010080835404028352916020019161167d565b820191906000526020600020905b81548152906001019060200180831161166057829003601f168201915b505050505090806003015490806004018054611698906133b2565b80601f01602080910402602001604051908101604052809291908181526020018280546116c4906133b2565b80156117115780601f106116e657610100808354040283529160200191611711565b820191906000526020600020905b8154815290600101906020018083116116f457829003601f168201915b505050505090806005018054611726906133b2565b80601f0160208091040260200160405190810160405280929190818152602001828054611752906133b2565b801561179f5780601f106117745761010080835404028352916020019161179f565b820191906000526020600020905b81548152906001019060200180831161178257829003601f168201915b5050505050905086565b6060600780548060200260200160405190810160405280929190818152602001828054801561182d57602002820191906000526020600020905b8160009054906101000a900473ffffffffffffffffffffffffffffffffffffffff1673ffffffffffffffffffffffffffffffffffffffff16815260200190600101908083116117e3575b5050505050905090565b6000600c54905090565b6040518060c00160405280878152602001868152602001858152602001848152602001838152602001828152506001600060095481526020019081526020016000206000820151816000015560208201518160010190805190602001906118a99291906127ef565b5060408201518160020190805190602001906118c69291906127ef565b506060820151816003015560808201518160040190805190602001906118ed9291906127ef565b5060a082015181600501908051906020019061190a9291906127ef565b509050506009600081548092919061192190613413565b9190505550505050505050565b6007818154811061193e57600080fd5b906000526020600020016000915054906101000a900473ffffffffffffffffffffffffffffffffffffffff1681565b6001602052806000526040600020600091509050806000015490806001018054611996906133b2565b80601f01602080910402602001604051908101604052809291908181526020018280546119c2906133b2565b8015611a0f5780601f106119e457610100808354040283529160200191611a0f565b820191906000526020600020905b8154815290600101906020018083116119f257829003601f168201915b505050505090806002018054611a24906133b2565b80601f0160208091040260200160405190810160405280929190818152602001828054611a50906133b2565b8015611a9d5780601f10611a7257610100808354040283529160200191611a9d565b820191906000526020600020905b815481529060010190602001808311611a8057829003601f168201915b505050505090806003015490806004018054611ab8906133b2565b80601f0160208091040260200160405190810160405280929190818152602001828054611ae4906133b2565b8015611b315780601f10611b0657610100808354040283529160200191611b31565b820191906000526020600020905b815481529060010190602001808311611b1457829003601f168201915b505050505090806005018054611b46906133b2565b80601f0160208091040260200160405190810160405280929190818152602001828054611b72906133b2565b8015611bbf5780601f10611b9457610100808354040283529160200191611bbf565b820191906000526020600020905b815481529060010190602001808311611ba257829003601f168201915b5050505050905086565b6000806000905060005b600854821015611f7557611c84886000808581526020019081526020016000206001018054611c01906133b2565b80601f0160208091040260200160405190810160405280929190818152602001828054611c2d906133b2565b8015611c7a5780601f10611c4f57610100808354040283529160200191611c7a565b820191906000526020600020905b815481529060010190602001808311611c5d57829003601f168201915b5050505050612785565b8015611d335750611d32876000808581526020019081526020016000206002018054611caf906133b2565b80601f0160208091040260200160405190810160405280929190818152602001828054611cdb906133b2565b8015611d285780601f10611cfd57610100808354040283529160200191611d28565b820191906000526020600020905b815481529060010190602001808311611d0b57829003601f168201915b5050505050612785565b5b8015611de25750611de1866000808581526020019081526020016000206003018054611d5e906133b2565b80601f0160208091040260200160405190810160405280929190818152602001828054611d8a906133b2565b8015611dd75780601f10611dac57610100808354040283529160200191611dd7565b820191906000526020600020905b815481529060010190602001808311611dba57829003601f168201915b5050505050612785565b5b8015611e915750611e90856000808581526020019081526020016000206004018054611e0d906133b2565b80601f0160208091040260200160405190810160405280929190818152602001828054611e39906133b2565b8015611e865780601f10611e5b57610100808354040283529160200191611e86565b820191906000526020600020905b815481529060010190602001808311611e6957829003601f168201915b5050505050612785565b5b8015611f405750611f3f846000808581526020019081526020016000206005018054611ebc906133b2565b80601f0160208091040260200160405190810160405280929190818152602001828054611ee8906133b2565b8015611f355780601f10611f0a57610100808354040283529160200191611f35565b820191906000526020600020905b815481529060010190602001808311611f1857829003601f168201915b5050505050612785565b5b15611f6257600080838152602001908152602001600020600001549050611f75565b8180611f6d90613413565b925050611bd3565b809250505095945050505050565b60606000808381526020019081526020016000206005018054611fa5906133b2565b80601f0160208091040260200160405190810160405280929190818152602001828054611fd1906133b2565b801561201e5780601f10611ff35761010080835404028352916020019161201e565b820191906000526020600020905b81548152906001019060200180831161200157829003601f168201915b50505050509050919050565b6003602052806000526040600020600091509050806000015490806001018054612053906133b2565b80601f016020809104026020016040519081016040528092919081815260200182805461207f906133b2565b80156120cc5780601f106120a1576101008083540402835291602001916120cc565b820191906000526020600020905b8154815290600101906020018083116120af57829003601f168201915b5050505050908060020180546120e1906133b2565b80601f016020809104026020016040519081016040528092919081815260200182805461210d906133b2565b801561215a5780601f1061212f5761010080835404028352916020019161215a565b820191906000526020600020905b81548152906001019060200180831161213d57829003601f168201915b50505050509080600301805461216f906133b2565b80601f016020809104026020016040519081016040528092919081815260200182805461219b906133b2565b80156121e85780601f106121bd576101008083540402835291602001916121e8565b820191906000526020600020905b8154815290600101906020018083116121cb57829003601f168201915b5050505050908060040180546121fd906133b2565b80601f0160208091040260200160405190810160405280929190818152602001828054612229906133b2565b80156122765780601f1061224b57610100808354040283529160200191612276565b820191906000526020600020905b81548152906001019060200180831161225957829003601f168201915b5050505050905085565b6060600680548060200260200160405190810160405280929190818152602001828054801561230457602002820191906000526020600020905b8160009054906101000a900473ffffffffffffffffffffffffffffffffffffffff1673ffffffffffffffffffffffffffffffffffffffff16815260200190600101908083116122ba575b5050505050905090565b6000600a54905090565b6060600060606000606080600260008881526020019081526020016000206000016002600089815260200190815260200160002060010154600260008a8152602001908152602001600020600201600260008b815260200190815260200160002060030154600260008c8152602001908152602001600020600401600260008d81526020019081526020016000206005018580546123b5906133b2565b80601f01602080910402602001604051908101604052809291908181526020018280546123e1906133b2565b801561242e5780601f106124035761010080835404028352916020019161242e565b820191906000526020600020905b81548152906001019060200180831161241157829003601f168201915b50505050509550838054612441906133b2565b80601f016020809104026020016040519081016040528092919081815260200182805461246d906133b2565b80156124ba5780601f1061248f576101008083540402835291602001916124ba565b820191906000526020600020905b81548152906001019060200180831161249d57829003601f168201915b505050505093508180546124cd906133b2565b80601f01602080910402602001604051908101604052809291908181526020018280546124f9906133b2565b80156125465780601f1061251b57610100808354040283529160200191612546565b820191906000526020600020905b81548152906001019060200180831161252957829003601f168201915b50505050509150808054612559906133b2565b80601f0160208091040260200160405190810160405280929190818152602001828054612585906133b2565b80156125d25780601f106125a7576101008083540402835291602001916125d2565b820191906000526020600020905b8154815290600101906020018083116125b557829003601f168201915b5050505050905095509550955095509550955091939550919395565b60606000808381526020019081526020016000206003018054612610906133b2565b80601f016020809104026020016040519081016040528092919081815260200182805461263c906133b2565b80156126895780601f1061265e57610100808354040283529160200191612689565b820191906000526020600020905b81548152906001019060200180831161266c57829003601f168201915b50505050509050919050565b6000600954905090565b600681815481106126af57600080fd5b906000526020600020016000915054906101000a900473ffffffffffffffffffffffffffffffffffffffff1681565b60606000808381526020019081526020016000206002018054612700906133b2565b80601f016020809104026020016040519081016040528092919081815260200182805461272c906133b2565b80156127795780601f1061274e57610100808354040283529160200191612779565b820191906000526020600020905b81548152906001019060200180831161275c57829003601f168201915b50505050509050919050565b6000816040516020016127989190613498565b60405160208183030381529060405280519060200120836040516020016127bf9190613498565b6040516020818303038152906040528051906020012014156127e457600190506127e9565b600090505b92915050565b8280546127fb906133b2565b90600052602060002090601f01602090048101928261281d5760008555612864565b82601f1061283657805160ff1916838001178555612864565b82800160010185558215612864579182015b82811115612863578251825591602001919060010190612848565b5b5090506128719190612875565b5090565b5b8082111561288e576000816000905550600101612876565b5090565b6000604051905090565b600080fd5b600080fd5b6000819050919050565b6128b9816128a6565b81146128c457600080fd5b50565b6000813590506128d6816128b0565b92915050565b6000602082840312156128f2576128f161289c565b5b6000612900848285016128c7565b91505092915050565b600081519050919050565b600082825260208201905092915050565b60005b83811015612943578082015181840152602081019050612928565b83811115612952576000848401525b50505050565b6000601f19601f8301169050919050565b600061297482612909565b61297e8185612914565b935061298e818560208601612925565b61299781612958565b840191505092915050565b600060208201905081810360008301526129bc8184612969565b905092915050565b6129cd816128a6565b82525050565b60006020820190506129e860008301846129c4565b92915050565b600073ffffffffffffffffffffffffffffffffffffffff82169050919050565b6000612a19826129ee565b9050919050565b612a2981612a0e565b82525050565b6000602082019050612a446000830184612a20565b92915050565b600061010082019050612a60600083018b6129c4565b8181036020830152612a72818a612969565b90508181036040830152612a868189612969565b90508181036060830152612a9a8188612969565b90508181036080830152612aae8187612969565b905081810360a0830152612ac28186612969565b9050612ad160c08301856129c4565b612ade60e08301846129c4565b9998505050505050505050565b600060c082019050612b0060008301896129c4565b8181036020830152612b128188612969565b90508181036040830152612b268187612969565b9050612b3560608301866129c4565b8181036080830152612b478185612969565b905081810360a0830152612b5b8184612969565b9050979650505050505050565b600080fd5b600080fd5b7f4e487b7100000000000000000000000000000000000000000000000000000000600052604160045260246000fd5b612baa82612958565b810181811067ffffffffffffffff82111715612bc957612bc8612b72565b5b80604052505050565b6000612bdc612892565b9050612be88282612ba1565b919050565b600067ffffffffffffffff821115612c0857612c07612b72565b5b612c1182612958565b9050602081019050919050565b82818337600083830152505050565b6000612c40612c3b84612bed565b612bd2565b905082815260208101848484011115612c5c57612c5b612b6d565b5b612c67848285612c1e565b509392505050565b600082601f830112612c8457612c83612b68565b5b8135612c94848260208601612c2d565b91505092915050565b600080600080600060a08688031215612cb957612cb861289c565b5b6000612cc7888289016128c7565b955050602086013567ffffffffffffffff811115612ce857612ce76128a1565b5b612cf488828901612c6f565b945050604086013567ffffffffffffffff811115612d1557612d146128a1565b5b612d2188828901612c6f565b935050606086013567ffffffffffffffff811115612d4257612d416128a1565b5b612d4e88828901612c6f565b925050608086013567ffffffffffffffff811115612d6f57612d6e6128a1565b5b612d7b88828901612c6f565b9150509295509295909350565b60008060008060008060c08789031215612da557612da461289c565b5b600087013567ffffffffffffffff811115612dc357612dc26128a1565b5b612dcf89828a01612c6f565b9650506020612de089828a016128c7565b955050604087013567ffffffffffffffff811115612e0157612e006128a1565b5b612e0d89828a01612c6f565b9450506060612e1e89828a016128c7565b935050608087013567ffffffffffffffff811115612e3f57612e3e6128a1565b5b612e4b89828a01612c6f565b92505060a087013567ffffffffffffffff811115612e6c57612e6b6128a1565b5b612e7889828a01612c6f565b9150509295509295509295565b600060a082019050612e9a60008301886129c4565b8181036020830152612eac8187612969565b90508181036040830152612ec08186612969565b90508181036060830152612ed48185612969565b90508181036080830152612ee88184612969565b90509695505050505050565b600081519050919050565b600082825260208201905092915050565b6000819050602082019050919050565b612f2981612a0e565b82525050565b6000612f3b8383612f20565b60208301905092915050565b6000602082019050919050565b6000612f5f82612ef4565b612f698185612eff565b9350612f7483612f10565b8060005b83811015612fa5578151612f8c8882612f2f565b9750612f9783612f47565b925050600181019050612f78565b5085935050505092915050565b60006020820190508181036000830152612fcc8184612f54565b905092915050565b600080600080600080600060e0888a031215612ff357612ff261289c565b5b600088013567ffffffffffffffff811115613011576130106128a1565b5b61301d8a828b01612c6f565b975050602088013567ffffffffffffffff81111561303e5761303d6128a1565b5b61304a8a828b01612c6f565b965050604088013567ffffffffffffffff81111561306b5761306a6128a1565b5b6130778a828b01612c6f565b955050606088013567ffffffffffffffff811115613098576130976128a1565b5b6130a48a828b01612c6f565b945050608088013567ffffffffffffffff8111156130c5576130c46128a1565b5b6130d18a828b01612c6f565b93505060a06130e28a828b016128c7565b92505060c06130f38a828b016128c7565b91505092959891949750929550565b600060c082019050818103600083015261311c8189612969565b905061312b60208301886129c4565b818103604083015261313d8187612969565b905061314c60608301866129c4565b818103608083015261315e8185612969565b905081810360a08301526131728184612969565b9050979650505050505050565b60008060008060008060c0878903121561319c5761319b61289c565b5b60006131aa89828a016128c7565b965050602087013567ffffffffffffffff8111156131cb576131ca6128a1565b5b6131d789828a01612c6f565b955050604087013567ffffffffffffffff8111156131f8576131f76128a1565b5b61320489828a01612c6f565b945050606061321589828a016128c7565b935050608087013567ffffffffffffffff811115613236576132356128a1565b5b61324289828a01612c6f565b92505060a087013567ffffffffffffffff811115613263576132626128a1565b5b61326f89828a01612c6f565b9150509295509295509295565b600080600080600060a086880312156132985761329761289c565b5b600086013567ffffffffffffffff8111156132b6576132b56128a1565b5b6132c288828901612c6f565b955050602086013567ffffffffffffffff8111156132e3576132e26128a1565b5b6132ef88828901612c6f565b945050604086013567ffffffffffffffff8111156133105761330f6128a1565b5b61331c88828901612c6f565b935050606086013567ffffffffffffffff81111561333d5761333c6128a1565b5b61334988828901612c6f565b925050608086013567ffffffffffffffff81111561336a576133696128a1565b5b61337688828901612c6f565b9150509295509295909350565b7f4e487b7100000000000000000000000000000000000000000000000000000000600052602260045260246000fd5b600060028204905060018216806133ca57607f821691505b602082108114156133de576133dd613383565b5b50919050565b7f4e487b7100000000000000000000000000000000000000000000000000000000600052601160045260246000fd5b600061341e826128a6565b91507fffffffffffffffffffffffffffffffffffffffffffffffffffffffffffffffff821415613451576134506133e4565b5b600182019050919050565b600081905092915050565b600061347282612909565b61347c818561345c565b935061348c818560208601612925565b80840191505092915050565b60006134a48284613467565b91508190509291505056fea264697066735822122071d2ea7bbadeb0814fcbd0c52d7f608e75cf9b6b865cd1e6e33b10bf8c04c88764736f6c634300080a0033",
  "immutableReferences": {},
  "source": "// SPDX-License-Identifier: MIT\r\npragma solidity >=0.4.22 <0.9.0;\r\n\r\ncontract Land {\r\n    // structs\r\n    struct Deed {\r\n        // deed instance variables\r\n        uint deedId;\r\n        string no;\r\n        string streetName;\r\n        string city;\r\n        string district;\r\n        string province;\r\n        uint assignedLawyerId; // to link the relevant lawyer to the deed\r\n        uint assignedSellerId; // to link the relevant seller to the deed\r\n    }\r\n\r\n    struct Buyer{\r\n        // Buyer instance variables\r\n       uint id;\r\n       string nic;\r\n       string name;\r\n       uint age;\r\n       string city;\r\n       string email; \r\n    }\r\n\r\n    struct Lawyer{\r\n        // Lawyer instance variables\r\n        uint lawyerId;\r\n        string lawyerName;\r\n        string lawyernic;\r\n        string lawyerRegNo;\r\n        string lawyerEmail;\r\n    }\r\n\r\n    struct Seller {\r\n        // Seller instance variables\r\n        string name;\r\n\t\tuint id;\r\n\t\tstring nic;\r\n        uint age;\r\n        string city;\r\n\t\tstring email;\r\n    }\r\n\r\n    struct Admin {\r\n        // Admin instance variables\r\n        uint id;\r\n    }\r\n\r\n    // mappings\r\n    mapping(uint => Deed) public deeds;\r\n    mapping(uint => Buyer) public Buyersmapping;\r\n    mapping(uint => Seller) public sellersMapping;\r\n    mapping(uint => Lawyer) public Lawyersmapping;\r\n    mapping(uint => Admin) public adminMapping;\r\n    \r\n    //arrays\r\n    address[] public Buyerlist;\r\n    address[] public sellerList;\r\n    address[] public lawyerList;\r\n\r\n    // Count tracking variables\r\n    uint private deedCount = 0;\r\n    uint private buyersCount = 0;\r\n    uint private sellersCount = 0;\r\n    uint private lawyerCount=0;\r\n    uint private adminCount = 0;\r\n\r\n    // getter for deed count\r\n    function getDeedCount() public view returns (uint) {\r\n        return deedCount;\r\n    }\r\n\r\n    // getter for buyer count\r\n    function getBuyersCount() public view returns(uint){\r\n        return buyersCount;\r\n    }\r\n\r\n    // getter for lawyer count\r\n    function getLawyerCount() public view returns(uint){\r\n        return lawyerCount;\r\n    }\r\n\r\n    // getter for seller count\r\n    function getSellersCount() public view returns(uint){\r\n        return sellersCount;\r\n    }\r\n\r\n    // getter for admin count\r\n    function getAdminCount() public view returns(uint){\r\n        return adminCount;\r\n    }\r\n\r\n    //getters for Deed struct\r\n    function getDeedId(uint index) public view returns (uint) {\r\n        return deeds[index].deedId;\r\n    }\r\n\r\n    function getDeedNo(uint index) public view returns (string memory) {\r\n        return deeds[index].no;\r\n    }\r\n\r\n    function getDeedStreetName(uint index) public view returns (string memory) {\r\n        return deeds[index].streetName;\r\n    }\r\n\r\n    function getDeedCity(uint index) public view returns (string memory) {\r\n        return deeds[index].city;\r\n    }\r\n\r\n    function getDeedDistrict(uint index) public view returns (string memory) {\r\n        return deeds[index].district;\r\n    }\r\n\r\n    function getDeedProvince(uint index) public view returns (string memory) {\r\n        return deeds[index].province;\r\n    }\r\n\r\n    function getLawyerIdOfDeed(uint index) public view returns (uint) {\r\n        return deeds[index].assignedLawyerId;\r\n    }\r\n\r\n    function getSellerIdOfDeed(uint index) public view returns (uint) {\r\n        return deeds[index].assignedSellerId;\r\n    }\r\n\r\n    // function to compare strings\r\n    function compareStrings(string memory s1, string memory s2) private pure returns (bool) {\r\n        if (keccak256(abi.encodePacked(s1)) == keccak256(abi.encodePacked(s2)))\r\n        {\r\n            return true;\r\n        }\r\n        else \r\n        {\r\n            return false;\r\n        }\r\n    }\r\n\r\n    // function to get the deed by the land address for searching purposes\r\n    function findDeedByAddress(string memory _no, string memory _streetName, string memory _city, string memory _district, string memory _province) public view returns (uint) {\r\n        uint i = 0;\r\n        uint returningDeedId;\r\n        while (i < deedCount)\r\n        {\r\n            if (compareStrings(_no, deeds[i].no) && compareStrings(_streetName, deeds[i].streetName) && compareStrings(_city, deeds[i].city) && compareStrings(_district, deeds[i].district) && compareStrings(_province, deeds[i].province))\r\n            {\r\n                returningDeedId = deeds[i].deedId;\r\n                break;\r\n            }\r\n            i++;\r\n        }\r\n        return returningDeedId;\r\n    }\r\n\r\n    //getter for the Buyerlist array\r\n    function getBuyer() public view returns( address [] memory){\r\n        return(Buyerlist);\r\n    }\r\n\r\n    //getter for the seller list array\r\n    function getSeller() public view returns( address [] memory){\r\n        return(sellerList);\r\n    }\r\n\r\n    //getter for the lawyerList array\r\n    function getLawyer() public view returns( address [] memory){\r\n        return(lawyerList);\r\n    }\r\n\r\n    // function to add a new deed to the deeds mapping\r\n    function addNewDeed(string memory _no, string memory _streetName, string memory _city, string memory _district, string memory _province, uint _assignedLawyerId, uint _assignedSellerId) public {\r\n        deeds[deedCount] = Deed(deedCount, _no, _streetName, _city, _district, _province, _assignedLawyerId, _assignedSellerId);\r\n        deedCount++;\r\n    }\r\n\r\n    //function to register new Buyer\r\n    function registerBuyer(uint _id, string memory _nic, string memory _name, uint _age, string memory _city, string memory _email) public {\r\n        \r\n        Buyersmapping[buyersCount] = Buyer(_id, _nic,  _name, _age, _city, _email);\r\n        buyersCount++;\r\n\r\n    }\r\n\r\n    //function to register a seller\r\n    function registerSeller(string memory _name, uint _id, string memory _nic, uint _age, string memory _city, string memory _email) public {\r\n        sellersMapping[sellersCount] = Seller(_name, _id, _nic, _age, _city, _email);\r\n        sellersCount++;\r\n\r\n    }\r\n\r\n    //function to register a new Lawyer\r\n    function registerLawyer(uint _lawyerId, string memory _lawyerName, string memory _lawyernic, string memory _lawyerRegNo, string memory _lawyerEmail) public {\r\n        Lawyersmapping[lawyerCount] = Lawyer(_lawyerId, _lawyerName, _lawyernic, _lawyerRegNo, _lawyerEmail);\r\n        lawyerCount++;\r\n    }\r\n\r\n    //function to display buyer details\r\n    function displayBuyer(uint index) public view returns (uint _id, string memory _nic, string memory _name, uint _age, string memory _city, string memory _email){\r\n        return(Buyersmapping[index].id, Buyersmapping[index].nic,Buyersmapping[index].name,Buyersmapping[index].age,Buyersmapping[index].city,Buyersmapping[index].email);\r\n\r\n    } \r\n\r\n    //function to display seller details\r\n    function displaySeller(uint index) public view returns (string memory _name, uint _id, string memory _nic, uint _age, string memory _city, string memory _email){\r\n        return(sellersMapping[index].name, sellersMapping[index].id, sellersMapping[index].nic, sellersMapping[index].age, sellersMapping[index].city, sellersMapping[index].email);\r\n    }\r\n\r\n    //function to add admin\r\n    function addAdmin() private {\r\n        adminCount++;\r\n        adminMapping[adminCount] = Admin(adminCount);\r\n    }\r\n    \r\n    //function to display lawyer details\r\n    function displayLawyer(uint index) public view returns (uint _lawyerId, string memory _lawyerName, string memory _lawyernic, string memory _lawyerRegNo, string memory _lawyerEmail){\r\n        return(Lawyersmapping[index].lawyerId, Lawyersmapping[index].lawyerName, Lawyersmapping[index].lawyernic, Lawyersmapping[index].lawyerRegNo, Lawyersmapping[index].lawyerEmail);\r\n    }\r\n}\r\n",
  "sourcePath": "C:\\GitHubRepos\\GitHub\\DBLOCK\\backEnd\\contracts\\Land.sol",
  "compiler": {
    "name": "solc",
    "version": "0.8.10+commit.fc410830.Emscripten.clang"
  },
  "schemaVersion": "3.4.3",
  "updatedAt": "2022-02-17T15:31:47.497Z",
  "networkType": "ethereum",
  "devdoc": {
    "kind": "dev",
    "methods": {},
    "version": 1
  },
  "userdoc": {
    "kind": "user",
    "methods": {},
    "version": 1
  }
}