{
  "contractName": "Land",
  "abi": [
    {
      "inputs": [
        {
          "internalType": "uint256",
          "name": "",
          "type": "uint256"
        }
      ],
      "name": "Buyerlist",
      "outputs": [
        {
          "internalType": "address",
          "name": "",
          "type": "address"
        }
      ],
      "stateMutability": "view",
      "type": "function",
      "constant": true
    },
    {
      "inputs": [
        {
          "internalType": "uint256",
          "name": "",
          "type": "uint256"
        }
      ],
      "name": "Buyersmapping",
      "outputs": [
        {
          "internalType": "uint256",
          "name": "id",
          "type": "uint256"
        },
        {
          "internalType": "string",
          "name": "nic",
          "type": "string"
        },
        {
          "internalType": "string",
          "name": "name",
          "type": "string"
        },
        {
          "internalType": "uint256",
          "name": "age",
          "type": "uint256"
        },
        {
          "internalType": "string",
          "name": "city",
          "type": "string"
        },
        {
          "internalType": "string",
          "name": "email",
          "type": "string"
        },
        {
          "internalType": "uint256",
          "name": "telephoneNumber",
          "type": "uint256"
        }
      ],
      "stateMutability": "view",
      "type": "function",
      "constant": true
    },
    {
      "inputs": [
        {
          "internalType": "uint256",
          "name": "",
          "type": "uint256"
        }
      ],
      "name": "Lawyersmapping",
      "outputs": [
        {
          "internalType": "uint256",
          "name": "lawyerId",
          "type": "uint256"
        },
        {
          "internalType": "string",
          "name": "lawyerName",
          "type": "string"
        },
        {
          "internalType": "string",
          "name": "lawyernic",
          "type": "string"
        },
        {
          "internalType": "string",
          "name": "lawyerRegNo",
          "type": "string"
        },
        {
          "internalType": "string",
          "name": "lawyerEmail",
          "type": "string"
        }
      ],
      "stateMutability": "view",
      "type": "function",
      "constant": true
    },
    {
      "inputs": [
        {
          "internalType": "uint256",
          "name": "",
          "type": "uint256"
        }
      ],
      "name": "adminMapping",
      "outputs": [
        {
          "internalType": "uint256",
          "name": "id",
          "type": "uint256"
        }
      ],
      "stateMutability": "view",
      "type": "function",
      "constant": true
    },
    {
      "inputs": [
        {
          "internalType": "uint256",
          "name": "",
          "type": "uint256"
        }
      ],
      "name": "deeds",
      "outputs": [
        {
          "internalType": "uint256",
          "name": "deedId",
          "type": "uint256"
        },
        {
          "internalType": "string",
          "name": "no",
          "type": "string"
        },
        {
          "internalType": "string",
          "name": "streetName",
          "type": "string"
        },
        {
          "internalType": "string",
          "name": "city",
          "type": "string"
        },
        {
          "internalType": "string",
          "name": "district",
          "type": "string"
        },
        {
          "internalType": "string",
          "name": "province",
          "type": "string"
        },
        {
          "internalType": "uint256",
          "name": "assignedLawyerId",
          "type": "uint256"
        },
        {
          "internalType": "uint256",
          "name": "assignedSellerId",
          "type": "uint256"
        }
      ],
      "stateMutability": "view",
      "type": "function",
      "constant": true
    },
    {
      "inputs": [
        {
          "internalType": "uint256",
          "name": "",
          "type": "uint256"
        }
      ],
      "name": "lawyerList",
      "outputs": [
        {
          "internalType": "address",
          "name": "",
          "type": "address"
        }
      ],
      "stateMutability": "view",
      "type": "function",
      "constant": true
    },
    {
      "inputs": [
        {
          "internalType": "uint256",
          "name": "",
          "type": "uint256"
        }
      ],
      "name": "sellerList",
      "outputs": [
        {
          "internalType": "address",
          "name": "",
          "type": "address"
        }
      ],
      "stateMutability": "view",
      "type": "function",
      "constant": true
    },
    {
      "inputs": [
        {
          "internalType": "uint256",
          "name": "",
          "type": "uint256"
        }
      ],
      "name": "sellersMapping",
      "outputs": [
        {
          "internalType": "string",
          "name": "name",
          "type": "string"
        },
        {
          "internalType": "uint256",
          "name": "id",
          "type": "uint256"
        },
        {
          "internalType": "string",
          "name": "nic",
          "type": "string"
        },
        {
          "internalType": "uint256",
          "name": "age",
          "type": "uint256"
        },
        {
          "internalType": "string",
          "name": "city",
          "type": "string"
        },
        {
          "internalType": "string",
          "name": "email",
          "type": "string"
        },
        {
          "internalType": "uint256",
          "name": "telephoneNumber",
          "type": "uint256"
        }
      ],
      "stateMutability": "view",
      "type": "function",
      "constant": true
    },
    {
      "inputs": [],
      "name": "getDeedCount",
      "outputs": [
        {
          "internalType": "uint256",
          "name": "",
          "type": "uint256"
        }
      ],
      "stateMutability": "view",
      "type": "function",
      "constant": true
    },
    {
      "inputs": [],
      "name": "getBuyersCount",
      "outputs": [
        {
          "internalType": "uint256",
          "name": "",
          "type": "uint256"
        }
      ],
      "stateMutability": "view",
      "type": "function",
      "constant": true
    },
    {
      "inputs": [],
      "name": "getLawyerCount",
      "outputs": [
        {
          "internalType": "uint256",
          "name": "",
          "type": "uint256"
        }
      ],
      "stateMutability": "view",
      "type": "function",
      "constant": true
    },
    {
      "inputs": [],
      "name": "getSellersCount",
      "outputs": [
        {
          "internalType": "uint256",
          "name": "",
          "type": "uint256"
        }
      ],
      "stateMutability": "view",
      "type": "function",
      "constant": true
    },
    {
      "inputs": [],
      "name": "getAdminCount",
      "outputs": [
        {
          "internalType": "uint256",
          "name": "",
          "type": "uint256"
        }
      ],
      "stateMutability": "view",
      "type": "function",
      "constant": true
    },
    {
      "inputs": [
        {
          "internalType": "uint256",
          "name": "index",
          "type": "uint256"
        }
      ],
      "name": "getDeedId",
      "outputs": [
        {
          "internalType": "uint256",
          "name": "",
          "type": "uint256"
        }
      ],
      "stateMutability": "view",
      "type": "function",
      "constant": true
    },
    {
      "inputs": [
        {
          "internalType": "uint256",
          "name": "index",
          "type": "uint256"
        }
      ],
      "name": "getDeedNo",
      "outputs": [
        {
          "internalType": "string",
          "name": "",
          "type": "string"
        }
      ],
      "stateMutability": "view",
      "type": "function",
      "constant": true
    },
    {
      "inputs": [
        {
          "internalType": "uint256",
          "name": "index",
          "type": "uint256"
        }
      ],
      "name": "getDeedStreetName",
      "outputs": [
        {
          "internalType": "string",
          "name": "",
          "type": "string"
        }
      ],
      "stateMutability": "view",
      "type": "function",
      "constant": true
    },
    {
      "inputs": [
        {
          "internalType": "uint256",
          "name": "index",
          "type": "uint256"
        }
      ],
      "name": "getDeedCity",
      "outputs": [
        {
          "internalType": "string",
          "name": "",
          "type": "string"
        }
      ],
      "stateMutability": "view",
      "type": "function",
      "constant": true
    },
    {
      "inputs": [
        {
          "internalType": "uint256",
          "name": "index",
          "type": "uint256"
        }
      ],
      "name": "getDeedDistrict",
      "outputs": [
        {
          "internalType": "string",
          "name": "",
          "type": "string"
        }
      ],
      "stateMutability": "view",
      "type": "function",
      "constant": true
    },
    {
      "inputs": [
        {
          "internalType": "uint256",
          "name": "index",
          "type": "uint256"
        }
      ],
      "name": "getDeedProvince",
      "outputs": [
        {
          "internalType": "string",
          "name": "",
          "type": "string"
        }
      ],
      "stateMutability": "view",
      "type": "function",
      "constant": true
    },
    {
      "inputs": [
        {
          "internalType": "uint256",
          "name": "index",
          "type": "uint256"
        }
      ],
      "name": "getLawyerIdOfDeed",
      "outputs": [
        {
          "internalType": "uint256",
          "name": "",
          "type": "uint256"
        }
      ],
      "stateMutability": "view",
      "type": "function",
      "constant": true
    },
    {
      "inputs": [
        {
          "internalType": "uint256",
          "name": "index",
          "type": "uint256"
        }
      ],
      "name": "getSellerIdOfDeed",
      "outputs": [
        {
          "internalType": "uint256",
          "name": "",
          "type": "uint256"
        }
      ],
      "stateMutability": "view",
      "type": "function",
      "constant": true
    },
    {
      "inputs": [
        {
          "internalType": "string",
          "name": "_no",
          "type": "string"
        },
        {
          "internalType": "string",
          "name": "_streetName",
          "type": "string"
        },
        {
          "internalType": "string",
          "name": "_city",
          "type": "string"
        },
        {
          "internalType": "string",
          "name": "_district",
          "type": "string"
        },
        {
          "internalType": "string",
          "name": "_province",
          "type": "string"
        }
      ],
      "name": "findDeedByAddress",
      "outputs": [
        {
          "internalType": "uint256",
          "name": "",
          "type": "uint256"
        }
      ],
      "stateMutability": "view",
      "type": "function",
      "constant": true
    },
    {
      "inputs": [],
      "name": "getBuyer",
      "outputs": [
        {
          "internalType": "address[]",
          "name": "",
          "type": "address[]"
        }
      ],
      "stateMutability": "view",
      "type": "function",
      "constant": true
    },
    {
      "inputs": [],
      "name": "getSeller",
      "outputs": [
        {
          "internalType": "address[]",
          "name": "",
          "type": "address[]"
        }
      ],
      "stateMutability": "view",
      "type": "function",
      "constant": true
    },
    {
      "inputs": [],
      "name": "getLawyer",
      "outputs": [
        {
          "internalType": "address[]",
          "name": "",
          "type": "address[]"
        }
      ],
      "stateMutability": "view",
      "type": "function",
      "constant": true
    },
    {
      "inputs": [
        {
          "internalType": "string",
          "name": "_no",
          "type": "string"
        },
        {
          "internalType": "string",
          "name": "_streetName",
          "type": "string"
        },
        {
          "internalType": "string",
          "name": "_city",
          "type": "string"
        },
        {
          "internalType": "string",
          "name": "_district",
          "type": "string"
        },
        {
          "internalType": "string",
          "name": "_province",
          "type": "string"
        },
        {
          "internalType": "uint256",
          "name": "_assignedLawyerId",
          "type": "uint256"
        },
        {
          "internalType": "uint256",
          "name": "_assignedSellerId",
          "type": "uint256"
        }
      ],
      "name": "addNewDeed",
      "outputs": [],
      "stateMutability": "nonpayable",
      "type": "function"
    },
    {
      "inputs": [
        {
          "internalType": "uint256",
          "name": "_id",
          "type": "uint256"
        },
        {
          "internalType": "string",
          "name": "_nic",
          "type": "string"
        },
        {
          "internalType": "string",
          "name": "_name",
          "type": "string"
        },
        {
          "internalType": "uint256",
          "name": "_age",
          "type": "uint256"
        },
        {
          "internalType": "string",
          "name": "_city",
          "type": "string"
        },
        {
          "internalType": "string",
          "name": "_email",
          "type": "string"
        },
        {
          "internalType": "uint256",
          "name": "_telephoneNumber",
          "type": "uint256"
        }
      ],
      "name": "registerBuyer",
      "outputs": [],
      "stateMutability": "nonpayable",
      "type": "function"
    },
    {
      "inputs": [
        {
          "internalType": "string",
          "name": "_name",
          "type": "string"
        },
        {
          "internalType": "uint256",
          "name": "_id",
          "type": "uint256"
        },
        {
          "internalType": "string",
          "name": "_nic",
          "type": "string"
        },
        {
          "internalType": "uint256",
          "name": "_age",
          "type": "uint256"
        },
        {
          "internalType": "string",
          "name": "_city",
          "type": "string"
        },
        {
          "internalType": "string",
          "name": "_email",
          "type": "string"
        },
        {
          "internalType": "uint256",
          "name": "_telephoneNumber",
          "type": "uint256"
        }
      ],
      "name": "registerSeller",
      "outputs": [],
      "stateMutability": "nonpayable",
      "type": "function"
    },
    {
      "inputs": [
        {
          "internalType": "uint256",
          "name": "_lawyerId",
          "type": "uint256"
        },
        {
          "internalType": "string",
          "name": "_lawyerName",
          "type": "string"
        },
        {
          "internalType": "string",
          "name": "_lawyernic",
          "type": "string"
        },
        {
          "internalType": "string",
          "name": "_lawyerRegNo",
          "type": "string"
        },
        {
          "internalType": "string",
          "name": "_lawyerEmail",
          "type": "string"
        }
      ],
      "name": "registerLawyer",
      "outputs": [],
      "stateMutability": "nonpayable",
      "type": "function"
    },
    {
      "inputs": [
        {
          "internalType": "uint256",
          "name": "index",
          "type": "uint256"
        }
      ],
      "name": "displayBuyer",
      "outputs": [
        {
          "internalType": "uint256",
          "name": "_id",
          "type": "uint256"
        },
        {
          "internalType": "string",
          "name": "_nic",
          "type": "string"
        },
        {
          "internalType": "string",
          "name": "_name",
          "type": "string"
        },
        {
          "internalType": "uint256",
          "name": "_age",
          "type": "uint256"
        },
        {
          "internalType": "string",
          "name": "_city",
          "type": "string"
        },
        {
          "internalType": "string",
          "name": "_email",
          "type": "string"
        },
        {
          "internalType": "uint256",
          "name": "_telephoneNumber",
          "type": "uint256"
        }
      ],
      "stateMutability": "view",
      "type": "function",
      "constant": true
    },
    {
      "inputs": [
        {
          "internalType": "uint256",
          "name": "index",
          "type": "uint256"
        }
      ],
      "name": "displaySeller",
      "outputs": [
        {
          "internalType": "string",
          "name": "_name",
          "type": "string"
        },
        {
          "internalType": "uint256",
          "name": "_id",
          "type": "uint256"
        },
        {
          "internalType": "string",
          "name": "_nic",
          "type": "string"
        },
        {
          "internalType": "uint256",
          "name": "_age",
          "type": "uint256"
        },
        {
          "internalType": "string",
          "name": "_city",
          "type": "string"
        },
        {
          "internalType": "string",
          "name": "_email",
          "type": "string"
        },
        {
          "internalType": "uint256",
          "name": "_telephoneNumber",
          "type": "uint256"
        }
      ],
      "stateMutability": "view",
      "type": "function",
      "constant": true
    },
    {
      "inputs": [
        {
          "internalType": "uint256",
          "name": "index",
          "type": "uint256"
        }
      ],
      "name": "displayLawyer",
      "outputs": [
        {
          "internalType": "uint256",
          "name": "_lawyerId",
          "type": "uint256"
        },
        {
          "internalType": "string",
          "name": "_lawyerName",
          "type": "string"
        },
        {
          "internalType": "string",
          "name": "_lawyernic",
          "type": "string"
        },
        {
          "internalType": "string",
          "name": "_lawyerRegNo",
          "type": "string"
        },
        {
          "internalType": "string",
          "name": "_lawyerEmail",
          "type": "string"
        }
      ],
      "stateMutability": "view",
      "type": "function",
      "constant": true
    }
  ],
  "bytecode": "0x6080604052600060085560006009556000600a556000600b556000600c5534801561002957600080fd5b50613597806100396000396000f3fe608060405234801561001057600080fd5b50600436106101f05760003560e01c80637c6eb1031161010f578063cff0c7c0116100a2578063f0b93af911610071578063f0b93af91461068e578063f0d3a9df146106be578063f42a1b31146106dc578063ffb434fb1461070c576101f0565b8063cff0c7c0146105e8578063dbd0e1b61461061c578063dd9d122d1461063a578063e513745914610658576101f0565b806393addc08116100de57806393addc08146105365780639614681b1461056c57806397ecb5081461059c5780639cd681f5146105b8576101f0565b80637c6eb1031461049457806380014029146104ca5780638b7bf3eb146104e8578063916a1c7014610506576101f0565b8063334bb745116101875780635dd56798116101565780635dd567981461040c578063603daf9a1461043c578063655dc4c21461045a578063721fa41814610478576101f0565b8063334bb7451461036e57806335a82e721461038c5780634fac8ae9146103bc57806355bb2bcc146103d8576101f0565b806321eb5a7c116101c357806321eb5a7c146102bc578063275ea7cf146102ec57806327dc19dd1461032257806332a678531461033e576101f0565b806305624d35146101f55780630df7ec2414610225578063119d41f41461025557806318edf56414610285575b600080fd5b61020f600480360381019061020a9190612948565b61073c565b60405161021c9190612a0e565b60405180910390f35b61023f600480360381019061023a9190612948565b6107e3565b60405161024c9190612a3f565b60405180910390f35b61026f600480360381019061026a9190612948565b610802565b60405161027c9190612a9b565b60405180910390f35b61029f600480360381019061029a9190612948565b610841565b6040516102b3989796959493929190612ab6565b60405180910390f35b6102d660048036038101906102d19190612948565b610b31565b6040516102e39190612a3f565b60405180910390f35b61030660048036038101906103019190612948565b610b4f565b6040516103199796959493929190612b57565b60405180910390f35b61033c60048036038101906103379190612d17565b610e41565b005b61035860048036038101906103539190612948565b610f1d565b6040516103659190612a0e565b60405180910390f35b610376610fc4565b6040516103839190612a3f565b60405180910390f35b6103a660048036038101906103a19190612948565b610fce565b6040516103b39190612a3f565b60405180910390f35b6103d660048036038101906103d19190612e02565b610fed565b005b6103f260048036038101906103ed9190612948565b6110eb565b604051610403959493929190612f14565b60405180910390f35b61042660048036038101906104219190612948565b6113a5565b6040516104339190612a3f565b60405180910390f35b6104446113c4565b6040516104519190613041565b60405180910390f35b610462611452565b60405161046f9190612a3f565b60405180910390f35b610492600480360381019061048d9190613063565b61145c565b005b6104ae60048036038101906104a99190612948565b61157f565b6040516104c19796959493929190613191565b60405180910390f35b6104d26117e1565b6040516104df9190613041565b60405180910390f35b6104f061186f565b6040516104fd9190612a3f565b60405180910390f35b610520600480360381019061051b9190612948565b611879565b60405161052d9190612a9b565b60405180910390f35b610550600480360381019061054b9190612948565b6118b8565b6040516105639796959493929190612b57565b60405180910390f35b6105866004803603810190610581919061321c565b611b1a565b6040516105939190612a3f565b60405180910390f35b6105b660048036038101906105b19190613323565b611ed4565b005b6105d260048036038101906105cd9190612948565b611fd2565b6040516105df9190612a0e565b60405180910390f35b61060260048036038101906105fd9190612948565b612079565b604051610613959493929190612f14565b60405180910390f35b6106246122cf565b6040516106319190613041565b60405180910390f35b61064261235d565b60405161064f9190612a3f565b60405180910390f35b610672600480360381019061066d9190612948565b612367565b6040516106859796959493929190613191565b60405180910390f35b6106a860048036038101906106a39190612948565b61265a565b6040516106b59190612a0e565b60405180910390f35b6106c6612701565b6040516106d39190612a3f565b60405180910390f35b6106f660048036038101906106f19190612948565b61270b565b6040516107039190612a9b565b60405180910390f35b61072660048036038101906107219190612948565b61274a565b6040516107339190612a0e565b60405180910390f35b6060600080838152602001908152602001600020600401805461075e90613464565b80601f016020809104026020016040519081016040528092919081815260200182805461078a90613464565b80156107d75780601f106107ac576101008083540402835291602001916107d7565b820191906000526020600020905b8154815290600101906020018083116107ba57829003601f168201915b50505050509050919050565b6000806000838152602001908152602001600020600001549050919050565b6005818154811061081257600080fd5b906000526020600020016000915054906101000a900473ffffffffffffffffffffffffffffffffffffffff1681565b600060205280600052604060002060009150905080600001549080600101805461086a90613464565b80601f016020809104026020016040519081016040528092919081815260200182805461089690613464565b80156108e35780601f106108b8576101008083540402835291602001916108e3565b820191906000526020600020905b8154815290600101906020018083116108c657829003601f168201915b5050505050908060020180546108f890613464565b80601f016020809104026020016040519081016040528092919081815260200182805461092490613464565b80156109715780601f1061094657610100808354040283529160200191610971565b820191906000526020600020905b81548152906001019060200180831161095457829003601f168201915b50505050509080600301805461098690613464565b80601f01602080910402602001604051908101604052809291908181526020018280546109b290613464565b80156109ff5780601f106109d4576101008083540402835291602001916109ff565b820191906000526020600020905b8154815290600101906020018083116109e257829003601f168201915b505050505090806004018054610a1490613464565b80601f0160208091040260200160405190810160405280929190818152602001828054610a4090613464565b8015610a8d5780601f10610a6257610100808354040283529160200191610a8d565b820191906000526020600020905b815481529060010190602001808311610a7057829003601f168201915b505050505090806005018054610aa290613464565b80601f0160208091040260200160405190810160405280929190818152602001828054610ace90613464565b8015610b1b5780601f10610af057610100808354040283529160200191610b1b565b820191906000526020600020905b815481529060010190602001808311610afe57829003601f168201915b5050505050908060060154908060070154905088565b60046020528060005260406000206000915090508060000154905081565b6000606080600060608060006001600089815260200190815260200160002060000154600160008a8152602001908152602001600020600101600160008b8152602001908152602001600020600201600160008c815260200190815260200160002060030154600160008d8152602001908152602001600020600401600160008e8152602001908152602001600020600501600160008f815260200190815260200160002060060154858054610c0490613464565b80601f0160208091040260200160405190810160405280929190818152602001828054610c3090613464565b8015610c7d5780601f10610c5257610100808354040283529160200191610c7d565b820191906000526020600020905b815481529060010190602001808311610c6057829003601f168201915b50505050509550848054610c9090613464565b80601f0160208091040260200160405190810160405280929190818152602001828054610cbc90613464565b8015610d095780601f10610cde57610100808354040283529160200191610d09565b820191906000526020600020905b815481529060010190602001808311610cec57829003601f168201915b50505050509450828054610d1c90613464565b80601f0160208091040260200160405190810160405280929190818152602001828054610d4890613464565b8015610d955780601f10610d6a57610100808354040283529160200191610d95565b820191906000526020600020905b815481529060010190602001808311610d7857829003601f168201915b50505050509250818054610da890613464565b80601f0160208091040260200160405190810160405280929190818152602001828054610dd490613464565b8015610e215780601f10610df657610100808354040283529160200191610e21565b820191906000526020600020905b815481529060010190602001808311610e0457829003601f168201915b505050505091509650965096509650965096509650919395979092949650565b6040518060a001604052808681526020018581526020018481526020018381526020018281525060036000600b548152602001908152602001600020600082015181600001556020820151816001019080519060200190610ea392919061285b565b506040820151816002019080519060200190610ec092919061285b565b506060820151816003019080519060200190610edd92919061285b565b506080820151816004019080519060200190610efa92919061285b565b50905050600b6000815480929190610f11906134c5565b91905055505050505050565b60606000808381526020019081526020016000206001018054610f3f90613464565b80601f0160208091040260200160405190810160405280929190818152602001828054610f6b90613464565b8015610fb85780601f10610f8d57610100808354040283529160200191610fb8565b820191906000526020600020905b815481529060010190602001808311610f9b57829003601f168201915b50505050509050919050565b6000600854905090565b6000806000838152602001908152602001600020600601549050919050565b6040518060e001604052808881526020018781526020018681526020018581526020018481526020018381526020018281525060016000600954815260200190815260200160002060008201518160000155602082015181600101908051906020019061105b92919061285b565b50604082015181600201908051906020019061107892919061285b565b5060608201518160030155608082015181600401908051906020019061109f92919061285b565b5060a08201518160050190805190602001906110bc92919061285b565b5060c08201518160060155905050600960008154809291906110dd906134c5565b919050555050505050505050565b600060608060608060036000878152602001908152602001600020600001546003600088815260200190815260200160002060010160036000898152602001908152602001600020600201600360008a8152602001908152602001600020600301600360008b815260200190815260200160002060040183805461116e90613464565b80601f016020809104026020016040519081016040528092919081815260200182805461119a90613464565b80156111e75780601f106111bc576101008083540402835291602001916111e7565b820191906000526020600020905b8154815290600101906020018083116111ca57829003601f168201915b505050505093508280546111fa90613464565b80601f016020809104026020016040519081016040528092919081815260200182805461122690613464565b80156112735780601f1061124857610100808354040283529160200191611273565b820191906000526020600020905b81548152906001019060200180831161125657829003601f168201915b5050505050925081805461128690613464565b80601f01602080910402602001604051908101604052809291908181526020018280546112b290613464565b80156112ff5780601f106112d4576101008083540402835291602001916112ff565b820191906000526020600020905b8154815290600101906020018083116112e257829003601f168201915b5050505050915080805461131290613464565b80601f016020809104026020016040519081016040528092919081815260200182805461133e90613464565b801561138b5780601f106113605761010080835404028352916020019161138b565b820191906000526020600020905b81548152906001019060200180831161136e57829003601f168201915b505050505090509450945094509450945091939590929450565b6000806000838152602001908152602001600020600701549050919050565b6060600580548060200260200160405190810160405280929190818152602001828054801561144857602002820191906000526020600020905b8160009054906101000a900473ffffffffffffffffffffffffffffffffffffffff1673ffffffffffffffffffffffffffffffffffffffff16815260200190600101908083116113fe575b5050505050905090565b6000600b54905090565b60405180610100016040528060085481526020018881526020018781526020018681526020018581526020018481526020018381526020018281525060008060085481526020019081526020016000206000820151816000015560208201518160010190805190602001906114d292919061285b565b5060408201518160020190805190602001906114ef92919061285b565b50606082015181600301908051906020019061150c92919061285b565b50608082015181600401908051906020019061152992919061285b565b5060a082015181600501908051906020019061154692919061285b565b5060c0820151816006015560e0820151816007015590505060086000815480929190611571906134c5565b919050555050505050505050565b60026020528060005260406000206000915090508060000180546115a290613464565b80601f01602080910402602001604051908101604052809291908181526020018280546115ce90613464565b801561161b5780601f106115f05761010080835404028352916020019161161b565b820191906000526020600020905b8154815290600101906020018083116115fe57829003601f168201915b50505050509080600101549080600201805461163690613464565b80601f016020809104026020016040519081016040528092919081815260200182805461166290613464565b80156116af5780601f10611684576101008083540402835291602001916116af565b820191906000526020600020905b81548152906001019060200180831161169257829003601f168201915b5050505050908060030154908060040180546116ca90613464565b80601f01602080910402602001604051908101604052809291908181526020018280546116f690613464565b80156117435780601f1061171857610100808354040283529160200191611743565b820191906000526020600020905b81548152906001019060200180831161172657829003601f168201915b50505050509080600501805461175890613464565b80601f016020809104026020016040519081016040528092919081815260200182805461178490613464565b80156117d15780601f106117a6576101008083540402835291602001916117d1565b820191906000526020600020905b8154815290600101906020018083116117b457829003601f168201915b5050505050908060060154905087565b6060600780548060200260200160405190810160405280929190818152602001828054801561186557602002820191906000526020600020905b8160009054906101000a900473ffffffffffffffffffffffffffffffffffffffff1673ffffffffffffffffffffffffffffffffffffffff168152602001906001019080831161181b575b5050505050905090565b6000600c54905090565b6007818154811061188957600080fd5b906000526020600020016000915054906101000a900473ffffffffffffffffffffffffffffffffffffffff1681565b60016020528060005260406000206000915090508060000154908060010180546118e190613464565b80601f016020809104026020016040519081016040528092919081815260200182805461190d90613464565b801561195a5780601f1061192f5761010080835404028352916020019161195a565b820191906000526020600020905b81548152906001019060200180831161193d57829003601f168201915b50505050509080600201805461196f90613464565b80601f016020809104026020016040519081016040528092919081815260200182805461199b90613464565b80156119e85780601f106119bd576101008083540402835291602001916119e8565b820191906000526020600020905b8154815290600101906020018083116119cb57829003601f168201915b505050505090806003015490806004018054611a0390613464565b80601f0160208091040260200160405190810160405280929190818152602001828054611a2f90613464565b8015611a7c5780601f10611a5157610100808354040283529160200191611a7c565b820191906000526020600020905b815481529060010190602001808311611a5f57829003601f168201915b505050505090806005018054611a9190613464565b80601f0160208091040260200160405190810160405280929190818152602001828054611abd90613464565b8015611b0a5780601f10611adf57610100808354040283529160200191611b0a565b820191906000526020600020905b815481529060010190602001808311611aed57829003601f168201915b5050505050908060060154905087565b6000806000905060005b600854821015611ec657611bd5886000808581526020019081526020016000206001018054611b5290613464565b80601f0160208091040260200160405190810160405280929190818152602001828054611b7e90613464565b8015611bcb5780601f10611ba057610100808354040283529160200191611bcb565b820191906000526020600020905b815481529060010190602001808311611bae57829003601f168201915b50505050506127f1565b8015611c845750611c83876000808581526020019081526020016000206002018054611c0090613464565b80601f0160208091040260200160405190810160405280929190818152602001828054611c2c90613464565b8015611c795780601f10611c4e57610100808354040283529160200191611c79565b820191906000526020600020905b815481529060010190602001808311611c5c57829003601f168201915b50505050506127f1565b5b8015611d335750611d32866000808581526020019081526020016000206003018054611caf90613464565b80601f0160208091040260200160405190810160405280929190818152602001828054611cdb90613464565b8015611d285780601f10611cfd57610100808354040283529160200191611d28565b820191906000526020600020905b815481529060010190602001808311611d0b57829003601f168201915b50505050506127f1565b5b8015611de25750611de1856000808581526020019081526020016000206004018054611d5e90613464565b80601f0160208091040260200160405190810160405280929190818152602001828054611d8a90613464565b8015611dd75780601f10611dac57610100808354040283529160200191611dd7565b820191906000526020600020905b815481529060010190602001808311611dba57829003601f168201915b50505050506127f1565b5b8015611e915750611e90846000808581526020019081526020016000206005018054611e0d90613464565b80601f0160208091040260200160405190810160405280929190818152602001828054611e3990613464565b8015611e865780601f10611e5b57610100808354040283529160200191611e86565b820191906000526020600020905b815481529060010190602001808311611e6957829003601f168201915b50505050506127f1565b5b15611eb357600080838152602001908152602001600020600001549050611ec6565b8180611ebe906134c5565b925050611b24565b809250505095945050505050565b6040518060e001604052808881526020018781526020018681526020018581526020018481526020018381526020018281525060026000600a5481526020019081526020016000206000820151816000019080519060200190611f3892919061285b565b50602082015181600101556040820151816002019080519060200190611f5f92919061285b565b50606082015181600301556080820151816004019080519060200190611f8692919061285b565b5060a0820151816005019080519060200190611fa392919061285b565b5060c08201518160060155905050600a6000815480929190611fc4906134c5565b919050555050505050505050565b60606000808381526020019081526020016000206005018054611ff490613464565b80601f016020809104026020016040519081016040528092919081815260200182805461202090613464565b801561206d5780601f106120425761010080835404028352916020019161206d565b820191906000526020600020905b81548152906001019060200180831161205057829003601f168201915b50505050509050919050565b60036020528060005260406000206000915090508060000154908060010180546120a290613464565b80601f01602080910402602001604051908101604052809291908181526020018280546120ce90613464565b801561211b5780601f106120f05761010080835404028352916020019161211b565b820191906000526020600020905b8154815290600101906020018083116120fe57829003601f168201915b50505050509080600201805461213090613464565b80601f016020809104026020016040519081016040528092919081815260200182805461215c90613464565b80156121a95780601f1061217e576101008083540402835291602001916121a9565b820191906000526020600020905b81548152906001019060200180831161218c57829003601f168201915b5050505050908060030180546121be90613464565b80601f01602080910402602001604051908101604052809291908181526020018280546121ea90613464565b80156122375780601f1061220c57610100808354040283529160200191612237565b820191906000526020600020905b81548152906001019060200180831161221a57829003601f168201915b50505050509080600401805461224c90613464565b80601f016020809104026020016040519081016040528092919081815260200182805461227890613464565b80156122c55780601f1061229a576101008083540402835291602001916122c5565b820191906000526020600020905b8154815290600101906020018083116122a857829003601f168201915b5050505050905085565b6060600680548060200260200160405190810160405280929190818152602001828054801561235357602002820191906000526020600020905b8160009054906101000a900473ffffffffffffffffffffffffffffffffffffffff1673ffffffffffffffffffffffffffffffffffffffff1681526020019060010190808311612309575b5050505050905090565b6000600a54905090565b6060600060606000606080600060026000898152602001908152602001600020600001600260008a815260200190815260200160002060010154600260008b8152602001908152602001600020600201600260008c815260200190815260200160002060030154600260008d8152602001908152602001600020600401600260008e8152602001908152602001600020600501600260008f81526020019081526020016000206006015486805461241d90613464565b80601f016020809104026020016040519081016040528092919081815260200182805461244990613464565b80156124965780601f1061246b57610100808354040283529160200191612496565b820191906000526020600020905b81548152906001019060200180831161247957829003601f168201915b505050505096508480546124a990613464565b80601f01602080910402602001604051908101604052809291908181526020018280546124d590613464565b80156125225780601f106124f757610100808354040283529160200191612522565b820191906000526020600020905b81548152906001019060200180831161250557829003601f168201915b5050505050945082805461253590613464565b80601f016020809104026020016040519081016040528092919081815260200182805461256190613464565b80156125ae5780601f10612583576101008083540402835291602001916125ae565b820191906000526020600020905b81548152906001019060200180831161259157829003601f168201915b505050505092508180546125c190613464565b80601f01602080910402602001604051908101604052809291908181526020018280546125ed90613464565b801561263a5780601f1061260f5761010080835404028352916020019161263a565b820191906000526020600020905b81548152906001019060200180831161261d57829003601f168201915b505050505091509650965096509650965096509650919395979092949650565b6060600080838152602001908152602001600020600301805461267c90613464565b80601f01602080910402602001604051908101604052809291908181526020018280546126a890613464565b80156126f55780601f106126ca576101008083540402835291602001916126f5565b820191906000526020600020905b8154815290600101906020018083116126d857829003601f168201915b50505050509050919050565b6000600954905090565b6006818154811061271b57600080fd5b906000526020600020016000915054906101000a900473ffffffffffffffffffffffffffffffffffffffff1681565b6060600080838152602001908152602001600020600201805461276c90613464565b80601f016020809104026020016040519081016040528092919081815260200182805461279890613464565b80156127e55780601f106127ba576101008083540402835291602001916127e5565b820191906000526020600020905b8154815290600101906020018083116127c857829003601f168201915b50505050509050919050565b600081604051602001612804919061354a565b604051602081830303815290604052805190602001208360405160200161282b919061354a565b6040516020818303038152906040528051906020012014156128505760019050612855565b600090505b92915050565b82805461286790613464565b90600052602060002090601f01602090048101928261288957600085556128d0565b82601f106128a257805160ff19168380011785556128d0565b828001600101855582156128d0579182015b828111156128cf5782518255916020019190600101906128b4565b5b5090506128dd91906128e1565b5090565b5b808211156128fa5760008160009055506001016128e2565b5090565b6000604051905090565b600080fd5b600080fd5b6000819050919050565b61292581612912565b811461293057600080fd5b50565b6000813590506129428161291c565b92915050565b60006020828403121561295e5761295d612908565b5b600061296c84828501612933565b91505092915050565b600081519050919050565b600082825260208201905092915050565b60005b838110156129af578082015181840152602081019050612994565b838111156129be576000848401525b50505050565b6000601f19601f8301169050919050565b60006129e082612975565b6129ea8185612980565b93506129fa818560208601612991565b612a03816129c4565b840191505092915050565b60006020820190508181036000830152612a2881846129d5565b905092915050565b612a3981612912565b82525050565b6000602082019050612a546000830184612a30565b92915050565b600073ffffffffffffffffffffffffffffffffffffffff82169050919050565b6000612a8582612a5a565b9050919050565b612a9581612a7a565b82525050565b6000602082019050612ab06000830184612a8c565b92915050565b600061010082019050612acc600083018b612a30565b8181036020830152612ade818a6129d5565b90508181036040830152612af281896129d5565b90508181036060830152612b0681886129d5565b90508181036080830152612b1a81876129d5565b905081810360a0830152612b2e81866129d5565b9050612b3d60c0830185612a30565b612b4a60e0830184612a30565b9998505050505050505050565b600060e082019050612b6c600083018a612a30565b8181036020830152612b7e81896129d5565b90508181036040830152612b9281886129d5565b9050612ba16060830187612a30565b8181036080830152612bb381866129d5565b905081810360a0830152612bc781856129d5565b9050612bd660c0830184612a30565b98975050505050505050565b600080fd5b600080fd5b7f4e487b7100000000000000000000000000000000000000000000000000000000600052604160045260246000fd5b612c24826129c4565b810181811067ffffffffffffffff82111715612c4357612c42612bec565b5b80604052505050565b6000612c566128fe565b9050612c628282612c1b565b919050565b600067ffffffffffffffff821115612c8257612c81612bec565b5b612c8b826129c4565b9050602081019050919050565b82818337600083830152505050565b6000612cba612cb584612c67565b612c4c565b905082815260208101848484011115612cd657612cd5612be7565b5b612ce1848285612c98565b509392505050565b600082601f830112612cfe57612cfd612be2565b5b8135612d0e848260208601612ca7565b91505092915050565b600080600080600060a08688031215612d3357612d32612908565b5b6000612d4188828901612933565b955050602086013567ffffffffffffffff811115612d6257612d6161290d565b5b612d6e88828901612ce9565b945050604086013567ffffffffffffffff811115612d8f57612d8e61290d565b5b612d9b88828901612ce9565b935050606086013567ffffffffffffffff811115612dbc57612dbb61290d565b5b612dc888828901612ce9565b925050608086013567ffffffffffffffff811115612de957612de861290d565b5b612df588828901612ce9565b9150509295509295909350565b600080600080600080600060e0888a031215612e2157612e20612908565b5b6000612e2f8a828b01612933565b975050602088013567ffffffffffffffff811115612e5057612e4f61290d565b5b612e5c8a828b01612ce9565b965050604088013567ffffffffffffffff811115612e7d57612e7c61290d565b5b612e898a828b01612ce9565b9550506060612e9a8a828b01612933565b945050608088013567ffffffffffffffff811115612ebb57612eba61290d565b5b612ec78a828b01612ce9565b93505060a088013567ffffffffffffffff811115612ee857612ee761290d565b5b612ef48a828b01612ce9565b92505060c0612f058a828b01612933565b91505092959891949750929550565b600060a082019050612f296000830188612a30565b8181036020830152612f3b81876129d5565b90508181036040830152612f4f81866129d5565b90508181036060830152612f6381856129d5565b90508181036080830152612f7781846129d5565b90509695505050505050565b600081519050919050565b600082825260208201905092915050565b6000819050602082019050919050565b612fb881612a7a565b82525050565b6000612fca8383612faf565b60208301905092915050565b6000602082019050919050565b6000612fee82612f83565b612ff88185612f8e565b935061300383612f9f565b8060005b8381101561303457815161301b8882612fbe565b975061302683612fd6565b925050600181019050613007565b5085935050505092915050565b6000602082019050818103600083015261305b8184612fe3565b905092915050565b600080600080600080600060e0888a03121561308257613081612908565b5b600088013567ffffffffffffffff8111156130a05761309f61290d565b5b6130ac8a828b01612ce9565b975050602088013567ffffffffffffffff8111156130cd576130cc61290d565b5b6130d98a828b01612ce9565b965050604088013567ffffffffffffffff8111156130fa576130f961290d565b5b6131068a828b01612ce9565b955050606088013567ffffffffffffffff8111156131275761312661290d565b5b6131338a828b01612ce9565b945050608088013567ffffffffffffffff8111156131545761315361290d565b5b6131608a828b01612ce9565b93505060a06131718a828b01612933565b92505060c06131828a828b01612933565b91505092959891949750929550565b600060e08201905081810360008301526131ab818a6129d5565b90506131ba6020830189612a30565b81810360408301526131cc81886129d5565b90506131db6060830187612a30565b81810360808301526131ed81866129d5565b905081810360a083015261320181856129d5565b905061321060c0830184612a30565b98975050505050505050565b600080600080600060a0868803121561323857613237612908565b5b600086013567ffffffffffffffff8111156132565761325561290d565b5b61326288828901612ce9565b955050602086013567ffffffffffffffff8111156132835761328261290d565b5b61328f88828901612ce9565b945050604086013567ffffffffffffffff8111156132b0576132af61290d565b5b6132bc88828901612ce9565b935050606086013567ffffffffffffffff8111156132dd576132dc61290d565b5b6132e988828901612ce9565b925050608086013567ffffffffffffffff81111561330a5761330961290d565b5b61331688828901612ce9565b9150509295509295909350565b600080600080600080600060e0888a03121561334257613341612908565b5b600088013567ffffffffffffffff8111156133605761335f61290d565b5b61336c8a828b01612ce9565b975050602061337d8a828b01612933565b965050604088013567ffffffffffffffff81111561339e5761339d61290d565b5b6133aa8a828b01612ce9565b95505060606133bb8a828b01612933565b945050608088013567ffffffffffffffff8111156133dc576133db61290d565b5b6133e88a828b01612ce9565b93505060a088013567ffffffffffffffff8111156134095761340861290d565b5b6134158a828b01612ce9565b92505060c06134268a828b01612933565b91505092959891949750929550565b7f4e487b7100000000000000000000000000000000000000000000000000000000600052602260045260246000fd5b6000600282049050600182168061347c57607f821691505b602082108114156134905761348f613435565b5b50919050565b7f4e487b7100000000000000000000000000000000000000000000000000000000600052601160045260246000fd5b60006134d082612912565b91507fffffffffffffffffffffffffffffffffffffffffffffffffffffffffffffffff82141561350357613502613496565b5b600182019050919050565b600081905092915050565b600061352482612975565b61352e818561350e565b935061353e818560208601612991565b80840191505092915050565b60006135568284613519565b91508190509291505056fea26469706673582212203100fb45f0e39d45914d5695906b2bb000f1cc02398279de8b0e9429e4c53fc864736f6c634300080a0033",
  "immutableReferences": {},
  "source": "// SPDX-License-Identifier: MIT\r\npragma solidity >=0.4.22 <0.9.0;\r\n\r\ncontract Land {\r\n    // structs\r\n    struct Deed {\r\n        // deed instance variables\r\n        uint deedId;\r\n        string no;\r\n        string streetName;\r\n        string city;\r\n        string district;\r\n        string province;\r\n        uint assignedLawyerId; // to link the relevant lawyer to the deed\r\n        uint assignedSellerId; // to link the relevant seller to the deed\r\n    }\r\n\r\n    struct Buyer{\r\n        // Buyer instance variables\r\n       uint id;\r\n       string nic;\r\n       string name;\r\n       uint age;\r\n       string city;\r\n       string email; \r\n       uint telephoneNumber;\r\n    }\r\n\r\n    struct Lawyer{\r\n        // Lawyer instance variables\r\n        uint lawyerId;\r\n        string lawyerName;\r\n        string lawyernic;\r\n        string lawyerRegNo;\r\n        string lawyerEmail;\r\n    }\r\n\r\n    struct Seller {\r\n        // Seller instance variables\r\n        string name;\r\n\t\tuint id;\r\n\t\tstring nic;\r\n        uint age;\r\n        string city;\r\n\t\tstring email;\r\n        uint telephoneNumber;\r\n    }\r\n\r\n    struct Admin {\r\n        // Admin instance variables\r\n        uint id;\r\n    }\r\n\r\n    // mappings\r\n    mapping(uint => Deed) public deeds;\r\n    mapping(uint => Buyer) public Buyersmapping;\r\n    mapping(uint => Seller) public sellersMapping;\r\n    mapping(uint => Lawyer) public Lawyersmapping;\r\n    mapping(uint => Admin) public adminMapping;\r\n    \r\n    //arrays\r\n    address[] public Buyerlist;\r\n    address[] public sellerList;\r\n    address[] public lawyerList;\r\n\r\n    // Count tracking variables\r\n    uint private deedCount = 0;\r\n    uint private buyersCount = 0;\r\n    uint private sellersCount = 0;\r\n    uint private lawyerCount=0;\r\n    uint private adminCount = 0;\r\n\r\n    // getter for deed count\r\n    function getDeedCount() public view returns (uint) {\r\n        return deedCount;\r\n    }\r\n\r\n    // getter for buyer count\r\n    function getBuyersCount() public view returns(uint){\r\n        return buyersCount;\r\n    }\r\n\r\n    // getter for lawyer count\r\n    function getLawyerCount() public view returns(uint){\r\n        return lawyerCount;\r\n    }\r\n\r\n    // getter for seller count\r\n    function getSellersCount() public view returns(uint){\r\n        return sellersCount;\r\n    }\r\n\r\n    // getter for admin count\r\n    function getAdminCount() public view returns(uint){\r\n        return adminCount;\r\n    }\r\n\r\n    //getters for Deed struct\r\n    function getDeedId(uint index) public view returns (uint) {\r\n        return deeds[index].deedId;\r\n    }\r\n\r\n    function getDeedNo(uint index) public view returns (string memory) {\r\n        return deeds[index].no;\r\n    }\r\n\r\n    function getDeedStreetName(uint index) public view returns (string memory) {\r\n        return deeds[index].streetName;\r\n    }\r\n\r\n    function getDeedCity(uint index) public view returns (string memory) {\r\n        return deeds[index].city;\r\n    }\r\n\r\n    function getDeedDistrict(uint index) public view returns (string memory) {\r\n        return deeds[index].district;\r\n    }\r\n\r\n    function getDeedProvince(uint index) public view returns (string memory) {\r\n        return deeds[index].province;\r\n    }\r\n\r\n    function getLawyerIdOfDeed(uint index) public view returns (uint) {\r\n        return deeds[index].assignedLawyerId;\r\n    }\r\n\r\n    function getSellerIdOfDeed(uint index) public view returns (uint) {\r\n        return deeds[index].assignedSellerId;\r\n    }\r\n\r\n    // function to compare strings\r\n    function compareStrings(string memory s1, string memory s2) private pure returns (bool) {\r\n        if (keccak256(abi.encodePacked(s1)) == keccak256(abi.encodePacked(s2)))\r\n        {\r\n            return true;\r\n        }\r\n        else \r\n        {\r\n            return false;\r\n        }\r\n    }\r\n\r\n    // function to get the deed by the land address for searching purposes\r\n    function findDeedByAddress(string memory _no, string memory _streetName, string memory _city, string memory _district, string memory _province) public view returns (uint) {\r\n        uint i = 0;\r\n        uint returningDeedId;\r\n        while (i < deedCount)\r\n        {\r\n            if (compareStrings(_no, deeds[i].no) && compareStrings(_streetName, deeds[i].streetName) && compareStrings(_city, deeds[i].city) && compareStrings(_district, deeds[i].district) && compareStrings(_province, deeds[i].province))\r\n            {\r\n                returningDeedId = deeds[i].deedId;\r\n                break;\r\n            }\r\n            i++;\r\n        }\r\n        return returningDeedId;\r\n    }\r\n\r\n    //getter for the Buyerlist array\r\n    function getBuyer() public view returns( address [] memory){\r\n        return(Buyerlist);\r\n    }\r\n\r\n    //getter for the seller list array\r\n    function getSeller() public view returns( address [] memory){\r\n        return(sellerList);\r\n    }\r\n\r\n    //getter for the lawyerList array\r\n    function getLawyer() public view returns( address [] memory){\r\n        return(lawyerList);\r\n    }\r\n\r\n    // function to add a new deed to the deeds mapping\r\n    function addNewDeed(string memory _no, string memory _streetName, string memory _city, string memory _district, string memory _province, uint _assignedLawyerId, uint _assignedSellerId) public {\r\n        deeds[deedCount] = Deed(deedCount, _no, _streetName, _city, _district, _province, _assignedLawyerId, _assignedSellerId);\r\n        deedCount++;\r\n    }\r\n\r\n    //function to register new Buyer\r\n    function registerBuyer(uint _id, string memory _nic, string memory _name, uint _age, string memory _city, string memory _email, uint _telephoneNumber) public {\r\n        Buyersmapping[buyersCount] = Buyer(_id, _nic,  _name, _age, _city, _email, _telephoneNumber);\r\n        buyersCount++;\r\n\r\n    }\r\n\r\n    //function to register a seller\r\n    function registerSeller(string memory _name, uint _id, string memory _nic, uint _age, string memory _city, string memory _email, uint _telephoneNumber) public {\r\n        sellersMapping[sellersCount] = Seller(_name, _id, _nic, _age, _city, _email, _telephoneNumber);\r\n        sellersCount++;\r\n\r\n    }\r\n\r\n    //function to register a new Lawyer\r\n    function registerLawyer(uint _lawyerId, string memory _lawyerName, string memory _lawyernic, string memory _lawyerRegNo, string memory _lawyerEmail) public {\r\n        Lawyersmapping[lawyerCount] = Lawyer(_lawyerId, _lawyerName, _lawyernic, _lawyerRegNo, _lawyerEmail);\r\n        lawyerCount++;\r\n    }\r\n\r\n    //function to display buyer details\r\n    function displayBuyer(uint index) public view returns (uint _id, string memory _nic, string memory _name, uint _age, string memory _city, string memory _email, uint _telephoneNumber){\r\n        return(Buyersmapping[index].id, Buyersmapping[index].nic,Buyersmapping[index].name,Buyersmapping[index].age,Buyersmapping[index].city,Buyersmapping[index].email,Buyersmapping[index].telephoneNumber);\r\n\r\n    } \r\n\r\n    //function to display seller details\r\n    function displaySeller(uint index) public view returns (string memory _name, uint _id, string memory _nic, uint _age, string memory _city, string memory _email, uint _telephoneNumber){\r\n        return(sellersMapping[index].name, sellersMapping[index].id, sellersMapping[index].nic, sellersMapping[index].age, sellersMapping[index].city, sellersMapping[index].email, sellersMapping[index].telephoneNumber);\r\n    }\r\n\r\n    //function to add admin\r\n    function addAdmin() private {\r\n        adminCount++;\r\n        adminMapping[adminCount] = Admin(adminCount);\r\n    }\r\n    \r\n    //function to display lawyer details\r\n    function displayLawyer(uint index) public view returns (uint _lawyerId, string memory _lawyerName, string memory _lawyernic, string memory _lawyerRegNo, string memory _lawyerEmail){\r\n        return(Lawyersmapping[index].lawyerId, Lawyersmapping[index].lawyerName, Lawyersmapping[index].lawyernic, Lawyersmapping[index].lawyerRegNo, Lawyersmapping[index].lawyerEmail);\r\n    }\r\n}",
  "sourcePath": "C:\\Users\\gavin\\Documents\\GitHub\\DBLOCK\\backEnd\\contracts\\Land.sol",
  "compiler": {
    "name": "solc",
    "version": "0.8.10+commit.fc410830.Emscripten.clang"
  },
  "schemaVersion": "3.4.4",
  "updatedAt": "2022-02-21T06:57:40.448Z",
  "networkType": "ethereum",
  "devdoc": {
    "kind": "dev",
    "methods": {},
    "version": 1
  },
  "userdoc": {
    "kind": "user",
    "methods": {},
    "version": 1
  }
}