{
  "contractName": "Land",
  "abi": [
    {
      "inputs": [],
      "stateMutability": "nonpayable",
      "type": "constructor"
    },
    {
      "inputs": [
        {
          "internalType": "uint256",
          "name": "",
          "type": "uint256"
        }
      ],
      "name": "Lawyersmapping",
      "outputs": [
        {
          "internalType": "uint256",
          "name": "lawyerId",
          "type": "uint256"
        },
        {
          "internalType": "string",
          "name": "lawyerName",
          "type": "string"
        },
        {
          "internalType": "string",
          "name": "lawyernic",
          "type": "string"
        },
        {
          "internalType": "string",
          "name": "lawyerRegNo",
          "type": "string"
        },
        {
          "internalType": "string",
          "name": "lawyerEmail",
          "type": "string"
        },
        {
          "internalType": "uint256",
          "name": "lawyerTelephoneNumber",
          "type": "uint256"
        },
        {
          "internalType": "string",
          "name": "lawyerPassword",
          "type": "string"
        }
      ],
      "stateMutability": "view",
      "type": "function",
      "constant": true
    },
    {
      "inputs": [
        {
          "internalType": "uint256",
          "name": "",
          "type": "uint256"
        }
      ],
      "name": "adminMapping",
      "outputs": [
        {
          "internalType": "uint256",
          "name": "id",
          "type": "uint256"
        },
        {
          "internalType": "string",
          "name": "adminPassword",
          "type": "string"
        }
      ],
      "stateMutability": "view",
      "type": "function",
      "constant": true
    },
    {
      "inputs": [
        {
          "internalType": "uint256",
          "name": "",
          "type": "uint256"
        }
      ],
      "name": "deeds",
      "outputs": [
        {
          "internalType": "uint256",
          "name": "deedId",
          "type": "uint256"
        },
        {
          "internalType": "string",
          "name": "ipfsHash",
          "type": "string"
        },
        {
          "internalType": "string",
          "name": "no",
          "type": "string"
        },
        {
          "internalType": "string",
          "name": "streetName",
          "type": "string"
        },
        {
          "internalType": "string",
          "name": "city",
          "type": "string"
        },
        {
          "internalType": "string",
          "name": "district",
          "type": "string"
        },
        {
          "internalType": "string",
          "name": "province",
          "type": "string"
        },
        {
          "internalType": "uint256",
          "name": "assignedLawyerId",
          "type": "uint256"
        },
        {
          "internalType": "uint256",
          "name": "assignedSellerId",
          "type": "uint256"
        }
      ],
      "stateMutability": "view",
      "type": "function",
      "constant": true
    },
    {
      "inputs": [
        {
          "internalType": "uint256",
          "name": "",
          "type": "uint256"
        }
      ],
      "name": "deedsVersionHistory",
      "outputs": [
        {
          "internalType": "uint256",
          "name": "deedIdLink",
          "type": "uint256"
        },
        {
          "internalType": "uint256",
          "name": "oldLawyerId",
          "type": "uint256"
        },
        {
          "internalType": "uint256",
          "name": "oldSellerId",
          "type": "uint256"
        },
        {
          "internalType": "string",
          "name": "dateStamp",
          "type": "string"
        },
        {
          "internalType": "string",
          "name": "timeStamp",
          "type": "string"
        }
      ],
      "stateMutability": "view",
      "type": "function",
      "constant": true
    },
    {
      "inputs": [
        {
          "internalType": "uint256",
          "name": "",
          "type": "uint256"
        }
      ],
      "name": "sellersMapping",
      "outputs": [
        {
          "internalType": "string",
          "name": "name",
          "type": "string"
        },
        {
          "internalType": "uint256",
          "name": "id",
          "type": "uint256"
        },
        {
          "internalType": "string",
          "name": "nic",
          "type": "string"
        },
        {
          "internalType": "uint256",
          "name": "age",
          "type": "uint256"
        },
        {
          "internalType": "string",
          "name": "city",
          "type": "string"
        },
        {
          "internalType": "string",
          "name": "email",
          "type": "string"
        },
        {
          "internalType": "uint256",
          "name": "telephoneNumber",
          "type": "uint256"
        },
        {
          "internalType": "string",
          "name": "password",
          "type": "string"
        }
      ],
      "stateMutability": "view",
      "type": "function",
      "constant": true
    },
    {
      "inputs": [
        {
          "internalType": "uint256",
          "name": "index",
          "type": "uint256"
        }
      ],
      "name": "getHashFromDeed",
      "outputs": [
        {
          "internalType": "string",
          "name": "",
          "type": "string"
        }
      ],
      "stateMutability": "view",
      "type": "function",
      "constant": true
    },
    {
      "inputs": [
        {
          "internalType": "uint256",
          "name": "deedId",
          "type": "uint256"
        },
        {
          "internalType": "string",
          "name": "x",
          "type": "string"
        }
      ],
      "name": "sendHash",
      "outputs": [],
      "stateMutability": "nonpayable",
      "type": "function"
    },
    {
      "inputs": [],
      "name": "getDeedCount",
      "outputs": [
        {
          "internalType": "uint256",
          "name": "",
          "type": "uint256"
        }
      ],
      "stateMutability": "view",
      "type": "function",
      "constant": true
    },
    {
      "inputs": [],
      "name": "getLawyerCount",
      "outputs": [
        {
          "internalType": "uint256",
          "name": "",
          "type": "uint256"
        }
      ],
      "stateMutability": "view",
      "type": "function",
      "constant": true
    },
    {
      "inputs": [],
      "name": "getSellersCount",
      "outputs": [
        {
          "internalType": "uint256",
          "name": "",
          "type": "uint256"
        }
      ],
      "stateMutability": "view",
      "type": "function",
      "constant": true
    },
    {
      "inputs": [],
      "name": "getAdminCount",
      "outputs": [
        {
          "internalType": "uint256",
          "name": "",
          "type": "uint256"
        }
      ],
      "stateMutability": "view",
      "type": "function",
      "constant": true
    },
    {
      "inputs": [
        {
          "internalType": "uint256",
          "name": "index",
          "type": "uint256"
        }
      ],
      "name": "getDeedId",
      "outputs": [
        {
          "internalType": "uint256",
          "name": "",
          "type": "uint256"
        }
      ],
      "stateMutability": "view",
      "type": "function",
      "constant": true
    },
    {
      "inputs": [
        {
          "internalType": "uint256",
          "name": "index",
          "type": "uint256"
        }
      ],
      "name": "getDeedNo",
      "outputs": [
        {
          "internalType": "string",
          "name": "",
          "type": "string"
        }
      ],
      "stateMutability": "view",
      "type": "function",
      "constant": true
    },
    {
      "inputs": [
        {
          "internalType": "uint256",
          "name": "index",
          "type": "uint256"
        }
      ],
      "name": "getDeedStreetName",
      "outputs": [
        {
          "internalType": "string",
          "name": "",
          "type": "string"
        }
      ],
      "stateMutability": "view",
      "type": "function",
      "constant": true
    },
    {
      "inputs": [
        {
          "internalType": "uint256",
          "name": "index",
          "type": "uint256"
        }
      ],
      "name": "getDeedCity",
      "outputs": [
        {
          "internalType": "string",
          "name": "",
          "type": "string"
        }
      ],
      "stateMutability": "view",
      "type": "function",
      "constant": true
    },
    {
      "inputs": [
        {
          "internalType": "uint256",
          "name": "index",
          "type": "uint256"
        }
      ],
      "name": "getDeedDistrict",
      "outputs": [
        {
          "internalType": "string",
          "name": "",
          "type": "string"
        }
      ],
      "stateMutability": "view",
      "type": "function",
      "constant": true
    },
    {
      "inputs": [
        {
          "internalType": "uint256",
          "name": "index",
          "type": "uint256"
        }
      ],
      "name": "getDeedProvince",
      "outputs": [
        {
          "internalType": "string",
          "name": "",
          "type": "string"
        }
      ],
      "stateMutability": "view",
      "type": "function",
      "constant": true
    },
    {
      "inputs": [
        {
          "internalType": "uint256",
          "name": "index",
          "type": "uint256"
        }
      ],
      "name": "getLawyerIdOfDeed",
      "outputs": [
        {
          "internalType": "uint256",
          "name": "",
          "type": "uint256"
        }
      ],
      "stateMutability": "view",
      "type": "function",
      "constant": true
    },
    {
      "inputs": [
        {
          "internalType": "uint256",
          "name": "index",
          "type": "uint256"
        }
      ],
      "name": "getSellerIdOfDeed",
      "outputs": [
        {
          "internalType": "uint256",
          "name": "",
          "type": "uint256"
        }
      ],
      "stateMutability": "view",
      "type": "function",
      "constant": true
    },
    {
      "inputs": [
        {
          "internalType": "string",
          "name": "_no",
          "type": "string"
        },
        {
          "internalType": "string",
          "name": "_streetName",
          "type": "string"
        },
        {
          "internalType": "string",
          "name": "_city",
          "type": "string"
        },
        {
          "internalType": "string",
          "name": "_district",
          "type": "string"
        },
        {
          "internalType": "string",
          "name": "_province",
          "type": "string"
        }
      ],
      "name": "findDeedByAddress",
      "outputs": [
        {
          "internalType": "int256",
          "name": "",
          "type": "int256"
        }
      ],
      "stateMutability": "view",
      "type": "function",
      "constant": true
    },
    {
      "inputs": [
        {
          "internalType": "string",
          "name": "_email",
          "type": "string"
        }
      ],
      "name": "findLawyerByEmail",
      "outputs": [
        {
          "internalType": "int256",
          "name": "",
          "type": "int256"
        }
      ],
      "stateMutability": "view",
      "type": "function",
      "constant": true
    },
    {
      "inputs": [
        {
          "internalType": "string",
          "name": "_email",
          "type": "string"
        }
      ],
      "name": "findSellerByEmail",
      "outputs": [
        {
          "internalType": "int256",
          "name": "",
          "type": "int256"
        }
      ],
      "stateMutability": "view",
      "type": "function",
      "constant": true
    },
    {
      "inputs": [
        {
          "internalType": "uint256",
          "name": "_deedId",
          "type": "uint256"
        },
        {
          "internalType": "uint256",
          "name": "_assignedLawyerId",
          "type": "uint256"
        },
        {
          "internalType": "uint256",
          "name": "_assignedSellerId",
          "type": "uint256"
        },
        {
          "internalType": "string",
          "name": "_dateStamp",
          "type": "string"
        },
        {
          "internalType": "string",
          "name": "_timeStamp",
          "type": "string"
        }
      ],
      "name": "changeDeedLawyerAndSeller",
      "outputs": [],
      "stateMutability": "nonpayable",
      "type": "function"
    },
    {
      "inputs": [
        {
          "internalType": "string",
          "name": "_no",
          "type": "string"
        },
        {
          "internalType": "string",
          "name": "_streetName",
          "type": "string"
        },
        {
          "internalType": "string",
          "name": "_city",
          "type": "string"
        },
        {
          "internalType": "string",
          "name": "_district",
          "type": "string"
        },
        {
          "internalType": "string",
          "name": "_province",
          "type": "string"
        },
        {
          "internalType": "uint256",
          "name": "_assignedLawyerId",
          "type": "uint256"
        },
        {
          "internalType": "uint256",
          "name": "_assignedSellerId",
          "type": "uint256"
        }
      ],
      "name": "addNewDeed",
      "outputs": [],
      "stateMutability": "nonpayable",
      "type": "function"
    },
    {
      "inputs": [
        {
          "internalType": "string",
          "name": "_name",
          "type": "string"
        },
        {
          "internalType": "string",
          "name": "_nic",
          "type": "string"
        },
        {
          "internalType": "uint256",
          "name": "_age",
          "type": "uint256"
        },
        {
          "internalType": "string",
          "name": "_city",
          "type": "string"
        },
        {
          "internalType": "string",
          "name": "_email",
          "type": "string"
        },
        {
          "internalType": "uint256",
          "name": "_telephoneNumber",
          "type": "uint256"
        },
        {
          "internalType": "string",
          "name": "_password",
          "type": "string"
        }
      ],
      "name": "registerSeller",
      "outputs": [],
      "stateMutability": "nonpayable",
      "type": "function"
    },
    {
      "inputs": [
        {
          "internalType": "string",
          "name": "_lawyerName",
          "type": "string"
        },
        {
          "internalType": "string",
          "name": "_lawyernic",
          "type": "string"
        },
        {
          "internalType": "string",
          "name": "_lawyerRegNo",
          "type": "string"
        },
        {
          "internalType": "string",
          "name": "_lawyerEmail",
          "type": "string"
        },
        {
          "internalType": "uint256",
          "name": "_lawyerTelephoneNumber",
          "type": "uint256"
        },
        {
          "internalType": "string",
          "name": "_lawyerPassword",
          "type": "string"
        }
      ],
      "name": "registerLawyer",
      "outputs": [],
      "stateMutability": "nonpayable",
      "type": "function"
    },
    {
      "inputs": [
        {
          "internalType": "uint256",
          "name": "index",
          "type": "uint256"
        }
      ],
      "name": "getLawyerId",
      "outputs": [
        {
          "internalType": "uint256",
          "name": "",
          "type": "uint256"
        }
      ],
      "stateMutability": "view",
      "type": "function",
      "constant": true
    },
    {
      "inputs": [
        {
          "internalType": "uint256",
          "name": "index",
          "type": "uint256"
        }
      ],
      "name": "getLawyerName",
      "outputs": [
        {
          "internalType": "string",
          "name": "",
          "type": "string"
        }
      ],
      "stateMutability": "view",
      "type": "function",
      "constant": true
    },
    {
      "inputs": [
        {
          "internalType": "uint256",
          "name": "index",
          "type": "uint256"
        }
      ],
      "name": "getLawyerNic",
      "outputs": [
        {
          "internalType": "string",
          "name": "",
          "type": "string"
        }
      ],
      "stateMutability": "view",
      "type": "function",
      "constant": true
    },
    {
      "inputs": [
        {
          "internalType": "uint256",
          "name": "index",
          "type": "uint256"
        }
      ],
      "name": "getLawyerRegNo",
      "outputs": [
        {
          "internalType": "string",
          "name": "",
          "type": "string"
        }
      ],
      "stateMutability": "view",
      "type": "function",
      "constant": true
    },
    {
      "inputs": [
        {
          "internalType": "uint256",
          "name": "index",
          "type": "uint256"
        }
      ],
      "name": "getLawyerEmail",
      "outputs": [
        {
          "internalType": "string",
          "name": "",
          "type": "string"
        }
      ],
      "stateMutability": "view",
      "type": "function",
      "constant": true
    },
    {
      "inputs": [
        {
          "internalType": "uint256",
          "name": "index",
          "type": "uint256"
        }
      ],
      "name": "getLawyerTelephoneNumber",
      "outputs": [
        {
          "internalType": "uint256",
          "name": "",
          "type": "uint256"
        }
      ],
      "stateMutability": "view",
      "type": "function",
      "constant": true
    },
    {
      "inputs": [
        {
          "internalType": "uint256",
          "name": "index",
          "type": "uint256"
        }
      ],
      "name": "getLawyerPassword",
      "outputs": [
        {
          "internalType": "string",
          "name": "",
          "type": "string"
        }
      ],
      "stateMutability": "view",
      "type": "function",
      "constant": true
    },
    {
      "inputs": [
        {
          "internalType": "uint256",
          "name": "index",
          "type": "uint256"
        }
      ],
      "name": "getSellerId",
      "outputs": [
        {
          "internalType": "uint256",
          "name": "",
          "type": "uint256"
        }
      ],
      "stateMutability": "view",
      "type": "function",
      "constant": true
    },
    {
      "inputs": [
        {
          "internalType": "uint256",
          "name": "index",
          "type": "uint256"
        }
      ],
      "name": "getSellerName",
      "outputs": [
        {
          "internalType": "string",
          "name": "",
          "type": "string"
        }
      ],
      "stateMutability": "view",
      "type": "function",
      "constant": true
    },
    {
      "inputs": [
        {
          "internalType": "uint256",
          "name": "index",
          "type": "uint256"
        }
      ],
      "name": "getSellerNic",
      "outputs": [
        {
          "internalType": "string",
          "name": "",
          "type": "string"
        }
      ],
      "stateMutability": "view",
      "type": "function",
      "constant": true
    },
    {
      "inputs": [
        {
          "internalType": "uint256",
          "name": "index",
          "type": "uint256"
        }
      ],
      "name": "getSellerAge",
      "outputs": [
        {
          "internalType": "uint256",
          "name": "",
          "type": "uint256"
        }
      ],
      "stateMutability": "view",
      "type": "function",
      "constant": true
    },
    {
      "inputs": [
        {
          "internalType": "uint256",
          "name": "index",
          "type": "uint256"
        }
      ],
      "name": "getSellerCity",
      "outputs": [
        {
          "internalType": "string",
          "name": "",
          "type": "string"
        }
      ],
      "stateMutability": "view",
      "type": "function",
      "constant": true
    },
    {
      "inputs": [
        {
          "internalType": "uint256",
          "name": "index",
          "type": "uint256"
        }
      ],
      "name": "getSellerEmail",
      "outputs": [
        {
          "internalType": "string",
          "name": "",
          "type": "string"
        }
      ],
      "stateMutability": "view",
      "type": "function",
      "constant": true
    },
    {
      "inputs": [
        {
          "internalType": "uint256",
          "name": "index",
          "type": "uint256"
        }
      ],
      "name": "getSellerTelephoneNo",
      "outputs": [
        {
          "internalType": "uint256",
          "name": "",
          "type": "uint256"
        }
      ],
      "stateMutability": "view",
      "type": "function",
      "constant": true
    },
    {
      "inputs": [
        {
          "internalType": "uint256",
          "name": "index",
          "type": "uint256"
        }
      ],
      "name": "getSellerPassword",
      "outputs": [
        {
          "internalType": "string",
          "name": "",
          "type": "string"
        }
      ],
      "stateMutability": "view",
      "type": "function",
      "constant": true
    },
    {
      "inputs": [],
      "name": "getAdminId",
      "outputs": [
        {
          "internalType": "uint256",
          "name": "",
          "type": "uint256"
        }
      ],
      "stateMutability": "view",
      "type": "function",
      "constant": true
    },
    {
      "inputs": [],
      "name": "getAdminPassword",
      "outputs": [
        {
          "internalType": "string",
          "name": "",
          "type": "string"
        }
      ],
      "stateMutability": "view",
      "type": "function",
      "constant": true
    },
    {
      "inputs": [
        {
          "internalType": "uint256",
          "name": "frontendCounter",
          "type": "uint256"
        }
      ],
      "name": "getDeedIdFromHistory",
      "outputs": [
        {
          "internalType": "uint256",
          "name": "",
          "type": "uint256"
        }
      ],
      "stateMutability": "view",
      "type": "function",
      "constant": true
    },
    {
      "inputs": [
        {
          "internalType": "uint256",
          "name": "frontendCounter",
          "type": "uint256"
        }
      ],
      "name": "getOldLawyerIdFromHistory",
      "outputs": [
        {
          "internalType": "uint256",
          "name": "",
          "type": "uint256"
        }
      ],
      "stateMutability": "view",
      "type": "function",
      "constant": true
    },
    {
      "inputs": [
        {
          "internalType": "uint256",
          "name": "frontendCounter",
          "type": "uint256"
        }
      ],
      "name": "getOldSellerIdFromHistory",
      "outputs": [
        {
          "internalType": "uint256",
          "name": "",
          "type": "uint256"
        }
      ],
      "stateMutability": "view",
      "type": "function",
      "constant": true
    },
    {
      "inputs": [
        {
          "internalType": "uint256",
          "name": "frontendCounter",
          "type": "uint256"
        }
      ],
      "name": "getDateStampFromHistory",
      "outputs": [
        {
          "internalType": "string",
          "name": "",
          "type": "string"
        }
      ],
      "stateMutability": "view",
      "type": "function",
      "constant": true
    },
    {
      "inputs": [
        {
          "internalType": "uint256",
          "name": "frontendCounter",
          "type": "uint256"
        }
      ],
      "name": "getTimeStampFromHistory",
      "outputs": [
        {
          "internalType": "string",
          "name": "",
          "type": "string"
        }
      ],
      "stateMutability": "view",
      "type": "function",
      "constant": true
    },
    {
      "inputs": [],
      "name": "getHistoryCount",
      "outputs": [
        {
          "internalType": "uint256",
          "name": "",
          "type": "uint256"
        }
      ],
      "stateMutability": "view",
      "type": "function",
      "constant": true
    }
  ],
  "bytecode": "0x6080604052600060055560006006556000600755600060085560006009553480156200002a57600080fd5b50604051806040016040528060095481526020016040518060400160405280600381526020017f3132330000000000000000000000000000000000000000000000000000000000815250815250600460006009548152602001908152602001600020600082015181600001556020820151816001019080519060200190620000b4929190620000d8565b5090505060096000815480929190620000cd90620001c1565b919050555062000274565b828054620000e6906200023e565b90600052602060002090601f0160209004810192826200010a576000855562000156565b82601f106200012557805160ff191683800117855562000156565b8280016001018555821562000156579182015b828111156200015557825182559160200191906001019062000138565b5b50905062000165919062000169565b5090565b5b80821115620001845760008160009055506001016200016a565b5090565b7f4e487b7100000000000000000000000000000000000000000000000000000000600052601160045260246000fd5b6000819050919050565b6000620001ce82620001b7565b91507fffffffffffffffffffffffffffffffffffffffffffffffffffffffffffffffff82141562000204576200020362000188565b5b600182019050919050565b7f4e487b7100000000000000000000000000000000000000000000000000000000600052602260045260246000fd5b600060028204905060018216806200025757607f821691505b602082108114156200026e576200026d6200020f565b5b50919050565b613d2d80620002846000396000f3fe608060405234801561001057600080fd5b50600436106102bb5760003560e01c80637e45aa2511610182578063b998b87c116100e9578063dd9d122d116100a2578063f0b93af91161007c578063f0b93af914610a7c578063f8a3860514610aac578063fa941c6914610adc578063ffb434fb14610af8576102bb565b8063dd9d122d146109fe578063df0a1c2a14610a1c578063e084ada114610a4c576102bb565b8063b998b87c146108e8578063bbdad59314610918578063bc3de01f1461094c578063bd7949751461097c578063cff0c7c014610998578063d96b0a55146109ce576102bb565b8063a18861a31161013b578063a18861a3146107ec578063a4cbf3e31461080a578063a99859381461083a578063aca5577314610858578063b432183214610888578063b98eec9d146108b8576102bb565b80637e45aa25146107045780637ea1449f1461073457806389bed521146107525780638b7bf3eb1461076e5780639614681b1461078c5780639cd681f5146107bc576102bb565b806335a82e7211610226578063655dc4c2116101df578063655dc4c2146106035780636c218b171461062157806370ffbdd214610651578063721fa4181461068157806374cfe4751461069d5780637c6eb103146106cd576102bb565b806335a82e72146104f75780634244992f1461052757806344613830146105575780634dc971ae1461058757806350277b7d146105a35780635dd56798146105d3576102bb565b80631a084961116102785780631a084961146103e857806321eb5a7c1461041857806328bcb4181461044957806330c9fb481461047957806332a67853146104a9578063334bb745146104d9576102bb565b806301ed90fb146102c057806305624d35146102f05780630cc543b6146103205780630df7ec2414610350578063188a93791461038057806318edf564146103b0575b600080fd5b6102da60048036038101906102d59190613101565b610b28565b6040516102e791906131c7565b60405180910390f35b61030a60048036038101906103059190613101565b610bd0565b60405161031791906131c7565b60405180910390f35b61033a60048036038101906103359190613101565b610c77565b60405161034791906131f8565b60405180910390f35b61036a60048036038101906103659190613101565b610c97565b60405161037791906131f8565b60405180910390f35b61039a60048036038101906103959190613101565b610cb6565b6040516103a791906131c7565b60405180910390f35b6103ca60048036038101906103c59190613101565b610d5d565b6040516103df99989796959493929190613213565b60405180910390f35b61040260048036038101906103fd9190613101565b6110db565b60405161040f91906131f8565b60405180910390f35b610432600480360381019061042d9190613101565b6110fb565b6040516104409291906132ca565b60405180910390f35b610463600480360381019061045e9190613101565b6111a7565b60405161047091906131f8565b60405180910390f35b610493600480360381019061048e9190613101565b6111c7565b6040516104a091906131c7565b60405180910390f35b6104c360048036038101906104be9190613101565b61126f565b6040516104d091906131c7565b60405180910390f35b6104e1611316565b6040516104ee91906131f8565b60405180910390f35b610511600480360381019061050c9190613101565b611320565b60405161051e91906131f8565b60405180910390f35b610541600480360381019061053c9190613101565b61133f565b60405161054e91906131c7565b60405180910390f35b610571600480360381019061056c919061342f565b6113e7565b60405161057e9190613491565b60405180910390f35b6105a1600480360381019061059c91906134ac565b611506565b005b6105bd60048036038101906105b89190613101565b611626565b6040516105ca91906131c7565b60405180910390f35b6105ed60048036038101906105e89190613101565b6116ce565b6040516105fa91906131f8565b60405180910390f35b61060b6116ed565b60405161061891906131f8565b60405180910390f35b61063b60048036038101906106369190613101565b6116f7565b60405161064891906131f8565b60405180910390f35b61066b60048036038101906106669190613101565b611717565b60405161067891906131c7565b60405180910390f35b61069b6004803603810190610696919061355f565b6117bf565b005b6106b760048036038101906106b29190613101565b61193b565b6040516106c491906131f8565b60405180910390f35b6106e760048036038101906106e29190613101565b61195b565b6040516106fb98979695949392919061368d565b60405180910390f35b61071e60048036038101906107199190613101565b611c4b565b60405161072b91906131c7565b60405180910390f35b61073c611cf3565b60405161074991906131f8565b60405180910390f35b61076c6004803603810190610767919061372e565b611d11565b005b610776611e35565b60405161078391906131f8565b60405180910390f35b6107a660048036038101906107a1919061385c565b611e3f565b6040516107b39190613491565b60405180910390f35b6107d660048036038101906107d19190613101565b61221c565b6040516107e391906131c7565b60405180910390f35b6107f46122c3565b60405161080191906131f8565b60405180910390f35b610824600480360381019061081f9190613101565b6122cd565b60405161083191906131f8565b60405180910390f35b6108426122ed565b60405161084f91906131c7565b60405180910390f35b610872600480360381019061086d9190613101565b612393565b60405161087f91906131c7565b60405180910390f35b6108a2600480360381019061089d9190613101565b61243b565b6040516108af91906131c7565b60405180910390f35b6108d260048036038101906108cd9190613101565b6124e3565b6040516108df91906131c7565b60405180910390f35b61090260048036038101906108fd919061342f565b61258b565b60405161090f9190613491565b60405180910390f35b610932600480360381019061092d9190613101565b6126aa565b604051610943959493929190613963565b60405180910390f35b61096660048036038101906109619190613101565b6127f0565b60405161097391906131f8565b60405180910390f35b610996600480360381019061099191906139c4565b612810565b005b6109b260048036038101906109ad9190613101565b61283e565b6040516109c59796959493929190613a20565b60405180910390f35b6109e860048036038101906109e39190613101565b612b28565b6040516109f591906131c7565b60405180910390f35b610a06612bd0565b604051610a1391906131f8565b60405180910390f35b610a366004803603810190610a319190613101565b612bda565b604051610a4391906131c7565b60405180910390f35b610a666004803603810190610a619190613101565b612c82565b604051610a7391906131c7565b60405180910390f35b610a966004803603810190610a919190613101565b612d2a565b604051610aa391906131c7565b60405180910390f35b610ac66004803603810190610ac19190613101565b612dd1565b604051610ad391906131f8565b60405180910390f35b610af66004803603810190610af19190613ab2565b612df1565b005b610b126004803603810190610b0d9190613101565b612f03565b604051610b1f91906131c7565b60405180910390f35b6060600160008381526020019081526020016000206003018054610b4b90613bfa565b80601f0160208091040260200160405190810160405280929190818152602001828054610b7790613bfa565b8015610bc45780601f10610b9957610100808354040283529160200191610bc4565b820191906000526020600020905b815481529060010190602001808311610ba757829003601f168201915b50505050509050919050565b60606000808381526020019081526020016000206005018054610bf290613bfa565b80601f0160208091040260200160405190810160405280929190818152602001828054610c1e90613bfa565b8015610c6b5780601f10610c4057610100808354040283529160200191610c6b565b820191906000526020600020905b815481529060010190602001808311610c4e57829003601f168201915b50505050509050919050565b600060026000838152602001908152602001600020600601549050919050565b6000806000838152602001908152602001600020600001549050919050565b60606000808381526020019081526020016000206001018054610cd890613bfa565b80601f0160208091040260200160405190810160405280929190818152602001828054610d0490613bfa565b8015610d515780601f10610d2657610100808354040283529160200191610d51565b820191906000526020600020905b815481529060010190602001808311610d3457829003601f168201915b50505050509050919050565b6000602052806000526040600020600091509050806000015490806001018054610d8690613bfa565b80601f0160208091040260200160405190810160405280929190818152602001828054610db290613bfa565b8015610dff5780601f10610dd457610100808354040283529160200191610dff565b820191906000526020600020905b815481529060010190602001808311610de257829003601f168201915b505050505090806002018054610e1490613bfa565b80601f0160208091040260200160405190810160405280929190818152602001828054610e4090613bfa565b8015610e8d5780601f10610e6257610100808354040283529160200191610e8d565b820191906000526020600020905b815481529060010190602001808311610e7057829003601f168201915b505050505090806003018054610ea290613bfa565b80601f0160208091040260200160405190810160405280929190818152602001828054610ece90613bfa565b8015610f1b5780601f10610ef057610100808354040283529160200191610f1b565b820191906000526020600020905b815481529060010190602001808311610efe57829003601f168201915b505050505090806004018054610f3090613bfa565b80601f0160208091040260200160405190810160405280929190818152602001828054610f5c90613bfa565b8015610fa95780601f10610f7e57610100808354040283529160200191610fa9565b820191906000526020600020905b815481529060010190602001808311610f8c57829003601f168201915b505050505090806005018054610fbe90613bfa565b80601f0160208091040260200160405190810160405280929190818152602001828054610fea90613bfa565b80156110375780601f1061100c57610100808354040283529160200191611037565b820191906000526020600020905b81548152906001019060200180831161101a57829003601f168201915b50505050509080600601805461104c90613bfa565b80601f016020809104026020016040519081016040528092919081815260200182805461107890613bfa565b80156110c55780601f1061109a576101008083540402835291602001916110c5565b820191906000526020600020905b8154815290600101906020018083116110a857829003601f168201915b5050505050908060070154908060080154905089565b600060016000838152602001908152602001600020600001549050919050565b600460205280600052604060002060009150905080600001549080600101805461112490613bfa565b80601f016020809104026020016040519081016040528092919081815260200182805461115090613bfa565b801561119d5780601f106111725761010080835404028352916020019161119d565b820191906000526020600020905b81548152906001019060200180831161118057829003601f168201915b5050505050905082565b600060016000838152602001908152602001600020600201549050919050565b60606003600083815260200190815260200160002060040180546111ea90613bfa565b80601f016020809104026020016040519081016040528092919081815260200182805461121690613bfa565b80156112635780601f1061123857610100808354040283529160200191611263565b820191906000526020600020905b81548152906001019060200180831161124657829003601f168201915b50505050509050919050565b6060600080838152602001908152602001600020600201805461129190613bfa565b80601f01602080910402602001604051908101604052809291908181526020018280546112bd90613bfa565b801561130a5780601f106112df5761010080835404028352916020019161130a565b820191906000526020600020905b8154815290600101906020018083116112ed57829003601f168201915b50505050509050919050565b6000600554905090565b6000806000838152602001908152602001600020600701549050919050565b606060016000838152602001908152602001600020600401805461136290613bfa565b80601f016020809104026020016040519081016040528092919081815260200182805461138e90613bfa565b80156113db5780601f106113b0576101008083540402835291602001916113db565b820191906000526020600020905b8154815290600101906020018083116113be57829003601f168201915b50505050509050919050565b6000806000905060007fffffffffffffffffffffffffffffffffffffffffffffffffffffffffffffffff90505b6007548210156114fc576114c68460026000858152602001908152602001600020600501805461144390613bfa565b80601f016020809104026020016040519081016040528092919081815260200182805461146f90613bfa565b80156114bc5780601f10611491576101008083540402835291602001916114bc565b820191906000526020600020905b81548152906001019060200180831161149f57829003601f168201915b5050505050612faa565b156114e957600260008381526020019081526020016000206001015490506114fc565b81806114f490613c5b565b925050611414565b8092505050919050565b600080600087815260200190815260200160002060070154905060008060008881526020019081526020016000206008015490506040518060a001604052808881526020018381526020018281526020018581526020018481525060016000600654815260200190815260200160002060008201518160000155602082015181600101556040820151816002015560608201518160030190805190602001906115b0929190613014565b5060808201518160040190805190602001906115cd929190613014565b50905050600660008154809291906115e490613c5b565b91905055508560008089815260200190815260200160002060070181905550846000808981526020019081526020016000206008018190555050505050505050565b606060036000838152602001908152602001600020600601805461164990613bfa565b80601f016020809104026020016040519081016040528092919081815260200182805461167590613bfa565b80156116c25780601f10611697576101008083540402835291602001916116c2565b820191906000526020600020905b8154815290600101906020018083116116a557829003601f168201915b50505050509050919050565b6000806000838152602001908152602001600020600801549050919050565b6000600854905090565b600060036000838152602001908152602001600020600001549050919050565b606060026000838152602001908152602001600020600201805461173a90613bfa565b80601f016020809104026020016040519081016040528092919081815260200182805461176690613bfa565b80156117b35780601f10611788576101008083540402835291602001916117b3565b820191906000526020600020905b81548152906001019060200180831161179657829003601f168201915b50505050509050919050565b60405180610120016040528060055481526020016040518060400160405280600781526020017f3c49504653233e000000000000000000000000000000000000000000000000008152508152602001888152602001878152602001868152602001858152602001848152602001838152602001828152506000806005548152602001908152602001600020600082015181600001556020820151816001019080519060200190611870929190613014565b50604082015181600201908051906020019061188d929190613014565b5060608201518160030190805190602001906118aa929190613014565b5060808201518160040190805190602001906118c7929190613014565b5060a08201518160050190805190602001906118e4929190613014565b5060c0820151816006019080519060200190611901929190613014565b5060e0820151816007015561010082015181600801559050506005600081548092919061192d90613c5b565b919050555050505050505050565b600060026000838152602001908152602001600020600101549050919050565b600260205280600052604060002060009150905080600001805461197e90613bfa565b80601f01602080910402602001604051908101604052809291908181526020018280546119aa90613bfa565b80156119f75780601f106119cc576101008083540402835291602001916119f7565b820191906000526020600020905b8154815290600101906020018083116119da57829003601f168201915b505050505090806001015490806002018054611a1290613bfa565b80601f0160208091040260200160405190810160405280929190818152602001828054611a3e90613bfa565b8015611a8b5780601f10611a6057610100808354040283529160200191611a8b565b820191906000526020600020905b815481529060010190602001808311611a6e57829003601f168201915b505050505090806003015490806004018054611aa690613bfa565b80601f0160208091040260200160405190810160405280929190818152602001828054611ad290613bfa565b8015611b1f5780601f10611af457610100808354040283529160200191611b1f565b820191906000526020600020905b815481529060010190602001808311611b0257829003601f168201915b505050505090806005018054611b3490613bfa565b80601f0160208091040260200160405190810160405280929190818152602001828054611b6090613bfa565b8015611bad5780601f10611b8257610100808354040283529160200191611bad565b820191906000526020600020905b815481529060010190602001808311611b9057829003601f168201915b505050505090806006015490806007018054611bc890613bfa565b80601f0160208091040260200160405190810160405280929190818152602001828054611bf490613bfa565b8015611c415780601f10611c1657610100808354040283529160200191611c41565b820191906000526020600020905b815481529060010190602001808311611c2457829003601f168201915b5050505050905088565b6060600360008381526020019081526020016000206001018054611c6e90613bfa565b80601f0160208091040260200160405190810160405280929190818152602001828054611c9a90613bfa565b8015611ce75780601f10611cbc57610100808354040283529160200191611ce7565b820191906000526020600020905b815481529060010190602001808311611cca57829003601f168201915b50505050509050919050565b60006004600080815260200190815260200160002060000154905090565b6040518061010001604052808881526020016007548152602001878152602001868152602001858152602001848152602001838152602001828152506002600060075481526020019081526020016000206000820151816000019080519060200190611d7e929190613014565b50602082015181600101556040820151816002019080519060200190611da5929190613014565b50606082015181600301556080820151816004019080519060200190611dcc929190613014565b5060a0820151816005019080519060200190611de9929190613014565b5060c0820151816006015560e0820151816007019080519060200190611e10929190613014565b5090505060076000815480929190611e2790613c5b565b919050555050505050505050565b6000600954905090565b6000806000905060007fffffffffffffffffffffffffffffffffffffffffffffffffffffffffffffffff90505b60055482101561220e57611f1d886000808581526020019081526020016000206002018054611e9a90613bfa565b80601f0160208091040260200160405190810160405280929190818152602001828054611ec690613bfa565b8015611f135780601f10611ee857610100808354040283529160200191611f13565b820191906000526020600020905b815481529060010190602001808311611ef657829003601f168201915b5050505050612faa565b8015611fcc5750611fcb876000808581526020019081526020016000206003018054611f4890613bfa565b80601f0160208091040260200160405190810160405280929190818152602001828054611f7490613bfa565b8015611fc15780601f10611f9657610100808354040283529160200191611fc1565b820191906000526020600020905b815481529060010190602001808311611fa457829003601f168201915b5050505050612faa565b5b801561207b575061207a866000808581526020019081526020016000206004018054611ff790613bfa565b80601f016020809104026020016040519081016040528092919081815260200182805461202390613bfa565b80156120705780601f1061204557610100808354040283529160200191612070565b820191906000526020600020905b81548152906001019060200180831161205357829003601f168201915b5050505050612faa565b5b801561212a57506121298560008085815260200190815260200160002060050180546120a690613bfa565b80601f01602080910402602001604051908101604052809291908181526020018280546120d290613bfa565b801561211f5780601f106120f45761010080835404028352916020019161211f565b820191906000526020600020905b81548152906001019060200180831161210257829003601f168201915b5050505050612faa565b5b80156121d957506121d884600080858152602001908152602001600020600601805461215590613bfa565b80601f016020809104026020016040519081016040528092919081815260200182805461218190613bfa565b80156121ce5780601f106121a3576101008083540402835291602001916121ce565b820191906000526020600020905b8154815290600101906020018083116121b157829003601f168201915b5050505050612faa565b5b156121fb5760008083815260200190815260200160002060000154905061220e565b818061220690613c5b565b925050611e6c565b809250505095945050505050565b6060600080838152602001908152602001600020600601805461223e90613bfa565b80601f016020809104026020016040519081016040528092919081815260200182805461226a90613bfa565b80156122b75780601f1061228c576101008083540402835291602001916122b7565b820191906000526020600020905b81548152906001019060200180831161229a57829003601f168201915b50505050509050919050565b6000600654905090565b600060016000838152602001908152602001600020600101549050919050565b606060046000808152602001908152602001600020600101805461231090613bfa565b80601f016020809104026020016040519081016040528092919081815260200182805461233c90613bfa565b80156123895780601f1061235e57610100808354040283529160200191612389565b820191906000526020600020905b81548152906001019060200180831161236c57829003601f168201915b5050505050905090565b60606003600083815260200190815260200160002060030180546123b690613bfa565b80601f01602080910402602001604051908101604052809291908181526020018280546123e290613bfa565b801561242f5780601f106124045761010080835404028352916020019161242f565b820191906000526020600020905b81548152906001019060200180831161241257829003601f168201915b50505050509050919050565b606060026000838152602001908152602001600020600001805461245e90613bfa565b80601f016020809104026020016040519081016040528092919081815260200182805461248a90613bfa565b80156124d75780601f106124ac576101008083540402835291602001916124d7565b820191906000526020600020905b8154815290600101906020018083116124ba57829003601f168201915b50505050509050919050565b606060026000838152602001908152602001600020600701805461250690613bfa565b80601f016020809104026020016040519081016040528092919081815260200182805461253290613bfa565b801561257f5780601f106125545761010080835404028352916020019161257f565b820191906000526020600020905b81548152906001019060200180831161256257829003601f168201915b50505050509050919050565b6000806000905060007fffffffffffffffffffffffffffffffffffffffffffffffffffffffffffffffff90505b6008548210156126a05761266a846003600085815260200190815260200160002060040180546125e790613bfa565b80601f016020809104026020016040519081016040528092919081815260200182805461261390613bfa565b80156126605780601f1061263557610100808354040283529160200191612660565b820191906000526020600020905b81548152906001019060200180831161264357829003601f168201915b5050505050612faa565b1561268d57600360008381526020019081526020016000206000015490506126a0565b818061269890613c5b565b9250506125b8565b8092505050919050565b60016020528060005260406000206000915090508060000154908060010154908060020154908060030180546126df90613bfa565b80601f016020809104026020016040519081016040528092919081815260200182805461270b90613bfa565b80156127585780601f1061272d57610100808354040283529160200191612758565b820191906000526020600020905b81548152906001019060200180831161273b57829003601f168201915b50505050509080600401805461276d90613bfa565b80601f016020809104026020016040519081016040528092919081815260200182805461279990613bfa565b80156127e65780601f106127bb576101008083540402835291602001916127e6565b820191906000526020600020905b8154815290600101906020018083116127c957829003601f168201915b5050505050905085565b600060036000838152602001908152602001600020600501549050919050565b806000808481526020019081526020016000206001019080519060200190612839929190613014565b505050565b600360205280600052604060002060009150905080600001549080600101805461286790613bfa565b80601f016020809104026020016040519081016040528092919081815260200182805461289390613bfa565b80156128e05780601f106128b5576101008083540402835291602001916128e0565b820191906000526020600020905b8154815290600101906020018083116128c357829003601f168201915b5050505050908060020180546128f590613bfa565b80601f016020809104026020016040519081016040528092919081815260200182805461292190613bfa565b801561296e5780601f106129435761010080835404028352916020019161296e565b820191906000526020600020905b81548152906001019060200180831161295157829003601f168201915b50505050509080600301805461298390613bfa565b80601f01602080910402602001604051908101604052809291908181526020018280546129af90613bfa565b80156129fc5780601f106129d1576101008083540402835291602001916129fc565b820191906000526020600020905b8154815290600101906020018083116129df57829003601f168201915b505050505090806004018054612a1190613bfa565b80601f0160208091040260200160405190810160405280929190818152602001828054612a3d90613bfa565b8015612a8a5780601f10612a5f57610100808354040283529160200191612a8a565b820191906000526020600020905b815481529060010190602001808311612a6d57829003601f168201915b505050505090806005015490806006018054612aa590613bfa565b80601f0160208091040260200160405190810160405280929190818152602001828054612ad190613bfa565b8015612b1e5780601f10612af357610100808354040283529160200191612b1e565b820191906000526020600020905b815481529060010190602001808311612b0157829003601f168201915b5050505050905087565b6060600260008381526020019081526020016000206004018054612b4b90613bfa565b80601f0160208091040260200160405190810160405280929190818152602001828054612b7790613bfa565b8015612bc45780601f10612b9957610100808354040283529160200191612bc4565b820191906000526020600020905b815481529060010190602001808311612ba757829003601f168201915b50505050509050919050565b6000600754905090565b6060600360008381526020019081526020016000206002018054612bfd90613bfa565b80601f0160208091040260200160405190810160405280929190818152602001828054612c2990613bfa565b8015612c765780601f10612c4b57610100808354040283529160200191612c76565b820191906000526020600020905b815481529060010190602001808311612c5957829003601f168201915b50505050509050919050565b6060600260008381526020019081526020016000206005018054612ca590613bfa565b80601f0160208091040260200160405190810160405280929190818152602001828054612cd190613bfa565b8015612d1e5780601f10612cf357610100808354040283529160200191612d1e565b820191906000526020600020905b815481529060010190602001808311612d0157829003601f168201915b50505050509050919050565b60606000808381526020019081526020016000206004018054612d4c90613bfa565b80601f0160208091040260200160405190810160405280929190818152602001828054612d7890613bfa565b8015612dc55780601f10612d9a57610100808354040283529160200191612dc5565b820191906000526020600020905b815481529060010190602001808311612da857829003601f168201915b50505050509050919050565b600060026000838152602001908152602001600020600301549050919050565b6040518060e00160405280600854815260200187815260200186815260200185815260200184815260200183815260200182815250600360006008548152602001908152602001600020600082015181600001556020820151816001019080519060200190612e61929190613014565b506040820151816002019080519060200190612e7e929190613014565b506060820151816003019080519060200190612e9b929190613014565b506080820151816004019080519060200190612eb8929190613014565b5060a0820151816005015560c0820151816006019080519060200190612edf929190613014565b5090505060086000815480929190612ef690613c5b565b9190505550505050505050565b60606000808381526020019081526020016000206003018054612f2590613bfa565b80601f0160208091040260200160405190810160405280929190818152602001828054612f5190613bfa565b8015612f9e5780601f10612f7357610100808354040283529160200191612f9e565b820191906000526020600020905b815481529060010190602001808311612f8157829003601f168201915b50505050509050919050565b600081604051602001612fbd9190613ce0565b6040516020818303038152906040528051906020012083604051602001612fe49190613ce0565b604051602081830303815290604052805190602001201415613009576001905061300e565b600090505b92915050565b82805461302090613bfa565b90600052602060002090601f0160209004810192826130425760008555613089565b82601f1061305b57805160ff1916838001178555613089565b82800160010185558215613089579182015b8281111561308857825182559160200191906001019061306d565b5b509050613096919061309a565b5090565b5b808211156130b357600081600090555060010161309b565b5090565b6000604051905090565b600080fd5b600080fd5b6000819050919050565b6130de816130cb565b81146130e957600080fd5b50565b6000813590506130fb816130d5565b92915050565b600060208284031215613117576131166130c1565b5b6000613125848285016130ec565b91505092915050565b600081519050919050565b600082825260208201905092915050565b60005b8381101561316857808201518184015260208101905061314d565b83811115613177576000848401525b50505050565b6000601f19601f8301169050919050565b60006131998261312e565b6131a38185613139565b93506131b381856020860161314a565b6131bc8161317d565b840191505092915050565b600060208201905081810360008301526131e1818461318e565b905092915050565b6131f2816130cb565b82525050565b600060208201905061320d60008301846131e9565b92915050565b600061012082019050613229600083018c6131e9565b818103602083015261323b818b61318e565b9050818103604083015261324f818a61318e565b90508181036060830152613263818961318e565b90508181036080830152613277818861318e565b905081810360a083015261328b818761318e565b905081810360c083015261329f818661318e565b90506132ae60e08301856131e9565b6132bc6101008301846131e9565b9a9950505050505050505050565b60006040820190506132df60008301856131e9565b81810360208301526132f1818461318e565b90509392505050565b600080fd5b600080fd5b7f4e487b7100000000000000000000000000000000000000000000000000000000600052604160045260246000fd5b61333c8261317d565b810181811067ffffffffffffffff8211171561335b5761335a613304565b5b80604052505050565b600061336e6130b7565b905061337a8282613333565b919050565b600067ffffffffffffffff82111561339a57613399613304565b5b6133a38261317d565b9050602081019050919050565b82818337600083830152505050565b60006133d26133cd8461337f565b613364565b9050828152602081018484840111156133ee576133ed6132ff565b5b6133f98482856133b0565b509392505050565b600082601f830112613416576134156132fa565b5b81356134268482602086016133bf565b91505092915050565b600060208284031215613445576134446130c1565b5b600082013567ffffffffffffffff811115613463576134626130c6565b5b61346f84828501613401565b91505092915050565b6000819050919050565b61348b81613478565b82525050565b60006020820190506134a66000830184613482565b92915050565b600080600080600060a086880312156134c8576134c76130c1565b5b60006134d6888289016130ec565b95505060206134e7888289016130ec565b94505060406134f8888289016130ec565b935050606086013567ffffffffffffffff811115613519576135186130c6565b5b61352588828901613401565b925050608086013567ffffffffffffffff811115613546576135456130c6565b5b61355288828901613401565b9150509295509295909350565b600080600080600080600060e0888a03121561357e5761357d6130c1565b5b600088013567ffffffffffffffff81111561359c5761359b6130c6565b5b6135a88a828b01613401565b975050602088013567ffffffffffffffff8111156135c9576135c86130c6565b5b6135d58a828b01613401565b965050604088013567ffffffffffffffff8111156135f6576135f56130c6565b5b6136028a828b01613401565b955050606088013567ffffffffffffffff811115613623576136226130c6565b5b61362f8a828b01613401565b945050608088013567ffffffffffffffff8111156136505761364f6130c6565b5b61365c8a828b01613401565b93505060a061366d8a828b016130ec565b92505060c061367e8a828b016130ec565b91505092959891949750929550565b60006101008201905081810360008301526136a8818b61318e565b90506136b7602083018a6131e9565b81810360408301526136c9818961318e565b90506136d860608301886131e9565b81810360808301526136ea818761318e565b905081810360a08301526136fe818661318e565b905061370d60c08301856131e9565b81810360e083015261371f818461318e565b90509998505050505050505050565b600080600080600080600060e0888a03121561374d5761374c6130c1565b5b600088013567ffffffffffffffff81111561376b5761376a6130c6565b5b6137778a828b01613401565b975050602088013567ffffffffffffffff811115613798576137976130c6565b5b6137a48a828b01613401565b96505060406137b58a828b016130ec565b955050606088013567ffffffffffffffff8111156137d6576137d56130c6565b5b6137e28a828b01613401565b945050608088013567ffffffffffffffff811115613803576138026130c6565b5b61380f8a828b01613401565b93505060a06138208a828b016130ec565b92505060c088013567ffffffffffffffff811115613841576138406130c6565b5b61384d8a828b01613401565b91505092959891949750929550565b600080600080600060a08688031215613878576138776130c1565b5b600086013567ffffffffffffffff811115613896576138956130c6565b5b6138a288828901613401565b955050602086013567ffffffffffffffff8111156138c3576138c26130c6565b5b6138cf88828901613401565b945050604086013567ffffffffffffffff8111156138f0576138ef6130c6565b5b6138fc88828901613401565b935050606086013567ffffffffffffffff81111561391d5761391c6130c6565b5b61392988828901613401565b925050608086013567ffffffffffffffff81111561394a576139496130c6565b5b61395688828901613401565b9150509295509295909350565b600060a08201905061397860008301886131e9565b61398560208301876131e9565b61399260408301866131e9565b81810360608301526139a4818561318e565b905081810360808301526139b8818461318e565b90509695505050505050565b600080604083850312156139db576139da6130c1565b5b60006139e9858286016130ec565b925050602083013567ffffffffffffffff811115613a0a57613a096130c6565b5b613a1685828601613401565b9150509250929050565b600060e082019050613a35600083018a6131e9565b8181036020830152613a47818961318e565b90508181036040830152613a5b818861318e565b90508181036060830152613a6f818761318e565b90508181036080830152613a83818661318e565b9050613a9260a08301856131e9565b81810360c0830152613aa4818461318e565b905098975050505050505050565b60008060008060008060c08789031215613acf57613ace6130c1565b5b600087013567ffffffffffffffff811115613aed57613aec6130c6565b5b613af989828a01613401565b965050602087013567ffffffffffffffff811115613b1a57613b196130c6565b5b613b2689828a01613401565b955050604087013567ffffffffffffffff811115613b4757613b466130c6565b5b613b5389828a01613401565b945050606087013567ffffffffffffffff811115613b7457613b736130c6565b5b613b8089828a01613401565b9350506080613b9189828a016130ec565b92505060a087013567ffffffffffffffff811115613bb257613bb16130c6565b5b613bbe89828a01613401565b9150509295509295509295565b7f4e487b7100000000000000000000000000000000000000000000000000000000600052602260045260246000fd5b60006002820490506001821680613c1257607f821691505b60208210811415613c2657613c25613bcb565b5b50919050565b7f4e487b7100000000000000000000000000000000000000000000000000000000600052601160045260246000fd5b6000613c66826130cb565b91507fffffffffffffffffffffffffffffffffffffffffffffffffffffffffffffffff821415613c9957613c98613c2c565b5b600182019050919050565b600081905092915050565b6000613cba8261312e565b613cc48185613ca4565b9350613cd481856020860161314a565b80840191505092915050565b6000613cec8284613caf565b91508190509291505056fea2646970667358221220a88f8a118ac60967419a6d825ea46f659c235bb9c275e9a0b396bd1240e0af8664736f6c634300080a0033",
  "immutableReferences": {},
  "source": "// SPDX-License-Identifier: MIT\r\npragma solidity >=0.4.22 <0.9.0;\r\n\r\ncontract Land {\r\n    \r\n    // structs\r\n    struct LawyerIdSellerId {\r\n\r\n        uint deedIdLink; // to link the relevant deed\r\n        uint oldLawyerId;\r\n        uint oldSellerId;\r\n        string dateStamp;\r\n        string timeStamp;\r\n    }\r\n\r\n    struct Deed {\r\n        // deed instance variables\r\n        uint deedId;\r\n        string ipfsHash;\r\n        string no;\r\n        string streetName;\r\n        string city;\r\n        string district;\r\n        string province;\r\n        uint assignedLawyerId; // to link the relevant lawyer to the deed\r\n        uint assignedSellerId; // to link the relevant seller to the deed\r\n    }\r\n\r\n    struct Lawyer{\r\n        // Lawyer instance variables\r\n        uint lawyerId;\r\n        string lawyerName;\r\n        string lawyernic;\r\n        string lawyerRegNo;\r\n        string lawyerEmail;\r\n        uint lawyerTelephoneNumber;\r\n        string lawyerPassword;\r\n    }\r\n\r\n    struct Seller {\r\n        // Seller instance variables\r\n        string name;\r\n\t\tuint id;\r\n\t\tstring nic;\r\n        uint age;\r\n        string city;\r\n\t\tstring email;\r\n        uint telephoneNumber;\r\n        string password;\r\n    }\r\n\r\n    struct Admin {\r\n        // Admin instance variables\r\n        uint id;\r\n        string adminPassword;\r\n    }\r\n\r\n    // mappings\r\n    mapping(uint => Deed) public deeds;\r\n    mapping(uint => LawyerIdSellerId) public deedsVersionHistory;\r\n    mapping(uint => Seller) public sellersMapping;\r\n    mapping(uint => Lawyer) public Lawyersmapping;\r\n    mapping(uint => Admin) public adminMapping;\r\n    \r\n    // Count tracking variables\r\n    uint private deedCount = 0;\r\n    uint private deedsVersionHistoryCount = 0;\r\n    uint private sellersCount = 0;\r\n    uint private lawyerCount = 0;\r\n    uint private adminCount = 0;\r\n\r\n    constructor() public {\r\n        // initializing the admin\r\n        adminMapping[adminCount] = Admin(adminCount, \"123\");\r\n        adminCount++;\r\n    }    \r\n\r\n    function getHashFromDeed(uint index) public view returns (string memory) {   \r\n        return deeds[index].ipfsHash;\r\n    }\r\n\r\n    function sendHash(uint deedId, string memory x) public {\r\n        deeds[deedId].ipfsHash = x;\r\n    }     \r\n\r\n    // getter for deed count\r\n    function getDeedCount() public view returns (uint) {\r\n        return deedCount;\r\n    }\r\n\r\n    // getter for lawyer count\r\n    function getLawyerCount() public view returns(uint){\r\n        return lawyerCount;\r\n    }\r\n\r\n    // getter for seller count\r\n    function getSellersCount() public view returns(uint){\r\n        return sellersCount;\r\n    }\r\n\r\n    // getter for admin count\r\n    function getAdminCount() public view returns(uint){\r\n        return adminCount;\r\n    }\r\n\r\n    //getters for Deed struct\r\n    function getDeedId(uint index) public view returns (uint) {\r\n        return deeds[index].deedId;\r\n    }\r\n\r\n    function getDeedNo(uint index) public view returns (string memory) {\r\n        return deeds[index].no;\r\n    }\r\n\r\n    function getDeedStreetName(uint index) public view returns (string memory) {\r\n        return deeds[index].streetName;\r\n    }\r\n\r\n    function getDeedCity(uint index) public view returns (string memory) {\r\n        return deeds[index].city;\r\n    }\r\n\r\n    function getDeedDistrict(uint index) public view returns (string memory) {\r\n        return deeds[index].district;\r\n    }\r\n\r\n    function getDeedProvince(uint index) public view returns (string memory) {\r\n        return deeds[index].province;\r\n    }\r\n\r\n    function getLawyerIdOfDeed(uint index) public view returns (uint) {\r\n        return deeds[index].assignedLawyerId;\r\n    }\r\n\r\n    function getSellerIdOfDeed(uint index) public view returns (uint) {\r\n        return deeds[index].assignedSellerId;\r\n    }\r\n\r\n    // function to compare strings\r\n    function compareStrings(string memory s1, string memory s2) private pure returns (bool) {\r\n        if (keccak256(abi.encodePacked(s1)) == keccak256(abi.encodePacked(s2)))\r\n        {\r\n            return true;\r\n        }\r\n        else \r\n        {\r\n            return false;\r\n        }\r\n    }\r\n\r\n    // function to get the deed by the land address for searching purposes\r\n    function findDeedByAddress(string memory _no, string memory _streetName, string memory _city, string memory _district, string memory _province) public view returns (int) {\r\n\r\n        uint i = 0;\r\n        int returningDeedId = -1;\r\n\r\n        while (i < deedCount)\r\n        {\r\n            if (compareStrings(_no, deeds[i].no) && compareStrings(_streetName, deeds[i].streetName) && compareStrings(_city, deeds[i].city) && compareStrings(_district, deeds[i].district) && compareStrings(_province, deeds[i].province))\r\n            {\r\n                returningDeedId = int(deeds[i].deedId);\r\n                break;\r\n            }\r\n\r\n            i++;\r\n        }\r\n\r\n        return returningDeedId;\r\n    }\r\n\r\n    // function to get the lawyer by email\r\n    function findLawyerByEmail(string memory _email) public view returns (int) {\r\n\r\n        uint i = 0;\r\n        int returningLawyerId = -1;\r\n\r\n        while (i < lawyerCount)\r\n        {\r\n            if (compareStrings(_email, Lawyersmapping[i].lawyerEmail))\r\n            {\r\n                returningLawyerId = int(Lawyersmapping[i].lawyerId);\r\n                break;\r\n            }\r\n\r\n            i++;\r\n        }\r\n\r\n        return returningLawyerId;\r\n    }\r\n\r\n    //function to get the seller by email\r\n    function findSellerByEmail(string memory _email) public view returns (int) {\r\n\r\n        uint i = 0;\r\n        int returningSellerId = -1;\r\n\r\n        while (i < sellersCount)\r\n        {\r\n            if (compareStrings(_email, sellersMapping[i].email))\r\n            {\r\n                returningSellerId = int(sellersMapping[i].id);\r\n                break;\r\n            }\r\n\r\n            i++;\r\n        }\r\n\r\n        return returningSellerId;\r\n    }\r\n\r\n    // function to change land deed buyer and seller\r\n    function changeDeedLawyerAndSeller(uint _deedId, uint _assignedLawyerId, uint _assignedSellerId, string memory _dateStamp, string memory _timeStamp) public {\r\n        // saving the previous lawyer and seller in the history\r\n        uint _oldLawyerId = deeds[_deedId].assignedLawyerId;\r\n        uint _oldSellerId = deeds[_deedId].assignedSellerId;\r\n        deedsVersionHistory[deedsVersionHistoryCount] = LawyerIdSellerId(_deedId, _oldLawyerId, _oldSellerId, _dateStamp, _timeStamp);\r\n        deedsVersionHistoryCount++;\r\n\r\n        // assigning the new lawyer and seller\r\n        deeds[_deedId].assignedLawyerId = _assignedLawyerId;\r\n        deeds[_deedId].assignedSellerId = _assignedSellerId;\r\n    }\r\n\r\n    // function to add a new deed to the deeds mapping\r\n    function addNewDeed(string memory _no, string memory _streetName, string memory _city, string memory _district, string memory _province, uint _assignedLawyerId, uint _assignedSellerId) public {\r\n        deeds[deedCount] = Deed(deedCount, \"<IPFS#>\", _no,  _streetName, _city, _district, _province, _assignedLawyerId, _assignedSellerId);\r\n        deedCount++;\r\n    }\r\n\r\n    //function to register a seller\r\n    function registerSeller(string memory _name, string memory _nic, uint _age, string memory _city, string memory _email, uint _telephoneNumber, string memory _password) public {\r\n        sellersMapping[sellersCount] = Seller(_name, sellersCount, _nic, _age, _city, _email, _telephoneNumber, _password);\r\n        sellersCount++;\r\n    }\r\n\r\n    //function to register a new Lawyer\r\n    function registerLawyer(string memory _lawyerName, string memory _lawyernic, string memory _lawyerRegNo, string memory _lawyerEmail, uint _lawyerTelephoneNumber, string memory _lawyerPassword) public {\r\n        Lawyersmapping[lawyerCount] = Lawyer(lawyerCount, _lawyerName, _lawyernic, _lawyerRegNo, _lawyerEmail, _lawyerTelephoneNumber, _lawyerPassword);\r\n        lawyerCount++;\r\n    }\r\n\r\n    // function to get the lawyer id\r\n    function getLawyerId(uint index) public view returns (uint) {\r\n        return Lawyersmapping[index].lawyerId;\r\n    }\r\n\r\n    // function to get the lawyer name\r\n    function getLawyerName(uint index) public view returns (string memory) {\r\n        return Lawyersmapping[index].lawyerName;\r\n    }\r\n\r\n    // function to get the lawyer nic\r\n    function getLawyerNic(uint index) public view returns (string memory) {\r\n        return Lawyersmapping[index].lawyernic;\r\n    }\r\n\r\n    // function to get the lawyer reg no\r\n    function getLawyerRegNo(uint index) public view returns (string memory) {\r\n        return Lawyersmapping[index].lawyerRegNo;\r\n    }\r\n\r\n    // function to get the lawyer email\r\n    function getLawyerEmail(uint index) public view returns (string memory) {\r\n        return Lawyersmapping[index].lawyerEmail;\r\n    }\r\n\r\n    // function to get the lawyer email\r\n    function getLawyerTelephoneNumber(uint index) public view returns (uint) {\r\n        return Lawyersmapping[index].lawyerTelephoneNumber;\r\n    }\r\n    \r\n    // function to get the lawyer password\r\n    function getLawyerPassword(uint index) public view returns (string memory) {\r\n        return Lawyersmapping[index].lawyerPassword;\r\n    }\r\n\r\n    // function to get the seller id\r\n    function getSellerId(uint index) public view returns (uint) {\r\n        return sellersMapping[index].id;\r\n    }\r\n\r\n    // function to get the seller name\r\n    function getSellerName(uint index) public view returns (string memory) {\r\n        return sellersMapping[index].name;\r\n    }\r\n\r\n    // function to get the seller nic\r\n    function getSellerNic(uint index) public view returns (string memory) {\r\n        return sellersMapping[index].nic;\r\n    }\r\n\r\n    // function to get the seller age\r\n    function getSellerAge(uint index) public view returns (uint) {\r\n        return sellersMapping[index].age;\r\n    }\r\n\r\n    // function to get the seller city\r\n    function getSellerCity(uint index) public view returns (string memory) {\r\n        return sellersMapping[index].city;\r\n    }\r\n\r\n    // function to get the seller email\r\n    function getSellerEmail(uint index) public view returns (string memory) {\r\n        return sellersMapping[index].email;\r\n    }\r\n\r\n    // function to get the seller telephonenumber\r\n    function getSellerTelephoneNo(uint index) public view returns (uint) {\r\n        return sellersMapping[index].telephoneNumber;\r\n    }\r\n\r\n    // function to get the seller password\r\n    function getSellerPassword(uint index) public view returns (string memory) {\r\n        return sellersMapping[index].password;\r\n    }\r\n    \r\n    //function to get admin id\r\n    function getAdminId() public view returns (uint) {\r\n        return adminMapping[0].id;\r\n    }\r\n\r\n    //function to get admin password\r\n    function getAdminPassword() public view returns (string memory) {\r\n        return adminMapping[0].adminPassword;\r\n    }\r\n\r\n    // function to get the deedId from the history\r\n    function getDeedIdFromHistory(uint frontendCounter) public view returns (uint) {\r\n        return deedsVersionHistory[frontendCounter].deedIdLink;\r\n    }\r\n\r\n    // function to get the lawyerId from the history\r\n    function getOldLawyerIdFromHistory(uint frontendCounter) public view returns (uint) {\r\n        return deedsVersionHistory[frontendCounter].oldLawyerId;\r\n    }\r\n\r\n    // function to get the sellerId from the history\r\n    function getOldSellerIdFromHistory(uint frontendCounter) public view returns (uint) {\r\n        return deedsVersionHistory[frontendCounter].oldSellerId;\r\n    }\r\n    \r\n    // function to get the dateStamp from the history\r\n    function getDateStampFromHistory(uint frontendCounter) public view returns (string memory) {\r\n        return deedsVersionHistory[frontendCounter].dateStamp;\r\n    }\r\n\r\n    // function to get the timeStamp from the history\r\n    function getTimeStampFromHistory(uint frontendCounter) public view returns (string memory) {\r\n        return deedsVersionHistory[frontendCounter].timeStamp;\r\n    }\r\n\r\n    // function to get the count of the history\r\n    function getHistoryCount() public view returns (uint) {\r\n        return deedsVersionHistoryCount;\r\n    }\r\n}\r\n",
  "sourcePath": "D:\\Apps\\Git Hub\\DBLOCK\\backEnd\\contracts\\Land.sol",
  "compiler": {
    "name": "solc",
    "version": "0.8.10+commit.fc410830.Emscripten.clang"
  },
  "schemaVersion": "3.4.3",
  "updatedAt": "2022-04-07T20:27:05.806Z",
  "networkType": "ethereum",
  "devdoc": {
    "kind": "dev",
    "methods": {},
    "version": 1
  },
  "userdoc": {
    "kind": "user",
    "methods": {},
    "version": 1
  }
}