{
  "contractName": "Land",
  "abi": [
    {
      "inputs": [],
      "stateMutability": "nonpayable",
      "type": "constructor"
    },
    {
      "inputs": [
        {
          "internalType": "uint256",
          "name": "",
          "type": "uint256"
        }
      ],
      "name": "Buyerlist",
      "outputs": [
        {
          "internalType": "address",
          "name": "",
          "type": "address"
        }
      ],
      "stateMutability": "view",
      "type": "function",
      "constant": true
    },
    {
      "inputs": [
        {
          "internalType": "uint256",
          "name": "",
          "type": "uint256"
        }
      ],
      "name": "Buyersmapping",
      "outputs": [
        {
          "internalType": "uint256",
          "name": "id",
          "type": "uint256"
        },
        {
          "internalType": "string",
          "name": "nic",
          "type": "string"
        },
        {
          "internalType": "string",
          "name": "name",
          "type": "string"
        },
        {
          "internalType": "uint256",
          "name": "age",
          "type": "uint256"
        },
        {
          "internalType": "string",
          "name": "city",
          "type": "string"
        },
        {
          "internalType": "string",
          "name": "email",
          "type": "string"
        },
        {
          "internalType": "uint256",
          "name": "telephoneNumber",
          "type": "uint256"
        }
      ],
      "stateMutability": "view",
      "type": "function",
      "constant": true
    },
    {
      "inputs": [
        {
          "internalType": "uint256",
          "name": "",
          "type": "uint256"
        }
      ],
      "name": "Lawyersmapping",
      "outputs": [
        {
          "internalType": "uint256",
          "name": "lawyerId",
          "type": "uint256"
        },
        {
          "internalType": "string",
          "name": "lawyerName",
          "type": "string"
        },
        {
          "internalType": "string",
          "name": "lawyernic",
          "type": "string"
        },
        {
          "internalType": "string",
          "name": "lawyerRegNo",
          "type": "string"
        },
        {
          "internalType": "string",
          "name": "lawyerEmail",
          "type": "string"
        }
      ],
      "stateMutability": "view",
      "type": "function",
      "constant": true
    },
    {
      "inputs": [
        {
          "internalType": "uint256",
          "name": "",
          "type": "uint256"
        }
      ],
      "name": "adminMapping",
      "outputs": [
        {
          "internalType": "uint256",
          "name": "id",
          "type": "uint256"
        },
        {
          "internalType": "string",
          "name": "adminPassword",
          "type": "string"
        }
      ],
      "stateMutability": "view",
      "type": "function",
      "constant": true
    },
    {
      "inputs": [
        {
          "internalType": "uint256",
          "name": "",
          "type": "uint256"
        }
      ],
      "name": "deeds",
      "outputs": [
        {
          "internalType": "uint256",
          "name": "deedId",
          "type": "uint256"
        },
        {
          "internalType": "string",
          "name": "no",
          "type": "string"
        },
        {
          "internalType": "string",
          "name": "streetName",
          "type": "string"
        },
        {
          "internalType": "string",
          "name": "city",
          "type": "string"
        },
        {
          "internalType": "string",
          "name": "district",
          "type": "string"
        },
        {
          "internalType": "string",
          "name": "province",
          "type": "string"
        },
        {
          "internalType": "uint256",
          "name": "assignedLawyerId",
          "type": "uint256"
        },
        {
          "internalType": "uint256",
          "name": "assignedSellerId",
          "type": "uint256"
        }
      ],
      "stateMutability": "view",
      "type": "function",
      "constant": true
    },
    {
      "inputs": [
        {
          "internalType": "uint256",
          "name": "",
          "type": "uint256"
        }
      ],
      "name": "lawyerList",
      "outputs": [
        {
          "internalType": "address",
          "name": "",
          "type": "address"
        }
      ],
      "stateMutability": "view",
      "type": "function",
      "constant": true
    },
    {
      "inputs": [
        {
          "internalType": "uint256",
          "name": "",
          "type": "uint256"
        }
      ],
      "name": "sellerList",
      "outputs": [
        {
          "internalType": "address",
          "name": "",
          "type": "address"
        }
      ],
      "stateMutability": "view",
      "type": "function",
      "constant": true
    },
    {
      "inputs": [
        {
          "internalType": "uint256",
          "name": "",
          "type": "uint256"
        }
      ],
      "name": "sellersMapping",
      "outputs": [
        {
          "internalType": "string",
          "name": "name",
          "type": "string"
        },
        {
          "internalType": "uint256",
          "name": "id",
          "type": "uint256"
        },
        {
          "internalType": "string",
          "name": "nic",
          "type": "string"
        },
        {
          "internalType": "uint256",
          "name": "age",
          "type": "uint256"
        },
        {
          "internalType": "string",
          "name": "city",
          "type": "string"
        },
        {
          "internalType": "string",
          "name": "email",
          "type": "string"
        },
        {
          "internalType": "uint256",
          "name": "telephoneNumber",
          "type": "uint256"
        }
      ],
      "stateMutability": "view",
      "type": "function",
      "constant": true
    },
    {
      "inputs": [],
      "name": "getDeedCount",
      "outputs": [
        {
          "internalType": "uint256",
          "name": "",
          "type": "uint256"
        }
      ],
      "stateMutability": "view",
      "type": "function",
      "constant": true
    },
    {
      "inputs": [],
      "name": "getBuyersCount",
      "outputs": [
        {
          "internalType": "uint256",
          "name": "",
          "type": "uint256"
        }
      ],
      "stateMutability": "view",
      "type": "function",
      "constant": true
    },
    {
      "inputs": [],
      "name": "getLawyerCount",
      "outputs": [
        {
          "internalType": "uint256",
          "name": "",
          "type": "uint256"
        }
      ],
      "stateMutability": "view",
      "type": "function",
      "constant": true
    },
    {
      "inputs": [],
      "name": "getSellersCount",
      "outputs": [
        {
          "internalType": "uint256",
          "name": "",
          "type": "uint256"
        }
      ],
      "stateMutability": "view",
      "type": "function",
      "constant": true
    },
    {
      "inputs": [],
      "name": "getAdminCount",
      "outputs": [
        {
          "internalType": "uint256",
          "name": "",
          "type": "uint256"
        }
      ],
      "stateMutability": "view",
      "type": "function",
      "constant": true
    },
    {
      "inputs": [
        {
          "internalType": "uint256",
          "name": "index",
          "type": "uint256"
        }
      ],
      "name": "getDeedId",
      "outputs": [
        {
          "internalType": "uint256",
          "name": "",
          "type": "uint256"
        }
      ],
      "stateMutability": "view",
      "type": "function",
      "constant": true
    },
    {
      "inputs": [
        {
          "internalType": "uint256",
          "name": "index",
          "type": "uint256"
        }
      ],
      "name": "getDeedNo",
      "outputs": [
        {
          "internalType": "string",
          "name": "",
          "type": "string"
        }
      ],
      "stateMutability": "view",
      "type": "function",
      "constant": true
    },
    {
      "inputs": [
        {
          "internalType": "uint256",
          "name": "index",
          "type": "uint256"
        }
      ],
      "name": "getDeedStreetName",
      "outputs": [
        {
          "internalType": "string",
          "name": "",
          "type": "string"
        }
      ],
      "stateMutability": "view",
      "type": "function",
      "constant": true
    },
    {
      "inputs": [
        {
          "internalType": "uint256",
          "name": "index",
          "type": "uint256"
        }
      ],
      "name": "getDeedCity",
      "outputs": [
        {
          "internalType": "string",
          "name": "",
          "type": "string"
        }
      ],
      "stateMutability": "view",
      "type": "function",
      "constant": true
    },
    {
      "inputs": [
        {
          "internalType": "uint256",
          "name": "index",
          "type": "uint256"
        }
      ],
      "name": "getDeedDistrict",
      "outputs": [
        {
          "internalType": "string",
          "name": "",
          "type": "string"
        }
      ],
      "stateMutability": "view",
      "type": "function",
      "constant": true
    },
    {
      "inputs": [
        {
          "internalType": "uint256",
          "name": "index",
          "type": "uint256"
        }
      ],
      "name": "getDeedProvince",
      "outputs": [
        {
          "internalType": "string",
          "name": "",
          "type": "string"
        }
      ],
      "stateMutability": "view",
      "type": "function",
      "constant": true
    },
    {
      "inputs": [
        {
          "internalType": "uint256",
          "name": "index",
          "type": "uint256"
        }
      ],
      "name": "getLawyerIdOfDeed",
      "outputs": [
        {
          "internalType": "uint256",
          "name": "",
          "type": "uint256"
        }
      ],
      "stateMutability": "view",
      "type": "function",
      "constant": true
    },
    {
      "inputs": [
        {
          "internalType": "uint256",
          "name": "index",
          "type": "uint256"
        }
      ],
      "name": "getSellerIdOfDeed",
      "outputs": [
        {
          "internalType": "uint256",
          "name": "",
          "type": "uint256"
        }
      ],
      "stateMutability": "view",
      "type": "function",
      "constant": true
    },
    {
      "inputs": [
        {
          "internalType": "string",
          "name": "_no",
          "type": "string"
        },
        {
          "internalType": "string",
          "name": "_streetName",
          "type": "string"
        },
        {
          "internalType": "string",
          "name": "_city",
          "type": "string"
        },
        {
          "internalType": "string",
          "name": "_district",
          "type": "string"
        },
        {
          "internalType": "string",
          "name": "_province",
          "type": "string"
        }
      ],
      "name": "findDeedByAddress",
      "outputs": [
        {
          "internalType": "uint256",
          "name": "",
          "type": "uint256"
        }
      ],
      "stateMutability": "view",
      "type": "function",
      "constant": true
    },
    {
      "inputs": [
        {
          "internalType": "string",
          "name": "_email",
          "type": "string"
        }
      ],
      "name": "findLawyerByEmail",
      "outputs": [
        {
          "internalType": "uint256",
          "name": "",
          "type": "uint256"
        }
      ],
      "stateMutability": "view",
      "type": "function",
      "constant": true
    },
    {
      "inputs": [
        {
          "internalType": "string",
          "name": "_email",
          "type": "string"
        }
      ],
      "name": "findSellerByEmail",
      "outputs": [
        {
          "internalType": "uint256",
          "name": "",
          "type": "uint256"
        }
      ],
      "stateMutability": "view",
      "type": "function",
      "constant": true
    },
    {
      "inputs": [
        {
          "internalType": "uint256",
          "name": "_deedId",
          "type": "uint256"
        },
        {
          "internalType": "uint256",
          "name": "_assignedLawyerId",
          "type": "uint256"
        },
        {
          "internalType": "uint256",
          "name": "_assignedSellerId",
          "type": "uint256"
        }
      ],
      "name": "changeDeedBuyerAndSeller",
      "outputs": [],
      "stateMutability": "nonpayable",
      "type": "function"
    },
    {
      "inputs": [],
      "name": "getBuyer",
      "outputs": [
        {
          "internalType": "address[]",
          "name": "",
          "type": "address[]"
        }
      ],
      "stateMutability": "view",
      "type": "function",
      "constant": true
    },
    {
      "inputs": [],
      "name": "getSeller",
      "outputs": [
        {
          "internalType": "address[]",
          "name": "",
          "type": "address[]"
        }
      ],
      "stateMutability": "view",
      "type": "function",
      "constant": true
    },
    {
      "inputs": [],
      "name": "getLawyer",
      "outputs": [
        {
          "internalType": "address[]",
          "name": "",
          "type": "address[]"
        }
      ],
      "stateMutability": "view",
      "type": "function",
      "constant": true
    },
    {
      "inputs": [
        {
          "internalType": "string",
          "name": "_no",
          "type": "string"
        },
        {
          "internalType": "string",
          "name": "_streetName",
          "type": "string"
        },
        {
          "internalType": "string",
          "name": "_city",
          "type": "string"
        },
        {
          "internalType": "string",
          "name": "_district",
          "type": "string"
        },
        {
          "internalType": "string",
          "name": "_province",
          "type": "string"
        },
        {
          "internalType": "uint256",
          "name": "_assignedLawyerId",
          "type": "uint256"
        },
        {
          "internalType": "uint256",
          "name": "_assignedSellerId",
          "type": "uint256"
        }
      ],
      "name": "addNewDeed",
      "outputs": [],
      "stateMutability": "nonpayable",
      "type": "function"
    },
    {
      "inputs": [
        {
          "internalType": "string",
          "name": "_nic",
          "type": "string"
        },
        {
          "internalType": "string",
          "name": "_name",
          "type": "string"
        },
        {
          "internalType": "uint256",
          "name": "_age",
          "type": "uint256"
        },
        {
          "internalType": "string",
          "name": "_city",
          "type": "string"
        },
        {
          "internalType": "string",
          "name": "_email",
          "type": "string"
        },
        {
          "internalType": "uint256",
          "name": "_telephoneNumber",
          "type": "uint256"
        }
      ],
      "name": "registerBuyer",
      "outputs": [],
      "stateMutability": "nonpayable",
      "type": "function"
    },
    {
      "inputs": [
        {
          "internalType": "string",
          "name": "_name",
          "type": "string"
        },
        {
          "internalType": "string",
          "name": "_nic",
          "type": "string"
        },
        {
          "internalType": "uint256",
          "name": "_age",
          "type": "uint256"
        },
        {
          "internalType": "string",
          "name": "_city",
          "type": "string"
        },
        {
          "internalType": "string",
          "name": "_email",
          "type": "string"
        },
        {
          "internalType": "uint256",
          "name": "_telephoneNumber",
          "type": "uint256"
        }
      ],
      "name": "registerSeller",
      "outputs": [],
      "stateMutability": "nonpayable",
      "type": "function"
    },
    {
      "inputs": [
        {
          "internalType": "string",
          "name": "_lawyerName",
          "type": "string"
        },
        {
          "internalType": "string",
          "name": "_lawyernic",
          "type": "string"
        },
        {
          "internalType": "string",
          "name": "_lawyerRegNo",
          "type": "string"
        },
        {
          "internalType": "string",
          "name": "_lawyerEmail",
          "type": "string"
        }
      ],
      "name": "registerLawyer",
      "outputs": [],
      "stateMutability": "nonpayable",
      "type": "function"
    },
    {
      "inputs": [
        {
          "internalType": "uint256",
          "name": "index",
          "type": "uint256"
        }
      ],
      "name": "displayBuyer",
      "outputs": [
        {
          "internalType": "uint256",
          "name": "_id",
          "type": "uint256"
        },
        {
          "internalType": "string",
          "name": "_nic",
          "type": "string"
        },
        {
          "internalType": "string",
          "name": "_name",
          "type": "string"
        },
        {
          "internalType": "uint256",
          "name": "_age",
          "type": "uint256"
        },
        {
          "internalType": "string",
          "name": "_city",
          "type": "string"
        },
        {
          "internalType": "string",
          "name": "_email",
          "type": "string"
        },
        {
          "internalType": "uint256",
          "name": "_telephoneNumber",
          "type": "uint256"
        }
      ],
      "stateMutability": "view",
      "type": "function",
      "constant": true
    },
    {
      "inputs": [
        {
          "internalType": "uint256",
          "name": "index",
          "type": "uint256"
        }
      ],
      "name": "displaySeller",
      "outputs": [
        {
          "internalType": "string",
          "name": "_name",
          "type": "string"
        },
        {
          "internalType": "uint256",
          "name": "_id",
          "type": "uint256"
        },
        {
          "internalType": "string",
          "name": "_nic",
          "type": "string"
        },
        {
          "internalType": "uint256",
          "name": "_age",
          "type": "uint256"
        },
        {
          "internalType": "string",
          "name": "_city",
          "type": "string"
        },
        {
          "internalType": "string",
          "name": "_email",
          "type": "string"
        },
        {
          "internalType": "uint256",
          "name": "_telephoneNumber",
          "type": "uint256"
        }
      ],
      "stateMutability": "view",
      "type": "function",
      "constant": true
    },
    {
      "inputs": [
        {
          "internalType": "uint256",
          "name": "index",
          "type": "uint256"
        }
      ],
      "name": "displayLawyer",
      "outputs": [
        {
          "internalType": "uint256",
          "name": "_lawyerId",
          "type": "uint256"
        },
        {
          "internalType": "string",
          "name": "_lawyerName",
          "type": "string"
        },
        {
          "internalType": "string",
          "name": "_lawyernic",
          "type": "string"
        },
        {
          "internalType": "string",
          "name": "_lawyerRegNo",
          "type": "string"
        },
        {
          "internalType": "string",
          "name": "_lawyerEmail",
          "type": "string"
        }
      ],
      "stateMutability": "view",
      "type": "function",
      "constant": true
    },
    {
      "inputs": [
        {
          "internalType": "uint256",
          "name": "index",
          "type": "uint256"
        }
      ],
      "name": "getLawyerId",
      "outputs": [
        {
          "internalType": "uint256",
          "name": "",
          "type": "uint256"
        }
      ],
      "stateMutability": "view",
      "type": "function",
      "constant": true
    },
    {
      "inputs": [
        {
          "internalType": "uint256",
          "name": "index",
          "type": "uint256"
        }
      ],
      "name": "getLawyerName",
      "outputs": [
        {
          "internalType": "string",
          "name": "",
          "type": "string"
        }
      ],
      "stateMutability": "view",
      "type": "function",
      "constant": true
    },
    {
      "inputs": [
        {
          "internalType": "uint256",
          "name": "index",
          "type": "uint256"
        }
      ],
      "name": "getLawyerNic",
      "outputs": [
        {
          "internalType": "string",
          "name": "",
          "type": "string"
        }
      ],
      "stateMutability": "view",
      "type": "function",
      "constant": true
    },
    {
      "inputs": [
        {
          "internalType": "uint256",
          "name": "index",
          "type": "uint256"
        }
      ],
      "name": "getLawyerRegNo",
      "outputs": [
        {
          "internalType": "string",
          "name": "",
          "type": "string"
        }
      ],
      "stateMutability": "view",
      "type": "function",
      "constant": true
    },
    {
      "inputs": [
        {
          "internalType": "uint256",
          "name": "index",
          "type": "uint256"
        }
      ],
      "name": "getLawyerEmail",
      "outputs": [
        {
          "internalType": "string",
          "name": "",
          "type": "string"
        }
      ],
      "stateMutability": "view",
      "type": "function",
      "constant": true
    },
    {
      "inputs": [
        {
          "internalType": "uint256",
          "name": "index",
          "type": "uint256"
        }
      ],
      "name": "getSellerId",
      "outputs": [
        {
          "internalType": "uint256",
          "name": "",
          "type": "uint256"
        }
      ],
      "stateMutability": "view",
      "type": "function",
      "constant": true
    },
    {
      "inputs": [
        {
          "internalType": "uint256",
          "name": "index",
          "type": "uint256"
        }
      ],
      "name": "getSellerName",
      "outputs": [
        {
          "internalType": "string",
          "name": "",
          "type": "string"
        }
      ],
      "stateMutability": "view",
      "type": "function",
      "constant": true
    },
    {
      "inputs": [
        {
          "internalType": "uint256",
          "name": "index",
          "type": "uint256"
        }
      ],
      "name": "getSellerNic",
      "outputs": [
        {
          "internalType": "string",
          "name": "",
          "type": "string"
        }
      ],
      "stateMutability": "view",
      "type": "function",
      "constant": true
    },
    {
      "inputs": [
        {
          "internalType": "uint256",
          "name": "index",
          "type": "uint256"
        }
      ],
      "name": "getSellerAge",
      "outputs": [
        {
          "internalType": "uint256",
          "name": "",
          "type": "uint256"
        }
      ],
      "stateMutability": "view",
      "type": "function",
      "constant": true
    },
    {
      "inputs": [
        {
          "internalType": "uint256",
          "name": "index",
          "type": "uint256"
        }
      ],
      "name": "getSellerCity",
      "outputs": [
        {
          "internalType": "string",
          "name": "",
          "type": "string"
        }
      ],
      "stateMutability": "view",
      "type": "function",
      "constant": true
    },
    {
      "inputs": [
        {
          "internalType": "uint256",
          "name": "index",
          "type": "uint256"
        }
      ],
      "name": "getSellerEmail",
      "outputs": [
        {
          "internalType": "string",
          "name": "",
          "type": "string"
        }
      ],
      "stateMutability": "view",
      "type": "function",
      "constant": true
    },
    {
      "inputs": [
        {
          "internalType": "uint256",
          "name": "index",
          "type": "uint256"
        }
      ],
      "name": "getSellerTelephoneNo",
      "outputs": [
        {
          "internalType": "uint256",
          "name": "",
          "type": "uint256"
        }
      ],
      "stateMutability": "view",
      "type": "function",
      "constant": true
    },
    {
      "inputs": [],
      "name": "getAdminId",
      "outputs": [
        {
          "internalType": "uint256",
          "name": "",
          "type": "uint256"
        }
      ],
      "stateMutability": "view",
      "type": "function",
      "constant": true
    },
    {
      "inputs": [],
      "name": "getAdminPassword",
      "outputs": [
        {
          "internalType": "string",
          "name": "",
          "type": "string"
        }
      ],
      "stateMutability": "view",
      "type": "function",
      "constant": true
    }
  ],
  "bytecode": "0x6080604052600060085560006009556000600a556000600b556000600c553480156200002a57600080fd5b506040518060400160405280600c5481526020016040518060400160405280600381526020017f313233000000000000000000000000000000000000000000000000000000000081525081525060046000600c548152602001908152602001600020600082015181600001556020820151816001019080519060200190620000b4929190620000d8565b50905050600c6000815480929190620000cd90620001c1565b919050555062000274565b828054620000e6906200023e565b90600052602060002090601f0160209004810192826200010a576000855562000156565b82601f106200012557805160ff191683800117855562000156565b8280016001018555821562000156579182015b828111156200015557825182559160200191906001019062000138565b5b50905062000165919062000169565b5090565b5b80821115620001845760008160009055506001016200016a565b5090565b7f4e487b7100000000000000000000000000000000000000000000000000000000600052601160045260246000fd5b6000819050919050565b6000620001ce82620001b7565b91507fffffffffffffffffffffffffffffffffffffffffffffffffffffffffffffffff82141562000204576200020362000188565b5b600182019050919050565b7f4e487b7100000000000000000000000000000000000000000000000000000000600052602260045260246000fd5b600060028204905060018216806200025757607f821691505b602082108114156200026e576200026d6200020f565b5b50919050565b61423280620002846000396000f3fe608060405234801561001057600080fd5b50600436106102bb5760003560e01c80637ea1449f11610182578063d96b0a55116100e9578063ef380235116100a2578063f42a1b311161007c578063f42a1b3114610a54578063f8a3860514610a84578063fa1d7e0014610ab4578063ffb434fb14610ad0576102bb565b8063ef380235146109ea578063f0b93af914610a06578063f0d3a9df14610a36576102bb565b8063d96b0a55146108e8578063dbd0e1b614610918578063dd9d122d14610936578063df0a1c2a14610954578063e084ada114610984578063e5137459146109b4576102bb565b80639cd681f51161013b5780639cd681f5146107d6578063a998593814610806578063aca5577314610824578063b432183214610854578063b998b87c14610884578063cff0c7c0146108b4576102bb565b80637ea1449f146106e657806380014029146107045780638b7bf3eb14610722578063916a1c701461074057806393addc08146107705780639614681b146107a6576102bb565b806344613830116102265780636c218b17116101df5780636c218b17146105d457806370ffbdd214610604578063721fa4181461063457806374cfe475146106505780637c6eb103146106805780637e45aa25146106b6576102bb565b806344613830146104e857806355bb2bcc146105185780635a18e2b21461054c5780635dd5679814610568578063603daf9a14610598578063655dc4c2146105b6576102bb565b806321eb5a7c1161027857806321eb5a7c146103d3578063275ea7cf1461040457806330c9fb481461043a57806332a678531461046a578063334bb7451461049a57806335a82e72146104b8576102bb565b806305624d35146102c05780630cc543b6146102f05780630df74d36146103205780630df7ec241461033c578063119d41f41461036c57806318edf5641461039c575b600080fd5b6102da60048036038101906102d59190613652565b610b00565b6040516102e79190613718565b60405180910390f35b61030a60048036038101906103059190613652565b610ba7565b6040516103179190613749565b60405180910390f35b61033a60048036038101906103359190613899565b610bc7565b005b61035660048036038101906103519190613652565b610cc6565b6040516103639190613749565b60405180910390f35b61038660048036038101906103819190613652565b610ce5565b60405161039391906139d7565b60405180910390f35b6103b660048036038101906103b19190613652565b610d24565b6040516103ca9897969594939291906139f2565b60405180910390f35b6103ed60048036038101906103e89190613652565b611014565b6040516103fb929190613a93565b60405180910390f35b61041e60048036038101906104199190613652565b6110c0565b6040516104319796959493929190613ac3565b60405180910390f35b610454600480360381019061044f9190613652565b6113b2565b6040516104619190613718565b60405180910390f35b610484600480360381019061047f9190613652565b61145a565b6040516104919190613718565b60405180910390f35b6104a2611501565b6040516104af9190613749565b60405180910390f35b6104d260048036038101906104cd9190613652565b61150b565b6040516104df9190613749565b60405180910390f35b61050260048036038101906104fd9190613b4e565b61152a565b60405161050f9190613749565b60405180910390f35b610532600480360381019061052d9190613652565b611626565b604051610543959493929190613b97565b60405180910390f35b61056660048036038101906105619190613c06565b6118e0565b005b610582600480360381019061057d9190613652565b6119bd565b60405161058f9190613749565b60405180910390f35b6105a06119dc565b6040516105ad9190613d9b565b60405180910390f35b6105be611a6a565b6040516105cb9190613749565b60405180910390f35b6105ee60048036038101906105e99190613652565b611a74565b6040516105fb9190613749565b60405180910390f35b61061e60048036038101906106199190613652565b611a94565b60405161062b9190613718565b60405180910390f35b61064e60048036038101906106499190613dbd565b611b3c565b005b61066a60048036038101906106659190613652565b611c5f565b6040516106779190613749565b60405180910390f35b61069a60048036038101906106959190613652565b611c7f565b6040516106ad9796959493929190613eeb565b60405180910390f35b6106d060048036038101906106cb9190613652565b611ee1565b6040516106dd9190613718565b60405180910390f35b6106ee611f89565b6040516106fb9190613749565b60405180910390f35b61070c611fa7565b6040516107199190613d9b565b60405180910390f35b61072a612035565b6040516107379190613749565b60405180910390f35b61075a60048036038101906107559190613652565b61203f565b60405161076791906139d7565b60405180910390f35b61078a60048036038101906107859190613652565b61207e565b60405161079d9796959493929190613ac3565b60405180910390f35b6107c060048036038101906107bb9190613f76565b6122e0565b6040516107cd9190613749565b60405180910390f35b6107f060048036038101906107eb9190613652565b61269a565b6040516107fd9190613718565b60405180910390f35b61080e612741565b60405161081b9190613718565b60405180910390f35b61083e60048036038101906108399190613652565b6127e7565b60405161084b9190613718565b60405180910390f35b61086e60048036038101906108699190613652565b61288f565b60405161087b9190613718565b60405180910390f35b61089e60048036038101906108999190613b4e565b612937565b6040516108ab9190613749565b60405180910390f35b6108ce60048036038101906108c99190613652565b612a33565b6040516108df959493929190613b97565b60405180910390f35b61090260048036038101906108fd9190613652565b612c89565b60405161090f9190613718565b60405180910390f35b610920612d31565b60405161092d9190613d9b565b60405180910390f35b61093e612dbf565b60405161094b9190613749565b60405180910390f35b61096e60048036038101906109699190613652565b612dc9565b60405161097b9190613718565b60405180910390f35b61099e60048036038101906109999190613652565b612e71565b6040516109ab9190613718565b60405180910390f35b6109ce60048036038101906109c99190613652565b612f19565b6040516109e19796959493929190613eeb565b60405180910390f35b610a0460048036038101906109ff919061407d565b61320c565b005b610a206004803603810190610a1b9190613652565b613245565b604051610a2d9190613718565b60405180910390f35b610a3e6132ec565b604051610a4b9190613749565b60405180910390f35b610a6e6004803603810190610a699190613652565b6132f6565b604051610a7b91906139d7565b60405180910390f35b610a9e6004803603810190610a999190613652565b613335565b604051610aab9190613749565b60405180910390f35b610ace6004803603810190610ac99190613899565b613355565b005b610aea6004803603810190610ae59190613652565b613454565b604051610af79190613718565b60405180910390f35b60606000808381526020019081526020016000206004018054610b22906140ff565b80601f0160208091040260200160405190810160405280929190818152602001828054610b4e906140ff565b8015610b9b5780601f10610b7057610100808354040283529160200191610b9b565b820191906000526020600020905b815481529060010190602001808311610b7e57829003601f168201915b50505050509050919050565b600060026000838152602001908152602001600020600601549050919050565b6040518060e00160405280878152602001600a5481526020018681526020018581526020018481526020018381526020018281525060026000600a5481526020019081526020016000206000820151816000019080519060200190610c2d929190613565565b50602082015181600101556040820151816002019080519060200190610c54929190613565565b50606082015181600301556080820151816004019080519060200190610c7b929190613565565b5060a0820151816005019080519060200190610c98929190613565565b5060c08201518160060155905050600a6000815480929190610cb990614160565b9190505550505050505050565b6000806000838152602001908152602001600020600001549050919050565b60058181548110610cf557600080fd5b906000526020600020016000915054906101000a900473ffffffffffffffffffffffffffffffffffffffff1681565b6000602052806000526040600020600091509050806000015490806001018054610d4d906140ff565b80601f0160208091040260200160405190810160405280929190818152602001828054610d79906140ff565b8015610dc65780601f10610d9b57610100808354040283529160200191610dc6565b820191906000526020600020905b815481529060010190602001808311610da957829003601f168201915b505050505090806002018054610ddb906140ff565b80601f0160208091040260200160405190810160405280929190818152602001828054610e07906140ff565b8015610e545780601f10610e2957610100808354040283529160200191610e54565b820191906000526020600020905b815481529060010190602001808311610e3757829003601f168201915b505050505090806003018054610e69906140ff565b80601f0160208091040260200160405190810160405280929190818152602001828054610e95906140ff565b8015610ee25780601f10610eb757610100808354040283529160200191610ee2565b820191906000526020600020905b815481529060010190602001808311610ec557829003601f168201915b505050505090806004018054610ef7906140ff565b80601f0160208091040260200160405190810160405280929190818152602001828054610f23906140ff565b8015610f705780601f10610f4557610100808354040283529160200191610f70565b820191906000526020600020905b815481529060010190602001808311610f5357829003601f168201915b505050505090806005018054610f85906140ff565b80601f0160208091040260200160405190810160405280929190818152602001828054610fb1906140ff565b8015610ffe5780601f10610fd357610100808354040283529160200191610ffe565b820191906000526020600020905b815481529060010190602001808311610fe157829003601f168201915b5050505050908060060154908060070154905088565b600460205280600052604060002060009150905080600001549080600101805461103d906140ff565b80601f0160208091040260200160405190810160405280929190818152602001828054611069906140ff565b80156110b65780601f1061108b576101008083540402835291602001916110b6565b820191906000526020600020905b81548152906001019060200180831161109957829003601f168201915b5050505050905082565b6000606080600060608060006001600089815260200190815260200160002060000154600160008a8152602001908152602001600020600101600160008b8152602001908152602001600020600201600160008c815260200190815260200160002060030154600160008d8152602001908152602001600020600401600160008e8152602001908152602001600020600501600160008f815260200190815260200160002060060154858054611175906140ff565b80601f01602080910402602001604051908101604052809291908181526020018280546111a1906140ff565b80156111ee5780601f106111c3576101008083540402835291602001916111ee565b820191906000526020600020905b8154815290600101906020018083116111d157829003601f168201915b50505050509550848054611201906140ff565b80601f016020809104026020016040519081016040528092919081815260200182805461122d906140ff565b801561127a5780601f1061124f5761010080835404028352916020019161127a565b820191906000526020600020905b81548152906001019060200180831161125d57829003601f168201915b5050505050945082805461128d906140ff565b80601f01602080910402602001604051908101604052809291908181526020018280546112b9906140ff565b80156113065780601f106112db57610100808354040283529160200191611306565b820191906000526020600020905b8154815290600101906020018083116112e957829003601f168201915b50505050509250818054611319906140ff565b80601f0160208091040260200160405190810160405280929190818152602001828054611345906140ff565b80156113925780601f1061136757610100808354040283529160200191611392565b820191906000526020600020905b81548152906001019060200180831161137557829003601f168201915b505050505091509650965096509650965096509650919395979092949650565b60606003600083815260200190815260200160002060040180546113d5906140ff565b80601f0160208091040260200160405190810160405280929190818152602001828054611401906140ff565b801561144e5780601f106114235761010080835404028352916020019161144e565b820191906000526020600020905b81548152906001019060200180831161143157829003601f168201915b50505050509050919050565b6060600080838152602001908152602001600020600101805461147c906140ff565b80601f01602080910402602001604051908101604052809291908181526020018280546114a8906140ff565b80156114f55780601f106114ca576101008083540402835291602001916114f5565b820191906000526020600020905b8154815290600101906020018083116114d857829003601f168201915b50505050509050919050565b6000600854905090565b6000806000838152602001908152602001600020600601549050919050565b6000806000905060005b600a5482101561161c576115e684600260008581526020019081526020016000206005018054611563906140ff565b80601f016020809104026020016040519081016040528092919081815260200182805461158f906140ff565b80156115dc5780601f106115b1576101008083540402835291602001916115dc565b820191906000526020600020905b8154815290600101906020018083116115bf57829003601f168201915b50505050506134fb565b15611609576002600083815260200190815260200160002060010154905061161c565b818061161490614160565b925050611534565b8092505050919050565b600060608060608060036000878152602001908152602001600020600001546003600088815260200190815260200160002060010160036000898152602001908152602001600020600201600360008a8152602001908152602001600020600301600360008b81526020019081526020016000206004018380546116a9906140ff565b80601f01602080910402602001604051908101604052809291908181526020018280546116d5906140ff565b80156117225780601f106116f757610100808354040283529160200191611722565b820191906000526020600020905b81548152906001019060200180831161170557829003601f168201915b50505050509350828054611735906140ff565b80601f0160208091040260200160405190810160405280929190818152602001828054611761906140ff565b80156117ae5780601f10611783576101008083540402835291602001916117ae565b820191906000526020600020905b81548152906001019060200180831161179157829003601f168201915b505050505092508180546117c1906140ff565b80601f01602080910402602001604051908101604052809291908181526020018280546117ed906140ff565b801561183a5780601f1061180f5761010080835404028352916020019161183a565b820191906000526020600020905b81548152906001019060200180831161181d57829003601f168201915b5050505050915080805461184d906140ff565b80601f0160208091040260200160405190810160405280929190818152602001828054611879906140ff565b80156118c65780601f1061189b576101008083540402835291602001916118c6565b820191906000526020600020905b8154815290600101906020018083116118a957829003601f168201915b505050505090509450945094509450945091939590929450565b6040518060a00160405280600b5481526020018581526020018481526020018381526020018281525060036000600b548152602001908152602001600020600082015181600001556020820151816001019080519060200190611944929190613565565b506040820151816002019080519060200190611961929190613565565b50606082015181600301908051906020019061197e929190613565565b50608082015181600401908051906020019061199b929190613565565b50905050600b60008154809291906119b290614160565b919050555050505050565b6000806000838152602001908152602001600020600701549050919050565b60606005805480602002602001604051908101604052809291908181526020018280548015611a6057602002820191906000526020600020905b8160009054906101000a900473ffffffffffffffffffffffffffffffffffffffff1673ffffffffffffffffffffffffffffffffffffffff1681526020019060010190808311611a16575b5050505050905090565b6000600b54905090565b600060036000838152602001908152602001600020600001549050919050565b6060600260008381526020019081526020016000206002018054611ab7906140ff565b80601f0160208091040260200160405190810160405280929190818152602001828054611ae3906140ff565b8015611b305780601f10611b0557610100808354040283529160200191611b30565b820191906000526020600020905b815481529060010190602001808311611b1357829003601f168201915b50505050509050919050565b6040518061010001604052806008548152602001888152602001878152602001868152602001858152602001848152602001838152602001828152506000806008548152602001908152602001600020600082015181600001556020820151816001019080519060200190611bb2929190613565565b506040820151816002019080519060200190611bcf929190613565565b506060820151816003019080519060200190611bec929190613565565b506080820151816004019080519060200190611c09929190613565565b5060a0820151816005019080519060200190611c26929190613565565b5060c0820151816006015560e0820151816007015590505060086000815480929190611c5190614160565b919050555050505050505050565b600060026000838152602001908152602001600020600101549050919050565b6002602052806000526040600020600091509050806000018054611ca2906140ff565b80601f0160208091040260200160405190810160405280929190818152602001828054611cce906140ff565b8015611d1b5780601f10611cf057610100808354040283529160200191611d1b565b820191906000526020600020905b815481529060010190602001808311611cfe57829003601f168201915b505050505090806001015490806002018054611d36906140ff565b80601f0160208091040260200160405190810160405280929190818152602001828054611d62906140ff565b8015611daf5780601f10611d8457610100808354040283529160200191611daf565b820191906000526020600020905b815481529060010190602001808311611d9257829003601f168201915b505050505090806003015490806004018054611dca906140ff565b80601f0160208091040260200160405190810160405280929190818152602001828054611df6906140ff565b8015611e435780601f10611e1857610100808354040283529160200191611e43565b820191906000526020600020905b815481529060010190602001808311611e2657829003601f168201915b505050505090806005018054611e58906140ff565b80601f0160208091040260200160405190810160405280929190818152602001828054611e84906140ff565b8015611ed15780601f10611ea657610100808354040283529160200191611ed1565b820191906000526020600020905b815481529060010190602001808311611eb457829003601f168201915b5050505050908060060154905087565b6060600360008381526020019081526020016000206001018054611f04906140ff565b80601f0160208091040260200160405190810160405280929190818152602001828054611f30906140ff565b8015611f7d5780601f10611f5257610100808354040283529160200191611f7d565b820191906000526020600020905b815481529060010190602001808311611f6057829003601f168201915b50505050509050919050565b60006004600080815260200190815260200160002060000154905090565b6060600780548060200260200160405190810160405280929190818152602001828054801561202b57602002820191906000526020600020905b8160009054906101000a900473ffffffffffffffffffffffffffffffffffffffff1673ffffffffffffffffffffffffffffffffffffffff1681526020019060010190808311611fe1575b5050505050905090565b6000600c54905090565b6007818154811061204f57600080fd5b906000526020600020016000915054906101000a900473ffffffffffffffffffffffffffffffffffffffff1681565b60016020528060005260406000206000915090508060000154908060010180546120a7906140ff565b80601f01602080910402602001604051908101604052809291908181526020018280546120d3906140ff565b80156121205780601f106120f557610100808354040283529160200191612120565b820191906000526020600020905b81548152906001019060200180831161210357829003601f168201915b505050505090806002018054612135906140ff565b80601f0160208091040260200160405190810160405280929190818152602001828054612161906140ff565b80156121ae5780601f10612183576101008083540402835291602001916121ae565b820191906000526020600020905b81548152906001019060200180831161219157829003601f168201915b5050505050908060030154908060040180546121c9906140ff565b80601f01602080910402602001604051908101604052809291908181526020018280546121f5906140ff565b80156122425780601f1061221757610100808354040283529160200191612242565b820191906000526020600020905b81548152906001019060200180831161222557829003601f168201915b505050505090806005018054612257906140ff565b80601f0160208091040260200160405190810160405280929190818152602001828054612283906140ff565b80156122d05780601f106122a5576101008083540402835291602001916122d0565b820191906000526020600020905b8154815290600101906020018083116122b357829003601f168201915b5050505050908060060154905087565b6000806000905060005b60085482101561268c5761239b886000808581526020019081526020016000206001018054612318906140ff565b80601f0160208091040260200160405190810160405280929190818152602001828054612344906140ff565b80156123915780601f1061236657610100808354040283529160200191612391565b820191906000526020600020905b81548152906001019060200180831161237457829003601f168201915b50505050506134fb565b801561244a57506124498760008085815260200190815260200160002060020180546123c6906140ff565b80601f01602080910402602001604051908101604052809291908181526020018280546123f2906140ff565b801561243f5780601f106124145761010080835404028352916020019161243f565b820191906000526020600020905b81548152906001019060200180831161242257829003601f168201915b50505050506134fb565b5b80156124f957506124f8866000808581526020019081526020016000206003018054612475906140ff565b80601f01602080910402602001604051908101604052809291908181526020018280546124a1906140ff565b80156124ee5780601f106124c3576101008083540402835291602001916124ee565b820191906000526020600020905b8154815290600101906020018083116124d157829003601f168201915b50505050506134fb565b5b80156125a857506125a7856000808581526020019081526020016000206004018054612524906140ff565b80601f0160208091040260200160405190810160405280929190818152602001828054612550906140ff565b801561259d5780601f106125725761010080835404028352916020019161259d565b820191906000526020600020905b81548152906001019060200180831161258057829003601f168201915b50505050506134fb565b5b801561265757506126568460008085815260200190815260200160002060050180546125d3906140ff565b80601f01602080910402602001604051908101604052809291908181526020018280546125ff906140ff565b801561264c5780601f106126215761010080835404028352916020019161264c565b820191906000526020600020905b81548152906001019060200180831161262f57829003601f168201915b50505050506134fb565b5b156126795760008083815260200190815260200160002060000154905061268c565b818061268490614160565b9250506122ea565b809250505095945050505050565b606060008083815260200190815260200160002060050180546126bc906140ff565b80601f01602080910402602001604051908101604052809291908181526020018280546126e8906140ff565b80156127355780601f1061270a57610100808354040283529160200191612735565b820191906000526020600020905b81548152906001019060200180831161271857829003601f168201915b50505050509050919050565b6060600460008081526020019081526020016000206001018054612764906140ff565b80601f0160208091040260200160405190810160405280929190818152602001828054612790906140ff565b80156127dd5780601f106127b2576101008083540402835291602001916127dd565b820191906000526020600020905b8154815290600101906020018083116127c057829003601f168201915b5050505050905090565b606060036000838152602001908152602001600020600301805461280a906140ff565b80601f0160208091040260200160405190810160405280929190818152602001828054612836906140ff565b80156128835780601f1061285857610100808354040283529160200191612883565b820191906000526020600020905b81548152906001019060200180831161286657829003601f168201915b50505050509050919050565b60606002600083815260200190815260200160002060000180546128b2906140ff565b80601f01602080910402602001604051908101604052809291908181526020018280546128de906140ff565b801561292b5780601f106129005761010080835404028352916020019161292b565b820191906000526020600020905b81548152906001019060200180831161290e57829003601f168201915b50505050509050919050565b6000806000905060005b600b54821015612a29576129f384600360008581526020019081526020016000206004018054612970906140ff565b80601f016020809104026020016040519081016040528092919081815260200182805461299c906140ff565b80156129e95780601f106129be576101008083540402835291602001916129e9565b820191906000526020600020905b8154815290600101906020018083116129cc57829003601f168201915b50505050506134fb565b15612a165760036000838152602001908152602001600020600001549050612a29565b8180612a2190614160565b925050612941565b8092505050919050565b6003602052806000526040600020600091509050806000015490806001018054612a5c906140ff565b80601f0160208091040260200160405190810160405280929190818152602001828054612a88906140ff565b8015612ad55780601f10612aaa57610100808354040283529160200191612ad5565b820191906000526020600020905b815481529060010190602001808311612ab857829003601f168201915b505050505090806002018054612aea906140ff565b80601f0160208091040260200160405190810160405280929190818152602001828054612b16906140ff565b8015612b635780601f10612b3857610100808354040283529160200191612b63565b820191906000526020600020905b815481529060010190602001808311612b4657829003601f168201915b505050505090806003018054612b78906140ff565b80601f0160208091040260200160405190810160405280929190818152602001828054612ba4906140ff565b8015612bf15780601f10612bc657610100808354040283529160200191612bf1565b820191906000526020600020905b815481529060010190602001808311612bd457829003601f168201915b505050505090806004018054612c06906140ff565b80601f0160208091040260200160405190810160405280929190818152602001828054612c32906140ff565b8015612c7f5780601f10612c5457610100808354040283529160200191612c7f565b820191906000526020600020905b815481529060010190602001808311612c6257829003601f168201915b5050505050905085565b6060600260008381526020019081526020016000206004018054612cac906140ff565b80601f0160208091040260200160405190810160405280929190818152602001828054612cd8906140ff565b8015612d255780601f10612cfa57610100808354040283529160200191612d25565b820191906000526020600020905b815481529060010190602001808311612d0857829003601f168201915b50505050509050919050565b60606006805480602002602001604051908101604052809291908181526020018280548015612db557602002820191906000526020600020905b8160009054906101000a900473ffffffffffffffffffffffffffffffffffffffff1673ffffffffffffffffffffffffffffffffffffffff1681526020019060010190808311612d6b575b5050505050905090565b6000600a54905090565b6060600360008381526020019081526020016000206002018054612dec906140ff565b80601f0160208091040260200160405190810160405280929190818152602001828054612e18906140ff565b8015612e655780601f10612e3a57610100808354040283529160200191612e65565b820191906000526020600020905b815481529060010190602001808311612e4857829003601f168201915b50505050509050919050565b6060600260008381526020019081526020016000206005018054612e94906140ff565b80601f0160208091040260200160405190810160405280929190818152602001828054612ec0906140ff565b8015612f0d5780601f10612ee257610100808354040283529160200191612f0d565b820191906000526020600020905b815481529060010190602001808311612ef057829003601f168201915b50505050509050919050565b6060600060606000606080600060026000898152602001908152602001600020600001600260008a815260200190815260200160002060010154600260008b8152602001908152602001600020600201600260008c815260200190815260200160002060030154600260008d8152602001908152602001600020600401600260008e8152602001908152602001600020600501600260008f815260200190815260200160002060060154868054612fcf906140ff565b80601f0160208091040260200160405190810160405280929190818152602001828054612ffb906140ff565b80156130485780601f1061301d57610100808354040283529160200191613048565b820191906000526020600020905b81548152906001019060200180831161302b57829003601f168201915b5050505050965084805461305b906140ff565b80601f0160208091040260200160405190810160405280929190818152602001828054613087906140ff565b80156130d45780601f106130a9576101008083540402835291602001916130d4565b820191906000526020600020905b8154815290600101906020018083116130b757829003601f168201915b505050505094508280546130e7906140ff565b80601f0160208091040260200160405190810160405280929190818152602001828054613113906140ff565b80156131605780601f1061313557610100808354040283529160200191613160565b820191906000526020600020905b81548152906001019060200180831161314357829003601f168201915b50505050509250818054613173906140ff565b80601f016020809104026020016040519081016040528092919081815260200182805461319f906140ff565b80156131ec5780601f106131c1576101008083540402835291602001916131ec565b820191906000526020600020905b8154815290600101906020018083116131cf57829003601f168201915b505050505091509650965096509650965096509650919395979092949650565b81600080858152602001908152602001600020600601819055508060008085815260200190815260200160002060070181905550505050565b60606000808381526020019081526020016000206003018054613267906140ff565b80601f0160208091040260200160405190810160405280929190818152602001828054613293906140ff565b80156132e05780601f106132b5576101008083540402835291602001916132e0565b820191906000526020600020905b8154815290600101906020018083116132c357829003601f168201915b50505050509050919050565b6000600954905090565b6006818154811061330657600080fd5b906000526020600020016000915054906101000a900473ffffffffffffffffffffffffffffffffffffffff1681565b600060026000838152602001908152602001600020600301549050919050565b6040518060e001604052806009548152602001878152602001868152602001858152602001848152602001838152602001828152506001600060095481526020019081526020016000206000820151816000015560208201518160010190805190602001906133c5929190613565565b5060408201518160020190805190602001906133e2929190613565565b50606082015181600301556080820151816004019080519060200190613409929190613565565b5060a0820151816005019080519060200190613426929190613565565b5060c082015181600601559050506009600081548092919061344790614160565b9190505550505050505050565b60606000808381526020019081526020016000206002018054613476906140ff565b80601f01602080910402602001604051908101604052809291908181526020018280546134a2906140ff565b80156134ef5780601f106134c4576101008083540402835291602001916134ef565b820191906000526020600020905b8154815290600101906020018083116134d257829003601f168201915b50505050509050919050565b60008160405160200161350e91906141e5565b604051602081830303815290604052805190602001208360405160200161353591906141e5565b60405160208183030381529060405280519060200120141561355a576001905061355f565b600090505b92915050565b828054613571906140ff565b90600052602060002090601f01602090048101928261359357600085556135da565b82601f106135ac57805160ff19168380011785556135da565b828001600101855582156135da579182015b828111156135d95782518255916020019190600101906135be565b5b5090506135e791906135eb565b5090565b5b808211156136045760008160009055506001016135ec565b5090565b6000604051905090565b600080fd5b600080fd5b6000819050919050565b61362f8161361c565b811461363a57600080fd5b50565b60008135905061364c81613626565b92915050565b60006020828403121561366857613667613612565b5b60006136768482850161363d565b91505092915050565b600081519050919050565b600082825260208201905092915050565b60005b838110156136b957808201518184015260208101905061369e565b838111156136c8576000848401525b50505050565b6000601f19601f8301169050919050565b60006136ea8261367f565b6136f4818561368a565b935061370481856020860161369b565b61370d816136ce565b840191505092915050565b6000602082019050818103600083015261373281846136df565b905092915050565b6137438161361c565b82525050565b600060208201905061375e600083018461373a565b92915050565b600080fd5b600080fd5b7f4e487b7100000000000000000000000000000000000000000000000000000000600052604160045260246000fd5b6137a6826136ce565b810181811067ffffffffffffffff821117156137c5576137c461376e565b5b80604052505050565b60006137d8613608565b90506137e4828261379d565b919050565b600067ffffffffffffffff8211156138045761380361376e565b5b61380d826136ce565b9050602081019050919050565b82818337600083830152505050565b600061383c613837846137e9565b6137ce565b90508281526020810184848401111561385857613857613769565b5b61386384828561381a565b509392505050565b600082601f8301126138805761387f613764565b5b8135613890848260208601613829565b91505092915050565b60008060008060008060c087890312156138b6576138b5613612565b5b600087013567ffffffffffffffff8111156138d4576138d3613617565b5b6138e089828a0161386b565b965050602087013567ffffffffffffffff81111561390157613900613617565b5b61390d89828a0161386b565b955050604061391e89828a0161363d565b945050606087013567ffffffffffffffff81111561393f5761393e613617565b5b61394b89828a0161386b565b935050608087013567ffffffffffffffff81111561396c5761396b613617565b5b61397889828a0161386b565b92505060a061398989828a0161363d565b9150509295509295509295565b600073ffffffffffffffffffffffffffffffffffffffff82169050919050565b60006139c182613996565b9050919050565b6139d1816139b6565b82525050565b60006020820190506139ec60008301846139c8565b92915050565b600061010082019050613a08600083018b61373a565b8181036020830152613a1a818a6136df565b90508181036040830152613a2e81896136df565b90508181036060830152613a4281886136df565b90508181036080830152613a5681876136df565b905081810360a0830152613a6a81866136df565b9050613a7960c083018561373a565b613a8660e083018461373a565b9998505050505050505050565b6000604082019050613aa8600083018561373a565b8181036020830152613aba81846136df565b90509392505050565b600060e082019050613ad8600083018a61373a565b8181036020830152613aea81896136df565b90508181036040830152613afe81886136df565b9050613b0d606083018761373a565b8181036080830152613b1f81866136df565b905081810360a0830152613b3381856136df565b9050613b4260c083018461373a565b98975050505050505050565b600060208284031215613b6457613b63613612565b5b600082013567ffffffffffffffff811115613b8257613b81613617565b5b613b8e8482850161386b565b91505092915050565b600060a082019050613bac600083018861373a565b8181036020830152613bbe81876136df565b90508181036040830152613bd281866136df565b90508181036060830152613be681856136df565b90508181036080830152613bfa81846136df565b90509695505050505050565b60008060008060808587031215613c2057613c1f613612565b5b600085013567ffffffffffffffff811115613c3e57613c3d613617565b5b613c4a8782880161386b565b945050602085013567ffffffffffffffff811115613c6b57613c6a613617565b5b613c778782880161386b565b935050604085013567ffffffffffffffff811115613c9857613c97613617565b5b613ca48782880161386b565b925050606085013567ffffffffffffffff811115613cc557613cc4613617565b5b613cd18782880161386b565b91505092959194509250565b600081519050919050565b600082825260208201905092915050565b6000819050602082019050919050565b613d12816139b6565b82525050565b6000613d248383613d09565b60208301905092915050565b6000602082019050919050565b6000613d4882613cdd565b613d528185613ce8565b9350613d5d83613cf9565b8060005b83811015613d8e578151613d758882613d18565b9750613d8083613d30565b925050600181019050613d61565b5085935050505092915050565b60006020820190508181036000830152613db58184613d3d565b905092915050565b600080600080600080600060e0888a031215613ddc57613ddb613612565b5b600088013567ffffffffffffffff811115613dfa57613df9613617565b5b613e068a828b0161386b565b975050602088013567ffffffffffffffff811115613e2757613e26613617565b5b613e338a828b0161386b565b965050604088013567ffffffffffffffff811115613e5457613e53613617565b5b613e608a828b0161386b565b955050606088013567ffffffffffffffff811115613e8157613e80613617565b5b613e8d8a828b0161386b565b945050608088013567ffffffffffffffff811115613eae57613ead613617565b5b613eba8a828b0161386b565b93505060a0613ecb8a828b0161363d565b92505060c0613edc8a828b0161363d565b91505092959891949750929550565b600060e0820190508181036000830152613f05818a6136df565b9050613f14602083018961373a565b8181036040830152613f2681886136df565b9050613f35606083018761373a565b8181036080830152613f4781866136df565b905081810360a0830152613f5b81856136df565b9050613f6a60c083018461373a565b98975050505050505050565b600080600080600060a08688031215613f9257613f91613612565b5b600086013567ffffffffffffffff811115613fb057613faf613617565b5b613fbc8882890161386b565b955050602086013567ffffffffffffffff811115613fdd57613fdc613617565b5b613fe98882890161386b565b945050604086013567ffffffffffffffff81111561400a57614009613617565b5b6140168882890161386b565b935050606086013567ffffffffffffffff81111561403757614036613617565b5b6140438882890161386b565b925050608086013567ffffffffffffffff81111561406457614063613617565b5b6140708882890161386b565b9150509295509295909350565b60008060006060848603121561409657614095613612565b5b60006140a48682870161363d565b93505060206140b58682870161363d565b92505060406140c68682870161363d565b9150509250925092565b7f4e487b7100000000000000000000000000000000000000000000000000000000600052602260045260246000fd5b6000600282049050600182168061411757607f821691505b6020821081141561412b5761412a6140d0565b5b50919050565b7f4e487b7100000000000000000000000000000000000000000000000000000000600052601160045260246000fd5b600061416b8261361c565b91507fffffffffffffffffffffffffffffffffffffffffffffffffffffffffffffffff82141561419e5761419d614131565b5b600182019050919050565b600081905092915050565b60006141bf8261367f565b6141c981856141a9565b93506141d981856020860161369b565b80840191505092915050565b60006141f182846141b4565b91508190509291505056fea2646970667358221220112a14e4593b3685beec94978e11dafb743ed1e46dd6befa2865141d41f979e064736f6c634300080a0033",
  "immutableReferences": {},
  "source": "// SPDX-License-Identifier: MIT\r\npragma solidity >=0.4.22 <0.9.0;\r\n\r\ncontract Land {\r\n    // structs\r\n    struct Deed {\r\n        // deed instance variables\r\n        uint deedId;\r\n        string no;\r\n        string streetName;\r\n        string city;\r\n        string district;\r\n        string province;\r\n        uint assignedLawyerId; // to link the relevant lawyer to the deed\r\n        uint assignedSellerId; // to link the relevant seller to the deed\r\n    }\r\n\r\n    struct Buyer{\r\n        // Buyer instance variables\r\n       uint id;\r\n       string nic;\r\n       string name;\r\n       uint age;\r\n       string city;\r\n       string email; \r\n       uint telephoneNumber;\r\n    }\r\n\r\n    struct Lawyer{\r\n        // Lawyer instance variables\r\n        uint lawyerId;\r\n        string lawyerName;\r\n        string lawyernic;\r\n        string lawyerRegNo;\r\n        string lawyerEmail;\r\n    }\r\n\r\n    struct Seller {\r\n        // Seller instance variables\r\n        string name;\r\n\t\tuint id;\r\n\t\tstring nic;\r\n        uint age;\r\n        string city;\r\n\t\tstring email;\r\n        uint telephoneNumber;\r\n    }\r\n\r\n    struct Admin {\r\n        // Admin instance variables\r\n        uint id;\r\n        string adminPassword;\r\n    }\r\n\r\n    // mappings\r\n    mapping(uint => Deed) public deeds;\r\n    mapping(uint => Buyer) public Buyersmapping;\r\n    mapping(uint => Seller) public sellersMapping;\r\n    mapping(uint => Lawyer) public Lawyersmapping;\r\n    mapping(uint => Admin) public adminMapping;\r\n\r\n    \r\n    //arrays\r\n    address[] public Buyerlist;\r\n    address[] public sellerList;\r\n    address[] public lawyerList;\r\n\r\n    // Count tracking variables\r\n    uint private deedCount = 0;\r\n    uint private buyersCount = 0;\r\n    uint private sellersCount = 0;\r\n    uint private lawyerCount=0;\r\n    uint private adminCount = 0;\r\n\r\n    constructor(){\r\n        // initializing the admin\r\n        adminMapping[adminCount] = Admin(adminCount, \"123\");\r\n        adminCount++;\r\n\r\n    }\r\n\r\n    // getter for deed count\r\n    function getDeedCount() public view returns (uint) {\r\n        return deedCount;\r\n    }\r\n\r\n    // getter for buyer count\r\n    function getBuyersCount() public view returns(uint){\r\n        return buyersCount;\r\n    }\r\n\r\n    // getter for lawyer count\r\n    function getLawyerCount() public view returns(uint){\r\n        return lawyerCount;\r\n    }\r\n\r\n    // getter for seller count\r\n    function getSellersCount() public view returns(uint){\r\n        return sellersCount;\r\n    }\r\n\r\n    // getter for admin count\r\n    function getAdminCount() public view returns(uint){\r\n        return adminCount;\r\n    }\r\n\r\n    //getters for Deed struct\r\n    function getDeedId(uint index) public view returns (uint) {\r\n        return deeds[index].deedId;\r\n    }\r\n\r\n    function getDeedNo(uint index) public view returns (string memory) {\r\n        return deeds[index].no;\r\n    }\r\n\r\n    function getDeedStreetName(uint index) public view returns (string memory) {\r\n        return deeds[index].streetName;\r\n    }\r\n\r\n    function getDeedCity(uint index) public view returns (string memory) {\r\n        return deeds[index].city;\r\n    }\r\n\r\n    function getDeedDistrict(uint index) public view returns (string memory) {\r\n        return deeds[index].district;\r\n    }\r\n\r\n    function getDeedProvince(uint index) public view returns (string memory) {\r\n        return deeds[index].province;\r\n    }\r\n\r\n    function getLawyerIdOfDeed(uint index) public view returns (uint) {\r\n        return deeds[index].assignedLawyerId;\r\n    }\r\n\r\n    function getSellerIdOfDeed(uint index) public view returns (uint) {\r\n        return deeds[index].assignedSellerId;\r\n    }\r\n\r\n    // function to compare strings\r\n    function compareStrings(string memory s1, string memory s2) private pure returns (bool) {\r\n        if (keccak256(abi.encodePacked(s1)) == keccak256(abi.encodePacked(s2)))\r\n        {\r\n            return true;\r\n        }\r\n        else \r\n        {\r\n            return false;\r\n        }\r\n    }\r\n\r\n    // function to get the deed by the land address for searching purposes\r\n    function findDeedByAddress(string memory _no, string memory _streetName, string memory _city, string memory _district, string memory _province) public view returns (uint) {\r\n        uint i = 0;\r\n        uint returningDeedId;\r\n        while (i < deedCount)\r\n        {\r\n            if (compareStrings(_no, deeds[i].no) && compareStrings(_streetName, deeds[i].streetName) && compareStrings(_city, deeds[i].city) && compareStrings(_district, deeds[i].district) && compareStrings(_province, deeds[i].province))\r\n            {\r\n                returningDeedId = deeds[i].deedId;\r\n                break;\r\n            }\r\n            i++;\r\n        }\r\n        return returningDeedId;\r\n    }\r\n\r\n    // function to get the lawyer by email\r\n    function findLawyerByEmail(string memory _email) public view returns (uint) {\r\n        uint i = 0;\r\n        uint returningLawyerId;\r\n        while (i < lawyerCount)\r\n        {\r\n            if (compareStrings(_email, Lawyersmapping[i].lawyerEmail))\r\n            {\r\n                returningLawyerId = Lawyersmapping[i].lawyerId;\r\n                break;\r\n            }\r\n            i++;\r\n        }\r\n        return returningLawyerId;\r\n    }\r\n\r\n    //function to get the seller by email\r\n    function findSellerByEmail(string memory _email) public view returns (uint) {\r\n        uint i = 0;\r\n        uint returningSellerId;\r\n        while (i < sellersCount)\r\n        {\r\n            if (compareStrings(_email, sellersMapping[i].email))\r\n            {\r\n                returningSellerId = sellersMapping[i].id;\r\n                break;\r\n            }\r\n            i++;\r\n        }\r\n        return returningSellerId;\r\n    }\r\n\r\n    // function to change land deed buyer and seller\r\n    function changeDeedBuyerAndSeller(uint _deedId, uint _assignedLawyerId, uint _assignedSellerId) public {\r\n        \r\n        deeds[_deedId].assignedLawyerId = _assignedLawyerId;\r\n        deeds[_deedId].assignedSellerId = _assignedSellerId;\r\n    }\r\n\r\n    //getter for the Buyerlist array\r\n    function getBuyer() public view returns( address [] memory){\r\n        return(Buyerlist);\r\n    }\r\n\r\n    //getter for the seller list array\r\n    function getSeller() public view returns( address [] memory){\r\n        return(sellerList);\r\n    }\r\n\r\n    //getter for the lawyerList array\r\n    function getLawyer() public view returns( address [] memory){\r\n        return(lawyerList);\r\n    }\r\n\r\n    // function to add a new deed to the deeds mapping\r\n    function addNewDeed(string memory _no, string memory _streetName, string memory _city, string memory _district, string memory _province, uint _assignedLawyerId, uint _assignedSellerId) public {\r\n        deeds[deedCount] = Deed(deedCount, _no, _streetName, _city, _district, _province, _assignedLawyerId, _assignedSellerId);\r\n        deedCount++;\r\n    }\r\n\r\n    //function to register new Buyer\r\n    function registerBuyer(string memory _nic, string memory _name, uint _age, string memory _city, string memory _email, uint _telephoneNumber) public {\r\n        Buyersmapping[buyersCount] = Buyer(buyersCount, _nic,  _name, _age, _city, _email, _telephoneNumber);\r\n        buyersCount++;\r\n    }\r\n\r\n    //function to register a seller\r\n    function registerSeller(string memory _name, string memory _nic, uint _age, string memory _city, string memory _email, uint _telephoneNumber) public {\r\n        sellersMapping[sellersCount] = Seller(_name, sellersCount, _nic, _age, _city, _email, _telephoneNumber);\r\n        sellersCount++;\r\n    }\r\n\r\n    //function to register a new Lawyer\r\n    function registerLawyer(string memory _lawyerName, string memory _lawyernic, string memory _lawyerRegNo, string memory _lawyerEmail) public {\r\n        Lawyersmapping[lawyerCount] = Lawyer(lawyerCount, _lawyerName, _lawyernic, _lawyerRegNo, _lawyerEmail);\r\n        lawyerCount++;\r\n    }\r\n\r\n    //function to display buyer details\r\n    function displayBuyer(uint index) public view returns (uint _id, string memory _nic, string memory _name, uint _age, string memory _city, string memory _email, uint _telephoneNumber){\r\n        return(Buyersmapping[index].id, Buyersmapping[index].nic,Buyersmapping[index].name,Buyersmapping[index].age,Buyersmapping[index].city,Buyersmapping[index].email,Buyersmapping[index].telephoneNumber);\r\n\r\n    } \r\n\r\n    //function to display seller details\r\n    function displaySeller(uint index) public view returns (string memory _name, uint _id, string memory _nic, uint _age, string memory _city, string memory _email, uint _telephoneNumber){\r\n        return(sellersMapping[index].name, sellersMapping[index].id, sellersMapping[index].nic, sellersMapping[index].age, sellersMapping[index].city, sellersMapping[index].email, sellersMapping[index].telephoneNumber);\r\n    }\r\n\r\n    //function to add admin\r\n    function addAdmin(string memory _adminPassword) private {\r\n        \r\n        adminMapping[adminCount] = Admin(adminCount, _adminPassword);\r\n        adminCount++;\r\n    }\r\n    \r\n    //function to display lawyer details\r\n    function displayLawyer(uint index) public view returns (uint _lawyerId, string memory _lawyerName, string memory _lawyernic, string memory _lawyerRegNo, string memory _lawyerEmail){\r\n        return(Lawyersmapping[index].lawyerId, Lawyersmapping[index].lawyerName, Lawyersmapping[index].lawyernic, Lawyersmapping[index].lawyerRegNo, Lawyersmapping[index].lawyerEmail);\r\n    }\r\n\r\n    // function to get the lawyer id\r\n    function getLawyerId(uint index) public view returns (uint) {\r\n        return Lawyersmapping[index].lawyerId;\r\n    }\r\n\r\n    // function to get the lawyer name\r\n    function getLawyerName(uint index) public view returns (string memory) {\r\n        return Lawyersmapping[index].lawyerName;\r\n    }\r\n\r\n    // function to get the lawyer nic\r\n    function getLawyerNic(uint index) public view returns (string memory) {\r\n        return Lawyersmapping[index].lawyernic;\r\n    }\r\n\r\n    // function to get the lawyer reg no\r\n    function getLawyerRegNo(uint index) public view returns (string memory) {\r\n        return Lawyersmapping[index].lawyerRegNo;\r\n    }\r\n\r\n    // function to get the lawyer email\r\n    function getLawyerEmail(uint index) public view returns (string memory) {\r\n        return Lawyersmapping[index].lawyerEmail;\r\n    }\r\n\r\n    // function to get the seller id\r\n    function getSellerId(uint index) public view returns (uint) {\r\n        return sellersMapping[index].id;\r\n    }\r\n\r\n    // function to get the seller name\r\n    function getSellerName(uint index) public view returns (string memory) {\r\n        return sellersMapping[index].name;\r\n    }\r\n\r\n    // function to get the seller nic\r\n    function getSellerNic(uint index) public view returns (string memory) {\r\n        return sellersMapping[index].nic;\r\n    }\r\n\r\n    // function to get the seller age\r\n    function getSellerAge(uint index) public view returns (uint) {\r\n        return sellersMapping[index].age;\r\n    }\r\n\r\n    // function to get the seller city\r\n    function getSellerCity(uint index) public view returns (string memory) {\r\n        return sellersMapping[index].city;\r\n    }\r\n\r\n    // function to get the seller email\r\n    function getSellerEmail(uint index) public view returns (string memory) {\r\n        return sellersMapping[index].email;\r\n    }\r\n\r\n    // function to get the seller telephonenumber\r\n    function getSellerTelephoneNo(uint index) public view returns (uint) {\r\n        return sellersMapping[index].telephoneNumber;\r\n    }\r\n\r\n    //function to get admin id\r\n    function getAdminId() public view returns (uint) {\r\n        return adminMapping[0].id;\r\n    }\r\n\r\n    //function to get admin password\r\n    function getAdminPassword() public view returns (string memory) {\r\n        return adminMapping[0].adminPassword;\r\n    }\r\n}",
  "sourcePath": "C:\\Users\\gavin\\Desktop\\DBLOCK\\backEnd\\contracts\\Land.sol",
  "compiler": {
    "name": "solc",
    "version": "0.8.10+commit.fc410830.Emscripten.clang"
  },
  "schemaVersion": "3.4.4",
  "updatedAt": "2022-03-11T04:19:14.669Z",
  "networkType": "ethereum",
  "devdoc": {
    "kind": "dev",
    "methods": {},
    "version": 1
  },
  "userdoc": {
    "kind": "user",
    "methods": {},
    "version": 1
  }
}