{
  "contractName": "Land",
  "abi": [
    {
      "inputs": [
        {
          "internalType": "uint256",
          "name": "",
          "type": "uint256"
        }
      ],
      "name": "deeds",
      "outputs": [
        {
          "internalType": "uint256",
          "name": "deedId",
          "type": "uint256"
        },
        {
          "internalType": "string",
          "name": "no",
          "type": "string"
        },
        {
          "internalType": "string",
          "name": "streetName",
          "type": "string"
        },
        {
          "internalType": "string",
          "name": "city",
          "type": "string"
        },
        {
          "internalType": "string",
          "name": "district",
          "type": "string"
        },
        {
          "internalType": "string",
          "name": "province",
          "type": "string"
        }
      ],
      "stateMutability": "view",
      "type": "function",
      "constant": true
    },
    {
      "inputs": [],
      "name": "getDeedCount",
      "outputs": [
        {
          "internalType": "uint256",
          "name": "",
          "type": "uint256"
        }
      ],
      "stateMutability": "view",
      "type": "function",
      "constant": true
    },
    {
      "inputs": [
        {
          "internalType": "uint256",
          "name": "index",
          "type": "uint256"
        }
      ],
      "name": "getDeedId",
      "outputs": [
        {
          "internalType": "uint256",
          "name": "",
          "type": "uint256"
        }
      ],
      "stateMutability": "view",
      "type": "function",
      "constant": true
    },
    {
      "inputs": [
        {
          "internalType": "uint256",
          "name": "index",
          "type": "uint256"
        }
      ],
      "name": "getDeedNo",
      "outputs": [
        {
          "internalType": "string",
          "name": "",
          "type": "string"
        }
      ],
      "stateMutability": "view",
      "type": "function",
      "constant": true
    },
    {
      "inputs": [
        {
          "internalType": "uint256",
          "name": "index",
          "type": "uint256"
        }
      ],
      "name": "getDeedStreetName",
      "outputs": [
        {
          "internalType": "string",
          "name": "",
          "type": "string"
        }
      ],
      "stateMutability": "view",
      "type": "function",
      "constant": true
    },
    {
      "inputs": [
        {
          "internalType": "uint256",
          "name": "index",
          "type": "uint256"
        }
      ],
      "name": "getDeedCity",
      "outputs": [
        {
          "internalType": "string",
          "name": "",
          "type": "string"
        }
      ],
      "stateMutability": "view",
      "type": "function",
      "constant": true
    },
    {
      "inputs": [
        {
          "internalType": "uint256",
          "name": "index",
          "type": "uint256"
        }
      ],
      "name": "getDeedDistrict",
      "outputs": [
        {
          "internalType": "string",
          "name": "",
          "type": "string"
        }
      ],
      "stateMutability": "view",
      "type": "function",
      "constant": true
    },
    {
      "inputs": [
        {
          "internalType": "uint256",
          "name": "index",
          "type": "uint256"
        }
      ],
      "name": "getDeedProvince",
      "outputs": [
        {
          "internalType": "string",
          "name": "",
          "type": "string"
        }
      ],
      "stateMutability": "view",
      "type": "function",
      "constant": true
    },
    {
      "inputs": [
        {
          "internalType": "string",
          "name": "_no",
          "type": "string"
        },
        {
          "internalType": "string",
          "name": "_streetName",
          "type": "string"
        },
        {
          "internalType": "string",
          "name": "_city",
          "type": "string"
        },
        {
          "internalType": "string",
          "name": "_district",
          "type": "string"
        },
        {
          "internalType": "string",
          "name": "_province",
          "type": "string"
        }
      ],
      "name": "addNewDeed",
      "outputs": [],
      "stateMutability": "nonpayable",
      "type": "function"
    }
  ],
  "bytecode": "0x6080604052600060015534801561001557600080fd5b50610f45806100256000396000f3fe608060405234801561001057600080fd5b50600436106100935760003560e01c8063334bb74511610066578063334bb7451461015d5780639cd681f51461017b578063eaddda64146101ab578063f0b93af9146101c7578063ffb434fb146101f757610093565b806305624d35146100985780630df7ec24146100c857806318edf564146100f857806332a678531461012d575b600080fd5b6100b260048036038101906100ad9190610a64565b610227565b6040516100bf9190610b2a565b60405180910390f35b6100e260048036038101906100dd9190610a64565b6102ce565b6040516100ef9190610b5b565b60405180910390f35b610112600480360381019061010d9190610a64565b6102ed565b60405161012496959493929190610b76565b60405180910390f35b61014760048036038101906101429190610a64565b6105d1565b6040516101549190610b2a565b60405180910390f35b610165610678565b6040516101729190610b5b565b60405180910390f35b61019560048036038101906101909190610a64565b610682565b6040516101a29190610b2a565b60405180910390f35b6101c560048036038101906101c09190610d2f565b610729565b005b6101e160048036038101906101dc9190610a64565b610829565b6040516101ee9190610b2a565b60405180910390f35b610211600480360381019061020c9190610a64565b6108d0565b60405161021e9190610b2a565b60405180910390f35b6060600080838152602001908152602001600020600401805461024990610e65565b80601f016020809104026020016040519081016040528092919081815260200182805461027590610e65565b80156102c25780601f10610297576101008083540402835291602001916102c2565b820191906000526020600020905b8154815290600101906020018083116102a557829003601f168201915b50505050509050919050565b6000806000838152602001908152602001600020600001549050919050565b600060205280600052604060002060009150905080600001549080600101805461031690610e65565b80601f016020809104026020016040519081016040528092919081815260200182805461034290610e65565b801561038f5780601f106103645761010080835404028352916020019161038f565b820191906000526020600020905b81548152906001019060200180831161037257829003601f168201915b5050505050908060020180546103a490610e65565b80601f01602080910402602001604051908101604052809291908181526020018280546103d090610e65565b801561041d5780601f106103f25761010080835404028352916020019161041d565b820191906000526020600020905b81548152906001019060200180831161040057829003601f168201915b50505050509080600301805461043290610e65565b80601f016020809104026020016040519081016040528092919081815260200182805461045e90610e65565b80156104ab5780601f10610480576101008083540402835291602001916104ab565b820191906000526020600020905b81548152906001019060200180831161048e57829003601f168201915b5050505050908060040180546104c090610e65565b80601f01602080910402602001604051908101604052809291908181526020018280546104ec90610e65565b80156105395780601f1061050e57610100808354040283529160200191610539565b820191906000526020600020905b81548152906001019060200180831161051c57829003601f168201915b50505050509080600501805461054e90610e65565b80601f016020809104026020016040519081016040528092919081815260200182805461057a90610e65565b80156105c75780601f1061059c576101008083540402835291602001916105c7565b820191906000526020600020905b8154815290600101906020018083116105aa57829003601f168201915b5050505050905086565b606060008083815260200190815260200160002060010180546105f390610e65565b80601f016020809104026020016040519081016040528092919081815260200182805461061f90610e65565b801561066c5780601f106106415761010080835404028352916020019161066c565b820191906000526020600020905b81548152906001019060200180831161064f57829003601f168201915b50505050509050919050565b6000600154905090565b606060008083815260200190815260200160002060050180546106a490610e65565b80601f01602080910402602001604051908101604052809291908181526020018280546106d090610e65565b801561071d5780601f106106f25761010080835404028352916020019161071d565b820191906000526020600020905b81548152906001019060200180831161070057829003601f168201915b50505050509050919050565b6040518060c001604052806001548152602001868152602001858152602001848152602001838152602001828152506000806001548152602001908152602001600020600082015181600001556020820151816001019080519060200190610792929190610977565b5060408201518160020190805190602001906107af929190610977565b5060608201518160030190805190602001906107cc929190610977565b5060808201518160040190805190602001906107e9929190610977565b5060a0820151816005019080519060200190610806929190610977565b509050506001600081548092919061081d90610ec6565b91905055505050505050565b6060600080838152602001908152602001600020600301805461084b90610e65565b80601f016020809104026020016040519081016040528092919081815260200182805461087790610e65565b80156108c45780601f10610899576101008083540402835291602001916108c4565b820191906000526020600020905b8154815290600101906020018083116108a757829003601f168201915b50505050509050919050565b606060008083815260200190815260200160002060020180546108f290610e65565b80601f016020809104026020016040519081016040528092919081815260200182805461091e90610e65565b801561096b5780601f106109405761010080835404028352916020019161096b565b820191906000526020600020905b81548152906001019060200180831161094e57829003601f168201915b50505050509050919050565b82805461098390610e65565b90600052602060002090601f0160209004810192826109a557600085556109ec565b82601f106109be57805160ff19168380011785556109ec565b828001600101855582156109ec579182015b828111156109eb5782518255916020019190600101906109d0565b5b5090506109f991906109fd565b5090565b5b80821115610a165760008160009055506001016109fe565b5090565b6000604051905090565b600080fd5b600080fd5b6000819050919050565b610a4181610a2e565b8114610a4c57600080fd5b50565b600081359050610a5e81610a38565b92915050565b600060208284031215610a7a57610a79610a24565b5b6000610a8884828501610a4f565b91505092915050565b600081519050919050565b600082825260208201905092915050565b60005b83811015610acb578082015181840152602081019050610ab0565b83811115610ada576000848401525b50505050565b6000601f19601f8301169050919050565b6000610afc82610a91565b610b068185610a9c565b9350610b16818560208601610aad565b610b1f81610ae0565b840191505092915050565b60006020820190508181036000830152610b448184610af1565b905092915050565b610b5581610a2e565b82525050565b6000602082019050610b706000830184610b4c565b92915050565b600060c082019050610b8b6000830189610b4c565b8181036020830152610b9d8188610af1565b90508181036040830152610bb18187610af1565b90508181036060830152610bc58186610af1565b90508181036080830152610bd98185610af1565b905081810360a0830152610bed8184610af1565b9050979650505050505050565b600080fd5b600080fd5b7f4e487b7100000000000000000000000000000000000000000000000000000000600052604160045260246000fd5b610c3c82610ae0565b810181811067ffffffffffffffff82111715610c5b57610c5a610c04565b5b80604052505050565b6000610c6e610a1a565b9050610c7a8282610c33565b919050565b600067ffffffffffffffff821115610c9a57610c99610c04565b5b610ca382610ae0565b9050602081019050919050565b82818337600083830152505050565b6000610cd2610ccd84610c7f565b610c64565b905082815260208101848484011115610cee57610ced610bff565b5b610cf9848285610cb0565b509392505050565b600082601f830112610d1657610d15610bfa565b5b8135610d26848260208601610cbf565b91505092915050565b600080600080600060a08688031215610d4b57610d4a610a24565b5b600086013567ffffffffffffffff811115610d6957610d68610a29565b5b610d7588828901610d01565b955050602086013567ffffffffffffffff811115610d9657610d95610a29565b5b610da288828901610d01565b945050604086013567ffffffffffffffff811115610dc357610dc2610a29565b5b610dcf88828901610d01565b935050606086013567ffffffffffffffff811115610df057610def610a29565b5b610dfc88828901610d01565b925050608086013567ffffffffffffffff811115610e1d57610e1c610a29565b5b610e2988828901610d01565b9150509295509295909350565b7f4e487b7100000000000000000000000000000000000000000000000000000000600052602260045260246000fd5b60006002820490506001821680610e7d57607f821691505b60208210811415610e9157610e90610e36565b5b50919050565b7f4e487b7100000000000000000000000000000000000000000000000000000000600052601160045260246000fd5b6000610ed182610a2e565b91507fffffffffffffffffffffffffffffffffffffffffffffffffffffffffffffffff821415610f0457610f03610e97565b5b60018201905091905056fea26469706673582212200c1e4a696a5be84e6eb6db915226df39bd6b1ffb1d83cd9450e599b62bd3abf664736f6c634300080a0033",
  "immutableReferences": {},
  "source": "// SPDX-License-Identifier: MIT\r\npragma solidity >=0.4.22 <0.9.0;\r\n\r\ncontract Land {\r\n    // structs\r\n    struct Deed {\r\n        // deed instance variables\r\n        uint deedId;\r\n        string no;\r\n        string streetName;\r\n        string city;\r\n        string district;\r\n        string province;\r\n    }\r\n\r\n    // mappings\r\n    mapping(uint => Deed) public deeds;\r\n\r\n    // Count tracking variables\r\n    uint private deedCount = 0;\r\n\r\n    // getter for deed count\r\n    function getDeedCount() public view returns (uint) {\r\n        return deedCount;\r\n    }\r\n\r\n    //getters for Deed struct\r\n    function getDeedId(uint index) public view returns (uint) {\r\n        return deeds[index].deedId;\r\n    }\r\n\r\n    function getDeedNo(uint index) public view returns (string memory) {\r\n        return deeds[index].no;\r\n    }\r\n\r\n    function getDeedStreetName(uint index) public view returns (string memory) {\r\n        return deeds[index].streetName;\r\n    }\r\n\r\n    function getDeedCity(uint index) public view returns (string memory) {\r\n        return deeds[index].city;\r\n    }\r\n\r\n    function getDeedDistrict(uint index) public view returns (string memory) {\r\n        return deeds[index].district;\r\n    }\r\n\r\n    function getDeedProvince(uint index) public view returns (string memory) {\r\n        return deeds[index].province;\r\n    }\r\n\r\n    // function to add a new deed to the deeds mapping\r\n    function addNewDeed(string memory _no, string memory _streetName, string memory _city, string memory _district,string memory _province) public {\r\n        deeds[deedCount] = Deed(deedCount, _no, _streetName, _city, _district, _province);\r\n        deedCount++;\r\n    }\r\n}",
  "sourcePath": "C:\\GitHubRepos\\GitHub\\DBLOCK\\contracts\\Land.sol",
  "compiler": {
    "name": "solc",
    "version": "0.8.10+commit.fc410830.Emscripten.clang"
  },
  "schemaVersion": "3.4.3",
  "updatedAt": "2022-02-08T08:12:52.667Z",
  "networkType": "ethereum",
  "devdoc": {
    "kind": "dev",
    "methods": {},
    "version": 1
  },
  "userdoc": {
    "kind": "user",
    "methods": {},
    "version": 1
  }
}