{
  "contractName": "Land",
  "abi": [
    {
      "inputs": [
        {
          "internalType": "uint256",
          "name": "",
          "type": "uint256"
        }
      ],
      "name": "Buyerlist",
      "outputs": [
        {
          "internalType": "address",
          "name": "",
          "type": "address"
        }
      ],
      "stateMutability": "view",
      "type": "function",
      "constant": true
    },
    {
      "inputs": [
        {
          "internalType": "uint256",
          "name": "",
          "type": "uint256"
        }
      ],
      "name": "Buyersmapping",
      "outputs": [
        {
          "internalType": "uint256",
          "name": "id",
          "type": "uint256"
        },
        {
          "internalType": "string",
          "name": "nic",
          "type": "string"
        },
        {
          "internalType": "string",
          "name": "name",
          "type": "string"
        },
        {
          "internalType": "uint256",
          "name": "age",
          "type": "uint256"
        },
        {
          "internalType": "string",
          "name": "city",
          "type": "string"
        },
        {
          "internalType": "string",
          "name": "email",
          "type": "string"
        }
      ],
      "stateMutability": "view",
      "type": "function",
      "constant": true
    },
    {
      "inputs": [
        {
          "internalType": "uint256",
          "name": "",
          "type": "uint256"
        }
      ],
      "name": "Lawyersmapping",
      "outputs": [
        {
          "internalType": "uint256",
          "name": "lawyerId",
          "type": "uint256"
        },
        {
          "internalType": "string",
          "name": "lawyerName",
          "type": "string"
        },
        {
          "internalType": "string",
          "name": "lawyernic",
          "type": "string"
        },
        {
          "internalType": "string",
          "name": "lawyerRegNo",
          "type": "string"
        },
        {
          "internalType": "string",
          "name": "lawyerEmail",
          "type": "string"
        }
      ],
      "stateMutability": "view",
      "type": "function",
      "constant": true
    },
    {
      "inputs": [
        {
          "internalType": "uint256",
          "name": "",
          "type": "uint256"
        }
      ],
      "name": "adminMapping",
      "outputs": [
        {
          "internalType": "uint256",
          "name": "id",
          "type": "uint256"
        }
      ],
      "stateMutability": "view",
      "type": "function",
      "constant": true
    },
    {
      "inputs": [
        {
          "internalType": "uint256",
          "name": "",
          "type": "uint256"
        }
      ],
      "name": "deeds",
      "outputs": [
        {
          "internalType": "uint256",
          "name": "deedId",
          "type": "uint256"
        },
        {
          "internalType": "string",
          "name": "no",
          "type": "string"
        },
        {
          "internalType": "string",
          "name": "streetName",
          "type": "string"
        },
        {
          "internalType": "string",
          "name": "city",
          "type": "string"
        },
        {
          "internalType": "string",
          "name": "district",
          "type": "string"
        },
        {
          "internalType": "string",
          "name": "province",
          "type": "string"
        },
        {
          "internalType": "uint256",
          "name": "assignedLawyerId",
          "type": "uint256"
        },
        {
          "internalType": "uint256",
          "name": "assignedSellerId",
          "type": "uint256"
        }
      ],
      "stateMutability": "view",
      "type": "function",
      "constant": true
    },
    {
      "inputs": [
        {
          "internalType": "uint256",
          "name": "",
          "type": "uint256"
        }
      ],
      "name": "lawyerList",
      "outputs": [
        {
          "internalType": "address",
          "name": "",
          "type": "address"
        }
      ],
      "stateMutability": "view",
      "type": "function",
      "constant": true
    },
    {
      "inputs": [
        {
          "internalType": "uint256",
          "name": "",
          "type": "uint256"
        }
      ],
      "name": "sellerList",
      "outputs": [
        {
          "internalType": "address",
          "name": "",
          "type": "address"
        }
      ],
      "stateMutability": "view",
      "type": "function",
      "constant": true
    },
    {
      "inputs": [
        {
          "internalType": "uint256",
          "name": "",
          "type": "uint256"
        }
      ],
      "name": "sellersMapping",
      "outputs": [
        {
          "internalType": "string",
          "name": "name",
          "type": "string"
        },
        {
          "internalType": "uint256",
          "name": "id",
          "type": "uint256"
        },
        {
          "internalType": "string",
          "name": "nic",
          "type": "string"
        },
        {
          "internalType": "uint256",
          "name": "age",
          "type": "uint256"
        },
        {
          "internalType": "string",
          "name": "city",
          "type": "string"
        },
        {
          "internalType": "string",
          "name": "email",
          "type": "string"
        }
      ],
      "stateMutability": "view",
      "type": "function",
      "constant": true
    },
    {
      "inputs": [],
      "name": "getDeedCount",
      "outputs": [
        {
          "internalType": "uint256",
          "name": "",
          "type": "uint256"
        }
      ],
      "stateMutability": "view",
      "type": "function",
      "constant": true
    },
    {
      "inputs": [],
      "name": "getBuyersCount",
      "outputs": [
        {
          "internalType": "uint256",
          "name": "",
          "type": "uint256"
        }
      ],
      "stateMutability": "view",
      "type": "function",
      "constant": true
    },
    {
      "inputs": [],
      "name": "getLawyerCount",
      "outputs": [
        {
          "internalType": "uint256",
          "name": "",
          "type": "uint256"
        }
      ],
      "stateMutability": "view",
      "type": "function",
      "constant": true
    },
    {
      "inputs": [],
      "name": "getSellersCount",
      "outputs": [
        {
          "internalType": "uint256",
          "name": "",
          "type": "uint256"
        }
      ],
      "stateMutability": "view",
      "type": "function",
      "constant": true
    },
    {
      "inputs": [],
      "name": "getAdminCount",
      "outputs": [
        {
          "internalType": "uint256",
          "name": "",
          "type": "uint256"
        }
      ],
      "stateMutability": "view",
      "type": "function",
      "constant": true
    },
    {
      "inputs": [
        {
          "internalType": "uint256",
          "name": "index",
          "type": "uint256"
        }
      ],
      "name": "getDeedId",
      "outputs": [
        {
          "internalType": "uint256",
          "name": "",
          "type": "uint256"
        }
      ],
      "stateMutability": "view",
      "type": "function",
      "constant": true
    },
    {
      "inputs": [
        {
          "internalType": "uint256",
          "name": "index",
          "type": "uint256"
        }
      ],
      "name": "getDeedNo",
      "outputs": [
        {
          "internalType": "string",
          "name": "",
          "type": "string"
        }
      ],
      "stateMutability": "view",
      "type": "function",
      "constant": true
    },
    {
      "inputs": [
        {
          "internalType": "uint256",
          "name": "index",
          "type": "uint256"
        }
      ],
      "name": "getDeedStreetName",
      "outputs": [
        {
          "internalType": "string",
          "name": "",
          "type": "string"
        }
      ],
      "stateMutability": "view",
      "type": "function",
      "constant": true
    },
    {
      "inputs": [
        {
          "internalType": "uint256",
          "name": "index",
          "type": "uint256"
        }
      ],
      "name": "getDeedCity",
      "outputs": [
        {
          "internalType": "string",
          "name": "",
          "type": "string"
        }
      ],
      "stateMutability": "view",
      "type": "function",
      "constant": true
    },
    {
      "inputs": [
        {
          "internalType": "uint256",
          "name": "index",
          "type": "uint256"
        }
      ],
      "name": "getDeedDistrict",
      "outputs": [
        {
          "internalType": "string",
          "name": "",
          "type": "string"
        }
      ],
      "stateMutability": "view",
      "type": "function",
      "constant": true
    },
    {
      "inputs": [
        {
          "internalType": "uint256",
          "name": "index",
          "type": "uint256"
        }
      ],
      "name": "getDeedProvince",
      "outputs": [
        {
          "internalType": "string",
          "name": "",
          "type": "string"
        }
      ],
      "stateMutability": "view",
      "type": "function",
      "constant": true
    },
    {
      "inputs": [
        {
          "internalType": "uint256",
          "name": "index",
          "type": "uint256"
        }
      ],
      "name": "getLawyerIdOfDeed",
      "outputs": [
        {
          "internalType": "uint256",
          "name": "",
          "type": "uint256"
        }
      ],
      "stateMutability": "view",
      "type": "function",
      "constant": true
    },
    {
      "inputs": [
        {
          "internalType": "uint256",
          "name": "index",
          "type": "uint256"
        }
      ],
      "name": "getSellerIdOfDeed",
      "outputs": [
        {
          "internalType": "uint256",
          "name": "",
          "type": "uint256"
        }
      ],
      "stateMutability": "view",
      "type": "function",
      "constant": true
    },
    {
      "inputs": [],
      "name": "getBuyer",
      "outputs": [
        {
          "internalType": "address[]",
          "name": "",
          "type": "address[]"
        }
      ],
      "stateMutability": "view",
      "type": "function",
      "constant": true
    },
    {
      "inputs": [],
      "name": "getSeller",
      "outputs": [
        {
          "internalType": "address[]",
          "name": "",
          "type": "address[]"
        }
      ],
      "stateMutability": "view",
      "type": "function",
      "constant": true
    },
    {
      "inputs": [],
      "name": "getLawyer",
      "outputs": [
        {
          "internalType": "address[]",
          "name": "",
          "type": "address[]"
        }
      ],
      "stateMutability": "view",
      "type": "function",
      "constant": true
    },
    {
      "inputs": [
        {
          "internalType": "string",
          "name": "_no",
          "type": "string"
        },
        {
          "internalType": "string",
          "name": "_streetName",
          "type": "string"
        },
        {
          "internalType": "string",
          "name": "_city",
          "type": "string"
        },
        {
          "internalType": "string",
          "name": "_district",
          "type": "string"
        },
        {
          "internalType": "string",
          "name": "_province",
          "type": "string"
        },
        {
          "internalType": "uint256",
          "name": "_assignedLawyerId",
          "type": "uint256"
        },
        {
          "internalType": "uint256",
          "name": "_assignedSellerId",
          "type": "uint256"
        }
      ],
      "name": "addNewDeed",
      "outputs": [],
      "stateMutability": "nonpayable",
      "type": "function"
    },
    {
      "inputs": [
        {
          "internalType": "uint256",
          "name": "_id",
          "type": "uint256"
        },
        {
          "internalType": "string",
          "name": "_nic",
          "type": "string"
        },
        {
          "internalType": "string",
          "name": "_name",
          "type": "string"
        },
        {
          "internalType": "uint256",
          "name": "_age",
          "type": "uint256"
        },
        {
          "internalType": "string",
          "name": "_city",
          "type": "string"
        },
        {
          "internalType": "string",
          "name": "_email",
          "type": "string"
        }
      ],
      "name": "registerBuyer",
      "outputs": [],
      "stateMutability": "nonpayable",
      "type": "function"
    },
    {
      "inputs": [
        {
          "internalType": "string",
          "name": "_name",
          "type": "string"
        },
        {
          "internalType": "uint256",
          "name": "_id",
          "type": "uint256"
        },
        {
          "internalType": "string",
          "name": "_nic",
          "type": "string"
        },
        {
          "internalType": "uint256",
          "name": "_age",
          "type": "uint256"
        },
        {
          "internalType": "string",
          "name": "_city",
          "type": "string"
        },
        {
          "internalType": "string",
          "name": "_email",
          "type": "string"
        }
      ],
      "name": "registerSeller",
      "outputs": [],
      "stateMutability": "nonpayable",
      "type": "function"
    },
    {
      "inputs": [
        {
          "internalType": "uint256",
          "name": "_lawyerId",
          "type": "uint256"
        },
        {
          "internalType": "string",
          "name": "_lawyerName",
          "type": "string"
        },
        {
          "internalType": "string",
          "name": "_lawyernic",
          "type": "string"
        },
        {
          "internalType": "string",
          "name": "_lawyerRegNo",
          "type": "string"
        },
        {
          "internalType": "string",
          "name": "_lawyerEmail",
          "type": "string"
        }
      ],
      "name": "registerLawyer",
      "outputs": [],
      "stateMutability": "nonpayable",
      "type": "function"
    },
    {
      "inputs": [
        {
          "internalType": "uint256",
          "name": "index",
          "type": "uint256"
        }
      ],
      "name": "displayBuyer",
      "outputs": [
        {
          "internalType": "uint256",
          "name": "_id",
          "type": "uint256"
        },
        {
          "internalType": "string",
          "name": "_nic",
          "type": "string"
        },
        {
          "internalType": "string",
          "name": "_name",
          "type": "string"
        },
        {
          "internalType": "uint256",
          "name": "_age",
          "type": "uint256"
        },
        {
          "internalType": "string",
          "name": "_city",
          "type": "string"
        },
        {
          "internalType": "string",
          "name": "_email",
          "type": "string"
        }
      ],
      "stateMutability": "view",
      "type": "function",
      "constant": true
    },
    {
      "inputs": [
        {
          "internalType": "uint256",
          "name": "index",
          "type": "uint256"
        }
      ],
      "name": "displaySeller",
      "outputs": [
        {
          "internalType": "string",
          "name": "_name",
          "type": "string"
        },
        {
          "internalType": "uint256",
          "name": "_id",
          "type": "uint256"
        },
        {
          "internalType": "string",
          "name": "_nic",
          "type": "string"
        },
        {
          "internalType": "uint256",
          "name": "_age",
          "type": "uint256"
        },
        {
          "internalType": "string",
          "name": "_city",
          "type": "string"
        },
        {
          "internalType": "string",
          "name": "_email",
          "type": "string"
        }
      ],
      "stateMutability": "view",
      "type": "function",
      "constant": true
    },
    {
      "inputs": [
        {
          "internalType": "uint256",
          "name": "index",
          "type": "uint256"
        }
      ],
      "name": "displayLawyer",
      "outputs": [
        {
          "internalType": "uint256",
          "name": "_lawyerId",
          "type": "uint256"
        },
        {
          "internalType": "string",
          "name": "_lawyerName",
          "type": "string"
        },
        {
          "internalType": "string",
          "name": "_lawyernic",
          "type": "string"
        },
        {
          "internalType": "string",
          "name": "_lawyerRegNo",
          "type": "string"
        },
        {
          "internalType": "string",
          "name": "_lawyerEmail",
          "type": "string"
        }
      ],
      "stateMutability": "view",
      "type": "function",
      "constant": true
    }
  ],
  "bytecode": "0x6080604052600060085560006009556000600a556000600b556000600c5534801561002957600080fd5b50612f2c806100396000396000f3fe608060405234801561001057600080fd5b50600436106101e55760003560e01c8063721fa4181161010f578063cff0c7c0116100a2578063f0b93af911610071578063f0b93af91461064f578063f0d3a9df1461067f578063f42a1b311461069d578063ffb434fb146106cd576101e5565b8063cff0c7c0146105aa578063dbd0e1b6146105de578063dd9d122d146105fc578063e51374591461061a576101e5565b80638d096855116100de5780638d096855146104f9578063916a1c701461051557806393addc08146105455780639cd681f51461057a576101e5565b8063721fa4181461046c5780637c6eb1031461048857806380014029146104bd5780638b7bf3eb146104db576101e5565b806332a678531161018757806355bb2bcc1161015657806355bb2bcc146103cc5780635dd5679814610400578063603daf9a14610430578063655dc4c21461044e576101e5565b806332a6785314610332578063334bb7451461036257806335a82e721461038057806342da3b1a146103b0576101e5565b806318edf564116101c357806318edf5641461027a57806321eb5a7c146102b1578063275ea7cf146102e157806327dc19dd14610316576101e5565b806305624d35146101ea5780630df7ec241461021a578063119d41f41461024a575b600080fd5b61020460048036038101906101ff919061247d565b6106fd565b6040516102119190612543565b60405180910390f35b610234600480360381019061022f919061247d565b6107a4565b6040516102419190612574565b60405180910390f35b610264600480360381019061025f919061247d565b6107c3565b60405161027191906125d0565b60405180910390f35b610294600480360381019061028f919061247d565b610802565b6040516102a89897969594939291906125eb565b60405180910390f35b6102cb60048036038101906102c6919061247d565b610af2565b6040516102d89190612574565b60405180910390f35b6102fb60048036038101906102f6919061247d565b610b10565b60405161030d9695949392919061268c565b60405180910390f35b610330600480360381019061032b919061283e565b610de5565b005b61034c6004803603810190610347919061247d565b610ec1565b6040516103599190612543565b60405180910390f35b61036a610f68565b6040516103779190612574565b60405180910390f35b61039a6004803603810190610395919061247d565b610f72565b6040516103a79190612574565b60405180910390f35b6103ca60048036038101906103c59190612929565b610f91565b005b6103e660048036038101906103e1919061247d565b61107e565b6040516103f7959493929190612a26565b60405180910390f35b61041a6004803603810190610415919061247d565b611338565b6040516104279190612574565b60405180910390f35b610438611357565b6040516104459190612b53565b60405180910390f35b6104566113e5565b6040516104639190612574565b60405180910390f35b61048660048036038101906104819190612b75565b6113ef565b005b6104a2600480360381019061049d919061247d565b611512565b6040516104b496959493929190612ca3565b60405180910390f35b6104c561176e565b6040516104d29190612b53565b60405180910390f35b6104e36117fc565b6040516104f09190612574565b60405180910390f35b610513600480360381019061050e9190612d20565b611806565b005b61052f600480360381019061052a919061247d565b6118f3565b60405161053c91906125d0565b60405180910390f35b61055f600480360381019061055a919061247d565b611932565b6040516105719695949392919061268c565b60405180910390f35b610594600480360381019061058f919061247d565b611b8e565b6040516105a19190612543565b60405180910390f35b6105c460048036038101906105bf919061247d565b611c35565b6040516105d5959493929190612a26565b60405180910390f35b6105e6611e8b565b6040516105f39190612b53565b60405180910390f35b610604611f19565b6040516106119190612574565b60405180910390f35b610634600480360381019061062f919061247d565b611f23565b60405161064696959493929190612ca3565b60405180910390f35b6106696004803603810190610664919061247d565b6121f9565b6040516106769190612543565b60405180910390f35b6106876122a0565b6040516106949190612574565b60405180910390f35b6106b760048036038101906106b2919061247d565b6122aa565b6040516106c491906125d0565b60405180910390f35b6106e760048036038101906106e2919061247d565b6122e9565b6040516106f49190612543565b60405180910390f35b6060600080838152602001908152602001600020600401805461071f90612e4c565b80601f016020809104026020016040519081016040528092919081815260200182805461074b90612e4c565b80156107985780601f1061076d57610100808354040283529160200191610798565b820191906000526020600020905b81548152906001019060200180831161077b57829003601f168201915b50505050509050919050565b6000806000838152602001908152602001600020600001549050919050565b600581815481106107d357600080fd5b906000526020600020016000915054906101000a900473ffffffffffffffffffffffffffffffffffffffff1681565b600060205280600052604060002060009150905080600001549080600101805461082b90612e4c565b80601f016020809104026020016040519081016040528092919081815260200182805461085790612e4c565b80156108a45780601f10610879576101008083540402835291602001916108a4565b820191906000526020600020905b81548152906001019060200180831161088757829003601f168201915b5050505050908060020180546108b990612e4c565b80601f01602080910402602001604051908101604052809291908181526020018280546108e590612e4c565b80156109325780601f1061090757610100808354040283529160200191610932565b820191906000526020600020905b81548152906001019060200180831161091557829003601f168201915b50505050509080600301805461094790612e4c565b80601f016020809104026020016040519081016040528092919081815260200182805461097390612e4c565b80156109c05780601f10610995576101008083540402835291602001916109c0565b820191906000526020600020905b8154815290600101906020018083116109a357829003601f168201915b5050505050908060040180546109d590612e4c565b80601f0160208091040260200160405190810160405280929190818152602001828054610a0190612e4c565b8015610a4e5780601f10610a2357610100808354040283529160200191610a4e565b820191906000526020600020905b815481529060010190602001808311610a3157829003601f168201915b505050505090806005018054610a6390612e4c565b80601f0160208091040260200160405190810160405280929190818152602001828054610a8f90612e4c565b8015610adc5780601f10610ab157610100808354040283529160200191610adc565b820191906000526020600020905b815481529060010190602001808311610abf57829003601f168201915b5050505050908060060154908060070154905088565b60046020528060005260406000206000915090508060000154905081565b60006060806000606080600160008881526020019081526020016000206000015460016000898152602001908152602001600020600101600160008a8152602001908152602001600020600201600160008b815260200190815260200160002060030154600160008c8152602001908152602001600020600401600160008d8152602001908152602001600020600501848054610bac90612e4c565b80601f0160208091040260200160405190810160405280929190818152602001828054610bd890612e4c565b8015610c255780601f10610bfa57610100808354040283529160200191610c25565b820191906000526020600020905b815481529060010190602001808311610c0857829003601f168201915b50505050509450838054610c3890612e4c565b80601f0160208091040260200160405190810160405280929190818152602001828054610c6490612e4c565b8015610cb15780601f10610c8657610100808354040283529160200191610cb1565b820191906000526020600020905b815481529060010190602001808311610c9457829003601f168201915b50505050509350818054610cc490612e4c565b80601f0160208091040260200160405190810160405280929190818152602001828054610cf090612e4c565b8015610d3d5780601f10610d1257610100808354040283529160200191610d3d565b820191906000526020600020905b815481529060010190602001808311610d2057829003601f168201915b50505050509150808054610d5090612e4c565b80601f0160208091040260200160405190810160405280929190818152602001828054610d7c90612e4c565b8015610dc95780601f10610d9e57610100808354040283529160200191610dc9565b820191906000526020600020905b815481529060010190602001808311610dac57829003601f168201915b5050505050905095509550955095509550955091939550919395565b6040518060a001604052808681526020018581526020018481526020018381526020018281525060036000600b548152602001908152602001600020600082015181600001556020820151816001019080519060200190610e47929190612390565b506040820151816002019080519060200190610e64929190612390565b506060820151816003019080519060200190610e81929190612390565b506080820151816004019080519060200190610e9e929190612390565b50905050600b6000815480929190610eb590612ead565b91905055505050505050565b60606000808381526020019081526020016000206001018054610ee390612e4c565b80601f0160208091040260200160405190810160405280929190818152602001828054610f0f90612e4c565b8015610f5c5780601f10610f3157610100808354040283529160200191610f5c565b820191906000526020600020905b815481529060010190602001808311610f3f57829003601f168201915b50505050509050919050565b6000600854905090565b6000806000838152602001908152602001600020600601549050919050565b6040518060c001604052808781526020018681526020018581526020018481526020018381526020018281525060026000600a5481526020019081526020016000206000820151816000019080519060200190610fef929190612390565b50602082015181600101556040820151816002019080519060200190611016929190612390565b5060608201518160030155608082015181600401908051906020019061103d929190612390565b5060a082015181600501908051906020019061105a929190612390565b50905050600a600081548092919061107190612ead565b9190505550505050505050565b600060608060608060036000878152602001908152602001600020600001546003600088815260200190815260200160002060010160036000898152602001908152602001600020600201600360008a8152602001908152602001600020600301600360008b815260200190815260200160002060040183805461110190612e4c565b80601f016020809104026020016040519081016040528092919081815260200182805461112d90612e4c565b801561117a5780601f1061114f5761010080835404028352916020019161117a565b820191906000526020600020905b81548152906001019060200180831161115d57829003601f168201915b5050505050935082805461118d90612e4c565b80601f01602080910402602001604051908101604052809291908181526020018280546111b990612e4c565b80156112065780601f106111db57610100808354040283529160200191611206565b820191906000526020600020905b8154815290600101906020018083116111e957829003601f168201915b5050505050925081805461121990612e4c565b80601f016020809104026020016040519081016040528092919081815260200182805461124590612e4c565b80156112925780601f1061126757610100808354040283529160200191611292565b820191906000526020600020905b81548152906001019060200180831161127557829003601f168201915b505050505091508080546112a590612e4c565b80601f01602080910402602001604051908101604052809291908181526020018280546112d190612e4c565b801561131e5780601f106112f35761010080835404028352916020019161131e565b820191906000526020600020905b81548152906001019060200180831161130157829003601f168201915b505050505090509450945094509450945091939590929450565b6000806000838152602001908152602001600020600701549050919050565b606060058054806020026020016040519081016040528092919081815260200182805480156113db57602002820191906000526020600020905b8160009054906101000a900473ffffffffffffffffffffffffffffffffffffffff1673ffffffffffffffffffffffffffffffffffffffff1681526020019060010190808311611391575b5050505050905090565b6000600b54905090565b6040518061010001604052806008548152602001888152602001878152602001868152602001858152602001848152602001838152602001828152506000806008548152602001908152602001600020600082015181600001556020820151816001019080519060200190611465929190612390565b506040820151816002019080519060200190611482929190612390565b50606082015181600301908051906020019061149f929190612390565b5060808201518160040190805190602001906114bc929190612390565b5060a08201518160050190805190602001906114d9929190612390565b5060c0820151816006015560e082015181600701559050506008600081548092919061150490612ead565b919050555050505050505050565b600260205280600052604060002060009150905080600001805461153590612e4c565b80601f016020809104026020016040519081016040528092919081815260200182805461156190612e4c565b80156115ae5780601f10611583576101008083540402835291602001916115ae565b820191906000526020600020905b81548152906001019060200180831161159157829003601f168201915b5050505050908060010154908060020180546115c990612e4c565b80601f01602080910402602001604051908101604052809291908181526020018280546115f590612e4c565b80156116425780601f1061161757610100808354040283529160200191611642565b820191906000526020600020905b81548152906001019060200180831161162557829003601f168201915b50505050509080600301549080600401805461165d90612e4c565b80601f016020809104026020016040519081016040528092919081815260200182805461168990612e4c565b80156116d65780601f106116ab576101008083540402835291602001916116d6565b820191906000526020600020905b8154815290600101906020018083116116b957829003601f168201915b5050505050908060050180546116eb90612e4c565b80601f016020809104026020016040519081016040528092919081815260200182805461171790612e4c565b80156117645780601f1061173957610100808354040283529160200191611764565b820191906000526020600020905b81548152906001019060200180831161174757829003601f168201915b5050505050905086565b606060078054806020026020016040519081016040528092919081815260200182805480156117f257602002820191906000526020600020905b8160009054906101000a900473ffffffffffffffffffffffffffffffffffffffff1673ffffffffffffffffffffffffffffffffffffffff16815260200190600101908083116117a8575b5050505050905090565b6000600c54905090565b6040518060c001604052808781526020018681526020018581526020018481526020018381526020018281525060016000600954815260200190815260200160002060008201518160000155602082015181600101908051906020019061186e929190612390565b50604082015181600201908051906020019061188b929190612390565b506060820151816003015560808201518160040190805190602001906118b2929190612390565b5060a08201518160050190805190602001906118cf929190612390565b50905050600960008154809291906118e690612ead565b9190505550505050505050565b6007818154811061190357600080fd5b906000526020600020016000915054906101000a900473ffffffffffffffffffffffffffffffffffffffff1681565b600160205280600052604060002060009150905080600001549080600101805461195b90612e4c565b80601f016020809104026020016040519081016040528092919081815260200182805461198790612e4c565b80156119d45780601f106119a9576101008083540402835291602001916119d4565b820191906000526020600020905b8154815290600101906020018083116119b757829003601f168201915b5050505050908060020180546119e990612e4c565b80601f0160208091040260200160405190810160405280929190818152602001828054611a1590612e4c565b8015611a625780601f10611a3757610100808354040283529160200191611a62565b820191906000526020600020905b815481529060010190602001808311611a4557829003601f168201915b505050505090806003015490806004018054611a7d90612e4c565b80601f0160208091040260200160405190810160405280929190818152602001828054611aa990612e4c565b8015611af65780601f10611acb57610100808354040283529160200191611af6565b820191906000526020600020905b815481529060010190602001808311611ad957829003601f168201915b505050505090806005018054611b0b90612e4c565b80601f0160208091040260200160405190810160405280929190818152602001828054611b3790612e4c565b8015611b845780601f10611b5957610100808354040283529160200191611b84565b820191906000526020600020905b815481529060010190602001808311611b6757829003601f168201915b5050505050905086565b60606000808381526020019081526020016000206005018054611bb090612e4c565b80601f0160208091040260200160405190810160405280929190818152602001828054611bdc90612e4c565b8015611c295780601f10611bfe57610100808354040283529160200191611c29565b820191906000526020600020905b815481529060010190602001808311611c0c57829003601f168201915b50505050509050919050565b6003602052806000526040600020600091509050806000015490806001018054611c5e90612e4c565b80601f0160208091040260200160405190810160405280929190818152602001828054611c8a90612e4c565b8015611cd75780601f10611cac57610100808354040283529160200191611cd7565b820191906000526020600020905b815481529060010190602001808311611cba57829003601f168201915b505050505090806002018054611cec90612e4c565b80601f0160208091040260200160405190810160405280929190818152602001828054611d1890612e4c565b8015611d655780601f10611d3a57610100808354040283529160200191611d65565b820191906000526020600020905b815481529060010190602001808311611d4857829003601f168201915b505050505090806003018054611d7a90612e4c565b80601f0160208091040260200160405190810160405280929190818152602001828054611da690612e4c565b8015611df35780601f10611dc857610100808354040283529160200191611df3565b820191906000526020600020905b815481529060010190602001808311611dd657829003601f168201915b505050505090806004018054611e0890612e4c565b80601f0160208091040260200160405190810160405280929190818152602001828054611e3490612e4c565b8015611e815780601f10611e5657610100808354040283529160200191611e81565b820191906000526020600020905b815481529060010190602001808311611e6457829003601f168201915b5050505050905085565b60606006805480602002602001604051908101604052809291908181526020018280548015611f0f57602002820191906000526020600020905b8160009054906101000a900473ffffffffffffffffffffffffffffffffffffffff1673ffffffffffffffffffffffffffffffffffffffff1681526020019060010190808311611ec5575b5050505050905090565b6000600a54905090565b6060600060606000606080600260008881526020019081526020016000206000016002600089815260200190815260200160002060010154600260008a8152602001908152602001600020600201600260008b815260200190815260200160002060030154600260008c8152602001908152602001600020600401600260008d8152602001908152602001600020600501858054611fc090612e4c565b80601f0160208091040260200160405190810160405280929190818152602001828054611fec90612e4c565b80156120395780601f1061200e57610100808354040283529160200191612039565b820191906000526020600020905b81548152906001019060200180831161201c57829003601f168201915b5050505050955083805461204c90612e4c565b80601f016020809104026020016040519081016040528092919081815260200182805461207890612e4c565b80156120c55780601f1061209a576101008083540402835291602001916120c5565b820191906000526020600020905b8154815290600101906020018083116120a857829003601f168201915b505050505093508180546120d890612e4c565b80601f016020809104026020016040519081016040528092919081815260200182805461210490612e4c565b80156121515780601f1061212657610100808354040283529160200191612151565b820191906000526020600020905b81548152906001019060200180831161213457829003601f168201915b5050505050915080805461216490612e4c565b80601f016020809104026020016040519081016040528092919081815260200182805461219090612e4c565b80156121dd5780601f106121b2576101008083540402835291602001916121dd565b820191906000526020600020905b8154815290600101906020018083116121c057829003601f168201915b5050505050905095509550955095509550955091939550919395565b6060600080838152602001908152602001600020600301805461221b90612e4c565b80601f016020809104026020016040519081016040528092919081815260200182805461224790612e4c565b80156122945780601f1061226957610100808354040283529160200191612294565b820191906000526020600020905b81548152906001019060200180831161227757829003601f168201915b50505050509050919050565b6000600954905090565b600681815481106122ba57600080fd5b906000526020600020016000915054906101000a900473ffffffffffffffffffffffffffffffffffffffff1681565b6060600080838152602001908152602001600020600201805461230b90612e4c565b80601f016020809104026020016040519081016040528092919081815260200182805461233790612e4c565b80156123845780601f1061235957610100808354040283529160200191612384565b820191906000526020600020905b81548152906001019060200180831161236757829003601f168201915b50505050509050919050565b82805461239c90612e4c565b90600052602060002090601f0160209004810192826123be5760008555612405565b82601f106123d757805160ff1916838001178555612405565b82800160010185558215612405579182015b828111156124045782518255916020019190600101906123e9565b5b5090506124129190612416565b5090565b5b8082111561242f576000816000905550600101612417565b5090565b6000604051905090565b600080fd5b600080fd5b6000819050919050565b61245a81612447565b811461246557600080fd5b50565b60008135905061247781612451565b92915050565b6000602082840312156124935761249261243d565b5b60006124a184828501612468565b91505092915050565b600081519050919050565b600082825260208201905092915050565b60005b838110156124e45780820151818401526020810190506124c9565b838111156124f3576000848401525b50505050565b6000601f19601f8301169050919050565b6000612515826124aa565b61251f81856124b5565b935061252f8185602086016124c6565b612538816124f9565b840191505092915050565b6000602082019050818103600083015261255d818461250a565b905092915050565b61256e81612447565b82525050565b60006020820190506125896000830184612565565b92915050565b600073ffffffffffffffffffffffffffffffffffffffff82169050919050565b60006125ba8261258f565b9050919050565b6125ca816125af565b82525050565b60006020820190506125e560008301846125c1565b92915050565b600061010082019050612601600083018b612565565b8181036020830152612613818a61250a565b90508181036040830152612627818961250a565b9050818103606083015261263b818861250a565b9050818103608083015261264f818761250a565b905081810360a0830152612663818661250a565b905061267260c0830185612565565b61267f60e0830184612565565b9998505050505050505050565b600060c0820190506126a16000830189612565565b81810360208301526126b3818861250a565b905081810360408301526126c7818761250a565b90506126d66060830186612565565b81810360808301526126e8818561250a565b905081810360a08301526126fc818461250a565b9050979650505050505050565b600080fd5b600080fd5b7f4e487b7100000000000000000000000000000000000000000000000000000000600052604160045260246000fd5b61274b826124f9565b810181811067ffffffffffffffff8211171561276a57612769612713565b5b80604052505050565b600061277d612433565b90506127898282612742565b919050565b600067ffffffffffffffff8211156127a9576127a8612713565b5b6127b2826124f9565b9050602081019050919050565b82818337600083830152505050565b60006127e16127dc8461278e565b612773565b9050828152602081018484840111156127fd576127fc61270e565b5b6128088482856127bf565b509392505050565b600082601f83011261282557612824612709565b5b81356128358482602086016127ce565b91505092915050565b600080600080600060a0868803121561285a5761285961243d565b5b600061286888828901612468565b955050602086013567ffffffffffffffff81111561288957612888612442565b5b61289588828901612810565b945050604086013567ffffffffffffffff8111156128b6576128b5612442565b5b6128c288828901612810565b935050606086013567ffffffffffffffff8111156128e3576128e2612442565b5b6128ef88828901612810565b925050608086013567ffffffffffffffff8111156129105761290f612442565b5b61291c88828901612810565b9150509295509295909350565b60008060008060008060c087890312156129465761294561243d565b5b600087013567ffffffffffffffff81111561296457612963612442565b5b61297089828a01612810565b965050602061298189828a01612468565b955050604087013567ffffffffffffffff8111156129a2576129a1612442565b5b6129ae89828a01612810565b94505060606129bf89828a01612468565b935050608087013567ffffffffffffffff8111156129e0576129df612442565b5b6129ec89828a01612810565b92505060a087013567ffffffffffffffff811115612a0d57612a0c612442565b5b612a1989828a01612810565b9150509295509295509295565b600060a082019050612a3b6000830188612565565b8181036020830152612a4d818761250a565b90508181036040830152612a61818661250a565b90508181036060830152612a75818561250a565b90508181036080830152612a89818461250a565b90509695505050505050565b600081519050919050565b600082825260208201905092915050565b6000819050602082019050919050565b612aca816125af565b82525050565b6000612adc8383612ac1565b60208301905092915050565b6000602082019050919050565b6000612b0082612a95565b612b0a8185612aa0565b9350612b1583612ab1565b8060005b83811015612b46578151612b2d8882612ad0565b9750612b3883612ae8565b925050600181019050612b19565b5085935050505092915050565b60006020820190508181036000830152612b6d8184612af5565b905092915050565b600080600080600080600060e0888a031215612b9457612b9361243d565b5b600088013567ffffffffffffffff811115612bb257612bb1612442565b5b612bbe8a828b01612810565b975050602088013567ffffffffffffffff811115612bdf57612bde612442565b5b612beb8a828b01612810565b965050604088013567ffffffffffffffff811115612c0c57612c0b612442565b5b612c188a828b01612810565b955050606088013567ffffffffffffffff811115612c3957612c38612442565b5b612c458a828b01612810565b945050608088013567ffffffffffffffff811115612c6657612c65612442565b5b612c728a828b01612810565b93505060a0612c838a828b01612468565b92505060c0612c948a828b01612468565b91505092959891949750929550565b600060c0820190508181036000830152612cbd818961250a565b9050612ccc6020830188612565565b8181036040830152612cde818761250a565b9050612ced6060830186612565565b8181036080830152612cff818561250a565b905081810360a0830152612d13818461250a565b9050979650505050505050565b60008060008060008060c08789031215612d3d57612d3c61243d565b5b6000612d4b89828a01612468565b965050602087013567ffffffffffffffff811115612d6c57612d6b612442565b5b612d7889828a01612810565b955050604087013567ffffffffffffffff811115612d9957612d98612442565b5b612da589828a01612810565b9450506060612db689828a01612468565b935050608087013567ffffffffffffffff811115612dd757612dd6612442565b5b612de389828a01612810565b92505060a087013567ffffffffffffffff811115612e0457612e03612442565b5b612e1089828a01612810565b9150509295509295509295565b7f4e487b7100000000000000000000000000000000000000000000000000000000600052602260045260246000fd5b60006002820490506001821680612e6457607f821691505b60208210811415612e7857612e77612e1d565b5b50919050565b7f4e487b7100000000000000000000000000000000000000000000000000000000600052601160045260246000fd5b6000612eb882612447565b91507fffffffffffffffffffffffffffffffffffffffffffffffffffffffffffffffff821415612eeb57612eea612e7e565b5b60018201905091905056fea26469706673582212206555f22089b4ace0772d90dbef8e05bd00a1f77136033fcb96cba00b11e85e1364736f6c634300080a0033",
  "immutableReferences": {},
  "source": "// SPDX-License-Identifier: MIT\r\npragma solidity >=0.4.22 <0.9.0;\r\n\r\ncontract Land {\r\n    // structs\r\n    struct Deed {\r\n        // deed instance variables\r\n        uint deedId;\r\n        string no;\r\n        string streetName;\r\n        string city;\r\n        string district;\r\n        string province;\r\n        uint assignedLawyerId; // to link the relevant lawyer to the deed\r\n        uint assignedSellerId; // to link the seller lawyer to the deed\r\n    }\r\n\r\n    struct Buyer{\r\n        // Buyer instance variables\r\n       uint id;\r\n       string nic;\r\n       string name;\r\n       uint age;\r\n       string city;\r\n       string email; \r\n    }\r\n\r\n    struct Lawyer{\r\n        // Lawyer instance variables\r\n        uint lawyerId;\r\n        string lawyerName;\r\n        string lawyernic;\r\n        string lawyerRegNo;\r\n        string lawyerEmail;\r\n    }\r\n\r\n    struct Seller {\r\n        // Seller instance variables\r\n        string name;\r\n\t\tuint id;\r\n\t\tstring nic;\r\n        uint age;\r\n        string city;\r\n\t\tstring email;\r\n    }\r\n\r\n    struct Admin {\r\n        // Admin instance variables\r\n        uint id;\r\n    }\r\n\r\n    // mappings\r\n    mapping(uint => Deed) public deeds;\r\n    mapping(uint => Buyer) public Buyersmapping;\r\n    mapping(uint => Seller) public sellersMapping;\r\n    mapping(uint => Lawyer) public Lawyersmapping;\r\n    mapping(uint => Admin) public adminMapping;\r\n    \r\n    //arrays\r\n    address[] public Buyerlist;\r\n    address[] public sellerList;\r\n    address[] public lawyerList;\r\n\r\n    // Count tracking variables\r\n    uint private deedCount = 0;\r\n    uint private buyersCount = 0;\r\n    uint private sellersCount = 0;\r\n    uint private lawyerCount=0;\r\n    uint private adminCount = 0;\r\n\r\n    // getter for deed count\r\n    function getDeedCount() public view returns (uint) {\r\n        return deedCount;\r\n    }\r\n\r\n    // getter for buyer count\r\n    function getBuyersCount() public view returns(uint){\r\n        return buyersCount;\r\n    }\r\n\r\n    // getter for lawyer count\r\n    function getLawyerCount() public view returns(uint){\r\n        return lawyerCount;\r\n    }\r\n\r\n    // getter for seller count\r\n    function getSellersCount() public view returns(uint){\r\n        return sellersCount;\r\n    }\r\n\r\n    // getter for admin count\r\n    function getAdminCount() public view returns(uint){\r\n        return adminCount;\r\n    }\r\n\r\n    //getters for Deed struct\r\n    function getDeedId(uint index) public view returns (uint) {\r\n        return deeds[index].deedId;\r\n    }\r\n\r\n    function getDeedNo(uint index) public view returns (string memory) {\r\n        return deeds[index].no;\r\n    }\r\n\r\n    function getDeedStreetName(uint index) public view returns (string memory) {\r\n        return deeds[index].streetName;\r\n    }\r\n\r\n    function getDeedCity(uint index) public view returns (string memory) {\r\n        return deeds[index].city;\r\n    }\r\n\r\n    function getDeedDistrict(uint index) public view returns (string memory) {\r\n        return deeds[index].district;\r\n    }\r\n\r\n    function getDeedProvince(uint index) public view returns (string memory) {\r\n        return deeds[index].province;\r\n    }\r\n\r\n    function getLawyerIdOfDeed(uint index) public view returns (uint) {\r\n        return deeds[index].assignedLawyerId;\r\n    }\r\n\r\n    function getSellerIdOfDeed(uint index) public view returns (uint) {\r\n        return deeds[index].assignedSellerId;\r\n    }\r\n\r\n    //getter for the Buyerlist array\r\n    function getBuyer() public view returns( address [] memory){\r\n        return(Buyerlist);\r\n    }\r\n\r\n    //getter for the seller list array\r\n    function getSeller() public view returns( address [] memory){\r\n        return(sellerList);\r\n    }\r\n\r\n    //getter for the lawyerList array\r\n    function getLawyer() public view returns( address [] memory){\r\n        return(lawyerList);\r\n    }\r\n\r\n    // function to add a new deed to the deeds mapping\r\n    function addNewDeed(string memory _no, string memory _streetName, string memory _city, string memory _district, string memory _province, uint _assignedLawyerId, uint _assignedSellerId) public {\r\n        deeds[deedCount] = Deed(deedCount, _no, _streetName, _city, _district, _province, _assignedLawyerId, _assignedSellerId);\r\n        deedCount++;\r\n    }\r\n\r\n    //function to register new Buyer\r\n    function registerBuyer(uint _id, string memory _nic, string memory _name, uint _age, string memory _city, string memory _email) public {\r\n        \r\n        Buyersmapping[buyersCount] = Buyer(_id, _nic,  _name, _age, _city, _email);\r\n        buyersCount++;\r\n\r\n    }\r\n\r\n    //function to register a seller\r\n    function registerSeller(string memory _name, uint _id, string memory _nic, uint _age, string memory _city, string memory _email) public {\r\n        sellersMapping[sellersCount] = Seller(_name, _id, _nic, _age, _city, _email);\r\n        sellersCount++;\r\n\r\n    }\r\n\r\n    //function to register a new Lawyer\r\n    function registerLawyer(uint _lawyerId, string memory _lawyerName, string memory _lawyernic, string memory _lawyerRegNo, string memory _lawyerEmail) public {\r\n        Lawyersmapping[lawyerCount] = Lawyer(_lawyerId, _lawyerName, _lawyernic, _lawyerRegNo, _lawyerEmail);\r\n        lawyerCount++;\r\n    }\r\n\r\n    //function to display buyer details\r\n    function displayBuyer(uint index) public view returns (uint _id, string memory _nic, string memory _name, uint _age, string memory _city, string memory _email){\r\n        return(Buyersmapping[index].id, Buyersmapping[index].nic,Buyersmapping[index].name,Buyersmapping[index].age,Buyersmapping[index].city,Buyersmapping[index].email);\r\n\r\n    } \r\n\r\n    //function to display seller details\r\n    function displaySeller(uint index) public view returns (string memory _name, uint _id, string memory _nic, uint _age, string memory _city, string memory _email){\r\n        return(sellersMapping[index].name, sellersMapping[index].id, sellersMapping[index].nic, sellersMapping[index].age, sellersMapping[index].city, sellersMapping[index].email);\r\n    }\r\n\r\n    //function to add admin\r\n    function addAdmin() private {\r\n        adminCount++;\r\n        adminMapping[adminCount] = Admin(adminCount);\r\n    }\r\n    \r\n    //function to display lawyer details\r\n    function displayLawyer(uint index) public view returns (uint _lawyerId, string memory _lawyerName, string memory _lawyernic, string memory _lawyerRegNo, string memory _lawyerEmail){\r\n        return(Lawyersmapping[index].lawyerId, Lawyersmapping[index].lawyerName, Lawyersmapping[index].lawyernic, Lawyersmapping[index].lawyerRegNo, Lawyersmapping[index].lawyerEmail);\r\n    }\r\n}\r\n",
  "sourcePath": "C:\\GitHubRepos\\GitHub\\DBLOCK\\contracts\\Land.sol",
  "compiler": {
    "name": "solc",
    "version": "0.8.10+commit.fc410830.Emscripten.clang"
  },
  "schemaVersion": "3.4.3",
  "updatedAt": "2022-02-13T04:02:27.706Z",
  "networkType": "ethereum",
  "devdoc": {
    "kind": "dev",
    "methods": {},
    "version": 1
  },
  "userdoc": {
    "kind": "user",
    "methods": {},
    "version": 1
  }
}