{
  "contractName": "Land",
  "abi": [
    {
      "inputs": [
        {
          "internalType": "uint256",
          "name": "",
          "type": "uint256"
        }
      ],
      "name": "Buyerlist",
      "outputs": [
        {
          "internalType": "address",
          "name": "",
          "type": "address"
        }
      ],
      "stateMutability": "view",
      "type": "function",
      "constant": true
    },
    {
      "inputs": [
        {
          "internalType": "uint256",
          "name": "",
          "type": "uint256"
        }
      ],
      "name": "Buyersmapping",
      "outputs": [
        {
          "internalType": "uint256",
          "name": "id",
          "type": "uint256"
        },
        {
          "internalType": "string",
          "name": "nic",
          "type": "string"
        },
        {
          "internalType": "string",
          "name": "name",
          "type": "string"
        },
        {
          "internalType": "uint256",
          "name": "age",
          "type": "uint256"
        },
        {
          "internalType": "string",
          "name": "city",
          "type": "string"
        },
        {
          "internalType": "string",
          "name": "email",
          "type": "string"
        }
      ],
      "stateMutability": "view",
      "type": "function",
      "constant": true
    },
    {
      "inputs": [
        {
          "internalType": "uint256",
          "name": "",
          "type": "uint256"
        }
      ],
      "name": "deeds",
      "outputs": [
        {
          "internalType": "uint256",
          "name": "deedId",
          "type": "uint256"
        },
        {
          "internalType": "string",
          "name": "no",
          "type": "string"
        },
        {
          "internalType": "string",
          "name": "streetName",
          "type": "string"
        },
        {
          "internalType": "string",
          "name": "city",
          "type": "string"
        },
        {
          "internalType": "string",
          "name": "district",
          "type": "string"
        },
        {
          "internalType": "string",
          "name": "province",
          "type": "string"
        }
      ],
      "stateMutability": "view",
      "type": "function",
      "constant": true
    },
    {
      "inputs": [],
      "name": "getDeedCount",
      "outputs": [
        {
          "internalType": "uint256",
          "name": "",
          "type": "uint256"
        }
      ],
      "stateMutability": "view",
      "type": "function",
      "constant": true
    },
    {
      "inputs": [],
      "name": "getBuyersCount",
      "outputs": [
        {
          "internalType": "uint256",
          "name": "",
          "type": "uint256"
        }
      ],
      "stateMutability": "view",
      "type": "function",
      "constant": true
    },
    {
      "inputs": [
        {
          "internalType": "uint256",
          "name": "index",
          "type": "uint256"
        }
      ],
      "name": "getDeedId",
      "outputs": [
        {
          "internalType": "uint256",
          "name": "",
          "type": "uint256"
        }
      ],
      "stateMutability": "view",
      "type": "function",
      "constant": true
    },
    {
      "inputs": [
        {
          "internalType": "uint256",
          "name": "index",
          "type": "uint256"
        }
      ],
      "name": "getDeedNo",
      "outputs": [
        {
          "internalType": "string",
          "name": "",
          "type": "string"
        }
      ],
      "stateMutability": "view",
      "type": "function",
      "constant": true
    },
    {
      "inputs": [
        {
          "internalType": "uint256",
          "name": "index",
          "type": "uint256"
        }
      ],
      "name": "getDeedStreetName",
      "outputs": [
        {
          "internalType": "string",
          "name": "",
          "type": "string"
        }
      ],
      "stateMutability": "view",
      "type": "function",
      "constant": true
    },
    {
      "inputs": [
        {
          "internalType": "uint256",
          "name": "index",
          "type": "uint256"
        }
      ],
      "name": "getDeedCity",
      "outputs": [
        {
          "internalType": "string",
          "name": "",
          "type": "string"
        }
      ],
      "stateMutability": "view",
      "type": "function",
      "constant": true
    },
    {
      "inputs": [
        {
          "internalType": "uint256",
          "name": "index",
          "type": "uint256"
        }
      ],
      "name": "getDeedDistrict",
      "outputs": [
        {
          "internalType": "string",
          "name": "",
          "type": "string"
        }
      ],
      "stateMutability": "view",
      "type": "function",
      "constant": true
    },
    {
      "inputs": [
        {
          "internalType": "uint256",
          "name": "index",
          "type": "uint256"
        }
      ],
      "name": "getDeedProvince",
      "outputs": [
        {
          "internalType": "string",
          "name": "",
          "type": "string"
        }
      ],
      "stateMutability": "view",
      "type": "function",
      "constant": true
    },
    {
      "inputs": [],
      "name": "getBuyer",
      "outputs": [
        {
          "internalType": "address[]",
          "name": "",
          "type": "address[]"
        }
      ],
      "stateMutability": "view",
      "type": "function",
      "constant": true
    },
    {
      "inputs": [
        {
          "internalType": "string",
          "name": "_no",
          "type": "string"
        },
        {
          "internalType": "string",
          "name": "_streetName",
          "type": "string"
        },
        {
          "internalType": "string",
          "name": "_city",
          "type": "string"
        },
        {
          "internalType": "string",
          "name": "_district",
          "type": "string"
        },
        {
          "internalType": "string",
          "name": "_province",
          "type": "string"
        }
      ],
      "name": "addNewDeed",
      "outputs": [],
      "stateMutability": "nonpayable",
      "type": "function"
    },
    {
      "inputs": [
        {
          "internalType": "uint256",
          "name": "_id",
          "type": "uint256"
        },
        {
          "internalType": "string",
          "name": "_nic",
          "type": "string"
        },
        {
          "internalType": "string",
          "name": "_name",
          "type": "string"
        },
        {
          "internalType": "uint256",
          "name": "_age",
          "type": "uint256"
        },
        {
          "internalType": "string",
          "name": "_city",
          "type": "string"
        },
        {
          "internalType": "string",
          "name": "_email",
          "type": "string"
        }
      ],
      "name": "registerBuyer",
      "outputs": [],
      "stateMutability": "nonpayable",
      "type": "function"
    },
    {
      "inputs": [
        {
          "internalType": "uint256",
          "name": "index",
          "type": "uint256"
        }
      ],
      "name": "displayBuyer",
      "outputs": [
        {
          "internalType": "uint256",
          "name": "_id",
          "type": "uint256"
        },
        {
          "internalType": "string",
          "name": "_nic",
          "type": "string"
        },
        {
          "internalType": "string",
          "name": "_name",
          "type": "string"
        },
        {
          "internalType": "uint256",
          "name": "_age",
          "type": "uint256"
        },
        {
          "internalType": "string",
          "name": "_city",
          "type": "string"
        },
        {
          "internalType": "string",
          "name": "_email",
          "type": "string"
        }
      ],
      "stateMutability": "view",
      "type": "function",
      "constant": true
    }
  ],
  "bytecode": "0x60806040526000600355600060045534801561001a57600080fd5b50611a448061002a6000396000f3fe608060405234801561001057600080fd5b50600436106100f55760003560e01c8063603daf9a11610097578063eaddda6411610066578063eaddda64146102e1578063f0b93af9146102fd578063f0d3a9df1461032d578063ffb434fb1461034b576100f5565b8063603daf9a146102425780638d0968551461026057806393addc081461027c5780639cd681f5146102b1576100f5565b806318edf564116100d357806318edf5641461018a578063275ea7cf146101bf57806332a67853146101f4578063334bb74514610224576100f5565b806305624d35146100fa5780630df7ec241461012a578063119d41f41461015a575b600080fd5b610114600480360381019061010f91906112ad565b61037b565b6040516101219190611373565b60405180910390f35b610144600480360381019061013f91906112ad565b610422565b60405161015191906113a4565b60405180910390f35b610174600480360381019061016f91906112ad565b610441565b6040516101819190611400565b60405180910390f35b6101a4600480360381019061019f91906112ad565b610480565b6040516101b69695949392919061141b565b60405180910390f35b6101d960048036038101906101d491906112ad565b610764565b6040516101eb9695949392919061149f565b60405180910390f35b61020e600480360381019061020991906112ad565b610a39565b60405161021b9190611373565b60405180910390f35b61022c610ae0565b60405161023991906113a4565b60405180910390f35b61024a610aea565b60405161025791906115da565b60405180910390f35b61027a60048036038101906102759190611731565b610b78565b005b610296600480360381019061029191906112ad565b610c65565b6040516102a89695949392919061149f565b60405180910390f35b6102cb60048036038101906102c691906112ad565b610ec1565b6040516102d89190611373565b60405180910390f35b6102fb60048036038101906102f6919061182e565b610f68565b005b610317600480360381019061031291906112ad565b611068565b6040516103249190611373565b60405180910390f35b61033561110f565b60405161034291906113a4565b60405180910390f35b610365600480360381019061036091906112ad565b611119565b6040516103729190611373565b60405180910390f35b6060600080838152602001908152602001600020600401805461039d90611964565b80601f01602080910402602001604051908101604052809291908181526020018280546103c990611964565b80156104165780601f106103eb57610100808354040283529160200191610416565b820191906000526020600020905b8154815290600101906020018083116103f957829003601f168201915b50505050509050919050565b6000806000838152602001908152602001600020600001549050919050565b6002818154811061045157600080fd5b906000526020600020016000915054906101000a900473ffffffffffffffffffffffffffffffffffffffff1681565b60006020528060005260406000206000915090508060000154908060010180546104a990611964565b80601f01602080910402602001604051908101604052809291908181526020018280546104d590611964565b80156105225780601f106104f757610100808354040283529160200191610522565b820191906000526020600020905b81548152906001019060200180831161050557829003601f168201915b50505050509080600201805461053790611964565b80601f016020809104026020016040519081016040528092919081815260200182805461056390611964565b80156105b05780601f10610585576101008083540402835291602001916105b0565b820191906000526020600020905b81548152906001019060200180831161059357829003601f168201915b5050505050908060030180546105c590611964565b80601f01602080910402602001604051908101604052809291908181526020018280546105f190611964565b801561063e5780601f106106135761010080835404028352916020019161063e565b820191906000526020600020905b81548152906001019060200180831161062157829003601f168201915b50505050509080600401805461065390611964565b80601f016020809104026020016040519081016040528092919081815260200182805461067f90611964565b80156106cc5780601f106106a1576101008083540402835291602001916106cc565b820191906000526020600020905b8154815290600101906020018083116106af57829003601f168201915b5050505050908060050180546106e190611964565b80601f016020809104026020016040519081016040528092919081815260200182805461070d90611964565b801561075a5780601f1061072f5761010080835404028352916020019161075a565b820191906000526020600020905b81548152906001019060200180831161073d57829003601f168201915b5050505050905086565b60006060806000606080600160008881526020019081526020016000206000015460016000898152602001908152602001600020600101600160008a8152602001908152602001600020600201600160008b815260200190815260200160002060030154600160008c8152602001908152602001600020600401600160008d815260200190815260200160002060050184805461080090611964565b80601f016020809104026020016040519081016040528092919081815260200182805461082c90611964565b80156108795780601f1061084e57610100808354040283529160200191610879565b820191906000526020600020905b81548152906001019060200180831161085c57829003601f168201915b5050505050945083805461088c90611964565b80601f01602080910402602001604051908101604052809291908181526020018280546108b890611964565b80156109055780601f106108da57610100808354040283529160200191610905565b820191906000526020600020905b8154815290600101906020018083116108e857829003601f168201915b5050505050935081805461091890611964565b80601f016020809104026020016040519081016040528092919081815260200182805461094490611964565b80156109915780601f1061096657610100808354040283529160200191610991565b820191906000526020600020905b81548152906001019060200180831161097457829003601f168201915b505050505091508080546109a490611964565b80601f01602080910402602001604051908101604052809291908181526020018280546109d090611964565b8015610a1d5780601f106109f257610100808354040283529160200191610a1d565b820191906000526020600020905b815481529060010190602001808311610a0057829003601f168201915b5050505050905095509550955095509550955091939550919395565b60606000808381526020019081526020016000206001018054610a5b90611964565b80601f0160208091040260200160405190810160405280929190818152602001828054610a8790611964565b8015610ad45780601f10610aa957610100808354040283529160200191610ad4565b820191906000526020600020905b815481529060010190602001808311610ab757829003601f168201915b50505050509050919050565b6000600354905090565b60606002805480602002602001604051908101604052809291908181526020018280548015610b6e57602002820191906000526020600020905b8160009054906101000a900473ffffffffffffffffffffffffffffffffffffffff1673ffffffffffffffffffffffffffffffffffffffff1681526020019060010190808311610b24575b5050505050905090565b6040518060c0016040528087815260200186815260200185815260200184815260200183815260200182815250600160006004548152602001908152602001600020600082015181600001556020820151816001019080519060200190610be09291906111c0565b506040820151816002019080519060200190610bfd9291906111c0565b50606082015181600301556080820151816004019080519060200190610c249291906111c0565b5060a0820151816005019080519060200190610c419291906111c0565b5090505060046000815480929190610c58906119c5565b9190505550505050505050565b6001602052806000526040600020600091509050806000015490806001018054610c8e90611964565b80601f0160208091040260200160405190810160405280929190818152602001828054610cba90611964565b8015610d075780601f10610cdc57610100808354040283529160200191610d07565b820191906000526020600020905b815481529060010190602001808311610cea57829003601f168201915b505050505090806002018054610d1c90611964565b80601f0160208091040260200160405190810160405280929190818152602001828054610d4890611964565b8015610d955780601f10610d6a57610100808354040283529160200191610d95565b820191906000526020600020905b815481529060010190602001808311610d7857829003601f168201915b505050505090806003015490806004018054610db090611964565b80601f0160208091040260200160405190810160405280929190818152602001828054610ddc90611964565b8015610e295780601f10610dfe57610100808354040283529160200191610e29565b820191906000526020600020905b815481529060010190602001808311610e0c57829003601f168201915b505050505090806005018054610e3e90611964565b80601f0160208091040260200160405190810160405280929190818152602001828054610e6a90611964565b8015610eb75780601f10610e8c57610100808354040283529160200191610eb7565b820191906000526020600020905b815481529060010190602001808311610e9a57829003601f168201915b5050505050905086565b60606000808381526020019081526020016000206005018054610ee390611964565b80601f0160208091040260200160405190810160405280929190818152602001828054610f0f90611964565b8015610f5c5780601f10610f3157610100808354040283529160200191610f5c565b820191906000526020600020905b815481529060010190602001808311610f3f57829003601f168201915b50505050509050919050565b6040518060c001604052806003548152602001868152602001858152602001848152602001838152602001828152506000806003548152602001908152602001600020600082015181600001556020820151816001019080519060200190610fd19291906111c0565b506040820151816002019080519060200190610fee9291906111c0565b50606082015181600301908051906020019061100b9291906111c0565b5060808201518160040190805190602001906110289291906111c0565b5060a08201518160050190805190602001906110459291906111c0565b509050506003600081548092919061105c906119c5565b91905055505050505050565b6060600080838152602001908152602001600020600301805461108a90611964565b80601f01602080910402602001604051908101604052809291908181526020018280546110b690611964565b80156111035780601f106110d857610100808354040283529160200191611103565b820191906000526020600020905b8154815290600101906020018083116110e657829003601f168201915b50505050509050919050565b6000600454905090565b6060600080838152602001908152602001600020600201805461113b90611964565b80601f016020809104026020016040519081016040528092919081815260200182805461116790611964565b80156111b45780601f10611189576101008083540402835291602001916111b4565b820191906000526020600020905b81548152906001019060200180831161119757829003601f168201915b50505050509050919050565b8280546111cc90611964565b90600052602060002090601f0160209004810192826111ee5760008555611235565b82601f1061120757805160ff1916838001178555611235565b82800160010185558215611235579182015b82811115611234578251825591602001919060010190611219565b5b5090506112429190611246565b5090565b5b8082111561125f576000816000905550600101611247565b5090565b6000604051905090565b600080fd5b600080fd5b6000819050919050565b61128a81611277565b811461129557600080fd5b50565b6000813590506112a781611281565b92915050565b6000602082840312156112c3576112c261126d565b5b60006112d184828501611298565b91505092915050565b600081519050919050565b600082825260208201905092915050565b60005b838110156113145780820151818401526020810190506112f9565b83811115611323576000848401525b50505050565b6000601f19601f8301169050919050565b6000611345826112da565b61134f81856112e5565b935061135f8185602086016112f6565b61136881611329565b840191505092915050565b6000602082019050818103600083015261138d818461133a565b905092915050565b61139e81611277565b82525050565b60006020820190506113b96000830184611395565b92915050565b600073ffffffffffffffffffffffffffffffffffffffff82169050919050565b60006113ea826113bf565b9050919050565b6113fa816113df565b82525050565b600060208201905061141560008301846113f1565b92915050565b600060c0820190506114306000830189611395565b8181036020830152611442818861133a565b90508181036040830152611456818761133a565b9050818103606083015261146a818661133a565b9050818103608083015261147e818561133a565b905081810360a0830152611492818461133a565b9050979650505050505050565b600060c0820190506114b46000830189611395565b81810360208301526114c6818861133a565b905081810360408301526114da818761133a565b90506114e96060830186611395565b81810360808301526114fb818561133a565b905081810360a083015261150f818461133a565b9050979650505050505050565b600081519050919050565b600082825260208201905092915050565b6000819050602082019050919050565b611551816113df565b82525050565b60006115638383611548565b60208301905092915050565b6000602082019050919050565b60006115878261151c565b6115918185611527565b935061159c83611538565b8060005b838110156115cd5781516115b48882611557565b97506115bf8361156f565b9250506001810190506115a0565b5085935050505092915050565b600060208201905081810360008301526115f4818461157c565b905092915050565b600080fd5b600080fd5b7f4e487b7100000000000000000000000000000000000000000000000000000000600052604160045260246000fd5b61163e82611329565b810181811067ffffffffffffffff8211171561165d5761165c611606565b5b80604052505050565b6000611670611263565b905061167c8282611635565b919050565b600067ffffffffffffffff82111561169c5761169b611606565b5b6116a582611329565b9050602081019050919050565b82818337600083830152505050565b60006116d46116cf84611681565b611666565b9050828152602081018484840111156116f0576116ef611601565b5b6116fb8482856116b2565b509392505050565b600082601f830112611718576117176115fc565b5b81356117288482602086016116c1565b91505092915050565b60008060008060008060c0878903121561174e5761174d61126d565b5b600061175c89828a01611298565b965050602087013567ffffffffffffffff81111561177d5761177c611272565b5b61178989828a01611703565b955050604087013567ffffffffffffffff8111156117aa576117a9611272565b5b6117b689828a01611703565b94505060606117c789828a01611298565b935050608087013567ffffffffffffffff8111156117e8576117e7611272565b5b6117f489828a01611703565b92505060a087013567ffffffffffffffff81111561181557611814611272565b5b61182189828a01611703565b9150509295509295509295565b600080600080600060a0868803121561184a5761184961126d565b5b600086013567ffffffffffffffff81111561186857611867611272565b5b61187488828901611703565b955050602086013567ffffffffffffffff81111561189557611894611272565b5b6118a188828901611703565b945050604086013567ffffffffffffffff8111156118c2576118c1611272565b5b6118ce88828901611703565b935050606086013567ffffffffffffffff8111156118ef576118ee611272565b5b6118fb88828901611703565b925050608086013567ffffffffffffffff81111561191c5761191b611272565b5b61192888828901611703565b9150509295509295909350565b7f4e487b7100000000000000000000000000000000000000000000000000000000600052602260045260246000fd5b6000600282049050600182168061197c57607f821691505b602082108114156119905761198f611935565b5b50919050565b7f4e487b7100000000000000000000000000000000000000000000000000000000600052601160045260246000fd5b60006119d082611277565b91507fffffffffffffffffffffffffffffffffffffffffffffffffffffffffffffffff821415611a0357611a02611996565b5b60018201905091905056fea2646970667358221220fbe5e8c8b982ef2d1d3219f93c7f920dfd99df16ea8b603d903afdb87b956d7864736f6c634300080a0033",
  "immutableReferences": {},
  "source": "// SPDX-License-Identifier: MIT\r\npragma solidity >=0.4.22 <0.9.0;\r\n\r\ncontract Land {\r\n    // structs\r\n    struct Deed {\r\n        // deed instance variables\r\n        uint deedId;\r\n        string no;\r\n        string streetName;\r\n        string city;\r\n        string district;\r\n        string province;\r\n    }\r\n    struct Buyer{\r\n        // Buyer instance variables\r\n       uint id;\r\n       string nic;\r\n       string name;\r\n       uint age;\r\n       string city;\r\n       string email; \r\n    }\r\n\r\n    // mappings\r\n    mapping(uint => Deed) public deeds;\r\n    mapping(uint => Buyer) public Buyersmapping;\r\n    \r\n    //arrays\r\n    address[] public Buyerlist;\r\n\r\n\r\n    // Count tracking variables\r\n    uint private deedCount = 0;\r\n    uint private buyersCount=0;\r\n\r\n    // getter for deed count\r\n    function getDeedCount() public view returns (uint) {\r\n        return deedCount;\r\n    }\r\n    // getter for buyer count\r\n    function getBuyersCount() public view returns(uint){\r\n        return buyersCount;\r\n    }\r\n\r\n    //getters for Deed struct\r\n    function getDeedId(uint index) public view returns (uint) {\r\n        return deeds[index].deedId;\r\n    }\r\n\r\n    function getDeedNo(uint index) public view returns (string memory) {\r\n        return deeds[index].no;\r\n    }\r\n\r\n    function getDeedStreetName(uint index) public view returns (string memory) {\r\n        return deeds[index].streetName;\r\n    }\r\n\r\n    function getDeedCity(uint index) public view returns (string memory) {\r\n        return deeds[index].city;\r\n    }\r\n\r\n    function getDeedDistrict(uint index) public view returns (string memory) {\r\n        return deeds[index].district;\r\n    }\r\n\r\n    function getDeedProvince(uint index) public view returns (string memory) {\r\n        return deeds[index].province;\r\n    }\r\n    //getter for the Buyerlist array\r\n    function getBuyer() public view returns( address [] memory){\r\n        return(Buyerlist);\r\n    }\r\n\r\n    // function to add a new deed to the deeds mapping\r\n    function addNewDeed(string memory _no, string memory _streetName, string memory _city, string memory _district,string memory _province) public {\r\n        deeds[deedCount] = Deed(deedCount, _no, _streetName, _city, _district, _province);\r\n        deedCount++;\r\n    }\r\n\r\n    //function to register new Buyer\r\n    function registerBuyer(uint _id, string memory _nic, string memory _name, uint _age, string memory _city, string memory _email) public {\r\n        \r\n        Buyersmapping[buyersCount] = Buyer(_id, _nic,  _name, _age, _city, _email);\r\n        buyersCount++;\r\n\r\n    }\r\n    //function to display buyer details\r\n    function displayBuyer(uint index) public view returns (uint _id, string memory _nic, string memory _name, uint _age, string memory _city, string memory _email){\r\n        return(Buyersmapping[index].id, Buyersmapping[index].nic,Buyersmapping[index].name,Buyersmapping[index].age,Buyersmapping[index].city,Buyersmapping[index].email);\r\n\r\n    } \r\n    \r\n}\r\n",
  "sourcePath": "C:\\Users\\MSI GAMING\\Documents\\GitHub\\DBLOCK\\contracts\\Land.sol",
  "compiler": {
    "name": "solc",
    "version": "0.8.10+commit.fc410830.Emscripten.clang"
  },
  "schemaVersion": "3.4.3",
  "updatedAt": "2022-02-08T11:27:22.889Z",
  "networkType": "ethereum",
  "devdoc": {
    "kind": "dev",
    "methods": {},
    "version": 1
  },
  "userdoc": {
    "kind": "user",
    "methods": {},
    "version": 1
  }
}