{
  "contractName": "Land",
  "abi": [
    {
      "inputs": [
        {
          "internalType": "uint256",
          "name": "",
          "type": "uint256"
        }
      ],
      "name": "Buyerlist",
      "outputs": [
        {
          "internalType": "address",
          "name": "",
          "type": "address"
        }
      ],
      "stateMutability": "view",
      "type": "function",
      "constant": true
    },
    {
      "inputs": [
        {
          "internalType": "uint256",
          "name": "",
          "type": "uint256"
        }
      ],
      "name": "Buyersmapping",
      "outputs": [
        {
          "internalType": "uint256",
          "name": "id",
          "type": "uint256"
        },
        {
          "internalType": "string",
          "name": "nic",
          "type": "string"
        },
        {
          "internalType": "string",
          "name": "name",
          "type": "string"
        },
        {
          "internalType": "uint256",
          "name": "age",
          "type": "uint256"
        },
        {
          "internalType": "string",
          "name": "city",
          "type": "string"
        },
        {
          "internalType": "string",
          "name": "email",
          "type": "string"
        }
      ],
      "stateMutability": "view",
      "type": "function",
      "constant": true
    },
    {
      "inputs": [
        {
          "internalType": "uint256",
          "name": "",
          "type": "uint256"
        }
      ],
      "name": "deeds",
      "outputs": [
        {
          "internalType": "uint256",
          "name": "deedId",
          "type": "uint256"
        },
        {
          "internalType": "string",
          "name": "no",
          "type": "string"
        },
        {
          "internalType": "string",
          "name": "streetName",
          "type": "string"
        },
        {
          "internalType": "string",
          "name": "city",
          "type": "string"
        },
        {
          "internalType": "string",
          "name": "district",
          "type": "string"
        },
        {
          "internalType": "string",
          "name": "province",
          "type": "string"
        }
      ],
      "stateMutability": "view",
      "type": "function",
      "constant": true
    },
    {
      "inputs": [
        {
          "internalType": "uint256",
          "name": "",
          "type": "uint256"
        }
      ],
      "name": "sellerList",
      "outputs": [
        {
          "internalType": "address",
          "name": "",
          "type": "address"
        }
      ],
      "stateMutability": "view",
      "type": "function",
      "constant": true
    },
    {
      "inputs": [
        {
          "internalType": "uint256",
          "name": "",
          "type": "uint256"
        }
      ],
      "name": "sellersMapping",
      "outputs": [
        {
          "internalType": "string",
          "name": "name",
          "type": "string"
        },
        {
          "internalType": "uint256",
          "name": "id",
          "type": "uint256"
        },
        {
          "internalType": "string",
          "name": "nic",
          "type": "string"
        },
        {
          "internalType": "uint256",
          "name": "age",
          "type": "uint256"
        },
        {
          "internalType": "string",
          "name": "city",
          "type": "string"
        },
        {
          "internalType": "string",
          "name": "email",
          "type": "string"
        }
      ],
      "stateMutability": "view",
      "type": "function",
      "constant": true
    },
    {
      "inputs": [],
      "name": "getDeedCount",
      "outputs": [
        {
          "internalType": "uint256",
          "name": "",
          "type": "uint256"
        }
      ],
      "stateMutability": "view",
      "type": "function",
      "constant": true
    },
    {
      "inputs": [],
      "name": "getBuyersCount",
      "outputs": [
        {
          "internalType": "uint256",
          "name": "",
          "type": "uint256"
        }
      ],
      "stateMutability": "view",
      "type": "function",
      "constant": true
    },
    {
      "inputs": [],
      "name": "getSellersCount",
      "outputs": [
        {
          "internalType": "uint256",
          "name": "",
          "type": "uint256"
        }
      ],
      "stateMutability": "view",
      "type": "function",
      "constant": true
    },
    {
      "inputs": [
        {
          "internalType": "uint256",
          "name": "index",
          "type": "uint256"
        }
      ],
      "name": "getDeedId",
      "outputs": [
        {
          "internalType": "uint256",
          "name": "",
          "type": "uint256"
        }
      ],
      "stateMutability": "view",
      "type": "function",
      "constant": true
    },
    {
      "inputs": [
        {
          "internalType": "uint256",
          "name": "index",
          "type": "uint256"
        }
      ],
      "name": "getDeedNo",
      "outputs": [
        {
          "internalType": "string",
          "name": "",
          "type": "string"
        }
      ],
      "stateMutability": "view",
      "type": "function",
      "constant": true
    },
    {
      "inputs": [
        {
          "internalType": "uint256",
          "name": "index",
          "type": "uint256"
        }
      ],
      "name": "getDeedStreetName",
      "outputs": [
        {
          "internalType": "string",
          "name": "",
          "type": "string"
        }
      ],
      "stateMutability": "view",
      "type": "function",
      "constant": true
    },
    {
      "inputs": [
        {
          "internalType": "uint256",
          "name": "index",
          "type": "uint256"
        }
      ],
      "name": "getDeedCity",
      "outputs": [
        {
          "internalType": "string",
          "name": "",
          "type": "string"
        }
      ],
      "stateMutability": "view",
      "type": "function",
      "constant": true
    },
    {
      "inputs": [
        {
          "internalType": "uint256",
          "name": "index",
          "type": "uint256"
        }
      ],
      "name": "getDeedDistrict",
      "outputs": [
        {
          "internalType": "string",
          "name": "",
          "type": "string"
        }
      ],
      "stateMutability": "view",
      "type": "function",
      "constant": true
    },
    {
      "inputs": [
        {
          "internalType": "uint256",
          "name": "index",
          "type": "uint256"
        }
      ],
      "name": "getDeedProvince",
      "outputs": [
        {
          "internalType": "string",
          "name": "",
          "type": "string"
        }
      ],
      "stateMutability": "view",
      "type": "function",
      "constant": true
    },
    {
      "inputs": [],
      "name": "getBuyer",
      "outputs": [
        {
          "internalType": "address[]",
          "name": "",
          "type": "address[]"
        }
      ],
      "stateMutability": "view",
      "type": "function",
      "constant": true
    },
    {
      "inputs": [],
      "name": "getSeller",
      "outputs": [
        {
          "internalType": "address[]",
          "name": "",
          "type": "address[]"
        }
      ],
      "stateMutability": "view",
      "type": "function",
      "constant": true
    },
    {
      "inputs": [
        {
          "internalType": "string",
          "name": "_no",
          "type": "string"
        },
        {
          "internalType": "string",
          "name": "_streetName",
          "type": "string"
        },
        {
          "internalType": "string",
          "name": "_city",
          "type": "string"
        },
        {
          "internalType": "string",
          "name": "_district",
          "type": "string"
        },
        {
          "internalType": "string",
          "name": "_province",
          "type": "string"
        }
      ],
      "name": "addNewDeed",
      "outputs": [],
      "stateMutability": "nonpayable",
      "type": "function"
    },
    {
      "inputs": [
        {
          "internalType": "uint256",
          "name": "_id",
          "type": "uint256"
        },
        {
          "internalType": "string",
          "name": "_nic",
          "type": "string"
        },
        {
          "internalType": "string",
          "name": "_name",
          "type": "string"
        },
        {
          "internalType": "uint256",
          "name": "_age",
          "type": "uint256"
        },
        {
          "internalType": "string",
          "name": "_city",
          "type": "string"
        },
        {
          "internalType": "string",
          "name": "_email",
          "type": "string"
        }
      ],
      "name": "registerBuyer",
      "outputs": [],
      "stateMutability": "nonpayable",
      "type": "function"
    },
    {
      "inputs": [
        {
          "internalType": "string",
          "name": "_name",
          "type": "string"
        },
        {
          "internalType": "uint256",
          "name": "_id",
          "type": "uint256"
        },
        {
          "internalType": "string",
          "name": "_nic",
          "type": "string"
        },
        {
          "internalType": "uint256",
          "name": "_age",
          "type": "uint256"
        },
        {
          "internalType": "string",
          "name": "_city",
          "type": "string"
        },
        {
          "internalType": "string",
          "name": "_email",
          "type": "string"
        }
      ],
      "name": "registerSeller",
      "outputs": [],
      "stateMutability": "nonpayable",
      "type": "function"
    },
    {
      "inputs": [
        {
          "internalType": "uint256",
          "name": "index",
          "type": "uint256"
        }
      ],
      "name": "displayBuyer",
      "outputs": [
        {
          "internalType": "uint256",
          "name": "_id",
          "type": "uint256"
        },
        {
          "internalType": "string",
          "name": "_nic",
          "type": "string"
        },
        {
          "internalType": "string",
          "name": "_name",
          "type": "string"
        },
        {
          "internalType": "uint256",
          "name": "_age",
          "type": "uint256"
        },
        {
          "internalType": "string",
          "name": "_city",
          "type": "string"
        },
        {
          "internalType": "string",
          "name": "_email",
          "type": "string"
        }
      ],
      "stateMutability": "view",
      "type": "function",
      "constant": true
    },
    {
      "inputs": [
        {
          "internalType": "uint256",
          "name": "index",
          "type": "uint256"
        }
      ],
      "name": "displaySeller",
      "outputs": [
        {
          "internalType": "string",
          "name": "_name",
          "type": "string"
        },
        {
          "internalType": "uint256",
          "name": "_id",
          "type": "uint256"
        },
        {
          "internalType": "string",
          "name": "_nic",
          "type": "string"
        },
        {
          "internalType": "uint256",
          "name": "_age",
          "type": "uint256"
        },
        {
          "internalType": "string",
          "name": "_city",
          "type": "string"
        },
        {
          "internalType": "string",
          "name": "_email",
          "type": "string"
        }
      ],
      "stateMutability": "view",
      "type": "function",
      "constant": true
    }
  ],
  "bytecode": "0x608060405260006005556000600655600060075534801561001f57600080fd5b506123e88061002f6000396000f3fe608060405234801561001057600080fd5b50600436106101375760003560e01c80638d096855116100b8578063e51374591161007c578063e5137459146103b0578063eaddda64146103e5578063f0b93af914610401578063f0d3a9df14610431578063f42a1b311461044f578063ffb434fb1461047f57610137565b80638d096855146102f357806393addc081461030f5780639cd681f514610344578063dbd0e1b614610374578063dd9d122d1461039257610137565b806332a67853116100ff57806332a6785314610236578063334bb7451461026657806342da3b1a14610284578063603daf9a146102a05780637c6eb103146102be57610137565b806305624d351461013c5780630df7ec241461016c578063119d41f41461019c57806318edf564146101cc578063275ea7cf14610201575b600080fd5b61015660048036038101906101519190611ad7565b6104af565b6040516101639190611b9d565b60405180910390f35b61018660048036038101906101819190611ad7565b610556565b6040516101939190611bce565b60405180910390f35b6101b660048036038101906101b19190611ad7565b610575565b6040516101c39190611c2a565b60405180910390f35b6101e660048036038101906101e19190611ad7565b6105b4565b6040516101f896959493929190611c45565b60405180910390f35b61021b60048036038101906102169190611ad7565b610898565b60405161022d96959493929190611cc9565b60405180910390f35b610250600480360381019061024b9190611ad7565b610b6d565b60405161025d9190611b9d565b60405180910390f35b61026e610c14565b60405161027b9190611bce565b60405180910390f35b61029e60048036038101906102999190611e7b565b610c1e565b005b6102a8610d0b565b6040516102b59190612036565b60405180910390f35b6102d860048036038101906102d39190611ad7565b610d99565b6040516102ea96959493929190612058565b60405180910390f35b61030d600480360381019061030891906120d5565b610ff5565b005b61032960048036038101906103249190611ad7565b6110e2565b60405161033b96959493929190611cc9565b60405180910390f35b61035e60048036038101906103599190611ad7565b61133e565b60405161036b9190611b9d565b60405180910390f35b61037c6113e5565b6040516103899190612036565b60405180910390f35b61039a611473565b6040516103a79190611bce565b60405180910390f35b6103ca60048036038101906103c59190611ad7565b61147d565b6040516103dc96959493929190612058565b60405180910390f35b6103ff60048036038101906103fa91906121d2565b611753565b005b61041b60048036038101906104169190611ad7565b611853565b6040516104289190611b9d565b60405180910390f35b6104396118fa565b6040516104469190611bce565b60405180910390f35b61046960048036038101906104649190611ad7565b611904565b6040516104769190611c2a565b60405180910390f35b61049960048036038101906104949190611ad7565b611943565b6040516104a69190611b9d565b60405180910390f35b606060008083815260200190815260200160002060040180546104d190612308565b80601f01602080910402602001604051908101604052809291908181526020018280546104fd90612308565b801561054a5780601f1061051f5761010080835404028352916020019161054a565b820191906000526020600020905b81548152906001019060200180831161052d57829003601f168201915b50505050509050919050565b6000806000838152602001908152602001600020600001549050919050565b6003818154811061058557600080fd5b906000526020600020016000915054906101000a900473ffffffffffffffffffffffffffffffffffffffff1681565b60006020528060005260406000206000915090508060000154908060010180546105dd90612308565b80601f016020809104026020016040519081016040528092919081815260200182805461060990612308565b80156106565780601f1061062b57610100808354040283529160200191610656565b820191906000526020600020905b81548152906001019060200180831161063957829003601f168201915b50505050509080600201805461066b90612308565b80601f016020809104026020016040519081016040528092919081815260200182805461069790612308565b80156106e45780601f106106b9576101008083540402835291602001916106e4565b820191906000526020600020905b8154815290600101906020018083116106c757829003601f168201915b5050505050908060030180546106f990612308565b80601f016020809104026020016040519081016040528092919081815260200182805461072590612308565b80156107725780601f1061074757610100808354040283529160200191610772565b820191906000526020600020905b81548152906001019060200180831161075557829003601f168201915b50505050509080600401805461078790612308565b80601f01602080910402602001604051908101604052809291908181526020018280546107b390612308565b80156108005780601f106107d557610100808354040283529160200191610800565b820191906000526020600020905b8154815290600101906020018083116107e357829003601f168201915b50505050509080600501805461081590612308565b80601f016020809104026020016040519081016040528092919081815260200182805461084190612308565b801561088e5780601f106108635761010080835404028352916020019161088e565b820191906000526020600020905b81548152906001019060200180831161087157829003601f168201915b5050505050905086565b60006060806000606080600160008881526020019081526020016000206000015460016000898152602001908152602001600020600101600160008a8152602001908152602001600020600201600160008b815260200190815260200160002060030154600160008c8152602001908152602001600020600401600160008d815260200190815260200160002060050184805461093490612308565b80601f016020809104026020016040519081016040528092919081815260200182805461096090612308565b80156109ad5780601f10610982576101008083540402835291602001916109ad565b820191906000526020600020905b81548152906001019060200180831161099057829003601f168201915b505050505094508380546109c090612308565b80601f01602080910402602001604051908101604052809291908181526020018280546109ec90612308565b8015610a395780601f10610a0e57610100808354040283529160200191610a39565b820191906000526020600020905b815481529060010190602001808311610a1c57829003601f168201915b50505050509350818054610a4c90612308565b80601f0160208091040260200160405190810160405280929190818152602001828054610a7890612308565b8015610ac55780601f10610a9a57610100808354040283529160200191610ac5565b820191906000526020600020905b815481529060010190602001808311610aa857829003601f168201915b50505050509150808054610ad890612308565b80601f0160208091040260200160405190810160405280929190818152602001828054610b0490612308565b8015610b515780601f10610b2657610100808354040283529160200191610b51565b820191906000526020600020905b815481529060010190602001808311610b3457829003601f168201915b5050505050905095509550955095509550955091939550919395565b60606000808381526020019081526020016000206001018054610b8f90612308565b80601f0160208091040260200160405190810160405280929190818152602001828054610bbb90612308565b8015610c085780601f10610bdd57610100808354040283529160200191610c08565b820191906000526020600020905b815481529060010190602001808311610beb57829003601f168201915b50505050509050919050565b6000600554905090565b6040518060c00160405280878152602001868152602001858152602001848152602001838152602001828152506002600060075481526020019081526020016000206000820151816000019080519060200190610c7c9291906119ea565b50602082015181600101556040820151816002019080519060200190610ca39291906119ea565b50606082015181600301556080820151816004019080519060200190610cca9291906119ea565b5060a0820151816005019080519060200190610ce79291906119ea565b5090505060076000815480929190610cfe90612369565b9190505550505050505050565b60606003805480602002602001604051908101604052809291908181526020018280548015610d8f57602002820191906000526020600020905b8160009054906101000a900473ffffffffffffffffffffffffffffffffffffffff1673ffffffffffffffffffffffffffffffffffffffff1681526020019060010190808311610d45575b5050505050905090565b6002602052806000526040600020600091509050806000018054610dbc90612308565b80601f0160208091040260200160405190810160405280929190818152602001828054610de890612308565b8015610e355780601f10610e0a57610100808354040283529160200191610e35565b820191906000526020600020905b815481529060010190602001808311610e1857829003601f168201915b505050505090806001015490806002018054610e5090612308565b80601f0160208091040260200160405190810160405280929190818152602001828054610e7c90612308565b8015610ec95780601f10610e9e57610100808354040283529160200191610ec9565b820191906000526020600020905b815481529060010190602001808311610eac57829003601f168201915b505050505090806003015490806004018054610ee490612308565b80601f0160208091040260200160405190810160405280929190818152602001828054610f1090612308565b8015610f5d5780601f10610f3257610100808354040283529160200191610f5d565b820191906000526020600020905b815481529060010190602001808311610f4057829003601f168201915b505050505090806005018054610f7290612308565b80601f0160208091040260200160405190810160405280929190818152602001828054610f9e90612308565b8015610feb5780601f10610fc057610100808354040283529160200191610feb565b820191906000526020600020905b815481529060010190602001808311610fce57829003601f168201915b5050505050905086565b6040518060c001604052808781526020018681526020018581526020018481526020018381526020018281525060016000600654815260200190815260200160002060008201518160000155602082015181600101908051906020019061105d9291906119ea565b50604082015181600201908051906020019061107a9291906119ea565b506060820151816003015560808201518160040190805190602001906110a19291906119ea565b5060a08201518160050190805190602001906110be9291906119ea565b50905050600660008154809291906110d590612369565b9190505550505050505050565b600160205280600052604060002060009150905080600001549080600101805461110b90612308565b80601f016020809104026020016040519081016040528092919081815260200182805461113790612308565b80156111845780601f1061115957610100808354040283529160200191611184565b820191906000526020600020905b81548152906001019060200180831161116757829003601f168201915b50505050509080600201805461119990612308565b80601f01602080910402602001604051908101604052809291908181526020018280546111c590612308565b80156112125780601f106111e757610100808354040283529160200191611212565b820191906000526020600020905b8154815290600101906020018083116111f557829003601f168201915b50505050509080600301549080600401805461122d90612308565b80601f016020809104026020016040519081016040528092919081815260200182805461125990612308565b80156112a65780601f1061127b576101008083540402835291602001916112a6565b820191906000526020600020905b81548152906001019060200180831161128957829003601f168201915b5050505050908060050180546112bb90612308565b80601f01602080910402602001604051908101604052809291908181526020018280546112e790612308565b80156113345780601f1061130957610100808354040283529160200191611334565b820191906000526020600020905b81548152906001019060200180831161131757829003601f168201915b5050505050905086565b6060600080838152602001908152602001600020600501805461136090612308565b80601f016020809104026020016040519081016040528092919081815260200182805461138c90612308565b80156113d95780601f106113ae576101008083540402835291602001916113d9565b820191906000526020600020905b8154815290600101906020018083116113bc57829003601f168201915b50505050509050919050565b6060600480548060200260200160405190810160405280929190818152602001828054801561146957602002820191906000526020600020905b8160009054906101000a900473ffffffffffffffffffffffffffffffffffffffff1673ffffffffffffffffffffffffffffffffffffffff168152602001906001019080831161141f575b5050505050905090565b6000600754905090565b6060600060606000606080600260008881526020019081526020016000206000016002600089815260200190815260200160002060010154600260008a8152602001908152602001600020600201600260008b815260200190815260200160002060030154600260008c8152602001908152602001600020600401600260008d815260200190815260200160002060050185805461151a90612308565b80601f016020809104026020016040519081016040528092919081815260200182805461154690612308565b80156115935780601f1061156857610100808354040283529160200191611593565b820191906000526020600020905b81548152906001019060200180831161157657829003601f168201915b505050505095508380546115a690612308565b80601f01602080910402602001604051908101604052809291908181526020018280546115d290612308565b801561161f5780601f106115f45761010080835404028352916020019161161f565b820191906000526020600020905b81548152906001019060200180831161160257829003601f168201915b5050505050935081805461163290612308565b80601f016020809104026020016040519081016040528092919081815260200182805461165e90612308565b80156116ab5780601f10611680576101008083540402835291602001916116ab565b820191906000526020600020905b81548152906001019060200180831161168e57829003601f168201915b505050505091508080546116be90612308565b80601f01602080910402602001604051908101604052809291908181526020018280546116ea90612308565b80156117375780601f1061170c57610100808354040283529160200191611737565b820191906000526020600020905b81548152906001019060200180831161171a57829003601f168201915b5050505050905095509550955095509550955091939550919395565b6040518060c0016040528060055481526020018681526020018581526020018481526020018381526020018281525060008060055481526020019081526020016000206000820151816000015560208201518160010190805190602001906117bc9291906119ea565b5060408201518160020190805190602001906117d99291906119ea565b5060608201518160030190805190602001906117f69291906119ea565b5060808201518160040190805190602001906118139291906119ea565b5060a08201518160050190805190602001906118309291906119ea565b509050506005600081548092919061184790612369565b91905055505050505050565b6060600080838152602001908152602001600020600301805461187590612308565b80601f01602080910402602001604051908101604052809291908181526020018280546118a190612308565b80156118ee5780601f106118c3576101008083540402835291602001916118ee565b820191906000526020600020905b8154815290600101906020018083116118d157829003601f168201915b50505050509050919050565b6000600654905090565b6004818154811061191457600080fd5b906000526020600020016000915054906101000a900473ffffffffffffffffffffffffffffffffffffffff1681565b6060600080838152602001908152602001600020600201805461196590612308565b80601f016020809104026020016040519081016040528092919081815260200182805461199190612308565b80156119de5780601f106119b3576101008083540402835291602001916119de565b820191906000526020600020905b8154815290600101906020018083116119c157829003601f168201915b50505050509050919050565b8280546119f690612308565b90600052602060002090601f016020900481019282611a185760008555611a5f565b82601f10611a3157805160ff1916838001178555611a5f565b82800160010185558215611a5f579182015b82811115611a5e578251825591602001919060010190611a43565b5b509050611a6c9190611a70565b5090565b5b80821115611a89576000816000905550600101611a71565b5090565b6000604051905090565b600080fd5b600080fd5b6000819050919050565b611ab481611aa1565b8114611abf57600080fd5b50565b600081359050611ad181611aab565b92915050565b600060208284031215611aed57611aec611a97565b5b6000611afb84828501611ac2565b91505092915050565b600081519050919050565b600082825260208201905092915050565b60005b83811015611b3e578082015181840152602081019050611b23565b83811115611b4d576000848401525b50505050565b6000601f19601f8301169050919050565b6000611b6f82611b04565b611b798185611b0f565b9350611b89818560208601611b20565b611b9281611b53565b840191505092915050565b60006020820190508181036000830152611bb78184611b64565b905092915050565b611bc881611aa1565b82525050565b6000602082019050611be36000830184611bbf565b92915050565b600073ffffffffffffffffffffffffffffffffffffffff82169050919050565b6000611c1482611be9565b9050919050565b611c2481611c09565b82525050565b6000602082019050611c3f6000830184611c1b565b92915050565b600060c082019050611c5a6000830189611bbf565b8181036020830152611c6c8188611b64565b90508181036040830152611c808187611b64565b90508181036060830152611c948186611b64565b90508181036080830152611ca88185611b64565b905081810360a0830152611cbc8184611b64565b9050979650505050505050565b600060c082019050611cde6000830189611bbf565b8181036020830152611cf08188611b64565b90508181036040830152611d048187611b64565b9050611d136060830186611bbf565b8181036080830152611d258185611b64565b905081810360a0830152611d398184611b64565b9050979650505050505050565b600080fd5b600080fd5b7f4e487b7100000000000000000000000000000000000000000000000000000000600052604160045260246000fd5b611d8882611b53565b810181811067ffffffffffffffff82111715611da757611da6611d50565b5b80604052505050565b6000611dba611a8d565b9050611dc68282611d7f565b919050565b600067ffffffffffffffff821115611de657611de5611d50565b5b611def82611b53565b9050602081019050919050565b82818337600083830152505050565b6000611e1e611e1984611dcb565b611db0565b905082815260208101848484011115611e3a57611e39611d4b565b5b611e45848285611dfc565b509392505050565b600082601f830112611e6257611e61611d46565b5b8135611e72848260208601611e0b565b91505092915050565b60008060008060008060c08789031215611e9857611e97611a97565b5b600087013567ffffffffffffffff811115611eb657611eb5611a9c565b5b611ec289828a01611e4d565b9650506020611ed389828a01611ac2565b955050604087013567ffffffffffffffff811115611ef457611ef3611a9c565b5b611f0089828a01611e4d565b9450506060611f1189828a01611ac2565b935050608087013567ffffffffffffffff811115611f3257611f31611a9c565b5b611f3e89828a01611e4d565b92505060a087013567ffffffffffffffff811115611f5f57611f5e611a9c565b5b611f6b89828a01611e4d565b9150509295509295509295565b600081519050919050565b600082825260208201905092915050565b6000819050602082019050919050565b611fad81611c09565b82525050565b6000611fbf8383611fa4565b60208301905092915050565b6000602082019050919050565b6000611fe382611f78565b611fed8185611f83565b9350611ff883611f94565b8060005b838110156120295781516120108882611fb3565b975061201b83611fcb565b925050600181019050611ffc565b5085935050505092915050565b600060208201905081810360008301526120508184611fd8565b905092915050565b600060c08201905081810360008301526120728189611b64565b90506120816020830188611bbf565b81810360408301526120938187611b64565b90506120a26060830186611bbf565b81810360808301526120b48185611b64565b905081810360a08301526120c88184611b64565b9050979650505050505050565b60008060008060008060c087890312156120f2576120f1611a97565b5b600061210089828a01611ac2565b965050602087013567ffffffffffffffff81111561212157612120611a9c565b5b61212d89828a01611e4d565b955050604087013567ffffffffffffffff81111561214e5761214d611a9c565b5b61215a89828a01611e4d565b945050606061216b89828a01611ac2565b935050608087013567ffffffffffffffff81111561218c5761218b611a9c565b5b61219889828a01611e4d565b92505060a087013567ffffffffffffffff8111156121b9576121b8611a9c565b5b6121c589828a01611e4d565b9150509295509295509295565b600080600080600060a086880312156121ee576121ed611a97565b5b600086013567ffffffffffffffff81111561220c5761220b611a9c565b5b61221888828901611e4d565b955050602086013567ffffffffffffffff81111561223957612238611a9c565b5b61224588828901611e4d565b945050604086013567ffffffffffffffff81111561226657612265611a9c565b5b61227288828901611e4d565b935050606086013567ffffffffffffffff81111561229357612292611a9c565b5b61229f88828901611e4d565b925050608086013567ffffffffffffffff8111156122c0576122bf611a9c565b5b6122cc88828901611e4d565b9150509295509295909350565b7f4e487b7100000000000000000000000000000000000000000000000000000000600052602260045260246000fd5b6000600282049050600182168061232057607f821691505b60208210811415612334576123336122d9565b5b50919050565b7f4e487b7100000000000000000000000000000000000000000000000000000000600052601160045260246000fd5b600061237482611aa1565b91507fffffffffffffffffffffffffffffffffffffffffffffffffffffffffffffffff8214156123a7576123a661233a565b5b60018201905091905056fea264697066735822122041b890a34d0a2d34f455f9f5776b875b8d7351319c20510e100f2e7212b99a7964736f6c634300080a0033",
  "immutableReferences": {},
  "source": "// SPDX-License-Identifier: MIT\r\npragma solidity >=0.4.22 <0.9.0;\r\n\r\ncontract Land {\r\n    // structs\r\n    struct Deed {\r\n        // deed instance variables\r\n        uint deedId;\r\n        string no;\r\n        string streetName;\r\n        string city;\r\n        string district;\r\n        string province;\r\n    }\r\n    struct Buyer{\r\n        // Buyer instance variables\r\n       uint id;\r\n       string nic;\r\n       string name;\r\n       uint age;\r\n       string city;\r\n       string email; \r\n    }\r\n\r\n    struct Seller {\r\n        // Seller instance variables\r\n        string name;\r\n\t\tuint id;\r\n\t\tstring nic;\r\n        uint age;\r\n        string city;\r\n\t\tstring email;\r\n    }\r\n\r\n    // mappings\r\n    mapping(uint => Deed) public deeds;\r\n    mapping(uint => Buyer) public Buyersmapping;\r\n    mapping(uint => Seller) public sellersMapping;\r\n    \r\n    //arrays\r\n    address[] public Buyerlist;\r\n    address[] public sellerList;\r\n\r\n    // Count tracking variables\r\n    uint private deedCount = 0;\r\n    uint private buyersCount=0;\r\n    uint private sellersCount = 0;\r\n\r\n    // getter for deed count\r\n    function getDeedCount() public view returns (uint) {\r\n        return deedCount;\r\n    }\r\n    // getter for buyer count\r\n    function getBuyersCount() public view returns(uint){\r\n        return buyersCount;\r\n    }\r\n\r\n    // getter for seller count\r\n    function getSellersCount() public view returns(uint){\r\n        return sellersCount;\r\n    }\r\n\r\n    //getters for Deed struct\r\n    function getDeedId(uint index) public view returns (uint) {\r\n        return deeds[index].deedId;\r\n    }\r\n\r\n    function getDeedNo(uint index) public view returns (string memory) {\r\n        return deeds[index].no;\r\n    }\r\n\r\n    function getDeedStreetName(uint index) public view returns (string memory) {\r\n        return deeds[index].streetName;\r\n    }\r\n\r\n    function getDeedCity(uint index) public view returns (string memory) {\r\n        return deeds[index].city;\r\n    }\r\n\r\n    function getDeedDistrict(uint index) public view returns (string memory) {\r\n        return deeds[index].district;\r\n    }\r\n\r\n    function getDeedProvince(uint index) public view returns (string memory) {\r\n        return deeds[index].province;\r\n    }\r\n    //getter for the Buyerlist array\r\n    function getBuyer() public view returns( address [] memory){\r\n        return(Buyerlist);\r\n    }\r\n\r\n    //getter for the seller list array\r\n    function getSeller() public view returns( address [] memory){\r\n        return(sellerList);\r\n    }\r\n\r\n    // function to add a new deed to the deeds mapping\r\n    function addNewDeed(string memory _no, string memory _streetName, string memory _city, string memory _district,string memory _province) public {\r\n        deeds[deedCount] = Deed(deedCount, _no, _streetName, _city, _district, _province);\r\n        deedCount++;\r\n    }\r\n\r\n    //function to register new Buyer\r\n    function registerBuyer(uint _id, string memory _nic, string memory _name, uint _age, string memory _city, string memory _email) public {\r\n        \r\n        Buyersmapping[buyersCount] = Buyer(_id, _nic,  _name, _age, _city, _email);\r\n        buyersCount++;\r\n\r\n    }\r\n\r\n    //function to register a seller\r\n    function registerSeller(string memory _name, uint _id, string memory _nic, uint _age, string memory _city, string memory _email) public {\r\n        sellersMapping[sellersCount] = Seller(_name, _id, _nic, _age, _city, _email);\r\n        sellersCount++;\r\n\r\n    }\r\n\r\n    //function to display buyer details\r\n    function displayBuyer(uint index) public view returns (uint _id, string memory _nic, string memory _name, uint _age, string memory _city, string memory _email){\r\n        return(Buyersmapping[index].id, Buyersmapping[index].nic,Buyersmapping[index].name,Buyersmapping[index].age,Buyersmapping[index].city,Buyersmapping[index].email);\r\n\r\n    } \r\n\r\n    //function to display seller details\r\n    function displaySeller(uint index) public view returns (string memory _name, uint _id, string memory _nic, uint _age, string memory _city, string memory _email){\r\n        return(sellersMapping[index].name, sellersMapping[index].id, sellersMapping[index].nic, sellersMapping[index].age, sellersMapping[index].city, sellersMapping[index].email);\r\n    }\r\n    \r\n}\r\n",
  "sourcePath": "C:\\Users\\wathm\\OneDrive\\Documents\\GitHub\\DBLOCK\\contracts\\Land.sol",
  "compiler": {
    "name": "solc",
    "version": "0.8.10+commit.fc410830.Emscripten.clang"
  },
  "schemaVersion": "3.4.3",
  "updatedAt": "2022-02-09T07:30:16.157Z",
  "networkType": "ethereum",
  "devdoc": {
    "kind": "dev",
    "methods": {},
    "version": 1
  },
  "userdoc": {
    "kind": "user",
    "methods": {},
    "version": 1
  }
}